{
  "address": "0xD4099787c0491eE85CFbb6f1D8C7f07aF8BdA84f",
  "abi": [
    {
      "inputs": [],
      "name": "AccessControlBadConfirmation",
      "type": "error"
    },
    {
      "inputs": [
        {
          "internalType": "address",
          "name": "account",
          "type": "address"
        },
        {
          "internalType": "bytes32",
          "name": "neededRole",
          "type": "bytes32"
        }
      ],
      "name": "AccessControlUnauthorizedAccount",
      "type": "error"
    },
    {
      "inputs": [],
      "name": "InvalidInitialization",
      "type": "error"
    },
    {
      "inputs": [
        {
          "internalType": "string",
          "name": "str",
          "type": "string"
        },
        {
          "internalType": "uint256",
          "name": "minLength",
          "type": "uint256"
        },
        {
          "internalType": "uint256",
          "name": "maxLength",
          "type": "uint256"
        }
      ],
      "name": "InvalidLength",
      "type": "error"
    },
    {
      "inputs": [],
      "name": "NotInitializing",
      "type": "error"
    },
    {
      "anonymous": false,
      "inputs": [
        {
          "indexed": false,
          "internalType": "string",
          "name": "bannerType",
          "type": "string"
        },
        {
          "indexed": false,
          "internalType": "string",
          "name": "heading",
          "type": "string"
        },
        {
          "indexed": false,
          "internalType": "string",
          "name": "subtitle",
          "type": "string"
        }
      ],
      "name": "BannerInfoUpdated",
      "type": "event"
    },
    {
      "anonymous": false,
      "inputs": [
        {
          "indexed": false,
          "internalType": "string",
          "name": "bannerType",
          "type": "string"
        },
        {
          "indexed": false,
          "internalType": "uint8",
          "name": "featureIndex",
          "type": "uint8"
        },
        {
          "indexed": false,
          "internalType": "string",
          "name": "name",
          "type": "string"
        },
        {
          "indexed": false,
          "internalType": "string",
          "name": "description",
          "type": "string"
        },
        {
          "indexed": false,
          "internalType": "string",
          "name": "cta",
          "type": "string"
        },
        {
          "indexed": false,
          "internalType": "string",
          "name": "ctaLink",
          "type": "string"
        }
      ],
      "name": "FeatureUpdated",
      "type": "event"
    },
    {
      "anonymous": false,
      "inputs": [
        {
          "indexed": false,
          "internalType": "uint64",
          "name": "version",
          "type": "uint64"
        }
      ],
      "name": "Initialized",
      "type": "event"
    },
    {
      "anonymous": false,
      "inputs": [
        {
          "indexed": true,
          "internalType": "bytes32",
          "name": "role",
          "type": "bytes32"
        },
        {
          "indexed": true,
          "internalType": "bytes32",
          "name": "previousAdminRole",
          "type": "bytes32"
        },
        {
          "indexed": true,
          "internalType": "bytes32",
          "name": "newAdminRole",
          "type": "bytes32"
        }
      ],
      "name": "RoleAdminChanged",
      "type": "event"
    },
    {
      "anonymous": false,
      "inputs": [
        {
          "indexed": true,
          "internalType": "bytes32",
          "name": "role",
          "type": "bytes32"
        },
        {
          "indexed": true,
          "internalType": "address",
          "name": "account",
          "type": "address"
        },
        {
          "indexed": true,
          "internalType": "address",
          "name": "sender",
          "type": "address"
        }
      ],
      "name": "RoleGranted",
      "type": "event"
    },
    {
      "anonymous": false,
      "inputs": [
        {
          "indexed": true,
          "internalType": "bytes32",
          "name": "role",
          "type": "bytes32"
        },
        {
          "indexed": true,
          "internalType": "address",
          "name": "account",
          "type": "address"
        },
        {
          "indexed": true,
          "internalType": "address",
          "name": "sender",
          "type": "address"
        }
      ],
      "name": "RoleRevoked",
      "type": "event"
    },
    {
      "inputs": [
        {
          "internalType": "uint256",
          "name": "",
          "type": "uint256"
        }
      ],
      "name": "CTA_LINK_MAX",
      "outputs": [
        {
          "internalType": "uint16",
          "name": "",
          "type": "uint16"
        }
      ],
      "stateMutability": "view",
      "type": "function"
    },
    {
      "inputs": [
        {
          "internalType": "uint256",
          "name": "",
          "type": "uint256"
        }
      ],
      "name": "CTA_MAX",
      "outputs": [
        {
          "internalType": "uint16",
          "name": "",
          "type": "uint16"
        }
      ],
      "stateMutability": "view",
      "type": "function"
    },
    {
      "inputs": [],
      "name": "DEFAULT_ADMIN_ROLE",
      "outputs": [
        {
          "internalType": "bytes32",
          "name": "",
          "type": "bytes32"
        }
      ],
      "stateMutability": "view",
      "type": "function"
    },
    {
      "inputs": [
        {
          "internalType": "uint256",
          "name": "",
          "type": "uint256"
        }
      ],
      "name": "DESC_MAX",
      "outputs": [
        {
          "internalType": "uint16",
          "name": "",
          "type": "uint16"
        }
      ],
      "stateMutability": "view",
      "type": "function"
    },
    {
      "inputs": [
        {
          "internalType": "uint256",
          "name": "",
          "type": "uint256"
        }
      ],
      "name": "NAME_MAX",
      "outputs": [
        {
          "internalType": "uint16",
          "name": "",
          "type": "uint16"
        }
      ],
      "stateMutability": "view",
      "type": "function"
    },
    {
      "inputs": [],
      "name": "OPERATOR",
      "outputs": [
        {
          "internalType": "bytes32",
          "name": "",
          "type": "bytes32"
        }
      ],
      "stateMutability": "view",
      "type": "function"
    },
    {
      "inputs": [
        {
          "internalType": "enum Banner.BannerType",
          "name": "bannerType",
          "type": "uint8"
        },
        {
          "internalType": "string",
          "name": "_heading",
          "type": "string"
        },
        {
          "internalType": "string",
          "name": "_subtitle",
          "type": "string"
        },
        {
          "components": [
            {
              "internalType": "string",
              "name": "name",
              "type": "string"
            },
            {
              "internalType": "string",
              "name": "description",
              "type": "string"
            },
            {
              "internalType": "string",
              "name": "cta",
              "type": "string"
            },
            {
              "internalType": "string",
              "name": "ctaLink",
              "type": "string"
            }
          ],
          "internalType": "struct Banner.Feature[3]",
          "name": "_features",
          "type": "tuple[3]"
        }
      ],
      "name": "configBanner",
      "outputs": [],
      "stateMutability": "nonpayable",
      "type": "function"
    },
    {
      "inputs": [
        {
          "internalType": "enum Banner.BannerType",
          "name": "bannerType",
          "type": "uint8"
        }
      ],
      "name": "getBanner",
      "outputs": [
        {
          "internalType": "string",
          "name": "heading",
          "type": "string"
        },
        {
          "internalType": "string",
          "name": "subtitle",
          "type": "string"
        },
        {
          "components": [
            {
              "internalType": "string",
              "name": "name",
              "type": "string"
            },
            {
              "internalType": "string",
              "name": "description",
              "type": "string"
            },
            {
              "internalType": "string",
              "name": "cta",
              "type": "string"
            },
            {
              "internalType": "string",
              "name": "ctaLink",
              "type": "string"
            }
          ],
          "internalType": "struct Banner.Feature[3]",
          "name": "features",
          "type": "tuple[3]"
        }
      ],
      "stateMutability": "view",
      "type": "function"
    },
    {
      "inputs": [
        {
          "internalType": "enum Banner.BannerType",
          "name": "bannerType",
          "type": "uint8"
        },
        {
          "internalType": "uint8",
          "name": "index",
          "type": "uint8"
        }
      ],
      "name": "getFeature",
      "outputs": [
        {
          "components": [
            {
              "internalType": "string",
              "name": "name",
              "type": "string"
            },
            {
              "internalType": "string",
              "name": "description",
              "type": "string"
            },
            {
              "internalType": "string",
              "name": "cta",
              "type": "string"
            },
            {
              "internalType": "string",
              "name": "ctaLink",
              "type": "string"
            }
          ],
          "internalType": "struct Banner.Feature",
          "name": "",
          "type": "tuple"
        }
      ],
      "stateMutability": "view",
      "type": "function"
    },
    {
      "inputs": [
        {
          "internalType": "bytes32",
          "name": "role",
          "type": "bytes32"
        }
      ],
      "name": "getRoleAdmin",
      "outputs": [
        {
          "internalType": "bytes32",
          "name": "",
          "type": "bytes32"
        }
      ],
      "stateMutability": "view",
      "type": "function"
    },
    {
      "inputs": [
        {
          "internalType": "bytes32",
          "name": "role",
          "type": "bytes32"
        },
        {
          "internalType": "address",
          "name": "account",
          "type": "address"
        }
      ],
      "name": "grantRole",
      "outputs": [],
      "stateMutability": "nonpayable",
      "type": "function"
    },
    {
      "inputs": [
        {
          "internalType": "bytes32",
          "name": "role",
          "type": "bytes32"
        },
        {
          "internalType": "address",
          "name": "account",
          "type": "address"
        }
      ],
      "name": "hasRole",
      "outputs": [
        {
          "internalType": "bool",
          "name": "",
          "type": "bool"
        }
      ],
      "stateMutability": "view",
      "type": "function"
    },
    {
      "inputs": [],
      "name": "initialize",
      "outputs": [],
      "stateMutability": "nonpayable",
      "type": "function"
    },
    {
      "inputs": [
        {
          "internalType": "bytes32",
          "name": "role",
          "type": "bytes32"
        },
        {
          "internalType": "address",
          "name": "callerConfirmation",
          "type": "address"
        }
      ],
      "name": "renounceRole",
      "outputs": [],
      "stateMutability": "nonpayable",
      "type": "function"
    },
    {
      "inputs": [
        {
          "internalType": "bytes32",
          "name": "role",
          "type": "bytes32"
        },
        {
          "internalType": "address",
          "name": "account",
          "type": "address"
        }
      ],
      "name": "revokeRole",
      "outputs": [],
      "stateMutability": "nonpayable",
      "type": "function"
    },
    {
      "inputs": [
        {
          "internalType": "uint16[3]",
          "name": "nameMax",
          "type": "uint16[3]"
        },
        {
          "internalType": "uint16[3]",
          "name": "descMax",
          "type": "uint16[3]"
        },
        {
          "internalType": "uint16[3]",
          "name": "ctaMax",
          "type": "uint16[3]"
        },
        {
          "internalType": "uint16[3]",
          "name": "ctaLinkMax",
          "type": "uint16[3]"
        }
      ],
      "name": "setMaxLengths",
      "outputs": [],
      "stateMutability": "nonpayable",
      "type": "function"
    },
    {
      "inputs": [
        {
          "internalType": "bytes4",
          "name": "interfaceId",
          "type": "bytes4"
        }
      ],
      "name": "supportsInterface",
      "outputs": [
        {
          "internalType": "bool",
          "name": "",
          "type": "bool"
        }
      ],
      "stateMutability": "view",
      "type": "function"
    },
    {
      "inputs": [
        {
          "internalType": "enum Banner.BannerType",
          "name": "bannerType",
          "type": "uint8"
        },
        {
          "internalType": "string",
          "name": "_heading",
          "type": "string"
        },
        {
          "internalType": "string",
          "name": "_subtitle",
          "type": "string"
        }
      ],
      "name": "updateBannerInfo",
      "outputs": [],
      "stateMutability": "nonpayable",
      "type": "function"
    },
    {
      "inputs": [
        {
          "internalType": "enum Banner.BannerType",
          "name": "bannerType",
          "type": "uint8"
        },
        {
          "internalType": "uint8[]",
          "name": "_featureIndexes",
          "type": "uint8[]"
        },
        {
          "internalType": "string[]",
          "name": "_names",
          "type": "string[]"
        },
        {
          "internalType": "string[]",
          "name": "_descriptions",
          "type": "string[]"
        },
        {
          "internalType": "string[]",
          "name": "_ctas",
          "type": "string[]"
        },
        {
          "internalType": "string[]",
          "name": "_ctaLinks",
          "type": "string[]"
        }
      ],
      "name": "updateFeature",
      "outputs": [],
      "stateMutability": "nonpayable",
      "type": "function"
    }
  ],
  "transactionHash": "0x0fa204144c7fef02a8859cc8e0e7653d86036534dd184658efb9d2098adecc64",
  "deployedBytecode": "0x6080604081815260048036101561001557600080fd5b600092833560e01c90816301ffc9a714610bc057508063095ee25214610b0a578063169a3111146109ad578063248a9ca3146109765780632709e82a1461094a5780632f2ff15d1461092c57806336568abe146108f05780634035130e1461087f5780635ff5e8bd1461074d5780638129fc1c146104ab57806384ef99bf1461038a57806391d1485414610342578063983d273714610307578063a217fddf146102ec578063a2d18001146101d4578063cc71e671146101a8578063d547741f14610161578063e4330d99146101355763ee55dc49146100f457600080fd5b34610131576020366003190112610131573591600383101561012e575061ffff61011f602093610d47565b90549060031b1c169051908152f35b80fd5b8280fd5b5034610131576020366003190112610131573591600383101561012e575061ffff61011f602093610d2c565b5050346101a45760016101a09161019b61017a36610d62565b939092838752600080516020611d2783398151915260205286200154610e2f565b61104b565b5080f35b5080fd5b5034610131576020366003190112610131573591600383101561012e575061ffff61011f602093610d11565b8382346101a4576101803660031901126101a457366064116101a4573660c4116101a4576101249036821161013157366101841161013157610214610db5565b8281815b600381106102d05750506001908155836064815b83600382106102b557505050600255839260c4845b6003811061029a5750506003938455908493855b81811061026457505050505580f35b9091602061028f85976102778497611d17565b9085851b60031b9161ffff809116831b921b19161790565b960193929101610255565b909460206102ac859261027789611d17565b96019101610241565b9091926102c760209161027786611d17565b9301910161022c565b909160206102e360019261027786611d17565b93019101610218565b5050346101a457816003193601126101a45751908152602090f35b5050346101a457816003193601126101a457602090517f523a704056dcd17bcf83bed8b68c59416dac1119be77755efe3bde0a64e46e0c8152f35b5050346101a45760ff8160209361035836610d62565b908252600080516020611d2783398151915286528282206001600160a01b039091168252855220549151911615158152f35b50913461012e57608036600319011261012e5782359260028410156101a4576001600160401b03906024358281116104a7576103c99036908301610d88565b60449291923584811161049f576103e39036908401610d88565b9390926064359586116104a35785019460643691011161049f579061041293929161040c610db5565b88611483565b815b60ff8116600381101561049b5790610491818784866104778a61044361043d6104969a8561117d565b806111a0565b9061048961047f610461610457898961117d565b60208101906111a0565b96909561046e8a8a61117d565b908101906111a0565b98909761117d565b60608101906111a0565b98909761178e565b611156565b610414565b8380f35b8580fd5b8680fd5b8380fd5b50346101315782600319360112610131577ff0c57e16840df040f15088dc2f81fe391c3923bec73e23a9662efc9c229c6a009182549060ff8083831c1615906001600160401b03841693841580610746575b6001809614908161073c575b159081610733575b506107235767ffffffffffffffff1981168517875582610704575b5061053633610e62565b5061054033610f02565b5082519461054d866110ce565b602886526020956019878201526019858201528890895b8789600383106106d7575091505055835161057e816110ce565b60c881526078878201526032858201528890895b8789600383106106aa575050505060025583516105ae816110ce565b601e8152601e87820152600f858201528892895b87896003831061067b575050505050600391825583516105e1816110ce565b6101f48082528088830152858201528892895b878983831061064a5750505050505561060b578480f35b7fc7f505b2f371ae2175ee4913f4499e1f2633a7b5936321eed1cdaeb6115181d29368ff000000000000000019815416905551908152a1388080808480f35b90919293956106719061ffff8851169085851b60031b9161ffff809116831b921b19161790565b95019291016105f4565b90919293956106a090858851169085851b60031b9161ffff809116831b921b19161790565b95019291016105c2565b909192936106ce90878651169085851b60031b9161ffff809116831b921b19161790565b93019101610592565b909192936106fb90878651169085851b60031b9161ffff809116831b921b19161790565b93019101610564565b68ffffffffffffffffff1916680100000000000000011786553861052c565b835163f92ee8a960e01b81528690fd5b90501538610511565b303b159150610509565b50826104fd565b508290346101a4576020928360031936011261013157813560028110156104a75781929493915161077d816110ce565b825b6060811061086257505061079290611211565b9161079c8361127a565b936001936107ab85820161127a565b908351976107b8896110ce565b60028992019186905b6003821061083a57505050506107f2906107e5845197606089526060890190610c14565b9087820384890152610c14565b918583039086015281606083019693905b600382106108115786880387f35b909192939483806108298a88859c0386528951610c54565b999701959493919091019101610803565b978286829c9a61084d879b999a9b611320565b815201940191019092999799969594966107c1565b9480969493956108706111ed565b8184015201959492939561077f565b8382346101a45760603660031901126101a45780356002811015610131576001600160401b03906024358281116108ec576108bd9036908501610d88565b909260443590811161049f576108e9946108d991369101610d88565b9390926108e4610db5565b611483565b80f35b8480fd5b509190346101a45761090136610d62565b91336001600160a01b0384160361091d5750906101a09161104b565b5163334bd91960e11b81528490fd5b5050346101a45760016101a09161094561017a36610d62565b610fc4565b5034610131576020366003190112610131573591600383101561012e575061ffff61011f602093610ce0565b50346101315760203660031901126101315781602093600192358152600080516020611d2783398151915285522001549051908152f35b508290346101a45760c03660031901126101a4578035906002821015610131576001600160401b03936024358581116108ec576109ed9036908401610cab565b90956044358181116104a357610a069036908601610cab565b606493919335838111610b0657610a209036908801610cab565b929091608435858111610b0257610a3a9036908a01610cab565b96909560a435908111610afe57610a549036908b01610cab565b999098610a5f610db5565b60038511610aca5750508a5b60ff80821685811015610ac6578e611fe08460051b1601359182168203610ac257610abd92918d8d8d8d8d8d8d61048989610ab58f9b8f81610ab56104919f8290610ab5946111d2565b9890976111d2565b610a6b565b8d80fd5b8d80f35b906020606492519162461bcd60e51b8352820152600e60248201526d092dcecc2d8d2c840d8cadccee8d60931b6044820152fd5b8b80fd5b8a80fd5b8880fd5b508290346101a457826003193601126101a4578035906002821015610131576024359260ff84169081850361012e5750600390610b456111ed565b501015610b8557610b8184610b6e610b68866002610b6288611211565b0161136e565b50611320565b9051918291602083526020830190610c54565b0390f35b606490602085519162461bcd60e51b83528201526015602482015274092dcecc2d8d2c840cccac2e8eae4ca40d2dcc8caf605b1b6044820152fd5b92505034610131576020366003190112610131573563ffffffff60e01b81168091036101315760209250637965db0b60e01b8114908115610c03575b5015158152f35b6301ffc9a760e01b14905038610bfc565b919082519283825260005b848110610c40575050826000602080949584010152601f8019910116010190565b602081830181015184830182015201610c1f565b610ca8916060610c97610c85610c738551608086526080860190610c14565b60208601518582036020870152610c14565b60408501518482036040860152610c14565b920151906060818403910152610c14565b90565b9181601f84011215610cdb578235916001600160401b038311610cdb576020808501948460051b010111610cdb57565b600080fd5b906003821015610cfb57601e8260041c6004019260011b1690565b634e487b7160e01b600052603260045260246000fd5b906003821015610cfb57601e8260041c6002019260011b1690565b906003821015610cfb57601e8260041c6003019260011b1690565b906003821015610cfb57601e8260041c6001019260011b1690565b6040906003190112610cdb57600435906024356001600160a01b0381168103610cdb5790565b9181601f84011215610cdb578235916001600160401b038311610cdb5760208381860195010111610cdb57565b3360009081527f5dfc6369ede8c1331430c00b581919993675ec010140508e8a499d5c8bfbd93760205260409020547f523a704056dcd17bcf83bed8b68c59416dac1119be77755efe3bde0a64e46e0c9060ff1615610e115750565b6044906040519063e2517d3f60e01b82523360048301526024820152fd5b80600052600080516020611d2783398151915260205260406000203360005260205260ff6040600020541615610e115750565b6001600160a01b031660008181527fb7db2dd08fcb62d0c9e08c51941cae53c267786a0b75803fb7960902fc8ef97d6020526040812054909190600080516020611d278339815191529060ff16610efd578280526020526040822081835260205260408220600160ff1982541617905533917f2f8788117e7eff1d82e926ec794901d17c78024a50270940304540a733656f0d8180a4600190565b505090565b6001600160a01b031660008181527f5dfc6369ede8c1331430c00b581919993675ec010140508e8a499d5c8bfbd93760205260408120549091907f523a704056dcd17bcf83bed8b68c59416dac1119be77755efe3bde0a64e46e0c90600080516020611d278339815191529060ff16610fbe578184526020526040832082845260205260408320600160ff198254161790557f2f8788117e7eff1d82e926ec794901d17c78024a50270940304540a733656f0d339380a4600190565b50505090565b90600091808352600080516020611d2783398151915280602052604084209260018060a01b03169283855260205260ff60408520541615600014610fbe578184526020526040832082845260205260408320600160ff198254161790557f2f8788117e7eff1d82e926ec794901d17c78024a50270940304540a733656f0d339380a4600190565b90600091808352600080516020611d2783398151915280602052604084209260018060a01b03169283855260205260ff604085205416600014610fbe57818452602052604083208284526020526040832060ff1981541690557ff6391f5c32d9c69d2a47ea670b442974b53935d1edc7fd64eb21e047a839171b339380a4600190565b606081019081106001600160401b038211176110e957604052565b634e487b7160e01b600052604160045260246000fd5b608081019081106001600160401b038211176110e957604052565b604081019081106001600160401b038211176110e957604052565b90601f801991011681019081106001600160401b038211176110e957604052565b60ff1660ff81146111675760010190565b634e487b7160e01b600052601160045260246000fd5b906003811015610cfb5760051b81013590607e1981360301821215610cdb570190565b903590601e1981360301821215610cdb57018035906001600160401b038211610cdb57602001918136038313610cdb57565b90821015610cfb576111e99160051b8101906111a0565b9091565b604051906111fa826110ff565b606080838181528160208201528160408201520152565b600281101561122a576000526000602052604060002090565b634e487b7160e01b600052602160045260246000fd5b90600182811c92168015611270575b602083101461125a57565b634e487b7160e01b600052602260045260246000fd5b91607f169161124f565b906040519182600082549261128e84611240565b9081845260019485811690816000146112fd57506001146112ba575b50506112b892500383611135565b565b9093915060005260209081600020936000915b8183106112e55750506112b8935082010138806112aa565b855488840185015294850194879450918301916112cd565b9150506112b894506020925060ff191682840152151560051b82010138806112aa565b9060405161132d816110ff565b60606113696003839561133f8161127a565b855261134d6001820161127a565b602086015261135e6002820161127a565b60408601520161127a565b910152565b906003811015610cfb5760021b0190600090565b9291926001600160401b0382116110e957604051916113ab601f8201601f191660200184611135565b829481845281830111610cdb578281602093846000960137010152565b90601f81116113d657505050565b600091825260208220906020601f850160051c83019410611412575b601f0160051c01915b82811061140757505050565b8181556001016113fb565b90925082906113f2565b604051906114298261111a565b600882526754494d454c4f434b60c01b6020830152565b6040519061144d8261111a565b60068252654c454741435960d01b6020830152565b908060209392818452848401376000828201840152601f01601f1916010190565b9261148f368484611382565b8051906001918281106117685760961061173257506114ad85611211565b906001600160401b03918286116110e9576114d2866114cc8354611240565b836113c8565b856000601f82116001146116ca576000916116bf575b50600019600388901b1c191686831b1790555b611506368885611382565b80518281106116995760c81061166357508061152187611211565b019187116110e95761153d876115378454611240565b846113c8565b866000601f82116001146115fc5760009290826115f1575b501b906000198860031b1c19161790555b600284101561122a577fc2bc4b14e936583d52a6eabe6ccdc4426be9e195c1ca1b2e32241b4846bf4058946115d06115de936115c296156000146115e3576115ac611440565b955b604051978897606089526060890190610c14565b918783036020890152611462565b918483036040860152611462565b0390a1565b6115eb61141c565b956115ae565b850135925038611555565b838152602080822092508990601f1982169083905b86838310611649575050501061162f575b505086811b019055611566565b84013560001960038a901b60f8161c191690553880611622565b89860135875590950194938401938c935090810190611611565b6040516307120da760e01b815260606004820152918291611688906064840190610c14565b90602483015260c860448301520390fd5b506040516307120da760e01b815260606004820152918291611688906064840190610c14565b9050850135386114e8565b828152602080822092508890601f1982169083905b8783831061171857505050106116fe575b50508186811b0190556114fb565b860135600019600389901b60f8161c1916905538806116f0565b8b860135875590950194938401938b9350908101906116df565b6040516307120da760e01b815260606004820152918291611757906064840190610c14565b906024830152609660448301520390fd5b506040516307120da760e01b815260606004820152918291611757906064840190610c14565b9895949190979693929760ff811699600391828c1015611c6c576117b181610d47565b905461ffff91851b1c81166117c7368e88611382565b906117d191611ca8565b806117db83610d11565b905490861b1c166117ed36888a611382565b906117f791611ca8565b8061180183610d2c565b905490861b1c16611813368a8c611382565b9061181d91611ca8565b61182682610ce0565b905490851b1c16611838368b8d611382565b9061184291611ca8565b60405161184e816110ff565b611859368d87611382565b8152611866368789611382565b906020948582019283523661187c908b8d611382565b604083019081528d8d369061189092611382565b94606084019586526118a187611211565b600201906118ae9161136e565b939093611c5657519283516001600160401b03948582116110e95781906118df826118d98654611240565b866113c8565b8a90601f8311600114611bf257600092611be7575b50508160011b9160001990861b1c19161781555b60019485820190518051908682116110e957819061192a826118d98654611240565b8b90601f8311600114611b8557600092611b7a575b505060001982871b1c191690871b1790555b6002810191519182518581116110e9578493611977826119718554611240565b856113c8565b8a90601f8311600114611b14576000919083611b09575b505060001982861b1c191690871b1790555b01935180519283116110e9576119c0836119ba8754611240565b876113c8565b8690601f8411600114611aa357938394918492600095611a98575b50501b92600019911b1c19161790555b600281101561122a57611a8a57611a00611440565b985b6040519a8b9a60c08c5260c08c01611a1991610c14565b928b015289820360408b0152611a2e92611462565b908782036060890152611a4092611462565b908582036080870152611a5292611462565b9083820360a0850152611a6492611462565b037f6d4def4121f5b6a604847c979df0e933d3bb9b50219358bc5ae2690971591c8591a1565b611a9261141c565b98611a02565b0151935038806119db565b9190601f198416928660005284896000209460005b8b89838310611af25750505010611ad8575b50505050811b0190556119eb565b01519060f884600019921b161c1916905538808080611aca565b868601518955909701969485019488935001611ab8565b01519050388061198e565b8892918c91601f1984168660005283600020936000905b828210611b605750508411611b48575b505050811b0190556119a0565b015160001983881b60f8161c19169055388080611b3b565b8484015186558b9a508d979095019493840193018f611b2b565b01519050388061193f565b60008581528d81208b9550929190601f198516908f5b828210611bd05750508411611bb8575b505050811b019055611951565b015160001983891b60f8161c19169055388080611bab565b8385015186558d979095019493840193018f611b9b565b0151905038806118f4565b60008581528c81209350601f198516905b8d828210611c40575050908460019594939210611c28575b505050811b018155611908565b015160001983881b60f8161c19169055388080611c1b565b6001859682939686015181550195019301611c03565b634e487b7160e01b600052600060045260246000fd5b60405162461bcd60e51b8152602060048201526014602482015273092dcecc2d8d2c840cccac2e8eae4ca92dcc8caf60631b6044820152606490fd5b90815160018110611cf4578110611cbd575050565b6040516307120da760e01b81526060600482015292508291611ce3906064840190610c14565b906001602484015260448301520390fd5b6040516307120da760e01b8152606060048201528083611ce36064830187610c14565b3561ffff81168103610cdb579056fe02dd7bc7dec4dceedda775e58dd541e08a116c6c53815c0bd028192f7b626800a264697066735822122073f0cf4307aad5df7278a16c56f0d4f0f4b157531ab3a35b37bb354f17b9688864736f6c63430008140033",
  "numDeployments": 1
}