{
  "address": "0x33463EE03dA61952D93897474ed4B478ba6bad70",
  "abi": [
    {
      "inputs": [],
      "stateMutability": "nonpayable",
      "type": "constructor"
    },
    {
      "inputs": [],
      "name": "AlreadyInit",
      "type": "error"
    },
    {
      "inputs": [],
      "name": "HexLengthInsufficient",
      "type": "error"
    },
    {
      "inputs": [],
      "name": "InvalidInitialization",
      "type": "error"
    },
    {
      "inputs": [],
      "name": "InvalidSignature",
      "type": "error"
    },
    {
      "inputs": [],
      "name": "InvalidV",
      "type": "error"
    },
    {
      "inputs": [],
      "name": "NotInitializing",
      "type": "error"
    },
    {
      "inputs": [
        {
          "internalType": "address",
          "name": "owner",
          "type": "address"
        }
      ],
      "name": "OwnableInvalidOwner",
      "type": "error"
    },
    {
      "inputs": [
        {
          "internalType": "address",
          "name": "account",
          "type": "address"
        }
      ],
      "name": "OwnableUnauthorizedAccount",
      "type": "error"
    },
    {
      "inputs": [],
      "name": "ReentrancyGuardReentrantCall",
      "type": "error"
    },
    {
      "inputs": [],
      "name": "SignatureUsed",
      "type": "error"
    },
    {
      "inputs": [],
      "name": "TimestampOutOfRange",
      "type": "error"
    },
    {
      "inputs": [],
      "name": "UnauthorizedCaller",
      "type": "error"
    },
    {
      "inputs": [],
      "name": "ZeroAddressNotAllowed",
      "type": "error"
    },
    {
      "anonymous": false,
      "inputs": [
        {
          "indexed": false,
          "internalType": "uint64",
          "name": "version",
          "type": "uint64"
        }
      ],
      "name": "Initialized",
      "type": "event"
    },
    {
      "anonymous": false,
      "inputs": [
        {
          "indexed": true,
          "internalType": "address",
          "name": "user",
          "type": "address"
        },
        {
          "indexed": false,
          "internalType": "uint256",
          "name": "legacyId",
          "type": "uint256"
        },
        {
          "indexed": false,
          "internalType": "uint256",
          "name": "timestamp",
          "type": "uint256"
        }
      ],
      "name": "LegacySigned",
      "type": "event"
    },
    {
      "anonymous": false,
      "inputs": [
        {
          "indexed": true,
          "internalType": "address",
          "name": "previousOwner",
          "type": "address"
        },
        {
          "indexed": true,
          "internalType": "address",
          "name": "newOwner",
          "type": "address"
        }
      ],
      "name": "OwnershipTransferred",
      "type": "event"
    },
    {
      "inputs": [
        {
          "internalType": "uint256",
          "name": "timestamp",
          "type": "uint256"
        }
      ],
      "name": "generateMessage",
      "outputs": [
        {
          "internalType": "string",
          "name": "",
          "type": "string"
        }
      ],
      "stateMutability": "pure",
      "type": "function"
    },
    {
      "inputs": [
        {
          "internalType": "address",
          "name": "user",
          "type": "address"
        },
        {
          "internalType": "uint256",
          "name": "index",
          "type": "uint256"
        }
      ],
      "name": "getUserLegacy",
      "outputs": [
        {
          "internalType": "address",
          "name": "legacyAddress",
          "type": "address"
        },
        {
          "internalType": "uint256",
          "name": "timestamp",
          "type": "uint256"
        },
        {
          "internalType": "string",
          "name": "message",
          "type": "string"
        },
        {
          "internalType": "bytes",
          "name": "signature",
          "type": "bytes"
        }
      ],
      "stateMutability": "view",
      "type": "function"
    },
    {
      "inputs": [
        {
          "internalType": "address",
          "name": "user",
          "type": "address"
        }
      ],
      "name": "getUserLegacyCount",
      "outputs": [
        {
          "internalType": "uint256",
          "name": "",
          "type": "uint256"
        }
      ],
      "stateMutability": "view",
      "type": "function"
    },
    {
      "inputs": [
        {
          "internalType": "address",
          "name": "initialOwner",
          "type": "address"
        }
      ],
      "name": "initialize",
      "outputs": [],
      "stateMutability": "nonpayable",
      "type": "function"
    },
    {
      "inputs": [
        {
          "internalType": "address",
          "name": "",
          "type": "address"
        },
        {
          "internalType": "uint256",
          "name": "",
          "type": "uint256"
        }
      ],
      "name": "legacySigned",
      "outputs": [
        {
          "internalType": "address",
          "name": "legacyAddress",
          "type": "address"
        },
        {
          "internalType": "uint256",
          "name": "timestamp",
          "type": "uint256"
        },
        {
          "internalType": "bytes",
          "name": "signature",
          "type": "bytes"
        }
      ],
      "stateMutability": "view",
      "type": "function"
    },
    {
      "inputs": [],
      "name": "multisigLegacy",
      "outputs": [
        {
          "internalType": "address",
          "name": "",
          "type": "address"
        }
      ],
      "stateMutability": "view",
      "type": "function"
    },
    {
      "inputs": [],
      "name": "owner",
      "outputs": [
        {
          "internalType": "address",
          "name": "",
          "type": "address"
        }
      ],
      "stateMutability": "view",
      "type": "function"
    },
    {
      "inputs": [
        {
          "internalType": "bytes32",
          "name": "digest",
          "type": "bytes32"
        },
        {
          "internalType": "bytes",
          "name": "signature",
          "type": "bytes"
        }
      ],
      "name": "recoverSigner",
      "outputs": [
        {
          "internalType": "address",
          "name": "",
          "type": "address"
        }
      ],
      "stateMutability": "pure",
      "type": "function"
    },
    {
      "inputs": [],
      "name": "renounceOwnership",
      "outputs": [],
      "stateMutability": "nonpayable",
      "type": "function"
    },
    {
      "inputs": [
        {
          "internalType": "address",
          "name": "_transferLegacyEOA",
          "type": "address"
        },
        {
          "internalType": "address",
          "name": "_transferLegacy",
          "type": "address"
        },
        {
          "internalType": "address",
          "name": "_multisigLegacy",
          "type": "address"
        }
      ],
      "name": "setRouterAddresses",
      "outputs": [],
      "stateMutability": "nonpayable",
      "type": "function"
    },
    {
      "inputs": [
        {
          "internalType": "address",
          "name": "user",
          "type": "address"
        },
        {
          "internalType": "address",
          "name": "legacyAddress",
          "type": "address"
        },
        {
          "internalType": "uint256",
          "name": "timestamp",
          "type": "uint256"
        },
        {
          "internalType": "bytes",
          "name": "signature",
          "type": "bytes"
        }
      ],
      "name": "storeLegacyAgreement",
      "outputs": [],
      "stateMutability": "nonpayable",
      "type": "function"
    },
    {
      "inputs": [],
      "name": "transferLegacy",
      "outputs": [
        {
          "internalType": "address",
          "name": "",
          "type": "address"
        }
      ],
      "stateMutability": "view",
      "type": "function"
    },
    {
      "inputs": [],
      "name": "transferLegacyEOA",
      "outputs": [
        {
          "internalType": "address",
          "name": "",
          "type": "address"
        }
      ],
      "stateMutability": "view",
      "type": "function"
    },
    {
      "inputs": [
        {
          "internalType": "address",
          "name": "newOwner",
          "type": "address"
        }
      ],
      "name": "transferOwnership",
      "outputs": [],
      "stateMutability": "nonpayable",
      "type": "function"
    }
  ],
  "transactionHash": "0xd0decaf30f3059549265150035c2d8a2e72d90f2042564bfaefa894879336525",
  "args": [],
  "numDeployments": 1,
  "solcInputHash": "f79b7c804dc6aba7ee8d6802b4e90779",
  "bytecode": "0x608060405234801561001057600080fd5b5061001961001e565b6100d0565b7ff0c57e16840df040f15088dc2f81fe391c3923bec73e23a9662efc9c229c6a00805468010000000000000000900460ff161561006e5760405163f92ee8a960e01b815260040160405180910390fd5b80546001600160401b03908116146100cd5780546001600160401b0319166001600160401b0390811782556040519081527fc7f505b2f371ae2175ee4913f4499e1f2633a7b5936321eed1cdaeb6115181d29060200160405180910390a15b50565b611474806100df6000396000f3fe608060405234801561001057600080fd5b50600436106100ea5760003560e01c80638da5cb5b1161008c578063c4d66de811610066578063c4d66de814610221578063ee44e8ea14610234578063ef8adc5314610254578063f2fde38b1461026757600080fd5b80638da5cb5b146101bc57806397aba7f9146101ec5780639b8ab5b5146101ff57600080fd5b80633aabe738116100c85780633aabe738146101475780636e822e6a1461015a578063715018a6146101915780637a550fc21461019957600080fd5b806319f854bb146100ef5780632bcdd4051461011f57806332c3299014610132575b600080fd5b600154610102906001600160a01b031681565b6040516001600160a01b0390911681526020015b60405180910390f35b600354610102906001600160a01b031681565b610145610140366004610e39565b61027a565b005b610145610155366004610e7c565b61030e565b610183610168366004610f17565b6001600160a01b031660009081526020819052604090205490565b604051908152602001610116565b61014561060b565b6101ac6101a7366004610f39565b61061f565b6040516101169493929190610fb3565b7f9016d09d72d40fdae2fd8ceac6b6234c7706214fd39c1cd1e609a0528c199300546001600160a01b0316610102565b6101026101fa36600461100d565b61076c565b61021261020d366004610f39565b61089c565b604051610116939291906110c8565b61014561022f366004610f17565b610972565b6102476102423660046110f8565b610a76565b6040516101169190611111565b600254610102906001600160a01b031681565b610145610275366004610f17565b610ac1565b610282610b04565b6001600160a01b038316158061029f57506001600160a01b038216155b806102b157506001600160a01b038116155b156102cf576040516342bcdf7f60e11b815260040160405180910390fd5b600180546001600160a01b039485166001600160a01b031991821617909155600280549385169382169390931790925560038054919093169116179055565b610316610b5f565b6002546001600160a01b0316331480159061033c57506001546001600160a01b03163314155b801561035357506003546001600160a01b03163314155b1561037157604051635c427cd960e01b815260040160405180910390fd5b4261037e6107088261113a565b84108061039557506103926107088261114d565b84115b156103b357604051637944e66d60e11b815260040160405180910390fd5b600483836040516103c5929190611160565b9081526020016040518091039020546000146103f457604051630d75493360e01b815260040160405180910390fd5b60006103ff85610a76565b9050600061040c82610ba9565b905060006104508287878080601f01602080910402602001604051908101604052809392919081815260200183838082843760009201919091525061076c92505050565b9050886001600160a01b0316816001600160a01b03161461048457604051638baa579f60e01b815260040160405180910390fd5b6000808a6001600160a01b03166001600160a01b0316815260200190815260200160002060405180606001604052808a6001600160a01b0316815260200189815260200188888080601f0160208091040260200160405190810160405280939291908181526020018383808284376000920182905250939094525050835460018082018655948252602091829020845160039092020180546001600160a01b0319166001600160a01b039092169190911781559083015193810193909355506040810151909190600282019061055a90826111f7565b5050508660048787604051610570929190611160565b908152602001604051809103902081905550886001600160a01b03167ff6b26538efd4c8a91698e6c86037e48ab8b91777cb5ec8ae102edbe29d489b82896001600160a01b0316896040516105cf929190918252602082015260400190565b60405180910390a25050505061060460017f9b779b17422d0df92223018b32b4d1fa46e071723d6817e2486d003becc55f0055565b5050505050565b610613610b04565b61061d6000610c0a565b565b6000806060806000806000886001600160a01b03166001600160a01b03168152602001908152602001600020868154811061065c5761065c6112b7565b90600052602060002090600302016040518060600160405290816000820160009054906101000a90046001600160a01b03166001600160a01b03166001600160a01b03168152602001600182015481526020016002820180546106be90611170565b80601f01602080910402602001604051908101604052809291908181526020018280546106ea90611170565b80156107375780601f1061070c57610100808354040283529160200191610737565b820191906000526020600020905b81548152906001019060200180831161071a57829003601f168201915b5050505050815250509050600061074d85610a76565b82516020840151604090940151909a9399509097509550909350505050565b6000815160411461079057604051638baa579f60e01b815260040160405180910390fd5b60208201516040830151606084015160001a7f7fffffffffffffffffffffffffffffff5d576e7357a4501ddfe92f46681b20a08211156107e357604051638baa579f60e01b815260040160405180910390fd5b601b8160ff1610156107fd576107fa601b826112cd565b90505b8060ff16601b1415801561081557508060ff16601c14155b156108335760405163119bce3960e01b815260040160405180910390fd5b60408051600081526020810180835288905260ff831691810191909152606081018490526080810183905260019060a0016020604051602081039080840390855afa158015610886573d6000803e3d6000fd5b5050506020604051035193505050505b92915050565b600060205281600052604060002081815481106108b857600080fd5b60009182526020909120600390910201805460018201546002830180546001600160a01b039093169550909350906108ef90611170565b80601f016020809104026020016040519081016040528092919081815260200182805461091b90611170565b80156109685780601f1061093d57610100808354040283529160200191610968565b820191906000526020600020905b81548152906001019060200180831161094b57829003601f168201915b5050505050905083565b600061097c610c7b565b805490915060ff600160401b820416159067ffffffffffffffff166000811580156109a45750825b905060008267ffffffffffffffff1660011480156109c15750303b155b9050811580156109cf575080155b156109ed5760405163f92ee8a960e01b815260040160405180910390fd5b845467ffffffffffffffff191660011785558315610a1757845460ff60401b1916600160401b1785555b610a1f610ca4565b610a2886610cb4565b8315610a6e57845460ff60401b19168555604051600181527fc7f505b2f371ae2175ee4913f4499e1f2633a7b5936321eed1cdaeb6115181d29060200160405180910390a15b505050505050565b60606040518060800160405280604f81526020016113f0604f9139610a9a83610cc5565b604051602001610aab9291906112e6565b6040516020818303038152906040529050919050565b610ac9610b04565b6001600160a01b038116610af857604051631e4fbdf760e01b8152600060048201526024015b60405180910390fd5b610b0181610c0a565b50565b33610b367f9016d09d72d40fdae2fd8ceac6b6234c7706214fd39c1cd1e609a0528c199300546001600160a01b031690565b6001600160a01b03161461061d5760405163118cdaa760e01b8152336004820152602401610aef565b7f9b779b17422d0df92223018b32b4d1fa46e071723d6817e2486d003becc55f00805460011901610ba357604051633ee5aeb560e01b815260040160405180910390fd5b60029055565b6000610bb58251610cc5565b82604051602001610bc792919061133d565b604051602081830303815290604052805190602001209050919050565b60017f9b779b17422d0df92223018b32b4d1fa46e071723d6817e2486d003becc55f0055565b7f9016d09d72d40fdae2fd8ceac6b6234c7706214fd39c1cd1e609a0528c19930080546001600160a01b031981166001600160a01b03848116918217845560405192169182907f8be0079c531659141344cd1fd0a4f28419497f9722a3daafe3b4186f6b6457e090600090a3505050565b6000807ff0c57e16840df040f15088dc2f81fe391c3923bec73e23a9662efc9c229c6a00610896565b610cac610dce565b61061d610df3565b610cbc610dce565b610b0181610dfb565b606081600003610cec5750506040805180820190915260018152600360fc1b602082015290565b8160005b8115610d165780610d0081611398565b9150610d0f9050600a836113c7565b9150610cf0565b60008167ffffffffffffffff811115610d3157610d31610ff7565b6040519080825280601f01601f191660200182016040528015610d5b576020820181803683370190505b5090505b8415610dc657610d7060018361113a565b9150610d7d600a866113db565b610d8890603061114d565b60f81b818381518110610d9d57610d9d6112b7565b60200101906001600160f81b031916908160001a905350610dbf600a866113c7565b9450610d5f565b949350505050565b610dd6610e03565b61061d57604051631afcd79f60e31b815260040160405180910390fd5b610be4610dce565b610ac9610dce565b6000610e0d610c7b565b54600160401b900460ff16919050565b80356001600160a01b0381168114610e3457600080fd5b919050565b600080600060608486031215610e4e57600080fd5b610e5784610e1d565b9250610e6560208501610e1d565b9150610e7360408501610e1d565b90509250925092565b600080600080600060808688031215610e9457600080fd5b610e9d86610e1d565b9450610eab60208701610e1d565b935060408601359250606086013567ffffffffffffffff80821115610ecf57600080fd5b818801915088601f830112610ee357600080fd5b813581811115610ef257600080fd5b896020828501011115610f0457600080fd5b9699959850939650602001949392505050565b600060208284031215610f2957600080fd5b610f3282610e1d565b9392505050565b60008060408385031215610f4c57600080fd5b610f5583610e1d565b946020939093013593505050565b60005b83811015610f7e578181015183820152602001610f66565b50506000910152565b60008151808452610f9f816020860160208601610f63565b601f01601f19169290920160200192915050565b60018060a01b0385168152836020820152608060408201526000610fda6080830185610f87565b8281036060840152610fec8185610f87565b979650505050505050565b634e487b7160e01b600052604160045260246000fd5b6000806040838503121561102057600080fd5b82359150602083013567ffffffffffffffff8082111561103f57600080fd5b818501915085601f83011261105357600080fd5b81358181111561106557611065610ff7565b604051601f8201601f19908116603f0116810190838211818310171561108d5761108d610ff7565b816040528281528860208487010111156110a657600080fd5b8260208601602083013760006020848301015280955050505050509250929050565b60018060a01b03841681528260208201526060604082015260006110ef6060830184610f87565b95945050505050565b60006020828403121561110a57600080fd5b5035919050565b602081526000610f326020830184610f87565b634e487b7160e01b600052601160045260246000fd5b8181038181111561089657610896611124565b8082018082111561089657610896611124565b8183823760009101908152919050565b600181811c9082168061118457607f821691505b6020821081036111a457634e487b7160e01b600052602260045260246000fd5b50919050565b601f8211156111f2576000816000526020600020601f850160051c810160208610156111d35750805b601f850160051c820191505b81811015610a6e578281556001016111df565b505050565b815167ffffffffffffffff81111561121157611211610ff7565b6112258161121f8454611170565b846111aa565b602080601f83116001811461125a57600084156112425750858301515b600019600386901b1c1916600185901b178555610a6e565b600085815260208120601f198616915b828110156112895788860151825594840194600190910190840161126a565b50858210156112a75787850151600019600388901b60f8161c191681555b5050505050600190811b01905550565b634e487b7160e01b600052603260045260246000fd5b60ff818116838216019081111561089657610896611124565b600083516112f8818460208801610f63565b6d01030ba103a34b6b2b9ba30b6b8160951b908301908152835161132381600e840160208801610f63565b601760f91b600e9290910191820152600f01949350505050565b7f19457468657265756d205369676e6564204d6573736167653a0a00000000000081526000835161137581601a850160208801610f63565b83519083019061138c81601a840160208801610f63565b01601a01949350505050565b6000600182016113aa576113aa611124565b5060010190565b634e487b7160e01b600052601260045260246000fd5b6000826113d6576113d66113b1565b500490565b6000826113ea576113ea6113b1565b50069056fe42792070726f63656564696e672077697468206372656174696e672061206e657720636f6e74726163742c204920616772656520746f2031303130322773205465726d73206f662053657276696365a264697066735822122016b842ffaa43dacb6873f28cc0077c6dfbf143734f7499871925f3d0393009a564736f6c63430008160033",
  "devdoc": {
    "errors": {
      "InvalidInitialization()": [
        {
          "details": "The contract is already initialized."
        }
      ],
      "NotInitializing()": [
        {
          "details": "The contract is not initializing."
        }
      ],
      "OwnableInvalidOwner(address)": [
        {
          "details": "The owner is not a valid owner account. (eg. `address(0)`)"
        }
      ],
      "OwnableUnauthorizedAccount(address)": [
        {
          "details": "The caller account is not authorized to perform an operation."
        }
      ],
      "ReentrancyGuardReentrantCall()": [
        {
          "details": "Unauthorized reentrant call."
        }
      ]
    },
    "events": {
      "Initialized(uint64)": {
        "details": "Triggered when the contract has been initialized or reinitialized."
      }
    },
    "kind": "dev",
    "methods": {
      "owner()": {
        "details": "Returns the address of the current owner."
      },
      "renounceOwnership()": {
        "details": "Leaves the contract without owner. It will not be possible to call `onlyOwner` functions. Can only be called by the current owner. NOTE: Renouncing ownership will leave the contract without an owner, thereby disabling any functionality that is only available to the owner."
      },
      "transferOwnership(address)": {
        "details": "Transfers ownership of the contract to a new account (`newOwner`). Can only be called by the current owner."
      }
    },
    "version": 1
  },
  "userdoc": {
    "kind": "user",
    "methods": {
      "storeLegacyAgreement(address,address,uint256,bytes)": {
        "notice": "Store a legacy agreement signed via signMessage"
      }
    },
    "version": 1
  },
  "storageLayout": {
    "storage": [
      {
        "astId": 17578,
        "contract": "contracts/term/VerifierTerm.sol:EIP712LegacyVerifier",
        "label": "legacySigned",
        "offset": 0,
        "slot": "0",
        "type": "t_mapping(t_address,t_array(t_struct(Legacy)17572_storage)dyn_storage)"
      },
      {
        "astId": 17580,
        "contract": "contracts/term/VerifierTerm.sol:EIP712LegacyVerifier",
        "label": "transferLegacyEOA",
        "offset": 0,
        "slot": "1",
        "type": "t_address"
      },
      {
        "astId": 17582,
        "contract": "contracts/term/VerifierTerm.sol:EIP712LegacyVerifier",
        "label": "transferLegacy",
        "offset": 0,
        "slot": "2",
        "type": "t_address"
      },
      {
        "astId": 17584,
        "contract": "contracts/term/VerifierTerm.sol:EIP712LegacyVerifier",
        "label": "multisigLegacy",
        "offset": 0,
        "slot": "3",
        "type": "t_address"
      },
      {
        "astId": 17588,
        "contract": "contracts/term/VerifierTerm.sol:EIP712LegacyVerifier",
        "label": "signatureUsed",
        "offset": 0,
        "slot": "4",
        "type": "t_mapping(t_bytes_memory_ptr,t_uint256)"
      }
    ],
    "types": {
      "t_address": {
        "encoding": "inplace",
        "label": "address",
        "numberOfBytes": "20"
      },
      "t_array(t_struct(Legacy)17572_storage)dyn_storage": {
        "base": "t_struct(Legacy)17572_storage",
        "encoding": "dynamic_array",
        "label": "struct EIP712LegacyVerifier.Legacy[]",
        "numberOfBytes": "32"
      },
      "t_bytes_memory_ptr": {
        "encoding": "bytes",
        "label": "bytes",
        "numberOfBytes": "32"
      },
      "t_bytes_storage": {
        "encoding": "bytes",
        "label": "bytes",
        "numberOfBytes": "32"
      },
      "t_mapping(t_address,t_array(t_struct(Legacy)17572_storage)dyn_storage)": {
        "encoding": "mapping",
        "key": "t_address",
        "label": "mapping(address => struct EIP712LegacyVerifier.Legacy[])",
        "numberOfBytes": "32",
        "value": "t_array(t_struct(Legacy)17572_storage)dyn_storage"
      },
      "t_mapping(t_bytes_memory_ptr,t_uint256)": {
        "encoding": "mapping",
        "key": "t_bytes_memory_ptr",
        "label": "mapping(bytes => uint256)",
        "numberOfBytes": "32",
        "value": "t_uint256"
      },
      "t_struct(Legacy)17572_storage": {
        "encoding": "inplace",
        "label": "struct EIP712LegacyVerifier.Legacy",
        "members": [
          {
            "astId": 17567,
            "contract": "contracts/term/VerifierTerm.sol:EIP712LegacyVerifier",
            "label": "legacyAddress",
            "offset": 0,
            "slot": "0",
            "type": "t_address"
          },
          {
            "astId": 17569,
            "contract": "contracts/term/VerifierTerm.sol:EIP712LegacyVerifier",
            "label": "timestamp",
            "offset": 0,
            "slot": "1",
            "type": "t_uint256"
          },
          {
            "astId": 17571,
            "contract": "contracts/term/VerifierTerm.sol:EIP712LegacyVerifier",
            "label": "signature",
            "offset": 0,
            "slot": "2",
            "type": "t_bytes_storage"
          }
        ],
        "numberOfBytes": "96"
      },
      "t_uint256": {
        "encoding": "inplace",
        "label": "uint256",
        "numberOfBytes": "32"
      }
    }
  }
}