{
  "address": "0x1b3Bd777Ab62C42B3B74823Dc00361d0adD9A7a6",
  "abi": [
    {
      "inputs": [],
      "stateMutability": "nonpayable",
      "type": "constructor"
    },
    {
      "inputs": [],
      "name": "ActivationTriggerInvalid",
      "type": "error"
    },
    {
      "inputs": [],
      "name": "BeneficiariesInvalid",
      "type": "error"
    },
    {
      "inputs": [
        {
          "internalType": "address",
          "name": "",
          "type": "address"
        }
      ],
      "name": "ExistedGuardInSafeWallet",
      "type": "error"
    },
    {
      "inputs": [],
      "name": "GuardNotFound",
      "type": "error"
    },
    {
      "inputs": [],
      "name": "GuardSafeWalletInvalid",
      "type": "error"
    },
    {
      "inputs": [],
      "name": "InvalidInitialization",
      "type": "error"
    },
    {
      "inputs": [],
      "name": "LegacyNotFound",
      "type": "error"
    },
    {
      "inputs": [],
      "name": "MinRequiredSignaturesInvalid",
      "type": "error"
    },
    {
      "inputs": [],
      "name": "ModuleSafeWalletInvalid",
      "type": "error"
    },
    {
      "inputs": [],
      "name": "NotInitializing",
      "type": "error"
    },
    {
      "inputs": [],
      "name": "NumBeneficiariesInvalid",
      "type": "error"
    },
    {
      "inputs": [],
      "name": "ReentrancyGuardReentrantCall",
      "type": "error"
    },
    {
      "inputs": [],
      "name": "SignerIsNotOwnerOfSafeWallet",
      "type": "error"
    },
    {
      "anonymous": false,
      "inputs": [
        {
          "indexed": false,
          "internalType": "address",
          "name": "legacyAddress",
          "type": "address"
        }
      ],
      "name": "EmailActivatedNotCompleted",
      "type": "event"
    },
    {
      "anonymous": false,
      "inputs": [
        {
          "indexed": false,
          "internalType": "uint64",
          "name": "version",
          "type": "uint64"
        }
      ],
      "name": "Initialized",
      "type": "event"
    },
    {
      "anonymous": false,
      "inputs": [
        {
          "indexed": false,
          "internalType": "uint256",
          "name": "legacyId",
          "type": "uint256"
        },
        {
          "indexed": false,
          "internalType": "address[]",
          "name": "newSigners",
          "type": "address[]"
        },
        {
          "indexed": false,
          "internalType": "uint256",
          "name": "newThreshold",
          "type": "uint256"
        },
        {
          "indexed": false,
          "internalType": "bool",
          "name": "success",
          "type": "bool"
        },
        {
          "indexed": false,
          "internalType": "uint256",
          "name": "timestamp",
          "type": "uint256"
        }
      ],
      "name": "MultisigLegacyActivated",
      "type": "event"
    },
    {
      "anonymous": false,
      "inputs": [
        {
          "indexed": false,
          "internalType": "uint256",
          "name": "legacyId",
          "type": "uint256"
        },
        {
          "indexed": false,
          "internalType": "uint256",
          "name": "lackOfOutgoingTxRange",
          "type": "uint256"
        },
        {
          "indexed": false,
          "internalType": "uint256",
          "name": "timestamp",
          "type": "uint256"
        }
      ],
      "name": "MultisigLegacyActivationTriggerUpdated",
      "type": "event"
    },
    {
      "anonymous": false,
      "inputs": [
        {
          "indexed": false,
          "internalType": "uint256",
          "name": "legacyId",
          "type": "uint256"
        },
        {
          "indexed": false,
          "internalType": "string[]",
          "name": "nickName",
          "type": "string[]"
        },
        {
          "indexed": false,
          "internalType": "address[]",
          "name": "beneficiaries",
          "type": "address[]"
        },
        {
          "indexed": false,
          "internalType": "uint128",
          "name": "minRequiredSignatures",
          "type": "uint128"
        },
        {
          "indexed": false,
          "internalType": "uint256",
          "name": "timestamp",
          "type": "uint256"
        }
      ],
      "name": "MultisigLegacyBeneficiariesUpdated",
      "type": "event"
    },
    {
      "anonymous": false,
      "inputs": [
        {
          "indexed": false,
          "internalType": "uint256",
          "name": "legacyId",
          "type": "uint256"
        },
        {
          "components": [
            {
              "internalType": "string",
              "name": "name",
              "type": "string"
            },
            {
              "internalType": "string",
              "name": "note",
              "type": "string"
            },
            {
              "internalType": "string[]",
              "name": "nickNames",
              "type": "string[]"
            },
            {
              "internalType": "address[]",
              "name": "beneficiaries",
              "type": "address[]"
            }
          ],
          "indexed": false,
          "internalType": "struct MultisigLegacyRouter.LegacyMainConfig",
          "name": "mainConfig",
          "type": "tuple"
        },
        {
          "components": [
            {
              "internalType": "uint128",
              "name": "minRequiredSignatures",
              "type": "uint128"
            },
            {
              "internalType": "uint128",
              "name": "lackOfOutgoingTxRange",
              "type": "uint128"
            }
          ],
          "indexed": false,
          "internalType": "struct MultisigLegacyStruct.LegacyExtraConfig",
          "name": "extraConfig",
          "type": "tuple"
        },
        {
          "indexed": false,
          "internalType": "uint256",
          "name": "timestamp",
          "type": "uint256"
        }
      ],
      "name": "MultisigLegacyConfigUpdated",
      "type": "event"
    },
    {
      "anonymous": false,
      "inputs": [
        {
          "indexed": false,
          "internalType": "uint256",
          "name": "legacyId",
          "type": "uint256"
        },
        {
          "indexed": false,
          "internalType": "address",
          "name": "legacyAddress",
          "type": "address"
        },
        {
          "indexed": false,
          "internalType": "address",
          "name": "guardAddress",
          "type": "address"
        },
        {
          "indexed": false,
          "internalType": "address",
          "name": "creatorAddress",
          "type": "address"
        },
        {
          "indexed": false,
          "internalType": "address",
          "name": "safeAddress",
          "type": "address"
        },
        {
          "components": [
            {
              "internalType": "string",
              "name": "name",
              "type": "string"
            },
            {
              "internalType": "string",
              "name": "note",
              "type": "string"
            },
            {
              "internalType": "string[]",
              "name": "nickNames",
              "type": "string[]"
            },
            {
              "internalType": "address[]",
              "name": "beneficiaries",
              "type": "address[]"
            }
          ],
          "indexed": false,
          "internalType": "struct MultisigLegacyRouter.LegacyMainConfig",
          "name": "mainConfig",
          "type": "tuple"
        },
        {
          "components": [
            {
              "internalType": "uint128",
              "name": "minRequiredSignatures",
              "type": "uint128"
            },
            {
              "internalType": "uint128",
              "name": "lackOfOutgoingTxRange",
              "type": "uint128"
            }
          ],
          "indexed": false,
          "internalType": "struct MultisigLegacyStruct.LegacyExtraConfig",
          "name": "extraConfig",
          "type": "tuple"
        },
        {
          "indexed": false,
          "internalType": "uint256",
          "name": "timestamp",
          "type": "uint256"
        }
      ],
      "name": "MultisigLegacyCreated",
      "type": "event"
    },
    {
      "anonymous": false,
      "inputs": [
        {
          "indexed": false,
          "internalType": "uint256",
          "name": "legacyId",
          "type": "uint256"
        },
        {
          "indexed": false,
          "internalType": "string",
          "name": "name",
          "type": "string"
        },
        {
          "indexed": false,
          "internalType": "string",
          "name": "note",
          "type": "string"
        },
        {
          "indexed": false,
          "internalType": "uint256",
          "name": "timestamp",
          "type": "uint256"
        }
      ],
      "name": "MultisigLegacyNameNoteUpdated",
      "type": "event"
    },
    {
      "anonymous": false,
      "inputs": [
        {
          "indexed": false,
          "internalType": "address",
          "name": "legacyAddress",
          "type": "address"
        }
      ],
      "name": "PrivateCodeSetupNotCompleted",
      "type": "event"
    },
    {
      "inputs": [],
      "name": "BENEFICIARIES_LIMIT",
      "outputs": [
        {
          "internalType": "uint256",
          "name": "",
          "type": "uint256"
        }
      ],
      "stateMutability": "view",
      "type": "function"
    },
    {
      "inputs": [
        {
          "internalType": "uint256",
          "name": "legacyId_",
          "type": "uint256"
        }
      ],
      "name": "activeLegacy",
      "outputs": [],
      "stateMutability": "nonpayable",
      "type": "function"
    },
    {
      "inputs": [
        {
          "internalType": "uint256",
          "name": "legacyId_",
          "type": "uint256"
        }
      ],
      "name": "checkActiveLegacy",
      "outputs": [
        {
          "internalType": "bool",
          "name": "",
          "type": "bool"
        }
      ],
      "stateMutability": "view",
      "type": "function"
    },
    {
      "inputs": [
        {
          "internalType": "address",
          "name": "safeWallet",
          "type": "address"
        },
        {
          "components": [
            {
              "internalType": "string",
              "name": "name",
              "type": "string"
            },
            {
              "internalType": "string",
              "name": "note",
              "type": "string"
            },
            {
              "internalType": "string[]",
              "name": "nickNames",
              "type": "string[]"
            },
            {
              "internalType": "address[]",
              "name": "beneficiaries",
              "type": "address[]"
            }
          ],
          "internalType": "struct MultisigLegacyRouter.LegacyMainConfig",
          "name": "mainConfig_",
          "type": "tuple"
        },
        {
          "components": [
            {
              "internalType": "uint128",
              "name": "minRequiredSignatures",
              "type": "uint128"
            },
            {
              "internalType": "uint128",
              "name": "lackOfOutgoingTxRange",
              "type": "uint128"
            }
          ],
          "internalType": "struct MultisigLegacyStruct.LegacyExtraConfig",
          "name": "extraConfig_",
          "type": "tuple"
        },
        {
          "internalType": "uint256",
          "name": "signatureTimestamp",
          "type": "uint256"
        },
        {
          "internalType": "bytes",
          "name": "agreementSignature",
          "type": "bytes"
        }
      ],
      "name": "createLegacy",
      "outputs": [
        {
          "internalType": "address",
          "name": "",
          "type": "address"
        },
        {
          "internalType": "address",
          "name": "",
          "type": "address"
        }
      ],
      "stateMutability": "nonpayable",
      "type": "function"
    },
    {
      "inputs": [
        {
          "internalType": "address",
          "name": "sender_",
          "type": "address"
        }
      ],
      "name": "getNextLegacyAddress",
      "outputs": [
        {
          "internalType": "address",
          "name": "",
          "type": "address"
        }
      ],
      "stateMutability": "view",
      "type": "function"
    },
    {
      "inputs": [
        {
          "internalType": "uint256",
          "name": "",
          "type": "uint256"
        }
      ],
      "name": "guardAddresses",
      "outputs": [
        {
          "internalType": "address",
          "name": "",
          "type": "address"
        }
      ],
      "stateMutability": "view",
      "type": "function"
    },
    {
      "inputs": [
        {
          "internalType": "address",
          "name": "_deployerContract",
          "type": "address"
        },
        {
          "internalType": "address",
          "name": "_premiumSetting",
          "type": "address"
        },
        {
          "internalType": "address",
          "name": "_verifier",
          "type": "address"
        }
      ],
      "name": "initialize",
      "outputs": [],
      "stateMutability": "nonpayable",
      "type": "function"
    },
    {
      "inputs": [
        {
          "internalType": "uint256",
          "name": "",
          "type": "uint256"
        }
      ],
      "name": "legacyAddresses",
      "outputs": [
        {
          "internalType": "address",
          "name": "",
          "type": "address"
        }
      ],
      "stateMutability": "view",
      "type": "function"
    },
    {
      "inputs": [],
      "name": "legacyDeployerContract",
      "outputs": [
        {
          "internalType": "address",
          "name": "",
          "type": "address"
        }
      ],
      "stateMutability": "view",
      "type": "function"
    },
    {
      "inputs": [],
      "name": "premiumSetting",
      "outputs": [
        {
          "internalType": "address",
          "name": "",
          "type": "address"
        }
      ],
      "stateMutability": "view",
      "type": "function"
    },
    {
      "inputs": [
        {
          "internalType": "uint256",
          "name": "legacyId_",
          "type": "uint256"
        },
        {
          "internalType": "uint256",
          "name": "lackOfOutgoingTxRange_",
          "type": "uint256"
        }
      ],
      "name": "setActivationTrigger",
      "outputs": [],
      "stateMutability": "nonpayable",
      "type": "function"
    },
    {
      "inputs": [
        {
          "internalType": "uint256",
          "name": "legacyId_",
          "type": "uint256"
        },
        {
          "internalType": "string[]",
          "name": "nickName_",
          "type": "string[]"
        },
        {
          "internalType": "address[]",
          "name": "beneficiaries_",
          "type": "address[]"
        },
        {
          "internalType": "uint128",
          "name": "minRequiredSignatures_",
          "type": "uint128"
        }
      ],
      "name": "setLegacyBeneficiaries",
      "outputs": [],
      "stateMutability": "nonpayable",
      "type": "function"
    },
    {
      "inputs": [
        {
          "internalType": "uint256",
          "name": "legacyId_",
          "type": "uint256"
        },
        {
          "components": [
            {
              "internalType": "string",
              "name": "name",
              "type": "string"
            },
            {
              "internalType": "string",
              "name": "note",
              "type": "string"
            },
            {
              "internalType": "string[]",
              "name": "nickNames",
              "type": "string[]"
            },
            {
              "internalType": "address[]",
              "name": "beneficiaries",
              "type": "address[]"
            }
          ],
          "internalType": "struct MultisigLegacyRouter.LegacyMainConfig",
          "name": "mainConfig_",
          "type": "tuple"
        },
        {
          "components": [
            {
              "internalType": "uint128",
              "name": "minRequiredSignatures",
              "type": "uint128"
            },
            {
              "internalType": "uint128",
              "name": "lackOfOutgoingTxRange",
              "type": "uint128"
            }
          ],
          "internalType": "struct MultisigLegacyStruct.LegacyExtraConfig",
          "name": "extraConfig_",
          "type": "tuple"
        }
      ],
      "name": "setLegacyConfig",
      "outputs": [],
      "stateMutability": "nonpayable",
      "type": "function"
    },
    {
      "inputs": [
        {
          "internalType": "uint256",
          "name": "legacyId_",
          "type": "uint256"
        },
        {
          "internalType": "string",
          "name": "name_",
          "type": "string"
        },
        {
          "internalType": "string",
          "name": "note_",
          "type": "string"
        }
      ],
      "name": "setNameNote",
      "outputs": [],
      "stateMutability": "nonpayable",
      "type": "function"
    },
    {
      "inputs": [],
      "name": "verifier",
      "outputs": [
        {
          "internalType": "contract EIP712LegacyVerifier",
          "name": "",
          "type": "address"
        }
      ],
      "stateMutability": "view",
      "type": "function"
    }
  ],
  "transactionHash": "0x6cdc5a5495ef42cb45fd0b06c22670a44c618b0e731ad3bcdc6edf5cc58beec8",
  "args": [],
  "numDeployments": 2,
  "solcInputHash": "32fd272c4bed775824910e9422fbe936",
  "bytecode": "0x608080604052346100b8577ff0c57e16840df040f15088dc2f81fe391c3923bec73e23a9662efc9c229c6a009081549060ff8260401c166100a957506001600160401b036002600160401b031982821601610064575b6040516134a590816100be8239f35b6001600160401b031990911681179091556040519081527fc7f505b2f371ae2175ee4913f4499e1f2633a7b5936321eed1cdaeb6115181d290602090a1388080610055565b63f92ee8a960e01b8152600490fd5b600080fdfe608080604052600436101561001357600080fd5b600090813560e01c90816311fab217146113a2575080631593a056146113095780631a186240146110535780632b7ac3f31461102a5780634cd3a51f1461100f578063500e6f9114610f165780637384a87b14610d3e57806390f3440d146106e3578063943515c9146104fa578063c0c53b8b14610366578063e411f9a214610333578063f2d5dcf514610262578063f47ca2e91461022f578063f895338d146102065763fa6e515e146100c657600080fd5b34610203576060366003190112610203576001600160401b036004356024358281116101ff576100fa9036906004016113dd565b9190926044359081116101fb576101159036906004016113dd565b936101203384611ada565b856001600160a01b0361013285611551565b16803b156101f7578160405180926305abd90360e01b825260206004830152818381610162602482018d8b611606565b03925af180156101ec576101d0575b5050907fa02ea23ed67555734edf4de6666622ade6570dc075b93faae13a99999aac5996946101b66101c4936040519687968752608060208801526080870191611606565b918483036040860152611606565b4260608301520390a180f35b6101dc9093929361147b565b6101e857908538610171565b8580fd5b6040513d84823e3d90fd5b5080fd5b8480fd5b8380fd5b80fd5b50346102035780600319360112610203576001546040516001600160a01b039091168152602090f35b503461020357602036600319011261020357602090600435815260028252604060018060a01b0391205416604051908152f35b503461020357602090816003193601126102035761027e6113c7565b6102d08361183f9260405193610296838201866114a4565b808552611c118386013960015460405163ba3143d560e01b81526001600160a01b03959094859392871692849283929190600484016114fc565b03915afa9283156103275780936102ed575b505060405191168152f35b909192508382813d8311610320575b61030681836114a4565b810103126102035750610318906114c5565b9038806102e2565b503d6102fc565b604051903d90823e3d90fd5b503461020357602036600319011261020357602090600435815260038252604060018060a01b0391205416604051908152f35b5034610203576060366003190112610203576103806113c7565b6024356001600160a01b0381811692918390036104f5576044358181168091036104f5577ff0c57e16840df040f15088dc2f81fe391c3923bec73e23a9662efc9c229c6a009283549460ff8660401c1615936001600160401b038716968715806104ee575b600180991490816104e4575b1590816104db575b506104c95767ffffffffffffffff19811688178755856104aa575b5061041d61143a565b61042561143a565b86600080516020613450833981519152556bffffffffffffffffffffffff60a01b9216828754161786558160065416176006556005541617600555610468578280f35b805468ff0000000000000000191690556040519081527fc7f505b2f371ae2175ee4913f4499e1f2633a7b5936321eed1cdaeb6115181d290602090a138808280f35b68ffffffffffffffffff19166801000000000000000117865538610414565b60405163f92ee8a960e01b8152600490fd5b905015386103f9565b303b1591506103f1565b50856103e5565b600080fd5b5034610203576080366003190112610203576001600160401b036004356024358281116101ff5761052f90369060040161140a565b9190926044359081116101fb5761054a90369060040161140a565b93606435916001600160801b038316928381036104f55761056b3386611ada565b610573611810565b61057c85611551565b8688148015906106db575b6106c9578360209188938b8b6105b56040519788968795869463d94ae48360e01b86528c3360048801611a96565b03926001600160a01b03165af19081156106be57889161068d575b5083158015610684575b610672576105e790611a72565b15610660577f598946ee5f624f5489932bdfa9b06b8a4fae2dcc42886357d7b505e926888fb59561062e61063c93604051978897885260a0602089015260a08801916116cd565b918583036040870152611627565b9060608301524260808301520390a160016000805160206134508339815191525580f35b604051638b450acb60e01b8152600490fd5b6040516307942e3160e11b8152600490fd5b508084116105da565b90506020813d82116106b6575b816106a7602093836114a4565b810103126104f55751386105d0565b3d915061069a565b6040513d8a823e3d90fd5b604051635af8315d60e11b8152600490fd5b508715610587565b50346102035760c0366003190112610203576106fd6113c7565b602435916001600160401b038084116101f757608060031985360301126101f75760403660431901126101f75760a4359081116101f7576107429036906004016113dd565b93909261074d611810565b61075d60648301836004016115a5565b905061076f60448401846004016115a5565b91905014801590610d25575b6106c957610788816118a8565b610d035761079633826119c3565b15610cf1576001600160801b036107ab6115da565b1615610cdf576040519461183f6107c560208201886114a4565b808752611c116020880139835460018101809111610ccb57610811859697604092875560018060a01b03600154169083519889809481936303efe8cf60e61b83523390600484016114fc565b03925af1958615610cc05784958597610c77575b508454855260026020908152604080872080546001600160a01b038a81166001600160a01b031992831617909255885489526003845282892080548c8416921691909117905533885260049092528620805460ff1916600117905585546005549093911690813b15610c22576040516307557ce760e31b81523360048201526001600160a01b03891660248201526084803560448301526080606483015290938893859390928492869284926108df929084019190611606565b03925af18015610c5857908591610c63575b5050610956602061090860648601866004016115a5565b61098961091b60448901896004016115a5565b604051634808d74f60e11b8152600481018990526001600160a01b038a16602482015261010060448201529687958695610104870191611627565b9161096360648601611670565b6001600160a01b038e1660a48601523360c48601528483036003190160e48601526116cd565b0381886001600160a01b038b165af1908115610c58578591610c26575b506109b46004850180611730565b6001600160a01b0388163b15610c22576040516305abd90360e01b815260206004820152918791839182916109ee91602484019190611606565b0381836001600160a01b038c165af18015610c0357908691610c0e575b50506001600160a01b0387163b156101fb5760405163189acdbd60e31b81526001600160a01b03848116600483015286908290602490829084908d165af18015610c0357908691610bef575b50506001600160801b03610a696115f0565b16158015610bd6575b61067257610a7f90611a72565b1561066057604080519182526001600160a01b03868116602084015287811691830191909152336060830152909116608082015261012060a082018190527fdd260582d6cbcbc0ca5a2e25a2f9aba90a40ac0f4f9c2f22fb5e26406cf5c456928291610af19190830190600401611796565b610afd60c08301611670565b426101008301520390a16006546001600160a01b031690813b1561020357604051633edc972160e11b81523360048201526001600160a01b03841660248201529181908390604490829084905af19182610bc2575b5050610bbd576040516001600160a01b03821681527f8b2e6836bbd95b79821c267df49af854ff929b4f320005b7f5aacd254b225e1b90602090a15b600160008051602061345083398151915255604080516001600160a01b03928316815292909116602083015290f35b610b8e565b610bcc829161147b565b6102035780610b52565b50806001600160801b03610be86115f0565b1611610a72565b610bf89061147b565b6101fb578438610a57565b6040513d88823e3d90fd5b610c179061147b565b6101fb578438610a0b565b8680fd5b90506020813d602011610c50575b81610c41602093836114a4565b810103126104f55751386109a6565b3d9150610c34565b6040513d87823e3d90fd5b610c6c9061147b565b6101ff5783386108f1565b955095506040853d604011610cb8575b81610c94604093836114a4565b810103126101ff57610cb16020610caa876114c5565b96016114c5565b9538610825565b3d9150610c87565b6040513d86823e3d90fd5b634e487b7160e01b85526011600452602485fd5b604051637710d91d60e11b8152600490fd5b604051634e194fed60e11b8152600490fd5b6040516339e2a09960e01b81526001600160a01b039091166004820152602490fd5b50610d3660648301836004016115a5565b90501561077b565b5034610203576020806003193601126101f757600435610d5c611810565b610d6581611551565b91610d6f82611584565b6006546001600160a01b03949085169391869190853b15610f1257828080896024819660405195869384926319f4c88360e11b8452169c8d60048401525af19182610ef7575b50509060249115600014610ef2577f15d12c9d1809694cd34b030e43d311655eb024585a5ad783d9a017b94e7779e786604051898152a15b836040519788948593635c6a347160e01b85521660048401525af1918215610c585785938693610eac575b5093906040519460a0860191865260a08187015284518092528060c0870195019287905b838210610e9357887f1d863b297de7eac3d37dc0bd70bbc0db1c26ebae2a3fce39af1340634693906d89808a8a6040830152600160608301524260808301520390a160016000805160206134508339815191525580f35b8451811687529582019593820193600190910190610e3c565b935091503d8086853e610ebf81856114a4565b83016040848203126101e85783516001600160401b038111610c22578391610ee8918601611955565b9301519138610e18565b610ded565b610f04919293945061147b565b610f12579086918338610db5565b8280fd5b503461020357604036600319011261020357600435602435610f383383611ada565b610f40611810565b610f4982611551565b8115610cdf576001600160801b03808311610cdf5784916001600160a01b0316803b15610f12576040516319f7b13960e11b81523360048201529184166001600160801b03166024830152829082908183816044810103925af180156101ec57610ffb575b507ffb24e12f89031503fb3399d30a58b87941a5c82584a45c0cc91c60e2fba9dec4606084846040519182526020820152426040820152a160016000805160206134508339815191525580f35b6110049061147b565b610f12578238610fae565b50346102035780600319360112610203576020604051818152f35b50346102035780600319360112610203576005546040516001600160a01b039091168152602090f35b5034610203576003196080368201126101f7576024356004356001600160401b0382116101ff576080826004019383360301126101ff5760403660431901126101ff576110a03382611ada565b6110a8611810565b6110b181611551565b91606481019060446110c383876115a5565b92905001906110d282876115a5565b919050148015906112f6575b6106c9576001600160801b0393846110f46115da565b1615610cdf576001600160a01b03169161110e90866115a5565b949061112261111b6115f0565b93886115a5565b93611147604051958693849363d94ae48360e01b855260209b8c973360048801611a96565b03818a875af19182156112eb5787926112bc575b5081816111666115f0565b16159182156112a8575b50506106725761117f90611a72565b156106605761118c6115da565b85823b15610203576040516319f7b13960e11b81523360048201526001600160801b039290921660248301528160448183865af18015610c0357611295575b5084906111d88580611730565b90823b156101ff5761120a928492836040518096819582946305abd90360e01b84528c60048501526024840191611606565b03925af180156101ec57611281575b50506112577f25680b9016420c95f91dbdbee81fd65796856bf367aeb418a4c05e5a9a8227549360a0604051948594855284015260a0830190611796565b61126360408301611670565b4260808301520390a160016000805160206134508339815191525580f35b61128a9061147b565b6101ff578338611219565b6112a19095919561147b565b93386111cb565b9091506112b36115f0565b16118138611170565b9091508481813d83116112e4575b6112d481836114a4565b81010312610c225751903861115b565b503d6112ca565b6040513d89823e3d90fd5b5061130182866115a5565b9050156110de565b503461020357602036600319011261020357600435602061133261132c83611551565b92611584565b604051634fdb842560e11b81526001600160a01b0391821660048201529283916024918391165afa9081156101ec5760209291611375575b506040519015158152f35b6113959150823d811161139b575b61138d81836114a4565b810190611539565b3861136a565b503d611383565b9050346101f757816003193601126101f7576006546001600160a01b03168152602090f35b600435906001600160a01b03821682036104f557565b9181601f840112156104f5578235916001600160401b0383116104f557602083818601950101116104f557565b9181601f840112156104f5578235916001600160401b0383116104f5576020808501948460051b0101116104f557565b60ff7ff0c57e16840df040f15088dc2f81fe391c3923bec73e23a9662efc9c229c6a005460401c161561146957565b604051631afcd79f60e31b8152600490fd5b6001600160401b03811161148e57604052565b634e487b7160e01b600052604160045260246000fd5b90601f801991011681019081106001600160401b0382111761148e57604052565b51906001600160a01b03821682036104f557565b60005b8381106114ec5750506000910152565b81810151838201526020016114dc565b90606060209194939460408452611521815180928160408801528585880191016114d9565b601f80199101168301019360018060a01b0316910152565b908160209103126104f5575180151581036104f55790565b6000908152600260205260409020546001600160a01b031690811561157257565b604051630e34dec560e01b8152600490fd5b6000908152600360205260409020546001600160a01b031690811561157257565b903590601e19813603018212156104f557018035906001600160401b0382116104f557602001918160051b360383136104f557565b6064356001600160801b03811681036104f55790565b6044356001600160801b03811681036104f55790565b908060209392818452848401376000828201840152601f01601f1916010190565b9190808252602080920192916000805b83821061164657505050505090565b9091929394853560018060a01b038116809103610f12578152830194830193929160010190611637565b604435906001600160801b03918281168091036104f55781526064359182168092036104f55760200152565b9035601e19823603018112156104f55701602081359101916001600160401b0382116104f55781360383136104f557565b9082818152602080910193818360051b82010194846000925b8584106116f7575050505050505090565b90919293949596858061171f600193601f198682030188526117198c8861169c565b90611606565b9901940194019295949391906116e6565b903590601e19813603018212156104f557018035906001600160401b0382116104f5576020019181360383136104f557565b9035601e19823603018112156104f55701602081359101916001600160401b0382116104f5578160051b360383136104f557565b61180d916117ff6117f46117d96117be6117b0868061169c565b608087526080870191611606565b6117cb602087018761169c565b908683036020880152611606565b6117e66040860186611762565b9085830360408701526116cd565b926060810190611762565b916060818503910152611627565b90565b600080516020613450833981519152600281541461182e5760029055565b604051633ee5aeb560e01b8152600490fd5b6020818303126104f55780516001600160401b03918282116104f557019082601f830112156104f557815190811161148e576040519261188a601f8301601f1916602001856114a4565b818452602082840101116104f55761180d91602080850191016114d9565b604051635624b25b60e01b81527f4a204f620c8c5ccdca3fd54d003badd85ba500436a431f0cbda4f558c93c34c86004820152600160248201526000916001600160a01b03919083908290604490829086165afa90811561194a578391611928575b50602081805181010312610f125760200151161561180d5750600190565b61194491503d8085833e61193c81836114a4565b810190611840565b3861190a565b6040513d85823e3d90fd5b9080601f830112156104f5578151906001600160401b03821161148e578160051b60405193602093611989858401876114a4565b855283808601928201019283116104f5578301905b8282106119ac575050505090565b8380916119b8846114c5565b81520191019061199e565b60405163a0e67e2b60e01b8152600092916001600160a01b03919084908290600490829086165afa908115610cc0578491611a32575b50835b8151811015611a2b578260208260051b840101511683851614611a21576001016119fc565b5050505050600190565b5050505090565b90503d8085833e611a4381836114a4565b8101906020818303126101fb578051906001600160401b0382116101e857611a6c929101611955565b386119f9565b8015908115611a8b575b50611a8657600190565b600090565b602091501138611a7c565b91611ac69061180d979596946001600160801b039360018060a01b03168552608060208601526080850191611627565b9416604082015260608185039101526116cd565b611aec611ae682611584565b91611551565b60408051635624b25b60e01b81527f4a204f620c8c5ccdca3fd54d003badd85ba500436a431f0cbda4f558c93c34c860048201526001602482015290936000936001600160a01b039182169391928581604481885afa908115611c06578691611bec575b506020818051810103126101e85760200151831690831603611bdb578451632d9ad53d60e01b81529116600482015290602090829060249082905afa918215611bd05791611bb2575b5015611ba25750565b51633212b89d60e21b8152600490fd5b611bca915060203d811161139b5761138d81836114a4565b38611b99565b8351903d90823e3d90fd5b84516328dd084b60e01b8152600490fd5b611c0091503d8088833e61193c81836114a4565b38611b50565b87513d88823e3d90fdfe6080806040523461002957600780546001600160801b0319166001179055611810908161002f8239f35b600080fdfe608060408181526004918236101561001657600080fd5b600092833560e01c91826302d05d3f14610f1a5750816305abd90314610d6c5781631c36883314610d4457816326f3c79414610d275781632b569b5b14610ce657816333ef627214610c575781633789977014610bc85781635415728e14610ae35781635c6a34711461073357816379279fd11461070a5781637fb7bdfe146106cb5781638404582e146106ac5781639011ae9e14610534578163913b722c14610503578163942840c0146103795781639fb7084a146104d4578163b5ddc99f146104b8578163b8f7a6651461048d578163bbf16381146103a1578163beb071e114610379578163c4de13a6146102d1578163d94ae483146101aa578163f887ea401461017e57508063fbbaeab6146101565763fd780e9d1461013857600080fd5b346101525781600319360112610152576020905160018152f35b5080fd5b503461015257816003193601126101525760015490516001600160a01b039091168152602090f35b9050346101a657826003193601126101a6575490516001600160a01b03909116815260209150f35b8280fd5b8284346102ca5760803660031901126102ca576101c5610f7c565b67ffffffffffffffff6024358181116102cd576101e59036908701610fd7565b929091604435906001600160801b039586831683036102ca576064359182116102ca57506102169036908901610fd7565b885490989196906001600160a01b0390811633036102ba578060015416908516036102ab576002908154161461029d5787850361028c575091602096939161028061028596946102646115ea565b6001600160801b03166001600160801b03196007541617600755565b611277565b9051908152f35b86516001621398b960e31b03198152fd5b8651633be3553d60e21b8152fd5b508651635fc483c560e01b8152fd5b8851639e41bdd760e01b81528390fd5b80fd5b8380fd5b9050346101a657826003193601126101a657600a548251631c377ec560e31b81529160209183919082906001600160a01b03165afa92831561036e578093610335575b606083610324866003549061107a565b815191818352816020840152820152f35b9092506020833d8211610366575b8161035060209383611042565b810103126102ca57506103246060925192610314565b3d9150610343565b8251903d90823e3d90fd5b5050346101525781600319360112610152576020906001600160801b03600754169051908152f35b50503461015257602090816003193601126101a6576001600160a01b036103c6610f7c565b168352600682528083208151938491818154906103e282611008565b92838652600192888482169182600014610463575050600114610425575b858861042189610412848a0385611042565b51928284938452830190610f97565b0390f35b87945081939291528383205b82841061044b575050508201018161041261042138610400565b8054848a018601528895508794909301928101610431565b60ff19168882015294151560051b8701909401945085935061041292506104219150389050610400565b50503461015257816003193601126101525760209060016001600160801b0360025416149051908152f35b5050346101525781600319360112610152576020905160018152f35b505034610152576020366003190112610152576020906104fa6104f5610f7c565b611123565b90519015158152f35b5050346101525781600319360112610152576104219061052161109d565b9051918291602083526020830190610f3f565b919050346101a6576101003660031901126101a6576024356001600160a01b03818116938483036106a85767ffffffffffffffff926044358481116106a4576105809036908401610fd7565b91866063193601126106a05760a4359785891680990361069c5760c435968688168098036106985760e435908111610698576105bf9036908701610fd7565b9a909560015497881661068a57821561067c578a1561067c57881561067c576084356001600160801b03938482168092036102cd57823584556bffffffffffffffffffffffff60a01b809a161760015560016001600160801b03196002541617600255600355338882541617905560643591821682036102ca575091602099939161028061066496946001600160801b03166001600160801b03196007541617600755565b9381600a541617600a55600b541617600b5551908152f35b8951630b2254ed60e01b8152fd5b895163345facd360e01b8152fd5b8a80fd5b8980fd5b8880fd5b8780fd5b8580fd5b5050346101525781600319360112610152576020906003549051908152f35b505034610152578160031936011261015257606091549060018060a01b0360015416906001600160801b03600254169181519384526020840152820152f35b505034610152578160031936011261015257600a5490516001600160a01b039091168152602090f35b8284346102ca57602090816003193601126102ca57610750610f7c565b84546001600160a01b039081163303610ad357600254906001600160801b0392600284841614610ac35761078390611123565b15610ab357600261079261109d565b926001600160801b031916176002556107a96115ea565b6001928184541693875192631cea46b760e31b9485855288858c818a5afa948515610aa9578895610a7a575b5087835b610989575b50505050600754168091036108b7575b50845163a0e67e2b60e01b81529583878281865afa9687156108ad578497610885575b5090849186518094819382525afa91821561087a57809261084a575b50506108428351948486958652850190610f3f565b918301520390f35b9091508282813d8311610873575b6108628183611042565b810103126102ca575051848061082d565b503d610858565b8451903d90823e3d90fd5b85929197506108a5903d8087833e61089d8183611042565b8101906111b1565b969091610811565b86513d86823e3d90fd5b85519063694e80c360e01b868301526024820152602481526060810181811067ffffffffffffffff8211176109765780875263468721a760e01b81528581605f19846109078189606482016117a9565b03018188885af191821561096c578592610939575b50501561092957866107ee565b845163d7d7288f60e01b81528690fd5b61095d925060609087903d8911610964575b6109558285611042565b010190611791565b878061091c565b3d915061094b565b87513d87823e3d90fd5b634e487b7160e01b855260418852602485fd5b8151811015610a75578261099d828461177d565b51168b5191630d582f1360e01b8c840152602491828401526044888185015283526080908184019284841067ffffffffffffffff851117610a635750828e5263468721a760e01b8352860194939291908c828c818f607f1988610a048186608482016117a9565b0301925af1928315610a59578d908d94610a3a575b5050505015610a2a579091836107d9565b8a5163d7d7288f60e01b81528c90fd5b610a509450813d10610964576109558285611042565b8d808c81610a19565b8e513d8e823e3d90fd5b8f60418e91634e487b7160e01b835252fd5b6107de565b9094508881813d8311610aa2575b610a928183611042565b810103126106a4575193826107d5565b503d610a88565b8a513d8a823e3d90fd5b855163153ddc1b60e21b81528790fd5b8651633be3553d60e21b81528890fd5b8451639e41bdd760e01b81528690fd5b50503461015257816003193601126101525780519082600554610b0581611008565b80855291600191808316908115610ba05750600114610b43575b505050610b3182610421940383611042565b51918291602083526020830190610f97565b9450600585527f036b6384b5eca791c62761152d0c79bb0604c104a5fb6f4eb0703f3154bb3db05b828610610b8857505050610b318260206104219582010194610b1f565b80546020878701810191909152909501948101610b6b565b610421975086935060209250610b3194915060ff191682840152151560051b82010194610b1f565b919050346101a657826003193601126101a657600a548151631c377ec560e31b81529260209184919082906001600160a01b03165afa918215610c4d578392610c16575b6020838351908152f35b9091506020813d8211610c45575b81610c3160209383611042565b810103126101a65760209250519038610c0c565b3d9150610c24565b81513d85823e3d90fd5b9050346101a657816003193601126101a657610c71610f7c565b91602435926001600160801b03908185168095036106a85783546001600160a01b039081163303610cd6578060015416911603610cc85760029081541614610cbb57505060035580f35b51633be3553d60e21b8152fd5b5051635fc483c560e01b8152fd5b50505051639e41bdd760e01b8152fd5b50503461015257816003193601126101525790610d1991610d0561109d565b918151938493606085526060850190610f3f565b918160208501528301520390f35b505034610152578160031936011261015257602091549051908152f35b5050346101525781600319360112610152576020906001600160801b03600254169051908152f35b8391503461015257602092836003193601126101a657813567ffffffffffffffff92838211610f165736602383011215610f165781810135938411610f1657602492368486850101116106a85781546001600160a01b03163303610f095760026001600160801b0381541614610cbb575050610de9600554611008565b601f8111610eb5575b508394601f8411600114610e325750938394839493610e25575b5050508160011b916000199060031b1c19161760055580f35b0101359050838080610e0c565b601f198416957f036b6384b5eca791c62761152d0c79bb0604c104a5fb6f4eb0703f3154bb3db0939186905b888210610e9b575050846001969710610e7f575b50505050811b0160055580f35b60001960f88660031b161c199201013516905583808080610e72565b806001849786839596890101358155019601920190610e5e565b610ef9907f036b6384b5eca791c62761152d0c79bb0604c104a5fb6f4eb0703f3154bb3db0601f860160051c810191888710610eff575b601f0160051c019061110c565b85610df2565b9091508190610eec565b51639e41bdd760e01b8152fd5b8480fd5b849034610152578160031936011261015257600b546001600160a01b03168152602090f35b90815180825260208080930193019160005b828110610f5f575050505090565b83516001600160a01b031685529381019392810192600101610f51565b600435906001600160a01b0382168203610f9257565b600080fd5b919082519283825260005b848110610fc3575050826000602080949584010152601f8019910116010190565b602081830181015184830182015201610fa2565b9181601f84011215610f925782359167ffffffffffffffff8311610f92576020808501948460051b010111610f9257565b90600182811c92168015611038575b602083101461102257565b634e487b7160e01b600052602260045260246000fd5b91607f1691611017565b90601f8019910116810190811067ffffffffffffffff82111761106457604052565b634e487b7160e01b600052604160045260246000fd5b9190820180921161108757565b634e487b7160e01b600052601160045260246000fd5b60405190600854808352826020918282019060086000527ff3f7a9fe364faab93b216da50a3214154f22a0a2b415b23a84c8169e8b636ee3936000905b8282106110f2575050506110f092500383611042565b565b8554845260019586019588955093810193909101906110da565b818110611117575050565b6000815560010161110c565b604051631c377ec560e31b815290602090829060049082906001600160a01b03165afa80156111a557600090611172575b61116291506003549061107a565b421061116d57600190565b600090565b6020823d821161119d575b8161118a60209383611042565b810103126102ca57506111629051611154565b3d915061117d565b6040513d6000823e3d90fd5b906020908183820312610f9257825167ffffffffffffffff93848211610f92570181601f82011215610f92578051938411611064578360051b90604051946111fb85840187611042565b85528380860192820101928311610f92578301905b82821061121e575050505090565b81516001600160a01b0381168103610f92578152908301908301611210565b919081101561124d5760051b0190565b634e487b7160e01b600052603260045260246000fd5b356001600160a01b0381168103610f925790565b6040805163a0e67e2b60e01b8152600496939591946001600160a01b039384169491929160009081858b818a5afa9485156114f35782956114d7575b50819a999897969a925b8084106112d557505060085499505050505050505050565b866112ed6112e886848d9e9f9c9d61123d565b611263565b1697881580156114ce575b6114be57835b87518110156113325788611312828a61177d565b51168a14611322576001016112fe565b8a516319e7603160e11b81528d90fd5b509b97509261134f876113496112e884888f61123d565b16611568565b5061135e6112e882868d61123d565b90828110156114ab57600581811b870135601e19883603018112156106a85787019081359067ffffffffffffffff82116114a757602094823603868501136106a4578b168752600685528c8720926113b68454611008565b91601f92838111611471575b50508791831160011461140b5794829160019689936113fe575b505050600019600383901b1c191690841b1790555b01929a999897969a6112bd565b01013590503880806113dc565b83885285882091601f198416895b81811061145857509084600198921061143c575b50505050831b830190556113f1565b60001960f88660031b161c19920101351690553880808061142d565b8284018901358555600190940193918801918801611419565b61149791868b52888b209085808801821c8301938b891061149e575b01901c019061110c565b38806113c2565b9350829361148d565b8680fd5b634e487b7160e01b845260328c52602484fd5b89516319e7603160e11b81528c90fd5b508c89146112f8565b6114ec9195503d8084833e61089d8183611042565b93386112b3565b88513d84823e3d90fd5b6008541561124d5760086000527ff3f7a9fe364faab93b216da50a3214154f22a0a2b415b23a84c8169e8b636ee390600090565b60085481101561124d5760086000527ff3f7a9fe364faab93b216da50a3214154f22a0a2b415b23a84c8169e8b636ee30190600090565b6000818152600960205260408120546115e557600854680100000000000000008110156115d15790826115bd6115a684600160409601600855611531565b819391549060031b91821b91600019901b19161790565b905560085492815260096020522055600190565b634e487b7160e01b82526041600452602482fd5b905090565b60085460005b8181106115fb575050565b60019061164d6116096114fd565b848060a01b03809254600392831b1c1660005260206006815260406000206116318154611008565b80611654575b5050506116426114fd565b9054911b1c16611693565b50016115f0565b600092601f908183118a1461167057505050555b388080611637565b839161168c9186949585528420940160051c84018a850161110c565b5555611668565b6000818152600960205260408120549091908015611778576000199080820181811161176457600854908382019182116117505781810361171c575b5050506008548015611708578101906116e782611531565b909182549160031b1b19169055600855815260096020526040812055600190565b634e487b7160e01b84526031600452602484fd5b61173a61172b6115a693611531565b90549060031b1c928392611531565b90558452600960205260408420553880806116cf565b634e487b7160e01b86526011600452602486fd5b634e487b7160e01b85526011600452602485fd5b505090565b805182101561124d5760209160051b010190565b90816020910312610f9257518015158103610f925790565b92916117d560609160009360018060a01b03168652836020870152608060408701526080860190610f97565b93015256fea26469706673582212201f76352b94168613565aa9841b2fce5e3d773387554df206572fceb4708e816d64736f6c634300081400339b779b17422d0df92223018b32b4d1fa46e071723d6817e2486d003becc55f00a26469706673582212208cb0b81cb07cbc2167b0c1f52df8ade68ada2d69dc94ec3d3f9538fb34cd12ab64736f6c63430008140033",
  "devdoc": {
    "errors": {
      "InvalidInitialization()": [
        {
          "details": "The contract is already initialized."
        }
      ],
      "NotInitializing()": [
        {
          "details": "The contract is not initializing."
        }
      ],
      "ReentrancyGuardReentrantCall()": [
        {
          "details": "Unauthorized reentrant call."
        }
      ]
    },
    "events": {
      "Initialized(uint64)": {
        "details": "Triggered when the contract has been initialized or reinitialized."
      }
    },
    "kind": "dev",
    "methods": {
      "activeLegacy(uint256)": {
        "details": "Active legacy, call this function when the safewallet is eligible for activation.",
        "params": {
          "legacyId_": "legacy id"
        }
      },
      "checkActiveLegacy(uint256)": {
        "details": "Check activation conditions. This activation conditions is current time >= last transaction of safe wallet + lackOfOutgoingTxRange.",
        "params": {
          "legacyId_": "legacy id"
        },
        "returns": {
          "_0": "bool true if eligible for activation, false otherwise"
        }
      },
      "createLegacy(address,(string,string,string[],address[]),(uint128,uint128),uint256,bytes)": {
        "details": "Create new legacy and guard.",
        "params": {
          "extraConfig_": "include minRequireSignature, lackOfOutgoingTxRange",
          "mainConfig_": "include name, note, nickname[], beneficiaries[]",
          "safeWallet": "safeWallet address"
        },
        "returns": {
          "_0": "address legacy address",
          "_1": "address guard address"
        }
      },
      "getNextLegacyAddress(address)": {
        "details": "Get next legacy address that would be created for a sender",
        "params": {
          "sender_": "The address of the sender"
        },
        "returns": {
          "_0": "address The next legacy address that would be created"
        }
      },
      "setActivationTrigger(uint256,uint256)": {
        "details": "Set lackOfOutgoingTxRange legacy, call this function if only mofify lackOfOutgoingTxRange to save gas for user.",
        "params": {
          "lackOfOutgoingTxRange_": "lackOfOutgoingTxRange",
          "legacyId_": "legacy id"
        }
      },
      "setLegacyBeneficiaries(uint256,string[],address[],uint128)": {
        "details": "Set beneficiaries[], minRequiredSignatures_ legacy, call this function if only modify beneficiaries[], minRequiredSignatures to save gas for user.",
        "params": {
          "beneficiaries_": "beneficiaries []",
          "legacyId_": "legacy id",
          "minRequiredSignatures_": "minRequiredSignatures",
          "nickName_": "nick name[]"
        }
      },
      "setLegacyConfig(uint256,(string,string,string[],address[]),(uint128,uint128))": {
        "details": "Set legacy config include beneficiaries, minRequireSignatures, lackOfOutgoingTxRange.",
        "params": {
          "extraConfig_": "include minRequireSignature, lackOfOutgoingTxRange",
          "legacyId_": "legacy Id",
          "mainConfig_": "include name, note, nickname[], beneficiaries[]"
        }
      },
      "setNameNote(uint256,string,string)": {
        "details": "Set name and note legacy, call this function if only modify name and note to save gas for user.",
        "params": {
          "legacyId_": "legacy id",
          "name_": "name legacy",
          "note_": "note legacy"
        }
      }
    },
    "version": 1
  },
  "userdoc": {
    "events": {
      "PrivateCodeSetupNotCompleted(address)": {
        "notice": "Emitted when post-create premium wiring (private code + Chainlink Automation cronjob registration) failed for a legacy. The legacy itself was created successfully — only the premium reminder layer degraded. Off-chain ops can read this event to surface degraded-mode legacies for follow-up."
      }
    },
    "kind": "user",
    "methods": {},
    "version": 1
  },
  "storageLayout": {
    "storage": [
      {
        "astId": 12462,
        "contract": "contracts/inheritance/MultisigLegacyContractRouter.sol:MultisigLegacyRouter",
        "label": "_legacyId",
        "offset": 0,
        "slot": "0",
        "type": "t_uint256"
      },
      {
        "astId": 12464,
        "contract": "contracts/inheritance/MultisigLegacyContractRouter.sol:MultisigLegacyRouter",
        "label": "legacyDeployerContract",
        "offset": 0,
        "slot": "1",
        "type": "t_address"
      },
      {
        "astId": 12468,
        "contract": "contracts/inheritance/MultisigLegacyContractRouter.sol:MultisigLegacyRouter",
        "label": "legacyAddresses",
        "offset": 0,
        "slot": "2",
        "type": "t_mapping(t_uint256,t_address)"
      },
      {
        "astId": 12472,
        "contract": "contracts/inheritance/MultisigLegacyContractRouter.sol:MultisigLegacyRouter",
        "label": "guardAddresses",
        "offset": 0,
        "slot": "3",
        "type": "t_mapping(t_uint256,t_address)"
      },
      {
        "astId": 12476,
        "contract": "contracts/inheritance/MultisigLegacyContractRouter.sol:MultisigLegacyRouter",
        "label": "isCreateLegacy",
        "offset": 0,
        "slot": "4",
        "type": "t_mapping(t_address,t_bool)"
      },
      {
        "astId": 17911,
        "contract": "contracts/inheritance/MultisigLegacyContractRouter.sol:MultisigLegacyRouter",
        "label": "verifier",
        "offset": 0,
        "slot": "5",
        "type": "t_contract(EIP712LegacyVerifier)25034"
      },
      {
        "astId": 17913,
        "contract": "contracts/inheritance/MultisigLegacyContractRouter.sol:MultisigLegacyRouter",
        "label": "premiumSetting",
        "offset": 0,
        "slot": "6",
        "type": "t_address"
      }
    ],
    "types": {
      "t_address": {
        "encoding": "inplace",
        "label": "address",
        "numberOfBytes": "20"
      },
      "t_bool": {
        "encoding": "inplace",
        "label": "bool",
        "numberOfBytes": "1"
      },
      "t_contract(EIP712LegacyVerifier)25034": {
        "encoding": "inplace",
        "label": "contract EIP712LegacyVerifier",
        "numberOfBytes": "20"
      },
      "t_mapping(t_address,t_bool)": {
        "encoding": "mapping",
        "key": "t_address",
        "label": "mapping(address => bool)",
        "numberOfBytes": "32",
        "value": "t_bool"
      },
      "t_mapping(t_uint256,t_address)": {
        "encoding": "mapping",
        "key": "t_uint256",
        "label": "mapping(uint256 => address)",
        "numberOfBytes": "32",
        "value": "t_address"
      },
      "t_uint256": {
        "encoding": "inplace",
        "label": "uint256",
        "numberOfBytes": "32"
      }
    }
  }
}