{
  "address": "0x680F575514585FcCc9ab3A6A3eA2902588Fc3281",
  "abi": [
    {
      "inputs": [],
      "stateMutability": "nonpayable",
      "type": "constructor"
    },
    {
      "inputs": [],
      "name": "InvalidInitialization",
      "type": "error"
    },
    {
      "inputs": [],
      "name": "NotInitializing",
      "type": "error"
    },
    {
      "inputs": [
        {
          "internalType": "address",
          "name": "owner",
          "type": "address"
        }
      ],
      "name": "OwnableInvalidOwner",
      "type": "error"
    },
    {
      "inputs": [
        {
          "internalType": "address",
          "name": "account",
          "type": "address"
        }
      ],
      "name": "OwnableUnauthorizedAccount",
      "type": "error"
    },
    {
      "anonymous": false,
      "inputs": [
        {
          "indexed": false,
          "internalType": "uint64",
          "name": "version",
          "type": "uint64"
        }
      ],
      "name": "Initialized",
      "type": "event"
    },
    {
      "anonymous": false,
      "inputs": [
        {
          "indexed": true,
          "internalType": "address",
          "name": "previousOwner",
          "type": "address"
        },
        {
          "indexed": true,
          "internalType": "address",
          "name": "newOwner",
          "type": "address"
        }
      ],
      "name": "OwnershipTransferred",
      "type": "event"
    },
    {
      "inputs": [],
      "name": "automationManager",
      "outputs": [
        {
          "internalType": "address",
          "name": "",
          "type": "address"
        }
      ],
      "stateMutability": "view",
      "type": "function"
    },
    {
      "inputs": [],
      "name": "initialize",
      "outputs": [],
      "stateMutability": "nonpayable",
      "type": "function"
    },
    {
      "inputs": [],
      "name": "mailActivated",
      "outputs": [
        {
          "internalType": "address",
          "name": "",
          "type": "address"
        }
      ],
      "stateMutability": "view",
      "type": "function"
    },
    {
      "inputs": [],
      "name": "mailBeforeActivation",
      "outputs": [
        {
          "internalType": "address",
          "name": "",
          "type": "address"
        }
      ],
      "stateMutability": "view",
      "type": "function"
    },
    {
      "inputs": [],
      "name": "mailId",
      "outputs": [
        {
          "internalType": "uint256",
          "name": "",
          "type": "uint256"
        }
      ],
      "stateMutability": "view",
      "type": "function"
    },
    {
      "inputs": [],
      "name": "mailReadyToActivate",
      "outputs": [
        {
          "internalType": "address",
          "name": "",
          "type": "address"
        }
      ],
      "stateMutability": "view",
      "type": "function"
    },
    {
      "inputs": [],
      "name": "owner",
      "outputs": [
        {
          "internalType": "address",
          "name": "",
          "type": "address"
        }
      ],
      "stateMutability": "view",
      "type": "function"
    },
    {
      "inputs": [],
      "name": "premiumSetting",
      "outputs": [
        {
          "internalType": "address",
          "name": "",
          "type": "address"
        }
      ],
      "stateMutability": "view",
      "type": "function"
    },
    {
      "inputs": [],
      "name": "renounceOwnership",
      "outputs": [],
      "stateMutability": "nonpayable",
      "type": "function"
    },
    {
      "inputs": [
        {
          "internalType": "string",
          "name": "ownerEmail",
          "type": "string"
        },
        {
          "internalType": "string",
          "name": "contractName",
          "type": "string"
        },
        {
          "internalType": "address",
          "name": "contractAddress",
          "type": "address"
        },
        {
          "internalType": "address",
          "name": "activatedBy",
          "type": "address"
        },
        {
          "internalType": "address",
          "name": "safeAddress",
          "type": "address"
        },
        {
          "internalType": "string[]",
          "name": "beneNames",
          "type": "string[]"
        },
        {
          "internalType": "address[]",
          "name": "beneAddresses",
          "type": "address[]"
        }
      ],
      "name": "sendActivatedMutisigToOwner",
      "outputs": [],
      "stateMutability": "nonpayable",
      "type": "function"
    },
    {
      "inputs": [
        {
          "internalType": "string",
          "name": "beneName",
          "type": "string"
        },
        {
          "internalType": "string",
          "name": "beneEmail",
          "type": "string"
        },
        {
          "internalType": "string",
          "name": "contractName",
          "type": "string"
        },
        {
          "internalType": "address[]",
          "name": "listToken",
          "type": "address[]"
        },
        {
          "internalType": "uint256[]",
          "name": "listAmount",
          "type": "uint256[]"
        },
        {
          "internalType": "string[]",
          "name": "listAssetName",
          "type": "string[]"
        },
        {
          "internalType": "address",
          "name": "contractAddress",
          "type": "address"
        },
        {
          "internalType": "bool",
          "name": "remaining",
          "type": "bool"
        }
      ],
      "name": "sendEmailActivatedToBene",
      "outputs": [],
      "stateMutability": "nonpayable",
      "type": "function"
    },
    {
      "inputs": [
        {
          "internalType": "string[]",
          "name": "beneNames",
          "type": "string[]"
        },
        {
          "internalType": "string",
          "name": "contractName",
          "type": "string"
        },
        {
          "internalType": "uint256",
          "name": "timeCountdown",
          "type": "uint256"
        },
        {
          "internalType": "string[]",
          "name": "beneEmails",
          "type": "string[]"
        },
        {
          "internalType": "uint256",
          "name": "legacyId",
          "type": "uint256"
        },
        {
          "internalType": "address",
          "name": "contractAddress",
          "type": "address"
        }
      ],
      "name": "sendEmailBeforeActivationToBeneficiary",
      "outputs": [],
      "stateMutability": "nonpayable",
      "type": "function"
    },
    {
      "inputs": [
        {
          "internalType": "string",
          "name": "ownerName",
          "type": "string"
        },
        {
          "internalType": "string",
          "name": "contractName",
          "type": "string"
        },
        {
          "internalType": "uint256",
          "name": "lastTx",
          "type": "uint256"
        },
        {
          "internalType": "uint256",
          "name": "bufferTime",
          "type": "uint256"
        },
        {
          "internalType": "address[]",
          "name": "listBene",
          "type": "address[]"
        },
        {
          "internalType": "string",
          "name": "ownerEmail",
          "type": "string"
        }
      ],
      "name": "sendEmailBeforeActivationToOwner",
      "outputs": [],
      "stateMutability": "nonpayable",
      "type": "function"
    },
    {
      "inputs": [
        {
          "internalType": "string[]",
          "name": "beneNames",
          "type": "string[]"
        },
        {
          "internalType": "string[]",
          "name": "beneEmails",
          "type": "string[]"
        },
        {
          "internalType": "string",
          "name": "contractName",
          "type": "string"
        },
        {
          "internalType": "uint256",
          "name": "x_days",
          "type": "uint256"
        },
        {
          "internalType": "uint256",
          "name": "legacyId",
          "type": "uint256"
        },
        {
          "internalType": "address",
          "name": "contractAddress",
          "type": "address"
        }
      ],
      "name": "sendEmailBeforeLayer2ToLayer1",
      "outputs": [],
      "stateMutability": "nonpayable",
      "type": "function"
    },
    {
      "inputs": [
        {
          "internalType": "string",
          "name": "beneName",
          "type": "string"
        },
        {
          "internalType": "string",
          "name": "beneEmail",
          "type": "string"
        },
        {
          "internalType": "string",
          "name": "contractName",
          "type": "string"
        },
        {
          "internalType": "uint256",
          "name": "x_days",
          "type": "uint256"
        }
      ],
      "name": "sendEmailBeforeLayer2ToLayer2",
      "outputs": [],
      "stateMutability": "nonpayable",
      "type": "function"
    },
    {
      "inputs": [
        {
          "internalType": "string[]",
          "name": "beneNames",
          "type": "string[]"
        },
        {
          "internalType": "string[]",
          "name": "beneEmails",
          "type": "string[]"
        },
        {
          "internalType": "string",
          "name": "contractName",
          "type": "string"
        },
        {
          "internalType": "uint256",
          "name": "x_days",
          "type": "uint256"
        },
        {
          "internalType": "uint256",
          "name": "legacyId",
          "type": "uint256"
        },
        {
          "internalType": "address",
          "name": "contractAddress",
          "type": "address"
        }
      ],
      "name": "sendEmailBeforeLayer3ToLayer12",
      "outputs": [],
      "stateMutability": "nonpayable",
      "type": "function"
    },
    {
      "inputs": [
        {
          "internalType": "string",
          "name": "beneName",
          "type": "string"
        },
        {
          "internalType": "string",
          "name": "beneEmail",
          "type": "string"
        },
        {
          "internalType": "string",
          "name": "contractName",
          "type": "string"
        },
        {
          "internalType": "uint256",
          "name": "x_day",
          "type": "uint256"
        }
      ],
      "name": "sendEmailBeforeLayer3ToLayer3",
      "outputs": [],
      "stateMutability": "nonpayable",
      "type": "function"
    },
    {
      "inputs": [
        {
          "internalType": "string",
          "name": "toEmail",
          "type": "string"
        },
        {
          "internalType": "string",
          "name": "contractName",
          "type": "string"
        },
        {
          "internalType": "address",
          "name": "activatedByBene",
          "type": "address"
        },
        {
          "internalType": "uint256",
          "name": "timeActivated",
          "type": "uint256"
        },
        {
          "internalType": "address",
          "name": "safeWallet",
          "type": "address"
        },
        {
          "components": [
            {
              "internalType": "address",
              "name": "listToken",
              "type": "address"
            },
            {
              "internalType": "uint256",
              "name": "listAmount",
              "type": "uint256"
            },
            {
              "internalType": "string",
              "name": "listAssetName",
              "type": "string"
            }
          ],
          "internalType": "struct NotifyLib.ListAsset[]",
          "name": "_listAsset",
          "type": "tuple[]"
        },
        {
          "components": [
            {
              "internalType": "string",
              "name": "name",
              "type": "string"
            },
            {
              "internalType": "address",
              "name": "beneAddress",
              "type": "address"
            },
            {
              "internalType": "string[]",
              "name": "listAssetName",
              "type": "string[]"
            },
            {
              "internalType": "uint256[]",
              "name": "listAmount",
              "type": "uint256[]"
            }
          ],
          "internalType": "struct NotifyLib.BeneReceived[]",
          "name": "_listBeneReceived",
          "type": "tuple[]"
        },
        {
          "internalType": "address",
          "name": "contractAddress",
          "type": "address"
        },
        {
          "internalType": "bool",
          "name": "remaining",
          "type": "bool"
        }
      ],
      "name": "sendEmailContractActivatedToOwner",
      "outputs": [],
      "stateMutability": "nonpayable",
      "type": "function"
    },
    {
      "inputs": [
        {
          "internalType": "string[]",
          "name": "beneNamesLayer1",
          "type": "string[]"
        },
        {
          "internalType": "string[]",
          "name": "beneEmailsLayer1",
          "type": "string[]"
        },
        {
          "internalType": "address",
          "name": "beneAddressLayer2",
          "type": "address"
        },
        {
          "internalType": "string",
          "name": "contractName",
          "type": "string"
        },
        {
          "internalType": "uint256",
          "name": "timeActiveLayer2",
          "type": "uint256"
        }
      ],
      "name": "sendEmailReadyToActivateLayer2ToLayer1",
      "outputs": [],
      "stateMutability": "nonpayable",
      "type": "function"
    },
    {
      "inputs": [
        {
          "internalType": "string",
          "name": "beneName",
          "type": "string"
        },
        {
          "internalType": "string",
          "name": "beneEmail",
          "type": "string"
        },
        {
          "internalType": "string",
          "name": "contractName",
          "type": "string"
        },
        {
          "internalType": "uint256",
          "name": "legacyId",
          "type": "uint256"
        },
        {
          "internalType": "address",
          "name": "contractAddress",
          "type": "address"
        }
      ],
      "name": "sendEmailReadyToActivateLayer2ToLayer2",
      "outputs": [],
      "stateMutability": "nonpayable",
      "type": "function"
    },
    {
      "inputs": [
        {
          "internalType": "string[]",
          "name": "beneNames",
          "type": "string[]"
        },
        {
          "internalType": "string[]",
          "name": "beneEmails",
          "type": "string[]"
        },
        {
          "internalType": "string",
          "name": "contractName",
          "type": "string"
        },
        {
          "internalType": "uint256",
          "name": "activationDate",
          "type": "uint256"
        },
        {
          "internalType": "address",
          "name": "layer3Addr",
          "type": "address"
        }
      ],
      "name": "sendEmailReadyToActivateLayer3ToLayer12",
      "outputs": [],
      "stateMutability": "nonpayable",
      "type": "function"
    },
    {
      "inputs": [
        {
          "internalType": "string",
          "name": "beneName",
          "type": "string"
        },
        {
          "internalType": "string",
          "name": "beneEmail",
          "type": "string"
        },
        {
          "internalType": "string",
          "name": "contractName",
          "type": "string"
        },
        {
          "internalType": "uint256",
          "name": "legacyId",
          "type": "uint256"
        },
        {
          "internalType": "address",
          "name": "contractAddress",
          "type": "address"
        }
      ],
      "name": "sendEmailReadyToActivateLayer3ToLayer3",
      "outputs": [],
      "stateMutability": "nonpayable",
      "type": "function"
    },
    {
      "inputs": [
        {
          "internalType": "string[]",
          "name": "beneNames",
          "type": "string[]"
        },
        {
          "internalType": "string[]",
          "name": "beneEmails",
          "type": "string[]"
        },
        {
          "internalType": "string",
          "name": "contractName",
          "type": "string"
        },
        {
          "internalType": "uint256",
          "name": "legacyId",
          "type": "uint256"
        },
        {
          "internalType": "address",
          "name": "contractAddress",
          "type": "address"
        }
      ],
      "name": "sendEmailReadyToActivateToLayer1",
      "outputs": [],
      "stateMutability": "nonpayable",
      "type": "function"
    },
    {
      "inputs": [
        {
          "internalType": "string[]",
          "name": "beneNames",
          "type": "string[]"
        },
        {
          "internalType": "string[]",
          "name": "beneEmails",
          "type": "string[]"
        },
        {
          "internalType": "string",
          "name": "contractName",
          "type": "string"
        },
        {
          "internalType": "address",
          "name": "safeWallet",
          "type": "address"
        }
      ],
      "name": "sendMailActivatedMultisig",
      "outputs": [],
      "stateMutability": "nonpayable",
      "type": "function"
    },
    {
      "inputs": [
        {
          "internalType": "string[]",
          "name": "beneNames",
          "type": "string[]"
        },
        {
          "internalType": "string[]",
          "name": "beneEmails",
          "type": "string[]"
        },
        {
          "internalType": "string",
          "name": "contractName",
          "type": "string"
        }
      ],
      "name": "sendMailOwnerResetToBene",
      "outputs": [],
      "stateMutability": "nonpayable",
      "type": "function"
    },
    {
      "inputs": [
        {
          "internalType": "address",
          "name": "_mailBeforeActivation",
          "type": "address"
        },
        {
          "internalType": "address",
          "name": "_mailActivated",
          "type": "address"
        },
        {
          "internalType": "address",
          "name": "_mailReadyToActivate",
          "type": "address"
        },
        {
          "internalType": "address",
          "name": "_premiumSetting",
          "type": "address"
        },
        {
          "internalType": "address",
          "name": "_automationManager",
          "type": "address"
        }
      ],
      "name": "setParams",
      "outputs": [],
      "stateMutability": "nonpayable",
      "type": "function"
    },
    {
      "inputs": [
        {
          "internalType": "address",
          "name": "newOwner",
          "type": "address"
        }
      ],
      "name": "transferOwnership",
      "outputs": [],
      "stateMutability": "nonpayable",
      "type": "function"
    }
  ],
  "transactionHash": "0x82566cb0952747fcd362f0274a5d170414692627d2616bf4b5d27f8dd68024f1",
  "args": [],
  "numDeployments": 1,
  "solcInputHash": "f2556dfeb12466a7e876316d5b86d684",
  "bytecode": "0x608080604052346100b8577ff0c57e16840df040f15088dc2f81fe391c3923bec73e23a9662efc9c229c6a009081549060ff8260401c166100a957506001600160401b036002600160401b031982821601610064575b604051611fb790816100be8239f35b6001600160401b031990911681179091556040519081527fc7f505b2f371ae2175ee4913f4499e1f2633a7b5936321eed1cdaeb6115181d290602090a1388080610055565b63f92ee8a960e01b8152600490fd5b600080fdfe608080604052600436101561001357600080fd5b600090813560e01c908163040d28bc146117d05750806311fab217146117a75780633b128e9c1461162d5780633d1d24d91461153157806340761ad6146114b95780635b5dc0f6146114415780635e408c65146112545780636a459d061461122b57806370b58135146111b0578063715018a6146111455780637dad97d11461112757806380a42b8d146110085780638129fc1c14610ede5780638da5cb5b14610ea85780638e8abe7414610e8157806390de99b714610d3f578063a9f1c5b614610bff578063b8be7d0914610b81578063b90ee1c314610b58578063bce4bdfb14610a15578063bf96825c1461096c578063c7ecb94e146108bb578063e5632c881461083c578063e789b148146107a4578063f0f10eeb146106ff578063f2fde38b146106d25763f51fb1cf1461014a57600080fd5b346103e2576101203660031901126103e2576004356001600160401b0381116106ce5761017b903690600401611829565b906024356001600160401b0381116106ce5761019b903690600401611829565b916101a461187f565b6101ac6118ab565b60a4356001600160401b0381116106ca57366023820112156106ca578060040135906101d7826118eb565b906101e56040519283611808565b828252602082016024819460051b830101913683116106c65760248101915b83831061062b57505050506001600160401b0360c435116106275736602360c4350112156106275760c435600401359361023d856118eb565b9161024b6040519384611808565b8583526020830180963660248260051b60c4350101116104df57602460c43501915b60248260051b60c4350101831061050957505060e4359590506001600160a01b0386168603610504576101043515156101043503610504576003546001600160a01b0316331480156104e3575b6102c390611f26565b6001546001600160a01b0316998a3b156104df57610311906102ff6040519a63f51fb1cf60e01b8c5261012060048d01526101248c0190611d16565b8a81036003190160248c015290611d16565b6001600160a01b0393841660448a015260648035908a0152921660848801526003198783030160a4880152518082526020600582901b83018101949289918101905b83831061048f5750505050506003198583030160c486015251808252602082019160208260051b820101949287915b8383106103f05788808981818e8183818f8f60018060a01b031660e483015261010435151561010483015203925af180156103e5576103ce575b506103c8600554611d93565b60055580f35b6103d7906117f5565b6103e25780826103bc565b80fd5b6040513d84823e3d90fd5b9091929395601f1982820301835286519061043a61041683516080808552840190611d16565b60018060a01b03602085015116602084015260408401518382036040850152611db8565b9060608093015192818303910152602080835192838152019201908a905b8082106104775750505060208060019298019301930191939290610382565b90919260208060019286518152019401920190610458565b90919293956020806104d0600193601f1986820301875260408b51868060a01b03815116835284810151858401520151906060908160408201520190611d16565b98019301930191939290610353565b8980fd5b50600080516020611f62833981519152546001600160a01b031633146102ba565b600080fd5b82356001600160401b03811161062357608060c43582013603602319011261062357604051908160808101106001600160401b0360808401111761060d576080820160405260248160c4350101356001600160401b0381116106055761057990602436918460c435010101611829565b825261058b60448260c43501016118d7565b60208301526001600160401b0360648260c43501013511610609576105bd3660c4358301606481013501602401611902565b604083015260848160c4350101356001600160401b03811161060557926020926105f3849360248097369260c435010101611a4a565b6060820152815201930192905061026d565b8d80fd5b8c80fd5b634e487b7160e01b600052604160045260246000fd5b8b80fd5b8580fd5b82356001600160401b0381116106c2578201606060231982360301126106c257604051908160608101106001600160401b0360608401111761060d576060820160405261067a602482016118d7565b8252604481013560208301526001600160401b036064820135116106235791602092916106b284936024369160648101350101611829565b6040820152815201920191610204565b8a80fd5b8880fd5b8480fd5b5080fd5b50346103e25760203660031901126103e2576106fc6106ef6118c1565b6106f7611bdc565b611c15565b80f35b50346103e2578061070f36611b62565b6004549295919491926001600160a01b039081163314801561078a575b61073590611cca565b87541692833b15610786576107658896928793604051998a988997889663f0f10eeb60e01b885260048801611e21565b03925af180156103e5576107765750f35b61077f906117f5565b6103e25780f35b8780fd5b50600080516020611f62833981519152548116331461072c565b50346103e25760a03660031901126103e2576107be6118c1565b6001600160a01b036024358181169081900361050457816107dd61187f565b816107e6611895565b916107ef6118ab565b946107f8611bdc565b826bffffffffffffffffffffffff60a01b9816888a541617895587600154161760015516856002541617600255168360035416176003551690600454161760045580f35b50346103e2578061084c36611b1e565b90939260018060a01b038060045416331480156108a1575b61086d90611cca565b6002541691823b1561089d578694610765869260405198899788968795631cac659160e31b875260048701611ea6565b8680fd5b50600080516020611f628339815191525481163314610864565b50346103e257806108cb36611b62565b9060018060a09897959496981b03806004541633148015610952575b6108f090611cca565b86541691823b1561089d57869461092186928a94604051998a98899788966363f65ca760e11b885260048801611e21565b03925af180156103e55761093e575b506103c88251600554611e14565b610947906117f5565b6106ce578138610930565b50600080516020611f6283398151915254811633146108e7565b50346103e2578061097c36611aa8565b90939260018060a01b038060045416331480156109fb575b61099d90611cca565b6002541691823b1561089d5786946109cd869260405198899788968795632fe5a09760e21b875260048701611ef8565b03925af180156103e5576109e757506103c8600554611d93565b6109f0906117f5565b6103e25780386103bc565b50600080516020611f628339815191525481163314610994565b50346103e25760031960a0368201126106ce5781600435916001600160401b0392838111610b5457610a4b903690600401611902565b90602435848111610b5057610a64903690600401611902565b93610a6d61187f565b906064359081116106ca57610a86903690600401611829565b6004546001600160a01b03939190841633148015610b36575b610aa890611cca565b836002541691823b1561089d5760405163bce4bdfb60e01b815260a060048201529587958795869488948694610b129490610afd908f90610aed9060a48a0190611db8565b90848983030160248a0152611db8565b93166044860152848303016064850152611d16565b608435608483015203925af180156103e55761093e57506103c88251600554611e14565b50600080516020611f628339815191525484163314610a9f565b8380fd5b8280fd5b50346103e257806003193601126103e2576004546040516001600160a01b039091168152602090f35b50346103e25780610b9136611b1e565b919092949360018060a01b03806004541633148015610be5575b610bb490611cca565b6002541690813b156106275785879161092182966040519889978896879563b8be7d0960e01b875260048701611ea6565b50600080516020611f628339815191525481163314610bab565b50346103e25760031960c0368201126106ce576001600160401b03600435818111610b5057610c32903690600401611902565b916024358281116106ca57610c4b903690600401611829565b916064359081116106ca57610c64903690600401611902565b926001600160a01b039260a43584811690819003610504578487956004541633148015610d25575b610c9590611cca565b85541690813b1561062757858094610cd392610cfb610ce398604051998a98899788966354f8e2db60e11b885260c0600489015260c4880190611db8565b9083878303016024880152611d16565b9060443560448601528482030160648501528b611db8565b90608435608484015260a483015203925af180156103e55761093e57506103c88251600554611e14565b50600080516020611f628339815191525481163314610c8c565b50346103e2578060031960c036820112610e7e576001600160401b03600435818111610e7957610d73903690600401611829565b916024358281116106ca57610d8c903690600401611829565b9060843583811161062757610da5903690600401611982565b9260a43590811161062757610dbe903690600401611829565b9060018060a01b03806004541633148015610e5f575b610ddd90611cca565b86541691823b1561089d57610e30956109cd610e2093899793610e5089956040519b8c9a8b998a986390de99b760e01b8a5260c060048b015260c48a0190611d16565b90868983030160248a0152611d16565b906044356044880152606435606488015284878303016084880152611d56565b918483030160a4850152611d16565b50600080516020611f628339815191525481163314610dd4565b505050fd5b50fd5b50346103e257806003193601126103e257546040516001600160a01b039091168152602090f35b50346103e257806003193601126103e257600080516020611f62833981519152546040516001600160a01b039091168152602090f35b50346103e257806003193601126103e2577ff0c57e16840df040f15088dc2f81fe391c3923bec73e23a9662efc9c229c6a00805460ff8160401c1615906001600160401b03811680159081611000575b6001149081610ff6575b159081610fed575b50610fdb5767ffffffffffffffff198116600117835581610fbc575b50610f65611c89565b610f6d611c89565b610f7633611c15565b610f7e575080f35b68ff00000000000000001981541690557fc7f505b2f371ae2175ee4913f4499e1f2633a7b5936321eed1cdaeb6115181d2602060405160018152a180f35b68ffffffffffffffffff19166801000000000000000117825538610f5c565b60405163f92ee8a960e01b8152600490fd5b90501538610f40565b303b159150610f38565b839150610f2e565b50346103e2576003196080368201126106ce5781600435916001600160401b0392838111610b545761103e903690600401611902565b90602435848111610b5057611057903690600401611902565b93604435908111610b5057611070903690600401611829565b611078611895565b9160018060a01b039182600354163314801561110d575b61109890611f26565b826001541691823b1561089d576110db95879589956110ea8894610aed966040519b8c9a8b998a986380a42b8d60e01b8a52608060048b015260848a0190611db8565b91868303016044870152611d16565b9116606483015203925af180156103e55761093e57506103c88251600554611e14565b50600080516020611f62833981519152548316331461108f565b50346103e257806003193601126103e2576020600554604051908152f35b50346103e257806003193601126103e25761115e611bdc565b600080516020611f6283398151915280546001600160a01b031981169091556000906001600160a01b03167f8be0079c531659141344cd1fd0a4f28419497f9722a3daafe3b4186f6b6457e08280a380f35b50346103e257806111c036611aa8565b90939260018060a01b03806004541633148015611211575b6111e190611cca565b6002541691823b1561089d5786946107658692604051988997889687956370b5813560e01b875260048701611ef8565b50600080516020611f6283398151915254811633146111d8565b50346103e257806003193601126103e2576001546040516001600160a01b039091168152602090f35b50346103e2576003199061010036830181136106ce576001600160401b03600435818111610b505761128a903690600401611829565b906024358181116106ca576112a3903690600401611829565b90604435818111610627576112bc903690600401611829565b60643582811161089d576112d4903690600401611982565b96608435838111610786576112ed903690600401611a4a565b9260a43590811161078657611306903690600401611902565b9160c4359860018060a01b0391828b16809b036105045760e4359687151580980361050457836003541633148015611427575b61134290611f26565b60019384541698893b15610623576040519a635e408c6560e01b8c5260048c01526101048b0161137191611d16565b858b82030160248c015261138491611d16565b848a82030160448b015261139791611d16565b838982030160648a01526113aa91611d56565b908288830301608489015284518083526020808094019601928a5b82811061141457505050505085879881956113ef8684968c9a9896868c98030160a4870152611db8565b9160c484015260e483015203925af180156103e5576109e757506103c8600554611d93565b84518852968101969381019383016113c5565b50600080516020611f628339815191525484163314611339565b50346103e25780611451366119e8565b929160018060a01b0380600454163314801561149f575b61147190611cca565b85541690813b15610627578580946109cd60405197889687958694632daee07b60e11b865260048601611e75565b50600080516020611f628339815191525481163314611468565b50346103e257806114c9366119e8565b929160018060a01b03806004541633148015611517575b6114e990611cca565b85541690813b15610627578580946109cd6040519788968795869463203b0d6b60e11b865260048601611e75565b50600080516020611f6283398151915254811633146114e0565b50346103e2576003196060368201126106ce5781600435916001600160401b0392838111610b5457611567903690600401611902565b602435848111610b505761157f903690600401611902565b93604435908111610b5057611598903690600401611829565b9160018060a01b03806003541633148015611613575b6115b790611f26565b60015416803b156106ca576115f48580946109216116049560405198899788968795633d1d24d960e01b8752606060048801526064870190611db8565b838682030160248701528d611db8565b91848303016044850152611d16565b50600080516020611f6283398151915254811633146115ae565b50346103e25760e03660031901126103e2576001600160401b03816004358281116106ce57611660903690600401611829565b91602435818111610b5457611679903690600401611829565b61168161187f565b9061168a611895565b946116936118ab565b9060a43585811161089d576116ac903690600401611902565b9460c43590811161089d576116c5903690600401611982565b6003546001600160a01b03969087163314801561178d575b6116e690611f26565b866001541695863b156106c657878995816040519c8d9b8c9a8b99630ec4a3a760e21b8b5260048b0160e0905260e48b0161172091611d16565b8a81036003190160248c015261173591611d16565b951660448901521660648701521660848501528381036003190160a485015261175d91611db8565b8281036003190160c484015261177291611d56565b03925af180156103e557611784575080f35b6106fc906117f5565b50600080516020611f6283398151915254871633146116dd565b50346103e257806003193601126103e2576003546040516001600160a01b039091168152602090f35b9050346106ce57816003193601126106ce576002546001600160a01b03168152602090f35b6001600160401b03811161060d57604052565b90601f801991011681019081106001600160401b0382111761060d57604052565b81601f82011215610504578035906001600160401b03821161060d576040519261185d601f8401601f191660200185611808565b8284526020838301011161050457816000926020809301838601378301015290565b604435906001600160a01b038216820361050457565b606435906001600160a01b038216820361050457565b608435906001600160a01b038216820361050457565b600435906001600160a01b038216820361050457565b35906001600160a01b038216820361050457565b6001600160401b03811161060d5760051b60200190565b9080601f830112156105045781359061191a826118eb565b926119286040519485611808565b828452602092838086019160051b8301019280841161050457848301915b8483106119565750505050505090565b82356001600160401b03811161050457869161197784848094890101611829565b815201920191611946565b81601f8201121561050457803591611999836118eb565b926119a76040519485611808565b808452602092838086019260051b820101928311610504578301905b8282106119d1575050505090565b8380916119dd846118d7565b8152019101906119c3565b6080600319820112610504576001600160401b03916004358381116105045782611a1491600401611829565b926024358181116105045783611a2c91600401611829565b9260443591821161050457611a4391600401611829565b9060643590565b81601f8201121561050457803591611a61836118eb565b92611a6f6040519485611808565b808452602092838086019260051b820101928311610504578301905b828210611a99575050505090565b81358152908301908301611a8b565b60a0600319820112610504576001600160401b03916004358381116105045782611ad491600401611829565b926024358181116105045783611aec91600401611829565b9260443591821161050457611b0391600401611829565b90606435906084356001600160a01b03811681036105045790565b60a0600319820112610504576001600160401b03916004358381116105045782611b4a91600401611902565b926024358181116105045783611aec91600401611902565b60c0600319820112610504576001600160401b03916004358381116105045782611b8e91600401611902565b926024358181116105045783611ba691600401611902565b9260443591821161050457611bbd91600401611829565b90606435906084359060a4356001600160a01b03811681036105045790565b600080516020611f62833981519152546001600160a01b03163303611bfd57565b60405163118cdaa760e01b8152336004820152602490fd5b6001600160a01b03908116908115611c7057600080516020611f6283398151915280546001600160a01b031981168417909155167f8be0079c531659141344cd1fd0a4f28419497f9722a3daafe3b4186f6b6457e0600080a3565b604051631e4fbdf760e01b815260006004820152602490fd5b60ff7ff0c57e16840df040f15088dc2f81fe391c3923bec73e23a9662efc9c229c6a005460401c1615611cb857565b604051631afcd79f60e31b8152600490fd5b15611cd157565b60405162461bcd60e51b815260206004820152601760248201527f4f6e6c79206175746f6d6174696f6e206d616e616765720000000000000000006044820152606490fd5b919082519283825260005b848110611d42575050826000602080949584010152601f8019910116010190565b602081830181015184830182015201611d21565b90815180825260208080930193019160005b828110611d76575050505090565b83516001600160a01b031685529381019392810192600101611d68565b6000198114611da25760010190565b634e487b7160e01b600052601160045260246000fd5b908082519081815260208091019281808460051b8301019501936000915b848310611de65750505050505090565b9091929394958480611e04600193601f198682030187528a51611d16565b9801930193019194939290611dd6565b91908201809211611da257565b949192611e5060a095989794611e42611e5e9460c08a5260c08a0190611db8565b9088820360208a0152611db8565b908682036040880152611d16565b9560608501526080840152600180831b0316910152565b949392611e50606093611e93611ea19460808a5260808a0190611d16565b9088820360208a0152611d16565b930152565b9395949192611ed4608094611ec6611ee29460a0895260a0890190611db8565b908782036020890152611db8565b908582036040870152611d16565b60608401959095526001600160a01b0316910152565b9395949192611ed4608094611f18611ee29460a0895260a0890190611d16565b908782036020890152611d16565b15611f2d57565b60405162461bcd60e51b815260206004820152600c60248201526b4f6e6c792073657474696e6760a01b6044820152606490fdfe9016d09d72d40fdae2fd8ceac6b6234c7706214fd39c1cd1e609a0528c199300a26469706673582212205ed8e2db4c19f41f835fd0c4cdeb49c97dabf06247c89efe75ace3f18572bb5a64736f6c63430008140033",
  "devdoc": {
    "errors": {
      "InvalidInitialization()": [
        {
          "details": "The contract is already initialized."
        }
      ],
      "NotInitializing()": [
        {
          "details": "The contract is not initializing."
        }
      ],
      "OwnableInvalidOwner(address)": [
        {
          "details": "The owner is not a valid owner account. (eg. `address(0)`)"
        }
      ],
      "OwnableUnauthorizedAccount(address)": [
        {
          "details": "The caller account is not authorized to perform an operation."
        }
      ]
    },
    "events": {
      "Initialized(uint64)": {
        "details": "Triggered when the contract has been initialized or reinitialized."
      }
    },
    "kind": "dev",
    "methods": {
      "owner()": {
        "details": "Returns the address of the current owner."
      },
      "renounceOwnership()": {
        "details": "Leaves the contract without owner. It will not be possible to call `onlyOwner` functions. Can only be called by the current owner. NOTE: Renouncing ownership will leave the contract without an owner, thereby disabling any functionality that is only available to the owner."
      },
      "transferOwnership(address)": {
        "details": "Transfers ownership of the contract to a new account (`newOwner`). Can only be called by the current owner."
      }
    },
    "version": 1
  },
  "userdoc": {
    "kind": "user",
    "methods": {},
    "version": 1
  },
  "storageLayout": {
    "storage": [
      {
        "astId": 35569,
        "contract": "contracts/premium/PremiumMailRouter.sol:PremiumMailRouter",
        "label": "mailBeforeActivation",
        "offset": 0,
        "slot": "0",
        "type": "t_address"
      },
      {
        "astId": 35571,
        "contract": "contracts/premium/PremiumMailRouter.sol:PremiumMailRouter",
        "label": "mailActivated",
        "offset": 0,
        "slot": "1",
        "type": "t_address"
      },
      {
        "astId": 35573,
        "contract": "contracts/premium/PremiumMailRouter.sol:PremiumMailRouter",
        "label": "mailReadyToActivate",
        "offset": 0,
        "slot": "2",
        "type": "t_address"
      },
      {
        "astId": 35575,
        "contract": "contracts/premium/PremiumMailRouter.sol:PremiumMailRouter",
        "label": "premiumSetting",
        "offset": 0,
        "slot": "3",
        "type": "t_address"
      },
      {
        "astId": 35577,
        "contract": "contracts/premium/PremiumMailRouter.sol:PremiumMailRouter",
        "label": "automationManager",
        "offset": 0,
        "slot": "4",
        "type": "t_address"
      },
      {
        "astId": 35579,
        "contract": "contracts/premium/PremiumMailRouter.sol:PremiumMailRouter",
        "label": "mailId",
        "offset": 0,
        "slot": "5",
        "type": "t_uint256"
      }
    ],
    "types": {
      "t_address": {
        "encoding": "inplace",
        "label": "address",
        "numberOfBytes": "20"
      },
      "t_uint256": {
        "encoding": "inplace",
        "label": "uint256",
        "numberOfBytes": "32"
      }
    }
  }
}