{
  "address": "0x18B34C0d400288917466DBeE1b85b39371A28C48",
  "abi": [
    {
      "inputs": [],
      "stateMutability": "nonpayable",
      "type": "constructor"
    },
    {
      "inputs": [],
      "name": "EmptySource",
      "type": "error"
    },
    {
      "inputs": [],
      "name": "InvalidInitialization",
      "type": "error"
    },
    {
      "inputs": [],
      "name": "NoInlineSecrets",
      "type": "error"
    },
    {
      "inputs": [],
      "name": "NotInitializing",
      "type": "error"
    },
    {
      "inputs": [],
      "name": "OnlyRouterCanFulfill",
      "type": "error"
    },
    {
      "inputs": [
        {
          "internalType": "address",
          "name": "owner",
          "type": "address"
        }
      ],
      "name": "OwnableInvalidOwner",
      "type": "error"
    },
    {
      "inputs": [
        {
          "internalType": "address",
          "name": "account",
          "type": "address"
        }
      ],
      "name": "OwnableUnauthorizedAccount",
      "type": "error"
    },
    {
      "inputs": [
        {
          "internalType": "uint256",
          "name": "value",
          "type": "uint256"
        },
        {
          "internalType": "uint256",
          "name": "length",
          "type": "uint256"
        }
      ],
      "name": "StringsInsufficientHexLength",
      "type": "error"
    },
    {
      "inputs": [
        {
          "internalType": "bytes32",
          "name": "requestId",
          "type": "bytes32"
        }
      ],
      "name": "UnexpectedRequestID",
      "type": "error"
    },
    {
      "anonymous": false,
      "inputs": [
        {
          "indexed": false,
          "internalType": "uint64",
          "name": "version",
          "type": "uint64"
        }
      ],
      "name": "Initialized",
      "type": "event"
    },
    {
      "anonymous": false,
      "inputs": [
        {
          "indexed": true,
          "internalType": "address",
          "name": "previousOwner",
          "type": "address"
        },
        {
          "indexed": true,
          "internalType": "address",
          "name": "newOwner",
          "type": "address"
        }
      ],
      "name": "OwnershipTransferred",
      "type": "event"
    },
    {
      "anonymous": false,
      "inputs": [
        {
          "indexed": true,
          "internalType": "bytes32",
          "name": "id",
          "type": "bytes32"
        }
      ],
      "name": "RequestFulfilled",
      "type": "event"
    },
    {
      "anonymous": false,
      "inputs": [
        {
          "indexed": true,
          "internalType": "bytes32",
          "name": "id",
          "type": "bytes32"
        }
      ],
      "name": "RequestSent",
      "type": "event"
    },
    {
      "anonymous": false,
      "inputs": [
        {
          "indexed": true,
          "internalType": "bytes32",
          "name": "requestId",
          "type": "bytes32"
        },
        {
          "indexed": false,
          "internalType": "bytes",
          "name": "response",
          "type": "bytes"
        },
        {
          "indexed": false,
          "internalType": "bytes",
          "name": "err",
          "type": "bytes"
        }
      ],
      "name": "Response",
      "type": "event"
    },
    {
      "anonymous": false,
      "inputs": [
        {
          "indexed": false,
          "internalType": "string",
          "name": "to",
          "type": "string"
        },
        {
          "indexed": false,
          "internalType": "enum NotifyLib.NotifyType",
          "name": "notifyType",
          "type": "uint8"
        }
      ],
      "name": "SendMail",
      "type": "event"
    },
    {
      "inputs": [
        {
          "internalType": "string",
          "name": "beneName",
          "type": "string"
        },
        {
          "internalType": "string",
          "name": "contractName",
          "type": "string"
        },
        {
          "internalType": "uint256",
          "name": "timeCountdown",
          "type": "uint256"
        },
        {
          "internalType": "string",
          "name": "beneEmail",
          "type": "string"
        },
        {
          "internalType": "uint256",
          "name": "legacyId",
          "type": "uint256"
        },
        {
          "internalType": "address",
          "name": "contractAddress",
          "type": "address"
        }
      ],
      "name": "_sendEmailBeforeActivationToBeneficiary",
      "outputs": [
        {
          "internalType": "bytes32",
          "name": "requestId",
          "type": "bytes32"
        }
      ],
      "stateMutability": "nonpayable",
      "type": "function"
    },
    {
      "inputs": [
        {
          "internalType": "string",
          "name": "ownerName",
          "type": "string"
        },
        {
          "internalType": "string",
          "name": "contractName",
          "type": "string"
        },
        {
          "internalType": "uint256",
          "name": "lastTx",
          "type": "uint256"
        },
        {
          "internalType": "uint256",
          "name": "bufferTime",
          "type": "uint256"
        },
        {
          "internalType": "address[]",
          "name": "listBene",
          "type": "address[]"
        },
        {
          "internalType": "string",
          "name": "ownerEmail",
          "type": "string"
        }
      ],
      "name": "_sendEmailBeforeActivationToOwner",
      "outputs": [
        {
          "internalType": "bytes32",
          "name": "requestId",
          "type": "bytes32"
        }
      ],
      "stateMutability": "nonpayable",
      "type": "function"
    },
    {
      "inputs": [
        {
          "internalType": "string",
          "name": "beneName",
          "type": "string"
        },
        {
          "internalType": "string",
          "name": "beneEmail",
          "type": "string"
        },
        {
          "internalType": "string",
          "name": "contractName",
          "type": "string"
        },
        {
          "internalType": "uint256",
          "name": "x_days",
          "type": "uint256"
        },
        {
          "internalType": "uint256",
          "name": "legacyId",
          "type": "uint256"
        },
        {
          "internalType": "address",
          "name": "contractAddress",
          "type": "address"
        }
      ],
      "name": "_sendEmailBeforeLayer2ToLayer1",
      "outputs": [
        {
          "internalType": "bytes32",
          "name": "requestId",
          "type": "bytes32"
        }
      ],
      "stateMutability": "nonpayable",
      "type": "function"
    },
    {
      "inputs": [
        {
          "internalType": "string",
          "name": "beneName",
          "type": "string"
        },
        {
          "internalType": "string",
          "name": "beneEmail",
          "type": "string"
        },
        {
          "internalType": "string",
          "name": "contractName",
          "type": "string"
        },
        {
          "internalType": "uint256",
          "name": "x_days",
          "type": "uint256"
        }
      ],
      "name": "_sendEmailBeforeLayer2ToLayer2",
      "outputs": [
        {
          "internalType": "bytes32",
          "name": "requestId",
          "type": "bytes32"
        }
      ],
      "stateMutability": "nonpayable",
      "type": "function"
    },
    {
      "inputs": [
        {
          "internalType": "string",
          "name": "beneName",
          "type": "string"
        },
        {
          "internalType": "string",
          "name": "beneEmail",
          "type": "string"
        },
        {
          "internalType": "string",
          "name": "contractName",
          "type": "string"
        },
        {
          "internalType": "uint256",
          "name": "x_day",
          "type": "uint256"
        },
        {
          "internalType": "uint256",
          "name": "legacyId",
          "type": "uint256"
        },
        {
          "internalType": "address",
          "name": "contractAddress",
          "type": "address"
        }
      ],
      "name": "_sendEmailBeforeLayer3ToLayer12",
      "outputs": [
        {
          "internalType": "bytes32",
          "name": "requestId",
          "type": "bytes32"
        }
      ],
      "stateMutability": "nonpayable",
      "type": "function"
    },
    {
      "inputs": [
        {
          "internalType": "string",
          "name": "beneName",
          "type": "string"
        },
        {
          "internalType": "string",
          "name": "beneEmail",
          "type": "string"
        },
        {
          "internalType": "string",
          "name": "contractName",
          "type": "string"
        },
        {
          "internalType": "uint256",
          "name": "x_day",
          "type": "uint256"
        }
      ],
      "name": "_sendEmailBeforeLayer3ToLayer3",
      "outputs": [
        {
          "internalType": "bytes32",
          "name": "requestId",
          "type": "bytes32"
        }
      ],
      "stateMutability": "nonpayable",
      "type": "function"
    },
    {
      "inputs": [],
      "name": "donID",
      "outputs": [
        {
          "internalType": "bytes32",
          "name": "",
          "type": "bytes32"
        }
      ],
      "stateMutability": "view",
      "type": "function"
    },
    {
      "inputs": [],
      "name": "gasLimit",
      "outputs": [
        {
          "internalType": "uint32",
          "name": "",
          "type": "uint32"
        }
      ],
      "stateMutability": "view",
      "type": "function"
    },
    {
      "inputs": [
        {
          "internalType": "bytes32",
          "name": "requestId",
          "type": "bytes32"
        },
        {
          "internalType": "bytes",
          "name": "response",
          "type": "bytes"
        },
        {
          "internalType": "bytes",
          "name": "err",
          "type": "bytes"
        }
      ],
      "name": "handleOracleFulfillment",
      "outputs": [],
      "stateMutability": "nonpayable",
      "type": "function"
    },
    {
      "inputs": [
        {
          "internalType": "address",
          "name": "_router",
          "type": "address"
        },
        {
          "internalType": "uint64",
          "name": "_subscriptionId",
          "type": "uint64"
        },
        {
          "internalType": "bytes32",
          "name": "_donId",
          "type": "bytes32"
        },
        {
          "internalType": "uint32",
          "name": "_gasLimit",
          "type": "uint32"
        },
        {
          "internalType": "address",
          "name": "_sendMailRouter",
          "type": "address"
        }
      ],
      "name": "initialize",
      "outputs": [],
      "stateMutability": "nonpayable",
      "type": "function"
    },
    {
      "inputs": [],
      "name": "mailId",
      "outputs": [
        {
          "internalType": "uint256",
          "name": "",
          "type": "uint256"
        }
      ],
      "stateMutability": "view",
      "type": "function"
    },
    {
      "inputs": [],
      "name": "owner",
      "outputs": [
        {
          "internalType": "address",
          "name": "",
          "type": "address"
        }
      ],
      "stateMutability": "view",
      "type": "function"
    },
    {
      "inputs": [],
      "name": "renounceOwnership",
      "outputs": [],
      "stateMutability": "nonpayable",
      "type": "function"
    },
    {
      "inputs": [],
      "name": "router",
      "outputs": [
        {
          "internalType": "address",
          "name": "",
          "type": "address"
        }
      ],
      "stateMutability": "view",
      "type": "function"
    },
    {
      "inputs": [],
      "name": "s_lastError",
      "outputs": [
        {
          "internalType": "bytes",
          "name": "",
          "type": "bytes"
        }
      ],
      "stateMutability": "view",
      "type": "function"
    },
    {
      "inputs": [],
      "name": "s_lastRequestId",
      "outputs": [
        {
          "internalType": "bytes32",
          "name": "",
          "type": "bytes32"
        }
      ],
      "stateMutability": "view",
      "type": "function"
    },
    {
      "inputs": [],
      "name": "s_lastResponse",
      "outputs": [
        {
          "internalType": "bytes",
          "name": "",
          "type": "bytes"
        }
      ],
      "stateMutability": "view",
      "type": "function"
    },
    {
      "inputs": [
        {
          "internalType": "string[]",
          "name": "beneNames",
          "type": "string[]"
        },
        {
          "internalType": "string",
          "name": "contractName",
          "type": "string"
        },
        {
          "internalType": "uint256",
          "name": "timeCountdown",
          "type": "uint256"
        },
        {
          "internalType": "string[]",
          "name": "beneEmails",
          "type": "string[]"
        },
        {
          "internalType": "uint256",
          "name": "legacyId",
          "type": "uint256"
        },
        {
          "internalType": "address",
          "name": "contractAddress",
          "type": "address"
        }
      ],
      "name": "sendEmailBeforeActivationToBeneficiary",
      "outputs": [],
      "stateMutability": "nonpayable",
      "type": "function"
    },
    {
      "inputs": [
        {
          "internalType": "string",
          "name": "ownerName",
          "type": "string"
        },
        {
          "internalType": "string",
          "name": "contractName",
          "type": "string"
        },
        {
          "internalType": "uint256",
          "name": "lastTx",
          "type": "uint256"
        },
        {
          "internalType": "uint256",
          "name": "bufferTime",
          "type": "uint256"
        },
        {
          "internalType": "address[]",
          "name": "listBene",
          "type": "address[]"
        },
        {
          "internalType": "string",
          "name": "ownerEmail",
          "type": "string"
        }
      ],
      "name": "sendEmailBeforeActivationToOwner",
      "outputs": [],
      "stateMutability": "nonpayable",
      "type": "function"
    },
    {
      "inputs": [
        {
          "internalType": "string[]",
          "name": "beneNames",
          "type": "string[]"
        },
        {
          "internalType": "string[]",
          "name": "beneEmails",
          "type": "string[]"
        },
        {
          "internalType": "string",
          "name": "contractName",
          "type": "string"
        },
        {
          "internalType": "uint256",
          "name": "x_days",
          "type": "uint256"
        },
        {
          "internalType": "uint256",
          "name": "legacyId",
          "type": "uint256"
        },
        {
          "internalType": "address",
          "name": "contractAddress",
          "type": "address"
        }
      ],
      "name": "sendEmailBeforeLayer2ToLayer1",
      "outputs": [],
      "stateMutability": "nonpayable",
      "type": "function"
    },
    {
      "inputs": [
        {
          "internalType": "string",
          "name": "beneName",
          "type": "string"
        },
        {
          "internalType": "string",
          "name": "beneEmail",
          "type": "string"
        },
        {
          "internalType": "string",
          "name": "contractName",
          "type": "string"
        },
        {
          "internalType": "uint256",
          "name": "x_days",
          "type": "uint256"
        }
      ],
      "name": "sendEmailBeforeLayer2ToLayer2",
      "outputs": [],
      "stateMutability": "nonpayable",
      "type": "function"
    },
    {
      "inputs": [
        {
          "internalType": "string[]",
          "name": "beneNames",
          "type": "string[]"
        },
        {
          "internalType": "string[]",
          "name": "beneEmails",
          "type": "string[]"
        },
        {
          "internalType": "string",
          "name": "contractName",
          "type": "string"
        },
        {
          "internalType": "uint256",
          "name": "x_day",
          "type": "uint256"
        },
        {
          "internalType": "uint256",
          "name": "legacyId",
          "type": "uint256"
        },
        {
          "internalType": "address",
          "name": "contractAddress",
          "type": "address"
        }
      ],
      "name": "sendEmailBeforeLayer3ToLayer12",
      "outputs": [],
      "stateMutability": "nonpayable",
      "type": "function"
    },
    {
      "inputs": [
        {
          "internalType": "string",
          "name": "beneName",
          "type": "string"
        },
        {
          "internalType": "string",
          "name": "beneEmail",
          "type": "string"
        },
        {
          "internalType": "string",
          "name": "contractName",
          "type": "string"
        },
        {
          "internalType": "uint256",
          "name": "x_day",
          "type": "uint256"
        }
      ],
      "name": "sendEmailBeforeLayer3ToLayer3",
      "outputs": [],
      "stateMutability": "nonpayable",
      "type": "function"
    },
    {
      "inputs": [],
      "name": "sendMailRouter",
      "outputs": [
        {
          "internalType": "address",
          "name": "",
          "type": "address"
        }
      ],
      "stateMutability": "view",
      "type": "function"
    },
    {
      "inputs": [],
      "name": "subscriptionId",
      "outputs": [
        {
          "internalType": "uint64",
          "name": "",
          "type": "uint64"
        }
      ],
      "stateMutability": "view",
      "type": "function"
    },
    {
      "inputs": [
        {
          "internalType": "address",
          "name": "newOwner",
          "type": "address"
        }
      ],
      "name": "transferOwnership",
      "outputs": [],
      "stateMutability": "nonpayable",
      "type": "function"
    }
  ],
  "transactionHash": "0xca3670a764577df4f407096ade6d3c014b3d53b0f81cb12268b764f68ff43453",
  "args": [],
  "numDeployments": 1,
  "solcInputHash": "39431884bd6e5fedd36c724181a9c769",
  "bytecode": "0x608080604052346200011a57600080546001600160a01b03191673b83e47c2bc239b3bf370bc41e1459a34b41238d01790557f66756e2d657468657265756d2d7365706f6c69612d31000000000000000000006001556007805463ffffffff1916620493e01790557ff0c57e16840df040f15088dc2f81fe391c3923bec73e23a9662efc9c229c6a0080549091604082901c60ff166200010b57506001600160401b036002600160401b031982821601620000c5575b6040516139ff9081620001208239f35b6001600160401b031990911681179091556040519081527fc7f505b2f371ae2175ee4913f4499e1f2633a7b5936321eed1cdaeb6115181d290602090a1388080620000b5565b63f92ee8a960e01b8152600490fd5b600080fdfe6080604052600436101561001257600080fd5b60003560e01c806309c1ba2e146101b75780630ca76175146101b2578063202a4b3f146101ad5780632d4829fa146101a85780633944ea3a146101a357806340761ad61461019e57806341a8af3c146101995780634776258a146101945780634b0795a81461018f5780635953951b1461018a5780635b5dc0f6146101855780636e74336b14610180578063715018a61461017b57806372aa080c146101765780637dad97d11461017157806385de98021461016c5780638da5cb5b1461016757806390de99b714610162578063a9f1c5b61461015d578063b1e2174914610158578063b8e1216314610153578063c7ecb94e1461014e578063f0f10eeb14610149578063f2fde38b14610144578063f68016b71461013f5763f887ea401461013a57600080fd5b61103e565b61101a565b610ff1565b610f65565b610ed9565b610e05565b610de7565b610cf7565b610c38565b610c02565b610aab565b610a8d565b610a6e565b610a03565b6109e5565b6109aa565b61098b565b610801565b6107e5565b6107c9565b61078c565b610657565b61059a565b6104b3565b6102b7565b346101de5760003660031901126101de5760206001600160401b0360025416604051908152f35b600080fd5b634e487b7160e01b600052604160045260246000fd5b604081019081106001600160401b0382111761021457604052565b6101e3565b602081019081106001600160401b0382111761021457604052565b90601f801991011681019081106001600160401b0382111761021457604052565b6001600160401b03811161021457601f01601f191660200190565b81601f820112156101de5780359061028782610255565b926102956040519485610234565b828452602083830101116101de57816000926020809301838601378301015290565b346101de5760603660031901126101de576001600160401b0360048035906024358381116101de576102ec9036908301610270565b906044358481116101de576103049036908301610270565b9060009460018060a01b03865416330361046f5784600354036104575783519081116102145761033d8161033884546105c1565b6111c8565b602080601f83116001146103d6575081906103729588926103cb575b50508160011b916000199060031b1c1916179055611286565b807f7873807bf6ddc50401cd3d29bbe0decee23fd4d68d273f4b5eb83cded4d2f172604051806103a1816113ef565b0390a27f85e1543bf2f84fe80c6badbce3648c8539ad1df4d2b3d822938ca0538be727e68280a280f35b015190503880610359565b91929394601f1984166103f9600460005260008051602061398a83398151915290565b9389905b82821061043f5750509160019391856103729897969410610426575b505050811b019055611286565b015160001960f88460031b161c19169055388080610419565b806001869782949787015181550196019401906103fd565b60405163d068bf5b60e01b8152808301869052602490fd5b60405162461bcd60e51b8152602081840152601760248201527f4f6e6c7920726f757465722063616e2066756c66696c6c0000000000000000006044820152606490fd5b346101de5760003660031901126101de576002546040805191901c6001600160a01b03168152602090f35b600435906001600160a01b03821682036101de57565b608435906001600160a01b03821682036101de57565b60a435906001600160a01b03821682036101de57565b60c06003198201126101de576001600160401b03916004358381116101de578261054c91600401610270565b926024358181116101de578361056491600401610270565b926044359182116101de5761057b91600401610270565b90606435906084359060a4356001600160a01b03811681036101de5790565b346101de5760206105b96105ad36610520565b949390939291926126c6565b604051908152f35b90600182811c921680156105f1575b60208310146105db57565b634e487b7160e01b600052602260045260246000fd5b91607f16916105d0565b60005b83811061060e5750506000910152565b81810151838201526020016105fe565b90602091610637815180928185528580860191016105fb565b601f01601f1916010190565b90602061065492818152019061061e565b90565b346101de5760008060031936011261072757604051908060045461067a816105c1565b808552916001918083169081156106fd57506001146106b4575b6106b0856106a481870382610234565b60405191829182610643565b0390f35b92506004835260008051602061398a8339815191525b8284106106e55750505081016020016106a4826106b0610694565b805460208587018101919091529093019281016106ca565b8695506106b0969350602092506106a494915060ff191682840152151560051b8201019293610694565b80fd5b60806003198201126101de576001600160401b03916004358381116101de578261075691600401610270565b926024358181116101de578361076e91600401610270565b926044359182116101de5761078591600401610270565b9060643590565b346101de576107c76107c16107a03661072a565b918094936107bc60018060a01b0360025460401c16331461149f565b612443565b506138d1565b005b346101de5760206105b96107dc3661072a565b92919091612443565b346101de5760206105b96107f83661072a565b92919091612885565b346101de57600080600319360112610727576040519080600554610824816105c1565b808552916001918083169081156106fd575060011461084d576106b0856106a481870382610234565b92506005835260008051602061394a8339815191525b82841061087e5750505081016020016106a4826106b0610694565b80546020858701810191909152909301928101610863565b6001600160401b0381116102145760051b60200190565b60c06003198201126101de576001600160401b03916004358381116101de57826108d991600401610270565b926024358181116101de57836108f191600401610270565b9260443592606435926084358181116101de57836023820112156101de57806004013561091d81610896565b9161092b6040519384610234565b81835260209160248385019160051b830101918783116101de57602401905b82821061096c57505050509260a4359182116101de5761065491600401610270565b81356001600160a01b03811681036101de57815290830190830161094a565b346101de5760206105b961099e366108ad565b949390939291926117d8565b346101de576107c76109df6109be3661072a565b918094936109da60018060a01b0360025460401c16331461149f565b612885565b5061390d565b346101de5760003660031901126101de576020600154604051908152f35b346101de5760008060031936011261072757610a1d611067565b60008051602061396a83398151915280546001600160a01b0319811690915581906001600160a01b03167f8be0079c531659141344cd1fd0a4f28419497f9722a3daafe3b4186f6b6457e08280a380f35b346101de5760206105b9610a8136610520565b9493909392919261222e565b346101de5760003660031901126101de576020600654604051908152f35b346101de5760a03660031901126101de57610ac46104de565b6024356001600160401b039182821682036101de5760643563ffffffff811681036101de57610af16104f4565b916000805160206139aa833981519152549460ff8660401c1615951680159081610bfa575b6001149081610bf0575b159081610be7575b50610bd5576000805160206139aa833981519152805467ffffffffffffffff19166001179055610b619385610bb0575b60443591611114565b610b6757005b6000805160206139aa833981519152805460ff60401b19169055604051600181527fc7f505b2f371ae2175ee4913f4499e1f2633a7b5936321eed1cdaeb6115181d290602090a1005b6000805160206139aa833981519152805460ff60401b1916600160401b179055610b58565b60405163f92ee8a960e01b8152600490fd5b90501538610b28565b303b159150610b20565b869150610b16565b346101de5760003660031901126101de5760008051602061396a833981519152546040516001600160a01b039091168152602090f35b346101de576107c7610c71610c4c366108ad565b9594938694610c6c60018060a09795971b0360025460401c16331461149f565b6117d8565b5061387e565b9080601f830112156101de57813590610c8f82610896565b92610c9d6040519485610234565b828452602092838086019160051b830101928084116101de57848301915b848310610ccb5750505050505090565b82356001600160401b0381116101de578691610cec84848094890101610270565b815201920191610cbb565b346101de5760c03660031901126101de576001600160401b036004358181116101de57610d28903690600401610c77565b6024358281116101de57610d40903690600401610270565b604435926064359081116101de57610d5c903690600401610c77565b92608435610d6861050a565b94610d8160018060a01b0360025460401c16331461149f565b60005b85518110156107c75780610d9b610da69284611519565b5151610dab576114ef565b610d84565b610dce8885610dba848b611519565b51888a610dc7878a611519565b5192612056565b50610de2610ddc8285611519565b5161387e565b6114ef565b346101de5760003660031901126101de576020600354604051908152f35b346101de5760c03660031901126101de576001600160401b036004358181116101de57610e36903690600401610270565b906024358181116101de57610e4f903690600401610270565b916064359182116101de576106b092610e6f610e85933690600401610270565b610e7761050a565b926084359260443591612056565b6040519081529081906020820190565b60c06003198201126101de576001600160401b03916004358381116101de5782610ec191600401610c77565b926024358181116101de578361056491600401610c77565b346101de57610ee736610e95565b9493610f0460018060a09695961b0360025460401c16331461149f565b60005b85518110156107c75780610f1e610f299284611519565b5151610f2e576114ef565b610f07565b610f5188858888610f3f868d611519565b51610f4a878a611519565b51906126c6565b50610de2610f5f8285611519565b5161390d565b346101de57610f7336610e95565b9493610f9060018060a09695961b0360025460401c16331461149f565b60005b85518110156107c75780610faa610fb59284611519565b5151610fba576114ef565b610f93565b610fdd88858888610fcb868d611519565b51610fd6878a611519565b519061222e565b50610de2610feb8285611519565b516138d1565b346101de5760203660031901126101de576107c761100d6104de565b611015611067565b6110a0565b346101de5760003660031901126101de57602063ffffffff60075416604051908152f35b346101de5760003660031901126101de576000546040516001600160a01b039091168152602090f35b60008051602061396a833981519152546001600160a01b0316330361108857565b60405163118cdaa760e01b8152336004820152602490fd5b6001600160a01b039081169081156110fb5760008051602061396a83398151915280546001600160a01b031981168417909155167f8be0079c531659141344cd1fd0a4f28419497f9722a3daafe3b4186f6b6457e0600080a3565b604051631e4fbdf760e01b815260006004820152602490fd5b6001600160401b03929363ffffffff9195929560018060a01b03166bffffffffffffffffffffffff60a01b6000541617600055600254946001551663ffffffff196007541617600755600160401b600160e01b039060401b1692169063ffffffff60e01b161717600255611186611199565b61118e611199565b611197336110a0565b565b60ff6000805160206139aa8339815191525460401c16156111b657565b604051631afcd79f60e31b8152600490fd5b601f81116111d4575050565b6000906004825260008051602061398a833981519152906020601f850160051c8301941061121d575b601f0160051c01915b82811061121257505050565b818155600101611206565b90925082906111fd565b601f8111611233575050565b6000906005825260008051602061394a833981519152906020601f850160051c8301941061127c575b601f0160051c01915b82811061127157505050565b818155600101611265565b909250829061125c565b9081516001600160401b038111610214576112ab816112a66005546105c1565b611227565b602080601f83116001146112e757508192936000926112dc575b50508160011b916000199060031b1c191617600555565b0151905038806112c5565b90601f19831694611308600560005260008051602061394a83398151915290565b926000905b87821061134557505083600195961061132c575b505050811b01600555565b015160001960f88460031b161c19169055388080611321565b8060018596829496860151815501950193019061130d565b6005546000929161136d826105c1565b808252916001908181169081156113d2575060011461138b57505050565b91929350600560005260008051602061394a833981519152916000925b8484106113ba57505060209250010190565b805460208585018101919091529093019281016113a8565b915050602093945060ff929192191683830152151560051b010190565b604081526000600454611401816105c1565b90816040850152600190818116908160001461147a5750600114611433575b505081602061065493830391015261135d565b60046000908152925060008051602061398a8339815191525b82841061146457505050810160600161065438611420565b805460608587010152602090930192810161144c565b9050610654949350606092915060ff191682840152151560051b820101909138611420565b156114a657565b60405162461bcd60e51b815260206004820152600b60248201526a27b7363c903937baba32b960a91b6044820152606490fd5b634e487b7160e01b600052601160045260246000fd5b60001981146114fe5760010190565b6114d9565b634e487b7160e01b600052603260045260246000fd5b805182101561152d5760209160051b010190565b611503565b90611545602092828151948592016105fb565b0190565b60405190611556826101f9565b60078252666c6973743a205b60c81b6020830152565b602261119791939293604051948161158e8793518092602080870191016105fb565b820190602760f81b918260208201526115b18251809360206021850191016105fb565b01906021820152036002810185520183610234565b6000198101919082116114fe57565b601f198101919082116114fe57565b906111976021604051846116028296518092602080860191016105fb565b8101600b60fa1b6020820152036001810185520183610234565b9061119760216040518461163a8296518092602080860191016105fb565b8101605d60f81b6020820152036001810185520183610234565b906103e8918281029281840414901517156114fe57565b908160011b91808304600214901517156114fe57565b91936072611197946117769397966040519889966c6f776e65725f6e616d653a202760981b60208901526116bf815180926020602d8c0191016105fb565b870172272c20636f6e74726163745f6e616d653a202760681b602d8201526116f18251809360206040850191016105fb565b017404e5840d8c2e6e8bee8f07440dccaee4088c2e8ca5605b1b60408201526117248251809360206055850191016105fb565b0173292c202061637469766174655f646174653a202760601b60558201526117568251809360206069850191016105fb565b0161176f60698201680819185e4a1cca49cb60ba1b9052565b0190611532565b03601f198101845283610234565b6111979193929360405194859183516117a5816020968780880191016105fb565b83016117b9825180938780850191016105fb565b016117cc825180938680850191016105fb565b01038085520183610234565b9294909591604051906a02932b6b4b73232b91016960ad1b602083015261183b603e838a5161180f818d6020602b860191016105fb565b810172102732b0b934b7339020b1ba34bb30ba34b7b760691b602b82015203601e810185520183610234565b611843611549565b946000955b87518710156118b35761187d906118776118726118658a8c611519565b516001600160a01b031690565b611b47565b9061156c565b9561188888516115c6565b811061189e575b611898906114ef565b95611848565b956118ab611898916115e4565b96905061188f565b61190b97506118f693949650976118fc95996118f0620151806118e96118e46118de6106549e61161c565b97611654565b611a04565b9304611a04565b92611681565b92611c8e565b90611905611e8c565b91611784565b6129ca565b60405190606082018281106001600160401b0382111761021457604052602a8252604082602036910137565b60405190611949826101f9565b6007825260203681840137565b9061196082610255565b61196d6040519182610234565b828152809261197e601f1991610255565b0190602036910137565b626e1f6961199461193c565b90602782015b6000190190600a906f181899199a1a9b1b9c1cb0b131b232b360811b8282061a835304908161199a57505090565b626eee6861199461193c565b626e1f6561199461193c565b626e1f6861199461193c565b626e1f6761199461193c565b626e1f6b61199461193c565b806000917a184f03e93ff9f4daa797ed6e38ed64bf6a1f01000000000000000080821015611b39575b506d04ee2d6d415b85acef810000000080831015611b2a575b50662386f26fc1000080831015611b1b575b506305f5e10080831015611b0c575b5061271080831015611afd575b506064821015611aed575b600a80921015611ae3575b600190816021611a9b828701611956565b95860101905b611aad575b5050505090565b600019019083906f181899199a1a9b1b9c1cb0b131b232b360811b8282061a835304918215611ade57919082611aa1565b611aa6565b9160010191611a8a565b9190606460029104910191611a7f565b60049193920491019138611a74565b60089193920491019138611a67565b60109193920491019138611a58565b60209193920491019138611a46565b604093508104915038611a2d565b6001600160a01b031680611b59611910565b916030611b6584611c04565b536078611b7184611c11565b5360295b60018111611ba75750611b86575090565b60405163e22e27eb60e01b8152600481019190915260146024820152604490fd5b90600f811690601082101561152d57611be4916f181899199a1a9b1b9c1cb0b131b232b360811b901a611bda8487611c21565b5360041c91611c32565b611b75565b90602082018092116114fe57565b919082018092116114fe57565b80511561152d5760200190565b80516001101561152d5760210190565b90815181101561152d570160200190565b80156114fe576000190190565b7f5b207b2046726f6d3a207b456d61696c3a20276170704031303130322e696f2781527f2c204e616d653a2027313031303220506c6174666f726d272c7d2c00000000006020820152603b0190565b9060405190611c9c82610219565b60008252611ca8611988565b604051938493602085017f636f6e737420656d61696c55524c203d202768747470733a2f2f6170692e6d6190526040850174696c6a65742e636f6d2f76332e312f73656e64273b60581b9052605585017f636f6e73742061757468486561646572203d2027426173696320000000000000905280519081606f87019160200191611d31926105fb565b8401606f8101611d459061273b60f01b9052565b7f636f6e737420656d61696c44617461203d207b204d657373616765733a2000006071820152608f01611d7790611c3f565b6e546f3a205b207b456d61696c3a202760881b8152600f01611d9891611532565b6e09cb0813985b594e89c9cb1f4b174b608a1b81526b02a32b6b83630ba32a4a21d160a51b600f820152601b01611dce91611532565b780b0815195b5c1b185d1953185b99dd5859d94e881d1c9d594b603a1b8152695375626a6563743a202760b01b6019820152602301611e0c91611532565b6109cb60f21b81526b5661726961626c65733a207b60a01b60028201520360111981018252600e016106549082610234565b9060405190611e4c82610219565b60008252611ca86119c8565b9060405190611e6682610219565b60008252611ca86119d4565b9060405190611e8082610219565b60008252611ca86119ec565b604051677d2c7d2c5d2c7d3b60c01b60208201527f636f6e737420726573706f6e7365203d2061776169742046756e6374696f6e736028820152712e6d616b654874747052657175657374287b60701b60488201526f08081d5c9b0e88195b585a5b1554930b60821b605a8201527008081b595d1a1bd90e8809d413d4d509cb607a1b606a8201527f2020686561646572733a207b2027436f6e74656e742d54797065273a20276170607b8201527f706c69636174696f6e2f6a736f6e272c2027417574686f72697a6174696f6e27609b8201526e0e88185d5d1a12195859195c881f4b608a1b60bb820152702020646174613a20656d61696c4461746160781b60ca820152627d293b60e81b60db8201527f69662028726573706f6e73652e6572726f7229207468726f77204572726f722860de8201527f604661696c656420746f2073656e6420656d61696c3a20247b4a534f4e2e737460fe8201527472696e6769667928726573706f6e7365297d60293b60581b61011e8201527f72657475726e2046756e6374696f6e732e656e636f6465537472696e672827456101338201526c6d61696c2073656e742127293b60981b61015382015290611197826101608101611776565b91909493929361206582611a04565b6040519481516020928184808a0192019161207f926105fb565b8601938285016d0103230bc943994903ab73a34b6160951b9052868951848b019681602e8201906120b0918a6105fb565b01602e8101751034b9903932b0b23c903a379030b1ba34bb30ba329760511b9052036024810188526044016120e59088610234565b6120ee90611a04565b906120f890611a04565b9261210290611b47565b936040519889968488016b62656e655f6e616d653a202760a01b90528051908186602c8b01920191612133926105fb565b870190602c820172272c20636f6e74726163745f6e616d653a202760681b9052519182603f8301612163926105fb565b0190603f82017f272c2020785f6461795f6265666f72655f6163746976653a2000000000000000905280518093605884019201916121a0926105fb565b01605881016d2c206c65676163795f69643a202760901b90526066016121c591611532565b75272c20636f6e74726163745f616464726573733a202760501b81526016016121ed91611532565b602760f81b815203601e19810184526001016122099084610234565b61221291611e3e565b9061221b611e8c565b9061222592611784565b610654906129ca565b919093929460405193602085017f52656d696e646572202d205365636f6e642d4c696e652041637469766174696f90526040850167037103337b91016960c51b9052825196856020850198806048830190612289918c6105fb565b8101604881016b20417070726f616368696e6760a01b9052036034810187526054016122b59087610234565b6122be90611a04565b906122c890611a04565b916122d290611b47565b92604051978895602087016b62656e655f6e616d653a202760a01b905280519081602c89019160200191612305926105fb565b86016109cb60f21b9283602c830152602e82017320202020636f6e74726163745f6e616d653a202760601b905251918260428301612342926105fb565b01906042820152604481016c20202020785f646179733a202760981b905260510161236c91611532565b7520646179287329272c206c65676163795f69643a202760501b815260160161239491611532565b75272c20636f6e74726163745f616464726573733a202760501b81526016016123bc91611532565b602760f81b815203601e19810184526001016123d89084610234565b61221291611e58565b90611197604560405180947f596f75204d617920536f6f6e20426520456c696769626c6520746f204163746960208301526403b30ba32960dd1b604083015261243381518092602086860191016105fb565b8101036025810185520183610234565b91909261244f826123e1565b9061245990611a04565b9260409283519485916020938484016b62656e655f6e616d653a202760a01b90528051908186602c870192019161248f926105fb565b8301602c810173272c2020636f6e74726163745f6e616d653a202760601b905281519182868984019201916124c3926105fb565b018581016b272c20785f646179733a202760a01b90528151918285604c84019201916124ee926105fb565b01604c810167206461792873292760c01b9052036034810185526054016125159085610234565b82519461252186610219565b6000865261252d6119e0565b9184519687958287017f636f6e737420656d61696c55524c203d202768747470733a2f2f6170692e6d619052860174696c6a65742e636f6d2f76332e312f73656e64273b60581b9052605586017f636f6e73742061757468486561646572203d2027426173696320000000000000905280518092606f88019201916125b1926105fb565b8401606f81016125c59061273b60f01b9052565b7f636f6e737420656d61696c44617461203d207b204d657373616765733a2000006071820152608f016125f790611c3f565b6e546f3a205b207b456d61696c3a202760881b8152600f0161261891611532565b6e09cb0813985b594e89c9cb1f4b174b608a1b81526b02a32b6b83630ba32a4a21d160a51b600f820152601b0161264e91611532565b780b0815195b5c1b185d1953185b99dd5859d94e881d1c9d594b603a1b8152695375626a6563743a202760b01b601982015260230161268c91611532565b6109cb60f21b81526b5661726961626c65733a207b60a01b60028201520360111981018352600e016126be9083610234565b61221b611e8c565b9194929093604051936020918286017f52656d696e646572202d2054686972642d4c696e652041637469766174696f6e905260408601640103337b9160dd1b905287519386848a019580604583019061271f91896105fb565b8101604581016b20417070726f616368696e6760a01b90520360318101885260510161274b9088610234565b61275490611a04565b9061275e90611a04565b9161276890611b47565b936040519889968588016b62656e655f6e616d653a202760a01b90528051908187602c8b01920191612799926105fb565b870190602c820173272c2020636f6e74726163745f6e616d653a202760601b9052519182604083016127ca926105fb565b01604081016c272c2020785f646179733a202760981b90528151918285604d84019201916127f7926105fb565b0190604d82017520646179287329272c206c65676163795f69643a202760501b9052805180936063840192019161282d926105fb565b01606381016128549075272c20636f6e74726163745f616464726573733a202760501b9052565b60790161286091611532565b602760f81b815203601e198101845260010161287c9084610234565b61221291611e72565b919092612891826123e1565b9061289b90611a04565b9260409283519485916020938484016b62656e655f6e616d653a202760a01b90528051908186602c87019201916128d1926105fb565b8301602c810173272c2020636f6e74726163745f6e616d653a202760601b90528151918286898401920191612905926105fb565b018581016c272c2020785f646179733a202760981b90528151918285604d8401920191612931926105fb565b01604d810167206461792873292760c01b9052036035810185526055016129589085610234565b82519461296486610219565b6000865261252d6119f8565b908160209103126101de575190565b906129ac6080936001600160401b0363ffffffff939897969816845260a0602085015260a084019061061e565b95600160408401521660608201520152565b6040513d6000823e3d90fd5b60405160e081018181106001600160401b0382111761021457604052612a1c60009283835283602084015283604084015260608084015260606080840152606060a0840152606060c084015282612de4565b8154602090612a4190612a35906001600160a01b031681565b6001600160a01b031690565b612a5c612a566002546001600160401b031690565b93612c16565b90612a6c60075463ffffffff1690565b918560015495612a926040519788968795869463230e93b160e11b86526004860161297f565b03925af1908115612ae157612aad9291612ab3575b50600355565b60035490565b612ad4915060203d8111612ada575b612acc8183610234565b810190612970565b38612aa7565b503d612ac2565b6129be565b60405190612af3826101f9565b600c82526b31b7b232a637b1b0ba34b7b760a11b6020830152565b634e487b7160e01b600052602160045260246000fd5b60031115612b2e57565b612b0e565b60405190612b40826101f9565b60088252676c616e677561676560c01b6020830152565b60011115612b2e57565b60405190612b6e826101f9565b6006825265736f7572636560d01b6020830152565b60405190612b90826101f9565b60048252636172677360e01b6020830152565b60405190612bb0826101f9565b600f82526e39b2b1b932ba39a637b1b0ba34b7b760891b6020830152565b60405190612bdb826101f9565b60078252667365637265747360c81b6020830152565b60405190612bfe826101f9565b600982526862797465734172677360b81b6020830152565b612c1e612e27565b90612c30612c2a612ae6565b8361353f565b612c4d8151612c3e81612b24565b612c4781612b24565b83612ec9565b612c58612c2a612b33565b612c726040820151612c6981612b57565b612c4781612b57565b612c7d612c2a612b61565b612c8b60608201518361353f565b60a08101805151612d8b575b506080810190815151612d0b575b60c0915001805151612cb8575b50515190565b91612cc4612c2a612bf1565b612ccd826135c3565b60005b83518051821015612cf85790610de2612cec82612cf394611519565b518561348a565b612cd0565b50509150612d058161364f565b38612cb2565b602081018051612d1a81612b24565b612d2381612b24565b15612d795760c092612d5c612d7492612d43612d3d612ba3565b8861353f565b51612d4d81612b24565b612d5681612b24565b86612ec9565b612d6d612d67612bce565b8661353f565b518461348a565b612ca5565b60405163a80d31f760e01b8152600490fd5b92612d9d612d97612b83565b8461353f565b612da6836135c3565b60005b84518051821015612dd15790610de2612dc582612dcc94611519565b518661353f565b612da9565b50509250612dde8261364f565b38612c97565b815115612dfb576000808252604082015260600152565b6040516322ce3edd60e01b8152600490fd5b60405190612e1a826101f9565b6000602083606081520152565b604051612e33816101f9565b612e3b612e0d565b8082526020820160008152612e4e612e0d565b5061010060208301526040518092526000825261012082019182106101de576000916040525290565b90612e80612e0d565b50601f811680612eaf575b50806020830152604051908183526000825281016020019081106101de5760405290565b602003602081116114fe5781018091116114fe5738612e8b565b90815191612ed5612e0d565b5082515160018101908181116114fe576020850151811015612f2e575b60c260206111979651928301015380518211612f26575b505060405191602083015260208252612f21826101f9565b61348a565b523880612f09565b8160011b94828604600214831517156114fe57602081612f6061119798612f5960c295519184612e77565b50826133d2565b5096505050612ef2565b612f72612e0d565b5080515160018101908181116114fe576020830151811015612fab575b605b60208451928301015380518211612fa757505090565b5290565b8160011b828104600214831517156114fe57612fd490612fcd85519186612e77565b50846133d2565b50612f8f565b612fe2612e0d565b5080515160018101908181116114fe576020830151811015613017575b605a60208451928301015380518211612fa757505090565b8160011b828104600214831517156114fe5761303990612fcd85519186612e77565b50612fff565b613047612e0d565b5080515160018101908181116114fe57602083015181101561307c575b605960208451928301015380518211612fa757505090565b8160011b828104600214831517156114fe5761309e90612fcd85519186612e77565b50613064565b6130ac612e0d565b5080515160018101908181116114fe5760208301518110156130e1575b605860208451928301015380518211612fa757505090565b8160011b828104600214831517156114fe5761310390612fcd85519186612e77565b506130c9565b613111612e0d565b5080515160018101908181116114fe576020830151811015613146575b607b60208451928301015380518211612fa757505090565b8160011b828104600214831517156114fe5761316890612fcd85519186612e77565b5061312e565b613176612e0d565b5080515160018101908181116114fe5760208301518110156131ab575b607a60208451928301015380518211612fa757505090565b8160011b828104600214831517156114fe576131cd90612fcd85519186612e77565b50613193565b6131db612e0d565b5080515160018101908181116114fe576020830151811015613210575b607960208451928301015380518211612fa757505090565b8160011b828104600214831517156114fe5761323290612fcd85519186612e77565b506131f8565b613240612e0d565b5080515160018101908181116114fe576020830151811015613275575b607860208451928301015380518211612fa757505090565b8160011b828104600214831517156114fe5761329790612fcd85519186612e77565b5061325d565b906132a6612e0d565b5081515160018101918282116114fe5760208401518210156132d9575b60208451928301015380518211612fa757505090565b8260011b838104600214841517156114fe57613302906132fb86519187612e77565b50856133d2565b506132c3565b9061331582519183612e77565b5061331e612e0d565b5080519061332a612e0d565b506133388151831115613483565b825151926133468385611bf7565b9160209282848094015182116133bb575b51838151978201019682116133b3575b505001915b8181101561338d5760001991036101000a0190811990511690825116179052565b91926133a86133a26133ae9286518152611be9565b94611be9565b926115d5565b61336c565b523880613367565b6133cd6133c78361166b565b82613308565b613357565b906133db612e0d565b5080516133e6612e0d565b506133f48251821115613483565b825151916134028284611bf7565b602091829182870151811161346c575b865183815197820101968211613464575b505001915b8181101561344a5760001991036101000a019081199051169082511617905290565b91926133a86133a261345f9286518152611be9565b613428565b523880613423565b61347e6134788261166b565b88613308565b613412565b156101de57565b81516134c19291906001600160401b03811690601782116134c4576134b99150604060ff84519216179061329d565b505b516133d2565b50565b5060ff81116134e9576134e3906134db83516130a4565b508251613818565b506134bb565b61ffff8111613508576134e390613500835161303f565b5082516137b1565b63ffffffff8111613529576134e3906135218351612fda565b508251613748565b6134e3906135378351612f6a565b5082516136dc565b81516134c19291906001600160401b038116906017821161356e576134b99150606060ff84519216179061329d565b5060ff8111613585576134e3906134db8351613238565b61ffff811161359c576134e39061350083516131d3565b63ffffffff81116135b5576134e390613521835161316e565b6134e3906135378351613109565b8051906135ce612e0d565b5081515160018101908181116114fe57602084015181101561361c575b609f6020809551928301015380518211613614575b505001805190600182018092116114fe5752565b523880613600565b8160011b93828504600214831517156114fe576020816136458297612f59609f95519184612e77565b50955050506135eb565b80519061365a612e0d565b5081515160018101908181116114fe5760208401518110156136a9575b60ff60208095519283010153805182116136a1575b50500180516000198101919082116114fe5752565b52388061368c565b8160011b93828504600214831517156114fe576020816136d28297612f5960ff95519184612e77565b5095505050613677565b906136e5612e0d565b508151518060080191826008116114fe5760208401518311613727575b6008845192830101906001600160401b031982511617905280518211612fa757505090565b8260011b838104600214841517156114fe576137439085613308565b613702565b90613751612e0d565b508151518060040191826004116114fe5760208401518311613790575b60048451928301019063ffffffff1982511617905280518211612fa757505090565b8260011b838104600214841517156114fe576137ac9085613308565b61376e565b906137ba612e0d565b508151518060020191826002116114fe57602084015183116137f7575b60028451928301019061ffff1982511617905280518211612fa757505090565b8260011b838104600214841517156114fe576138139085613308565b6137d7565b90613821612e0d565b508151518060010191826001116114fe576020840151831161385d575b60018451928301019060ff1982511617905280518211612fa757505090565b8260011b838104600214841517156114fe576138799085613308565b61383e565b6138c57fe945c25e663b7f927fca5b167e9d99e30aac67d2f2c39fac12b6618f57481e92916138ae6006546114ef565b60065560405191829160408352604083019061061e565b600160208301520390a1565b6139017fe945c25e663b7f927fca5b167e9d99e30aac67d2f2c39fac12b6618f57481e92916138ae6006546114ef565b600260208301520390a1565b61393d7fe945c25e663b7f927fca5b167e9d99e30aac67d2f2c39fac12b6618f57481e92916138ae6006546114ef565b600360208301520390a156fe036b6384b5eca791c62761152d0c79bb0604c104a5fb6f4eb0703f3154bb3db09016d09d72d40fdae2fd8ceac6b6234c7706214fd39c1cd1e609a0528c1993008a35acfbc15ff81a39ae7d344fd709f28e8600b4aa8c65c6b64bfe7fe36bd19bf0c57e16840df040f15088dc2f81fe391c3923bec73e23a9662efc9c229c6a00a2646970667358221220ea566a90d00790bb8a667b55341055b80b7aa8372a49820d8c7d922a26d6872c64736f6c63430008140033",
  "devdoc": {
    "errors": {
      "InvalidInitialization()": [
        {
          "details": "The contract is already initialized."
        }
      ],
      "NotInitializing()": [
        {
          "details": "The contract is not initializing."
        }
      ],
      "OwnableInvalidOwner(address)": [
        {
          "details": "The owner is not a valid owner account. (eg. `address(0)`)"
        }
      ],
      "OwnableUnauthorizedAccount(address)": [
        {
          "details": "The caller account is not authorized to perform an operation."
        }
      ],
      "StringsInsufficientHexLength(uint256,uint256)": [
        {
          "details": "The `value` string doesn't fit in the specified `length`."
        }
      ]
    },
    "events": {
      "Initialized(uint64)": {
        "details": "Triggered when the contract has been initialized or reinitialized."
      }
    },
    "kind": "dev",
    "methods": {
      "owner()": {
        "details": "Returns the address of the current owner."
      },
      "renounceOwnership()": {
        "details": "Leaves the contract without owner. It will not be possible to call `onlyOwner` functions. Can only be called by the current owner. NOTE: Renouncing ownership will leave the contract without an owner, thereby disabling any functionality that is only available to the owner."
      },
      "transferOwnership(address)": {
        "details": "Transfers ownership of the contract to a new account (`newOwner`). Can only be called by the current owner."
      }
    },
    "version": 1
  },
  "userdoc": {
    "kind": "user",
    "methods": {},
    "version": 1
  },
  "storageLayout": {
    "storage": [
      {
        "astId": 27385,
        "contract": "contracts/premium/PremiumMailBeforeActivation.sol:PremiumMailBeforeActivation",
        "label": "router",
        "offset": 0,
        "slot": "0",
        "type": "t_address"
      },
      {
        "astId": 27388,
        "contract": "contracts/premium/PremiumMailBeforeActivation.sol:PremiumMailBeforeActivation",
        "label": "donID",
        "offset": 0,
        "slot": "1",
        "type": "t_bytes32"
      },
      {
        "astId": 27390,
        "contract": "contracts/premium/PremiumMailBeforeActivation.sol:PremiumMailBeforeActivation",
        "label": "subscriptionId",
        "offset": 0,
        "slot": "2",
        "type": "t_uint64"
      },
      {
        "astId": 27392,
        "contract": "contracts/premium/PremiumMailBeforeActivation.sol:PremiumMailBeforeActivation",
        "label": "sendMailRouter",
        "offset": 8,
        "slot": "2",
        "type": "t_address"
      },
      {
        "astId": 27397,
        "contract": "contracts/premium/PremiumMailBeforeActivation.sol:PremiumMailBeforeActivation",
        "label": "s_lastRequestId",
        "offset": 0,
        "slot": "3",
        "type": "t_bytes32"
      },
      {
        "astId": 27399,
        "contract": "contracts/premium/PremiumMailBeforeActivation.sol:PremiumMailBeforeActivation",
        "label": "s_lastResponse",
        "offset": 0,
        "slot": "4",
        "type": "t_bytes_storage"
      },
      {
        "astId": 27401,
        "contract": "contracts/premium/PremiumMailBeforeActivation.sol:PremiumMailBeforeActivation",
        "label": "s_lastError",
        "offset": 0,
        "slot": "5",
        "type": "t_bytes_storage"
      },
      {
        "astId": 27403,
        "contract": "contracts/premium/PremiumMailBeforeActivation.sol:PremiumMailBeforeActivation",
        "label": "mailId",
        "offset": 0,
        "slot": "6",
        "type": "t_uint256"
      },
      {
        "astId": 27406,
        "contract": "contracts/premium/PremiumMailBeforeActivation.sol:PremiumMailBeforeActivation",
        "label": "gasLimit",
        "offset": 0,
        "slot": "7",
        "type": "t_uint32"
      }
    ],
    "types": {
      "t_address": {
        "encoding": "inplace",
        "label": "address",
        "numberOfBytes": "20"
      },
      "t_bytes32": {
        "encoding": "inplace",
        "label": "bytes32",
        "numberOfBytes": "32"
      },
      "t_bytes_storage": {
        "encoding": "bytes",
        "label": "bytes",
        "numberOfBytes": "32"
      },
      "t_uint256": {
        "encoding": "inplace",
        "label": "uint256",
        "numberOfBytes": "32"
      },
      "t_uint32": {
        "encoding": "inplace",
        "label": "uint32",
        "numberOfBytes": "4"
      },
      "t_uint64": {
        "encoding": "inplace",
        "label": "uint64",
        "numberOfBytes": "8"
      }
    }
  }
}