{
  "address": "0x1B544634873112843C0b68c2103F03FA4dfC7307",
  "abi": [
    {
      "inputs": [],
      "stateMutability": "nonpayable",
      "type": "constructor"
    },
    {
      "inputs": [],
      "name": "InvalidInitialization",
      "type": "error"
    },
    {
      "inputs": [],
      "name": "InvalidParamAddress",
      "type": "error"
    },
    {
      "inputs": [],
      "name": "LengthMismatch",
      "type": "error"
    },
    {
      "inputs": [],
      "name": "NotInitializing",
      "type": "error"
    },
    {
      "inputs": [
        {
          "internalType": "address",
          "name": "owner",
          "type": "address"
        }
      ],
      "name": "OwnableInvalidOwner",
      "type": "error"
    },
    {
      "inputs": [
        {
          "internalType": "address",
          "name": "account",
          "type": "address"
        }
      ],
      "name": "OwnableUnauthorizedAccount",
      "type": "error"
    },
    {
      "inputs": [],
      "name": "UserConfigNotSet",
      "type": "error"
    },
    {
      "anonymous": false,
      "inputs": [
        {
          "indexed": true,
          "internalType": "address",
          "name": "user",
          "type": "address"
        },
        {
          "indexed": false,
          "internalType": "uint256",
          "name": "legacyId",
          "type": "uint256"
        },
        {
          "indexed": false,
          "internalType": "address",
          "name": "legacyAddress",
          "type": "address"
        },
        {
          "indexed": false,
          "internalType": "uint128",
          "name": "legacyType",
          "type": "uint128"
        },
        {
          "components": [
            {
              "internalType": "address",
              "name": "addr",
              "type": "address"
            },
            {
              "internalType": "string",
              "name": "email",
              "type": "string"
            },
            {
              "internalType": "string",
              "name": "name",
              "type": "string"
            }
          ],
          "indexed": false,
          "internalType": "struct PremiumSetting.EmailMapping[]",
          "name": "beneficiaries",
          "type": "tuple[]"
        }
      ],
      "name": "BeneficiariesEmailSync",
      "type": "event"
    },
    {
      "anonymous": false,
      "inputs": [
        {
          "indexed": false,
          "internalType": "uint64",
          "name": "version",
          "type": "uint64"
        }
      ],
      "name": "Initialized",
      "type": "event"
    },
    {
      "anonymous": false,
      "inputs": [
        {
          "indexed": true,
          "internalType": "address",
          "name": "user",
          "type": "address"
        },
        {
          "indexed": false,
          "internalType": "uint256",
          "name": "legacyId",
          "type": "uint256"
        },
        {
          "indexed": false,
          "internalType": "address",
          "name": "legacyAddress",
          "type": "address"
        },
        {
          "indexed": false,
          "internalType": "uint128",
          "name": "legacyType",
          "type": "uint128"
        }
      ],
      "name": "LegacyConfigReset",
      "type": "event"
    },
    {
      "anonymous": false,
      "inputs": [
        {
          "indexed": false,
          "internalType": "uint256",
          "name": "legacyId",
          "type": "uint256"
        },
        {
          "indexed": false,
          "internalType": "address",
          "name": "legacyAddress",
          "type": "address"
        },
        {
          "indexed": false,
          "internalType": "uint128",
          "name": "legacyType",
          "type": "uint128"
        },
        {
          "indexed": false,
          "internalType": "uint256",
          "name": "code",
          "type": "uint256"
        }
      ],
      "name": "LegacyPrivateCodeSet",
      "type": "event"
    },
    {
      "anonymous": false,
      "inputs": [
        {
          "indexed": true,
          "internalType": "address",
          "name": "user",
          "type": "address"
        },
        {
          "indexed": false,
          "internalType": "uint256",
          "name": "legacyId",
          "type": "uint256"
        },
        {
          "indexed": false,
          "internalType": "address",
          "name": "legacyAddress",
          "type": "address"
        },
        {
          "indexed": false,
          "internalType": "uint128",
          "name": "legacyType",
          "type": "uint128"
        },
        {
          "components": [
            {
              "internalType": "address",
              "name": "addr",
              "type": "address"
            },
            {
              "internalType": "string",
              "name": "email",
              "type": "string"
            },
            {
              "internalType": "string",
              "name": "name",
              "type": "string"
            }
          ],
          "indexed": false,
          "internalType": "struct PremiumSetting.EmailMapping[]",
          "name": "cosigners",
          "type": "tuple[]"
        },
        {
          "components": [
            {
              "internalType": "address",
              "name": "addr",
              "type": "address"
            },
            {
              "internalType": "string",
              "name": "email",
              "type": "string"
            },
            {
              "internalType": "string",
              "name": "name",
              "type": "string"
            }
          ],
          "indexed": false,
          "internalType": "struct PremiumSetting.EmailMapping[]",
          "name": "beneficiaries",
          "type": "tuple[]"
        },
        {
          "components": [
            {
              "internalType": "address",
              "name": "addr",
              "type": "address"
            },
            {
              "internalType": "string",
              "name": "email",
              "type": "string"
            },
            {
              "internalType": "string",
              "name": "name",
              "type": "string"
            }
          ],
          "indexed": false,
          "internalType": "struct PremiumSetting.EmailMapping",
          "name": "secondLine",
          "type": "tuple"
        },
        {
          "components": [
            {
              "internalType": "address",
              "name": "addr",
              "type": "address"
            },
            {
              "internalType": "string",
              "name": "email",
              "type": "string"
            },
            {
              "internalType": "string",
              "name": "name",
              "type": "string"
            }
          ],
          "indexed": false,
          "internalType": "struct PremiumSetting.EmailMapping",
          "name": "thirdLine",
          "type": "tuple"
        }
      ],
      "name": "LegacyReminderUpdated",
      "type": "event"
    },
    {
      "anonymous": false,
      "inputs": [
        {
          "indexed": true,
          "internalType": "address",
          "name": "previousOwner",
          "type": "address"
        },
        {
          "indexed": true,
          "internalType": "address",
          "name": "newOwner",
          "type": "address"
        }
      ],
      "name": "OwnershipTransferred",
      "type": "event"
    },
    {
      "anonymous": false,
      "inputs": [
        {
          "indexed": true,
          "internalType": "address",
          "name": "user",
          "type": "address"
        }
      ],
      "name": "PremiumReset",
      "type": "event"
    },
    {
      "anonymous": false,
      "inputs": [
        {
          "indexed": true,
          "internalType": "address",
          "name": "user",
          "type": "address"
        },
        {
          "indexed": false,
          "internalType": "uint256",
          "name": "newExpiredTime",
          "type": "uint256"
        }
      ],
      "name": "PremiumTimeUpdated",
      "type": "event"
    },
    {
      "anonymous": false,
      "inputs": [
        {
          "indexed": true,
          "internalType": "address",
          "name": "user",
          "type": "address"
        },
        {
          "indexed": false,
          "internalType": "uint256",
          "name": "legacyId",
          "type": "uint256"
        },
        {
          "indexed": false,
          "internalType": "address",
          "name": "legacyAddress",
          "type": "address"
        },
        {
          "indexed": false,
          "internalType": "uint128",
          "name": "legacyType",
          "type": "uint128"
        }
      ],
      "name": "SecondLineEmailReset",
      "type": "event"
    },
    {
      "anonymous": false,
      "inputs": [
        {
          "indexed": true,
          "internalType": "address",
          "name": "user",
          "type": "address"
        },
        {
          "indexed": false,
          "internalType": "uint256",
          "name": "legacyId",
          "type": "uint256"
        },
        {
          "indexed": false,
          "internalType": "address",
          "name": "legacyAddress",
          "type": "address"
        },
        {
          "indexed": false,
          "internalType": "uint128",
          "name": "legacyType",
          "type": "uint128"
        }
      ],
      "name": "ThirdLineEmailReset",
      "type": "event"
    },
    {
      "anonymous": false,
      "inputs": [
        {
          "indexed": true,
          "internalType": "address",
          "name": "user",
          "type": "address"
        },
        {
          "indexed": false,
          "internalType": "string",
          "name": "name",
          "type": "string"
        },
        {
          "indexed": false,
          "internalType": "string",
          "name": "email",
          "type": "string"
        },
        {
          "indexed": false,
          "internalType": "uint256",
          "name": "timePriorActivation",
          "type": "uint256"
        }
      ],
      "name": "UserConfigUpdated",
      "type": "event"
    },
    {
      "anonymous": false,
      "inputs": [
        {
          "indexed": true,
          "internalType": "address",
          "name": "user",
          "type": "address"
        },
        {
          "indexed": false,
          "internalType": "uint256",
          "name": "legacyId",
          "type": "uint256"
        },
        {
          "indexed": false,
          "internalType": "address",
          "name": "legacyAddress",
          "type": "address"
        },
        {
          "indexed": false,
          "internalType": "uint256",
          "name": "legacyType",
          "type": "uint256"
        }
      ],
      "name": "WatcherReset",
      "type": "event"
    },
    {
      "anonymous": false,
      "inputs": [
        {
          "indexed": true,
          "internalType": "address",
          "name": "user",
          "type": "address"
        },
        {
          "indexed": false,
          "internalType": "uint256",
          "name": "legacyId",
          "type": "uint256"
        },
        {
          "indexed": false,
          "internalType": "address",
          "name": "legacyAddress",
          "type": "address"
        },
        {
          "indexed": false,
          "internalType": "uint256",
          "name": "legacyType",
          "type": "uint256"
        },
        {
          "indexed": false,
          "internalType": "string[]",
          "name": "name",
          "type": "string[]"
        },
        {
          "indexed": false,
          "internalType": "address[]",
          "name": "watchers",
          "type": "address[]"
        },
        {
          "indexed": false,
          "internalType": "bool[]",
          "name": "isFullVisibility",
          "type": "bool[]"
        }
      ],
      "name": "WatcherUpdated",
      "type": "event"
    },
    {
      "inputs": [
        {
          "internalType": "address[]",
          "name": "legacyAddresses",
          "type": "address[]"
        }
      ],
      "name": "clearLegacyConfig",
      "outputs": [],
      "stateMutability": "nonpayable",
      "type": "function"
    },
    {
      "inputs": [
        {
          "internalType": "address[]",
          "name": "legacyAddresses",
          "type": "address[]"
        }
      ],
      "name": "clearWatcher",
      "outputs": [],
      "stateMutability": "nonpayable",
      "type": "function"
    },
    {
      "inputs": [
        {
          "internalType": "address[]",
          "name": "legacyAddresses",
          "type": "address[]"
        }
      ],
      "name": "getBatchLegacyTriggerTimestamp",
      "outputs": [
        {
          "internalType": "uint256[][]",
          "name": "",
          "type": "uint256[][]"
        }
      ],
      "stateMutability": "view",
      "type": "function"
    },
    {
      "inputs": [
        {
          "internalType": "address",
          "name": "legacyAddress",
          "type": "address"
        }
      ],
      "name": "getBeneficiaryData",
      "outputs": [
        {
          "internalType": "address[]",
          "name": "",
          "type": "address[]"
        },
        {
          "internalType": "string[]",
          "name": "",
          "type": "string[]"
        },
        {
          "internalType": "string[]",
          "name": "",
          "type": "string[]"
        }
      ],
      "stateMutability": "view",
      "type": "function"
    },
    {
      "inputs": [
        {
          "internalType": "address",
          "name": "legacyAddress",
          "type": "address"
        }
      ],
      "name": "getCosignerData",
      "outputs": [
        {
          "internalType": "address[]",
          "name": "",
          "type": "address[]"
        },
        {
          "internalType": "string[]",
          "name": "",
          "type": "string[]"
        },
        {
          "internalType": "string[]",
          "name": "",
          "type": "string[]"
        }
      ],
      "stateMutability": "view",
      "type": "function"
    },
    {
      "inputs": [
        {
          "internalType": "address",
          "name": "legacyAddress",
          "type": "address"
        }
      ],
      "name": "getLegacyCode",
      "outputs": [
        {
          "internalType": "uint256",
          "name": "",
          "type": "uint256"
        }
      ],
      "stateMutability": "view",
      "type": "function"
    },
    {
      "inputs": [
        {
          "internalType": "address",
          "name": "legacyAddress",
          "type": "address"
        }
      ],
      "name": "getSecondLineData",
      "outputs": [
        {
          "internalType": "address",
          "name": "",
          "type": "address"
        },
        {
          "internalType": "string",
          "name": "",
          "type": "string"
        },
        {
          "internalType": "string",
          "name": "",
          "type": "string"
        }
      ],
      "stateMutability": "view",
      "type": "function"
    },
    {
      "inputs": [
        {
          "internalType": "address",
          "name": "legacyAddress",
          "type": "address"
        }
      ],
      "name": "getThirdLineData",
      "outputs": [
        {
          "internalType": "address",
          "name": "",
          "type": "address"
        },
        {
          "internalType": "string",
          "name": "",
          "type": "string"
        },
        {
          "internalType": "string",
          "name": "",
          "type": "string"
        }
      ],
      "stateMutability": "view",
      "type": "function"
    },
    {
      "inputs": [
        {
          "internalType": "address",
          "name": "user",
          "type": "address"
        }
      ],
      "name": "getTimeAhead",
      "outputs": [
        {
          "internalType": "uint256",
          "name": "",
          "type": "uint256"
        }
      ],
      "stateMutability": "view",
      "type": "function"
    },
    {
      "inputs": [
        {
          "internalType": "address",
          "name": "user",
          "type": "address"
        }
      ],
      "name": "getUserData",
      "outputs": [
        {
          "internalType": "string",
          "name": "",
          "type": "string"
        },
        {
          "internalType": "string",
          "name": "",
          "type": "string"
        },
        {
          "internalType": "uint256",
          "name": "",
          "type": "uint256"
        }
      ],
      "stateMutability": "view",
      "type": "function"
    },
    {
      "inputs": [],
      "name": "initialize",
      "outputs": [],
      "stateMutability": "nonpayable",
      "type": "function"
    },
    {
      "inputs": [
        {
          "internalType": "address",
          "name": "user",
          "type": "address"
        }
      ],
      "name": "isPremium",
      "outputs": [
        {
          "internalType": "bool",
          "name": "",
          "type": "bool"
        }
      ],
      "stateMutability": "view",
      "type": "function"
    },
    {
      "inputs": [
        {
          "internalType": "address",
          "name": "legacyAddress",
          "type": "address"
        }
      ],
      "name": "isSafeLegacy",
      "outputs": [
        {
          "internalType": "bool",
          "name": "",
          "type": "bool"
        }
      ],
      "stateMutability": "view",
      "type": "function"
    },
    {
      "inputs": [
        {
          "internalType": "address",
          "name": "",
          "type": "address"
        }
      ],
      "name": "legacyCfgs",
      "outputs": [
        {
          "components": [
            {
              "internalType": "address",
              "name": "addr",
              "type": "address"
            },
            {
              "internalType": "string",
              "name": "email",
              "type": "string"
            },
            {
              "internalType": "string",
              "name": "name",
              "type": "string"
            }
          ],
          "internalType": "struct PremiumSetting.EmailMapping",
          "name": "secondLine",
          "type": "tuple"
        },
        {
          "components": [
            {
              "internalType": "address",
              "name": "addr",
              "type": "address"
            },
            {
              "internalType": "string",
              "name": "email",
              "type": "string"
            },
            {
              "internalType": "string",
              "name": "name",
              "type": "string"
            }
          ],
          "internalType": "struct PremiumSetting.EmailMapping",
          "name": "thirdLine",
          "type": "tuple"
        }
      ],
      "stateMutability": "view",
      "type": "function"
    },
    {
      "inputs": [],
      "name": "multisigLegacyContractRouter",
      "outputs": [
        {
          "internalType": "address",
          "name": "",
          "type": "address"
        }
      ],
      "stateMutability": "view",
      "type": "function"
    },
    {
      "inputs": [],
      "name": "owner",
      "outputs": [
        {
          "internalType": "address",
          "name": "",
          "type": "address"
        }
      ],
      "stateMutability": "view",
      "type": "function"
    },
    {
      "inputs": [],
      "name": "premiumAutomationManager",
      "outputs": [
        {
          "internalType": "contract IPremiumAutomationManager",
          "name": "",
          "type": "address"
        }
      ],
      "stateMutability": "view",
      "type": "function"
    },
    {
      "inputs": [
        {
          "internalType": "address",
          "name": "",
          "type": "address"
        }
      ],
      "name": "premiumExpired",
      "outputs": [
        {
          "internalType": "uint256",
          "name": "",
          "type": "uint256"
        }
      ],
      "stateMutability": "view",
      "type": "function"
    },
    {
      "inputs": [],
      "name": "premiumRegistry",
      "outputs": [
        {
          "internalType": "address",
          "name": "",
          "type": "address"
        }
      ],
      "stateMutability": "view",
      "type": "function"
    },
    {
      "inputs": [],
      "name": "premiumSendMail",
      "outputs": [
        {
          "internalType": "contract IPremiumSendMail",
          "name": "",
          "type": "address"
        }
      ],
      "stateMutability": "view",
      "type": "function"
    },
    {
      "inputs": [],
      "name": "renounceOwnership",
      "outputs": [],
      "stateMutability": "nonpayable",
      "type": "function"
    },
    {
      "inputs": [
        {
          "internalType": "address",
          "name": "user",
          "type": "address"
        },
        {
          "internalType": "address",
          "name": "legacyAddress",
          "type": "address"
        },
        {
          "internalType": "uint8",
          "name": "layer",
          "type": "uint8"
        }
      ],
      "name": "resetLayerEmail",
      "outputs": [],
      "stateMutability": "nonpayable",
      "type": "function"
    },
    {
      "inputs": [
        {
          "internalType": "address",
          "name": "user",
          "type": "address"
        }
      ],
      "name": "resetPremium",
      "outputs": [],
      "stateMutability": "nonpayable",
      "type": "function"
    },
    {
      "inputs": [
        {
          "internalType": "address",
          "name": "_premiumRegistry",
          "type": "address"
        },
        {
          "internalType": "address",
          "name": "_transferLegacyContractRouter",
          "type": "address"
        },
        {
          "internalType": "address",
          "name": "_transferLegacyEOAContractRouter",
          "type": "address"
        },
        {
          "internalType": "address",
          "name": "_multisigLegacyContractRouter",
          "type": "address"
        }
      ],
      "name": "setParams",
      "outputs": [],
      "stateMutability": "nonpayable",
      "type": "function"
    },
    {
      "inputs": [
        {
          "internalType": "address",
          "name": "user",
          "type": "address"
        },
        {
          "internalType": "address",
          "name": "legacyAddress",
          "type": "address"
        }
      ],
      "name": "setPrivateCodeAndCronjob",
      "outputs": [],
      "stateMutability": "nonpayable",
      "type": "function"
    },
    {
      "inputs": [
        {
          "internalType": "string",
          "name": "name",
          "type": "string"
        },
        {
          "internalType": "string",
          "name": "ownerEmail",
          "type": "string"
        },
        {
          "internalType": "uint256",
          "name": "timePriorActivation",
          "type": "uint256"
        },
        {
          "internalType": "address[]",
          "name": "legacyAddresses",
          "type": "address[]"
        },
        {
          "components": [
            {
              "components": [
                {
                  "internalType": "address",
                  "name": "addr",
                  "type": "address"
                },
                {
                  "internalType": "string",
                  "name": "email",
                  "type": "string"
                },
                {
                  "internalType": "string",
                  "name": "name",
                  "type": "string"
                }
              ],
              "internalType": "struct PremiumSetting.EmailMapping[]",
              "name": "cosigners",
              "type": "tuple[]"
            },
            {
              "components": [
                {
                  "internalType": "address",
                  "name": "addr",
                  "type": "address"
                },
                {
                  "internalType": "string",
                  "name": "email",
                  "type": "string"
                },
                {
                  "internalType": "string",
                  "name": "name",
                  "type": "string"
                }
              ],
              "internalType": "struct PremiumSetting.EmailMapping[]",
              "name": "beneficiaries",
              "type": "tuple[]"
            },
            {
              "components": [
                {
                  "internalType": "address",
                  "name": "addr",
                  "type": "address"
                },
                {
                  "internalType": "string",
                  "name": "email",
                  "type": "string"
                },
                {
                  "internalType": "string",
                  "name": "name",
                  "type": "string"
                }
              ],
              "internalType": "struct PremiumSetting.EmailMapping",
              "name": "secondLine",
              "type": "tuple"
            },
            {
              "components": [
                {
                  "internalType": "address",
                  "name": "addr",
                  "type": "address"
                },
                {
                  "internalType": "string",
                  "name": "email",
                  "type": "string"
                },
                {
                  "internalType": "string",
                  "name": "name",
                  "type": "string"
                }
              ],
              "internalType": "struct PremiumSetting.EmailMapping",
              "name": "thirdLine",
              "type": "tuple"
            }
          ],
          "internalType": "struct PremiumSetting.LegacyConfig[]",
          "name": "legacyData",
          "type": "tuple[]"
        }
      ],
      "name": "setReminderConfigs",
      "outputs": [],
      "stateMutability": "nonpayable",
      "type": "function"
    },
    {
      "inputs": [
        {
          "internalType": "address",
          "name": "_premiumAutomationManager",
          "type": "address"
        },
        {
          "internalType": "address",
          "name": "_premiumSendMail",
          "type": "address"
        }
      ],
      "name": "setUpReminder",
      "outputs": [],
      "stateMutability": "nonpayable",
      "type": "function"
    },
    {
      "inputs": [
        {
          "internalType": "address",
          "name": "legacyAddress",
          "type": "address"
        },
        {
          "internalType": "string[]",
          "name": "names",
          "type": "string[]"
        },
        {
          "internalType": "address[]",
          "name": "watchers",
          "type": "address[]"
        },
        {
          "internalType": "bool[]",
          "name": "isFullVisibility",
          "type": "bool[]"
        }
      ],
      "name": "setWatchers",
      "outputs": [],
      "stateMutability": "nonpayable",
      "type": "function"
    },
    {
      "inputs": [
        {
          "internalType": "address",
          "name": "user",
          "type": "address"
        },
        {
          "internalType": "address",
          "name": "legacyAddress",
          "type": "address"
        },
        {
          "components": [
            {
              "internalType": "address",
              "name": "user",
              "type": "address"
            },
            {
              "internalType": "uint256",
              "name": "percent",
              "type": "uint256"
            }
          ],
          "internalType": "struct TransferLegacyStruct.Distribution[]",
          "name": "newDistributions_",
          "type": "tuple[]"
        }
      ],
      "name": "syncBeneficiariesEmails",
      "outputs": [],
      "stateMutability": "nonpayable",
      "type": "function"
    },
    {
      "inputs": [],
      "name": "transferLegacyContractRouter",
      "outputs": [
        {
          "internalType": "address",
          "name": "",
          "type": "address"
        }
      ],
      "stateMutability": "view",
      "type": "function"
    },
    {
      "inputs": [],
      "name": "transferLegacyEOAContractRouter",
      "outputs": [
        {
          "internalType": "address",
          "name": "",
          "type": "address"
        }
      ],
      "stateMutability": "view",
      "type": "function"
    },
    {
      "inputs": [
        {
          "internalType": "address",
          "name": "newOwner",
          "type": "address"
        }
      ],
      "name": "transferOwnership",
      "outputs": [],
      "stateMutability": "nonpayable",
      "type": "function"
    },
    {
      "inputs": [
        {
          "internalType": "address",
          "name": "legacyAddress",
          "type": "address"
        }
      ],
      "name": "triggerActivationMultisig",
      "outputs": [],
      "stateMutability": "nonpayable",
      "type": "function"
    },
    {
      "inputs": [
        {
          "components": [
            {
              "internalType": "address",
              "name": "listToken",
              "type": "address"
            },
            {
              "internalType": "uint256",
              "name": "listAmount",
              "type": "uint256"
            },
            {
              "internalType": "string",
              "name": "listAssetName",
              "type": "string"
            }
          ],
          "internalType": "struct NotifyLib.ListAsset[]",
          "name": "listAsset",
          "type": "tuple[]"
        },
        {
          "components": [
            {
              "internalType": "string",
              "name": "name",
              "type": "string"
            },
            {
              "internalType": "address",
              "name": "beneAddress",
              "type": "address"
            },
            {
              "internalType": "string[]",
              "name": "listAssetName",
              "type": "string[]"
            },
            {
              "internalType": "uint256[]",
              "name": "listAmount",
              "type": "uint256[]"
            }
          ],
          "internalType": "struct NotifyLib.BeneReceived[]",
          "name": "_listBeneReceived",
          "type": "tuple[]"
        },
        {
          "internalType": "bool",
          "name": "remaining",
          "type": "bool"
        }
      ],
      "name": "triggerActivationTransferLegacy",
      "outputs": [],
      "stateMutability": "nonpayable",
      "type": "function"
    },
    {
      "inputs": [
        {
          "internalType": "address",
          "name": "legacyAddress",
          "type": "address"
        }
      ],
      "name": "triggerOwnerResetReminder",
      "outputs": [],
      "stateMutability": "nonpayable",
      "type": "function"
    },
    {
      "inputs": [
        {
          "internalType": "address[]",
          "name": "legacyAddresses",
          "type": "address[]"
        },
        {
          "components": [
            {
              "components": [
                {
                  "internalType": "address",
                  "name": "addr",
                  "type": "address"
                },
                {
                  "internalType": "string",
                  "name": "email",
                  "type": "string"
                },
                {
                  "internalType": "string",
                  "name": "name",
                  "type": "string"
                }
              ],
              "internalType": "struct PremiumSetting.EmailMapping[]",
              "name": "cosigners",
              "type": "tuple[]"
            },
            {
              "components": [
                {
                  "internalType": "address",
                  "name": "addr",
                  "type": "address"
                },
                {
                  "internalType": "string",
                  "name": "email",
                  "type": "string"
                },
                {
                  "internalType": "string",
                  "name": "name",
                  "type": "string"
                }
              ],
              "internalType": "struct PremiumSetting.EmailMapping[]",
              "name": "beneficiaries",
              "type": "tuple[]"
            },
            {
              "components": [
                {
                  "internalType": "address",
                  "name": "addr",
                  "type": "address"
                },
                {
                  "internalType": "string",
                  "name": "email",
                  "type": "string"
                },
                {
                  "internalType": "string",
                  "name": "name",
                  "type": "string"
                }
              ],
              "internalType": "struct PremiumSetting.EmailMapping",
              "name": "secondLine",
              "type": "tuple"
            },
            {
              "components": [
                {
                  "internalType": "address",
                  "name": "addr",
                  "type": "address"
                },
                {
                  "internalType": "string",
                  "name": "email",
                  "type": "string"
                },
                {
                  "internalType": "string",
                  "name": "name",
                  "type": "string"
                }
              ],
              "internalType": "struct PremiumSetting.EmailMapping",
              "name": "thirdLine",
              "type": "tuple"
            }
          ],
          "internalType": "struct PremiumSetting.LegacyConfig[]",
          "name": "legacyData",
          "type": "tuple[]"
        }
      ],
      "name": "updateLegacyConfig",
      "outputs": [],
      "stateMutability": "nonpayable",
      "type": "function"
    },
    {
      "inputs": [
        {
          "internalType": "address",
          "name": "user",
          "type": "address"
        },
        {
          "internalType": "uint256",
          "name": "duration",
          "type": "uint256"
        }
      ],
      "name": "updatePremiumTime",
      "outputs": [],
      "stateMutability": "nonpayable",
      "type": "function"
    },
    {
      "inputs": [
        {
          "internalType": "string",
          "name": "name",
          "type": "string"
        },
        {
          "internalType": "string",
          "name": "ownerEmail",
          "type": "string"
        },
        {
          "internalType": "uint256",
          "name": "timePriorActivation",
          "type": "uint256"
        }
      ],
      "name": "updateUserConfig",
      "outputs": [],
      "stateMutability": "nonpayable",
      "type": "function"
    },
    {
      "inputs": [
        {
          "internalType": "address",
          "name": "",
          "type": "address"
        }
      ],
      "name": "userConfigs",
      "outputs": [
        {
          "internalType": "string",
          "name": "ownerName",
          "type": "string"
        },
        {
          "internalType": "string",
          "name": "ownerEmail",
          "type": "string"
        },
        {
          "internalType": "uint256",
          "name": "timePriorActivation",
          "type": "uint256"
        }
      ],
      "stateMutability": "view",
      "type": "function"
    }
  ],
  "transactionHash": "0x4bbe703c3e40af3a9414a8c66c98e426840d4c66f06297770b0599f6bed9e292",
  "numDeployments": 2,
  "deployedBytecode": "0x6080604052600436101561001257600080fd5b6000803560e01c80630420c78e1461377a578063054461a81461357a5780631264be421461353a57806318641e92146133295780631ef48e0614613300578063206055de146132db5780632346df74146132b2578063261460891461324d578063265a4a6d1461301c5780632a01540b14612f8e5780632e1edd9514612ea15780633396e8b314612b3e57806333e9910614612aef57806336840f6d14612a7a5780633dd5f1a4146129cb57806340fc1ac41461295c57806344489d34146124e357806345e9f838146124ba578063715018a61461244f578063742fe0d4146124095780637c07b3b11461207e5780637db92e4214611eb75780638129fc1c14611d8d578063816fa70e14611d6457806382b5266f14611d275780638da5cb5b14611cf1578063909d243914611c66578063a49aae1214611bba578063aa7dda04146117b6578063b6a2e8c514611782578063b8ed49441461174e578063c2200e3c146116d9578063cfb8d396146116b0578063e166be5614611678578063f2fde38b1461164b578063f6aea83e14610d90578063f961153314610d67578063fa6cb4f8146102045763ffc9896b146101ca57600080fd5b34610201576020366003190112610201576101fd6101ee6101e96139be565b615d2f565b60409391935193849384613e32565b0390f35b80fd5b5034610201576040366003190112610201576001600160401b03600435818111610d6357610236903690600401613ab8565b9091602435908111610d5f57610250903690600401613ab8565b336000908152602081905260409020549093919061026f904210613f4e565b61027a848414613f89565b84905b838210610288578580f35b61029f61029a83868699979899614038565b61405e565b936102ab838884614072565b9433825260016020526102c16040832054613c66565b15610d4d573382526001602052600260408320015415610d4d5733825260016020526102f36001604084200154613c66565b15610d4d57604051633fdbdeff60e11b8152966060886004816001600160a01b0386165afa988915610d42578398849a610d0a575b5060405163b5ddc99f60e01b8152946020866004816001600160a01b0388165afa958615610cff578596610cbf575b506040516302d05d3f60e01b81526020816004816001600160a01b0389165afa8015610904578690610c80575b61039991506001600160a01b031633146140a8565b6103a2846159f6565b6001600160a01b03841685526002602052604085209a6103c28a8061561e565b9050610a42575b506001600160801b03861660010361090f5760405163244edc8b60e21b81529785896004816001600160a01b0389165afa9889156109045786996108e0575b50855b61041860208c018c61561e565b90508110156104d25761043b61029a8261043560208f018f61561e565b9061568d565b6001600160a01b0361044d838d614341565b51166001600160a01b039091160361048d57806104838e600161047c8f9561043587602061048899019061561e565b910161589c565b614013565b61040b565b60405162461bcd60e51b815260206004820152601f60248201527f62656e6566696369617279206e6f74206d6174636820696e206c6567616379006044820152606490fd5b509750979492909899919593995b6001600160a01b036104f861029a6040890189615678565b166107e55761051761050d6040880188615678565b60208101906156a4565b905061078b575b60608601926001600160a01b0361053861029a868a615678565b1661066a575061054b61050d8488615678565b9050610611576106026105f361060a976105e5600080516020615f05833981519152965b6105aa6105d761057f858061561e565b6001600160801b03610594602089018961561e565b9590966105a460408b018b615678565b99615678565b9d6040519c8d9c8d5260018060a01b031660208d01521660408b015260e060608b015260e08a019161591e565b91878303608089015261591e565b9084820360a08601526158c9565b82810360c084015233956158c9565b0390a2614013565b909261027d565b60405162461bcd60e51b815260206004820152602b60248201527f74686972646c696e6520696e76616c69642070616972206f662061646472657360448201526a1cc8185b9908195b585a5b60aa1b6064820152608490fd5b61067e61029a858995979899969496615678565b604051639247a1b360e01b8152600360048201526001600160a01b0391821660248201526044918e919060209082908590829086908d165af191821561077f5791610748575b501561070857506105f3836105e5846107036106029560056106fc600080516020615f058339815191529b9961060a9f9e9d9b615678565b91016156d6565b61056f565b60649078696e76616c69642074686972646c696e65206164647265737360381b6040519162461bcd60e51b83526020600484015260196024840152820152fd5b90506020813d602011610777575b8161076360209383613986565b810103126107725751386106c4565b600080fd5b3d9150610756565b604051903d90823e3d90fd5b60405162461bcd60e51b815260206004820152602c60248201527f7365636f6e646c696e6520696e76616c69642070616972206f6620616464726560448201526b1cdcc8185b9908195b585a5b60a21b6064820152608490fd5b8a6107f661029a6040890189615678565b604051639247a1b360e01b8152600260048201526001600160a01b039182166024820152604492909160209183918591839189165af19081156108d5578d916108a3575b501561085f575061085a6108516040880188615678565b600285016156d6565b61051e565b6064907f696e76616c6964207365636f6e646c696e6520616464726573730000000000006040519162461bcd60e51b835260206004840152601a6024840152820152fd5b90506020813d6020116108cd575b816108be60209383613986565b8101031261077257513861083a565b3d91506108b1565b6040513d8f823e3d90fd5b6108fd9199503d8088833e6108f58183613986565b810190615653565b9738610408565b6040513d88823e3d90fd5b90919295949396875b61092560208b018b61561e565b9050811015610a31578861094361029a8361043560208f018f61561e565b604051639247a1b360e01b8152600160048201526001600160a01b03918216602482015260449290916020918391859183918f165af1908115610a26578b916109f4575b50156109b05750806104838d600161047c6109ab958f80602061043592019061561e565b610918565b6064907f696e76616c69642062656e6566696369617279206164647265737300000000006040519162461bcd60e51b835260206004840152601b6024840152820152fd5b90506020813d602011610a1e575b81610a0f60209383613986565b81010312610772575138610987565b3d9150610a02565b6040513d8d823e3d90fd5b5096999198979493929590976104e0565b979160036001600160801b03889c98999697999593951614610c2657610a688a8061561e565b60405163a0e67e2b60e01b815290915089816004816001600160a01b038f165afa908115610baa578a91610c0c575b505103610bc757875b610aaa8b8061561e565b9050811015610bb557896020610ac861029a848f806104359161561e565b6040516317aa5fb760e11b81526001600160a01b0391821660048201529283916024918391165afa908115610baa578a91610b6b575b5015610b2657806104838e610b1b610b21948f806104359161561e565b9061589c565b610aa0565b60405162461bcd60e51b815260206004820152601860248201527f696e76616c696420636f7369676e6572206164647265737300000000000000006044820152606490fd5b90506020813d602011610ba2575b81610b8660209383613986565b81010312610b9e57518015158103610b9e5738610afe565b8980fd5b3d9150610b79565b6040513d8c823e3d90fd5b509197509198949895939295386103c9565b60405162461bcd60e51b815260206004820152601860248201527f436f7367696e6572206c656e677468206d69736d6174636800000000000000006044820152606490fd5b610c2091503d808c833e6108f58183613986565b38610a97565b60405162461bcd60e51b815260206004820152602c60248201527f4f6e6c792053616665206c656761637920616c6c6f77656420746f20636f6e6660448201526b696720636f7369676e65727360a01b6064820152608490fd5b506020813d602011610cb7575b81610c9a60209383613986565b81010312610cb357610cae61039991614094565b610384565b8580fd5b3d9150610c8d565b9095506020813d602011610cf7575b81610cdb60209383613986565b81010312610cf357610cec906140ea565b9438610357565b8480fd5b3d9150610cce565b6040513d87823e3d90fd5b909950610d3091985060603d606011610d3b575b610d288183613986565b810190615315565b509790979838610328565b503d610d1e565b6040513d85823e3d90fd5b604051632d02584560e11b8152600490fd5b8380fd5b8280fd5b5034610201578060031936011261020157600a546040516001600160a01b039091168152602090f35b50346102015760a0366003190112610201576001600160401b039060043582811161164757610dc3903690600401613c39565b602435848111610d5f57610ddb903690600401613c39565b6044359060643587811161164357610df7903690600401613ab8565b93909760843590811161163f5790610e18610e549493923690600401613ab8565b336000908152602081905260409020549198909791610e38904210613f4e565b610e43888814613f89565b610e4e851515613fc7565b3361538d565b835b818110610e61578480f35b610e6f61029a828489614038565b93610e7b828583614072565b943387526001602052610e916040882054613c66565b15610d4d573387526001602052600260408820015415610d4d573387526001602052610ec36001604089200154613c66565b15610d4d57604051633fdbdeff60e11b8152936060856004816001600160a01b0386165afa988915611634578895899a61160c575b5060405163b5ddc99f60e01b8152936020856004816001600160a01b0388165afa948515610baa578a956115d0575b506040516302d05d3f60e01b81526020816004816001600160a01b0389165afa8015610a26578b90611591575b610f6991506001600160a01b031633146140a8565b610f72846159f6565b6001600160a01b0384168a52600260205260408a209a610f928a8061561e565b905061144c575b506001600160801b0385166001036113285760405163244edc8b60e21b8152978a896004816001600160a01b0389165afa988915610a26578b9961130c575b508a5b610fe860208c018c61561e565b905081101561104b5761100561029a8261043560208f018f61561e565b6001600160a01b03611017838d614341565b51166001600160a01b039091160361048d57806104838e600161047c8f9561043587602061104699019061561e565b610fdb565b50975097919594939290995b6001600160a01b0361106f61029a6040860186615678565b166112205761108461050d6040850185615678565b905061078b575b6001600160a01b036110a361029a6060860186615678565b1661112357506110b961050d6060840184615678565b90506106115761111e946106026105f3600080516020615f05833981519152945b6105e56110e7828061561e565b906105d76110f8602086018661561e565b9290936001600160801b036105aa61111360408a018a615678565b986060810190615678565b610e56565b919489602061113861029a60608a018a615678565b604051639247a1b360e01b8152600360048201526001600160a01b039182166024820152928391604491839188165af1908115610a26578b916111ee575b50156111ad576106026105f3876111a8600080516020615f058339815191529660056106fc606061111e9d0185615678565b6110da565b60405162461bcd60e51b8152602060048201526019602482015278696e76616c69642074686972646c696e65206164647265737360381b6044820152606490fd5b90506020813d602011611218575b8161120960209383613986565b81010312610772575138611176565b3d91506111fc565b89602061123361029a6040870187615678565b604051639247a1b360e01b8152600260048201526001600160a01b039182166024820152928391604491839188165af1908115610a26578b916112da575b5015611295576112906112876040850185615678565b600283016156d6565b61108b565b60405162461bcd60e51b815260206004820152601a60248201527f696e76616c6964207365636f6e646c696e6520616464726573730000000000006044820152606490fd5b90506020813d602011611304575b816112f560209383613986565b81010312610772575138611271565b3d91506112e8565b6113219199503d808d833e6108f58183613986565b9738610fd8565b9091929594939896875b61133f60208b018b61561e565b905081101561143e5761135c61029a8261043560208e018e61561e565b604051639247a1b360e01b8152600160048201526001600160a01b03918216602482015290602090829060449082908e908e165af1908115610baa578a9161140c575b50156113c757806104838d600161047c6113c2958f80602061043592019061561e565b611332565b60405162461bcd60e51b815260206004820152601b60248201527f696e76616c69642062656e6566696369617279206164647265737300000000006044820152606490fd5b90506020813d602011611436575b8161142760209383613986565b8101031261077257513861139f565b3d915061141a565b509698929590979199611057565b979160036001600160801b03879c99979896989593951614610c26576114728a8061561e565b60405163a0e67e2b60e01b815290915089816004816001600160a01b038f165afa908115610baa578a91611577575b505103610bc757875b6114b48b8061561e565b9050811015611565578960206114d261029a848f806104359161561e565b6040516317aa5fb760e11b81526001600160a01b0391821660048201529283916024918391165afa908115610baa578a9161152a575b5015610b2657806104838e610b1b611525948f806104359161561e565b6114aa565b90506020813d60201161155d575b8161154560209383613986565b81010312610b9e57518015158103610b9e5738611508565b3d9150611538565b50919750919893959894929438610f99565b61158b91503d808c833e6108f58183613986565b386114a1565b506020813d6020116115c8575b816115ab60209383613986565b810103126115c4576115bf610f6991614094565b610f54565b8a80fd5b3d915061159e565b9094506020813d602011611604575b816115ec60209383613986565b81010312610b9e576115fd906140ea565b9338610f27565b3d91506115df565b90995061162991955060603d606011610d3b57610d288183613986565b509490949838610ef8565b6040513d8a823e3d90fd5b8780fd5b8680fd5b5080fd5b5034610201576020366003190112610201576116756116686139be565b611670613e60565b613e99565b80f35b5034610201576020366003190112610201576020906040906001600160a01b036116a06139be565b1681528083522054604051908152f35b50346102015780600319360112610201576007546040516001600160a01b039091168152602090f35b5034610201576020366003190112610201576040906001600160a01b036116fe6139be565b16815260016020522060405161171f816117188185613ca0565b0382613986565b6101fd600260405193611740856117398160018501613ca0565b0386613986565b015460405193849384613e32565b5034610201576020366003190112610201576101fd61177361176e6139be565b615d76565b60409391935193849384613c02565b5034610201576020366003190112610201576101fd6117a76117a26139be565b615e63565b60409391935193849384613b30565b5034610201576060366003190112610201576117d06139be565b906117d96139d4565b906001600160401b03806044351161164757366023604435011215611647576044356004013511610201573660246044356004013560061b604435010111610201576006546001600160a01b031633148015611ba6575b8015611b92575b8015611b71575b6118479061413e565b6001600160a01b038216815260026020526040812060010192815b8454808210156119be576118956118798388614178565b50546001600160a01b0316604435600481013590602401615ce2565b156118aa575b506118a590614013565b611862565b60001981019081116119aa5780820361192e575b508454801561191a5760001901906118d68287614178565b929092611904576118fc60028460006118a596556118f6600182016142b9565b016142b9565b86559061189b565b634e487b7160e01b600052600060045260246000fd5b634e487b7160e01b84526031600452602484fd5b6119389086614178565b506119438287614178565b61199657818103611955575b506118be565b60028061198f9360018060a01b038154166001600160601b0360a01b85541617845561198760018201600186016141db565b0191016141db565b388061194f565b634e487b7160e01b85526004859052602485fd5b634e487b7160e01b84526011600452602484fd5b6040516309bcf1e560e21b815284908790879086906020816004816001600160a01b0387165afa908115610cff578591611b3f575b5060405163b5ddc99f60e01b81526020816004816001600160a01b0388165afa8015610904578690611aff575b6001600160801b039150604051946080860193865260018060a01b0316602086015216604084015260806060840152835480915260a083019060a08160051b850101948652602086209186905b828210611aa857876001600160a01b0386167f67fa80ba1c4811bf8cb5fbb01520390d84183e0ffe524564446e3546ca460679888a0389a280f35b9091929560206003611af1600193609f198a8203018652848060a01b038b54168152606084820152611adf60608201868d01613ca0565b90604081830391015260028b01613ca0565b980192019201909291611a6d565b506020813d602011611b37575b81611b1960209383613986565b81010312610cb357611b326001600160801b03916140ea565b611a20565b3d9150611b0c565b90506020813d602011611b69575b81611b5a60209383613986565b810103126107725751856119f3565b3d9150611b4d565b50600080516020615ee5833981519152546001600160a01b0316331461183e565b506008546001600160a01b03163314611837565b506007546001600160a01b03163314611830565b503461020157602036600319011261020157611bd46139be565b611bdc613e60565b6001600160a01b03168082526020829052604082205415611c2b57808252816020528160408120557f62f55233e8bf40982e1e6a04de3472039b20070e86934381a3d07a191f2edf9f8280a280f35b60405162461bcd60e51b81526020600482015260136024820152722737ba1030b710383932b6b4bab6903ab9b2b960691b6044820152606490fd5b503461020157602036600319011261020157611675611c836139be565b600654611cb390336001600160a01b0391821614908115611ce2575b8115611cd3575b8115611cb8575b5061413e565b6143e7565b9050600080516020615ee58339815191525416331438611cad565b80915060085416331490611ca6565b80915060075416331490611c9f565b5034610201578060031936011261020157600080516020615ee5833981519152546040516001600160a01b039091168152602090f35b5034610201576020366003190112610201576020906002906040906001600160a01b03611d526139be565b16815260018452200154604051908152f35b50346102015780600319360112610201576006546040516001600160a01b039091168152602090f35b50346102015780600319360112610201577ff0c57e16840df040f15088dc2f81fe391c3923bec73e23a9662efc9c229c6a00805460ff8160401c1615906001600160401b03811680159081611eaf575b6001149081611ea5575b159081611e9c575b50611e8a5767ffffffffffffffff198116600117835581611e6b575b50611e14613f0d565b611e1c613f0d565b611e2533613e99565b611e2d575080f35b68ff00000000000000001981541690557fc7f505b2f371ae2175ee4913f4499e1f2633a7b5936321eed1cdaeb6115181d2602060405160018152a180f35b68ffffffffffffffffff19166801000000000000000117825538611e0b565b60405163f92ee8a960e01b8152600490fd5b90501538611def565b303b159150611de7565b839150611ddd565b50346102015760403660031901126102015780611ed26139be565b611eda6139d4565b6006546001600160a01b03929190831633148015612071575b8015612064575b801561204a575b611f0a9061413e565b611f1381615a57565b60405190611f208261396b565b600182526020368184013783611f3583614334565b9116908190526001600160a01b03831660009081526020819052604090205442108061203d575b15611fce57508260095416803b15610cf357611fa093858094604051968795869485936314e356db60e31b8552166004840152604060248401526044830190613b69565b03925af18015611fc357611fb357505080f35b611fbc90613922565b6102015780f35b6040513d84823e3d90fd5b935050168252600b60205260408220805490600160401b8210156120295760018201808255821015612015578352602083200180546001600160a01b031916909117905580f35b634e487b7160e01b84526032600452602484fd5b634e487b7160e01b84526041600452602484fd5b5083600954161515611f5c565b50600080516020615ee58339815191525483163314611f01565b5082600854163314611efa565b5082600754163314611ef3565b5034610201576080366003190112610201576120986139be565b6001600160401b03602435818111610d5f576120b8903690600401613ab8565b604492919235828111610cb3576120d3903690600401613ab8565b92606435908111611643576120ec903690600401613ab8565b33600090815260208190526040902054919690949161210c904210613f4e565b604051633fdbdeff60e11b81526001600160a01b039182169690946060866004818b5afa958615610baa578a966123e7575b5060405163b5ddc99f60e01b81526020969087816004818d5afa9081156123dc578c916123a3575b506040516302d05d3f60e01b81528c89826004818f5afa80156123965787919061235a575b61219892501633146140a8565b85831480612351575b1561231a5782156122e1579180916001600160801b03899b948a96956040999899519d8e60c0810195815201521660408c015260c060608c01525260e089019060e08160051b8b01019280928d915b8c8484106122a257860360808e0152505050848352505001929188905b828210612280575050505083810360a08501528281528101939190855b82811061225c5786337fd5571c68d1d931dc18e6161c9fd01870a6395928fb648ac1399316caecd31df887890388a280f35b9091929485359081151580920361077257908152820194820192919060010161222a565b90919293858060019284612293896139ea565b1681520195019392019061220d565b966122cc6001939597829395979960df9c9b9c199082030187526122c68a8761535c565b9061533b565b970193019301909289959492939796976121f0565b60405162461bcd60e51b815260048101899052601160248201527063616e206e6f742073657420656d70747960781b6044820152606490fd5b60405162461bcd60e51b815260048101899052600f60248201526e0d8cadccee8d040dad2e6dac2e8c6d608b1b6044820152606490fd5b508886146121a1565b50508881813d831161238f575b6123718183613986565b8101031261238b578561238661219892614094565b61218b565b8c80fd5b503d612367565b50604051903d90823e3d90fd5b90508781813d83116123d5575b6123ba8183613986565b810103126123d1576123cb906140ea565b38612166565b8b80fd5b503d6123b0565b6040513d8e823e3d90fd5b61240091965060603d8111610d3b57610d288183613986565b5050943861213e565b50346102015760203660031901126102015760206124456124286139be565b6001600160a01b0316600090815260208190526040902054421090565b6040519015158152f35b5034610201578060031936011261020157612468613e60565b600080516020615ee583398151915280546001600160a01b031981169091556000906001600160a01b03167f8be0079c531659141344cd1fd0a4f28419497f9722a3daafe3b4186f6b6457e08280a380f35b50346102015780600319360112610201576005546040516001600160a01b039091168152602090f35b5034610201576060366003190112610201576004356001600160401b038111611647573660238201121561164757806004013561251f816139a7565b9161252d6040519384613986565b8183526024602084019260051b82010190368211610cf35760248101925b8284106128df5785856001600160401b0360243511611647573660236024350112156116475760243560040135612581816139a7565b9061258f6040519283613986565b80825260208201903660248260051b8135010111610cf3576024803501915b60248260051b8135010183106126d257505050604435908115158203610772576040516303e21fa960e61b8152602081600481335afa908115610cff578591612698575b50600080516020615ee5833981519152546001600160a01b03919082163303612621575b505061167592614c80565b818060065416911690811491821561268a575b821561267c575b505015612649578480612616565b60405162461bcd60e51b815260206004820152600b60248201526a4f6e6c79204c656761637960a81b6044820152606490fd5b60085416149050858061263b565b600754811682149250612634565b90506020813d6020116126ca575b816126b360209383613986565b81010312610cf3576126c490614094565b856125f2565b3d91506126a6565b82356001600160401b038111611643576080908160231982602435013603011261163f576040519182018281106001600160401b038211176128c95760405260248181350101356001600160401b0381116128915761273a9060243691848235010101613e17565b825261274c60448260243501016139ea565b60208301526064816024350101356001600160401b038111612891573660438284602435010101121561289157602481838235010101359061278d826139a7565b9161279b6040519384613986565b808352602083013660448360051b858860243501010101116123d15760448386602435010101905b60448360051b8588602435010101018210612895575050505060408301526084816024350101356001600160401b038111612891573660438284602435010101121561289157602481838235010101359061281d826139a7565b9261282b6040519485613986565b82845260208401913660448560051b838560243501010101116123d15760448183602435010101925b60448560051b838560243501010101841061288157505050505060608201528152602092830192016125ae565b8335815260209384019301612854565b8880fd5b6001600160401b0382351161238b57602080916128be3660448635898c60243501010101613e17565b8152019101906127c3565b634e487b7160e01b600052604160045260246000fd5b83356001600160401b03811161164357820160606023198236030112611643576040519161290c83613935565b612918602483016139ea565b8352604482013560208401526064820135926001600160401b0384116128915761294c602094936024869536920101613e17565b604082015281520193019261254b565b5034610201576020366003190112610201576129bd906040906001600160a01b036129856139be565b1681526002602052206101fd6129a960056129a260028501613d36565b9301613d36565b604051938493604085526040850190613d89565b908382036020850152613d89565b5034610201576080366003190112610201576129e56139be565b6129ed6139d4565b6044356001600160a01b03818116918290036107725760643593818516809503610772578190612a1b613e60565b16928315612a6857168015612a68578115612a68578315612a68576001600160601b0360a01b92836005541617600555826006541617600655816007541617600755600854161760085580f35b60405163b51f3e6b60e01b8152600490fd5b5034610201576060366003190112610201576001600160401b03600435818111610d6357612aac903690600401613c39565b602435928311610d5f57612ac7611675933690600401613c39565b33600090815260208190526040902054909290612ae5904210613f4e565b604435933361538d565b503461020157602036600319011261020157611675612b0c6139be565b600654612b3990336001600160a01b0391821614908115611ce2578115611cd3578115611cb8575061413e565b614806565b503461020157606036600319011261020157612b586139be565b612b606139d4565b6044359160ff8316809303610d5f576006546001600160a01b039190821633148015612e94575b8015612e87575b8015612e6d575b612b9e9061413e565b818316936002811480918115612e62575b5015612e2d5715612cfc57838552602060028152612bdf600460408820600060028201556118f6600382016142b9565b6040516309bcf1e560e21b8152948186600481845afa958615612cc2578796612ccd575b50816004916040519283809263b5ddc99f60e01b82525afa918215612cc2578792612c65575b5050612c5f907f2935a03994516ccee1e46d77e3e9a0511545db780728053eebfcba6f56206e15946040519485941696846140fe565b0390a280f35b90809250813d8311612cbb575b612c7c8183613986565b81010312610cb3577f2935a03994516ccee1e46d77e3e9a0511545db780728053eebfcba6f56206e1593612cb2612c5f926140ea565b91819550612c29565b503d612c72565b6040513d89823e3d90fd5b9095508181813d8311612cf5575b612ce58183613986565b8101031261077257519481612c03565b503d612cdb565b838552602060028152612d21600760408820600060058201556118f6600682016142b9565b6040516309bcf1e560e21b8152948186600481845afa958615612cc2578796612dfe575b50816004916040519283809263b5ddc99f60e01b82525afa918215612cc2578792612da1575b5050612c5f907f8eb7989e7ed6179f076878165dd7a3d2243bbdd685236aa16d424c19910bcba4946040519485941696846140fe565b90809250813d8311612df7575b612db88183613986565b81010312610cb3577f8eb7989e7ed6179f076878165dd7a3d2243bbdd685236aa16d424c19910bcba493612dee612c5f926140ea565b91819550612d6b565b503d612dae565b9095508181813d8311612e26575b612e168183613986565b8101031261077257519481612d45565b503d612e0c565b60405162461bcd60e51b815260206004820152600d60248201526c34b73b30b634b2103630bcb2b960991b6044820152606490fd5b600391501438612baf565b50600080516020615ee58339815191525482163314612b95565b5081600854163314612b8e565b5081600754163314612b87565b5034610201576020366003190112610201576001600160a01b039081612ec56139be565b168152600290816020526040812091825490612ee082614302565b93612eea836146e1565b95612ef4846146e1565b945b848110612f0d57604051806101fd888b8b84613c02565b8082612f1c612f899386614178565b505416612f29828a614341565b526001612f4a612f398387614178565b506117186040518094819301613ca0565b612f54828b614341565b52612f5f818a614341565b5084612f6e612f398387614178565b612f788289614341565b52612f838188614341565b50614013565b612ef6565b50346102015760209081600319360112610201576004826001600160a01b03612fb56139be565b1660405192838092637ddd755b60e11b82525afa91821561077f578092612fe4575b50503b1515604051908152f35b9091508282813d8311613015575b612ffc8183613986565b81010312610201575061300e90614094565b3880612fd7565b503d612ff2565b5034610201576040366003190112610201576130366139be565b600554602435916001600160a01b03918216330361321057811690818452602092848452604085205442106131d957421981106131ac575081845283835260001960408520555b818452838352817f1648bd8ed475a7c2018a29a38c33ba3b9009e4d8d68924ce7123ed6bbce00aa5846040872054604051908152a28060095416806130c0578480f35b828552600b8452604085208054806130d9575b50508480f35b823b1561164357909186926040519485936314e356db60e31b855280604486018960048801526040602488015252606485019286528886209186905b8a83831061318c5750505050508383809203925af180156131815761316e575b508252600b8152604082209081549083835581613155575b8080806130d3565b613166928452832090810190614127565b38808061314d565b61317a90939193613922565b9138613135565b6040513d86823e3d90fd5b8454821686528c9850899750909401936001938401939190910190613115565b42018042116131c557828552848452604085205561307d565b634e487b7160e01b85526011600452602485fd5b60405162461bcd60e51b815260048101859052600f60248201526e416c7265616479207072656d69756d60881b6044820152606490fd5b60405162461bcd60e51b81526020600482015260156024820152745f7072656d69756d5265676973747279206f6e6c7960581b6044820152606490fd5b5034610201576040366003190112610201576132676139be565b61326f6139d4565b90613278613e60565b6001600160a01b03908116918215612a685716908115612a68576001600160601b0360a01b90816009541617600955600a541617600a5580f35b50346102015780600319360112610201576009546040516001600160a01b039091168152602090f35b5034610201576020366003190112610201576101fd6117a76132fb6139be565b615eac565b50346102015780600319360112610201576008546040516001600160a01b039091168152602090f35b503461020157602080600319360112611647576004356001600160401b038111610d635761335b903690600401613ab8565b336000908152602081905260409020549092919061337a904210613f4e565b835b838110613387578480f35b6001600160a01b03908161339f61029a838887614038565b6040516302d05d3f60e01b81529116928582600481875afa8015611634578890613504575b6133d192501633146140a8565b6133e76133e261029a838887614038565b6159f6565b6040516309bcf1e560e21b81528481600481865afa908115612cc25787916134d7575b5060048561341c61029a858a89614038565b946040519283809263b5ddc99f60e01b82525afa90811561163457889161347b575b507f522c7a6d544fa7e0e680c8e704347fef13af037a78ed1f9a05c4b5d5ecd5365c90613476946106026040519283923396846140fe565b61337c565b90508581813d83116134d0575b6134928183613986565b8101031261163f57613476936134c87f522c7a6d544fa7e0e680c8e704347fef13af037a78ed1f9a05c4b5d5ecd5365c926140ea565b91509361343e565b503d613488565b90508481813d83116134fd575b6134ee8183613986565b8101031261164357513861340a565b503d6134e4565b508582813d8311613533575b61351a8183613986565b8101031261163f5761352e6133d192614094565b6133c4565b503d613510565b50346102015760203660031901126102015760406020916135596139be565b613561613e60565b6001600160a01b03168152600483522054604051908152f35b503461020157613589366139fe565b336000908152602081905260409020549091906135a7904210613f4e565b805b8251811015613776576001600160a01b03806135c58386614341565b511660405191633fdbdeff60e11b83526060918284600481845afa938415610904578694613755575b5060405163b5ddc99f60e01b8152916020918284600481845afa93841561163457889461371a575b5082600491604051928380926302d05d3f60e01b82525afa9081156116345788916136a5575b50926136a0969594928261367c6001600160801b03947fd44545d5b9fc72a55df0d371386ca7026feac19517c9d0462a244351f4a262c4971633146140a8565b613686888c614341565b5116906040519687528601521660408401523392a2614013565b6135a9565b90508281813d8311613713575b6136bc8183613986565b8101031261163f57926136a0969594928261367c6001600160801b03946137037fd44545d5b9fc72a55df0d371386ca7026feac19517c9d0462a244351f4a262c498614094565b949750505092509294959661363c565b503d6136b2565b9093508281813d831161374e575b6137328183613986565b8101031261163f57826137466004926140ea565b949150613616565b503d613728565b61376d919450833d8511610d3b57610d288183613986565b505092386135ee565b5080f35b503461020157613789366139fe565b908151916137af613799846139a7565b936137a76040519586613986565b8085526139a7565b916020916137c483860194601f1901856146c4565b815b81518110156138c5576001600160a01b036137e18284614341565b5116604051809163626f09d360e11b825281600460609384935afa908115610cff57859286908793613888575b506040519361381c85613950565b6003855282368a87013761382f85614334565b528351600110156138745760408401528251600210156138605782015261385b9190612f788289614341565b6137c6565b634e487b7160e01b86526032600452602486fd5b634e487b7160e01b87526032600452602487fd5b93505080915082813d83116138be575b6138a28183613986565b81010312610cf35781519060408784015193015191923861380e565b503d613898565b505060408051838152855181850181905292949093600584901b8501830193919285015b8287106138f65785850386f35b909192938280613912600193603f198a82030186528851613a84565b96019201960195929190926138e9565b6001600160401b0381116128c957604052565b606081019081106001600160401b038211176128c957604052565b608081019081106001600160401b038211176128c957604052565b604081019081106001600160401b038211176128c957604052565b90601f801991011681019081106001600160401b038211176128c957604052565b6001600160401b0381116128c95760051b60200190565b600435906001600160a01b038216820361077257565b602435906001600160a01b038216820361077257565b35906001600160a01b038216820361077257565b60208060031983011261077257600435916001600160401b0383116107725780602384011215610772578260040135613a36816139a7565b93613a446040519586613986565b81855260248486019260051b82010192831161077257602401905b828210613a6d575050505090565b838091613a79846139ea565b815201910190613a5f565b90815180825260208080930193019160005b828110613aa4575050505090565b835185529381019392810192600101613a96565b9181601f84011215610772578235916001600160401b038311610772576020808501948460051b01011161077257565b60005b838110613afb5750506000910152565b8181015183820152602001613aeb565b90602091613b2481518092818552858086019101613ae8565b601f01601f1916010190565b6001600160a01b039091168152606060208201819052613b66939192613b5891840190613b0b565b916040818403910152613b0b565b90565b90815180825260208080930193019160005b828110613b89575050505090565b83516001600160a01b031685529381019392810192600101613b7b565b908082519081815260208091019281808460051b8301019501936000915b848310613bd45750505050505090565b9091929394958480613bf2600193601f198682030187528a51613b0b565b9801930193019194939290613bc4565b91613c2b90613c1d613b669593606086526060860190613b69565b908482036020860152613ba6565b916040818403910152613ba6565b9181601f84011215610772578235916001600160401b038311610772576020838186019501011161077257565b90600182811c92168015613c96575b6020831014613c8057565b634e487b7160e01b600052602260045260246000fd5b91607f1691613c75565b9060009291805491613cb183613c66565b918282526001938481169081600014613d135750600114613cd3575b50505050565b90919394506000526020928360002092846000945b838610613cff575050505001019038808080613ccd565b805485870183015294019385908201613ce8565b9294505050602093945060ff191683830152151560051b01019038808080613ccd565b90600260408051613d4681613935565b613d85819560018060a01b0381541683528351613d6a816117188160018601613ca0565b6020840152613d7e84518096819301613ca0565b0384613986565b0152565b613b669160018060a01b0382511681526040613db46020840151606060208501526060840190613b0b565b920151906040818403910152613b0b565b6001600160401b0381116128c957601f01601f191660200190565b929192613dec82613dc5565b91613dfa6040519384613986565b829481845281830111610772578281602093846000960137010152565b9080601f8301121561077257816020613b6693359101613de0565b939291613e5b90613e4d604093606088526060880190613b0b565b908682036020880152613b0b565b930152565b600080516020615ee5833981519152546001600160a01b03163303613e8157565b60405163118cdaa760e01b8152336004820152602490fd5b6001600160a01b03908116908115613ef457600080516020615ee583398151915280546001600160a01b031981168417909155167f8be0079c531659141344cd1fd0a4f28419497f9722a3daafe3b4186f6b6457e0600080a3565b604051631e4fbdf760e01b815260006004820152602490fd5b60ff7ff0c57e16840df040f15088dc2f81fe391c3923bec73e23a9662efc9c229c6a005460401c1615613f3c57565b604051631afcd79f60e31b8152600490fd5b15613f5557565b60405162461bcd60e51b815260206004820152600c60248201526b5072656d69756d206f6e6c7960a01b6044820152606490fd5b15613f9057565b60405162461bcd60e51b815260206004820152600f60248201526e098cadccee8d040dad2e6dac2e8c6d608b1b6044820152606490fd5b15613fce57565b60405162461bcd60e51b815260206004820152601760248201527f74696d655072696f7241637469766174696f6e203e20300000000000000000006044820152606490fd5b60001981146140225760010190565b634e487b7160e01b600052601160045260246000fd5b91908110156140485760051b0190565b634e487b7160e01b600052603260045260246000fd5b356001600160a01b03811681036107725790565b91908110156140485760051b81013590607e1981360301821215610772570190565b51906001600160a01b038216820361077257565b156140af57565b60405162461bcd60e51b815260206004820152601360248201527237b7363c903632b3b0b1bc9031b932b0ba37b960691b6044820152606490fd5b51906001600160801b038216820361077257565b9081526001600160a01b0390911660208201526001600160801b03909116604082015260600190565b818110614132575050565b60008155600101614127565b1561414557565b60405162461bcd60e51b815260206004820152600b60248201526a526f75746572206f6e6c7960a81b6044820152606490fd5b8054821015614048576000526003602060002091020190600090565b9190601f81116141a357505050565b6141cf926000526020600020906020601f840160051c830193106141d1575b601f0160051c0190614127565b565b90915081906141c2565b908082146142b5576141ed8154613c66565b906001600160401b0382116128c95781906142128261420c8654613c66565b86614194565b600090601f83116001146142495760009261423e575b50508160011b916000199060031b1c1916179055565b015490503880614228565b81526020808220858352818320935090601f1985169083905b82821061429c575050908460019594939210614283575b505050811b019055565b015460001960f88460031b161c19169055388080614279565b8495819295850154815560018091019601940190614262565b5050565b6142c38154613c66565b90816142cd575050565b81601f600093116001146142df575055565b9080839182526142fe601f60208420940160051c840160018501614127565b5555565b9061430c826139a7565b6143196040519182613986565b828152809261432a601f19916139a7565b0190602036910137565b8051156140485760200190565b80518210156140485760209160051b010190565b90816020910312610772575160ff811681036107725790565b602081830312610772578051906001600160401b038211610772570181601f820112156107725780516143a081613dc5565b926143ae6040519485613986565b8184526020828401011161077257613b669160208085019101613ae8565b91613b5890613c1d613b669593606086526060860190613ba6565b604080516302d05d3f60e01b8152600092600492916001600160a01b03918083169160209081818881875afa801561464b57889061468e575b6001600160a01b0316600090815260208190526040902054421090505b156144f65783600a541692831561468457855163fd780e9d60e01b815282818981855afa92831561460957918991899594938394614655575b50508751632a0ab94760e11b815298899182905afa96871561464b578897614627575b506144a382615d76565b958092503b15610b9e57886144d1928b92838b51809681958294633d1d24d960e01b9d8e85528d85016143cc565b03925af1801561460957614613575b5060ff16600281101561458d575b6003146144ff575b50505050505050565b61450890615eac565b939150938451614519575b506144f6565b61452a61453091600a541694614716565b94614716565b95833b1561163f57879493929161455486928851998a9788968795865285016143cc565b03925af19081156145845750614570575b808080808080614513565b61457a8291613922565b6102015780614565565b513d84823e3d90fd5b61459682615e63565b90809250516145a7575b50506144ee565b6145be6145b888600a541692614716565b92614716565b91813b156115c457918a918a9383896145e38d519788968795869485528d85016143cc565b03925af1801561460957908991156145a0576145fe90613922565b61163f5787386145a0565b87513d8b823e3d90fd5b9761462060ff9299613922565b97906144e0565b6146449197503d808a833e61463c8183613986565b81019061436e565b9538614499565b86513d8a823e3d90fd5b614675929450803d1061467d575b61466d8183613986565b810190614355565b913880614476565b503d614663565b5050505050505050565b508181813d83116146bd575b6146a48183613986565b8101031261163f576146b861443d91614094565b614420565b503d61469a565b60005b8281106146d357505050565b6060828201526020016146c7565b906141cf6146ee836139a7565b6146fb6040519182613986565b8381526020819461470e601f19916139a7565b0191016146c4565b906040516147238161396b565b6001815260005b6020808210156147455790606060209282850101520161472a565b5050909161475282614334565b5261475c81614334565b5090565b81601f8201121561077257805191614777836139a7565b926147856040519485613986565b808452602092838086019260051b820101928311610772578301905b8282106147af575050505090565b8380916147bb84614094565b8152019101906147a1565b90606082820312610772578151906001600160401b038211610772576147ed918301614760565b91613b6660406147ff60208501614094565b9301614094565b6040516302d05d3f60e01b8152600092909160209182846004816001600160a01b0386165afa938415610cff578594614b99575b5061484484615d2f565b50604051637ddd755b60e11b81529095915084816004816001600160a01b0388165afa948515612cc2578795614b61575b5050604051632a0ab94760e11b81529086826004816001600160a01b0388165afa918215612cc2578792614b41575b506001600160a01b031660009081526020819052604090205442105b15614b39576148ce83615d76565b600a54919492506001600160a01b03909116908115614b2e578890823b1561164757614947926149218361493593604051968795869485936380a42b8d60e01b8552608060048601526084850190613ba6565b60249c8d6003198684030190860152613ba6565b8281036003190160448401528a613b0b565b6001600160a01b038d16606483015203925af1801561163457614b1b575b50604051632b569b5b60e01b81529187836004816001600160a01b0389165afa928315611634578893614af5575b5061499e83516146e1565b95885b8451811015614a28576001600160a01b036149bc8287614341565b5160405163bbf1638160e01b815291166004820152908a8288816001600160a01b038c165afa8015610a2657614a09928c91614a0e575b506149fe828b614341565b52612f83818a614341565b6149a1565b614a2291503d808e833e61463c8183613986565b386149f3565b509395979692919794909460018060a01b03600a541694853b1561289157614a8193614ac08a98979693948995614ad294614a926040519d8e9c8d9b8c9a630ec4a3a760e21b8c5260e060048d015260e48c0190613b0b565b916003198b840301908b0152613b0b565b6001600160a01b039384166044890152326064890152921660848701528582036003190160a4870152613ba6565b8381036003190160c485015290613b69565b03925af18015611fc357614ae4575050565b614aee8291613922565b6102015750565b614b129193503d808a833e614b0a8183613986565b8101906147c6565b50509138614993565b614b2790979197613922565b9538614965565b505095505050505050565b509350505050565b6148c0919250614b5a903d808a833e61463c8183613986565b91906148a4565b9080929550813d8311614b92575b614b798183613986565b81010312610cb357614b8a90614094565b923880614875565b503d614b6f565b9093508281813d8311614bc9575b614bb18183613986565b81010312610cf357614bc290614094565b923861483a565b503d614ba7565b969897959390614c1e9293614c02614bf3614c1093610100808d528c0190613b0b565b6020968b8203888d0152613b0b565b9089820360408b0152613b0b565b908782036060890152613b69565b858103608087015281808551928381520194019160005b828110614c6c575050505081614c55918560e095940360a0870152613ba6565b6001600160a01b0390951660c08401521515910152565b835186529481019492810192600101614c35565b9291604051926302d05d3f60e01b8452600092602085600481335afa9485156131815784956152d9575b50604051637ddd755b60e11b815293602085600481335afa94851561239657819561529d575b50604051632a0ab94760e11b8152948186600481335afa958615611fc3578296615281575b506001600160a01b0387166000908152602081905260409020544210156152775760405163021fe24d60e41b815232600482015296602088602481335afa978815610d42578398615256575b50600a546001600160a01b031690811561524a57614d5e90615d2f565b508093915051615025575b5050509060405194632b569b5b60e01b86528286600481335afa908115610d4257839684908593615004575b50614da08a51614302565b97855b8b51811015614dda57614dd5906001600160a01b03614dc2828f614341565b515116614dcf828d614341565b52614013565b614da3565b509193969950919396949760ff1690600190818314614eca575050600214614ebf5750614e0633615eac565b9390916001600160a01b0390811691161480614eb5575b614e2c575b5050505050509050565b600a546001600160a01b0316926040614e526060614e4989614334565b51015197614334565b510151843b1561163f578798998897989392614e87926040519a8b998a988997635e408c6560e01b8952339560048a01614bd0565b03925af18015611fc357614ea1575b808080808695614e22565b614eab8291613922565b6102015780614e96565b5080511515614e1d565b9150614e0633615e63565b939250969594935050614edf97969733615d76565b93909187895b614ef7575b5050505050505050505050565b8151811015614fff576001600160a01b03614f128284614341565b51166001600160a01b03614f268386614341565b51161480614feb575b614f43575b614f3d90614013565b89614ee5565b600a5488906001600160a01b0316614f5b8389614341565b51614f668488614341565b51906040614f83866060614f7a8289614341565b51015196614341565b510151833b15614fe7578f8c938f95938692614fba918e956040519a8b998a988997635e408c6560e01b8952339560048a01614bd0565b03925af18015610baa57908a91614fd3575b5050614f34565b614fdc90613922565b612891578838614fcc565b8d80fd5b50614ff68185614341565b51511515614f2f565b614eea565b9197505061501c91503d8085833e614b0a8183613986565b91969038614d95565b813b15610d5f579183918a61505a9461506c60405196879563f51fb1cf60e01b87526101206004880152610124870190613b0b565b8581036003190160248701528c613b0b565b3260448601524260648601526001600160a01b0390911660848501528381036003190160a48501528151808252600581901b820160209081019381019287918101905b8383106151f45750505050506003198382030160c4840152865190818152602081019060208360051b8201019260208a019287905b828210615128575050505050838380923360e48301528b151561010483015203925af18015611fc357615119575b8080614d69565b61512290613922565b38615112565b9295975092955092601f1990818682030183528651908a61515183516080808552840190613b0b565b60018060a01b036020850151166020840152604084015194838203604085015285519182815260208101916020808560051b840101980194905b8482106151c9575050505050506151b5600193602093849360608092015191818403910152613a84565b9701920192019287959389979592936150e4565b9091929394976020806151e6838588600196030189528c51613b0b565b9a019695019392019061518b565b9295975092955092602080615238600193601f1986820301875260408a51868060a01b03815116835284810151858401520151906060908160408201520190613b0b565b970193019301879593899795926150af565b50505050509350505050565b61527091985060203d60201161467d5761466d8183613986565b9638614d41565b5050509350505050565b6152969196503d8084833e61463c8183613986565b9438614cf5565b9094506020813d6020116152d1575b816152b960209383613986565b81010312610cf3576152ca90614094565b9338614cd0565b3d91506152ac565b9094506020813d60201161530d575b816152f560209383613986565b81010312610d5f5761530690614094565b9338614caa565b3d91506152e8565b9081606091031261077257805191613b66604061533460208501614094565b93016140ea565b908060209392818452848401376000828201840152601f01601f1916010190565b9035601e19823603018112156107725701602081359101916001600160401b03821161077257813603831361077257565b90939491929461539e831515613fc7565b604051956153ab87613935565b6153b6368688613de0565b87526153c3368383613de0565b96602093848201988952604082019086825260018060a01b03169860008a815260018088526040822094519182516001600160401b039384821161560a578190615417826154118b54613c66565b8b614194565b8b90601f83116001146155aa57849261559f575b5050600019600383901b1c191690831b1786555b8186019351805193841161558b576154618461545b8754613c66565b87614194565b8991601f85116001146154fa5793807f5b58406d1928a8b155bfe15dac82601851563d0dec290d3bd420444b3bc8a1ce9e9d9c9b9997946154e49b9997948294600298946154ef575b50501b916000199060031b1c19161790555b519101556154d760405197889760608952606089019161533b565b928684039087015261533b565b9060408301520390a2565b0151925038806154aa565b9190601f9493941984168684528b8420935b818110615576575092600295927f5b58406d1928a8b155bfe15dac82601851563d0dec290d3bd420444b3bc8a1ce9f9e9d9c9a989592836154e49d9b99961061555d575b505050811b0190556154bc565b015160001960f88460031b161c19169055388080615550565b82840151855593860193928c01928c0161550c565b634e487b7160e01b82526041600452602482fd5b01519050388061542b565b8985528c85208694509190601f198416868f5b8282106155f357505084116155da575b505050811b01865561543f565b015160001960f88460031b161c191690553880806155cd565b83850151865589979095019493840193018f6155bd565b634e487b7160e01b83526041600452602483fd5b903590601e198136030182121561077257018035906001600160401b03821161077257602001918160051b3603831361077257565b906020828203126107725781516001600160401b03811161077257613b669201614760565b903590605e1981360301821215610772570190565b9082101561404857613b669160051b810190615678565b903590601e198136030182121561077257018035906001600160401b0382116107725760200191813603831361077257565b6001600160a01b036156e78361405e565b82546001600160a01b03191691161781556001908181019060209061570e858301866156a4565b6001600160401b0394918582116128c9576157338261572d8554613c66565b85614194565b600090601f831160011461582e579180600294926157749694600092615823575b5050600019600383901b1c191690881b1790555b019460408101906156a4565b9283116128c9576157898361545b8754613c66565b600091601f84116001146157c457509282939183926000946157b9575b50501b916000199060031b1c1916179055565b0135925038806157a6565b9183601f1981168783528483209483905b8883831061580957505050106157ef57505050811b019055565b0135600019600384901b60f8161c19169055388080614279565b8686013588559096019593840193879350908101906157d5565b013590503880615754565b838252858220889392909190601f198416815b8982821061588657505091615774979593918560029896941061586c575b505050811b019055615768565b0135600019600384901b60f8161c1916905538808061585f565b8385013586558c97909501949283019201615841565b8054600160401b8110156128c9576158b991600182018155614178565b919091611904576141cf916156d6565b613b66916001600160a01b036158de836139ea565b1681526159106159056158f4602085018561535c565b60606020860152606085019161533b565b92604081019061535c565b91604081850391015261533b565b909182815260208091019283918160051b85019484600080925b85841061594a57505050505050505090565b909192939495969781810388528835605e1985360301811215610d5f5786615977600193878394016158c9565b9a01980196959401929190615938565b805460008083558161599857505050565b60039282840292848404036159e257815260208120918201915b8281106159bf5750505050565b80828592556159d0600182016142b9565b6159dc600282016142b9565b016159b2565b634e487b7160e01b82526011600452602482fd5b60018060a01b031660005260026020526141cf60076040600020615a1981615987565b615a2560018201615987565b60006002820155615a38600382016142b9565b615a44600482016142b9565b600060058201556118f6600682016142b9565b6001600160a01b0381811660008181526004602081815260408084205492969094926144f657948390849660019182805b615bf4575b50505083855250508581528383208590558483526003815283832080546001600160a01b0319168317905583516309bcf1e560e21b81529581878281865afa968715615bea578497615bbb575b50818551809263b5ddc99f60e01b825281865afa938415615bb0578094615b40575b505083519586528501526001600160801b03169083015260608201527f9bb99ab65a51e4c28ef24f87ebfaa766977e4b6c1d3e0f09a7b523edaa1c300f90608090a1565b909180945082813d8311615ba9575b615b598183613986565b810103126102015750608094927f9bb99ab65a51e4c28ef24f87ebfaa766977e4b6c1d3e0f09a7b523edaa1c300f969492615b9b6001600160801b03936140ea565b949650929496819250615afc565b503d615b4f565b8551903d90823e3d90fd5b9096508181813d8311615be3575b615bd38183613986565b81010312610d5f57519538615ada565b503d615bc9565b85513d86823e3d90fd5b98909192939815615cca575b5085628954408851868101906001600160601b03198660601b16825242603482015260548c818301528152615c3481613950565b51902006620f42408101809111615cb757615c4f9099614013565b936014851015615c625792919083615a88565b885162461bcd60e51b8152808c01879052602960248201527f546f6f206d616e7920617474656d70747320746f2067656e657261746520756e6044820152686971756520636f646560b81b6064820152608490fd5b634e487b7160e01b885260118b52602488fd5b80875260038552818888205416615c00579780615a8d565b91909160005b838110615cf85750505050600090565b615d068160061b830161405e565b6001600160a01b03848116911614615d2657615d2190614013565b615ce8565b50505050600190565b60018060a01b031660005260016020526040600020906002820154906001615d72604051615d61816117188189613ca0565b946117186040518094819301613ca0565b9190565b60018060a01b0380911660005260029182602052600192604084816000200191825491615da283614302565b93615dac846146e1565b97615db6856146e1565b978960005b88888210615dd157505050505050505050929190565b615e1d82615e5c948793615df38389615dea828e614178565b50541692614341565b52615e18615e01838b614178565b50615e118c518097819301613ca0565b0385613986565b614341565b52615e28818d614341565b5086615e47615e378388614178565b5061171889518094819301613ca0565b615e51828d614341565b52612f83818c614341565b8a90615dbb565b60018060a01b038091166000526002602052604060002090600282015416916004613b66604051615e9b816117188160038901613ca0565b936117186040518094819301613ca0565b60018060a01b038091166000526002602052604060002090600582015416916007613b66604051615e9b816117188160068901613ca056fe9016d09d72d40fdae2fd8ceac6b6234c7706214fd39c1cd1e609a0528c1993002f06fe5ed23d4bcfef60fb790af45310061c56bc88dfd2a8d88fc979d902aa09a264697066735822122058ddfdf114e708bd09d2b7fa4b8d1a14362f537ae38f612fe1bd826f2e4c9b3764736f6c63430008140033",
  "devdoc": {
    "errors": {
      "InvalidInitialization()": [
        {
          "details": "The contract is already initialized."
        }
      ],
      "NotInitializing()": [
        {
          "details": "The contract is not initializing."
        }
      ],
      "OwnableInvalidOwner(address)": [
        {
          "details": "The owner is not a valid owner account. (eg. `address(0)`)"
        }
      ],
      "OwnableUnauthorizedAccount(address)": [
        {
          "details": "The caller account is not authorized to perform an operation."
        }
      ]
    },
    "events": {
      "Initialized(uint64)": {
        "details": "Triggered when the contract has been initialized or reinitialized."
      }
    },
    "kind": "dev",
    "methods": {
      "getBatchLegacyTriggerTimestamp(address[])": {
        "details": "FE use to fetch all legacy trigger timestamp"
      },
      "owner()": {
        "details": "Returns the address of the current owner."
      },
      "renounceOwnership()": {
        "details": "Leaves the contract without owner. It will not be possible to call `onlyOwner` functions. Can only be called by the current owner. NOTE: Renouncing ownership will leave the contract without an owner, thereby disabling any functionality that is only available to the owner."
      },
      "resetPremium(address)": {
        "details": "set premiumExpired of an adress to 0"
      },
      "setReminderConfigs(string,string,uint256,address[],((address,string,string)[],(address,string,string)[],(address,string,string),(address,string,string))[])": {
        "params": {
          "timePriorActivation": "The time (in seconds) before the scheduled activation when email reminders should be sent."
        }
      },
      "syncBeneficiariesEmails(address,address,(address,uint256)[])": {
        "details": "router call this function when update legacy to remove email that not belong to any beneficiaries"
      },
      "transferOwnership(address)": {
        "details": "Transfers ownership of the contract to a new account (`newOwner`). Can only be called by the current owner."
      },
      "updatePremiumTime(address,uint256)": {
        "details": "called by the PremiumRegistry contract to update a user's premium expiration time.",
        "params": {
          "duration": "amount of time (in seconds) of the premium package plan"
        }
      },
      "updateUserConfig(string,string,uint256)": {
        "params": {
          "timePriorActivation": "The time (in seconds) before the scheduled activation when email reminders should be sent."
        }
      }
    },
    "version": 1
  },
  "userdoc": {
    "kind": "user",
    "methods": {
      "setReminderConfigs(string,string,uint256,address[],((address,string,string)[],(address,string,string)[],(address,string,string),(address,string,string))[])": {
        "notice": "user set up emails reminder / edit configs"
      },
      "updateUserConfig(string,string,uint256)": {
        "notice": "update email and timePriorActivation"
      }
    },
    "version": 1
  }
}