{
  "address": "0xdCbD62a1f03BC19Ee739aDDa9FFF2A08F3C2E9D7",
  "abi": [
    {
      "inputs": [],
      "stateMutability": "nonpayable",
      "type": "constructor"
    },
    {
      "inputs": [],
      "name": "EmptySource",
      "type": "error"
    },
    {
      "inputs": [],
      "name": "InvalidInitialization",
      "type": "error"
    },
    {
      "inputs": [],
      "name": "NoInlineSecrets",
      "type": "error"
    },
    {
      "inputs": [],
      "name": "NotInitializing",
      "type": "error"
    },
    {
      "inputs": [],
      "name": "OnlyRouterCanFulfill",
      "type": "error"
    },
    {
      "inputs": [
        {
          "internalType": "address",
          "name": "owner",
          "type": "address"
        }
      ],
      "name": "OwnableInvalidOwner",
      "type": "error"
    },
    {
      "inputs": [
        {
          "internalType": "address",
          "name": "account",
          "type": "address"
        }
      ],
      "name": "OwnableUnauthorizedAccount",
      "type": "error"
    },
    {
      "inputs": [
        {
          "internalType": "uint256",
          "name": "value",
          "type": "uint256"
        },
        {
          "internalType": "uint256",
          "name": "length",
          "type": "uint256"
        }
      ],
      "name": "StringsInsufficientHexLength",
      "type": "error"
    },
    {
      "inputs": [
        {
          "internalType": "bytes32",
          "name": "requestId",
          "type": "bytes32"
        }
      ],
      "name": "UnexpectedRequestID",
      "type": "error"
    },
    {
      "anonymous": false,
      "inputs": [
        {
          "indexed": false,
          "internalType": "uint64",
          "name": "version",
          "type": "uint64"
        }
      ],
      "name": "Initialized",
      "type": "event"
    },
    {
      "anonymous": false,
      "inputs": [
        {
          "indexed": true,
          "internalType": "address",
          "name": "previousOwner",
          "type": "address"
        },
        {
          "indexed": true,
          "internalType": "address",
          "name": "newOwner",
          "type": "address"
        }
      ],
      "name": "OwnershipTransferred",
      "type": "event"
    },
    {
      "anonymous": false,
      "inputs": [
        {
          "indexed": true,
          "internalType": "bytes32",
          "name": "id",
          "type": "bytes32"
        }
      ],
      "name": "RequestFulfilled",
      "type": "event"
    },
    {
      "anonymous": false,
      "inputs": [
        {
          "indexed": true,
          "internalType": "bytes32",
          "name": "id",
          "type": "bytes32"
        }
      ],
      "name": "RequestSent",
      "type": "event"
    },
    {
      "anonymous": false,
      "inputs": [
        {
          "indexed": true,
          "internalType": "bytes32",
          "name": "requestId",
          "type": "bytes32"
        },
        {
          "indexed": false,
          "internalType": "bytes",
          "name": "response",
          "type": "bytes"
        },
        {
          "indexed": false,
          "internalType": "bytes",
          "name": "err",
          "type": "bytes"
        }
      ],
      "name": "Response",
      "type": "event"
    },
    {
      "anonymous": false,
      "inputs": [
        {
          "indexed": false,
          "internalType": "string",
          "name": "to",
          "type": "string"
        },
        {
          "indexed": false,
          "internalType": "enum NotifyLib.NotifyType",
          "name": "notifyType",
          "type": "uint8"
        }
      ],
      "name": "SendMail",
      "type": "event"
    },
    {
      "inputs": [],
      "name": "donID",
      "outputs": [
        {
          "internalType": "bytes32",
          "name": "",
          "type": "bytes32"
        }
      ],
      "stateMutability": "view",
      "type": "function"
    },
    {
      "inputs": [],
      "name": "gasLimit",
      "outputs": [
        {
          "internalType": "uint32",
          "name": "",
          "type": "uint32"
        }
      ],
      "stateMutability": "view",
      "type": "function"
    },
    {
      "inputs": [
        {
          "internalType": "bytes32",
          "name": "requestId",
          "type": "bytes32"
        },
        {
          "internalType": "bytes",
          "name": "response",
          "type": "bytes"
        },
        {
          "internalType": "bytes",
          "name": "err",
          "type": "bytes"
        }
      ],
      "name": "handleOracleFulfillment",
      "outputs": [],
      "stateMutability": "nonpayable",
      "type": "function"
    },
    {
      "inputs": [
        {
          "internalType": "address",
          "name": "_router",
          "type": "address"
        },
        {
          "internalType": "uint64",
          "name": "_subscriptionId",
          "type": "uint64"
        },
        {
          "internalType": "bytes32",
          "name": "_donId",
          "type": "bytes32"
        },
        {
          "internalType": "uint32",
          "name": "_gasLimit",
          "type": "uint32"
        },
        {
          "internalType": "address",
          "name": "_sendMailRouter",
          "type": "address"
        }
      ],
      "name": "initialize",
      "outputs": [],
      "stateMutability": "nonpayable",
      "type": "function"
    },
    {
      "inputs": [],
      "name": "mailId",
      "outputs": [
        {
          "internalType": "uint256",
          "name": "",
          "type": "uint256"
        }
      ],
      "stateMutability": "view",
      "type": "function"
    },
    {
      "inputs": [],
      "name": "owner",
      "outputs": [
        {
          "internalType": "address",
          "name": "",
          "type": "address"
        }
      ],
      "stateMutability": "view",
      "type": "function"
    },
    {
      "inputs": [],
      "name": "renounceOwnership",
      "outputs": [],
      "stateMutability": "nonpayable",
      "type": "function"
    },
    {
      "inputs": [],
      "name": "router",
      "outputs": [
        {
          "internalType": "address",
          "name": "",
          "type": "address"
        }
      ],
      "stateMutability": "view",
      "type": "function"
    },
    {
      "inputs": [],
      "name": "s_lastError",
      "outputs": [
        {
          "internalType": "bytes",
          "name": "",
          "type": "bytes"
        }
      ],
      "stateMutability": "view",
      "type": "function"
    },
    {
      "inputs": [],
      "name": "s_lastRequestId",
      "outputs": [
        {
          "internalType": "bytes32",
          "name": "",
          "type": "bytes32"
        }
      ],
      "stateMutability": "view",
      "type": "function"
    },
    {
      "inputs": [],
      "name": "s_lastResponse",
      "outputs": [
        {
          "internalType": "bytes",
          "name": "",
          "type": "bytes"
        }
      ],
      "stateMutability": "view",
      "type": "function"
    },
    {
      "inputs": [
        {
          "internalType": "string",
          "name": "ownerEmail",
          "type": "string"
        },
        {
          "internalType": "string",
          "name": "contractName",
          "type": "string"
        },
        {
          "internalType": "address",
          "name": "contractAddress",
          "type": "address"
        },
        {
          "internalType": "address",
          "name": "activatedBy",
          "type": "address"
        },
        {
          "internalType": "address",
          "name": "safeAddress",
          "type": "address"
        },
        {
          "internalType": "string[]",
          "name": "beneNames",
          "type": "string[]"
        },
        {
          "internalType": "address[]",
          "name": "beneAddresses",
          "type": "address[]"
        }
      ],
      "name": "sendActivatedMutisigToOwner",
      "outputs": [],
      "stateMutability": "nonpayable",
      "type": "function"
    },
    {
      "inputs": [
        {
          "internalType": "string",
          "name": "beneName",
          "type": "string"
        },
        {
          "internalType": "string",
          "name": "beneEmail",
          "type": "string"
        },
        {
          "internalType": "string",
          "name": "contractName",
          "type": "string"
        },
        {
          "internalType": "address[]",
          "name": "listToken",
          "type": "address[]"
        },
        {
          "internalType": "uint256[]",
          "name": "listAmount",
          "type": "uint256[]"
        },
        {
          "internalType": "string[]",
          "name": "listAssetName",
          "type": "string[]"
        },
        {
          "internalType": "address",
          "name": "contractAddress",
          "type": "address"
        },
        {
          "internalType": "bool",
          "name": "remaining",
          "type": "bool"
        }
      ],
      "name": "sendEmailActivatedToBene",
      "outputs": [],
      "stateMutability": "nonpayable",
      "type": "function"
    },
    {
      "inputs": [
        {
          "internalType": "string",
          "name": "toEmail",
          "type": "string"
        },
        {
          "internalType": "string",
          "name": "contractName",
          "type": "string"
        },
        {
          "internalType": "address",
          "name": "activatedByBene",
          "type": "address"
        },
        {
          "internalType": "uint256",
          "name": "timeActivated",
          "type": "uint256"
        },
        {
          "internalType": "address",
          "name": "safeWallet",
          "type": "address"
        },
        {
          "components": [
            {
              "internalType": "address",
              "name": "listToken",
              "type": "address"
            },
            {
              "internalType": "uint256",
              "name": "listAmount",
              "type": "uint256"
            },
            {
              "internalType": "string",
              "name": "listAssetName",
              "type": "string"
            }
          ],
          "internalType": "struct PremiumMailActivated.ListAsset[]",
          "name": "_listAsset",
          "type": "tuple[]"
        },
        {
          "components": [
            {
              "internalType": "string",
              "name": "name",
              "type": "string"
            },
            {
              "internalType": "address",
              "name": "beneAddress",
              "type": "address"
            },
            {
              "internalType": "string[]",
              "name": "listAssetName",
              "type": "string[]"
            },
            {
              "internalType": "uint256[]",
              "name": "listAmount",
              "type": "uint256[]"
            }
          ],
          "internalType": "struct PremiumMailActivated.BeneReceived[]",
          "name": "_listBeneReceived",
          "type": "tuple[]"
        },
        {
          "internalType": "address",
          "name": "contractAddress",
          "type": "address"
        },
        {
          "internalType": "bool",
          "name": "remaining",
          "type": "bool"
        }
      ],
      "name": "sendEmailContractActivatedToOwner",
      "outputs": [],
      "stateMutability": "nonpayable",
      "type": "function"
    },
    {
      "inputs": [
        {
          "internalType": "string[]",
          "name": "beneNames",
          "type": "string[]"
        },
        {
          "internalType": "string[]",
          "name": "beneEmails",
          "type": "string[]"
        },
        {
          "internalType": "string",
          "name": "contractName",
          "type": "string"
        },
        {
          "internalType": "address",
          "name": "safeWallet",
          "type": "address"
        }
      ],
      "name": "sendMailActivatedMultisig",
      "outputs": [],
      "stateMutability": "nonpayable",
      "type": "function"
    },
    {
      "inputs": [
        {
          "internalType": "string[]",
          "name": "beneNames",
          "type": "string[]"
        },
        {
          "internalType": "string[]",
          "name": "beneEmails",
          "type": "string[]"
        },
        {
          "internalType": "string",
          "name": "contractName",
          "type": "string"
        }
      ],
      "name": "sendMailOwnerResetToBene",
      "outputs": [],
      "stateMutability": "nonpayable",
      "type": "function"
    },
    {
      "inputs": [],
      "name": "sendMailRouter",
      "outputs": [
        {
          "internalType": "address",
          "name": "",
          "type": "address"
        }
      ],
      "stateMutability": "view",
      "type": "function"
    },
    {
      "inputs": [
        {
          "internalType": "address",
          "name": "_router",
          "type": "address"
        },
        {
          "internalType": "uint64",
          "name": "_subscriptionId",
          "type": "uint64"
        },
        {
          "internalType": "bytes32",
          "name": "_donId",
          "type": "bytes32"
        },
        {
          "internalType": "uint32",
          "name": "_gasLimit",
          "type": "uint32"
        },
        {
          "internalType": "address",
          "name": "_sendMailRouter",
          "type": "address"
        }
      ],
      "name": "setParams",
      "outputs": [],
      "stateMutability": "nonpayable",
      "type": "function"
    },
    {
      "inputs": [],
      "name": "subscriptionId",
      "outputs": [
        {
          "internalType": "uint64",
          "name": "",
          "type": "uint64"
        }
      ],
      "stateMutability": "view",
      "type": "function"
    },
    {
      "inputs": [
        {
          "internalType": "address",
          "name": "newOwner",
          "type": "address"
        }
      ],
      "name": "transferOwnership",
      "outputs": [],
      "stateMutability": "nonpayable",
      "type": "function"
    }
  ],
  "transactionHash": "0x4477097f48715db1103cc85b856a7930e624b7d5d37f42fdad8864f3925e5ee0",
  "args": [],
  "numDeployments": 1,
  "solcInputHash": "39431884bd6e5fedd36c724181a9c769",
  "bytecode": "0x608080604052346200011a57600080546001600160a01b03191673b83e47c2bc239b3bf370bc41e1459a34b41238d01790557f66756e2d657468657265756d2d7365706f6c69612d31000000000000000000006001556007805463ffffffff1916620493e01790557ff0c57e16840df040f15088dc2f81fe391c3923bec73e23a9662efc9c229c6a0080549091604082901c60ff166200010b57506001600160401b036002600160401b031982821601620000c5575b6040516144de9081620001208239f35b6001600160401b031990911681179091556040519081527fc7f505b2f371ae2175ee4913f4499e1f2633a7b5936321eed1cdaeb6115181d290602090a1388080620000b5565b63f92ee8a960e01b8152600490fd5b600080fdfe6080604052600436101561001257600080fd5b60003560e01c806309c1ba2e146101575780630ca7617514610152578063202a4b3f1461014d5780633944ea3a146101485780633b128e9c146101435780633d1d24d91461013e5780634b0795a8146101395780635e408c65146101345780635eff1bf41461012f5780636e74336b1461012a578063715018a6146101255780637dad97d11461012057806380a42b8d1461011b57806385de9802146101165780638da5cb5b14610111578063b1e217491461010c578063f2fde38b14610107578063f51fb1cf14610102578063f68016b7146100fd5763f887ea40146100f857600080fd5b611165565b611141565b611095565b610ea3565b610e85565b610e4f565b610d2a565b610c43565b610c25565b610bba565b610b9c565b610b00565b6109e3565b6108d1565b61083a565b61079c565b61054a565b610489565b61028d565b3461017e57600036600319011261017e5760206001600160401b0360025416604051908152f35b600080fd5b634e487b7160e01b600052604160045260246000fd5b606081019081106001600160401b038211176101b457604052565b610183565b608081019081106001600160401b038211176101b457604052565b604081019081106001600160401b038211176101b457604052565b602081019081106001600160401b038211176101b457604052565b90601f801991011681019081106001600160401b038211176101b457604052565b6001600160401b0381116101b457601f01601f191660200190565b81601f8201121561017e5780359061025d8261022b565b9261026b604051948561020a565b8284526020838301011161017e57816000926020809301838601378301015290565b3461017e57606036600319011261017e576001600160401b03600480359060243583811161017e576102c29036908301610246565b9060443584811161017e576102da9036908301610246565b9060009460018060a01b03865416330361044557846003540361042d5783519081116101b4576103138161030e84546104b4565b6112fe565b602080601f83116001146103ac575081906103489588926103a1575b50508160011b916000199060031b1c19161790556113bc565b807f7873807bf6ddc50401cd3d29bbe0decee23fd4d68d273f4b5eb83cded4d2f1726040518061037781611525565b0390a27f85e1543bf2f84fe80c6badbce3648c8539ad1df4d2b3d822938ca0538be727e68280a280f35b01519050388061032f565b91929394601f1984166103cf600460005260008051602061446983398151915290565b9389905b82821061041557505091600193918561034898979694106103fc575b505050811b0190556113bc565b015160001960f88460031b161c191690553880806103ef565b806001869782949787015181550196019401906103d3565b60405163d068bf5b60e01b8152808301869052602490fd5b60405162461bcd60e51b8152602081840152601760248201527f4f6e6c7920726f757465722063616e2066756c66696c6c0000000000000000006044820152606490fd5b3461017e57600036600319011261017e576002546040805191901c6001600160a01b03168152602090f35b90600182811c921680156104e4575b60208310146104ce57565b634e487b7160e01b600052602260045260246000fd5b91607f16916104c3565b60005b8381106105015750506000910152565b81810151838201526020016104f1565b9060209161052a815180928185528580860191016104ee565b601f01601f1916010190565b906020610547928181520190610511565b90565b3461017e5760008060031936011261061a57604051908060045461056d816104b4565b808552916001918083169081156105f057506001146105a7575b6105a3856105978187038261020a565b60405191829182610536565b0390f35b9250600483526000805160206144698339815191525b8284106105d8575050508101602001610597826105a3610587565b805460208587018101919091529093019281016105bd565b8695506105a39693506020925061059794915060ff191682840152151560051b8201019293610587565b80fd5b604435906001600160a01b038216820361017e57565b606435906001600160a01b038216820361017e57565b608435906001600160a01b038216820361017e57565b60c435906001600160a01b038216820361017e57565b60e435906001600160a01b038216820361017e57565b35906001600160a01b038216820361017e57565b6001600160401b0381116101b45760051b60200190565b9080601f8301121561017e578135906106ce8261069f565b926106dc604051948561020a565b828452602092838086019160051b8301019280841161017e57848301915b84831061070a5750505050505090565b82356001600160401b03811161017e57869161072b84848094890101610246565b8152019201916106fa565b81601f8201121561017e5780359161074d8361069f565b9261075b604051948561020a565b808452602092838086019260051b82010192831161017e578301905b828210610785575050505090565b8380916107918461068b565b815201910190610777565b3461017e5760e036600319011261017e576001600160401b0360043581811161017e576107cd903690600401610246565b60243582811161017e576107e5903690600401610246565b6107ed61061d565b6107f5610633565b6107fd610649565b9160a43586811161017e576108169036906004016106b6565b9360c43596871161017e57610832610838973690600401610736565b95611bc4565b005b3461017e57606036600319011261017e576001600160401b0360043581811161017e5761086b9036906004016106b6565b60243582811161017e576108839036906004016106b6565b60443592831161017e5761089e610838933690600401610246565b6002549092906108cc906108c59060401c6001600160a01b03165b6001600160a01b031690565b33146115d5565b611cd1565b3461017e5760008060031936011261061a5760405190806005546108f4816104b4565b808552916001918083169081156105f0575060011461091d576105a3856105978187038261020a565b9250600583526000805160206144298339815191525b82841061094e575050508101602001610597826105a3610587565b80546020858701810191909152909301928101610933565b81601f8201121561017e5780359161097d8361069f565b9261098b604051948561020a565b808452602092838086019260051b82010192831161017e578301905b8282106109b5575050505090565b813581529083019083016109a7565b60e43590811515820361017e57565b6101043590811515820361017e57565b3461017e5761010036600319011261017e5760046001600160401b03813581811161017e57610a159036908401610246565b9060243581811161017e57610a2d9036908501610246565b9060443581811161017e57610a459036908601610246565b9060643581811161017e57610a5d9036908701610736565b60843582811161017e57610a749036908801610966565b9160a43590811161017e5761083896610a8f913691016106b6565b92610a9861065f565b94610aa16109c4565b9661160f565b60a090600319011261017e576001600160a01b03600435818116810361017e57916024356001600160401b038116810361017e57916044359160643563ffffffff8116810361017e5791608435908116810361017e5790565b3461017e576108386001600160401b0363ffffffff610b1e36610aa7565b9591929093610b2b61118e565b60018060a01b03166bffffffffffffffffffffffff60a01b6000541617600055166001600160401b031960025416176002556001551663ffffffff19600754161760075560025490600160401b600160e01b039060401b16906001600160401b0363ffffffff60e01b011617600255565b3461017e57600036600319011261017e576020600154604051908152f35b3461017e5760008060031936011261061a57610bd461118e565b60008051602061444983398151915280546001600160a01b0319811690915581906001600160a01b03167f8be0079c531659141344cd1fd0a4f28419497f9722a3daafe3b4186f6b6457e08280a380f35b3461017e57600036600319011261017e576020600654604051908152f35b3461017e57608036600319011261017e576001600160401b0360043581811161017e57610c749036906004016106b6565b60243582811161017e57610c8c9036906004016106b6565b9160443590811161017e57610ca5903690600401610246565b610cad610633565b90610cc660018060a01b0360025460401c1633146115d5565b60005b83518110156108385780610ce0610ceb9287611bab565b5151610cf057611b81565b610cc9565b610d118484610cff8489611bab565b51610d0a858b611bab565b51906132e9565b50610d25610d1f8288611bab565b51614399565b611b81565b3461017e57610d3836610aa7565b9160008051602061448983398151915294939454946001600160401b0360ff8760401c1615961680159081610e47575b6001149081610e3d575b159081610e34575b50610e2257600080516020614489833981519152805467ffffffffffffffff19166001179055610dae9486610dfd5761123b565b610db457005b600080516020614489833981519152805460ff60401b19169055604051600181527fc7f505b2f371ae2175ee4913f4499e1f2633a7b5936321eed1cdaeb6115181d290602090a1005b600080516020614489833981519152805460ff60401b1916600160401b17905561123b565b60405163f92ee8a960e01b8152600490fd5b90501538610d7a565b303b159150610d72565b879150610d68565b3461017e57600036600319011261017e57600080516020614449833981519152546040516001600160a01b039091168152602090f35b3461017e57600036600319011261017e576020600354604051908152f35b3461017e57602036600319011261017e576004356001600160a01b038116810361017e5761083890610ed361118e565b6111c7565b9080601f8301121561017e578135610eef8161069f565b92604091610eff8351958661020a565b808552602093848087019260051b8401019381851161017e57858401925b858410610f2e575050505050505090565b6001600160401b03843581811161017e57860191606080601f19858803011261017e57845190610f5d82610199565b610f688b860161068b565b8252858501358b83015284013592831161017e57610f8d868b80969581960101610246565b85820152815201930192610f1d565b9080601f8301121561017e578135610fb38161069f565b92604091610fc38351958661020a565b808552602093848087019260051b8401019381851161017e57858401925b858410610ff2575050505050505090565b6001600160401b03843581811161017e57860191608080601f19858803011261017e57845190611021826101b9565b8a85013584811161017e57878c61103a92880101610246565b825261104786860161068b565b8b8301526060908186013585811161017e57888d611067928901016106b6565b8784015285013593841161017e57611086878c80979681970101610966565b90820152815201930192610fe1565b3461017e5761012036600319011261017e576001600160401b0360043581811161017e576110c7903690600401610246565b60243582811161017e576110df903690600401610246565b906110e861061d565b906110f1610649565b60a43585811161017e57611109903690600401610ed8565b9060c43595861161017e57611125610838963690600401610f9c565b9261112e610675565b946111376109d3565b96606435926117cc565b3461017e57600036600319011261017e57602063ffffffff60075416604051908152f35b3461017e57600036600319011261017e576000546040516001600160a01b039091168152602090f35b600080516020614449833981519152546001600160a01b031633036111af57565b60405163118cdaa760e01b8152336004820152602490fd5b6001600160a01b039081169081156112225760008051602061444983398151915280546001600160a01b031981168417909155167f8be0079c531659141344cd1fd0a4f28419497f9722a3daafe3b4186f6b6457e0600080a3565b604051631e4fbdf760e01b815260006004820152602490fd5b600080546001600160a01b0319166001600160a01b03909216919091179055600280546001939093556007805463ffffffff191663ffffffff909516949094179093556001600160e01b03199091166001600160401b03919091161760409290921b68010000000000000000600160e01b03169190911790556112bc6112cf565b6112c46112cf565b6112cd336111c7565b565b60ff6000805160206144898339815191525460401c16156112ec57565b604051631afcd79f60e31b8152600490fd5b601f811161130a575050565b60009060048252600080516020614469833981519152906020601f850160051c83019410611353575b601f0160051c01915b82811061134857505050565b81815560010161133c565b9092508290611333565b601f8111611369575050565b60009060058252600080516020614429833981519152906020601f850160051c830194106113b2575b601f0160051c01915b8281106113a757505050565b81815560010161139b565b9092508290611392565b9081516001600160401b0381116101b4576113e1816113dc6005546104b4565b61135d565b602080601f831160011461141d5750819293600092611412575b50508160011b916000199060031b1c191617600555565b0151905038806113fb565b90601f1983169461143e600560005260008051602061442983398151915290565b926000905b87821061147b575050836001959610611462575b505050811b01600555565b015160001960f88460031b161c19169055388080611457565b80600185968294968601518155019501930190611443565b600554600092916114a3826104b4565b8082529160019081811690811561150857506001146114c157505050565b919293506005600052600080516020614429833981519152916000925b8484106114f057505060209250010190565b805460208585018101919091529093019281016114de565b915050602093945060ff929192191683830152151560051b010190565b604081526000600454611537816104b4565b9081604085015260019081811690816000146115b05750600114611569575b5050816020610547938303910152611493565b6004600090815292506000805160206144698339815191525b82841061159a57505050810160600161054738611556565b8054606085870101526020909301928101611582565b9050610547949350606092915060ff191682840152151560051b820101909138611556565b156115dc57565b60405162461bcd60e51b815260206004820152600b60248201526a27b7363c903937baba32b960a91b6044820152606490fd5b909660018060a01b039061162b8260025460401c1633146115d5565b611649575091869593916112cd97611643969461211b565b50614399565b939791969061165a88979497612c21565b90611663611dc8565b946000955b895187101561177a5761168b61167e888c611bab565b516001600160a01b031690565b908882168d81156117625750604051809163313ce56760e01b825281600460209384935afa93841561175d578f928b6116d96116f7976116df936116e596600092611730575b505093612235565b94611bab565b51612411565b906116f08a8d611bab565b5192611e2c565b95866117038b51611eef565b821061171a575b5061171490611b81565b95611668565b61171491975061172990611f0d565b969061170a565b61174f9250803d10611756575b611747818361020a565b810190611df0565b38806116d1565b503d61173d565b611e09565b90506116e56116f7936116df8b6116d9601293612235565b6117b8959b506117b194995061164398506117c797506112cd9a91929396506117a56117ab91611f45565b92612235565b92612cab565b918561282d565b906117c1612a54565b916120c7565b6134f6565b9897939295919496909760018060a01b0399600254966117f38c6040998a1c1633146115d5565b6117fd8a51612f93565b98611806611dc8565b976000985b8c518a101561194c578e908a8c8f8f6118356118278584611bab565b51516001600160a01b031690565b936118466108b96118278386611bab565b1561193057505050600493602091519485809263313ce56760e01b825285165afa801561175d578f918f918f918f906118a86116d9916118a36118d2956118db9b600091611911575b505b61189b868a611bab565b9060ff169052565b612235565b946118cc6118c58460206118bc828c611bab565b51015193611bab565b5160ff1690565b90612411565b51015192611e2c565b986118e68d51611eef565b81106118fc575b6118f690611b81565b9861180b565b986119096118f691611f0d565b9990506118ed565b61192a915060203d60201161175657611747818361020a565b3861188f565b6118db96506116d96118a86118d2939594966118a36012611891565b919497985092959a5061196591949b9c50989798611f45565b9a61196e612fbb565b9b60009c5b8d8c511115611aef579b8b6119b78f9e8f6119b16118a360206119a26119998589611bab565b51519488611bab565b5101516001600160a01b031690565b91612feb565b9d60606119ce6119c5611db5565b92600094611bab565b51015151821015611a9357918f828f9e9d9c9a9896948f9c9a9896948f8f8f611a4d9481611a3786611a4496611a228c611a3181996118cc6118c58760609f606090611a2a91611a3e9f89611a2291611bab565b510151611bab565b5193611bab565b95611bab565b519161308d565b9f611bab565b51015151611eef565b8110611a75575b606091611a636119ce92611b81565b9496989a9c939597999b9d9e9f611bab565b9a606091611a63611a886119ce93611f0d565b9d9250509150611a54565b611ace92939495969798999a9f9b9c9e611ac89250611abd8f92611ab6906130f9565b9251611eef565b8d10611adf57613133565b99611b81565b9c97969594939291909b9998611973565b90611ae990611f0d565b90613133565b6117b8979d50611b5c969b506116439a506117c7995097611b186112cd9d929394959699611f45565b93611b48611b42611b42611b3d611b37611b3186612e1c565b9e612235565b9a6122d7565b612911565b93612235565b9515611b6357611b5661318a565b966131ab565b9185612861565b611b56613168565b634e487b7160e01b600052601160045260246000fd5b6000198114611b905760010190565b611b6b565b634e487b7160e01b600052603260045260246000fd5b8051821015611bbf5760209160051b010190565b611b95565b90959492939691611be360018060a01b0360025460401c1633146115d5565b604051611bef816101d4565b601081526f62656e656669636961726965733a205b60801b6020820152946000955b8751871015611c7557611c3f90611c288888611bab565b51611c396118a361167e8b8d611bab565b91612d8a565b95611c4a8851611eef565b8110611c60575b611c5a90611b81565b95611c11565b95611c6d611c5a91611f0d565b969050611c51565b6117b893975061164396506117c7955097611cca929499611c986112cd9a611f45565b92611cb4611cae611ca885612e1c565b98612235565b91612235565b90611cc4611b42611b3d426122d7565b93612e61565b9185612847565b9291909260005b8151811015611dae5780611cef611cfa9287611bab565b5151611cff57611b81565b611cd8565b611d9a6117c7611d0f8386611bab565b516117b8611d1d858b611bab565b5191611d948960405192611d8f604a8560207f5468652061637469766174696f6e2074696d656c696e65206f66200000000000818301526e081a185cc81899595b881c995cd95d608a1b8651611d7b81603b94858701908b016104ee565b83019182015203602a81018752018561020a565b613426565b9261261c565b50610d25611da88288611bab565b516143ec565b5050509050565b60405190611dc2826101ef565b60008252565b60405190611dd5826101d4565b600c82526b6c69737441737365743a205b60a01b6020830152565b9081602091031261017e575160ff8116810361017e5790565b6040513d6000823e3d90fd5b90611e28602092828151948592016104ee565b0190565b906112cd929493604f92611ed46040519788948351611e538160209687808b0191016104ee565b860170202020207b6173736574416464723a202760781b85820152611e8182518093876031850191016104ee565b016b272c20616d6f756e743a202760a01b6031820152611eaa8251809386603d850191016104ee565b01916e272c2061737365744e616d653a202760881b603d8401528351938491604c850191016104ee565b016227207d60e81b604c82015203602f81018552018361020a565b600019810191908211611b9057565b601f19810191908211611b9057565b906112cd602160405184611f2b8296518092602080860191016104ee565b8101600b60fa1b602082015203600181018552018361020a565b906112cd602160405184611f638296518092602080860191016104ee565b8101605d60f81b602082015203600181018552018361020a565b906112cd604f60405184611f9b8296518092602080860191016104ee565b81017f20416374697661746564202d20596f752068617665205265636569766564205960208201526e6f757220496e6865726974616e636560881b604082015203602f81018552018361020a565b60599194936112cd936040519687936c2062656e655f6e616d653a202760981b6020860152612022815180926020602d890191016104ee565b840173272c2020636f6e74726163745f6e616d653a202760601b602d8201526120558251809360206041850191016104ee565b016109cb60f21b60418201526120758251809360206043850191016104ee565b01742c20636f6e74726163745f616464726573733a202760581b60438201526120a88251809360206058850191016104ee565b016120b960588201602760f81b9052565b03603981018552018361020a565b6112cd9193929360405194859183516120e8816020968780880191016104ee565b83016120fc825180938780850191016104ee565b0161210f825180938680850191016104ee565b0103808552018361020a565b929493969195612129611dc8565b936000945b87518610156121f45761214461167e878a611bab565b906001600160a01b0382168b81156121dc5750604051809163313ce56760e01b825281600460209384935afa93841561175d576116df8a8f946121a3976116d9916121989660009261173057505093612235565b906116f0898b611bab565b94856121af8951611eef565b82106121c6575b506121c090611b81565b9461212e565b6121c09196506121d590611f0d565b95906121b6565b90506121986121a3936116df8a6116d9601293612235565b6105479891929499506117c7975061222f9396506117b8955061221690611f45565b9061222961222382611f7d565b95612235565b92611fe9565b92612813565b6001600160a01b03168061224761231f565b916030612253846123a0565b53607861225f846123ad565b5360295b600181116122955750612274575090565b60405163e22e27eb60e01b8152600481019190915260146024820152604490fd5b90600f8116906010821015611bbf576122d2916f181899199a1a9b1b9c1cb0b131b232b360811b901a6122c884876123bd565b5360041c916123ce565b612263565b906103e891828102928184041490151715611b9057565b908160011b9180830460021490151715611b9057565b9060208201809211611b9057565b91908201809211611b9057565b6040519061232c82610199565b602a82526040366020840137565b60405190612347826101d4565b6006825260203681840137565b60405190612361826101d4565b6007825260203681840137565b906123788261022b565b612385604051918261020a565b8281528092612396601f199161022b565b0190602036910137565b805115611bbf5760200190565b805160011015611bbf5760210190565b908151811015611bbf570160200190565b8015611b90576000190190565b60ff16604d8111611b9057600a0a90565b634e487b7160e01b600052601260045260246000fd5b811561240c570490565b6123ec565b9060ff811680156124e557612425826123db565b91821561240c57612435906123db565b801561240c57830690806006106124a3575b509161249561246e61054793612467612462612482976124ec565b612586565b93046124ec565b9161248f6040519586946020860190611e15565b601760f91b815260010190565b90611e15565b03601f19810183528261020a565b9092906005190160ff8111611b905761246e610547936124676124626124d8612482986124d2612495976123db565b90612402565b9597505050935050612447565b5050610547905b8015612568576000818181805b61255057506125078161236e565b935b6125135750505090565b61251c90611eef565b90600a9060308282068101809111611b905760f81b6001600160f81b031916841a61254784876123bd565b53049081612509565b915061255d600a91611b81565b9104808492916124f9565b50604051612575816101d4565b60018152600360fc1b602082015290565b906006825110156112cd5761259961233a565b825160060360068111611b9057600093845b8281106126075750845b81518110156125ff57806125dd6125cf6125fa93856123bd565b516001600160f81b03191690565b6125f46125ea8387612312565b91891a91876123bd565b53611b81565b6125b5565b509193505050565b8060306125f461261793876123bd565b6125ab565b906040519061262a826101ef565b60008252612636612895565b604051938493602085017f636f6e737420656d61696c55524c203d202768747470733a2f2f6170692e6d6190526040850174696c6a65742e636f6d2f76332e312f73656e64273b60581b9052605585017f636f6e73742061757468486561646572203d2027426173696320000000000000905280519081606f870191602001916126bf926104ee565b8401606f81016126d39061273b60f01b9052565b7f636f6e737420656d61696c44617461203d207b204d657373616765733a20000060718201527f5b207b2046726f6d3a207b456d61696c3a20276170704031303130322e696f27608f8201527f2c204e616d653a2027313031303220506c6174666f726d272c7d2c000000000060af82015260ca016e546f3a205b207b456d61696c3a202760881b8152600f0161276991611e15565b6e09cb0813985b594e89c9cb1f4b174b608a1b81526b02a32b6b83630ba32a4a21d160a51b600f820152601b0161279f91611e15565b7f2c2054656d706c6174654c616e67756167653a20747275652c000000000000008152695375626a6563743a202760b01b60198201526023016127e191611e15565b6109cb60f21b81526b5661726961626c65733a207b60a01b60028201520360111981018252600e01610547908261020a565b9060405190612821826101ef565b600082526126366128d5565b906040519061283b826101ef565b600082526126366128e1565b9060405190612855826101ef565b600082526126366128ed565b906040519061286f826101ef565b600082526126366128f9565b9060405190612889826101ef565b60008252612636612905565b626e1f736128a1612354565b90602782015b6000190190600a906f181899199a1a9b1b9c1cb0b131b232b360811b8282061a83530490816128a757505090565b626e1f6f6128a1612354565b626e1f706128a1612354565b627144186128a1612354565b626e1f726128a1612354565b626e1f716128a1612354565b806000917a184f03e93ff9f4daa797ed6e38ed64bf6a1f01000000000000000080821015612a46575b506d04ee2d6d415b85acef810000000080831015612a37575b50662386f26fc1000080831015612a28575b506305f5e10080831015612a19575b5061271080831015612a0a575b5060648210156129fa575b600a809210156129f0575b6001908160216129a882870161236e565b95860101905b6129ba575b5050505090565b600019019083906f181899199a1a9b1b9c1cb0b131b232b360811b8282061a8353049182156129eb579190826129ae565b6129b3565b9160010191612997565b919060646002910491019161298c565b60049193920491019138612981565b60089193920491019138612974565b60109193920491019138612965565b60209193920491019138612953565b60409350810491503861293a565b604051677d2c7d2c5d2c7d3b60c01b60208201527f636f6e737420726573706f6e7365203d2061776169742046756e6374696f6e736028820152712e6d616b654874747052657175657374287b60701b60488201526f08081d5c9b0e88195b585a5b1554930b60821b605a8201527008081b595d1a1bd90e8809d413d4d509cb607a1b606a8201527f2020686561646572733a207b2027436f6e74656e742d54797065273a20276170607b8201527f706c69636174696f6e2f6a736f6e272c2027417574686f72697a6174696f6e27609b8201526e0e88185d5d1a12195859195c881f4b608a1b60bb820152702020646174613a20656d61696c4461746160781b60ca820152627d293b60e81b60db8201527f69662028726573706f6e73652e6572726f7229207468726f77204572726f722860de8201527f604661696c656420746f2073656e6420656d61696c3a20247b4a534f4e2e737460fe8201527472696e6769667928726573706f6e7365297d60293b60581b61011e8201527f72657475726e2046756e6374696f6e732e656e636f6465537472696e672827456101338201526c6d61696c2073656e742127293b60981b6101538201526101408152906112cd6101608361020a565b906112cd606760405184612c3f8296518092602080860191016104ee565b81017f2041637469766174656420776974682052656d61696e696e672046756e64732060208201527f2d20596f752068617665205265636569766564205061727469616c20496e6865604082015266726974616e636560c81b606082015203604781018552018361020a565b605a9194936112cd936040519687936d202062656e655f6e616d653a202760901b6020860152612ce5815180926020602e890191016104ee565b840173272c2020636f6e74726163745f6e616d653a202760601b602e820152612d188251809360206042850191016104ee565b016109cb60f21b6042820152612d388251809360206044850191016104ee565b01742c20636f6e74726163745f616464726573733a202760581b6044820152612d6b8251809360206059850191016104ee565b01612d7c60598201602760f81b9052565b03603a81018552018361020a565b603b906112cd9294936040519582612dac8894518092602080880191016104ee565b83016a20207b206e616d653a202760a81b6020820152612dd6825180936020602b850191016104ee565b016c272c20616464726573733a202760981b602b820152612e018251809360206038850191016104ee565b016227207d60e81b603882015203601b81018552018361020a565b906112cd602e60405184612e3a8296518092602080860191016104ee565b81016d0815d85cc81058dd1a5d985d195960921b602082015203600e81018552018361020a565b93919594929095604051968795602087016f636f6e74726163745f6e616d653a202760801b905280519081603089019160200191612e9e926104ee565b86016030810175272c20636f6e74726163745f616464726573733a202760501b905281519182604683019160200191612ed6926104ee565b01604681017f272c2062656e65666963696172795f616464726573733a202700000000000000905281519182605f83019160200191612f14926104ee565b01605f81017f272c202061637469766174696f6e5f646174653a206e657720446174652800009052607d01612f4891611e15565b71292c20736166655f616464726573733a202760701b8152601201612f6c91611e15565b6201396160ed1b8152600301612f8191611e15565b03601f19810183526112cd908361020a565b90612f9d8261069f565b612faa604051918261020a565b8281528092612396601f199161069f565b60405190612fc8826101d4565b60148252736c69737442656e656669636961726965733a205b60601b6020830152565b604b906112cd929493604051958261300d8894518092602080880191016104ee565b83016f202020207b62656e654e616d653a202760801b602082015261303c8251809360206030850191016104ee565b016d272c2062656e65416464723a202760901b6030820152613068825180936020603e850191016104ee565b016c272c20616d6f756e74733a202760981b603e82015203602b81018552018361020a565b6112cd9160229194939460405195869282516130b1816020958680890191016104ee565b84016130c5825180938680850191016104ee565b016130e4600160fd1b93848184015283519384916021850191016104ee565b0190602182015203600281018552018361020a565b906112cd6023604051846131178296518092602080860191016104ee565b81016227207d60e81b602082015203600381018552018361020a565b60206112cd91939293604051948161315487935180928680870191016104ee565b820161210f825180938680850191016104ee565b60405190613175826101d4565b600682526566616c73652760d01b6020830152565b60405190613197826101d4565b6005825264747275652760d81b6020830152565b959391979694929097604051988997602089016c2062656e655f616464723a202760981b905280519081602d8b0191602001916131e7926104ee565b8801602d810173272c2020636f6e74726163745f6e616d653a202760601b90528151918260418301916020019161321d926104ee565b016041810161324b907f272c20206163746976655f646174653a206e65772044617465280000000000009052565b605b0161325791611e15565b70292c20736166655f77616c6c65743a202760781b815260110161327a91611e15565b6109cb60f21b815260020161328e91611e15565b600b60fa1b81526001016132a191611e15565b742c20636f6e74726163745f616464726573733a202760581b81526015016132c891611e15565b6e272c2072656d61696e696e673a202760881b8152600f01612f8191611e15565b610547936133d89261342160526117b8946117c797604051957f596f752048617665204265656e204164646564206173206120436f2d5369676e60208801527f657220746f2074686520536166652057616c6c657420666f7220000000000000604088015261337c8251916118a3605a8a602087019561336c81848401896104ee565b810103603a81018c52018a61020a565b91604051998a946b62656e655f6e616d653a202760a01b60208701526133ac815180926020602c8a0191016104ee565b85019172272c20636f6e74726163745f6e616d653a202760681b602c840152518093603f8401906104ee565b0171272c20736166655f616464726573733a202760701b603f8201526134088251809360206051850191016104ee565b01602760f81b605182015203603281018752018561020a565b61287b565b60406112cd9193929381519485916b62656e655f6e616d653a202760a01b602084015261345d815180926020602c870191016104ee565b820172272c20636f6e74726163745f6e616d653a202760681b602c82015261348f825180936020603f850191016104ee565b01602760f81b603f82015203602081018552018361020a565b9081602091031261017e575190565b906134e46080936001600160401b0363ffffffff939897969816845260a0602085015260a0840190610511565b95600160408401521660608201520152565b60405160e081018181106001600160401b038211176101b45760405261354860009283835283602084015283604084015260608084015260606080840152606060a0840152606060c0840152826138ff565b8154602090613561906108b9906001600160a01b031681565b61357c6135766002546001600160401b031690565b93613731565b9061358c60075463ffffffff1690565b9185600154956135b26040519788968795869463230e93b160e11b8652600486016134b7565b03925af190811561175d576135cd92916135d3575b50600355565b60035490565b6135f4915060203d81116135fa575b6135ec818361020a565b8101906134a8565b386135c7565b503d6135e2565b6040519061360e826101d4565b600c82526b31b7b232a637b1b0ba34b7b760a11b6020830152565b634e487b7160e01b600052602160045260246000fd5b6003111561364957565b613629565b6040519061365b826101d4565b60088252676c616e677561676560c01b6020830152565b6001111561364957565b60405190613689826101d4565b6006825265736f7572636560d01b6020830152565b604051906136ab826101d4565b60048252636172677360e01b6020830152565b604051906136cb826101d4565b600f82526e39b2b1b932ba39a637b1b0ba34b7b760891b6020830152565b604051906136f6826101d4565b60078252667365637265747360c81b6020830152565b60405190613719826101d4565b600982526862797465734172677360b81b6020830152565b613739613942565b9061374b613745613601565b8361405a565b61376881516137598161363f565b6137628161363f565b836139e4565b61377361374561364e565b61378d604082015161378481613672565b61376281613672565b61379861374561367c565b6137a660608201518361405a565b60a081018051516138a6575b506080810190815151613826575b60c09150018051516137d3575b50515190565b916137df61374561370c565b6137e8826140de565b60005b835180518210156138135790610d256138078261380e94611bab565b5185613fa5565b6137eb565b505091506138208161416a565b386137cd565b6020810180516138358161363f565b61383e8161363f565b156138945760c09261387761388f9261385e6138586136be565b8861405a565b516138688161363f565b6138718161363f565b866139e4565b6138886138826136e9565b8661405a565b5184613fa5565b6137c0565b60405163a80d31f760e01b8152600490fd5b926138b86138b261369e565b8461405a565b6138c1836140de565b60005b845180518210156138ec5790610d256138e0826138e794611bab565b518661405a565b6138c4565b505092506138f98261416a565b386137b2565b815115613916576000808252604082015260600152565b6040516322ce3edd60e01b8152600490fd5b60405190613935826101d4565b6000602083606081520152565b60405161394e816101d4565b613956613928565b8082526020820160008152613969613928565b50610100602083015260405180925260008252610120820191821061017e576000916040525290565b9061399b613928565b50601f8116806139ca575b508060208301526040519081835260008252810160200190811061017e5760405290565b60200360208111611b90578101809111611b9057386139a6565b908151916139f0613928565b508251516001810190818111611b90576020850151811015613a49575b60c260206112cd9651928301015380518211613a41575b505060405191602083015260208252613a3c826101d4565b613fa5565b523880613a24565b8160011b9482860460021483151715611b9057602081613a7b6112cd98613a7460c295519184613992565b5082613eed565b5096505050613a0d565b613a8d613928565b508051516001810190818111611b90576020830151811015613ac6575b605b60208451928301015380518211613ac257505090565b5290565b8160011b82810460021483151715611b9057613aef90613ae885519186613992565b5084613eed565b50613aaa565b613afd613928565b508051516001810190818111611b90576020830151811015613b32575b605a60208451928301015380518211613ac257505090565b8160011b82810460021483151715611b9057613b5490613ae885519186613992565b50613b1a565b613b62613928565b508051516001810190818111611b90576020830151811015613b97575b605960208451928301015380518211613ac257505090565b8160011b82810460021483151715611b9057613bb990613ae885519186613992565b50613b7f565b613bc7613928565b508051516001810190818111611b90576020830151811015613bfc575b605860208451928301015380518211613ac257505090565b8160011b82810460021483151715611b9057613c1e90613ae885519186613992565b50613be4565b613c2c613928565b508051516001810190818111611b90576020830151811015613c61575b607b60208451928301015380518211613ac257505090565b8160011b82810460021483151715611b9057613c8390613ae885519186613992565b50613c49565b613c91613928565b508051516001810190818111611b90576020830151811015613cc6575b607a60208451928301015380518211613ac257505090565b8160011b82810460021483151715611b9057613ce890613ae885519186613992565b50613cae565b613cf6613928565b508051516001810190818111611b90576020830151811015613d2b575b607960208451928301015380518211613ac257505090565b8160011b82810460021483151715611b9057613d4d90613ae885519186613992565b50613d13565b613d5b613928565b508051516001810190818111611b90576020830151811015613d90575b607860208451928301015380518211613ac257505090565b8160011b82810460021483151715611b9057613db290613ae885519186613992565b50613d78565b90613dc1613928565b508151516001810191828211611b90576020840151821015613df4575b60208451928301015380518211613ac257505090565b8260011b83810460021484151715611b9057613e1d90613e1686519187613992565b5085613eed565b50613dde565b90613e3082519183613992565b50613e39613928565b50805190613e45613928565b50613e538151831115613f9e565b82515192613e618385612312565b916020928284809401518211613ed6575b5183815197820101968211613ece575b505001915b81811015613ea85760001991036101000a0190811990511690825116179052565b9192613ec3613ebd613ec99286518152612304565b94612304565b92611efe565b613e87565b523880613e82565b613ee8613ee2836122ee565b82613e23565b613e72565b90613ef6613928565b508051613f01613928565b50613f0f8251821115613f9e565b82515191613f1d8284612312565b6020918291828701518111613f87575b865183815197820101968211613f7f575b505001915b81811015613f655760001991036101000a019081199051169082511617905290565b9192613ec3613ebd613f7a9286518152612304565b613f43565b523880613f3e565b613f99613f93826122ee565b88613e23565b613f2d565b1561017e57565b8151613fdc9291906001600160401b0381169060178211613fdf57613fd49150604060ff845192161790613db8565b505b51613eed565b50565b5060ff811161400457613ffe90613ff68351613bbf565b508251614333565b50613fd6565b61ffff811161402357613ffe9061401b8351613b5a565b5082516142cc565b63ffffffff811161404457613ffe9061403c8351613af5565b508251614263565b613ffe906140528351613a85565b5082516141f7565b8151613fdc9291906001600160401b038116906017821161408957613fd49150606060ff845192161790613db8565b5060ff81116140a057613ffe90613ff68351613d53565b61ffff81116140b757613ffe9061401b8351613cee565b63ffffffff81116140d057613ffe9061403c8351613c89565b613ffe906140528351613c24565b8051906140e9613928565b508151516001810190818111611b90576020840151811015614137575b609f602080955192830101538051821161412f575b50500180519060018201809211611b905752565b52388061411b565b8160011b9382850460021483151715611b90576020816141608297613a74609f95519184613992565b5095505050614106565b805190614175613928565b508151516001810190818111611b905760208401518110156141c4575b60ff60208095519283010153805182116141bc575b5050018051600019810191908211611b905752565b5238806141a7565b8160011b9382850460021483151715611b90576020816141ed8297613a7460ff95519184613992565b5095505050614192565b90614200613928565b50815151806008019182600811611b905760208401518311614242575b6008845192830101906001600160401b031982511617905280518211613ac257505090565b8260011b83810460021484151715611b905761425e9085613e23565b61421d565b9061426c613928565b50815151806004019182600411611b9057602084015183116142ab575b60048451928301019063ffffffff1982511617905280518211613ac257505090565b8260011b83810460021484151715611b90576142c79085613e23565b614289565b906142d5613928565b50815151806002019182600211611b905760208401518311614312575b60028451928301019061ffff1982511617905280518211613ac257505090565b8260011b83810460021484151715611b905761432e9085613e23565b6142f2565b9061433c613928565b50815151806001019182600111611b905760208401518311614378575b60018451928301019060ff1982511617905280518211613ac257505090565b8260011b83810460021484151715611b90576143949085613e23565b614359565b6143e07fe945c25e663b7f927fca5b167e9d99e30aac67d2f2c39fac12b6618f57481e92916143c9600654611b81565b600655604051918291604083526040830190610511565b600860208301520390a1565b61441c7fe945c25e663b7f927fca5b167e9d99e30aac67d2f2c39fac12b6618f57481e92916143c9600654611b81565b600960208301520390a156fe036b6384b5eca791c62761152d0c79bb0604c104a5fb6f4eb0703f3154bb3db09016d09d72d40fdae2fd8ceac6b6234c7706214fd39c1cd1e609a0528c1993008a35acfbc15ff81a39ae7d344fd709f28e8600b4aa8c65c6b64bfe7fe36bd19bf0c57e16840df040f15088dc2f81fe391c3923bec73e23a9662efc9c229c6a00a2646970667358221220523ffe4a32f1209f5c5ea388f8a0b4f9401b71a3d2c179d56cfb3d518a6ab9b164736f6c63430008140033",
  "devdoc": {
    "errors": {
      "InvalidInitialization()": [
        {
          "details": "The contract is already initialized."
        }
      ],
      "NotInitializing()": [
        {
          "details": "The contract is not initializing."
        }
      ],
      "OwnableInvalidOwner(address)": [
        {
          "details": "The owner is not a valid owner account. (eg. `address(0)`)"
        }
      ],
      "OwnableUnauthorizedAccount(address)": [
        {
          "details": "The caller account is not authorized to perform an operation."
        }
      ],
      "StringsInsufficientHexLength(uint256,uint256)": [
        {
          "details": "The `value` string doesn't fit in the specified `length`."
        }
      ]
    },
    "events": {
      "Initialized(uint64)": {
        "details": "Triggered when the contract has been initialized or reinitialized."
      }
    },
    "kind": "dev",
    "methods": {
      "owner()": {
        "details": "Returns the address of the current owner."
      },
      "renounceOwnership()": {
        "details": "Leaves the contract without owner. It will not be possible to call `onlyOwner` functions. Can only be called by the current owner. NOTE: Renouncing ownership will leave the contract without an owner, thereby disabling any functionality that is only available to the owner."
      },
      "transferOwnership(address)": {
        "details": "Transfers ownership of the contract to a new account (`newOwner`). Can only be called by the current owner."
      }
    },
    "version": 1
  },
  "userdoc": {
    "kind": "user",
    "methods": {},
    "version": 1
  },
  "storageLayout": {
    "storage": [
      {
        "astId": 25814,
        "contract": "contracts/premium/PremiumMailActivated.sol:PremiumMailActivated",
        "label": "router",
        "offset": 0,
        "slot": "0",
        "type": "t_address"
      },
      {
        "astId": 25817,
        "contract": "contracts/premium/PremiumMailActivated.sol:PremiumMailActivated",
        "label": "donID",
        "offset": 0,
        "slot": "1",
        "type": "t_bytes32"
      },
      {
        "astId": 25819,
        "contract": "contracts/premium/PremiumMailActivated.sol:PremiumMailActivated",
        "label": "subscriptionId",
        "offset": 0,
        "slot": "2",
        "type": "t_uint64"
      },
      {
        "astId": 25821,
        "contract": "contracts/premium/PremiumMailActivated.sol:PremiumMailActivated",
        "label": "sendMailRouter",
        "offset": 8,
        "slot": "2",
        "type": "t_address"
      },
      {
        "astId": 25826,
        "contract": "contracts/premium/PremiumMailActivated.sol:PremiumMailActivated",
        "label": "s_lastRequestId",
        "offset": 0,
        "slot": "3",
        "type": "t_bytes32"
      },
      {
        "astId": 25828,
        "contract": "contracts/premium/PremiumMailActivated.sol:PremiumMailActivated",
        "label": "s_lastResponse",
        "offset": 0,
        "slot": "4",
        "type": "t_bytes_storage"
      },
      {
        "astId": 25830,
        "contract": "contracts/premium/PremiumMailActivated.sol:PremiumMailActivated",
        "label": "s_lastError",
        "offset": 0,
        "slot": "5",
        "type": "t_bytes_storage"
      },
      {
        "astId": 25832,
        "contract": "contracts/premium/PremiumMailActivated.sol:PremiumMailActivated",
        "label": "mailId",
        "offset": 0,
        "slot": "6",
        "type": "t_uint256"
      },
      {
        "astId": 25835,
        "contract": "contracts/premium/PremiumMailActivated.sol:PremiumMailActivated",
        "label": "gasLimit",
        "offset": 0,
        "slot": "7",
        "type": "t_uint32"
      }
    ],
    "types": {
      "t_address": {
        "encoding": "inplace",
        "label": "address",
        "numberOfBytes": "20"
      },
      "t_bytes32": {
        "encoding": "inplace",
        "label": "bytes32",
        "numberOfBytes": "32"
      },
      "t_bytes_storage": {
        "encoding": "bytes",
        "label": "bytes",
        "numberOfBytes": "32"
      },
      "t_uint256": {
        "encoding": "inplace",
        "label": "uint256",
        "numberOfBytes": "32"
      },
      "t_uint32": {
        "encoding": "inplace",
        "label": "uint32",
        "numberOfBytes": "4"
      },
      "t_uint64": {
        "encoding": "inplace",
        "label": "uint64",
        "numberOfBytes": "8"
      }
    }
  }
}