{
  "address": "0x337EDd5B46dC143CF8cC6d34EF309F508866C212",
  "abi": [
    {
      "inputs": [],
      "stateMutability": "nonpayable",
      "type": "constructor"
    },
    {
      "inputs": [],
      "name": "EmptySource",
      "type": "error"
    },
    {
      "inputs": [],
      "name": "InvalidInitialization",
      "type": "error"
    },
    {
      "inputs": [],
      "name": "NoInlineSecrets",
      "type": "error"
    },
    {
      "inputs": [],
      "name": "NotInitializing",
      "type": "error"
    },
    {
      "inputs": [],
      "name": "OnlyRouterCanFulfill",
      "type": "error"
    },
    {
      "inputs": [
        {
          "internalType": "address",
          "name": "owner",
          "type": "address"
        }
      ],
      "name": "OwnableInvalidOwner",
      "type": "error"
    },
    {
      "inputs": [
        {
          "internalType": "address",
          "name": "account",
          "type": "address"
        }
      ],
      "name": "OwnableUnauthorizedAccount",
      "type": "error"
    },
    {
      "inputs": [
        {
          "internalType": "uint256",
          "name": "value",
          "type": "uint256"
        },
        {
          "internalType": "uint256",
          "name": "length",
          "type": "uint256"
        }
      ],
      "name": "StringsInsufficientHexLength",
      "type": "error"
    },
    {
      "inputs": [
        {
          "internalType": "bytes32",
          "name": "requestId",
          "type": "bytes32"
        }
      ],
      "name": "UnexpectedRequestID",
      "type": "error"
    },
    {
      "anonymous": false,
      "inputs": [
        {
          "indexed": false,
          "internalType": "uint64",
          "name": "version",
          "type": "uint64"
        }
      ],
      "name": "Initialized",
      "type": "event"
    },
    {
      "anonymous": false,
      "inputs": [
        {
          "indexed": true,
          "internalType": "address",
          "name": "previousOwner",
          "type": "address"
        },
        {
          "indexed": true,
          "internalType": "address",
          "name": "newOwner",
          "type": "address"
        }
      ],
      "name": "OwnershipTransferred",
      "type": "event"
    },
    {
      "anonymous": false,
      "inputs": [
        {
          "indexed": true,
          "internalType": "bytes32",
          "name": "id",
          "type": "bytes32"
        }
      ],
      "name": "RequestFulfilled",
      "type": "event"
    },
    {
      "anonymous": false,
      "inputs": [
        {
          "indexed": true,
          "internalType": "bytes32",
          "name": "id",
          "type": "bytes32"
        }
      ],
      "name": "RequestSent",
      "type": "event"
    },
    {
      "anonymous": false,
      "inputs": [
        {
          "indexed": true,
          "internalType": "bytes32",
          "name": "requestId",
          "type": "bytes32"
        },
        {
          "indexed": false,
          "internalType": "bytes",
          "name": "response",
          "type": "bytes"
        },
        {
          "indexed": false,
          "internalType": "bytes",
          "name": "err",
          "type": "bytes"
        }
      ],
      "name": "Response",
      "type": "event"
    },
    {
      "anonymous": false,
      "inputs": [
        {
          "indexed": false,
          "internalType": "string",
          "name": "to",
          "type": "string"
        },
        {
          "indexed": false,
          "internalType": "enum NotifyLib.NotifyType",
          "name": "notifyType",
          "type": "uint8"
        }
      ],
      "name": "SendMail",
      "type": "event"
    },
    {
      "inputs": [],
      "name": "donID",
      "outputs": [
        {
          "internalType": "bytes32",
          "name": "",
          "type": "bytes32"
        }
      ],
      "stateMutability": "view",
      "type": "function"
    },
    {
      "inputs": [],
      "name": "gasLimit",
      "outputs": [
        {
          "internalType": "uint32",
          "name": "",
          "type": "uint32"
        }
      ],
      "stateMutability": "view",
      "type": "function"
    },
    {
      "inputs": [
        {
          "internalType": "bytes32",
          "name": "requestId",
          "type": "bytes32"
        },
        {
          "internalType": "bytes",
          "name": "response",
          "type": "bytes"
        },
        {
          "internalType": "bytes",
          "name": "err",
          "type": "bytes"
        }
      ],
      "name": "handleOracleFulfillment",
      "outputs": [],
      "stateMutability": "nonpayable",
      "type": "function"
    },
    {
      "inputs": [
        {
          "internalType": "address",
          "name": "_router",
          "type": "address"
        },
        {
          "internalType": "uint64",
          "name": "_subscriptionId",
          "type": "uint64"
        },
        {
          "internalType": "bytes32",
          "name": "_donId",
          "type": "bytes32"
        },
        {
          "internalType": "uint32",
          "name": "_gasLimit",
          "type": "uint32"
        },
        {
          "internalType": "address",
          "name": "_sendMailRouter",
          "type": "address"
        }
      ],
      "name": "initialize",
      "outputs": [],
      "stateMutability": "nonpayable",
      "type": "function"
    },
    {
      "inputs": [],
      "name": "mailId",
      "outputs": [
        {
          "internalType": "uint256",
          "name": "",
          "type": "uint256"
        }
      ],
      "stateMutability": "view",
      "type": "function"
    },
    {
      "inputs": [],
      "name": "owner",
      "outputs": [
        {
          "internalType": "address",
          "name": "",
          "type": "address"
        }
      ],
      "stateMutability": "view",
      "type": "function"
    },
    {
      "inputs": [],
      "name": "renounceOwnership",
      "outputs": [],
      "stateMutability": "nonpayable",
      "type": "function"
    },
    {
      "inputs": [],
      "name": "router",
      "outputs": [
        {
          "internalType": "address",
          "name": "",
          "type": "address"
        }
      ],
      "stateMutability": "view",
      "type": "function"
    },
    {
      "inputs": [],
      "name": "s_lastError",
      "outputs": [
        {
          "internalType": "bytes",
          "name": "",
          "type": "bytes"
        }
      ],
      "stateMutability": "view",
      "type": "function"
    },
    {
      "inputs": [],
      "name": "s_lastRequestId",
      "outputs": [
        {
          "internalType": "bytes32",
          "name": "",
          "type": "bytes32"
        }
      ],
      "stateMutability": "view",
      "type": "function"
    },
    {
      "inputs": [],
      "name": "s_lastResponse",
      "outputs": [
        {
          "internalType": "bytes",
          "name": "",
          "type": "bytes"
        }
      ],
      "stateMutability": "view",
      "type": "function"
    },
    {
      "inputs": [
        {
          "internalType": "string[]",
          "name": "beneNameLayer1",
          "type": "string[]"
        },
        {
          "internalType": "string[]",
          "name": "beneEmailLayer1",
          "type": "string[]"
        },
        {
          "internalType": "address",
          "name": "beneAddressLayer2",
          "type": "address"
        },
        {
          "internalType": "string",
          "name": "contractName",
          "type": "string"
        },
        {
          "internalType": "uint256",
          "name": "timeActiveLayer2",
          "type": "uint256"
        }
      ],
      "name": "sendEmailReadyToActivateLayer2ToLayer1",
      "outputs": [],
      "stateMutability": "nonpayable",
      "type": "function"
    },
    {
      "inputs": [
        {
          "internalType": "string",
          "name": "beneName",
          "type": "string"
        },
        {
          "internalType": "string",
          "name": "beneEmail",
          "type": "string"
        },
        {
          "internalType": "string",
          "name": "contractName",
          "type": "string"
        },
        {
          "internalType": "uint256",
          "name": "legacyId",
          "type": "uint256"
        },
        {
          "internalType": "address",
          "name": "contractAddress",
          "type": "address"
        }
      ],
      "name": "sendEmailReadyToActivateLayer2ToLayer2",
      "outputs": [
        {
          "internalType": "bytes32",
          "name": "requestId",
          "type": "bytes32"
        }
      ],
      "stateMutability": "nonpayable",
      "type": "function"
    },
    {
      "inputs": [
        {
          "internalType": "string[]",
          "name": "beneNames",
          "type": "string[]"
        },
        {
          "internalType": "string[]",
          "name": "beneEmails",
          "type": "string[]"
        },
        {
          "internalType": "string",
          "name": "contractName",
          "type": "string"
        },
        {
          "internalType": "uint256",
          "name": "activationDate",
          "type": "uint256"
        },
        {
          "internalType": "address",
          "name": "layer3Addr",
          "type": "address"
        }
      ],
      "name": "sendEmailReadyToActivateLayer3ToLayer12",
      "outputs": [],
      "stateMutability": "nonpayable",
      "type": "function"
    },
    {
      "inputs": [
        {
          "internalType": "string",
          "name": "beneName",
          "type": "string"
        },
        {
          "internalType": "string",
          "name": "beneEmail",
          "type": "string"
        },
        {
          "internalType": "string",
          "name": "contractName",
          "type": "string"
        },
        {
          "internalType": "uint256",
          "name": "legacyId",
          "type": "uint256"
        },
        {
          "internalType": "address",
          "name": "contractAddress",
          "type": "address"
        }
      ],
      "name": "sendEmailReadyToActivateLayer3ToLayer3",
      "outputs": [
        {
          "internalType": "bytes32",
          "name": "requestId",
          "type": "bytes32"
        }
      ],
      "stateMutability": "nonpayable",
      "type": "function"
    },
    {
      "inputs": [
        {
          "internalType": "string[]",
          "name": "beneName",
          "type": "string[]"
        },
        {
          "internalType": "string[]",
          "name": "beneEmail",
          "type": "string[]"
        },
        {
          "internalType": "string",
          "name": "contractName",
          "type": "string"
        },
        {
          "internalType": "uint256",
          "name": "legacyId",
          "type": "uint256"
        },
        {
          "internalType": "address",
          "name": "contractAddress",
          "type": "address"
        }
      ],
      "name": "sendEmailReadyToActivateToLayer1",
      "outputs": [],
      "stateMutability": "nonpayable",
      "type": "function"
    },
    {
      "inputs": [],
      "name": "sendMailRouter",
      "outputs": [
        {
          "internalType": "address",
          "name": "",
          "type": "address"
        }
      ],
      "stateMutability": "view",
      "type": "function"
    },
    {
      "inputs": [],
      "name": "subscriptionId",
      "outputs": [
        {
          "internalType": "uint64",
          "name": "",
          "type": "uint64"
        }
      ],
      "stateMutability": "view",
      "type": "function"
    },
    {
      "inputs": [
        {
          "internalType": "address",
          "name": "newOwner",
          "type": "address"
        }
      ],
      "name": "transferOwnership",
      "outputs": [],
      "stateMutability": "nonpayable",
      "type": "function"
    }
  ],
  "transactionHash": "0x4d66871d71190bc783db1a06ec6cc36fc492bb66c7b07e896cfaf597f6c2aeb2",
  "args": [],
  "numDeployments": 1,
  "solcInputHash": "39431884bd6e5fedd36c724181a9c769",
  "bytecode": "0x608080604052346200011a57600080546001600160a01b03191673b83e47c2bc239b3bf370bc41e1459a34b41238d01790557f66756e2d657468657265756d2d7365706f6c69612d31000000000000000000006001556007805463ffffffff1916620493e01790557ff0c57e16840df040f15088dc2f81fe391c3923bec73e23a9662efc9c229c6a0080549091604082901c60ff166200010b57506001600160401b036002600160401b031982821601620000c5575b6040516134339081620001208239f35b6001600160401b031990911681179091556040519081527fc7f505b2f371ae2175ee4913f4499e1f2633a7b5936321eed1cdaeb6115181d290602090a1388080620000b5565b63f92ee8a960e01b8152600490fd5b600080fdfe6080604052600436101561001257600080fd5b60003560e01c806309c1ba2e146101475780630ca7617514610142578063202a4b3f1461013d5780633944ea3a146101385780634b0795a8146101335780636e74336b1461012e57806370b5813514610129578063715018a6146101245780637dad97d11461011f57806385de98021461011a5780638da5cb5b14610115578063b1e2174914610110578063b8be7d091461010b578063bce4bdfb14610106578063bf96825c14610101578063e5632c88146100fc578063f2fde38b146100f7578063f68016b7146100f25763f887ea40146100ed57600080fd5b6110d6565b6110b2565b611089565b610fd2565b610db4565b610d33565b610c4f565b610b6a565b610b34565b6109dd565b6109bf565b610954565b61072c565b61066c565b6105d7565b610504565b610443565b610247565b3461016e57600036600319011261016e5760206001600160401b0360025416604051908152f35b600080fd5b634e487b7160e01b600052604160045260246000fd5b604081019081106001600160401b038211176101a457604052565b610173565b602081019081106001600160401b038211176101a457604052565b90601f801991011681019081106001600160401b038211176101a457604052565b6001600160401b0381116101a457601f01601f191660200190565b81601f8201121561016e57803590610217826101e5565b9261022560405194856101c4565b8284526020838301011161016e57816000926020809301838601378301015290565b3461016e57606036600319011261016e576001600160401b03600480359060243583811161016e5761027c9036908301610200565b9060443584811161016e576102949036908301610200565b9060009460018060a01b0386541633036103ff5784600354036103e75783519081116101a4576102cd816102c8845461046e565b611260565b602080601f83116001146103665750819061030295889261035b575b50508160011b916000199060031b1c191617905561131e565b807f7873807bf6ddc50401cd3d29bbe0decee23fd4d68d273f4b5eb83cded4d2f1726040518061033181611487565b0390a27f85e1543bf2f84fe80c6badbce3648c8539ad1df4d2b3d822938ca0538be727e68280a280f35b0151905038806102e9565b91929394601f19841661038960046000526000805160206133be83398151915290565b9389905b8282106103cf57505091600193918561030298979694106103b6575b505050811b01905561131e565b015160001960f88460031b161c191690553880806103a9565b8060018697829497870151815501960194019061038d565b60405163d068bf5b60e01b8152808301869052602490fd5b60405162461bcd60e51b8152602081840152601760248201527f4f6e6c7920726f757465722063616e2066756c66696c6c0000000000000000006044820152606490fd5b3461016e57600036600319011261016e576002546040805191901c6001600160a01b03168152602090f35b90600182811c9216801561049e575b602083101461048857565b634e487b7160e01b600052602260045260246000fd5b91607f169161047d565b60005b8381106104bb5750506000910152565b81810151838201526020016104ab565b906020916104e4815180928185528580860191016104a8565b601f01601f1916010190565b9060206105019281815201906104cb565b90565b3461016e576000806003193601126105d45760405190806004546105278161046e565b808552916001918083169081156105aa5750600114610561575b61055d85610551818703826101c4565b604051918291826104f0565b0390f35b9250600483526000805160206133be8339815191525b8284106105925750505081016020016105518261055d610541565b80546020858701810191909152909301928101610577565b86955061055d9693506020925061055194915060ff191682840152151560051b8201019293610541565b80fd5b3461016e576000806003193601126105d45760405190806005546105fa8161046e565b808552916001918083169081156105aa57506001146106235761055d85610551818703826101c4565b92506005835260008051602061337e8339815191525b8284106106545750505081016020016105518261055d610541565b80546020858701810191909152909301928101610639565b3461016e57600036600319011261016e576020600154604051908152f35b600435906001600160a01b038216820361016e57565b608435906001600160a01b038216820361016e57565b60a060031982011261016e576001600160401b039160043583811161016e57826106e291600401610200565b9260243581811161016e57836106fa91600401610200565b9260443591821161016e5761071191600401610200565b90606435906084356001600160a01b038116810361016e5790565b3461016e5761073a366106b6565b600160a095939294951b6001900360025460401c16331461075a90611537565b61076382611728565b9361076d906119a2565b9061077790611ae5565b916107819361177c565b906040519061078f826101a9565b6000825261079b611972565b604051948593602085017f636f6e737420656d61696c55524c203d202768747470733a2f2f6170692e6d6190526040850174696c6a65742e636f6d2f76332e312f73656e64273b60581b90526055850179031b7b739ba1030baba342432b0b232b9101e9013a130b9b4b1960351b905280519081606f87019160200191610821926104a8565b8401606f81016108359061273b60f01b9052565b7f636f6e737420656d61696c44617461203d207b204d657373616765733a2000006071820152608f0161086790611c0a565b6e546f3a205b207b456d61696c3a202760881b8152600f0161088891611711565b6e09cb0813985b594e89c9cb1f4b174b608a1b81526b02a32b6b83630ba32a4a21d160a51b600f820152601b016108be91611711565b780b0815195b5c1b185d1953185b99dd5859d94e881d1c9d594b603a1b8152695375626a6563743a202760b01b60198201526023016108fc91611711565b6109cb60f21b81526b5661726961626c65733a207b60a01b60028201520360111981018352600e0161092e90836101c4565b610936611e3a565b9061094092611866565b610949906123ef565b604051908152602090f35b3461016e576000806003193601126105d45761096e6110ff565b60008051602061339e83398151915280546001600160a01b0319811690915581906001600160a01b03167f8be0079c531659141344cd1fd0a4f28419497f9722a3daafe3b4186f6b6457e08280a380f35b3461016e57600036600319011261016e576020600654604051908152f35b3461016e5760a036600319011261016e576109f661068a565b6024356001600160401b0391828216820361016e5760643563ffffffff8116810361016e57610a236106a0565b916000805160206133de833981519152549460ff8660401c1615951680159081610b2c575b6001149081610b22575b159081610b19575b50610b07576000805160206133de833981519152805467ffffffffffffffff19166001179055610a939385610ae2575b604435916111ac565b610a9957005b6000805160206133de833981519152805460ff60401b19169055604051600181527fc7f505b2f371ae2175ee4913f4499e1f2633a7b5936321eed1cdaeb6115181d290602090a1005b6000805160206133de833981519152805460ff60401b1916600160401b179055610a8a565b60405163f92ee8a960e01b8152600490fd5b90501538610a5a565b303b159150610a52565b869150610a48565b3461016e57600036600319011261016e5760008051602061339e833981519152546040516001600160a01b039091168152602090f35b3461016e57600036600319011261016e576020600354604051908152f35b9080601f8301121561016e578135906001600160401b03928383116101a4578260051b60405194602094610bbe868401886101c4565b865284808701928401019380851161016e57858401925b858410610be6575050505050505090565b833583811161016e578791610c00848480948a0101610200565b815201930192610bd5565b60a060031982011261016e576001600160401b039160043583811161016e5782610c3791600401610b88565b9260243581811161016e57836106fa91600401610b88565b3461016e57610c5d36610c0b565b9093610c7760018060a01b0360025460401c163314611537565b60005b8151811015610d315780828686838a610c96610ca797856115b1565b5151610cac575b5050505050611587565b610c7a565b610cf9610d0e94610ce9610ce4610cde610cd787610cd0610cff99610d139d6115b1565b51956115b1565b519761222d565b94611b87565b6119a2565b8c610cf38d611ae5565b926122a5565b92611e06565b90610d08611e3a565b91611866565b6123ef565b50610d27610d2182886115b1565b51613341565b828686838a610c9d565b005b3461016e5760a036600319011261016e576001600160401b0360043581811161016e57610d64903690600401610b88565b60243582811161016e57610d7c903690600401610b88565b6044356001600160a01b038116810361016e5760643593841161016e57610daa610d31943690600401610200565b91608435936115ca565b3461016e57610dc2366106b6565b600160a095939294951b6001900360025460401c163314610de290611537565b610deb82611728565b93610df5906119a2565b90610dff90611ae5565b91610e099361177c565b604051610e15816101a9565b60008152610e2161198a565b92604051938492602084017f636f6e737420656d61696c55524c203d202768747470733a2f2f6170692e6d6190526040840174696c6a65742e636f6d2f76332e312f73656e64273b60581b90526055840179031b7b739ba1030baba342432b0b232b9101e9013a130b9b4b1960351b905280519081606f86019160200191610ea8926104a8565b8301606f8101610ebc9061273b60f01b9052565b7f636f6e737420656d61696c44617461203d207b204d657373616765733a2000006071820152608f01610eee90611c0a565b6e546f3a205b207b456d61696c3a202760881b8152600f01610f109087611711565b6e09cb0813985b594e89c9cb1f4b174b608a1b81526b02a32b6b83630ba32a4a21d160a51b600f820152601b01610f4691611711565b780b0815195b5c1b185d1953185b99dd5859d94e881d1c9d594b603a1b8152695375626a6563743a202760b01b6019820152602301610f8491611711565b6109cb60f21b81526b5661726961626c65733a207b60a01b60028201520360111981018352600e01610fb690836101c4565b610fbe611e3a565b90610fc892611866565b9061094090613341565b3461016e57610fe036610c0b565b9093610ffa60018060a01b0360025460401c163314611537565b60005b8151811015610d31578061101461101f92876115b1565b515161102457611587565b610ffd565b611070610d0e61103483866115b1565b51610cff8a61106a611046878d6115b1565b519361105a6110548d612007565b936119a2565b8c6110648d611ae5565b92612053565b92611c59565b5061108461107e82886115b1565b516132b2565b611587565b3461016e57602036600319011261016e57610d316110a561068a565b6110ad6110ff565b611138565b3461016e57600036600319011261016e57602063ffffffff60075416604051908152f35b3461016e57600036600319011261016e576000546040516001600160a01b039091168152602090f35b60008051602061339e833981519152546001600160a01b0316330361112057565b60405163118cdaa760e01b8152336004820152602490fd5b6001600160a01b039081169081156111935760008051602061339e83398151915280546001600160a01b031981168417909155167f8be0079c531659141344cd1fd0a4f28419497f9722a3daafe3b4186f6b6457e0600080a3565b604051631e4fbdf760e01b815260006004820152602490fd5b6001600160401b03929363ffffffff9195929560018060a01b03166bffffffffffffffffffffffff60a01b6000541617600055600254946001551663ffffffff196007541617600755600160401b600160e01b039060401b1692169063ffffffff60e01b16171760025561121e611231565b611226611231565b61122f33611138565b565b60ff6000805160206133de8339815191525460401c161561124e57565b604051631afcd79f60e31b8152600490fd5b601f811161126c575050565b600090600482526000805160206133be833981519152906020601f850160051c830194106112b5575b601f0160051c01915b8281106112aa57505050565b81815560010161129e565b9092508290611295565b601f81116112cb575050565b6000906005825260008051602061337e833981519152906020601f850160051c83019410611314575b601f0160051c01915b82811061130957505050565b8181556001016112fd565b90925082906112f4565b9081516001600160401b0381116101a4576113438161133e60055461046e565b6112bf565b602080601f831160011461137f5750819293600092611374575b50508160011b916000199060031b1c191617600555565b01519050388061135d565b90601f198316946113a0600560005260008051602061337e83398151915290565b926000905b8782106113dd5750508360019596106113c4575b505050811b01600555565b015160001960f88460031b161c191690553880806113b9565b806001859682949686015181550195019301906113a5565b600554600092916114058261046e565b8082529160019081811690811561146a575060011461142357505050565b91929350600560005260008051602061337e833981519152916000925b84841061145257505060209250010190565b80546020858501810191909152909301928101611440565b915050602093945060ff929192191683830152151560051b010190565b6040815260006004546114998161046e565b90816040850152600190818116908160001461151257506001146114cb575b50508160206105019383039101526113f5565b6004600090815292506000805160206133be8339815191525b8284106114fc575050508101606001610501386114b8565b80546060858701015260209093019281016114e4565b9050610501949350606092915060ff191682840152151560051b8201019091386114b8565b1561153e57565b60405162461bcd60e51b815260206004820152600b60248201526a27b7363c903937baba32b960a91b6044820152606490fd5b634e487b7160e01b600052601160045260246000fd5b60001981146115965760010190565b611571565b634e487b7160e01b600052603260045260246000fd5b80518210156115c55760209160051b010190565b61159b565b600254929594604093909291906115ee903390861c6001600160a01b031614611537565b60005b81518110156117075761160481846115b1565b5151611619575b61161490611587565b6115f1565b61162381836115b1565b519061162f81856115b1565b518651906116a760528360207f5365636f6e642d4c696e652042656e6566696369617279204e6f7720456c69678183015270034b13632903a379020b1ba34bb30ba329607d1b8c830152601760f91b8d6116938151809260519586880191016104a8565b8301918201520360328101855201836101c4565b6103e89081880291888304148815171561159657610cff6116ec936116e6611614978f8e6116e06116da610d0e996119a2565b92611ae5565b9261213e565b92611e20565b506117006116fa82866115b1565b51613305565b905061160b565b5050505050509050565b90611724602092828151948592016104a8565b0190565b9061122f603960405180947f596f75204d6179204e6f77204163746976617465207468652000000000000000602083015261176c81518092602086860191016104a8565b81010360198101855201836101c4565b606591949361122f936040519687936b62656e655f6e616d653a202760a01b60208601526117b4815180926020602c890191016104a8565b840172272c20636f6e74726163745f6e616d653a202760681b602c8201526117e6825180936020603f850191016104a8565b016e272c206c65676163795f69643a202760881b603f820152611813825180936020604e850191016104a8565b0175272c20636f6e74726163745f616464726573733a202760501b604e8201526118478251809360206064850191016104a8565b0161185860648201602760f81b9052565b0360458101855201836101c4565b61122f919392936040519485918351611887816020968780880191016104a8565b830161189b825180938780850191016104a8565b016118ae825180938680850191016104a8565b010380855201836101c4565b60405190606082018281106001600160401b038211176101a457604052602a8252604082602036910137565b604051906118f382610189565b6007825260203681840137565b9061190a826101e5565b61191760405191826101c4565b8281528092611928601f19916101e5565b0190602036910137565b626e1f7561193e6118e6565b90602782015b6000190190600a906f181899199a1a9b1b9c1cb0b131b232b360811b8282061a835304908161194457505090565b626e1f6c61193e6118e6565b626e1f7661193e6118e6565b626e1f6d61193e6118e6565b626e1f6e61193e6118e6565b806000917a184f03e93ff9f4daa797ed6e38ed64bf6a1f01000000000000000080821015611ad7575b506d04ee2d6d415b85acef810000000080831015611ac8575b50662386f26fc1000080831015611ab9575b506305f5e10080831015611aaa575b5061271080831015611a9b575b506064821015611a8b575b600a80921015611a81575b600190816021611a39828701611900565b95860101905b611a4b575b5050505090565b600019019083906f181899199a1a9b1b9c1cb0b131b232b360811b8282061a835304918215611a7c57919082611a3f565b611a44565b9160010191611a28565b9190606460029104910191611a1d565b60049193920491019138611a12565b60089193920491019138611a05565b601091939204910191386119f6565b602091939204910191386119e4565b6040935081049150386119cb565b6001600160a01b031680611af76118ba565b916030611b0384611bcf565b536078611b0f84611bdc565b5360295b60018111611b455750611b24575090565b60405163e22e27eb60e01b8152600481019190915260146024820152604490fd5b90600f81169060108210156115c557611b82916f181899199a1a9b1b9c1cb0b131b232b360811b901a611b788487611bec565b5360041c91611bfd565b611b13565b906103e89182810292818404149015171561159657565b908160011b918083046002149015171561159657565b906020820180921161159657565b9190820180921161159657565b8051156115c55760200190565b8051600110156115c55760210190565b9081518110156115c5570160200190565b8015611596576000190190565b7f5b207b2046726f6d3a207b456d61696c3a20276170704031303130322e696f2781527f2c204e616d653a2027313031303220506c6174666f726d272c7d2c00000000006020820152603b0190565b9060405190611c67826101a9565b60008252611c73611932565b604051938493602085017f636f6e737420656d61696c55524c203d202768747470733a2f2f6170692e6d6190526040850174696c6a65742e636f6d2f76332e312f73656e64273b60581b90526055850179031b7b739ba1030baba342432b0b232b9101e9013a130b9b4b1960351b905280519081606f87019160200191611cf9926104a8565b8401606f8101611d0d9061273b60f01b9052565b7f636f6e737420656d61696c44617461203d207b204d657373616765733a2000006071820152608f01611d3f90611c0a565b6e546f3a205b207b456d61696c3a202760881b8152600f01611d6091611711565b6e09cb0813985b594e89c9cb1f4b174b608a1b81526b02a32b6b83630ba32a4a21d160a51b600f820152601b01611d9691611711565b780b0815195b5c1b185d1953185b99dd5859d94e881d1c9d594b603a1b8152695375626a6563743a202760b01b6019820152602301611dd491611711565b6109cb60f21b81526b5661726961626c65733a207b60a01b60028201520360111981018252600e0161050190826101c4565b9060405190611e14826101a9565b60008252611c7361197e565b9060405190611e2e826101a9565b60008252611c73611996565b604051677d2c7d2c5d2c7d3b60c01b60208201527f636f6e737420726573706f6e7365203d2061776169742046756e6374696f6e736028820152712e6d616b654874747052657175657374287b60701b60488201526f08081d5c9b0e88195b585a5b1554930b60821b605a8201527008081b595d1a1bd90e8809d413d4d509cb607a1b606a8201527f2020686561646572733a207b2027436f6e74656e742d54797065273a20276170607b8201527f706c69636174696f6e2f6a736f6e272c2027417574686f72697a6174696f6e27609b8201526e0e88185d5d1a12195859195c881f4b608a1b60bb820152702020646174613a20656d61696c4461746160781b60ca820152627d293b60e81b60db8201527f69662028726573706f6e73652e6572726f7229207468726f77204572726f722860de8201527f604661696c656420746f2073656e6420656d61696c3a20247b4a534f4e2e737460fe8201527472696e6769667928726573706f6e7365297d60293b60581b61011e8201527f72657475726e2046756e6374696f6e732e656e636f6465537472696e672827456101338201526c6d61696c2073656e742127293b60981b61015382015261014081529061122f610160836101c4565b9061122f6035604051846120258296518092602080860191016104a8565b81017420497320526561647920746f20416374697661746560581b60208201520360158101855201836101c4565b606691949361122f936040519687936b62656e655f6e616d653a202760a01b602086015261208b815180926020602c890191016104a8565b840173272c2020636f6e74726163745f6e616d653a202760601b602c8201526120be8251809360206040850191016104a8565b016e272c206c65676163795f69643a202760881b60408201526120eb825180936020604f850191016104a8565b0175272c20636f6e74726163745f616464726573733a202760501b604f82015261211f8251809360206065850191016104a8565b0161213060658201602760f81b9052565b0360468101855201836101c4565b6122176001929594606461122f956040519889956b62656e655f6e616d653a202760a01b602088015261217b815180926020602c8b0191016104a8565b8601906109cb60f21b9182602c8201527320202020636f6e74726163745f6e616d653a202760601b602e8201526121bc8251809360206042850191016104a8565b0190604282015272040404040c8c2e8ca7440dccaee4088c2e8ca5606b1b60448201526121f38251809360206057850191016104a8565b01612210605782016c292c20616464726573733a202760981b9052565b0190611711565b602760f81b815203601e198101855201836101c4565b9061122f605160405180947f54686972642d4c696e652042656e6566696369617279204e6f7720456c69676960208301526f0313632903a379020b1ba34bb30ba32960851b604083015261228b8151809260206050860191016104a8565b8101601760f91b60508201520360318101855201836101c4565b606b91949361122f936040519687936b62656e655f6e616d653a202760a01b60208601526122dd815180926020602c890191016104a8565b840172272c20636f6e74726163745f6e616d653a202760681b602c82015261230f825180936020603f850191016104a8565b017f272c2061637469766174696f6e5f646174653a206e6577204461746528000000603f82015261234a825180936020605c850191016104a8565b016d292c206e65775f62656e653a202760901b605c820152612376825180936020606a850191016104a8565b01612387606a8201602760f81b9052565b03604b8101855201836101c4565b9081602091031261016e575190565b906123d16080936001600160401b0363ffffffff939897969816845260a0602085015260a08401906104cb565b95600160408401521660608201520152565b6040513d6000823e3d90fd5b60405160e081018181106001600160401b038211176101a45760405261244160009283835283602084015283604084015260608084015260606080840152606060a0840152606060c084015282612809565b81546020906124669061245a906001600160a01b031681565b6001600160a01b031690565b61248161247b6002546001600160401b031690565b9361263b565b9061249160075463ffffffff1690565b9185600154956124b76040519788968795869463230e93b160e11b8652600486016123a4565b03925af1908115612506576124d292916124d8575b50600355565b60035490565b6124f9915060203d81116124ff575b6124f181836101c4565b810190612395565b386124cc565b503d6124e7565b6123e3565b6040519061251882610189565b600c82526b31b7b232a637b1b0ba34b7b760a11b6020830152565b634e487b7160e01b600052602160045260246000fd5b6003111561255357565b612533565b6040519061256582610189565b60088252676c616e677561676560c01b6020830152565b6001111561255357565b6040519061259382610189565b6006825265736f7572636560d01b6020830152565b604051906125b582610189565b60048252636172677360e01b6020830152565b604051906125d582610189565b600f82526e39b2b1b932ba39a637b1b0ba34b7b760891b6020830152565b6040519061260082610189565b60078252667365637265747360c81b6020830152565b6040519061262382610189565b600982526862797465734172677360b81b6020830152565b61264361284c565b9061265561264f61250b565b83612f73565b612672815161266381612549565b61266c81612549565b836128fd565b61267d61264f612558565b612697604082015161268e8161257c565b61266c8161257c565b6126a261264f612586565b6126b0606082015183612f73565b60a081018051516127b0575b506080810190815151612730575b60c09150018051516126dd575b50515190565b916126e961264f612616565b6126f282612ff7565b60005b8351805182101561271d579061108461271182612718946115b1565b5185612ebe565b6126f5565b5050915061272a81613083565b386126d7565b60208101805161273f81612549565b61274881612549565b1561279e5760c092612781612799926127686127626125c8565b88612f73565b5161277281612549565b61277b81612549565b866128fd565b61279261278c6125f3565b86612f73565b5184612ebe565b6126ca565b60405163a80d31f760e01b8152600490fd5b926127c26127bc6125a8565b84612f73565b6127cb83612ff7565b60005b845180518210156127f657906110846127ea826127f1946115b1565b5186612f73565b6127ce565b5050925061280382613083565b386126bc565b815115612820576000808252604082015260600152565b6040516322ce3edd60e01b8152600490fd5b6040519061283f82610189565b6000602083606081520152565b60405161285881610189565b612860612832565b8082526020820160008152612873612832565b50610100602083015260405180925260008252610120820191821061016e576000916040525290565b601f1981019190821161159657565b906128b4612832565b50601f8116806128e3575b508060208301526040519081835260008252810160200190811061016e5760405290565b6020036020811161159657810180911161159657386128bf565b90815191612909612832565b508251516001810190818111611596576020850151811015612962575b60c2602061122f965192830101538051821161295a575b50506040519160208301526020825261295582610189565b612ebe565b52388061293d565b8160011b94828604600214831517156115965760208161299461122f9861298d60c2955191846128ab565b5082612e06565b5096505050612926565b6129a6612832565b5080515160018101908181116115965760208301518110156129df575b605b602084519283010153805182116129db57505090565b5290565b8160011b8281046002148315171561159657612a0890612a01855191866128ab565b5084612e06565b506129c3565b612a16612832565b508051516001810190818111611596576020830151811015612a4b575b605a602084519283010153805182116129db57505090565b8160011b8281046002148315171561159657612a6d90612a01855191866128ab565b50612a33565b612a7b612832565b508051516001810190818111611596576020830151811015612ab0575b6059602084519283010153805182116129db57505090565b8160011b8281046002148315171561159657612ad290612a01855191866128ab565b50612a98565b612ae0612832565b508051516001810190818111611596576020830151811015612b15575b6058602084519283010153805182116129db57505090565b8160011b8281046002148315171561159657612b3790612a01855191866128ab565b50612afd565b612b45612832565b508051516001810190818111611596576020830151811015612b7a575b607b602084519283010153805182116129db57505090565b8160011b8281046002148315171561159657612b9c90612a01855191866128ab565b50612b62565b612baa612832565b508051516001810190818111611596576020830151811015612bdf575b607a602084519283010153805182116129db57505090565b8160011b8281046002148315171561159657612c0190612a01855191866128ab565b50612bc7565b612c0f612832565b508051516001810190818111611596576020830151811015612c44575b6079602084519283010153805182116129db57505090565b8160011b8281046002148315171561159657612c6690612a01855191866128ab565b50612c2c565b612c74612832565b508051516001810190818111611596576020830151811015612ca9575b6078602084519283010153805182116129db57505090565b8160011b8281046002148315171561159657612ccb90612a01855191866128ab565b50612c91565b90612cda612832565b508151516001810191828211611596576020840151821015612d0d575b602084519283010153805182116129db57505090565b8260011b8381046002148415171561159657612d3690612d2f865191876128ab565b5085612e06565b50612cf7565b90612d49825191836128ab565b50612d52612832565b50805190612d5e612832565b50612d6c8151831115612eb7565b82515192612d7a8385611bc2565b916020928284809401518211612def575b5183815197820101968211612de7575b505001915b81811015612dc15760001991036101000a0190811990511690825116179052565b9192612ddc612dd6612de29286518152611bb4565b94611bb4565b9261289c565b612da0565b523880612d9b565b612e01612dfb83611b9e565b82612d3c565b612d8b565b90612e0f612832565b508051612e1a612832565b50612e288251821115612eb7565b82515191612e368284611bc2565b6020918291828701518111612ea0575b865183815197820101968211612e98575b505001915b81811015612e7e5760001991036101000a019081199051169082511617905290565b9192612ddc612dd6612e939286518152611bb4565b612e5c565b523880612e57565b612eb2612eac82611b9e565b88612d3c565b612e46565b1561016e57565b8151612ef59291906001600160401b0381169060178211612ef857612eed9150604060ff845192161790612cd1565b505b51612e06565b50565b5060ff8111612f1d57612f1790612f0f8351612ad8565b50825161324c565b50612eef565b61ffff8111612f3c57612f1790612f348351612a73565b5082516131e5565b63ffffffff8111612f5d57612f1790612f558351612a0e565b50825161317c565b612f1790612f6b835161299e565b508251613110565b8151612ef59291906001600160401b0381169060178211612fa257612eed9150606060ff845192161790612cd1565b5060ff8111612fb957612f1790612f0f8351612c6c565b61ffff8111612fd057612f1790612f348351612c07565b63ffffffff8111612fe957612f1790612f558351612ba2565b612f1790612f6b8351612b3d565b805190613002612832565b508151516001810190818111611596576020840151811015613050575b609f6020809551928301015380518211613048575b505001805190600182018092116115965752565b523880613034565b8160011b938285046002148315171561159657602081613079829761298d609f955191846128ab565b509550505061301f565b80519061308e612832565b5081515160018101908181116115965760208401518110156130dd575b60ff60208095519283010153805182116130d5575b50500180516000198101919082116115965752565b5238806130c0565b8160011b938285046002148315171561159657602081613106829761298d60ff955191846128ab565b50955050506130ab565b90613119612832565b50815151806008019182600811611596576020840151831161315b575b6008845192830101906001600160401b0319825116179052805182116129db57505090565b8260011b83810460021484151715611596576131779085612d3c565b613136565b90613185612832565b5081515180600401918260041161159657602084015183116131c4575b60048451928301019063ffffffff19825116179052805182116129db57505090565b8260011b83810460021484151715611596576131e09085612d3c565b6131a2565b906131ee612832565b50815151806002019182600211611596576020840151831161322b575b60028451928301019061ffff19825116179052805182116129db57505090565b8260011b83810460021484151715611596576132479085612d3c565b61320b565b90613255612832565b508151518060010191826001116115965760208401518311613291575b60018451928301019060ff19825116179052805182116129db57505090565b8260011b83810460021484151715611596576132ad9085612d3c565b613272565b6132f97fe945c25e663b7f927fca5b167e9d99e30aac67d2f2c39fac12b6618f57481e92916132e2600654611587565b6006556040519182916040835260408301906104cb565b600460208301520390a1565b6133357fe945c25e663b7f927fca5b167e9d99e30aac67d2f2c39fac12b6618f57481e92916132e2600654611587565b600560208301520390a1565b6133717fe945c25e663b7f927fca5b167e9d99e30aac67d2f2c39fac12b6618f57481e92916132e2600654611587565b600660208301520390a156fe036b6384b5eca791c62761152d0c79bb0604c104a5fb6f4eb0703f3154bb3db09016d09d72d40fdae2fd8ceac6b6234c7706214fd39c1cd1e609a0528c1993008a35acfbc15ff81a39ae7d344fd709f28e8600b4aa8c65c6b64bfe7fe36bd19bf0c57e16840df040f15088dc2f81fe391c3923bec73e23a9662efc9c229c6a00a26469706673582212209d4d25210cdfa76ba54dcbabfded7cd390152fa2de97737a2661dd100b9339c864736f6c63430008140033",
  "devdoc": {
    "errors": {
      "InvalidInitialization()": [
        {
          "details": "The contract is already initialized."
        }
      ],
      "NotInitializing()": [
        {
          "details": "The contract is not initializing."
        }
      ],
      "OwnableInvalidOwner(address)": [
        {
          "details": "The owner is not a valid owner account. (eg. `address(0)`)"
        }
      ],
      "OwnableUnauthorizedAccount(address)": [
        {
          "details": "The caller account is not authorized to perform an operation."
        }
      ],
      "StringsInsufficientHexLength(uint256,uint256)": [
        {
          "details": "The `value` string doesn't fit in the specified `length`."
        }
      ]
    },
    "events": {
      "Initialized(uint64)": {
        "details": "Triggered when the contract has been initialized or reinitialized."
      }
    },
    "kind": "dev",
    "methods": {
      "owner()": {
        "details": "Returns the address of the current owner."
      },
      "renounceOwnership()": {
        "details": "Leaves the contract without owner. It will not be possible to call `onlyOwner` functions. Can only be called by the current owner. NOTE: Renouncing ownership will leave the contract without an owner, thereby disabling any functionality that is only available to the owner."
      },
      "transferOwnership(address)": {
        "details": "Transfers ownership of the contract to a new account (`newOwner`). Can only be called by the current owner."
      }
    },
    "version": 1
  },
  "userdoc": {
    "kind": "user",
    "methods": {},
    "version": 1
  },
  "storageLayout": {
    "storage": [
      {
        "astId": 28489,
        "contract": "contracts/premium/PremiumMailReadyToActivate.sol:PremiumMailReadyToActivate",
        "label": "router",
        "offset": 0,
        "slot": "0",
        "type": "t_address"
      },
      {
        "astId": 28492,
        "contract": "contracts/premium/PremiumMailReadyToActivate.sol:PremiumMailReadyToActivate",
        "label": "donID",
        "offset": 0,
        "slot": "1",
        "type": "t_bytes32"
      },
      {
        "astId": 28494,
        "contract": "contracts/premium/PremiumMailReadyToActivate.sol:PremiumMailReadyToActivate",
        "label": "subscriptionId",
        "offset": 0,
        "slot": "2",
        "type": "t_uint64"
      },
      {
        "astId": 28496,
        "contract": "contracts/premium/PremiumMailReadyToActivate.sol:PremiumMailReadyToActivate",
        "label": "sendMailRouter",
        "offset": 8,
        "slot": "2",
        "type": "t_address"
      },
      {
        "astId": 28501,
        "contract": "contracts/premium/PremiumMailReadyToActivate.sol:PremiumMailReadyToActivate",
        "label": "s_lastRequestId",
        "offset": 0,
        "slot": "3",
        "type": "t_bytes32"
      },
      {
        "astId": 28503,
        "contract": "contracts/premium/PremiumMailReadyToActivate.sol:PremiumMailReadyToActivate",
        "label": "s_lastResponse",
        "offset": 0,
        "slot": "4",
        "type": "t_bytes_storage"
      },
      {
        "astId": 28505,
        "contract": "contracts/premium/PremiumMailReadyToActivate.sol:PremiumMailReadyToActivate",
        "label": "s_lastError",
        "offset": 0,
        "slot": "5",
        "type": "t_bytes_storage"
      },
      {
        "astId": 28507,
        "contract": "contracts/premium/PremiumMailReadyToActivate.sol:PremiumMailReadyToActivate",
        "label": "mailId",
        "offset": 0,
        "slot": "6",
        "type": "t_uint256"
      },
      {
        "astId": 28510,
        "contract": "contracts/premium/PremiumMailReadyToActivate.sol:PremiumMailReadyToActivate",
        "label": "gasLimit",
        "offset": 0,
        "slot": "7",
        "type": "t_uint32"
      }
    ],
    "types": {
      "t_address": {
        "encoding": "inplace",
        "label": "address",
        "numberOfBytes": "20"
      },
      "t_bytes32": {
        "encoding": "inplace",
        "label": "bytes32",
        "numberOfBytes": "32"
      },
      "t_bytes_storage": {
        "encoding": "bytes",
        "label": "bytes",
        "numberOfBytes": "32"
      },
      "t_uint256": {
        "encoding": "inplace",
        "label": "uint256",
        "numberOfBytes": "32"
      },
      "t_uint32": {
        "encoding": "inplace",
        "label": "uint32",
        "numberOfBytes": "4"
      },
      "t_uint64": {
        "encoding": "inplace",
        "label": "uint64",
        "numberOfBytes": "8"
      }
    }
  }
}