{
  "address": "0x7F99873a7Fdf442ef906F7cAFcd35B3e22588151",
  "abi": [
    {
      "inputs": [],
      "stateMutability": "nonpayable",
      "type": "constructor"
    },
    {
      "inputs": [],
      "name": "InvalidInitialization",
      "type": "error"
    },
    {
      "inputs": [],
      "name": "InvalidParamAddress",
      "type": "error"
    },
    {
      "inputs": [],
      "name": "LengthMismatch",
      "type": "error"
    },
    {
      "inputs": [],
      "name": "NotInitializing",
      "type": "error"
    },
    {
      "inputs": [
        {
          "internalType": "address",
          "name": "owner",
          "type": "address"
        }
      ],
      "name": "OwnableInvalidOwner",
      "type": "error"
    },
    {
      "inputs": [
        {
          "internalType": "address",
          "name": "account",
          "type": "address"
        }
      ],
      "name": "OwnableUnauthorizedAccount",
      "type": "error"
    },
    {
      "inputs": [],
      "name": "UserConfigNotSet",
      "type": "error"
    },
    {
      "anonymous": false,
      "inputs": [
        {
          "indexed": true,
          "internalType": "address",
          "name": "user",
          "type": "address"
        },
        {
          "indexed": false,
          "internalType": "uint256",
          "name": "legacyId",
          "type": "uint256"
        },
        {
          "indexed": false,
          "internalType": "address",
          "name": "legacyAddress",
          "type": "address"
        },
        {
          "indexed": false,
          "internalType": "uint128",
          "name": "legacyType",
          "type": "uint128"
        },
        {
          "components": [
            {
              "internalType": "address",
              "name": "addr",
              "type": "address"
            },
            {
              "internalType": "string",
              "name": "email",
              "type": "string"
            },
            {
              "internalType": "string",
              "name": "name",
              "type": "string"
            }
          ],
          "indexed": false,
          "internalType": "struct PremiumSetting.EmailMapping[]",
          "name": "beneficiaries",
          "type": "tuple[]"
        }
      ],
      "name": "BeneficiariesEmailSync",
      "type": "event"
    },
    {
      "anonymous": false,
      "inputs": [
        {
          "indexed": false,
          "internalType": "uint64",
          "name": "version",
          "type": "uint64"
        }
      ],
      "name": "Initialized",
      "type": "event"
    },
    {
      "anonymous": false,
      "inputs": [
        {
          "indexed": true,
          "internalType": "address",
          "name": "user",
          "type": "address"
        },
        {
          "indexed": false,
          "internalType": "uint256",
          "name": "legacyId",
          "type": "uint256"
        },
        {
          "indexed": false,
          "internalType": "address",
          "name": "legacyAddress",
          "type": "address"
        },
        {
          "indexed": false,
          "internalType": "uint128",
          "name": "legacyType",
          "type": "uint128"
        }
      ],
      "name": "LegacyConfigReset",
      "type": "event"
    },
    {
      "anonymous": false,
      "inputs": [
        {
          "indexed": false,
          "internalType": "uint256",
          "name": "legacyId",
          "type": "uint256"
        },
        {
          "indexed": false,
          "internalType": "address",
          "name": "legacyAddress",
          "type": "address"
        },
        {
          "indexed": false,
          "internalType": "uint128",
          "name": "legacyType",
          "type": "uint128"
        },
        {
          "indexed": false,
          "internalType": "uint256",
          "name": "code",
          "type": "uint256"
        }
      ],
      "name": "LegacyPrivateCodeSet",
      "type": "event"
    },
    {
      "anonymous": false,
      "inputs": [
        {
          "indexed": true,
          "internalType": "address",
          "name": "user",
          "type": "address"
        },
        {
          "indexed": false,
          "internalType": "uint256",
          "name": "legacyId",
          "type": "uint256"
        },
        {
          "indexed": false,
          "internalType": "address",
          "name": "legacyAddress",
          "type": "address"
        },
        {
          "indexed": false,
          "internalType": "uint128",
          "name": "legacyType",
          "type": "uint128"
        },
        {
          "components": [
            {
              "internalType": "address",
              "name": "addr",
              "type": "address"
            },
            {
              "internalType": "string",
              "name": "email",
              "type": "string"
            },
            {
              "internalType": "string",
              "name": "name",
              "type": "string"
            }
          ],
          "indexed": false,
          "internalType": "struct PremiumSetting.EmailMapping[]",
          "name": "cosigners",
          "type": "tuple[]"
        },
        {
          "components": [
            {
              "internalType": "address",
              "name": "addr",
              "type": "address"
            },
            {
              "internalType": "string",
              "name": "email",
              "type": "string"
            },
            {
              "internalType": "string",
              "name": "name",
              "type": "string"
            }
          ],
          "indexed": false,
          "internalType": "struct PremiumSetting.EmailMapping[]",
          "name": "beneficiaries",
          "type": "tuple[]"
        },
        {
          "components": [
            {
              "internalType": "address",
              "name": "addr",
              "type": "address"
            },
            {
              "internalType": "string",
              "name": "email",
              "type": "string"
            },
            {
              "internalType": "string",
              "name": "name",
              "type": "string"
            }
          ],
          "indexed": false,
          "internalType": "struct PremiumSetting.EmailMapping",
          "name": "secondLine",
          "type": "tuple"
        },
        {
          "components": [
            {
              "internalType": "address",
              "name": "addr",
              "type": "address"
            },
            {
              "internalType": "string",
              "name": "email",
              "type": "string"
            },
            {
              "internalType": "string",
              "name": "name",
              "type": "string"
            }
          ],
          "indexed": false,
          "internalType": "struct PremiumSetting.EmailMapping",
          "name": "thirdLine",
          "type": "tuple"
        }
      ],
      "name": "LegacyReminderUpdated",
      "type": "event"
    },
    {
      "anonymous": false,
      "inputs": [
        {
          "indexed": true,
          "internalType": "address",
          "name": "previousOwner",
          "type": "address"
        },
        {
          "indexed": true,
          "internalType": "address",
          "name": "newOwner",
          "type": "address"
        }
      ],
      "name": "OwnershipTransferred",
      "type": "event"
    },
    {
      "anonymous": false,
      "inputs": [
        {
          "indexed": true,
          "internalType": "address",
          "name": "user",
          "type": "address"
        }
      ],
      "name": "PremiumReset",
      "type": "event"
    },
    {
      "anonymous": false,
      "inputs": [
        {
          "indexed": true,
          "internalType": "address",
          "name": "user",
          "type": "address"
        },
        {
          "indexed": false,
          "internalType": "uint256",
          "name": "newExpiredTime",
          "type": "uint256"
        }
      ],
      "name": "PremiumTimeUpdated",
      "type": "event"
    },
    {
      "anonymous": false,
      "inputs": [
        {
          "indexed": true,
          "internalType": "address",
          "name": "user",
          "type": "address"
        },
        {
          "indexed": false,
          "internalType": "uint256",
          "name": "legacyId",
          "type": "uint256"
        },
        {
          "indexed": false,
          "internalType": "address",
          "name": "legacyAddress",
          "type": "address"
        },
        {
          "indexed": false,
          "internalType": "uint128",
          "name": "legacyType",
          "type": "uint128"
        }
      ],
      "name": "SecondLineEmailReset",
      "type": "event"
    },
    {
      "anonymous": false,
      "inputs": [
        {
          "indexed": true,
          "internalType": "address",
          "name": "user",
          "type": "address"
        },
        {
          "indexed": false,
          "internalType": "uint256",
          "name": "legacyId",
          "type": "uint256"
        },
        {
          "indexed": false,
          "internalType": "address",
          "name": "legacyAddress",
          "type": "address"
        },
        {
          "indexed": false,
          "internalType": "uint128",
          "name": "legacyType",
          "type": "uint128"
        }
      ],
      "name": "ThirdLineEmailReset",
      "type": "event"
    },
    {
      "anonymous": false,
      "inputs": [
        {
          "indexed": true,
          "internalType": "address",
          "name": "user",
          "type": "address"
        },
        {
          "indexed": false,
          "internalType": "string",
          "name": "name",
          "type": "string"
        },
        {
          "indexed": false,
          "internalType": "string",
          "name": "email",
          "type": "string"
        },
        {
          "indexed": false,
          "internalType": "uint256",
          "name": "timePriorActivation",
          "type": "uint256"
        }
      ],
      "name": "UserConfigUpdated",
      "type": "event"
    },
    {
      "anonymous": false,
      "inputs": [
        {
          "indexed": true,
          "internalType": "address",
          "name": "user",
          "type": "address"
        },
        {
          "indexed": false,
          "internalType": "uint256",
          "name": "legacyId",
          "type": "uint256"
        },
        {
          "indexed": false,
          "internalType": "address",
          "name": "legacyAddress",
          "type": "address"
        },
        {
          "indexed": false,
          "internalType": "uint256",
          "name": "legacyType",
          "type": "uint256"
        }
      ],
      "name": "WatcherReset",
      "type": "event"
    },
    {
      "anonymous": false,
      "inputs": [
        {
          "indexed": true,
          "internalType": "address",
          "name": "user",
          "type": "address"
        },
        {
          "indexed": false,
          "internalType": "uint256",
          "name": "legacyId",
          "type": "uint256"
        },
        {
          "indexed": false,
          "internalType": "address",
          "name": "legacyAddress",
          "type": "address"
        },
        {
          "indexed": false,
          "internalType": "uint256",
          "name": "legacyType",
          "type": "uint256"
        },
        {
          "indexed": false,
          "internalType": "string[]",
          "name": "name",
          "type": "string[]"
        },
        {
          "indexed": false,
          "internalType": "address[]",
          "name": "watchers",
          "type": "address[]"
        },
        {
          "indexed": false,
          "internalType": "bool[]",
          "name": "isFullVisibility",
          "type": "bool[]"
        }
      ],
      "name": "WatcherUpdated",
      "type": "event"
    },
    {
      "inputs": [
        {
          "internalType": "address[]",
          "name": "legacyAddresses",
          "type": "address[]"
        }
      ],
      "name": "clearLegacyConfig",
      "outputs": [],
      "stateMutability": "nonpayable",
      "type": "function"
    },
    {
      "inputs": [
        {
          "internalType": "address[]",
          "name": "legacyAddresses",
          "type": "address[]"
        }
      ],
      "name": "clearWatcher",
      "outputs": [],
      "stateMutability": "nonpayable",
      "type": "function"
    },
    {
      "inputs": [
        {
          "internalType": "address[]",
          "name": "legacyAddresses",
          "type": "address[]"
        }
      ],
      "name": "getBatchLegacyTriggerTimestamp",
      "outputs": [
        {
          "internalType": "uint256[][]",
          "name": "",
          "type": "uint256[][]"
        }
      ],
      "stateMutability": "view",
      "type": "function"
    },
    {
      "inputs": [
        {
          "internalType": "address",
          "name": "legacyAddress",
          "type": "address"
        }
      ],
      "name": "getBeneficiaryData",
      "outputs": [
        {
          "internalType": "address[]",
          "name": "",
          "type": "address[]"
        },
        {
          "internalType": "string[]",
          "name": "",
          "type": "string[]"
        },
        {
          "internalType": "string[]",
          "name": "",
          "type": "string[]"
        }
      ],
      "stateMutability": "view",
      "type": "function"
    },
    {
      "inputs": [
        {
          "internalType": "address",
          "name": "legacyAddress",
          "type": "address"
        }
      ],
      "name": "getCosignerData",
      "outputs": [
        {
          "internalType": "address[]",
          "name": "",
          "type": "address[]"
        },
        {
          "internalType": "string[]",
          "name": "",
          "type": "string[]"
        },
        {
          "internalType": "string[]",
          "name": "",
          "type": "string[]"
        }
      ],
      "stateMutability": "view",
      "type": "function"
    },
    {
      "inputs": [
        {
          "internalType": "address",
          "name": "legacyAddress",
          "type": "address"
        }
      ],
      "name": "getLegacyCode",
      "outputs": [
        {
          "internalType": "uint256",
          "name": "",
          "type": "uint256"
        }
      ],
      "stateMutability": "view",
      "type": "function"
    },
    {
      "inputs": [
        {
          "internalType": "address",
          "name": "legacyAddress",
          "type": "address"
        }
      ],
      "name": "getSecondLineData",
      "outputs": [
        {
          "internalType": "address",
          "name": "",
          "type": "address"
        },
        {
          "internalType": "string",
          "name": "",
          "type": "string"
        },
        {
          "internalType": "string",
          "name": "",
          "type": "string"
        }
      ],
      "stateMutability": "view",
      "type": "function"
    },
    {
      "inputs": [
        {
          "internalType": "address",
          "name": "legacyAddress",
          "type": "address"
        }
      ],
      "name": "getThirdLineData",
      "outputs": [
        {
          "internalType": "address",
          "name": "",
          "type": "address"
        },
        {
          "internalType": "string",
          "name": "",
          "type": "string"
        },
        {
          "internalType": "string",
          "name": "",
          "type": "string"
        }
      ],
      "stateMutability": "view",
      "type": "function"
    },
    {
      "inputs": [
        {
          "internalType": "address",
          "name": "user",
          "type": "address"
        }
      ],
      "name": "getTimeAhead",
      "outputs": [
        {
          "internalType": "uint256",
          "name": "",
          "type": "uint256"
        }
      ],
      "stateMutability": "view",
      "type": "function"
    },
    {
      "inputs": [
        {
          "internalType": "address",
          "name": "user",
          "type": "address"
        }
      ],
      "name": "getUserData",
      "outputs": [
        {
          "internalType": "string",
          "name": "",
          "type": "string"
        },
        {
          "internalType": "string",
          "name": "",
          "type": "string"
        },
        {
          "internalType": "uint256",
          "name": "",
          "type": "uint256"
        }
      ],
      "stateMutability": "view",
      "type": "function"
    },
    {
      "inputs": [],
      "name": "initialize",
      "outputs": [],
      "stateMutability": "nonpayable",
      "type": "function"
    },
    {
      "inputs": [
        {
          "internalType": "address",
          "name": "user",
          "type": "address"
        }
      ],
      "name": "isPremium",
      "outputs": [
        {
          "internalType": "bool",
          "name": "",
          "type": "bool"
        }
      ],
      "stateMutability": "view",
      "type": "function"
    },
    {
      "inputs": [
        {
          "internalType": "address",
          "name": "legacyAddress",
          "type": "address"
        }
      ],
      "name": "isSafeLegacy",
      "outputs": [
        {
          "internalType": "bool",
          "name": "",
          "type": "bool"
        }
      ],
      "stateMutability": "view",
      "type": "function"
    },
    {
      "inputs": [
        {
          "internalType": "address",
          "name": "",
          "type": "address"
        }
      ],
      "name": "legacyCfgs",
      "outputs": [
        {
          "components": [
            {
              "internalType": "address",
              "name": "addr",
              "type": "address"
            },
            {
              "internalType": "string",
              "name": "email",
              "type": "string"
            },
            {
              "internalType": "string",
              "name": "name",
              "type": "string"
            }
          ],
          "internalType": "struct PremiumSetting.EmailMapping",
          "name": "secondLine",
          "type": "tuple"
        },
        {
          "components": [
            {
              "internalType": "address",
              "name": "addr",
              "type": "address"
            },
            {
              "internalType": "string",
              "name": "email",
              "type": "string"
            },
            {
              "internalType": "string",
              "name": "name",
              "type": "string"
            }
          ],
          "internalType": "struct PremiumSetting.EmailMapping",
          "name": "thirdLine",
          "type": "tuple"
        }
      ],
      "stateMutability": "view",
      "type": "function"
    },
    {
      "inputs": [],
      "name": "multisigLegacyContractRouter",
      "outputs": [
        {
          "internalType": "address",
          "name": "",
          "type": "address"
        }
      ],
      "stateMutability": "view",
      "type": "function"
    },
    {
      "inputs": [],
      "name": "owner",
      "outputs": [
        {
          "internalType": "address",
          "name": "",
          "type": "address"
        }
      ],
      "stateMutability": "view",
      "type": "function"
    },
    {
      "inputs": [],
      "name": "premiumAutomationManager",
      "outputs": [
        {
          "internalType": "contract IPremiumAutomationManager",
          "name": "",
          "type": "address"
        }
      ],
      "stateMutability": "view",
      "type": "function"
    },
    {
      "inputs": [
        {
          "internalType": "address",
          "name": "",
          "type": "address"
        }
      ],
      "name": "premiumExpired",
      "outputs": [
        {
          "internalType": "uint256",
          "name": "",
          "type": "uint256"
        }
      ],
      "stateMutability": "view",
      "type": "function"
    },
    {
      "inputs": [],
      "name": "premiumRegistry",
      "outputs": [
        {
          "internalType": "address",
          "name": "",
          "type": "address"
        }
      ],
      "stateMutability": "view",
      "type": "function"
    },
    {
      "inputs": [],
      "name": "premiumSendMail",
      "outputs": [
        {
          "internalType": "contract IPremiumSendMail",
          "name": "",
          "type": "address"
        }
      ],
      "stateMutability": "view",
      "type": "function"
    },
    {
      "inputs": [],
      "name": "renounceOwnership",
      "outputs": [],
      "stateMutability": "nonpayable",
      "type": "function"
    },
    {
      "inputs": [
        {
          "internalType": "address",
          "name": "user",
          "type": "address"
        },
        {
          "internalType": "address",
          "name": "legacyAddress",
          "type": "address"
        },
        {
          "internalType": "uint8",
          "name": "layer",
          "type": "uint8"
        }
      ],
      "name": "resetLayerEmail",
      "outputs": [],
      "stateMutability": "nonpayable",
      "type": "function"
    },
    {
      "inputs": [
        {
          "internalType": "address",
          "name": "user",
          "type": "address"
        }
      ],
      "name": "resetPremium",
      "outputs": [],
      "stateMutability": "nonpayable",
      "type": "function"
    },
    {
      "inputs": [
        {
          "internalType": "address",
          "name": "_premiumRegistry",
          "type": "address"
        },
        {
          "internalType": "address",
          "name": "_transferLegacyContractRouter",
          "type": "address"
        },
        {
          "internalType": "address",
          "name": "_transferLegacyEOAContractRouter",
          "type": "address"
        },
        {
          "internalType": "address",
          "name": "_multisigLegacyContractRouter",
          "type": "address"
        }
      ],
      "name": "setParams",
      "outputs": [],
      "stateMutability": "nonpayable",
      "type": "function"
    },
    {
      "inputs": [
        {
          "internalType": "address",
          "name": "user",
          "type": "address"
        },
        {
          "internalType": "address",
          "name": "legacyAddress",
          "type": "address"
        }
      ],
      "name": "setPrivateCodeAndCronjob",
      "outputs": [],
      "stateMutability": "nonpayable",
      "type": "function"
    },
    {
      "inputs": [
        {
          "internalType": "string",
          "name": "name",
          "type": "string"
        },
        {
          "internalType": "string",
          "name": "ownerEmail",
          "type": "string"
        },
        {
          "internalType": "uint256",
          "name": "timePriorActivation",
          "type": "uint256"
        },
        {
          "internalType": "address[]",
          "name": "legacyAddresses",
          "type": "address[]"
        },
        {
          "components": [
            {
              "components": [
                {
                  "internalType": "address",
                  "name": "addr",
                  "type": "address"
                },
                {
                  "internalType": "string",
                  "name": "email",
                  "type": "string"
                },
                {
                  "internalType": "string",
                  "name": "name",
                  "type": "string"
                }
              ],
              "internalType": "struct PremiumSetting.EmailMapping[]",
              "name": "cosigners",
              "type": "tuple[]"
            },
            {
              "components": [
                {
                  "internalType": "address",
                  "name": "addr",
                  "type": "address"
                },
                {
                  "internalType": "string",
                  "name": "email",
                  "type": "string"
                },
                {
                  "internalType": "string",
                  "name": "name",
                  "type": "string"
                }
              ],
              "internalType": "struct PremiumSetting.EmailMapping[]",
              "name": "beneficiaries",
              "type": "tuple[]"
            },
            {
              "components": [
                {
                  "internalType": "address",
                  "name": "addr",
                  "type": "address"
                },
                {
                  "internalType": "string",
                  "name": "email",
                  "type": "string"
                },
                {
                  "internalType": "string",
                  "name": "name",
                  "type": "string"
                }
              ],
              "internalType": "struct PremiumSetting.EmailMapping",
              "name": "secondLine",
              "type": "tuple"
            },
            {
              "components": [
                {
                  "internalType": "address",
                  "name": "addr",
                  "type": "address"
                },
                {
                  "internalType": "string",
                  "name": "email",
                  "type": "string"
                },
                {
                  "internalType": "string",
                  "name": "name",
                  "type": "string"
                }
              ],
              "internalType": "struct PremiumSetting.EmailMapping",
              "name": "thirdLine",
              "type": "tuple"
            }
          ],
          "internalType": "struct PremiumSetting.LegacyConfig[]",
          "name": "legacyData",
          "type": "tuple[]"
        }
      ],
      "name": "setReminderConfigs",
      "outputs": [],
      "stateMutability": "nonpayable",
      "type": "function"
    },
    {
      "inputs": [
        {
          "internalType": "address",
          "name": "_premiumAutomationManager",
          "type": "address"
        },
        {
          "internalType": "address",
          "name": "_premiumSendMail",
          "type": "address"
        }
      ],
      "name": "setUpReminder",
      "outputs": [],
      "stateMutability": "nonpayable",
      "type": "function"
    },
    {
      "inputs": [
        {
          "internalType": "address",
          "name": "legacyAddress",
          "type": "address"
        },
        {
          "internalType": "string[]",
          "name": "names",
          "type": "string[]"
        },
        {
          "internalType": "address[]",
          "name": "watchers",
          "type": "address[]"
        },
        {
          "internalType": "bool[]",
          "name": "isFullVisibility",
          "type": "bool[]"
        }
      ],
      "name": "setWatchers",
      "outputs": [],
      "stateMutability": "nonpayable",
      "type": "function"
    },
    {
      "inputs": [
        {
          "internalType": "address",
          "name": "user",
          "type": "address"
        },
        {
          "internalType": "address",
          "name": "legacyAddress",
          "type": "address"
        },
        {
          "components": [
            {
              "internalType": "address",
              "name": "user",
              "type": "address"
            },
            {
              "internalType": "uint256",
              "name": "percent",
              "type": "uint256"
            }
          ],
          "internalType": "struct TransferLegacyStruct.Distribution[]",
          "name": "newDistributions_",
          "type": "tuple[]"
        }
      ],
      "name": "syncBeneficiariesEmails",
      "outputs": [],
      "stateMutability": "nonpayable",
      "type": "function"
    },
    {
      "inputs": [],
      "name": "transferLegacyContractRouter",
      "outputs": [
        {
          "internalType": "address",
          "name": "",
          "type": "address"
        }
      ],
      "stateMutability": "view",
      "type": "function"
    },
    {
      "inputs": [],
      "name": "transferLegacyEOAContractRouter",
      "outputs": [
        {
          "internalType": "address",
          "name": "",
          "type": "address"
        }
      ],
      "stateMutability": "view",
      "type": "function"
    },
    {
      "inputs": [
        {
          "internalType": "address",
          "name": "newOwner",
          "type": "address"
        }
      ],
      "name": "transferOwnership",
      "outputs": [],
      "stateMutability": "nonpayable",
      "type": "function"
    },
    {
      "inputs": [
        {
          "internalType": "address",
          "name": "legacyAddress",
          "type": "address"
        }
      ],
      "name": "triggerActivationMultisig",
      "outputs": [],
      "stateMutability": "nonpayable",
      "type": "function"
    },
    {
      "inputs": [
        {
          "components": [
            {
              "internalType": "address",
              "name": "listToken",
              "type": "address"
            },
            {
              "internalType": "uint256",
              "name": "listAmount",
              "type": "uint256"
            },
            {
              "internalType": "string",
              "name": "listAssetName",
              "type": "string"
            }
          ],
          "internalType": "struct NotifyLib.ListAsset[]",
          "name": "listAsset",
          "type": "tuple[]"
        },
        {
          "components": [
            {
              "internalType": "string",
              "name": "name",
              "type": "string"
            },
            {
              "internalType": "address",
              "name": "beneAddress",
              "type": "address"
            },
            {
              "internalType": "string[]",
              "name": "listAssetName",
              "type": "string[]"
            },
            {
              "internalType": "uint256[]",
              "name": "listAmount",
              "type": "uint256[]"
            }
          ],
          "internalType": "struct NotifyLib.BeneReceived[]",
          "name": "_listBeneReceived",
          "type": "tuple[]"
        },
        {
          "internalType": "bool",
          "name": "remaining",
          "type": "bool"
        }
      ],
      "name": "triggerActivationTransferLegacy",
      "outputs": [],
      "stateMutability": "nonpayable",
      "type": "function"
    },
    {
      "inputs": [
        {
          "internalType": "address",
          "name": "legacyAddress",
          "type": "address"
        }
      ],
      "name": "triggerOwnerResetReminder",
      "outputs": [],
      "stateMutability": "nonpayable",
      "type": "function"
    },
    {
      "inputs": [
        {
          "internalType": "address[]",
          "name": "legacyAddresses",
          "type": "address[]"
        },
        {
          "components": [
            {
              "components": [
                {
                  "internalType": "address",
                  "name": "addr",
                  "type": "address"
                },
                {
                  "internalType": "string",
                  "name": "email",
                  "type": "string"
                },
                {
                  "internalType": "string",
                  "name": "name",
                  "type": "string"
                }
              ],
              "internalType": "struct PremiumSetting.EmailMapping[]",
              "name": "cosigners",
              "type": "tuple[]"
            },
            {
              "components": [
                {
                  "internalType": "address",
                  "name": "addr",
                  "type": "address"
                },
                {
                  "internalType": "string",
                  "name": "email",
                  "type": "string"
                },
                {
                  "internalType": "string",
                  "name": "name",
                  "type": "string"
                }
              ],
              "internalType": "struct PremiumSetting.EmailMapping[]",
              "name": "beneficiaries",
              "type": "tuple[]"
            },
            {
              "components": [
                {
                  "internalType": "address",
                  "name": "addr",
                  "type": "address"
                },
                {
                  "internalType": "string",
                  "name": "email",
                  "type": "string"
                },
                {
                  "internalType": "string",
                  "name": "name",
                  "type": "string"
                }
              ],
              "internalType": "struct PremiumSetting.EmailMapping",
              "name": "secondLine",
              "type": "tuple"
            },
            {
              "components": [
                {
                  "internalType": "address",
                  "name": "addr",
                  "type": "address"
                },
                {
                  "internalType": "string",
                  "name": "email",
                  "type": "string"
                },
                {
                  "internalType": "string",
                  "name": "name",
                  "type": "string"
                }
              ],
              "internalType": "struct PremiumSetting.EmailMapping",
              "name": "thirdLine",
              "type": "tuple"
            }
          ],
          "internalType": "struct PremiumSetting.LegacyConfig[]",
          "name": "legacyData",
          "type": "tuple[]"
        }
      ],
      "name": "updateLegacyConfig",
      "outputs": [],
      "stateMutability": "nonpayable",
      "type": "function"
    },
    {
      "inputs": [
        {
          "internalType": "address",
          "name": "user",
          "type": "address"
        },
        {
          "internalType": "uint256",
          "name": "duration",
          "type": "uint256"
        }
      ],
      "name": "updatePremiumTime",
      "outputs": [],
      "stateMutability": "nonpayable",
      "type": "function"
    },
    {
      "inputs": [
        {
          "internalType": "string",
          "name": "name",
          "type": "string"
        },
        {
          "internalType": "string",
          "name": "ownerEmail",
          "type": "string"
        },
        {
          "internalType": "uint256",
          "name": "timePriorActivation",
          "type": "uint256"
        }
      ],
      "name": "updateUserConfig",
      "outputs": [],
      "stateMutability": "nonpayable",
      "type": "function"
    },
    {
      "inputs": [
        {
          "internalType": "address",
          "name": "",
          "type": "address"
        }
      ],
      "name": "userConfigs",
      "outputs": [
        {
          "internalType": "string",
          "name": "ownerName",
          "type": "string"
        },
        {
          "internalType": "string",
          "name": "ownerEmail",
          "type": "string"
        },
        {
          "internalType": "uint256",
          "name": "timePriorActivation",
          "type": "uint256"
        }
      ],
      "stateMutability": "view",
      "type": "function"
    }
  ],
  "transactionHash": "0x58e84f848e8074370fba5a1e356c958abdfece3eb121985e84faf0bc927a3561",
  "args": [],
  "numDeployments": 3,
  "solcInputHash": "32fd272c4bed775824910e9422fbe936",
  "bytecode": "0x60808060405234620000bd577ff0c57e16840df040f15088dc2f81fe391c3923bec73e23a9662efc9c229c6a009081549060ff8260401c16620000ae57506001600160401b036002600160401b03198282160162000068575b604051615f549081620000c38239f35b6001600160401b031990911681179091556040519081527fc7f505b2f371ae2175ee4913f4499e1f2633a7b5936321eed1cdaeb6115181d290602090a138808062000058565b63f92ee8a960e01b8152600490fd5b600080fdfe6080604052600436101561001257600080fd5b6000803560e01c80630420c78e14613774578063054461a8146135745780631264be421461353457806318641e92146133235780631ef48e06146132fa578063206055de146132d55780632346df74146132ac5780632614608914613247578063265a4a6d146130165780632a01540b14612f885780632e1edd9514612e9b5780633396e8b314612b3857806333e9910614612ae957806336840f6d14612a745780633dd5f1a4146129cb57806340fc1ac41461295c57806344489d34146124e357806345e9f838146124ba578063715018a61461244f578063742fe0d4146124095780637c07b3b11461207e5780637db92e4214611eb75780638129fc1c14611d8d578063816fa70e14611d6457806382b5266f14611d275780638da5cb5b14611cf1578063909d243914611c66578063a49aae1214611bba578063aa7dda04146117b6578063b6a2e8c514611782578063b8ed49441461174e578063c2200e3c146116d9578063cfb8d396146116b0578063e166be5614611678578063f2fde38b1461164b578063f6aea83e14610d90578063f961153314610d67578063fa6cb4f8146102045763ffc9896b146101ca57600080fd5b34610201576020366003190112610201576101fd6101ee6101e96139b8565b615d29565b60409391935193849384613e2c565b0390f35b80fd5b5034610201576040366003190112610201576001600160401b03600435818111610d6357610236903690600401613ab2565b9091602435908111610d5f57610250903690600401613ab2565b336000908152602081905260409020549093919061026f904210613f48565b61027a848414613f83565b84905b838210610288578580f35b61029f61029a83868699979899614032565b614058565b936102ab83888461406c565b9433825260016020526102c16040832054613c60565b15610d4d573382526001602052600260408320015415610d4d5733825260016020526102f36001604084200154613c60565b15610d4d57604051633fdbdeff60e11b8152966060886004816001600160a01b0386165afa988915610d42578398849a610d0a575b5060405163b5ddc99f60e01b8152946020866004816001600160a01b0388165afa958615610cff578596610cbf575b506040516302d05d3f60e01b81526020816004816001600160a01b0389165afa8015610904578690610c80575b61039991506001600160a01b031633146140a2565b6103a2846159f0565b6001600160a01b03841685526002602052604085209a6103c28a80615618565b9050610a42575b506001600160801b03861660010361090f5760405163244edc8b60e21b81529785896004816001600160a01b0389165afa9889156109045786996108e0575b50855b61041860208c018c615618565b90508110156104d25761043b61029a8261043560208f018f615618565b90615687565b6001600160a01b0361044d838d61433b565b51166001600160a01b039091160361048d57806104838e600161047c8f95610435876020610488990190615618565b9101615896565b61400d565b61040b565b60405162461bcd60e51b815260206004820152601f60248201527f62656e6566696369617279206e6f74206d6174636820696e206c6567616379006044820152606490fd5b509750979492909899919593995b6001600160a01b036104f861029a6040890189615672565b166107e55761051761050d6040880188615672565b602081019061569e565b905061078b575b60608601926001600160a01b0361053861029a868a615672565b1661066a575061054b61050d8488615672565b9050610611576106026105f361060a976105e5600080516020615eff833981519152965b6105aa6105d761057f8580615618565b6001600160801b036105946020890189615618565b9590966105a460408b018b615672565b99615672565b9d6040519c8d9c8d5260018060a01b031660208d01521660408b015260e060608b015260e08a0191615918565b918783036080890152615918565b9084820360a08601526158c3565b82810360c084015233956158c3565b0390a261400d565b909261027d565b60405162461bcd60e51b815260206004820152602b60248201527f74686972646c696e6520696e76616c69642070616972206f662061646472657360448201526a1cc8185b9908195b585a5b60aa1b6064820152608490fd5b61067e61029a858995979899969496615672565b604051639247a1b360e01b8152600360048201526001600160a01b0391821660248201526044918e919060209082908590829086908d165af191821561077f5791610748575b501561070857506105f3836105e5846107036106029560056106fc600080516020615eff8339815191529b9961060a9f9e9d9b615672565b91016156d0565b61056f565b60649078696e76616c69642074686972646c696e65206164647265737360381b6040519162461bcd60e51b83526020600484015260196024840152820152fd5b90506020813d602011610777575b8161076360209383613980565b810103126107725751386106c4565b600080fd5b3d9150610756565b604051903d90823e3d90fd5b60405162461bcd60e51b815260206004820152602c60248201527f7365636f6e646c696e6520696e76616c69642070616972206f6620616464726560448201526b1cdcc8185b9908195b585a5b60a21b6064820152608490fd5b8a6107f661029a6040890189615672565b604051639247a1b360e01b8152600260048201526001600160a01b039182166024820152604492909160209183918591839189165af19081156108d5578d916108a3575b501561085f575061085a6108516040880188615672565b600285016156d0565b61051e565b6064907f696e76616c6964207365636f6e646c696e6520616464726573730000000000006040519162461bcd60e51b835260206004840152601a6024840152820152fd5b90506020813d6020116108cd575b816108be60209383613980565b8101031261077257513861083a565b3d91506108b1565b6040513d8f823e3d90fd5b6108fd9199503d8088833e6108f58183613980565b81019061564d565b9738610408565b6040513d88823e3d90fd5b90919295949396875b61092560208b018b615618565b9050811015610a31578861094361029a8361043560208f018f615618565b604051639247a1b360e01b8152600160048201526001600160a01b03918216602482015260449290916020918391859183918f165af1908115610a26578b916109f4575b50156109b05750806104838d600161047c6109ab958f806020610435920190615618565b610918565b6064907f696e76616c69642062656e6566696369617279206164647265737300000000006040519162461bcd60e51b835260206004840152601b6024840152820152fd5b90506020813d602011610a1e575b81610a0f60209383613980565b81010312610772575138610987565b3d9150610a02565b6040513d8d823e3d90fd5b5096999198979493929590976104e0565b979160036001600160801b03889c98999697999593951614610c2657610a688a80615618565b60405163a0e67e2b60e01b815290915089816004816001600160a01b038f165afa908115610baa578a91610c0c575b505103610bc757875b610aaa8b80615618565b9050811015610bb557896020610ac861029a848f8061043591615618565b6040516317aa5fb760e11b81526001600160a01b0391821660048201529283916024918391165afa908115610baa578a91610b6b575b5015610b2657806104838e610b1b610b21948f8061043591615618565b90615896565b610aa0565b60405162461bcd60e51b815260206004820152601860248201527f696e76616c696420636f7369676e6572206164647265737300000000000000006044820152606490fd5b90506020813d602011610ba2575b81610b8660209383613980565b81010312610b9e57518015158103610b9e5738610afe565b8980fd5b3d9150610b79565b6040513d8c823e3d90fd5b509197509198949895939295386103c9565b60405162461bcd60e51b815260206004820152601860248201527f436f7367696e6572206c656e677468206d69736d6174636800000000000000006044820152606490fd5b610c2091503d808c833e6108f58183613980565b38610a97565b60405162461bcd60e51b815260206004820152602c60248201527f4f6e6c792053616665206c656761637920616c6c6f77656420746f20636f6e6660448201526b696720636f7369676e65727360a01b6064820152608490fd5b506020813d602011610cb7575b81610c9a60209383613980565b81010312610cb357610cae6103999161408e565b610384565b8580fd5b3d9150610c8d565b9095506020813d602011610cf7575b81610cdb60209383613980565b81010312610cf357610cec906140e4565b9438610357565b8480fd5b3d9150610cce565b6040513d87823e3d90fd5b909950610d3091985060603d606011610d3b575b610d288183613980565b81019061530f565b509790979838610328565b503d610d1e565b6040513d85823e3d90fd5b604051632d02584560e11b8152600490fd5b8380fd5b8280fd5b5034610201578060031936011261020157600a546040516001600160a01b039091168152602090f35b50346102015760a0366003190112610201576001600160401b039060043582811161164757610dc3903690600401613c33565b602435848111610d5f57610ddb903690600401613c33565b6044359060643587811161164357610df7903690600401613ab2565b93909760843590811161163f5790610e18610e549493923690600401613ab2565b336000908152602081905260409020549198909791610e38904210613f48565b610e43888814613f83565b610e4e851515613fc1565b33615387565b835b818110610e61578480f35b610e6f61029a828489614032565b93610e7b82858361406c565b943387526001602052610e916040882054613c60565b15610d4d573387526001602052600260408820015415610d4d573387526001602052610ec36001604089200154613c60565b15610d4d57604051633fdbdeff60e11b8152936060856004816001600160a01b0386165afa988915611634578895899a61160c575b5060405163b5ddc99f60e01b8152936020856004816001600160a01b0388165afa948515610baa578a956115d0575b506040516302d05d3f60e01b81526020816004816001600160a01b0389165afa8015610a26578b90611591575b610f6991506001600160a01b031633146140a2565b610f72846159f0565b6001600160a01b0384168a52600260205260408a209a610f928a80615618565b905061144c575b506001600160801b0385166001036113285760405163244edc8b60e21b8152978a896004816001600160a01b0389165afa988915610a26578b9961130c575b508a5b610fe860208c018c615618565b905081101561104b5761100561029a8261043560208f018f615618565b6001600160a01b03611017838d61433b565b51166001600160a01b039091160361048d57806104838e600161047c8f95610435876020611046990190615618565b610fdb565b50975097919594939290995b6001600160a01b0361106f61029a6040860186615672565b166112205761108461050d6040850185615672565b905061078b575b6001600160a01b036110a361029a6060860186615672565b1661112357506110b961050d6060840184615672565b90506106115761111e946106026105f3600080516020615eff833981519152945b6105e56110e78280615618565b906105d76110f86020860186615618565b9290936001600160801b036105aa61111360408a018a615672565b986060810190615672565b610e56565b919489602061113861029a60608a018a615672565b604051639247a1b360e01b8152600360048201526001600160a01b039182166024820152928391604491839188165af1908115610a26578b916111ee575b50156111ad576106026105f3876111a8600080516020615eff8339815191529660056106fc606061111e9d0185615672565b6110da565b60405162461bcd60e51b8152602060048201526019602482015278696e76616c69642074686972646c696e65206164647265737360381b6044820152606490fd5b90506020813d602011611218575b8161120960209383613980565b81010312610772575138611176565b3d91506111fc565b89602061123361029a6040870187615672565b604051639247a1b360e01b8152600260048201526001600160a01b039182166024820152928391604491839188165af1908115610a26578b916112da575b5015611295576112906112876040850185615672565b600283016156d0565b61108b565b60405162461bcd60e51b815260206004820152601a60248201527f696e76616c6964207365636f6e646c696e6520616464726573730000000000006044820152606490fd5b90506020813d602011611304575b816112f560209383613980565b81010312610772575138611271565b3d91506112e8565b6113219199503d808d833e6108f58183613980565b9738610fd8565b9091929594939896875b61133f60208b018b615618565b905081101561143e5761135c61029a8261043560208e018e615618565b604051639247a1b360e01b8152600160048201526001600160a01b03918216602482015290602090829060449082908e908e165af1908115610baa578a9161140c575b50156113c757806104838d600161047c6113c2958f806020610435920190615618565b611332565b60405162461bcd60e51b815260206004820152601b60248201527f696e76616c69642062656e6566696369617279206164647265737300000000006044820152606490fd5b90506020813d602011611436575b8161142760209383613980565b8101031261077257513861139f565b3d915061141a565b509698929590979199611057565b979160036001600160801b03879c99979896989593951614610c26576114728a80615618565b60405163a0e67e2b60e01b815290915089816004816001600160a01b038f165afa908115610baa578a91611577575b505103610bc757875b6114b48b80615618565b9050811015611565578960206114d261029a848f8061043591615618565b6040516317aa5fb760e11b81526001600160a01b0391821660048201529283916024918391165afa908115610baa578a9161152a575b5015610b2657806104838e610b1b611525948f8061043591615618565b6114aa565b90506020813d60201161155d575b8161154560209383613980565b81010312610b9e57518015158103610b9e5738611508565b3d9150611538565b50919750919893959894929438610f99565b61158b91503d808c833e6108f58183613980565b386114a1565b506020813d6020116115c8575b816115ab60209383613980565b810103126115c4576115bf610f699161408e565b610f54565b8a80fd5b3d915061159e565b9094506020813d602011611604575b816115ec60209383613980565b81010312610b9e576115fd906140e4565b9338610f27565b3d91506115df565b90995061162991955060603d606011610d3b57610d288183613980565b509490949838610ef8565b6040513d8a823e3d90fd5b8780fd5b8680fd5b5080fd5b5034610201576020366003190112610201576116756116686139b8565b611670613e5a565b613e93565b80f35b5034610201576020366003190112610201576020906040906001600160a01b036116a06139b8565b1681528083522054604051908152f35b50346102015780600319360112610201576007546040516001600160a01b039091168152602090f35b5034610201576020366003190112610201576040906001600160a01b036116fe6139b8565b16815260016020522060405161171f816117188185613c9a565b0382613980565b6101fd600260405193611740856117398160018501613c9a565b0386613980565b015460405193849384613e2c565b5034610201576020366003190112610201576101fd61177361176e6139b8565b615d70565b60409391935193849384613bfc565b5034610201576020366003190112610201576101fd6117a76117a26139b8565b615e5d565b60409391935193849384613b2a565b5034610201576060366003190112610201576117d06139b8565b906117d96139ce565b906001600160401b03806044351161164757366023604435011215611647576044356004013511610201573660246044356004013560061b604435010111610201576006546001600160a01b031633148015611ba6575b8015611b92575b8015611b71575b61184790614138565b6001600160a01b038216815260026020526040812060010192815b8454808210156119be576118956118798388614172565b50546001600160a01b0316604435600481013590602401615cdc565b156118aa575b506118a59061400d565b611862565b60001981019081116119aa5780820361192e575b508454801561191a5760001901906118d68287614172565b929092611904576118fc60028460006118a596556118f6600182016142b3565b016142b3565b86559061189b565b634e487b7160e01b600052600060045260246000fd5b634e487b7160e01b84526031600452602484fd5b6119389086614172565b506119438287614172565b61199657818103611955575b506118be565b60028061198f9360018060a01b038154166001600160601b0360a01b85541617845561198760018201600186016141d5565b0191016141d5565b388061194f565b634e487b7160e01b85526004859052602485fd5b634e487b7160e01b84526011600452602484fd5b6040516309bcf1e560e21b815284908790879086906020816004816001600160a01b0387165afa908115610cff578591611b3f575b5060405163b5ddc99f60e01b81526020816004816001600160a01b0388165afa8015610904578690611aff575b6001600160801b039150604051946080860193865260018060a01b0316602086015216604084015260806060840152835480915260a083019060a08160051b850101948652602086209186905b828210611aa857876001600160a01b0386167f67fa80ba1c4811bf8cb5fbb01520390d84183e0ffe524564446e3546ca460679888a0389a280f35b9091929560206003611af1600193609f198a8203018652848060a01b038b54168152606084820152611adf60608201868d01613c9a565b90604081830391015260028b01613c9a565b980192019201909291611a6d565b506020813d602011611b37575b81611b1960209383613980565b81010312610cb357611b326001600160801b03916140e4565b611a20565b3d9150611b0c565b90506020813d602011611b69575b81611b5a60209383613980565b810103126107725751856119f3565b3d9150611b4d565b50600080516020615edf833981519152546001600160a01b0316331461183e565b506008546001600160a01b03163314611837565b506007546001600160a01b03163314611830565b503461020157602036600319011261020157611bd46139b8565b611bdc613e5a565b6001600160a01b03168082526020829052604082205415611c2b57808252816020528160408120557f62f55233e8bf40982e1e6a04de3472039b20070e86934381a3d07a191f2edf9f8280a280f35b60405162461bcd60e51b81526020600482015260136024820152722737ba1030b710383932b6b4bab6903ab9b2b960691b6044820152606490fd5b503461020157602036600319011261020157611675611c836139b8565b600654611cb390336001600160a01b0391821614908115611ce2575b8115611cd3575b8115611cb8575b50614138565b6143e1565b9050600080516020615edf8339815191525416331438611cad565b80915060085416331490611ca6565b80915060075416331490611c9f565b5034610201578060031936011261020157600080516020615edf833981519152546040516001600160a01b039091168152602090f35b5034610201576020366003190112610201576020906002906040906001600160a01b03611d526139b8565b16815260018452200154604051908152f35b50346102015780600319360112610201576006546040516001600160a01b039091168152602090f35b50346102015780600319360112610201577ff0c57e16840df040f15088dc2f81fe391c3923bec73e23a9662efc9c229c6a00805460ff8160401c1615906001600160401b03811680159081611eaf575b6001149081611ea5575b159081611e9c575b50611e8a5767ffffffffffffffff198116600117835581611e6b575b50611e14613f07565b611e1c613f07565b611e2533613e93565b611e2d575080f35b68ff00000000000000001981541690557fc7f505b2f371ae2175ee4913f4499e1f2633a7b5936321eed1cdaeb6115181d2602060405160018152a180f35b68ffffffffffffffffff19166801000000000000000117825538611e0b565b60405163f92ee8a960e01b8152600490fd5b90501538611def565b303b159150611de7565b839150611ddd565b50346102015760403660031901126102015780611ed26139b8565b611eda6139ce565b6006546001600160a01b03929190831633148015612071575b8015612064575b801561204a575b611f0a90614138565b611f1381615a51565b60405190611f2082613965565b600182526020368184013783611f358361432e565b9116908190526001600160a01b03831660009081526020819052604090205442108061203d575b15611fce57508260095416803b15610cf357611fa093858094604051968795869485936314e356db60e31b8552166004840152604060248401526044830190613b63565b03925af18015611fc357611fb357505080f35b611fbc9061391c565b6102015780f35b6040513d84823e3d90fd5b935050168252600b60205260408220805490600160401b8210156120295760018201808255821015612015578352602083200180546001600160a01b031916909117905580f35b634e487b7160e01b84526032600452602484fd5b634e487b7160e01b84526041600452602484fd5b5083600954161515611f5c565b50600080516020615edf8339815191525483163314611f01565b5082600854163314611efa565b5082600754163314611ef3565b5034610201576080366003190112610201576120986139b8565b6001600160401b03602435818111610d5f576120b8903690600401613ab2565b604492919235828111610cb3576120d3903690600401613ab2565b92606435908111611643576120ec903690600401613ab2565b33600090815260208190526040902054919690949161210c904210613f48565b604051633fdbdeff60e11b81526001600160a01b039182169690946060866004818b5afa958615610baa578a966123e7575b5060405163b5ddc99f60e01b81526020969087816004818d5afa9081156123dc578c916123a3575b506040516302d05d3f60e01b81528c89826004818f5afa80156123965787919061235a575b61219892501633146140a2565b85831480612351575b1561231a5782156122e1579180916001600160801b03899b948a96956040999899519d8e60c0810195815201521660408c015260c060608c01525260e089019060e08160051b8b01019280928d915b8c8484106122a257860360808e0152505050848352505001929188905b828210612280575050505083810360a08501528281528101939190855b82811061225c5786337fd5571c68d1d931dc18e6161c9fd01870a6395928fb648ac1399316caecd31df887890388a280f35b9091929485359081151580920361077257908152820194820192919060010161222a565b90919293858060019284612293896139e4565b1681520195019392019061220d565b966122cc6001939597829395979960df9c9b9c199082030187526122c68a87615356565b90615335565b970193019301909289959492939796976121f0565b60405162461bcd60e51b815260048101899052601160248201527063616e206e6f742073657420656d70747960781b6044820152606490fd5b60405162461bcd60e51b815260048101899052600f60248201526e0d8cadccee8d040dad2e6dac2e8c6d608b1b6044820152606490fd5b508886146121a1565b50508881813d831161238f575b6123718183613980565b8101031261238b57856123866121989261408e565b61218b565b8c80fd5b503d612367565b50604051903d90823e3d90fd5b90508781813d83116123d5575b6123ba8183613980565b810103126123d1576123cb906140e4565b38612166565b8b80fd5b503d6123b0565b6040513d8e823e3d90fd5b61240091965060603d8111610d3b57610d288183613980565b5050943861213e565b50346102015760203660031901126102015760206124456124286139b8565b6001600160a01b0316600090815260208190526040902054421090565b6040519015158152f35b5034610201578060031936011261020157612468613e5a565b600080516020615edf83398151915280546001600160a01b031981169091556000906001600160a01b03167f8be0079c531659141344cd1fd0a4f28419497f9722a3daafe3b4186f6b6457e08280a380f35b50346102015780600319360112610201576005546040516001600160a01b039091168152602090f35b5034610201576060366003190112610201576004356001600160401b038111611647573660238201121561164757806004013561251f816139a1565b9161252d6040519384613980565b8183526024602084019260051b82010190368211610cf35760248101925b8284106128df5785856001600160401b0360243511611647573660236024350112156116475760243560040135612581816139a1565b9061258f6040519283613980565b80825260208201903660248260051b8135010111610cf3576024803501915b60248260051b8135010183106126d257505050604435908115158203610772576040516303e21fa960e61b8152602081600481335afa908115610cff578591612698575b50600080516020615edf833981519152546001600160a01b03919082163303612621575b505061167592614c7a565b818060065416911690811491821561268a575b821561267c575b505015612649578480612616565b60405162461bcd60e51b815260206004820152600b60248201526a4f6e6c79204c656761637960a81b6044820152606490fd5b60085416149050858061263b565b600754811682149250612634565b90506020813d6020116126ca575b816126b360209383613980565b81010312610cf3576126c49061408e565b856125f2565b3d91506126a6565b82356001600160401b038111611643576080908160231982602435013603011261163f576040519182018281106001600160401b038211176128c95760405260248181350101356001600160401b0381116128915761273a9060243691848235010101613e11565b825261274c60448260243501016139e4565b60208301526064816024350101356001600160401b038111612891573660438284602435010101121561289157602481838235010101359061278d826139a1565b9161279b6040519384613980565b808352602083013660448360051b858860243501010101116123d15760448386602435010101905b60448360051b8588602435010101018210612895575050505060408301526084816024350101356001600160401b038111612891573660438284602435010101121561289157602481838235010101359061281d826139a1565b9261282b6040519485613980565b82845260208401913660448560051b838560243501010101116123d15760448183602435010101925b60448560051b838560243501010101841061288157505050505060608201528152602092830192016125ae565b8335815260209384019301612854565b8880fd5b6001600160401b0382351161238b57602080916128be3660448635898c60243501010101613e11565b8152019101906127c3565b634e487b7160e01b600052604160045260246000fd5b83356001600160401b03811161164357820160606023198236030112611643576040519161290c8361392f565b612918602483016139e4565b8352604482013560208401526064820135926001600160401b0384116128915761294c602094936024869536920101613e11565b604082015281520193019261254b565b5034610201576020366003190112610201576129bd906040906001600160a01b036129856139b8565b1681526002602052206101fd6129a960056129a260028501613d30565b9301613d30565b604051938493604085526040850190613d83565b908382036020850152613d83565b5034610201576080366003190112610201576129e56139b8565b6129ed6139ce565b6044356001600160a01b03818116918290036107725760643593818516809503610772578190612a1b613e5a565b16928315612a62578215612a62578415612a62576001600160601b0360a01b9384600554161760055516826006541617600655816007541617600755600854161760085580f35b60405163b51f3e6b60e01b8152600490fd5b5034610201576060366003190112610201576001600160401b03600435818111610d6357612aa6903690600401613c33565b602435928311610d5f57612ac1611675933690600401613c33565b33600090815260208190526040902054909290612adf904210613f48565b6044359333615387565b503461020157602036600319011261020157611675612b066139b8565b600654612b3390336001600160a01b0391821614908115611ce2578115611cd3578115611cb85750614138565b614800565b503461020157606036600319011261020157612b526139b8565b612b5a6139ce565b6044359160ff8316809303610d5f576006546001600160a01b039190821633148015612e8e575b8015612e81575b8015612e67575b612b9890614138565b818316936002811480918115612e5c575b5015612e275715612cf657838552602060028152612bd9600460408820600060028201556118f6600382016142b3565b6040516309bcf1e560e21b8152948186600481845afa958615612cbc578796612cc7575b50816004916040519283809263b5ddc99f60e01b82525afa918215612cbc578792612c5f575b5050612c59907f2935a03994516ccee1e46d77e3e9a0511545db780728053eebfcba6f56206e15946040519485941696846140f8565b0390a280f35b90809250813d8311612cb5575b612c768183613980565b81010312610cb3577f2935a03994516ccee1e46d77e3e9a0511545db780728053eebfcba6f56206e1593612cac612c59926140e4565b91819550612c23565b503d612c6c565b6040513d89823e3d90fd5b9095508181813d8311612cef575b612cdf8183613980565b8101031261077257519481612bfd565b503d612cd5565b838552602060028152612d1b600760408820600060058201556118f6600682016142b3565b6040516309bcf1e560e21b8152948186600481845afa958615612cbc578796612df8575b50816004916040519283809263b5ddc99f60e01b82525afa918215612cbc578792612d9b575b5050612c59907f8eb7989e7ed6179f076878165dd7a3d2243bbdd685236aa16d424c19910bcba4946040519485941696846140f8565b90809250813d8311612df1575b612db28183613980565b81010312610cb3577f8eb7989e7ed6179f076878165dd7a3d2243bbdd685236aa16d424c19910bcba493612de8612c59926140e4565b91819550612d65565b503d612da8565b9095508181813d8311612e20575b612e108183613980565b8101031261077257519481612d3f565b503d612e06565b60405162461bcd60e51b815260206004820152600d60248201526c34b73b30b634b2103630bcb2b960991b6044820152606490fd5b600391501438612ba9565b50600080516020615edf8339815191525482163314612b8f565b5081600854163314612b88565b5081600754163314612b81565b5034610201576020366003190112610201576001600160a01b039081612ebf6139b8565b168152600290816020526040812091825490612eda826142fc565b93612ee4836146db565b95612eee846146db565b945b848110612f0757604051806101fd888b8b84613bfc565b8082612f16612f839386614172565b505416612f23828a61433b565b526001612f44612f338387614172565b506117186040518094819301613c9a565b612f4e828b61433b565b52612f59818a61433b565b5084612f68612f338387614172565b612f72828961433b565b52612f7d818861433b565b5061400d565b612ef0565b50346102015760209081600319360112610201576004826001600160a01b03612faf6139b8565b1660405192838092637ddd755b60e11b82525afa91821561077f578092612fde575b50503b1515604051908152f35b9091508282813d831161300f575b612ff68183613980565b8101031261020157506130089061408e565b3880612fd1565b503d612fec565b5034610201576040366003190112610201576130306139b8565b600554602435916001600160a01b03918216330361320a57811690818452602092848452604085205442106131d357421981106131a6575081845283835260001960408520555b818452838352817f1648bd8ed475a7c2018a29a38c33ba3b9009e4d8d68924ce7123ed6bbce00aa5846040872054604051908152a28060095416806130ba578480f35b828552600b8452604085208054806130d3575b50508480f35b823b1561164357909186926040519485936314e356db60e31b855280604486018960048801526040602488015252606485019286528886209186905b8a8383106131865750505050508383809203925af1801561317b57613168575b508252600b815260408220908154908383558161314f575b8080806130cd565b613160928452832090810190614121565b388080613147565b6131749093919361391c565b913861312f565b6040513d86823e3d90fd5b8454821686528c985089975090940193600193840193919091019061310f565b42018042116131bf578285528484526040852055613077565b634e487b7160e01b85526011600452602485fd5b60405162461bcd60e51b815260048101859052600f60248201526e416c7265616479207072656d69756d60881b6044820152606490fd5b60405162461bcd60e51b81526020600482015260156024820152745f7072656d69756d5265676973747279206f6e6c7960581b6044820152606490fd5b5034610201576040366003190112610201576132616139b8565b6132696139ce565b90613272613e5a565b6001600160a01b03908116918215612a625716908115612a62576001600160601b0360a01b90816009541617600955600a541617600a5580f35b50346102015780600319360112610201576009546040516001600160a01b039091168152602090f35b5034610201576020366003190112610201576101fd6117a76132f56139b8565b615ea6565b50346102015780600319360112610201576008546040516001600160a01b039091168152602090f35b503461020157602080600319360112611647576004356001600160401b038111610d6357613355903690600401613ab2565b3360009081526020819052604090205490929190613374904210613f48565b835b838110613381578480f35b6001600160a01b03908161339961029a838887614032565b6040516302d05d3f60e01b81529116928582600481875afa80156116345788906134fe575b6133cb92501633146140a2565b6133e16133dc61029a838887614032565b6159f0565b6040516309bcf1e560e21b81528481600481865afa908115612cbc5787916134d1575b5060048561341661029a858a89614032565b946040519283809263b5ddc99f60e01b82525afa908115611634578891613475575b507f522c7a6d544fa7e0e680c8e704347fef13af037a78ed1f9a05c4b5d5ecd5365c90613470946106026040519283923396846140f8565b613376565b90508581813d83116134ca575b61348c8183613980565b8101031261163f57613470936134c27f522c7a6d544fa7e0e680c8e704347fef13af037a78ed1f9a05c4b5d5ecd5365c926140e4565b915093613438565b503d613482565b90508481813d83116134f7575b6134e88183613980565b81010312611643575138613404565b503d6134de565b508582813d831161352d575b6135148183613980565b8101031261163f576135286133cb9261408e565b6133be565b503d61350a565b50346102015760203660031901126102015760406020916135536139b8565b61355b613e5a565b6001600160a01b03168152600483522054604051908152f35b503461020157613583366139f8565b336000908152602081905260409020549091906135a1904210613f48565b805b8251811015613770576001600160a01b03806135bf838661433b565b511660405191633fdbdeff60e11b83526060918284600481845afa93841561090457869461374f575b5060405163b5ddc99f60e01b8152916020918284600481845afa938415611634578894613714575b5082600491604051928380926302d05d3f60e01b82525afa90811561163457889161369f575b509261369a96959492826136766001600160801b03947fd44545d5b9fc72a55df0d371386ca7026feac19517c9d0462a244351f4a262c4971633146140a2565b613680888c61433b565b5116906040519687528601521660408401523392a261400d565b6135a3565b90508281813d831161370d575b6136b68183613980565b8101031261163f579261369a96959492826136766001600160801b03946136fd7fd44545d5b9fc72a55df0d371386ca7026feac19517c9d0462a244351f4a262c49861408e565b9497505050925092949596613636565b503d6136ac565b9093508281813d8311613748575b61372c8183613980565b8101031261163f57826137406004926140e4565b949150613610565b503d613722565b613767919450833d8511610d3b57610d288183613980565b505092386135e8565b5080f35b503461020157613783366139f8565b908151916137a9613793846139a1565b936137a16040519586613980565b8085526139a1565b916020916137be83860194601f1901856146be565b815b81518110156138bf576001600160a01b036137db828461433b565b5116604051809163626f09d360e11b825281600460609384935afa908115610cff57859286908793613882575b50604051936138168561394a565b6003855282368a8701376138298561432e565b5283516001101561386e57604084015282516002101561385a578201526138559190612f72828961433b565b6137c0565b634e487b7160e01b86526032600452602486fd5b634e487b7160e01b87526032600452602487fd5b93505080915082813d83116138b8575b61389c8183613980565b81010312610cf357815190604087840151930151919238613808565b503d613892565b505060408051838152855181850181905292949093600584901b8501830193919285015b8287106138f05785850386f35b90919293828061390c600193603f198a82030186528851613a7e565b96019201960195929190926138e3565b6001600160401b0381116128c957604052565b606081019081106001600160401b038211176128c957604052565b608081019081106001600160401b038211176128c957604052565b604081019081106001600160401b038211176128c957604052565b90601f801991011681019081106001600160401b038211176128c957604052565b6001600160401b0381116128c95760051b60200190565b600435906001600160a01b038216820361077257565b602435906001600160a01b038216820361077257565b35906001600160a01b038216820361077257565b60208060031983011261077257600435916001600160401b0383116107725780602384011215610772578260040135613a30816139a1565b93613a3e6040519586613980565b81855260248486019260051b82010192831161077257602401905b828210613a67575050505090565b838091613a73846139e4565b815201910190613a59565b90815180825260208080930193019160005b828110613a9e575050505090565b835185529381019392810192600101613a90565b9181601f84011215610772578235916001600160401b038311610772576020808501948460051b01011161077257565b60005b838110613af55750506000910152565b8181015183820152602001613ae5565b90602091613b1e81518092818552858086019101613ae2565b601f01601f1916010190565b6001600160a01b039091168152606060208201819052613b60939192613b5291840190613b05565b916040818403910152613b05565b90565b90815180825260208080930193019160005b828110613b83575050505090565b83516001600160a01b031685529381019392810192600101613b75565b908082519081815260208091019281808460051b8301019501936000915b848310613bce5750505050505090565b9091929394958480613bec600193601f198682030187528a51613b05565b9801930193019194939290613bbe565b91613c2590613c17613b609593606086526060860190613b63565b908482036020860152613ba0565b916040818403910152613ba0565b9181601f84011215610772578235916001600160401b038311610772576020838186019501011161077257565b90600182811c92168015613c90575b6020831014613c7a57565b634e487b7160e01b600052602260045260246000fd5b91607f1691613c6f565b9060009291805491613cab83613c60565b918282526001938481169081600014613d0d5750600114613ccd575b50505050565b90919394506000526020928360002092846000945b838610613cf9575050505001019038808080613cc7565b805485870183015294019385908201613ce2565b9294505050602093945060ff191683830152151560051b01019038808080613cc7565b90600260408051613d408161392f565b613d7f819560018060a01b0381541683528351613d64816117188160018601613c9a565b6020840152613d7884518096819301613c9a565b0384613980565b0152565b613b609160018060a01b0382511681526040613dae6020840151606060208501526060840190613b05565b920151906040818403910152613b05565b6001600160401b0381116128c957601f01601f191660200190565b929192613de682613dbf565b91613df46040519384613980565b829481845281830111610772578281602093846000960137010152565b9080601f8301121561077257816020613b6093359101613dda565b939291613e5590613e47604093606088526060880190613b05565b908682036020880152613b05565b930152565b600080516020615edf833981519152546001600160a01b03163303613e7b57565b60405163118cdaa760e01b8152336004820152602490fd5b6001600160a01b03908116908115613eee57600080516020615edf83398151915280546001600160a01b031981168417909155167f8be0079c531659141344cd1fd0a4f28419497f9722a3daafe3b4186f6b6457e0600080a3565b604051631e4fbdf760e01b815260006004820152602490fd5b60ff7ff0c57e16840df040f15088dc2f81fe391c3923bec73e23a9662efc9c229c6a005460401c1615613f3657565b604051631afcd79f60e31b8152600490fd5b15613f4f57565b60405162461bcd60e51b815260206004820152600c60248201526b5072656d69756d206f6e6c7960a01b6044820152606490fd5b15613f8a57565b60405162461bcd60e51b815260206004820152600f60248201526e098cadccee8d040dad2e6dac2e8c6d608b1b6044820152606490fd5b15613fc857565b60405162461bcd60e51b815260206004820152601760248201527f74696d655072696f7241637469766174696f6e203e20300000000000000000006044820152606490fd5b600019811461401c5760010190565b634e487b7160e01b600052601160045260246000fd5b91908110156140425760051b0190565b634e487b7160e01b600052603260045260246000fd5b356001600160a01b03811681036107725790565b91908110156140425760051b81013590607e1981360301821215610772570190565b51906001600160a01b038216820361077257565b156140a957565b60405162461bcd60e51b815260206004820152601360248201527237b7363c903632b3b0b1bc9031b932b0ba37b960691b6044820152606490fd5b51906001600160801b038216820361077257565b9081526001600160a01b0390911660208201526001600160801b03909116604082015260600190565b81811061412c575050565b60008155600101614121565b1561413f57565b60405162461bcd60e51b815260206004820152600b60248201526a526f75746572206f6e6c7960a81b6044820152606490fd5b8054821015614042576000526003602060002091020190600090565b9190601f811161419d57505050565b6141c9926000526020600020906020601f840160051c830193106141cb575b601f0160051c0190614121565b565b90915081906141bc565b908082146142af576141e78154613c60565b906001600160401b0382116128c957819061420c826142068654613c60565b8661418e565b600090601f831160011461424357600092614238575b50508160011b916000199060031b1c1916179055565b015490503880614222565b81526020808220858352818320935090601f1985169083905b82821061429657505090846001959493921061427d575b505050811b019055565b015460001960f88460031b161c19169055388080614273565b849581929585015481556001809101960194019061425c565b5050565b6142bd8154613c60565b90816142c7575050565b81601f600093116001146142d9575055565b9080839182526142f8601f60208420940160051c840160018501614121565b5555565b90614306826139a1565b6143136040519182613980565b8281528092614324601f19916139a1565b0190602036910137565b8051156140425760200190565b80518210156140425760209160051b010190565b90816020910312610772575160ff811681036107725790565b602081830312610772578051906001600160401b038211610772570181601f8201121561077257805161439a81613dbf565b926143a86040519485613980565b8184526020828401011161077257613b609160208085019101613ae2565b91613b5290613c17613b609593606086526060860190613ba0565b604080516302d05d3f60e01b8152600092600492916001600160a01b03918083169160209081818881875afa8015614645578890614688575b6001600160a01b0316600090815260208190526040902054421090505b156144f05783600a541692831561467e57855163fd780e9d60e01b815282818981855afa9283156146035791899189959493839461464f575b50508751632a0ab94760e11b815298899182905afa968715614645578897614621575b5061449d82615d70565b958092503b15610b9e57886144cb928b92838b51809681958294633d1d24d960e01b9d8e85528d85016143c6565b03925af180156146035761460d575b5060ff166002811015614587575b6003146144f9575b50505050505050565b61450290615ea6565b939150938451614513575b506144f0565b61452461452a91600a541694614710565b94614710565b95833b1561163f57879493929161454e86928851998a9788968795865285016143c6565b03925af190811561457e575061456a575b80808080808061450d565b614574829161391c565b610201578061455f565b513d84823e3d90fd5b61459082615e5d565b90809250516145a1575b50506144e8565b6145b86145b288600a541692614710565b92614710565b91813b156115c457918a918a9383896145dd8d519788968795869485528d85016143c6565b03925af18015614603579089911561459a576145f89061391c565b61163f57873861459a565b87513d8b823e3d90fd5b9761461a60ff929961391c565b97906144da565b61463e9197503d808a833e6146368183613980565b810190614368565b9538614493565b86513d8a823e3d90fd5b61466f929450803d10614677575b6146678183613980565b81019061434f565b913880614470565b503d61465d565b5050505050505050565b508181813d83116146b7575b61469e8183613980565b8101031261163f576146b26144379161408e565b61441a565b503d614694565b60005b8281106146cd57505050565b6060828201526020016146c1565b906141c96146e8836139a1565b6146f56040519182613980565b83815260208194614708601f19916139a1565b0191016146be565b9060405161471d81613965565b6001815260005b60208082101561473f57906060602092828501015201614724565b5050909161474c8261432e565b526147568161432e565b5090565b81601f8201121561077257805191614771836139a1565b9261477f6040519485613980565b808452602092838086019260051b820101928311610772578301905b8282106147a9575050505090565b8380916147b58461408e565b81520191019061479b565b90606082820312610772578151906001600160401b038211610772576147e791830161475a565b91613b6060406147f96020850161408e565b930161408e565b6040516302d05d3f60e01b8152600092909160209182846004816001600160a01b0386165afa938415610cff578594614b93575b5061483e84615d29565b50604051637ddd755b60e11b81529095915084816004816001600160a01b0388165afa948515612cbc578795614b5b575b5050604051632a0ab94760e11b81529086826004816001600160a01b0388165afa918215612cbc578792614b3b575b506001600160a01b031660009081526020819052604090205442105b15614b33576148c883615d70565b600a54919492506001600160a01b03909116908115614b28578890823b15611647576149419261491b8361492f93604051968795869485936380a42b8d60e01b8552608060048601526084850190613ba0565b60249c8d6003198684030190860152613ba0565b8281036003190160448401528a613b05565b6001600160a01b038d16606483015203925af1801561163457614b15575b50604051632b569b5b60e01b81529187836004816001600160a01b0389165afa928315611634578893614aef575b5061499883516146db565b95885b8451811015614a22576001600160a01b036149b6828761433b565b5160405163bbf1638160e01b815291166004820152908a8288816001600160a01b038c165afa8015610a2657614a03928c91614a08575b506149f8828b61433b565b52612f7d818a61433b565b61499b565b614a1c91503d808e833e6146368183613980565b386149ed565b509395979692919794909460018060a01b03600a541694853b1561289157614a7b93614aba8a98979693948995614acc94614a8c6040519d8e9c8d9b8c9a630ec4a3a760e21b8c5260e060048d015260e48c0190613b05565b916003198b840301908b0152613b05565b6001600160a01b039384166044890152326064890152921660848701528582036003190160a4870152613ba0565b8381036003190160c485015290613b63565b03925af18015611fc357614ade575050565b614ae8829161391c565b6102015750565b614b0c9193503d808a833e614b048183613980565b8101906147c0565b5050913861498d565b614b219097919761391c565b953861495f565b505095505050505050565b509350505050565b6148ba919250614b54903d808a833e6146368183613980565b919061489e565b9080929550813d8311614b8c575b614b738183613980565b81010312610cb357614b849061408e565b92388061486f565b503d614b69565b9093508281813d8311614bc3575b614bab8183613980565b81010312610cf357614bbc9061408e565b9238614834565b503d614ba1565b969897959390614c189293614bfc614bed614c0a93610100808d528c0190613b05565b6020968b8203888d0152613b05565b9089820360408b0152613b05565b908782036060890152613b63565b858103608087015281808551928381520194019160005b828110614c66575050505081614c4f918560e095940360a0870152613ba0565b6001600160a01b0390951660c08401521515910152565b835186529481019492810192600101614c2f565b9291604051926302d05d3f60e01b8452600092602085600481335afa94851561317b5784956152d3575b50604051637ddd755b60e11b815293602085600481335afa948515612396578195615297575b50604051632a0ab94760e11b8152948186600481335afa958615611fc357829661527b575b506001600160a01b0387166000908152602081905260409020544210156152715760405163021fe24d60e41b815232600482015296602088602481335afa978815610d42578398615250575b50600a546001600160a01b031690811561524457614d5890615d29565b50809391505161501f575b5050509060405194632b569b5b60e01b86528286600481335afa908115610d4257839684908593614ffe575b50614d9a8a516142fc565b97855b8b51811015614dd457614dcf906001600160a01b03614dbc828f61433b565b515116614dc9828d61433b565b5261400d565b614d9d565b509193969950919396949760ff1690600190818314614ec4575050600214614eb95750614e0033615ea6565b9390916001600160a01b0390811691161480614eaf575b614e26575b5050505050509050565b600a546001600160a01b0316926040614e4c6060614e438961432e565b5101519761432e565b510151843b1561163f578798998897989392614e81926040519a8b998a988997635e408c6560e01b8952339560048a01614bca565b03925af18015611fc357614e9b575b808080808695614e1c565b614ea5829161391c565b6102015780614e90565b5080511515614e17565b9150614e0033615e5d565b939250969594935050614ed997969733615d70565b93909187895b614ef1575b5050505050505050505050565b8151811015614ff9576001600160a01b03614f0c828461433b565b51166001600160a01b03614f20838661433b565b51161480614fe5575b614f3d575b614f379061400d565b89614edf565b600a5488906001600160a01b0316614f55838961433b565b51614f60848861433b565b51906040614f7d866060614f74828961433b565b5101519661433b565b510151833b15614fe1578f8c938f95938692614fb4918e956040519a8b998a988997635e408c6560e01b8952339560048a01614bca565b03925af18015610baa57908a91614fcd575b5050614f2e565b614fd69061391c565b612891578838614fc6565b8d80fd5b50614ff0818561433b565b51511515614f29565b614ee4565b9197505061501691503d8085833e614b048183613980565b91969038614d8f565b813b15610d5f579183918a6150549461506660405196879563f51fb1cf60e01b87526101206004880152610124870190613b05565b8581036003190160248701528c613b05565b3260448601524260648601526001600160a01b0390911660848501528381036003190160a48501528151808252600581901b820160209081019381019287918101905b8383106151ee5750505050506003198382030160c4840152865190818152602081019060208360051b8201019260208a019287905b828210615122575050505050838380923360e48301528b151561010483015203925af18015611fc357615113575b8080614d63565b61511c9061391c565b3861510c565b9295975092955092601f1990818682030183528651908a61514b83516080808552840190613b05565b60018060a01b036020850151166020840152604084015194838203604085015285519182815260208101916020808560051b840101980194905b8482106151c3575050505050506151af600193602093849360608092015191818403910152613a7e565b9701920192019287959389979592936150de565b9091929394976020806151e0838588600196030189528c51613b05565b9a0196950193920190615185565b9295975092955092602080615232600193601f1986820301875260408a51868060a01b03815116835284810151858401520151906060908160408201520190613b05565b970193019301879593899795926150a9565b50505050509350505050565b61526a91985060203d602011614677576146678183613980565b9638614d3b565b5050509350505050565b6152909196503d8084833e6146368183613980565b9438614cef565b9094506020813d6020116152cb575b816152b360209383613980565b81010312610cf3576152c49061408e565b9338614cca565b3d91506152a6565b9094506020813d602011615307575b816152ef60209383613980565b81010312610d5f576153009061408e565b9338614ca4565b3d91506152e2565b9081606091031261077257805191613b60604061532e6020850161408e565b93016140e4565b908060209392818452848401376000828201840152601f01601f1916010190565b9035601e19823603018112156107725701602081359101916001600160401b03821161077257813603831361077257565b909394919294615398831515613fc1565b604051956153a58761392f565b6153b0368688613dda565b87526153bd368383613dda565b96602093848201988952604082019086825260018060a01b03169860008a815260018088526040822094519182516001600160401b03938482116156045781906154118261540b8b54613c60565b8b61418e565b8b90601f83116001146155a4578492615599575b5050600019600383901b1c191690831b1786555b818601935180519384116155855761545b846154558754613c60565b8761418e565b8991601f85116001146154f45793807f5b58406d1928a8b155bfe15dac82601851563d0dec290d3bd420444b3bc8a1ce9e9d9c9b9997946154de9b9997948294600298946154e9575b50501b916000199060031b1c19161790555b519101556154d1604051978897606089526060890191615335565b9286840390870152615335565b9060408301520390a2565b0151925038806154a4565b9190601f9493941984168684528b8420935b818110615570575092600295927f5b58406d1928a8b155bfe15dac82601851563d0dec290d3bd420444b3bc8a1ce9f9e9d9c9a989592836154de9d9b999610615557575b505050811b0190556154b6565b015160001960f88460031b161c1916905538808061554a565b82840151855593860193928c01928c01615506565b634e487b7160e01b82526041600452602482fd5b015190503880615425565b8985528c85208694509190601f198416868f5b8282106155ed57505084116155d4575b505050811b018655615439565b015160001960f88460031b161c191690553880806155c7565b83850151865589979095019493840193018f6155b7565b634e487b7160e01b83526041600452602483fd5b903590601e198136030182121561077257018035906001600160401b03821161077257602001918160051b3603831361077257565b906020828203126107725781516001600160401b03811161077257613b60920161475a565b903590605e1981360301821215610772570190565b9082101561404257613b609160051b810190615672565b903590601e198136030182121561077257018035906001600160401b0382116107725760200191813603831361077257565b6001600160a01b036156e183614058565b82546001600160a01b0319169116178155600190818101906020906157088583018661569e565b6001600160401b0394918582116128c95761572d826157278554613c60565b8561418e565b600090601f83116001146158285791806002949261576e969460009261581d575b5050600019600383901b1c191690881b1790555b0194604081019061569e565b9283116128c957615783836154558754613c60565b600091601f84116001146157be57509282939183926000946157b3575b50501b916000199060031b1c1916179055565b0135925038806157a0565b9183601f1981168783528483209483905b8883831061580357505050106157e957505050811b019055565b0135600019600384901b60f8161c19169055388080614273565b8686013588559096019593840193879350908101906157cf565b01359050388061574e565b838252858220889392909190601f198416815b898282106158805750509161576e9795939185600298969410615866575b505050811b019055615762565b0135600019600384901b60f8161c19169055388080615859565b8385013586558c9790950194928301920161583b565b8054600160401b8110156128c9576158b391600182018155614172565b919091611904576141c9916156d0565b613b60916001600160a01b036158d8836139e4565b16815261590a6158ff6158ee6020850185615356565b606060208601526060850191615335565b926040810190615356565b916040818503910152615335565b909182815260208091019283918160051b85019484600080925b85841061594457505050505050505090565b909192939495969781810388528835605e1985360301811215610d5f5786615971600193878394016158c3565b9a01980196959401929190615932565b805460008083558161599257505050565b60039282840292848404036159dc57815260208120918201915b8281106159b95750505050565b80828592556159ca600182016142b3565b6159d6600282016142b3565b016159ac565b634e487b7160e01b82526011600452602482fd5b60018060a01b031660005260026020526141c960076040600020615a1381615981565b615a1f60018201615981565b60006002820155615a32600382016142b3565b615a3e600482016142b3565b600060058201556118f6600682016142b3565b6001600160a01b0381811660008181526004602081815260408084205492969094926144f057948390849660019182805b615bee575b50505083855250508581528383208590558483526003815283832080546001600160a01b0319168317905583516309bcf1e560e21b81529581878281865afa968715615be4578497615bb5575b50818551809263b5ddc99f60e01b825281865afa938415615baa578094615b3a575b505083519586528501526001600160801b03169083015260608201527f9bb99ab65a51e4c28ef24f87ebfaa766977e4b6c1d3e0f09a7b523edaa1c300f90608090a1565b909180945082813d8311615ba3575b615b538183613980565b810103126102015750608094927f9bb99ab65a51e4c28ef24f87ebfaa766977e4b6c1d3e0f09a7b523edaa1c300f969492615b956001600160801b03936140e4565b949650929496819250615af6565b503d615b49565b8551903d90823e3d90fd5b9096508181813d8311615bdd575b615bcd8183613980565b81010312610d5f57519538615ad4565b503d615bc3565b85513d86823e3d90fd5b98909192939815615cc4575b5085628954408851868101906001600160601b03198660601b16825242603482015260548c818301528152615c2e8161394a565b51902006620f42408101809111615cb157615c49909961400d565b936014851015615c5c5792919083615a82565b885162461bcd60e51b8152808c01879052602960248201527f546f6f206d616e7920617474656d70747320746f2067656e657261746520756e6044820152686971756520636f646560b81b6064820152608490fd5b634e487b7160e01b885260118b52602488fd5b80875260038552818888205416615bfa579780615a87565b91909160005b838110615cf25750505050600090565b615d008160061b8301614058565b6001600160a01b03848116911614615d2057615d1b9061400d565b615ce2565b50505050600190565b60018060a01b031660005260016020526040600020906002820154906001615d6c604051615d5b816117188189613c9a565b946117186040518094819301613c9a565b9190565b60018060a01b0380911660005260029182602052600192604084816000200191825491615d9c836142fc565b93615da6846146db565b97615db0856146db565b978960005b88888210615dcb57505050505050505050929190565b615e1782615e56948793615ded8389615de4828e614172565b5054169261433b565b52615e12615dfb838b614172565b50615e0b8c518097819301613c9a565b0385613980565b61433b565b52615e22818d61433b565b5086615e41615e318388614172565b5061171889518094819301613c9a565b615e4b828d61433b565b52612f7d818c61433b565b8a90615db5565b60018060a01b038091166000526002602052604060002090600282015416916004613b60604051615e95816117188160038901613c9a565b936117186040518094819301613c9a565b60018060a01b038091166000526002602052604060002090600582015416916007613b60604051615e95816117188160068901613c9a56fe9016d09d72d40fdae2fd8ceac6b6234c7706214fd39c1cd1e609a0528c1993002f06fe5ed23d4bcfef60fb790af45310061c56bc88dfd2a8d88fc979d902aa09a2646970667358221220773d7405d88fecf17dcfe36d7fb8a203079bcdd1ede9f1c6750c3f0ddbf23cbc64736f6c63430008140033",
  "devdoc": {
    "errors": {
      "InvalidInitialization()": [
        {
          "details": "The contract is already initialized."
        }
      ],
      "NotInitializing()": [
        {
          "details": "The contract is not initializing."
        }
      ],
      "OwnableInvalidOwner(address)": [
        {
          "details": "The owner is not a valid owner account. (eg. `address(0)`)"
        }
      ],
      "OwnableUnauthorizedAccount(address)": [
        {
          "details": "The caller account is not authorized to perform an operation."
        }
      ]
    },
    "events": {
      "Initialized(uint64)": {
        "details": "Triggered when the contract has been initialized or reinitialized."
      }
    },
    "kind": "dev",
    "methods": {
      "getBatchLegacyTriggerTimestamp(address[])": {
        "details": "FE use to fetch all legacy trigger timestamp"
      },
      "owner()": {
        "details": "Returns the address of the current owner."
      },
      "renounceOwnership()": {
        "details": "Leaves the contract without owner. It will not be possible to call `onlyOwner` functions. Can only be called by the current owner. NOTE: Renouncing ownership will leave the contract without an owner, thereby disabling any functionality that is only available to the owner."
      },
      "resetPremium(address)": {
        "details": "set premiumExpired of an adress to 0"
      },
      "setReminderConfigs(string,string,uint256,address[],((address,string,string)[],(address,string,string)[],(address,string,string),(address,string,string))[])": {
        "params": {
          "timePriorActivation": "The time (in seconds) before the scheduled activation when email reminders should be sent."
        }
      },
      "syncBeneficiariesEmails(address,address,(address,uint256)[])": {
        "details": "router call this function when update legacy to remove email that not belong to any beneficiaries"
      },
      "transferOwnership(address)": {
        "details": "Transfers ownership of the contract to a new account (`newOwner`). Can only be called by the current owner."
      },
      "updatePremiumTime(address,uint256)": {
        "details": "called by the PremiumRegistry contract to update a user's premium expiration time.",
        "params": {
          "duration": "amount of time (in seconds) of the premium package plan"
        }
      },
      "updateUserConfig(string,string,uint256)": {
        "params": {
          "timePriorActivation": "The time (in seconds) before the scheduled activation when email reminders should be sent."
        }
      }
    },
    "version": 1
  },
  "userdoc": {
    "kind": "user",
    "methods": {
      "setReminderConfigs(string,string,uint256,address[],((address,string,string)[],(address,string,string)[],(address,string,string),(address,string,string))[])": {
        "notice": "user set up emails reminder / edit configs"
      },
      "updateUserConfig(string,string,uint256)": {
        "notice": "update email and timePriorActivation"
      }
    },
    "version": 1
  },
  "storageLayout": {
    "storage": [
      {
        "astId": 21765,
        "contract": "contracts/premium/PremiumSetting.sol:PremiumSetting",
        "label": "premiumExpired",
        "offset": 0,
        "slot": "0",
        "type": "t_mapping(t_address,t_uint256)"
      },
      {
        "astId": 21770,
        "contract": "contracts/premium/PremiumSetting.sol:PremiumSetting",
        "label": "userConfigs",
        "offset": 0,
        "slot": "1",
        "type": "t_mapping(t_address,t_struct(UserConfig)21739_storage)"
      },
      {
        "astId": 21775,
        "contract": "contracts/premium/PremiumSetting.sol:PremiumSetting",
        "label": "legacyCfgs",
        "offset": 0,
        "slot": "2",
        "type": "t_mapping(t_address,t_struct(LegacyConfig)21761_storage)"
      },
      {
        "astId": 21779,
        "contract": "contracts/premium/PremiumSetting.sol:PremiumSetting",
        "label": "legacyCodeToAddress",
        "offset": 0,
        "slot": "3",
        "type": "t_mapping(t_uint256,t_address)"
      },
      {
        "astId": 21783,
        "contract": "contracts/premium/PremiumSetting.sol:PremiumSetting",
        "label": "legacyAddressToCode",
        "offset": 0,
        "slot": "4",
        "type": "t_mapping(t_address,t_uint256)"
      },
      {
        "astId": 21785,
        "contract": "contracts/premium/PremiumSetting.sol:PremiumSetting",
        "label": "premiumRegistry",
        "offset": 0,
        "slot": "5",
        "type": "t_address"
      },
      {
        "astId": 21787,
        "contract": "contracts/premium/PremiumSetting.sol:PremiumSetting",
        "label": "transferLegacyContractRouter",
        "offset": 0,
        "slot": "6",
        "type": "t_address"
      },
      {
        "astId": 21789,
        "contract": "contracts/premium/PremiumSetting.sol:PremiumSetting",
        "label": "transferLegacyEOAContractRouter",
        "offset": 0,
        "slot": "7",
        "type": "t_address"
      },
      {
        "astId": 21791,
        "contract": "contracts/premium/PremiumSetting.sol:PremiumSetting",
        "label": "multisigLegacyContractRouter",
        "offset": 0,
        "slot": "8",
        "type": "t_address"
      },
      {
        "astId": 21794,
        "contract": "contracts/premium/PremiumSetting.sol:PremiumSetting",
        "label": "premiumAutomationManager",
        "offset": 0,
        "slot": "9",
        "type": "t_contract(IPremiumAutomationManager)18797"
      },
      {
        "astId": 21797,
        "contract": "contracts/premium/PremiumSetting.sol:PremiumSetting",
        "label": "premiumSendMail",
        "offset": 0,
        "slot": "10",
        "type": "t_contract(IPremiumSendMail)19239"
      },
      {
        "astId": 21802,
        "contract": "contracts/premium/PremiumSetting.sol:PremiumSetting",
        "label": "legacyQueuedToAddCronjob",
        "offset": 0,
        "slot": "11",
        "type": "t_mapping(t_address,t_array(t_address)dyn_storage)"
      }
    ],
    "types": {
      "t_address": {
        "encoding": "inplace",
        "label": "address",
        "numberOfBytes": "20"
      },
      "t_array(t_address)dyn_storage": {
        "base": "t_address",
        "encoding": "dynamic_array",
        "label": "address[]",
        "numberOfBytes": "32"
      },
      "t_array(t_struct(EmailMapping)21746_storage)dyn_storage": {
        "base": "t_struct(EmailMapping)21746_storage",
        "encoding": "dynamic_array",
        "label": "struct PremiumSetting.EmailMapping[]",
        "numberOfBytes": "32"
      },
      "t_contract(IPremiumAutomationManager)18797": {
        "encoding": "inplace",
        "label": "contract IPremiumAutomationManager",
        "numberOfBytes": "20"
      },
      "t_contract(IPremiumSendMail)19239": {
        "encoding": "inplace",
        "label": "contract IPremiumSendMail",
        "numberOfBytes": "20"
      },
      "t_mapping(t_address,t_array(t_address)dyn_storage)": {
        "encoding": "mapping",
        "key": "t_address",
        "label": "mapping(address => address[])",
        "numberOfBytes": "32",
        "value": "t_array(t_address)dyn_storage"
      },
      "t_mapping(t_address,t_struct(LegacyConfig)21761_storage)": {
        "encoding": "mapping",
        "key": "t_address",
        "label": "mapping(address => struct PremiumSetting.LegacyConfig)",
        "numberOfBytes": "32",
        "value": "t_struct(LegacyConfig)21761_storage"
      },
      "t_mapping(t_address,t_struct(UserConfig)21739_storage)": {
        "encoding": "mapping",
        "key": "t_address",
        "label": "mapping(address => struct PremiumSetting.UserConfig)",
        "numberOfBytes": "32",
        "value": "t_struct(UserConfig)21739_storage"
      },
      "t_mapping(t_address,t_uint256)": {
        "encoding": "mapping",
        "key": "t_address",
        "label": "mapping(address => uint256)",
        "numberOfBytes": "32",
        "value": "t_uint256"
      },
      "t_mapping(t_uint256,t_address)": {
        "encoding": "mapping",
        "key": "t_uint256",
        "label": "mapping(uint256 => address)",
        "numberOfBytes": "32",
        "value": "t_address"
      },
      "t_string_storage": {
        "encoding": "bytes",
        "label": "string",
        "numberOfBytes": "32"
      },
      "t_struct(EmailMapping)21746_storage": {
        "encoding": "inplace",
        "label": "struct PremiumSetting.EmailMapping",
        "members": [
          {
            "astId": 21741,
            "contract": "contracts/premium/PremiumSetting.sol:PremiumSetting",
            "label": "addr",
            "offset": 0,
            "slot": "0",
            "type": "t_address"
          },
          {
            "astId": 21743,
            "contract": "contracts/premium/PremiumSetting.sol:PremiumSetting",
            "label": "email",
            "offset": 0,
            "slot": "1",
            "type": "t_string_storage"
          },
          {
            "astId": 21745,
            "contract": "contracts/premium/PremiumSetting.sol:PremiumSetting",
            "label": "name",
            "offset": 0,
            "slot": "2",
            "type": "t_string_storage"
          }
        ],
        "numberOfBytes": "96"
      },
      "t_struct(LegacyConfig)21761_storage": {
        "encoding": "inplace",
        "label": "struct PremiumSetting.LegacyConfig",
        "members": [
          {
            "astId": 21750,
            "contract": "contracts/premium/PremiumSetting.sol:PremiumSetting",
            "label": "cosigners",
            "offset": 0,
            "slot": "0",
            "type": "t_array(t_struct(EmailMapping)21746_storage)dyn_storage"
          },
          {
            "astId": 21754,
            "contract": "contracts/premium/PremiumSetting.sol:PremiumSetting",
            "label": "beneficiaries",
            "offset": 0,
            "slot": "1",
            "type": "t_array(t_struct(EmailMapping)21746_storage)dyn_storage"
          },
          {
            "astId": 21757,
            "contract": "contracts/premium/PremiumSetting.sol:PremiumSetting",
            "label": "secondLine",
            "offset": 0,
            "slot": "2",
            "type": "t_struct(EmailMapping)21746_storage"
          },
          {
            "astId": 21760,
            "contract": "contracts/premium/PremiumSetting.sol:PremiumSetting",
            "label": "thirdLine",
            "offset": 0,
            "slot": "5",
            "type": "t_struct(EmailMapping)21746_storage"
          }
        ],
        "numberOfBytes": "256"
      },
      "t_struct(UserConfig)21739_storage": {
        "encoding": "inplace",
        "label": "struct PremiumSetting.UserConfig",
        "members": [
          {
            "astId": 21734,
            "contract": "contracts/premium/PremiumSetting.sol:PremiumSetting",
            "label": "ownerName",
            "offset": 0,
            "slot": "0",
            "type": "t_string_storage"
          },
          {
            "astId": 21736,
            "contract": "contracts/premium/PremiumSetting.sol:PremiumSetting",
            "label": "ownerEmail",
            "offset": 0,
            "slot": "1",
            "type": "t_string_storage"
          },
          {
            "astId": 21738,
            "contract": "contracts/premium/PremiumSetting.sol:PremiumSetting",
            "label": "timePriorActivation",
            "offset": 0,
            "slot": "2",
            "type": "t_uint256"
          }
        ],
        "numberOfBytes": "96"
      },
      "t_uint256": {
        "encoding": "inplace",
        "label": "uint256",
        "numberOfBytes": "32"
      }
    }
  }
}