{
  "address": "0x4E81E1Ed3F6684EB948F8956b8787967b1a6275b",
  "abi": [
    {
      "inputs": [],
      "stateMutability": "nonpayable",
      "type": "constructor"
    },
    {
      "inputs": [],
      "name": "AccessControlBadConfirmation",
      "type": "error"
    },
    {
      "inputs": [
        {
          "internalType": "address",
          "name": "account",
          "type": "address"
        },
        {
          "internalType": "bytes32",
          "name": "neededRole",
          "type": "bytes32"
        }
      ],
      "name": "AccessControlUnauthorizedAccount",
      "type": "error"
    },
    {
      "inputs": [],
      "name": "InvalidInitialization",
      "type": "error"
    },
    {
      "inputs": [],
      "name": "NotInitializing",
      "type": "error"
    },
    {
      "inputs": [
        {
          "internalType": "address",
          "name": "owner",
          "type": "address"
        }
      ],
      "name": "OwnableInvalidOwner",
      "type": "error"
    },
    {
      "inputs": [
        {
          "internalType": "address",
          "name": "account",
          "type": "address"
        }
      ],
      "name": "OwnableUnauthorizedAccount",
      "type": "error"
    },
    {
      "anonymous": false,
      "inputs": [
        {
          "indexed": false,
          "internalType": "uint64",
          "name": "version",
          "type": "uint64"
        }
      ],
      "name": "Initialized",
      "type": "event"
    },
    {
      "anonymous": false,
      "inputs": [
        {
          "indexed": true,
          "internalType": "address",
          "name": "previousOwner",
          "type": "address"
        },
        {
          "indexed": true,
          "internalType": "address",
          "name": "newOwner",
          "type": "address"
        }
      ],
      "name": "OwnershipTransferred",
      "type": "event"
    },
    {
      "anonymous": false,
      "inputs": [
        {
          "indexed": false,
          "internalType": "uint256",
          "name": "plan",
          "type": "uint256"
        },
        {
          "indexed": false,
          "internalType": "uint256",
          "name": "priceUSD",
          "type": "uint256"
        },
        {
          "indexed": false,
          "internalType": "uint256",
          "name": "duration",
          "type": "uint256"
        }
      ],
      "name": "PlanPriceDurationUpdated",
      "type": "event"
    },
    {
      "anonymous": false,
      "inputs": [
        {
          "indexed": false,
          "internalType": "uint256",
          "name": "plan",
          "type": "uint256"
        }
      ],
      "name": "PlanRemoved",
      "type": "event"
    },
    {
      "anonymous": false,
      "inputs": [
        {
          "indexed": true,
          "internalType": "address",
          "name": "user",
          "type": "address"
        },
        {
          "indexed": false,
          "internalType": "uint256",
          "name": "plan",
          "type": "uint256"
        },
        {
          "indexed": false,
          "internalType": "string",
          "name": "paymentMethod",
          "type": "string"
        },
        {
          "indexed": false,
          "internalType": "uint256",
          "name": "value",
          "type": "uint256"
        }
      ],
      "name": "PlanSubcribed",
      "type": "event"
    },
    {
      "anonymous": false,
      "inputs": [
        {
          "indexed": false,
          "internalType": "uint256",
          "name": "plan",
          "type": "uint256"
        },
        {
          "indexed": false,
          "internalType": "uint256",
          "name": "priceUSD",
          "type": "uint256"
        },
        {
          "indexed": false,
          "internalType": "uint256",
          "name": "duration",
          "type": "uint256"
        },
        {
          "indexed": false,
          "internalType": "string",
          "name": "name",
          "type": "string"
        },
        {
          "indexed": false,
          "internalType": "string",
          "name": "description",
          "type": "string"
        },
        {
          "indexed": false,
          "internalType": "string",
          "name": "feature",
          "type": "string"
        }
      ],
      "name": "PlanUpdated",
      "type": "event"
    },
    {
      "anonymous": false,
      "inputs": [
        {
          "indexed": true,
          "internalType": "bytes32",
          "name": "role",
          "type": "bytes32"
        },
        {
          "indexed": true,
          "internalType": "bytes32",
          "name": "previousAdminRole",
          "type": "bytes32"
        },
        {
          "indexed": true,
          "internalType": "bytes32",
          "name": "newAdminRole",
          "type": "bytes32"
        }
      ],
      "name": "RoleAdminChanged",
      "type": "event"
    },
    {
      "anonymous": false,
      "inputs": [
        {
          "indexed": true,
          "internalType": "bytes32",
          "name": "role",
          "type": "bytes32"
        },
        {
          "indexed": true,
          "internalType": "address",
          "name": "account",
          "type": "address"
        },
        {
          "indexed": true,
          "internalType": "address",
          "name": "sender",
          "type": "address"
        }
      ],
      "name": "RoleGranted",
      "type": "event"
    },
    {
      "anonymous": false,
      "inputs": [
        {
          "indexed": true,
          "internalType": "bytes32",
          "name": "role",
          "type": "bytes32"
        },
        {
          "indexed": true,
          "internalType": "address",
          "name": "account",
          "type": "address"
        },
        {
          "indexed": true,
          "internalType": "address",
          "name": "sender",
          "type": "address"
        }
      ],
      "name": "RoleRevoked",
      "type": "event"
    },
    {
      "inputs": [],
      "name": "DEFAULT_ADMIN_ROLE",
      "outputs": [
        {
          "internalType": "bytes32",
          "name": "",
          "type": "bytes32"
        }
      ],
      "stateMutability": "view",
      "type": "function"
    },
    {
      "inputs": [],
      "name": "DEPOSITOR",
      "outputs": [
        {
          "internalType": "bytes32",
          "name": "",
          "type": "bytes32"
        }
      ],
      "stateMutability": "view",
      "type": "function"
    },
    {
      "inputs": [],
      "name": "OPERATOR",
      "outputs": [
        {
          "internalType": "bytes32",
          "name": "",
          "type": "bytes32"
        }
      ],
      "stateMutability": "view",
      "type": "function"
    },
    {
      "inputs": [],
      "name": "ORACLE_STALE_LIMIT",
      "outputs": [
        {
          "internalType": "uint256",
          "name": "",
          "type": "uint256"
        }
      ],
      "stateMutability": "view",
      "type": "function"
    },
    {
      "inputs": [
        {
          "internalType": "uint256[]",
          "name": "durations",
          "type": "uint256[]"
        },
        {
          "internalType": "uint256[]",
          "name": "prices",
          "type": "uint256[]"
        },
        {
          "internalType": "string[]",
          "name": "names",
          "type": "string[]"
        },
        {
          "internalType": "string[]",
          "name": "descriptions",
          "type": "string[]"
        },
        {
          "internalType": "string[]",
          "name": "features",
          "type": "string[]"
        }
      ],
      "name": "createPlans",
      "outputs": [],
      "stateMutability": "nonpayable",
      "type": "function"
    },
    {
      "inputs": [],
      "name": "ethUsdPriceFeed",
      "outputs": [
        {
          "internalType": "contract AggregatorV3Interface",
          "name": "",
          "type": "address"
        }
      ],
      "stateMutability": "view",
      "type": "function"
    },
    {
      "inputs": [],
      "name": "getETHPrice",
      "outputs": [
        {
          "internalType": "uint256",
          "name": "",
          "type": "uint256"
        }
      ],
      "stateMutability": "view",
      "type": "function"
    },
    {
      "inputs": [],
      "name": "getNextPlanId",
      "outputs": [
        {
          "internalType": "uint256",
          "name": "",
          "type": "uint256"
        }
      ],
      "stateMutability": "view",
      "type": "function"
    },
    {
      "inputs": [
        {
          "internalType": "uint256",
          "name": "plan",
          "type": "uint256"
        }
      ],
      "name": "getPlanDuration",
      "outputs": [
        {
          "internalType": "uint256",
          "name": "",
          "type": "uint256"
        }
      ],
      "stateMutability": "view",
      "type": "function"
    },
    {
      "inputs": [
        {
          "internalType": "uint256",
          "name": "plan",
          "type": "uint256"
        }
      ],
      "name": "getPlanPriceETH",
      "outputs": [
        {
          "internalType": "uint256",
          "name": "",
          "type": "uint256"
        }
      ],
      "stateMutability": "view",
      "type": "function"
    },
    {
      "inputs": [
        {
          "internalType": "uint256",
          "name": "plan",
          "type": "uint256"
        }
      ],
      "name": "getPlanPriceUSD",
      "outputs": [
        {
          "internalType": "uint256",
          "name": "",
          "type": "uint256"
        }
      ],
      "stateMutability": "view",
      "type": "function"
    },
    {
      "inputs": [
        {
          "internalType": "uint256",
          "name": "plan",
          "type": "uint256"
        }
      ],
      "name": "getPlanPriceUSDC",
      "outputs": [
        {
          "internalType": "uint256",
          "name": "",
          "type": "uint256"
        }
      ],
      "stateMutability": "view",
      "type": "function"
    },
    {
      "inputs": [
        {
          "internalType": "uint256",
          "name": "plan",
          "type": "uint256"
        }
      ],
      "name": "getPlanPriceUSDT",
      "outputs": [
        {
          "internalType": "uint256",
          "name": "",
          "type": "uint256"
        }
      ],
      "stateMutability": "view",
      "type": "function"
    },
    {
      "inputs": [
        {
          "internalType": "bytes32",
          "name": "role",
          "type": "bytes32"
        }
      ],
      "name": "getRoleAdmin",
      "outputs": [
        {
          "internalType": "bytes32",
          "name": "",
          "type": "bytes32"
        }
      ],
      "stateMutability": "view",
      "type": "function"
    },
    {
      "inputs": [],
      "name": "getUSDCPrice",
      "outputs": [
        {
          "internalType": "uint256",
          "name": "",
          "type": "uint256"
        }
      ],
      "stateMutability": "view",
      "type": "function"
    },
    {
      "inputs": [],
      "name": "getUSDTPrice",
      "outputs": [
        {
          "internalType": "uint256",
          "name": "",
          "type": "uint256"
        }
      ],
      "stateMutability": "view",
      "type": "function"
    },
    {
      "inputs": [
        {
          "internalType": "bytes32",
          "name": "role",
          "type": "bytes32"
        },
        {
          "internalType": "address",
          "name": "account",
          "type": "address"
        }
      ],
      "name": "grantRole",
      "outputs": [],
      "stateMutability": "nonpayable",
      "type": "function"
    },
    {
      "inputs": [
        {
          "internalType": "bytes32",
          "name": "role",
          "type": "bytes32"
        },
        {
          "internalType": "address",
          "name": "account",
          "type": "address"
        }
      ],
      "name": "hasRole",
      "outputs": [
        {
          "internalType": "bool",
          "name": "",
          "type": "bool"
        }
      ],
      "stateMutability": "view",
      "type": "function"
    },
    {
      "inputs": [
        {
          "internalType": "address",
          "name": "_usdt",
          "type": "address"
        },
        {
          "internalType": "address",
          "name": "_usdc",
          "type": "address"
        },
        {
          "internalType": "address",
          "name": "_usdtUsdPriceFeed",
          "type": "address"
        },
        {
          "internalType": "address",
          "name": "_usdcUsdPriceFeed",
          "type": "address"
        },
        {
          "internalType": "address",
          "name": "_ethUsdPriceFeed",
          "type": "address"
        },
        {
          "internalType": "address",
          "name": "_premiumSetting",
          "type": "address"
        },
        {
          "internalType": "address",
          "name": "_payment",
          "type": "address"
        }
      ],
      "name": "initialize",
      "outputs": [],
      "stateMutability": "nonpayable",
      "type": "function"
    },
    {
      "inputs": [],
      "name": "owner",
      "outputs": [
        {
          "internalType": "address",
          "name": "",
          "type": "address"
        }
      ],
      "stateMutability": "view",
      "type": "function"
    },
    {
      "inputs": [],
      "name": "payment",
      "outputs": [
        {
          "internalType": "address",
          "name": "",
          "type": "address"
        }
      ],
      "stateMutability": "view",
      "type": "function"
    },
    {
      "inputs": [
        {
          "internalType": "uint256",
          "name": "",
          "type": "uint256"
        }
      ],
      "name": "premiumPlans",
      "outputs": [
        {
          "internalType": "uint256",
          "name": "usdPrice",
          "type": "uint256"
        },
        {
          "internalType": "uint256",
          "name": "duration",
          "type": "uint256"
        },
        {
          "internalType": "bool",
          "name": "isActive",
          "type": "bool"
        }
      ],
      "stateMutability": "view",
      "type": "function"
    },
    {
      "inputs": [],
      "name": "premiumSetting",
      "outputs": [
        {
          "internalType": "contract IPremiumSetting",
          "name": "",
          "type": "address"
        }
      ],
      "stateMutability": "view",
      "type": "function"
    },
    {
      "inputs": [
        {
          "internalType": "uint256[]",
          "name": "plans",
          "type": "uint256[]"
        }
      ],
      "name": "removePlans",
      "outputs": [],
      "stateMutability": "nonpayable",
      "type": "function"
    },
    {
      "inputs": [],
      "name": "renounceOwnership",
      "outputs": [],
      "stateMutability": "nonpayable",
      "type": "function"
    },
    {
      "inputs": [
        {
          "internalType": "bytes32",
          "name": "role",
          "type": "bytes32"
        },
        {
          "internalType": "address",
          "name": "callerConfirmation",
          "type": "address"
        }
      ],
      "name": "renounceRole",
      "outputs": [],
      "stateMutability": "nonpayable",
      "type": "function"
    },
    {
      "inputs": [
        {
          "internalType": "bytes32",
          "name": "role",
          "type": "bytes32"
        },
        {
          "internalType": "address",
          "name": "account",
          "type": "address"
        }
      ],
      "name": "revokeRole",
      "outputs": [],
      "stateMutability": "nonpayable",
      "type": "function"
    },
    {
      "inputs": [
        {
          "internalType": "uint256",
          "name": "plan",
          "type": "uint256"
        }
      ],
      "name": "subcribeWithETH",
      "outputs": [],
      "stateMutability": "payable",
      "type": "function"
    },
    {
      "inputs": [
        {
          "internalType": "uint256",
          "name": "plan",
          "type": "uint256"
        }
      ],
      "name": "subcribeWithUSDC",
      "outputs": [],
      "stateMutability": "nonpayable",
      "type": "function"
    },
    {
      "inputs": [
        {
          "internalType": "uint256",
          "name": "plan",
          "type": "uint256"
        }
      ],
      "name": "subcribeWithUSDT",
      "outputs": [],
      "stateMutability": "nonpayable",
      "type": "function"
    },
    {
      "inputs": [
        {
          "internalType": "address",
          "name": "user",
          "type": "address"
        },
        {
          "internalType": "uint256",
          "name": "plan",
          "type": "uint256"
        },
        {
          "internalType": "string",
          "name": "method",
          "type": "string"
        }
      ],
      "name": "subrcribeByAdmin",
      "outputs": [],
      "stateMutability": "nonpayable",
      "type": "function"
    },
    {
      "inputs": [
        {
          "internalType": "bytes4",
          "name": "interfaceId",
          "type": "bytes4"
        }
      ],
      "name": "supportsInterface",
      "outputs": [
        {
          "internalType": "bool",
          "name": "",
          "type": "bool"
        }
      ],
      "stateMutability": "view",
      "type": "function"
    },
    {
      "inputs": [
        {
          "internalType": "address",
          "name": "newOwner",
          "type": "address"
        }
      ],
      "name": "transferOwnership",
      "outputs": [],
      "stateMutability": "nonpayable",
      "type": "function"
    },
    {
      "inputs": [
        {
          "internalType": "uint256[]",
          "name": "plans",
          "type": "uint256[]"
        },
        {
          "internalType": "uint256[]",
          "name": "durations",
          "type": "uint256[]"
        },
        {
          "internalType": "uint256[]",
          "name": "prices",
          "type": "uint256[]"
        },
        {
          "internalType": "string[]",
          "name": "names",
          "type": "string[]"
        },
        {
          "internalType": "string[]",
          "name": "descriptions",
          "type": "string[]"
        },
        {
          "internalType": "string[]",
          "name": "features",
          "type": "string[]"
        }
      ],
      "name": "updatePlans",
      "outputs": [],
      "stateMutability": "nonpayable",
      "type": "function"
    },
    {
      "inputs": [
        {
          "internalType": "uint256[]",
          "name": "plans",
          "type": "uint256[]"
        },
        {
          "internalType": "uint256[]",
          "name": "durations",
          "type": "uint256[]"
        },
        {
          "internalType": "uint256[]",
          "name": "prices",
          "type": "uint256[]"
        }
      ],
      "name": "updatePlansPriceAndDuration",
      "outputs": [],
      "stateMutability": "nonpayable",
      "type": "function"
    },
    {
      "inputs": [],
      "name": "usdc",
      "outputs": [
        {
          "internalType": "contract ERC20",
          "name": "",
          "type": "address"
        }
      ],
      "stateMutability": "view",
      "type": "function"
    },
    {
      "inputs": [],
      "name": "usdcUsdPriceFeed",
      "outputs": [
        {
          "internalType": "contract AggregatorV3Interface",
          "name": "",
          "type": "address"
        }
      ],
      "stateMutability": "view",
      "type": "function"
    },
    {
      "inputs": [],
      "name": "usdt",
      "outputs": [
        {
          "internalType": "contract ERC20",
          "name": "",
          "type": "address"
        }
      ],
      "stateMutability": "view",
      "type": "function"
    },
    {
      "inputs": [],
      "name": "usdtUsdPriceFeed",
      "outputs": [
        {
          "internalType": "contract AggregatorV3Interface",
          "name": "",
          "type": "address"
        }
      ],
      "stateMutability": "view",
      "type": "function"
    }
  ],
  "transactionHash": "0x03932710edbd1e24ad21d543f3f28cf85e4b63133fc76c30027a3516b18aa060",
  "deployedBytecode": "0x6080604052600436101561001257600080fd5b6000803560e01c80621065b9146115b557806301ffc9a71461155e57806303aa597a1461150d578063046ad71d146114f257806311fab217146114c957806312c679411461132657806316ad25a5146112eb578063183c3436146112cd5780631ec823a0146112ae57806320e3640014611049578063248a9ca31461100f5780632c08298314610ff05780632f2ff15d14610fa55780632f48ab7d14610f7e5780633587647614610bb157806336568abe14610b695780633e413bee14610b4057806342f6487a14610b1757806342f6fb2914610aee5780634ad517bc14610ad357806358018ace14610ab45780635e49ff3914610a8b5780636ffb3e7f146108d9578063715018a61461086e5780638da5cb5b1461083857806391d14854146107df57806392b7e29d146107c0578063983d2737146107855780639a3ed70b1461075c578063a217fddf14610740578063a607a8d914610725578063b423330914610600578063bff9668f146104c1578063cb705954146104a3578063cb808e83146103e8578063d49714dd146103c1578063d547741f14610372578063e5eaa8be146101f85763f2fde38b146101c957600080fd5b346101f55760203660031901126101f5576101f26101e56118f2565b6101ed611c89565b611cc2565b80f35b80fd5b50346101f55760603660031901126101f5576102126118f2565b6024356044359167ffffffffffffffff831161036e573660238401121561036e578260040135908461024383611954565b946102516040519687611932565b838652366024858301011161036a5783602494602095869301838901378601015261027a611970565b6005546001600160a01b0392908690841661029486611f88565b90803b156103665760405163265a4a6d60e01b81526001600160a01b0386166004820152602481019290925282908290604490829084905af1801561035b57610343575b5050604051938452606081850152845194856060860152865b86811061032f575050508280926080928784886000805160206123e8833981519152980101528760408401521694601f80199101168101030190a280f35b8181018301518682016080015282016102f1565b61034c90611908565b6103575785386102d8565b8580fd5b6040513d84823e3d90fd5b8280fd5b5080fd5b8380fd5b50346101f55760403660031901126101f5576103bd6004356103926118dc565b908084526000805160206123c88339815191526020526103b860016040862001546119ea565b611c06565b5080f35b50346101f55760203660031901126101f55760206103e06004356120f7565b604051908152f35b50346101f55760208060031936011261036a5760043567ffffffffffffffff81116103665761041b90369060040161185a565b610426929192611970565b835b818110610433578480f35b807e4c797e6739331fc6d5c1ebdf112d63e6a68297fdfd28f35f54561e28fd868d8461046361049e948689611dda565b3561046d8161188b565b5061047f60ff60028093015416611f44565b6104888261188b565b5001805460ff19169055604051908152a1611db5565b610428565b50346101f557806003193601126101f5576020604051620151808152f35b50346101f55760203660031901126101f5576004356104df8161207b565b82546007546040516323b872dd60e01b81523360048201526001600160a01b03918216602482015260448101849052859260209082906064908290879087165af180156105f5576105c7575b506005541661053984611f88565b90803b156103665760405163265a4a6d60e01b8152336004820152602481019290925282908290604490829084905af1801561035b576105b3575b50506040519182526060602083015260046060830152631554d11560e21b608083015260408201526000805160206123e883398151915260a03392a280f35b6105bc90611908565b610366578238610574565b6105e79060203d81116105ee575b6105df8183611932565b810190611f2c565b503861052b565b503d6105d5565b6040513d85823e3d90fd5b50346101f55760203660031901126101f55760043561061e816120f7565b6001546007546040516323b872dd60e01b81523360048201526001600160a01b03918216602482015260448101849052859260209082906064908290879087165af180156105f557610707575b506005541661067984611f88565b90803b156103665760405163265a4a6d60e01b8152336004820152602481019290925282908290604490829084905af1801561035b576106f3575b50506040519182526060602083015260046060830152635553444360e01b608083015260408201526000805160206123e883398151915260a03392a280f35b6106fc90611908565b6103665782386106b4565b61071e9060203d81116105ee576105df8183611932565b503861066b565b50346101f557806003193601126101f55760206103e061229f565b50346101f557806003193601126101f557602090604051908152f35b50346101f557806003193601126101f5576002546040516001600160a01b039091168152602090f35b50346101f557806003193601126101f55760206040517f523a704056dcd17bcf83bed8b68c59416dac1119be77755efe3bde0a64e46e0c8152f35b50346101f55760203660031901126101f55760206103e060043561207b565b50346101f55760403660031901126101f55760406107fb6118dc565b9160043581526000805160206123c8833981519152602052209060018060a01b0316600052602052602060ff604060002054166040519015158152f35b50346101f557806003193601126101f5576000805160206123a8833981519152546040516001600160a01b039091168152602090f35b50346101f557806003193601126101f557610887611c89565b6000805160206123a883398151915280546001600160a01b031981169091556000906001600160a01b03167f8be0079c531659141344cd1fd0a4f28419497f9722a3daafe3b4186f6b6457e08280a380f35b50346101f55760608060031936011261036a5767ffffffffffffffff9060043582811161036e5761090e90369060040161185a565b91906024928335858111610a875761092a90369060040161185a565b90916044968735908111610a835761094690369060040161185a565b919094610951611970565b82821480610a7a575b61096390611d77565b895b828110610970578a80f35b61097b818484611dda565b35610987828789611dda565b359061099483878b611dda565b35906109af60ff60026109a68461188b565b50015416611f44565b6109ba821515611dea565b6109c5831515611e2a565b600654811015610a4857610a439392916109e060019261188b565b5090815501557f9ff9df926f7ad1d28cca2406ba78eb73e40966c94b2ad338b5440694b38e7e6a89610a13838787611dda565b35610a1f84898d611dda565b35610a2b858b8d611dda565b359060405192835260208301526040820152a1611db5565b610965565b60405162461bcd60e51b815260206004820152600c818e01526b24b73b30b634b210383630b760a11b818f0152606490fd5b5082841461095a565b8880fd5b8680fd5b50346101f557806003193601126101f5576003546040516001600160a01b039091168152602090f35b50346101f55760203660031901126101f55760206103e0600435611f88565b50346101f557806003193601126101f55760206103e06121d9565b50346101f557806003193601126101f5576004546040516001600160a01b039091168152602090f35b50346101f557806003193601126101f5576007546040516001600160a01b039091168152602090f35b50346101f557806003193601126101f5576001546040516001600160a01b039091168152602090f35b50346101f55760403660031901126101f557610b836118dc565b336001600160a01b03821603610b9f576103bd90600435611c06565b60405163334bd91960e11b8152600490fd5b50346101f55760e03660031901126101f557610bcb6118f2565b610bd36118dc565b6001600160a01b03919060448035848116929190839003610f79576064928335868116809103610f795760843591878316809303610f795760a43593888516809503610f795760c43596898816809803610f79577ff0c57e16840df040f15088dc2f81fe391c3923bec73e23a9662efc9c229c6a00998a5460ff8160401c16159a67ffffffffffffffff821680159081610f71575b6001149081610f67575b159081610f5e575b50610f4c5767ffffffffffffffff1982166001178d5582918c610f2d575b50610ca1611d36565b610ca9611d36565b610cb233611cc2565b610cba611d36565b610cc333611a1d565b50610ccd33611abd565b5016978815610efa5716918215610ec9578315610e88578415610e47578515610e06578615610dc5578815610d915750506bffffffffffffffffffffffff60a01b95868b5416178a558560015416176001558460025416176002558360035416176003558260045416176004558160055416176005556007541617600755610d53575080f35b68ff00000000000000001981541690557fc7f505b2f371ae2175ee4913f4499e1f2633a7b5936321eed1cdaeb6115181d2602060405160018152a180f35b6f1a5b9d985b1a590817dc185e5b595b9d60821b6040519162461bcd60e51b83526020600484015260106024840152820152fd5b7f696e76616c6964205f7072656d69756d53657474696e670000000000000000006040519162461bcd60e51b83526020600484015260176024840152820152fd5b7f696e76616c6964205f65746855736450726963654665656400000000000000006040519162461bcd60e51b83526020600484015260186024840152820152fd5b7f696e76616c6964205f75736463557364507269636546656564000000000000006040519162461bcd60e51b83526020600484015260196024840152820152fd5b7f696e76616c6964205f75736474557364507269636546656564000000000000006040519162461bcd60e51b83526020600484015260196024840152820152fd5b6c696e76616c6964205f7573646360981b6040519162461bcd60e51b835260206004840152600d6024840152820152fd5b60405162461bcd60e51b815260206004820152600d60248201526c1a5b9d985b1a590817dd5cd91d609a1b818601528390fd5b68ffffffffffffffffff191668010000000000000001178d5538610c98565b60405163f92ee8a960e01b8152600490fd5b90501538610c7a565b303b159150610c72565b8d9150610c68565b600080fd5b50346101f557806003193601126101f557546040516001600160a01b039091168152602090f35b50346101f55760403660031901126101f5576103bd600435610fc56118dc565b908084526000805160206123c8833981519152602052610feb60016040862001546119ea565b611b7f565b50346101f55760203660031901126101f55760206103e060043561213d565b50346101f55760203660031901126101f5576001604060209260043581526000805160206123c88339815191528452200154604051908152f35b50346101f55760c03660031901126101f55767ffffffffffffffff6004358181116103665761107c90369060040161185a565b916024358181116112aa5761109590369060040161185a565b919092604435828111610a87576110b090369060040161185a565b929095606435828111610a83576110cb90369060040161185a565b9690936084358481116112a6576110e690369060040161185a565b95909460a435116112a6576111003660a43560040161185a565b94909361110b611970565b8882148061129d575b80611294575b8061128b575b80611282575b61112f90611d77565b8c5b89811061113c578d80f35b8c8b611161838d61115a82611152818b8e611dda565b359589611dda565b3594611dda565b3561117260ff60026109a68561188b565b61117d811515611dea565b611188831515611e2a565b60065482101561124e578f8f938f938f938f938f938f938f938f8f928f958f928f9790888098928197938296946111bf849661188b565b50908155600101556111d092611dda565b359c6111db92611dda565b359b6111e692611dda565b359a6111f192611e7a565b966111fd929196611e7a565b93611209929193611e7a565b94909360405198899861121c988a611edd565b037f7d656a1db7128adafb81bb8d5d6e73b35d1b482e735f5221865c84ef28d9917d91a161124990611db5565b611131565b60405162461bcd60e51b815260206004820152600c60248201526b24b73b30b634b210383630b760a11b6044820152606490fd5b50878614611126565b50878b14611120565b508a8a1461111a565b50898914611114565b8a80fd5b8480fd5b50346101f55760203660031901126101f55760206103e060043561204d565b50346101f557806003193601126101f5576020600654604051908152f35b50346101f557806003193601126101f55760206040517fe16b3d8fc79140c62874442c8b523e98592b429e73c0db67686a5b378b29f3368152f35b5060203660031901126101f55760043561133f8161213d565b9081341061149157813411611460575b60018060a01b0391838080808487600754165af13d1561145b573d61137381611954565b906113816040519283611932565b81528560203d92013e5b156114245783926113da916040519084825260606020830152600360608301526208aa8960eb1b608083015260408201526000805160206123e883398151915260a03392a26005541691611f88565b813b156114205760405163265a4a6d60e01b8152336004820152602481019190915291908290604490829084905af1801561035b57611417575080f35b6101f290611908565b5050fd5b60405162461bcd60e51b815260206004820152600f60248201526e141d5c98da185cd94819985a5b1959608a1b6044820152606490fd5b61138b565b8280808061146e8634611e6d565b818115611488575b3390f161134f576040513d84823e3d90fd5b506108fc611476565b60405162461bcd60e51b815260206004820152601060248201526f092dce6eaccccd2c6d2cadce8408aa8960831b6044820152606490fd5b50346101f557806003193601126101f5576005546040516001600160a01b039091168152602090f35b50346101f557806003193601126101f55760206103e061225f565b50346101f55760203660031901126101f557600435906006548210156101f55760606115388361188b565b5080549060ff600260018301549201541690604051928352602083015215156040820152f35b50346101f55760203660031901126101f55760043563ffffffff60e01b811680910361036a57602090637965db0b60e01b81149081156115a4575b506040519015158152f35b6301ffc9a760e01b14905082611599565b50346101f55760a03660031901126101f55767ffffffffffffffff600435818111610366576115e890369060040161185a565b60249182358481116103575761160290369060040161185a565b906044358681116118565761161b90369060040161185a565b95906064358881116118525761163590369060040161185a565b9590946084358a811161184e5761165090369060040161185a565b95909461165b611970565b89831480611845575b8061183c575b80611833575b61167990611d77565b8c5b838110611686578d80f35b61169c611694828686611dda565b351515611dea565b6116b26116aa828d88611dda565b351515611e2a565b8a8d6116cb836116c3818989611dda565b359389611dda565b35916040519160608301908382109082111761181d576040528152602081019182526040810190600180835260069384546801000000000000000081101561180557808361171b9201875561188b565b9390936117ee579060029392915183555190820155019051151560ff801983541691161790555460001981019081116117db578b8d918c8c8c8c87808e818f8f8f83809261176892611dda565b359b61177392611dda565b359a61177e92611e7a565b9661178a929196611e7a565b93611796929193611e7a565b9490936040519889986117a9988a611edd565b037f7d656a1db7128adafb81bb8d5d6e73b35d1b482e735f5221865c84ef28d9917d91a16117d690611db5565b61167b565b634e487b7160e01b8f526011600452828ffd5b5050505050828f634e487b7160e01b815280600452fd5b5050505050828f634e487b7160e01b81526041600452fd5b505050828f634e487b7160e01b81526041600452fd5b50888714611670565b50888b1461166a565b508a8a14611664565b8b80fd5b8980fd5b8780fd5b9181601f84011215610f795782359167ffffffffffffffff8311610f79576020808501948460051b010111610f7957565b6006548110156118c6576003906006600052027ff652222313e28459528d920b65115c16c04f3efc82aaedc97be59f3f377c0d3f0190600090565b634e487b7160e01b600052603260045260246000fd5b602435906001600160a01b0382168203610f7957565b600435906001600160a01b0382168203610f7957565b67ffffffffffffffff811161191c57604052565b634e487b7160e01b600052604160045260246000fd5b90601f8019910116810190811067ffffffffffffffff82111761191c57604052565b67ffffffffffffffff811161191c57601f01601f191660200190565b3360009081527f5dfc6369ede8c1331430c00b581919993675ec010140508e8a499d5c8bfbd93760205260409020547f523a704056dcd17bcf83bed8b68c59416dac1119be77755efe3bde0a64e46e0c9060ff16156119cc5750565b6044906040519063e2517d3f60e01b82523360048301526024820152fd5b806000526000805160206123c883398151915260205260406000203360005260205260ff60406000205416156119cc5750565b6001600160a01b031660008181527fb7db2dd08fcb62d0c9e08c51941cae53c267786a0b75803fb7960902fc8ef97d60205260408120549091906000805160206123c88339815191529060ff16611ab8578280526020526040822081835260205260408220600160ff1982541617905533917f2f8788117e7eff1d82e926ec794901d17c78024a50270940304540a733656f0d8180a4600190565b505090565b6001600160a01b031660008181527f5dfc6369ede8c1331430c00b581919993675ec010140508e8a499d5c8bfbd93760205260408120549091907f523a704056dcd17bcf83bed8b68c59416dac1119be77755efe3bde0a64e46e0c906000805160206123c88339815191529060ff16611b79578184526020526040832082845260205260408320600160ff198254161790557f2f8788117e7eff1d82e926ec794901d17c78024a50270940304540a733656f0d339380a4600190565b50505090565b906000918083526000805160206123c883398151915280602052604084209260018060a01b03169283855260205260ff60408520541615600014611b79578184526020526040832082845260205260408320600160ff198254161790557f2f8788117e7eff1d82e926ec794901d17c78024a50270940304540a733656f0d339380a4600190565b906000918083526000805160206123c883398151915280602052604084209260018060a01b03169283855260205260ff604085205416600014611b7957818452602052604083208284526020526040832060ff1981541690557ff6391f5c32d9c69d2a47ea670b442974b53935d1edc7fd64eb21e047a839171b339380a4600190565b6000805160206123a8833981519152546001600160a01b03163303611caa57565b60405163118cdaa760e01b8152336004820152602490fd5b6001600160a01b03908116908115611d1d576000805160206123a883398151915280546001600160a01b031981168417909155167f8be0079c531659141344cd1fd0a4f28419497f9722a3daafe3b4186f6b6457e0600080a3565b604051631e4fbdf760e01b815260006004820152602490fd5b60ff7ff0c57e16840df040f15088dc2f81fe391c3923bec73e23a9662efc9c229c6a005460401c1615611d6557565b604051631afcd79f60e31b8152600490fd5b15611d7e57565b60405162461bcd60e51b815260206004820152600f60248201526e098cadccee8d040dad2e6dac2e8c6d608b1b6044820152606490fd5b6000198114611dc45760010190565b634e487b7160e01b600052601160045260246000fd5b91908110156118c65760051b0190565b15611df157565b60405162461bcd60e51b815260206004820152601160248201527005072696365206d757374206265203e203607c1b6044820152606490fd5b15611e3157565b60405162461bcd60e51b815260206004820152601460248201527304475726174696f6e206d757374206265203e20360641b6044820152606490fd5b91908203918211611dc457565b91908110156118c65760051b81013590601e1981360301821215610f7957019081359167ffffffffffffffff8311610f79576020018236038113610f79579190565b908060209392818452848401376000828201840152601f01601f1916010190565b9795939094611f29999793611f0d93611f1b978b5260208b015260408a015260c060608a015260c0890191611ebc565b918683036080880152611ebc565b9260a0818503910152611ebc565b90565b90816020910312610f7957518015158103610f795790565b15611f4b57565b60405162461bcd60e51b8152602060048201526015602482015274141b185b881a185cc81899595b881c995b5bdd9959605a1b6044820152606490fd5b6001611f938261188b565b50015415611fbc57611fb681611fb160ff60026109a660019661188b565b61188b565b50015490565b60405162461bcd60e51b815260206004820152601d60248201527f4475726174696f6e20686173206e6f74206265656e20736574207965740000006044820152606490fd5b1561200857565b60405162461bcd60e51b815260206004820152601a60248201527f507269636520686173206e6f74206265656e20736574207965740000000000006044820152606490fd5b6120769061206661205d8261188b565b50541515612001565b611fb160ff60026109a68461188b565b505490565b6120a09061208b61205d8261188b565b61209b60ff60026109a68461188b565b61204d565b620f42409081810290808204831481151715611dc45764e8d4a5100002918183041490151715611dc457611f29906120d661225f565b9081156120e1570490565b634e487b7160e01b600052601260045260246000fd5b6121079061208b61205d8261188b565b620f42409081810290808204831481151715611dc45764e8d4a5100002918183041490151715611dc457611f29906120d66121d9565b61214d9061208b61205d8261188b565b620f424090818102918183041481151715611dc45769d3c21bcecceda10000000290808204670de0b6b3a76400001490151715611dc457611f29906120d661229f565b519069ffffffffffffffffffff82168203610f7957565b908160a0910312610f79576121bb81612190565b91602082015191604081015191611f29608060608401519301612190565b600354604051633fabe5a360e21b81529060a090829060049082906001600160a01b03165afa801561225357600091829161221a575b50611f2990826122da565b611f299250612240915060a03d811161224c575b6122388183611932565b8101906121a7565b5093925050919061220f565b503d61222e565b6040513d6000823e3d90fd5b600254604051633fabe5a360e21b81529060a090829060049082906001600160a01b03165afa801561225357600091829161221a5750611f2990826122da565b60048054604051633fabe5a360e21b81529160a09183919082906001600160a01b03165afa801561225357600091829161221a5750611f2990825b60001215612372578015612338576122f6620151809142611e6d565b116122fd57565b60405162461bcd60e51b815260206004820152601360248201527250726963652064617461206973207374616c6560681b6044820152606490fd5b60405162461bcd60e51b8152602060048201526012602482015271526f756e64206e6f7420636f6d706c65746560701b6044820152606490fd5b60405162461bcd60e51b815260206004820152600d60248201526c496e76616c696420707269636560981b6044820152606490fdfe9016d09d72d40fdae2fd8ceac6b6234c7706214fd39c1cd1e609a0528c19930002dd7bc7dec4dceedda775e58dd541e08a116c6c53815c0bd028192f7b6268009f2e83b7c5e79f9d74f6ea662027afb1c8c7bba01e331620f1208ddc26170f0fa2646970667358221220fab0f96f119c5c75cc32e0e5a9f44d23735bd2679a1f9473f0232db87c1dc5ce64736f6c63430008140033",
  "numDeployments": 1
}