{
  "address": "0x2b4310D6E2C33544f38c181DB0cF16DCc12a1E7E",
  "abi": [
    {
      "inputs": [],
      "stateMutability": "nonpayable",
      "type": "constructor"
    },
    {
      "inputs": [],
      "name": "Create2EmptyBytecode",
      "type": "error"
    },
    {
      "inputs": [],
      "name": "FailedDeployment",
      "type": "error"
    },
    {
      "inputs": [
        {
          "internalType": "uint256",
          "name": "balance",
          "type": "uint256"
        },
        {
          "internalType": "uint256",
          "name": "needed",
          "type": "uint256"
        }
      ],
      "name": "InsufficientBalance",
      "type": "error"
    },
    {
      "inputs": [],
      "name": "InvalidInitialization",
      "type": "error"
    },
    {
      "inputs": [],
      "name": "NotInitializing",
      "type": "error"
    },
    {
      "inputs": [
        {
          "internalType": "address",
          "name": "owner",
          "type": "address"
        }
      ],
      "name": "OwnableInvalidOwner",
      "type": "error"
    },
    {
      "inputs": [
        {
          "internalType": "address",
          "name": "account",
          "type": "address"
        }
      ],
      "name": "OwnableUnauthorizedAccount",
      "type": "error"
    },
    {
      "inputs": [
        {
          "internalType": "uint256",
          "name": "value",
          "type": "uint256"
        },
        {
          "internalType": "uint256",
          "name": "length",
          "type": "uint256"
        }
      ],
      "name": "StringsInsufficientHexLength",
      "type": "error"
    },
    {
      "anonymous": false,
      "inputs": [
        {
          "indexed": true,
          "internalType": "address",
          "name": "user",
          "type": "address"
        },
        {
          "indexed": true,
          "internalType": "address",
          "name": "cronjobAddress",
          "type": "address"
        }
      ],
      "name": "CronjobCreated",
      "type": "event"
    },
    {
      "anonymous": false,
      "inputs": [
        {
          "indexed": false,
          "internalType": "uint64",
          "name": "version",
          "type": "uint64"
        }
      ],
      "name": "Initialized",
      "type": "event"
    },
    {
      "anonymous": false,
      "inputs": [
        {
          "indexed": true,
          "internalType": "address",
          "name": "user",
          "type": "address"
        },
        {
          "indexed": false,
          "internalType": "address[]",
          "name": "legacyAddress",
          "type": "address[]"
        },
        {
          "indexed": true,
          "internalType": "address",
          "name": "cronjobAddress",
          "type": "address"
        }
      ],
      "name": "LegacyAdded",
      "type": "event"
    },
    {
      "anonymous": false,
      "inputs": [
        {
          "indexed": true,
          "internalType": "address",
          "name": "previousOwner",
          "type": "address"
        },
        {
          "indexed": true,
          "internalType": "address",
          "name": "newOwner",
          "type": "address"
        }
      ],
      "name": "OwnershipTransferred",
      "type": "event"
    },
    {
      "inputs": [
        {
          "internalType": "address",
          "name": "user",
          "type": "address"
        },
        {
          "internalType": "address[]",
          "name": "legacyAddresses",
          "type": "address[]"
        }
      ],
      "name": "addLegacy",
      "outputs": [],
      "stateMutability": "nonpayable",
      "type": "function"
    },
    {
      "inputs": [
        {
          "internalType": "address",
          "name": "user",
          "type": "address"
        },
        {
          "internalType": "address[]",
          "name": "legacyAddresses",
          "type": "address[]"
        }
      ],
      "name": "addLegacyCronjob",
      "outputs": [],
      "stateMutability": "nonpayable",
      "type": "function"
    },
    {
      "inputs": [
        {
          "internalType": "address",
          "name": "user",
          "type": "address"
        }
      ],
      "name": "createCronjob",
      "outputs": [],
      "stateMutability": "nonpayable",
      "type": "function"
    },
    {
      "inputs": [
        {
          "internalType": "address",
          "name": "",
          "type": "address"
        }
      ],
      "name": "cronjob",
      "outputs": [
        {
          "internalType": "address",
          "name": "",
          "type": "address"
        }
      ],
      "stateMutability": "view",
      "type": "function"
    },
    {
      "inputs": [],
      "name": "defaultNotifyAhead",
      "outputs": [
        {
          "internalType": "uint256",
          "name": "",
          "type": "uint256"
        }
      ],
      "stateMutability": "view",
      "type": "function"
    },
    {
      "inputs": [
        {
          "internalType": "address",
          "name": "legacy",
          "type": "address"
        },
        {
          "internalType": "address[]",
          "name": "listToken",
          "type": "address[]"
        },
        {
          "internalType": "uint256[]",
          "name": "listAmount",
          "type": "uint256[]"
        },
        {
          "internalType": "address",
          "name": "activatedByBene",
          "type": "address"
        }
      ],
      "name": "handleActivated",
      "outputs": [],
      "stateMutability": "nonpayable",
      "type": "function"
    },
    {
      "inputs": [],
      "name": "i_link",
      "outputs": [
        {
          "internalType": "contract LinkTokenInterface",
          "name": "",
          "type": "address"
        }
      ],
      "stateMutability": "view",
      "type": "function"
    },
    {
      "inputs": [],
      "name": "i_registrar",
      "outputs": [
        {
          "internalType": "contract AutomationRegistrarInterface",
          "name": "",
          "type": "address"
        }
      ],
      "stateMutability": "view",
      "type": "function"
    },
    {
      "inputs": [],
      "name": "initialize",
      "outputs": [],
      "stateMutability": "nonpayable",
      "type": "function"
    },
    {
      "inputs": [],
      "name": "keeperRegistry",
      "outputs": [
        {
          "internalType": "contract IKeeperRegistryMaster",
          "name": "",
          "type": "address"
        }
      ],
      "stateMutability": "view",
      "type": "function"
    },
    {
      "inputs": [
        {
          "internalType": "address",
          "name": "",
          "type": "address"
        }
      ],
      "name": "nonceByUsers",
      "outputs": [
        {
          "internalType": "uint256",
          "name": "",
          "type": "uint256"
        }
      ],
      "stateMutability": "view",
      "type": "function"
    },
    {
      "inputs": [],
      "name": "owner",
      "outputs": [
        {
          "internalType": "address",
          "name": "",
          "type": "address"
        }
      ],
      "stateMutability": "view",
      "type": "function"
    },
    {
      "inputs": [],
      "name": "premiumSendMail",
      "outputs": [
        {
          "internalType": "contract IPremiumSendMail",
          "name": "",
          "type": "address"
        }
      ],
      "stateMutability": "view",
      "type": "function"
    },
    {
      "inputs": [],
      "name": "premiumSetting",
      "outputs": [
        {
          "internalType": "address",
          "name": "",
          "type": "address"
        }
      ],
      "stateMutability": "view",
      "type": "function"
    },
    {
      "inputs": [],
      "name": "renounceOwnership",
      "outputs": [],
      "stateMutability": "nonpayable",
      "type": "function"
    },
    {
      "inputs": [
        {
          "internalType": "address",
          "name": "user",
          "type": "address"
        }
      ],
      "name": "resetCronjob",
      "outputs": [],
      "stateMutability": "nonpayable",
      "type": "function"
    },
    {
      "inputs": [
        {
          "internalType": "address[]",
          "name": "users",
          "type": "address[]"
        }
      ],
      "name": "resetCronjobs",
      "outputs": [],
      "stateMutability": "nonpayable",
      "type": "function"
    },
    {
      "inputs": [
        {
          "internalType": "address",
          "name": "legacy",
          "type": "address"
        },
        {
          "internalType": "enum NotifyLib.NotifyType",
          "name": "notifyType",
          "type": "uint8"
        }
      ],
      "name": "sendEmailFromManager",
      "outputs": [],
      "stateMutability": "nonpayable",
      "type": "function"
    },
    {
      "inputs": [
        {
          "internalType": "address",
          "name": "legacy",
          "type": "address"
        },
        {
          "internalType": "enum NotifyLib.NotifyType",
          "name": "notifyType",
          "type": "uint8"
        }
      ],
      "name": "sendNotifyFromCronjob",
      "outputs": [],
      "stateMutability": "nonpayable",
      "type": "function"
    },
    {
      "inputs": [
        {
          "internalType": "address",
          "name": "_i_link",
          "type": "address"
        },
        {
          "internalType": "address",
          "name": "_i_registrar",
          "type": "address"
        },
        {
          "internalType": "address",
          "name": "_keeperRegistry",
          "type": "address"
        },
        {
          "internalType": "address",
          "name": "_premiumSetting",
          "type": "address"
        },
        {
          "internalType": "uint32",
          "name": "_baseGasLimit",
          "type": "uint32"
        },
        {
          "internalType": "address",
          "name": "_premiumSendMail",
          "type": "address"
        },
        {
          "internalType": "uint256",
          "name": "_defaultNotifyAhead",
          "type": "uint256"
        }
      ],
      "name": "setParams",
      "outputs": [],
      "stateMutability": "nonpayable",
      "type": "function"
    },
    {
      "inputs": [
        {
          "internalType": "address",
          "name": "newOwner",
          "type": "address"
        }
      ],
      "name": "transferOwnership",
      "outputs": [],
      "stateMutability": "nonpayable",
      "type": "function"
    },
    {
      "inputs": [
        {
          "internalType": "address",
          "name": "to",
          "type": "address"
        }
      ],
      "name": "withdrawLINK",
      "outputs": [],
      "stateMutability": "nonpayable",
      "type": "function"
    }
  ],
  "transactionHash": "0x144cf3a49c4d67ffe6893171062ce5796ab23da606eb51db64dc673b87a6f1b3",
  "args": [],
  "numDeployments": 1,
  "solcInputHash": "3408e79b5c2ba7a3a6854c220b68cf5c",
  "bytecode": "0x60808060405234620000bd577ff0c57e16840df040f15088dc2f81fe391c3923bec73e23a9662efc9c229c6a009081549060ff8260401c16620000ae57506001600160401b036002600160401b03198282160162000068575b60405161477a9081620000c38239f35b6001600160401b031990911681179091556040519081527fc7f505b2f371ae2175ee4913f4499e1f2633a7b5936321eed1cdaeb6115181d290602090a138808062000058565b63f92ee8a960e01b8152600490fd5b600080fdfe6080604052600436101561001257600080fd5b60003560e01c80630551864014610f0157806311fab21714610ed85780631a07dfce14610e9e578063442b127814610e7557806368be070f14610e3a5780636f88aeb214610e11578063715018a614610da757806376f9bf2814610d5f5780637d253aff14610d36578063810cf433146108c55780638129fc1c1461079e57806383e22774146107755780638da5cb5b1461073f578063a6912d4b14610603578063a71ab6d8146105b2578063bf384e10146104ec578063c30e9f4d14610227578063c8150ae5146101a4578063edd12db214610186578063f2fde38b1461015d578063f9611533146101345763fe693b381461010e57600080fd5b3461012f5761012d61011f36611080565b906101286110c2565b6119b2565b005b600080fd5b3461012f57600036600319011261012f576002546040516001600160a01b039091168152602090f35b3461012f57602036600319011261012f5761012d610179610f20565b6101816110c2565b6110fb565b3461012f57600036600319011261012f576020600854604051908152f35b3461012f5760208060031936011261012f576004356001600160401b03811161012f576101d5903690600401611012565b6101dd6110c2565b60005b815181101561012d57610222906001600160a01b036101ff82856112da565b51166000526006845260406000206001600160601b0360a01b8154169055611292565b6101e0565b3461012f5760e036600319011261012f57610240610f20565b602480356001600160a01b0381811693909184900361012f576044803583811680910361012f5761026f610f36565b9260843563ffffffff811680910361012f5760a4359186831680930361012f578660c4359161029c6110c2565b169586156104b757891561047d57871691821561043a5780156104005781156103bd576000996001600160601b0360a01b9384600454161760045587848c5416178b558360015416176001558483600354161760035563ffffffff19600754161760075560085560025416176002556040519363095ea7b360e01b918286526004860152861993848787015285848160209a8b945af19081156103945787956000926103a0575b50808254169060015416946040519788968795865260048601528401525af180156103945761036e57005b8161012d92903d1061038d575b6103858183610fda565b8101906111b0565b503d61037b565b6040513d6000823e3d90fd5b6103b690873d891161038d576103858183610fda565b5088610343565b60405162461bcd60e51b815260206004820152601b818b01527f696e76616c6964205f64656661756c744e6f746966794168656164000000000081880152606490fd5b60405162461bcd60e51b8152602060048201526014818b0152731a5b9d985a590817d8985cd951d85cd31a5b5a5d60621b81880152606490fd5b60405162461bcd60e51b8152602060048201526017818b01527f696e76616c6964205f7072656d69756d53657474696e6700000000000000000081880152606490fd5b60405162461bcd60e51b8152602060048201526014818b01527334b73b30b634b2102fb4afb932b3b4b9ba3930b960611b81880152606490fd5b60405162461bcd60e51b815260206004820152600f818b01526e696e76616c6964205f695f6c696e6b60881b81880152606490fd5b3461012f5760208060031936011261012f57610506610f20565b61050e6110c2565b6000546040516370a0823160e01b81523060048201526001600160a01b03918216929091908483602481875afa93841561039457859360009561057e575b50906000604492604051968795869463a9059cbb60e01b865216600485015260248401525af180156103945761036e57005b848193959296503d83116105ab575b6105978183610fda565b8101031261012f575192849290600061054c565b503d61058d565b3461012f5761012d6105c336611080565b906105e360018060a01b03806004541633149081156105e8575b506111c8565b611203565b905060008051602061472583398151915254163314856105dd565b3461012f5761061136610f4c565b6040516327c3195d60e11b815260209291908381600481335afa9081156103945760009161070a575b506001600160a01b03908116600090815260068552604090205433908216036106d657600254166106c6575b505060405163fad9d92560e01b8152908082600481335afa90811561039457600091610696575b61012d82612e7c565b905081813d83116106bf575b6106ac8183610fda565b8101031261012f5761012d90518261068d565b503d6106a2565b6106cf91611b20565b8180610666565b60405162461bcd60e51b815260048101859052600c60248201526b37b7363c9031b937b13537b160a11b6044820152606490fd5b90508381813d8311610738575b6107218183610fda565b8101031261012f5761073290611961565b8461063a565b503d610717565b3461012f57600036600319011261012f57600080516020614725833981519152546040516001600160a01b039091168152602090f35b3461012f57600036600319011261012f576003546040516001600160a01b039091168152602090f35b3461012f57600036600319011261012f577ff0c57e16840df040f15088dc2f81fe391c3923bec73e23a9662efc9c229c6a00805460ff8160401c1615906001600160401b038116801590816108bd575b60011490816108b3575b1590816108aa575b506108985767ffffffffffffffff198116600117835581610879575b5061082561116f565b61082d61116f565b610836336110fb565b61083c57005b68ff00000000000000001981541690557fc7f505b2f371ae2175ee4913f4499e1f2633a7b5936321eed1cdaeb6115181d2602060405160018152a1005b68ffffffffffffffffff1916680100000000000000011782558261081c565b60405163f92ee8a960e01b8152600490fd5b90501584610800565b303b1591506107f8565b8391506107ee565b3461012f57608036600319011261012f576108de610f20565b6001600160401b0360243581811161012f576108fe903690600401611012565b90806044351161012f5736602360443501121561012f57604435600401351161012f573660246044356004013560051b60443501011161012f57610940610f36565b6004549091906001600160a01b03163381148015610d15575b610962906111c8565b604051632a0ab94760e11b81526000816004816001600160a01b0389165afa90811561039457600091610cfa575b50604051632e3b525160e21b81526001600160a01b0386166004820152600081602481865afa90811561039457602493600091600093610cce575b5060405163b6a2e8c560e01b81526001600160a01b03891660048201529460009186919082905afa91821561039457600497600095600094610ca2575b50604051632b569b5b60e01b8152986000918a919082906001600160a01b03165afa97881561039457600090600099610c79575b50865198610a498a610ffb565b99610a576040519b8c610fda565b808b52610a66601f1991610ffb565b018a60005b828110610c675750505060005b8851811015610b0b5760049060006001600160a01b03610a98838d6112da565b5116604051938480926395d89b4160e01b82525afa91821561039457610adf92828e92600092610ae4575b50610ace91926112da565b52610ad9818d6112da565b50611292565b610a78565b610ace9250610b05903d806000833e610afd8183610fda565b81019061302f565b91610ac3565b5095979496939589956001600160a01b0390811692168203610b9457505050508451610b3357005b6002546001600160a01b031691823b1561012f57600094610b7b8692604051988997889687956315c887b960e31b8752604435600401359360246044350193600489016133ea565b03925af1801561039457610b8b57005b61012d90610f7b565b94975092959450909290916001600160a01b039091161461012d5760005b825181101561012d57610bc581846112da565b5151610bda575b610bd590611292565b610bb2565b6002546001600160a01b031690610bf181846112da565b5191610bfd82866112da565b5192813b1561012f57600091888389610c3c8d604051998a9788968795631e404fbd60e31b8752604435600401359360246044350193600489016133ea565b03925af191821561039457610bd592610c58575b509050610bcc565b610c6190610f7b565b87610c50565b60606020828194010152018b90610a6b565b9050610c999198503d806000833e610c918183610fda565b810190613318565b98915089610a3c565b60009650610cc39194503d8088833e610cbb8183610fda565b81019061323c565b969150959390610a08565b610cef919350600092503d8084833e610ce78183610fda565b81019061313a565b9291509192906109cb565b610d0f91503d806000833e610afd8183610fda565b85610990565b50600080516020614725833981519152546001600160a01b03163314610959565b3461012f57600036600319011261012f576000546040516001600160a01b039091168152602090f35b3461012f57602036600319011261012f57610d78610f20565b610d806110c2565b6001600160a01b0316600090815260066020526040902080546001600160a01b0319169055005b3461012f57600036600319011261012f57610dc06110c2565b60008051602061472583398151915280546001600160a01b031981169091556000906001600160a01b03167f8be0079c531659141344cd1fd0a4f28419497f9722a3daafe3b4186f6b6457e08280a3005b3461012f57602036600319011261012f5761012d610e2d610f20565b610e356110c2565b611311565b3461012f57602036600319011261012f5760206001600160a01b0380610e5e610f20565b166000526006825260406000205416604051908152f35b3461012f57600036600319011261012f576001546040516001600160a01b039091168152602090f35b3461012f57602036600319011261012f576001600160a01b03610ebf610f20565b1660005260056020526020604060002054604051908152f35b3461012f57600036600319011261012f576004546040516001600160a01b039091168152602090f35b3461012f5761012d610f1236610f4c565b90610f1b6110c2565b611b20565b600435906001600160a01b038216820361012f57565b606435906001600160a01b038216820361012f57565b604090600319011261012f576004356001600160a01b038116810361012f5790602435600a81101561012f5790565b6001600160401b038111610f8e57604052565b634e487b7160e01b600052604160045260246000fd5b606081019081106001600160401b03821117610f8e57604052565b602081019081106001600160401b03821117610f8e57604052565b90601f801991011681019081106001600160401b03821117610f8e57604052565b6001600160401b038111610f8e5760051b60200190565b81601f8201121561012f5780359161102983610ffb565b926110376040519485610fda565b808452602092838086019260051b82010192831161012f578301905b828210611061575050505090565b81356001600160a01b038116810361012f578152908301908301611053565b90604060031983011261012f576004356001600160a01b038116810361012f5791602435906001600160401b03821161012f576110bf91600401611012565b90565b600080516020614725833981519152546001600160a01b031633036110e357565b60405163118cdaa760e01b8152336004820152602490fd5b6001600160a01b039081169081156111565760008051602061472583398151915280546001600160a01b031981168417909155167f8be0079c531659141344cd1fd0a4f28419497f9722a3daafe3b4186f6b6457e0600080a3565b604051631e4fbdf760e01b815260006004820152602490fd5b60ff7ff0c57e16840df040f15088dc2f81fe391c3923bec73e23a9662efc9c229c6a005460401c161561119e57565b604051631afcd79f60e31b8152600490fd5b9081602091031261012f5751801515810361012f5790565b156111cf57565b60405162461bcd60e51b815260206004820152600c60248201526b6f6e6c792073657474696e6760a01b6044820152606490fd5b9060018060a01b0391826004541692604051631d0bf83560e21b8152602081602481858716988960048301525afa90811561039457600091611274575b501561126e576112639360005260066020526040600020541615611265576119b2565b565b61012881611311565b50505050565b61128c915060203d811161038d576103858183610fda565b38611240565b60001981146112a15760010190565b634e487b7160e01b600052601160045260246000fd5b8051156112c45760200190565b634e487b7160e01b600052603260045260246000fd5b80518210156112c45760209160051b010190565b60005b8381106113015750506000910152565b81810151838201526020016112f1565b6001600160a01b0381166000818152600560205260408120805491939160018101919082106119285755818352600560205260408320546040519060208201926001600160601b03199060601b16835260348201526034815261137381610fa4565b5190206112cc6040516113896020830182610fda565b8181526020810191613459833980511561191657519084f53d151981151661190b576001600160a01b038116156118f9576004546008546001600160a01b039182169183163b156118f5576040516305e52ecf60e21b815260048101859052602481019290925260448201528381606481836001600160a01b0387165af180156118ea576118d7575b508183526006602052604080842080546001600160a01b0319166001600160a01b038416179055518261144482610fa4565b602a8252602082019060403683378251156118c357603082538251600110156118c3576078602184015360295b6001811161185457506118345760286114ab926114bb9260405194859267021b937b73537b1160c51b6020850152518092858501906112ee565b8101036008810184520182610fda565b63ffffffff6007541660018060a01b036000805160206147258339815191525416906040519261014084018481106001600160401b03821117610f8e57604052835260405161150981610fbf565b868152602084015260018060a01b0384166040840152606083015260808201528360a082015260405161153b81610fbf565b84815260c082015260405161154f81610fbf565b84815260e082015260405161156381610fbf565b848152610100820152670de0b6b3a764000061012082015260018060a01b03600154169060206040518093633f678e1160e01b825282600483015281888161165a6115bc8851610140602485015261016484019061193c565b61164361162e6115dd8a8c015193602319948588830301604489015261193c565b60408c01516001600160a01b03908116606488015260608d015163ffffffff16608488015260808d01511660a487015260a08c015160ff1660c487015260c08c0151868203850160e488015261193c565b60e08b0151838683030161010487015261193c565b906101008a0151908483030161012485015261193c565b6001600160601b036101208901511661014483015203925af191821561176d578592611800575b5081156117c3576003546040516379ea994360e01b8152600481018490529190602090839060249082906001600160a01b03165afa9182156117b857869261177c575b50604001516001600160a01b031690813b156117785760405163035e3a9160e01b8152600481018490526001600160a01b0390911660248201529085908290604490829084905af1801561176d57908591611755575b5050906117477fb14158a7401f4b06e42aa146ee389c5e63a63c474daf00941cef5ad2289420d192612e7c565b6001600160a01b03169280a3565b61175e90610f7b565b61176957833861171a565b8380fd5b6040513d87823e3d90fd5b8580fd5b9091506020813d6020116117b0575b8161179860209383610fda565b81010312611778576117a990611961565b90386116c4565b3d915061178b565b6040513d88823e3d90fd5b60405162461bcd60e51b8152602060048201526015602482015274185d5d1bcb585c1c1c9bdd9948191a5cd8589b1959605a1b6044820152606490fd5b9091506020813d60201161182c575b8161181c60209383610fda565b8101031261012f57519038611681565b3d915061180f565b60405163e22e27eb60e01b81526004810185905260146024820152604490fd5b90600f811660108110156118af5784518310156112c4576f181899199a1a9b1b9c1cb0b131b232b360811b901a8483016020015360041c90801561189b5760001901611471565b634e487b7160e01b87526011600452602487fd5b634e487b7160e01b88526032600452602488fd5b634e487b7160e01b86526032600452602486fd5b6118e390939193610f7b565b9138611412565b6040513d86823e3d90fd5b8480fd5b60405163b06ebf3d60e01b8152600490fd5b6040513d84823e3d90fd5b604051631328927760e21b8152600490fd5b634e487b7160e01b85526011600452602485fd5b90602091611955815180928185528580860191016112ee565b601f01601f1916010190565b51906001600160a01b038216820361012f57565b90815180825260208080930193019160005b828110611995575050505090565b83516001600160a01b031685529381019392810192600101611987565b91909160009260018060a01b038092169081855260209160068352604093848720541691826119e5575b50505050509050565b823b15611b1c57845163018b962560e21b815260048101859052878180611a0f6024820186611975565b038183885af18015611b125791859391600498999593611ad7575b50907fae6400621a7beda1ea6a46caba9f69ed794a6b279ac69df52ef8b463d5c6f174611a638493895191829188835288830190611975565b0390a3845163fad9d92560e01b815295869182905afa928315611acd575091611a9d575b50611a929150612e7c565b8038808080806119dc565b905081813d8311611ac6575b611ab38183610fda565b8101031261012f57611a92905138611a87565b503d611aa9565b51903d90823e3d90fd5b611a6384939296611b087fae6400621a7beda1ea6a46caba9f69ed794a6b279ac69df52ef8b463d5c6f17493610f7b565b9692935050611a2a565b86513d8a823e3d90fd5b8680fd5b9190600090600a811015612e2d57600181146129b3575b60048114612859575b600281146125d0575b600581146122fb575b60038114611f40575b600614611b6757509050565b604051632a0ab94760e11b81529281846004816001600160a01b0385165afa93841561190b578294611f24575b506040516309bcf1e560e21b8152936020856004816001600160a01b0386165afa948515611f19578395611ee6575b5060048054604051632e3b525160e21b81526001600160a01b038581169382019390935291169584826024818a5afa801561176d5785928691611ec5575b5060405163b6a2e8c560e01b81526001600160a01b03861660048201529286846024818c5afa928315611e0b578780999a6024979899968296611ea2575b506040516310302aef60e11b81526001600160a01b038b16600482015297889182905afa978815611e325789968a908b9a611e7f575b5060405163626f09d360e11b81529960608b6004816001600160a01b0387165afa9a8b15611e74578c9b611e41575b506002546001600160a01b031692833b15611e3d57918c809492611ce08d9560405198899788968795632fe5a09760e21b8752600487016132a5565b03925af18015611e3257908991611e1a575b50506002546001600160a01b031691823b15611e165787928992838993611d308a6040519889978896879563b8be7d0960e01b8752600487016131ea565b03925af18015611e0b57908791611df7575b50508151611d53575b505050505050565b6002546001600160a01b031692611d686132d3565b91611d72836112b7565b52611d7c826112b7565b50611d856132d3565b92611d8f846112b7565b52611d99836112b7565b50833b15611b1c578694939291611dc886926040519889978896879563b8be7d0960e01b8752600487016131ea565b03925af1801561190b57611de0575b80808080611d4b565b611dea8291610f7b565b611df45780611dd7565b80fd5b611e0090610f7b565b611778578538611d42565b6040513d89823e3d90fd5b8880fd5b611e2390610f7b565b611e2e578738611cf2565b8780fd5b6040513d8b823e3d90fd5b8c80fd5b611e63919b5060603d8111611e6d575b611e5b8183610fda565b81019061328a565b5090509938611ca4565b503d611e51565b6040513d8e823e3d90fd5b91975050611e989198503d808b833e610cbb8183610fda565b9891969038611c75565b909550611eba9196503d8088833e610cbb8183610fda565b969150959438611c3f565b9050611edc9192503d8087833e610ce78183610fda565b9291509138611c01565b9094506020813d8211611f11575b81611f0160209383610fda565b8101031261012f57519338611bc3565b3d9150611ef4565b6040513d85823e3d90fd5b611f399194503d8084833e610afd8183610fda565b9238611b94565b604051632a0ab94760e11b81526001600160a01b038516908381600481855afa9081156118ea5784916122e1575b506040516309bcf1e560e21b815291602083600481845afa92831561176d5785936122ae575b5060405163626f09d360e11b8152606081600481855afa9081156117b857869161228d575b506004805460405163b6a2e8c560e01b81529182018490526001600160a01b0316948782602481895afa80156122825788928991612261575b506040516310302aef60e11b8152600481018690529389856024818b5afa958615612233578a908196829861223e575b506024604051809b8193632e3b525160e21b835260048301525afa908115612233578a988b92612211575b50428111156122095761206562015180914290613358565b04975b6002546001600160a01b031690813b15612205578985928f8e80946120a78e93604051988997889687956363f65ca760e11b9d8e885260048801613365565b03925af180156121fa57908b916121e2575b50508351612141575b5050505080516120d6575b50505050611b5b565b6002546001600160a01b031691823b15611b1c5790868094939261211060405197889687958694632daee07b60e11b8652600486016133b9565b03925af18015611f1957908391612129575b80806120cd565b61213290610f7b565b61213d578138612122565b5080fd5b6002546001600160a01b0316926121566132d3565b92612160846112b7565b5261216a836112b7565b506121736132d3565b9461217d866112b7565b52612187856112b7565b50833b156121de57918a8094926121b18f8b98968d6040519a8b998a988997885260048801613365565b03925af18015611e0b579087916121ca575b80806120c2565b6121d390610f7b565b6117785785386121c3565b8a80fd5b6121eb90610f7b565b6121f65789386120b9565b8980fd5b6040513d8d823e3d90fd5b8b80fd5b508997612068565b90985061222891503d808c833e610ce78183610fda565b98915097903861204d565b6040513d8c823e3d90fd5b9097506122569196503d8088833e610cbb8183610fda565b969150959638612022565b90506122789192503d808a833e610cbb8183610fda565b9291509138611ff2565b6040513d8a823e3d90fd5b6122a5915060603d8111611e6d57611e5b8183610fda565b91505038611fb9565b9092506020813d82116122d9575b816122c960209383610fda565b8101031261012f57519138611f94565b3d91506122bc565b6122f591503d8086833e610afd8183610fda565b38611f6e565b60408051632a0ab94760e11b81526001600160a01b0391908683168582600481845afa9182156125c65786926125aa575b5082516309bcf1e560e21b815293602085600481855afa9485156125a057879561256d575b50600480548551632e3b525160e21b815291820184905282168882602481845afa9081156124df57908960249493928193829361254a575b5088519586809263b6a2e8c560e01b82528960048301525afa948515612540578a908b958c97612516575b509060606004928a519384809263626f09d360e11b82525afa91821561250c578c926124e9575b50846002541693843b15611e3d578c80946124319461244789989561241e958f519a8b998a98899763bce4bdfb60e01b895260a060048a015260a4890190613195565b60031993848983030160248a0152613195565b921660448601528482030160648501528d61193c565b90608483015203925af180156124df579089916124cb575b50506002541691823b15611e2e579087809493926124938c8851998a97889687956370b5813560e01b8752600487016132a5565b03925af19081156124c257509083916124ae575b5050611b52565b6124b790610f7b565b61213d5781386124a7565b513d85823e3d90fd5b6124d490610f7b565b611e2e57873861245f565b86513d8b823e3d90fd5b61250291925060603d8111611e6d57611e5b8183610fda565b50905090386123db565b89513d8e823e3d90fd5b61253491975060609650600492508c3d8091833e610cbb8183610fda565b969096979192506123b4565b87513d8c823e3d90fd5b9092506125629193503d8085833e610ce78183610fda565b939150929138612389565b9094506020813d8211612598575b8161258860209383610fda565b8101031261012f57519338612351565b3d915061257b565b84513d89823e3d90fd5b6125bf9192503d8088833e610afd8183610fda565b903861232c565b83513d88823e3d90fd5b60408051632a0ab94760e11b81526001600160a01b0391908683168582600481845afa9182156125c657869261283d575b5082516309bcf1e560e21b8152602081600481855afa9081156125a057879161280c575b50835163626f09d360e11b8152606081600481865afa9081156128025788916127e1575b50428111156127d95761266162015180914290613358565b04945b8060045416918551632e3b525160e21b81528460048201528981602481875afa948515612540578a90819282976127b6575b50602489518097819363b6a2e8c560e01b835260048301525afa948515612540578a948b96612793575b50836002541692833b1561220557928b92838f936126f78b958e988e51998a988997889663f0f10eeb60e01b885260048801613365565b03925af180156124df5790899161277f575b5050815161271d575b505050505050611b49565b6002541691823b15611e2e5790878094939261274e87519889968795869463203b0d6b60e11b8652600486016133b9565b03925af19081156124c2575090839161276b575b80808080612712565b61277490610f7b565b61213d578138612762565b61278890610f7b565b611e2e578738612709565b9095506127ab9194503d808c833e610cbb8183610fda565b9491509394386126c0565b9096506127ce9192503d8084833e610ce78183610fda565b929150919538612696565b508694612664565b6127f9915060603d8111611e6d57611e5b8183610fda565b50905038612649565b85513d8a823e3d90fd5b90506020813d8211612835575b8161282660209383610fda565b8101031261012f575138612625565b3d9150612819565b6128529192503d8088833e610afd8183610fda565b9038612601565b60408051632a0ab94760e11b81526001600160a01b038681169291908582600481875afa9182156125c6578692612997575b5082516309bcf1e560e21b815293602085600481845afa9485156125a0578795612964575b50868260045416916024865180948193632e3b525160e21b835260048301525afa9182156125a05787918893612943575b506002541691823b15611e2e579087809493926129148c8851998a9788968795631cac659160e31b8752600487016131ea565b03925af19081156124c2575090839161292f575b5050611b40565b61293890610f7b565b61213d578138612928565b90925061295a91503d8089833e610ce78183610fda565b91509091386128e1565b9094506020813d821161298f575b8161297f60209383610fda565b8101031261012f575193386128b0565b3d9150612972565b6129ac9192503d8088833e610afd8183610fda565b903861288b565b604051632a0ab94760e11b81526001600160a01b0380861695949392919083826004818a5afa9182156118ea578492612e11575b506040516309bcf1e560e21b81526020816004818b5afa90811561176d578591612ddf575b5060405163626f09d360e11b815297606089600481845afa9889156117b8578699612dbd575b508260045416926040516302d05d3f60e01b8152602081600481865afa908115612282578891612d83575b5060405160016236769560e01b0319815290821660048201528781602481885afa9485156122825788918996612d16575b509a8860249798999a9b9c60405198898092632e3b525160e21b82528860048301525afa958615612233578a978b97612cf3575b50604051632b569b5b60e01b8152908b82600481895afa918215611e74578c92612cd4575b50604051630378997760e41b8152936020856004818a5afa948515612cc9578d95612c95575b508151612bdb575b50505081811115612bd2576201518091612b2e91613358565b04905b6002541694853b15611e165793889593612b7393612b9a8894612b86986040519b8c9a8b998a986354f8e2db60e11b8a5260c060048b015260c48a0190613195565b60031992838a83030160248b015261193c565b926044880152868303016064870152613195565b91608484015260a483015203925af18015611f1957908391612bbe575b5050611b37565b612bc790610f7b565b61213d578138612bb7565b50508790612b31565b856002541691612beb8686613358565b93833b15612c91578e612c3f93612c688f839795612c598c612c2c976040519c8d9b8c9a8b996390de99b760e01b8b5260c060048c015260c48b019061193c565b60031997888b83030160248c015261193c565b926044890152606488015284878303016084880152611975565b918483030160a485015261193c565b03925af180156121fa57612c7e575b8080612b15565b612c8a909a919a610f7b565b9838612c77565b8e80fd5b9094506020813d602011612cc1575b81612cb160209383610fda565b81010312611e3d57519338612b0d565b3d9150612ca4565b6040513d8f823e3d90fd5b612cea9192508c3d8091833e610c918183610fda565b50509038612ae7565b909650612d0b9197503d808c833e610ce78183610fda565b979150969538612ac2565b915094503d8089833e612d298183610fda565b81019a6060828d0312611e165781516001600160401b03908181116121de578d612d54918501612fde565b9260208101519182116121de578a9b9c9d6024999a9b92612d759201612fde565b96919c9b9a99989750612a8e565b90506020813d602011612db5575b81612d9e60209383610fda565b81010312611e2e57612daf90611961565b38612a5d565b3d9150612d91565b612dd691995060603d8111611e6d57611e5b8183610fda565b50509738612a32565b90506020813d602011612e09575b81612dfa60209383610fda565b810103126118f5575138612a0c565b3d9150612ded565b612e269192503d8086833e610afd8183610fda565b90386129e7565b634e487b7160e01b82526021600452602482fd5b9081602091031261012f57516001600160601b038116810361012f5790565b906132c86001600160601b03809316029182169182036112a157565b60035460408051631aec64c960e31b8152600481018490529290916001600160a01b031660208085602481855afa948515612fd357600095612fb4575b508351631e01043960e01b8152600481018490528181602481865afa918215612fa957600092612f7c575b50506001600160601b03946127109186808481612f0086612e60565b16041691161115612f1357505050505050565b612f1d8691612e60565b160490803b1561012f57600092836044928651978895869463948108f760e01b865260048601521660248401525af1908115612f725750612f63575b8080808080611d4b565b612f6c90610f7b565b38612f59565b513d6000823e3d90fd5b612f9b9250803d10612fa2575b612f938183610fda565b810190612e41565b3880612ee4565b503d612f89565b85513d6000823e3d90fd5b81612fcc9296503d8711612fa257612f938183610fda565b9338612eb9565b84513d6000823e3d90fd5b81601f8201121561012f5780516001600160401b038111610f8e5760405192613011601f8301601f191660200185610fda565b8184526020828401011161012f576110bf91602080850191016112ee565b9060208282031261012f5781516001600160401b03811161012f576110bf9201612fde565b81601f8201121561012f5780519161306b83610ffb565b926130796040519485610fda565b808452602092838086019260051b82010192831161012f578301905b8282106130a3575050505090565b8380916130af84611961565b815201910190613095565b9080601f8301121561012f578151906130d282610ffb565b926130e06040519485610fda565b828452602092838086019160051b8301019280841161012f57848301915b84831061310e5750505050505090565b82516001600160401b03811161012f57869161312f84848094890101612fde565b8152019201916130fe565b909160608284031261012f578151916001600160401b039283811161012f5784613165918301613054565b93602082015184811161012f578161317e9184016130ba565b93604083015190811161012f576110bf92016130ba565b90815180825260208092019182818360051b85019501936000915b8483106131c05750505050505090565b90919293949584806131da83856001950387528a5161193c565b98019301930191949392906131b0565b939594919261321860809461320a6132269460a0895260a0890190613195565b908782036020890152613195565b90858203604087015261193c565b60608401959095526001600160a01b0316910152565b9160608383031261012f5761325083611961565b926020810151926001600160401b039384811161012f5781613273918401612fde565b93604083015190811161012f576110bf9201612fde565b9081606091031261012f578051916040602083015192015190565b93959491926132186080946132c56132269460a0895260a089019061193c565b90878203602089015261193c565b604051604081018181106001600160401b03821117610f8e57604052600181528060005b602080821015613312579060606020928285010152016132f7565b50505090565b9060608282031261012f578151906001600160401b03821161012f5761333f918301613054565b916110bf604061335160208501611961565b9301611961565b919082039182116112a157565b94919261339460a0959897946133866133a29460c08a5260c08a0190613195565b9088820360208a0152613195565b90868203604088015261193c565b9560608501526080840152600180831b0316910152565b9493926133946060936133d76133e59460808a5260808a019061193c565b9088820360208a015261193c565b930152565b93919261321861341b946132c561340d949a99989a60c0895260c089019061193c565b908382036060850152611975565b8181036080830152828152936001600160fb1b03831161012f576110bf9460209360051b809285830137019060a08382840301910152019061319556fe60808060405234610016576112b0908161001c8239f35b600080fdfe6040608081526004908136101561001557600080fd5b600091823560e01c908163035e3a9114610550578163062e5894146103785781631794bb3c146102ca57816325afaf54146102855781634585e33b1461021d57508063481c6a75146101f55780634f8632ba146101ce5780636e04ff0d14610179578063c0c9ce3014610151578063eb3a9ff314610119578063edd12db2146100fb578063f645d4f9146100d35763fad9d925146100b257600080fd5b346100cf57816003193601126100cf576020906007549051908152f35b5080fd5b50346100cf57816003193601126100cf5760085490516001600160a01b039091168152602090f35b50346100cf57816003193601126100cf576020906006549051908152f35b50346100cf5761014d9061013761012f366106a3565b810190610eaa565b915192839290916001600160a01b031683610710565b0390f35b50346100cf57816003193601126100cf5760015490516001600160a01b039091168152602090f35b5090346101cb575061018a366106a3565b505060606101966107b2565b6101bd845194859315158452806020850152825192838092860152602086860191016106ed565b601f01601f19168101030190f35b80fd5b50346100cf57816003193601126100cf57905490516001600160a01b039091168152602090f35b50346100cf57816003193601126100cf5760025490516001600160a01b039091168152602090f35b839150346100cf5761022e366106a3565b6008549092906001600160a01b0316330361025157509061024e91610ed9565b80f35b606490602086519162461bcd60e51b8352820152600e60248201526d27b7363c902337b93bb0b93232b960911b6044820152fd5b9050346102c65760203660031901126102c65735916003548310156101cb57506102b0602092610656565b60018060a01b0391549060031b1c169051908152f35b8280fd5b9050346102c65760603660031901126102c6576001600160a01b0390803582811690819003610374576102fb6105cb565b9185549484861661033b5750506bffffffffffffffffffffffff60a01b809416178455168160015416176001553390600254161760025560443560065580f35b906020606492519162461bcd60e51b83528201526013602482015272105b1c9958591e481a5b9a5d1a585b1a5e9959606a1b6044820152fd5b8480fd5b9050346102c6576020918260031936011261054c5781359367ffffffffffffffff938486116100cf57366023870112156100cf57858401359485116105395760059085821b968451966103cd838a0189610634565b87528187016024809983010191368311610535578901905b8282106105125750506002546001600160a01b0391506104089082163314611030565b835b875181101561050e57818382861b8a0101511680865284845260ff878720541615806104af575b610445575b5061044090610761565b61040a565b6003908154916801000000000000000083101561049d57906104409392916104736001938481018355610656565b81929154911b908784831b921b191617905587528585528787209060ff1982541617905590610436565b634e487b7160e01b885260418a528b88fd5b50865163b8f7a66560e01b815284818a81855afa9081156105045787916104d7575b50610431565b6104f79150853d87116104fd575b6104ef8183610634565b810190610749565b386104d1565b503d6104e5565b88513d89823e3d90fd5b8480f35b81356001600160a01b03811681036105315781529083019083016103e5565b8680fd5b8580fd5b634e487b7160e01b825260418452602482fd5b8380fd5b919050346102c6573660031901126100cf573561056b6105cb565b6002546001600160a01b0391906105859083163314611030565b826007551690816bffffffffffffffffffffffff60a01b60085416176008557ff14a202984cff74b120dfefc6cb8327be22d7f59f12b7d937e5dadd9b7a003368380a380f35b602435906001600160a01b03821682036105e157565b600080fd5b6020810190811067ffffffffffffffff82111761060257604052565b634e487b7160e01b600052604160045260246000fd5b6060810190811067ffffffffffffffff82111761060257604052565b90601f8019910116810190811067ffffffffffffffff82111761060257604052565b60035481101561068d5760036000527fc2575a0e9e593c00f959f8c92f12db2869c3395a3b0502d05e2516446f71f85b0190600090565b634e487b7160e01b600052603260045260246000fd5b9060206003198301126105e15760043567ffffffffffffffff928382116105e157806023830112156105e15781600401359384116105e157602484830101116105e1576024019190565b60005b8381106107005750506000910152565b81810151838201526020016106f0565b6001600160a01b03909116815260408101929190600a8210156107335760200152565b634e487b7160e01b600052602160045260246000fd5b908160209103126105e1575180151581036105e15790565b60001981146107705760010190565b634e487b7160e01b600052601160045260246000fd5b908160209103126105e157516001600160801b03811681036105e15790565b9190820391821161077057565b600154600054604051631d0bf83560e21b81526001600160a01b03918216600482018190529190921691602081602481865afa908115610d2257600091610e8b575b5015610e7a576040516382b5266f60e01b808252600482018390529190602081602481875afa908115610d2257600091610e48575b5015610e3d5760246020926040519485938492835260048301525afa908115610d2257600091610e0b575b505b60035460005b81811061087c57505050600090604051610875816105e6565b6000815290565b61088581610656565b905460039190911b1c6001600160a01b031660008181526005602052604090205460ff1615610e01576108b78161106b565b15610dee5760405163b8f7a66560e01b8152602081600481855afa908115610d2257600091610dcf575b5015610dad5760405163626f09d360e11b8152606081600481855afa8015610d2257600091600090600092610d6c575b5060405163fd780e9d60e01b815291602083600481885afa928315610d2257600093610d2e575b506040516342022c1760e11b815293602085600481895afa948515610d2257600095610cf1575b50600160ff851614610b41575b50600260ff841614610a17575b505060ff16600314610996575b505061099190610761565b61085c565b6000828152600460209081526040808320600680855292528083205460058452908320549282905290929091906001600160801b031682018083116107705742119182610a0c575b50501561098657925093925050604051926020840152604083015260408252610a0682610618565b60019190565b1115905038806109de565b81610a2289836107a5565b4210159182610b36575b505080610aff575b610ada5742101580610a99575b610a4d575b3880610979565b600083815260046020908152604080832060028452909152808220546005835291205411610a4657505093925050506040519160208301526005604083015260408252610a0682610618565b50826000526004602052604060002060056000526020526040600020546001600160801b03831681018111610770576001600160801b038316014211610a41565b50505093925050506040519160208301526003604083015260408252610a0682610618565b50836000526004602052604060002060036000526020526040600020546001600160801b0384168101809111610770574211610a34565b141590508138610a2c565b610b4b89846107a5565b42101580610ce7575b80610cb0575b610c89578042101580610c48575b610bf9575b610b7789826107a5565b4210159081610bef575b5080610bb8575b610b92573861096c565b5050505093925050506040519160208301526001604083015260408252610a0682610618565b50846000526004602052604060002060016000526020526040600020546001600160801b0385168101809111610770574211610b88565b9050421038610b81565b600086815260046020818152604080842060018552909152808320549183529091205411610b6d57505050505093925050506040519160208301526004604083015260408252610a0682610618565b50856000526004602052604060002060046000526020526040600020546001600160801b03861681018111610770576001600160801b038616014211610b68565b505050505093925050506040519160208301526002604083015260408252610a0682610618565b50856000526004602052604060002060026000526020526040600020546001600160801b0386168101809111610770574211610b5a565b5080831415610b54565b610d1491955060203d602011610d1b575b610d0c8183610634565b810190610786565b933861095f565b503d610d02565b6040513d6000823e3d90fd5b9092506020813d602011610d64575b81610d4a60209383610634565b810103126105e1575160ff811681036105e1579138610938565b3d9150610d3d565b925050506060813d606011610da5575b81610d8960609383610634565b810103126105e157805160406020830151920151909138610911565b3d9150610d7c565b93925050506040519160208301526008604083015260408252610a0682610618565b610de8915060203d6020116104fd576104ef8183610634565b386108e1565b50505050600090604051610875816105e6565b5061099190610761565b90506020813d602011610e35575b81610e2660209383610634565b810103126105e1575138610854565b3d9150610e19565b505050600654610856565b90506020813d602011610e72575b81610e6360209383610634565b810103126105e1575138610829565b3d9150610e56565b5050600090604051610875816105e6565b610ea4915060203d6020116104fd576104ef8183610634565b386107f4565b91908260409103126105e15781356001600160a01b03811681036105e1579160200135600a8110156105e15790565b6001546000805460408051631d0bf83560e21b81526001600160a01b0392831660048201529196959094929360209392908490829060249082908c165afa908115611026578591611009575b50156110005781610f399188930190610eaa565b961691600a871015610fec5760088714610fd75782845260048152848420908785525242848420556002541690813b156102c657948291610f91959683865180988195829463a6912d4b60e01b845260048401610710565b03925af18015610fcb57610fa457505050565b67ffffffffffffffff8311610fb7575052565b634e487b7160e01b81526041600452602490fd5b509051903d90823e3d90fd5b918352506005905220805460ff191690559050565b634e487b7160e01b84526021600452602484fd5b50505050509050565b6110209150843d86116104fd576104ef8183610634565b38610f25565b86513d87823e3d90fd5b1561103757565b60405162461bcd60e51b815260206004820152600c60248201526b27b7363c9026b0b730b3b2b960a11b6044820152606490fd5b6040805163b5ddc99f60e01b81526001600160a01b039260209291908416908381600481855afa90811561126f576003916001600160801b0391600091611252575b5016146112495782600491835192838092637ddd755b60e11b82525afa90811561123e57908491600091611202575b506000906044845180948193635624b25b60e01b83527f4a204f620c8c5ccdca3fd54d003badd85ba500436a431f0cbda4f558c93c34c8600484015260016024840152165afa9182156111f857600092611166575b50509080825192015191818110611155575b5050161561115057600190565b600090565b600019910360031b1b163880611143565b3d8084843e6111758184610634565b82019284838503126101cb57825167ffffffffffffffff938482116102c657019184601f840112156100cf5782519384116111e45751936111bf601f8501601f1916870186610634565b8385528584840101116101cb5750906111dd918480850191016106ed565b3880611131565b634e487b7160e01b82526041600452602482fd5b513d6000823e3d90fd5b9091508381813d8311611237575b61121a8183610634565b810103126100cf57519084821682036101cb5750839060006110dc565b503d611210565b82513d6000823e3d90fd5b50505050600190565b6112699150863d8811610d1b57610d0c8183610634565b386110ad565b83513d6000823e3d90fdfea2646970667358221220ef438fffdf130870642d33883dfecb4fe761f163f42e17f2054a08f30ded31b964736f6c634300081400339016d09d72d40fdae2fd8ceac6b6234c7706214fd39c1cd1e609a0528c199300a26469706673582212204bdf234bfba973faf0e4fa7b23c7b142941478afd66a4197e76fe4bf4945dcf164736f6c63430008140033",
  "devdoc": {
    "errors": {
      "Create2EmptyBytecode()": [
        {
          "details": "There's no code to deploy."
        }
      ],
      "FailedDeployment()": [
        {
          "details": "The deployment failed."
        }
      ],
      "InsufficientBalance(uint256,uint256)": [
        {
          "details": "The ETH balance of the account is not enough to perform the operation."
        }
      ],
      "InvalidInitialization()": [
        {
          "details": "The contract is already initialized."
        }
      ],
      "NotInitializing()": [
        {
          "details": "The contract is not initializing."
        }
      ],
      "OwnableInvalidOwner(address)": [
        {
          "details": "The owner is not a valid owner account. (eg. `address(0)`)"
        }
      ],
      "OwnableUnauthorizedAccount(address)": [
        {
          "details": "The caller account is not authorized to perform an operation."
        }
      ],
      "StringsInsufficientHexLength(uint256,uint256)": [
        {
          "details": "The `value` string doesn't fit in the specified `length`."
        }
      ]
    },
    "events": {
      "Initialized(uint64)": {
        "details": "Triggered when the contract has been initialized or reinitialized."
      }
    },
    "kind": "dev",
    "methods": {
      "addLegacyCronjob(address,address[])": {
        "details": "create contract cronjob for user (if not created yet) and add legacy to cronjob"
      },
      "owner()": {
        "details": "Returns the address of the current owner."
      },
      "renounceOwnership()": {
        "details": "Leaves the contract without owner. It will not be possible to call `onlyOwner` functions. Can only be called by the current owner. NOTE: Renouncing ownership will leave the contract without an owner, thereby disabling any functionality that is only available to the owner."
      },
      "transferOwnership(address)": {
        "details": "Transfers ownership of the contract to a new account (`newOwner`). Can only be called by the current owner."
      }
    },
    "version": 1
  },
  "userdoc": {
    "kind": "user",
    "methods": {},
    "version": 1
  },
  "storageLayout": {
    "storage": [
      {
        "astId": 27953,
        "contract": "contracts/premium/PremiumAutomationManager.sol:PremiumAutomationManager",
        "label": "i_link",
        "offset": 0,
        "slot": "0",
        "type": "t_contract(LinkTokenInterface)814"
      },
      {
        "astId": 27956,
        "contract": "contracts/premium/PremiumAutomationManager.sol:PremiumAutomationManager",
        "label": "i_registrar",
        "offset": 0,
        "slot": "1",
        "type": "t_contract(AutomationRegistrarInterface)27910"
      },
      {
        "astId": 27959,
        "contract": "contracts/premium/PremiumAutomationManager.sol:PremiumAutomationManager",
        "label": "premiumSendMail",
        "offset": 0,
        "slot": "2",
        "type": "t_contract(IPremiumSendMail)24705"
      },
      {
        "astId": 27962,
        "contract": "contracts/premium/PremiumAutomationManager.sol:PremiumAutomationManager",
        "label": "keeperRegistry",
        "offset": 0,
        "slot": "3",
        "type": "t_contract(IKeeperRegistryMaster)27946"
      },
      {
        "astId": 27964,
        "contract": "contracts/premium/PremiumAutomationManager.sol:PremiumAutomationManager",
        "label": "premiumSetting",
        "offset": 0,
        "slot": "4",
        "type": "t_address"
      },
      {
        "astId": 27968,
        "contract": "contracts/premium/PremiumAutomationManager.sol:PremiumAutomationManager",
        "label": "nonceByUsers",
        "offset": 0,
        "slot": "5",
        "type": "t_mapping(t_address,t_uint256)"
      },
      {
        "astId": 27972,
        "contract": "contracts/premium/PremiumAutomationManager.sol:PremiumAutomationManager",
        "label": "cronjob",
        "offset": 0,
        "slot": "6",
        "type": "t_mapping(t_address,t_address)"
      },
      {
        "astId": 27974,
        "contract": "contracts/premium/PremiumAutomationManager.sol:PremiumAutomationManager",
        "label": "baseGasLimit",
        "offset": 0,
        "slot": "7",
        "type": "t_uint32"
      },
      {
        "astId": 27976,
        "contract": "contracts/premium/PremiumAutomationManager.sol:PremiumAutomationManager",
        "label": "defaultNotifyAhead",
        "offset": 0,
        "slot": "8",
        "type": "t_uint256"
      },
      {
        "astId": 27978,
        "contract": "contracts/premium/PremiumAutomationManager.sol:PremiumAutomationManager",
        "label": "notifyId",
        "offset": 0,
        "slot": "9",
        "type": "t_uint256"
      }
    ],
    "types": {
      "t_address": {
        "encoding": "inplace",
        "label": "address",
        "numberOfBytes": "20"
      },
      "t_contract(AutomationRegistrarInterface)27910": {
        "encoding": "inplace",
        "label": "contract AutomationRegistrarInterface",
        "numberOfBytes": "20"
      },
      "t_contract(IKeeperRegistryMaster)27946": {
        "encoding": "inplace",
        "label": "contract IKeeperRegistryMaster",
        "numberOfBytes": "20"
      },
      "t_contract(IPremiumSendMail)24705": {
        "encoding": "inplace",
        "label": "contract IPremiumSendMail",
        "numberOfBytes": "20"
      },
      "t_contract(LinkTokenInterface)814": {
        "encoding": "inplace",
        "label": "contract LinkTokenInterface",
        "numberOfBytes": "20"
      },
      "t_mapping(t_address,t_address)": {
        "encoding": "mapping",
        "key": "t_address",
        "label": "mapping(address => address)",
        "numberOfBytes": "32",
        "value": "t_address"
      },
      "t_mapping(t_address,t_uint256)": {
        "encoding": "mapping",
        "key": "t_address",
        "label": "mapping(address => uint256)",
        "numberOfBytes": "32",
        "value": "t_uint256"
      },
      "t_uint256": {
        "encoding": "inplace",
        "label": "uint256",
        "numberOfBytes": "32"
      },
      "t_uint32": {
        "encoding": "inplace",
        "label": "uint32",
        "numberOfBytes": "4"
      }
    }
  }
}