{
  "address": "0x5dCF54faa0B8321ab6496622DF42b09D1C0d1929",
  "abi": [
    {
      "inputs": [],
      "name": "DuplicateTokenAddress",
      "type": "error"
    },
    {
      "inputs": [],
      "name": "DuplicateTokenAddresses",
      "type": "error"
    },
    {
      "inputs": [],
      "name": "EthSentWithoutSwap",
      "type": "error"
    },
    {
      "inputs": [],
      "name": "InvalidInitialization",
      "type": "error"
    },
    {
      "inputs": [],
      "name": "InvalidRecipient",
      "type": "error"
    },
    {
      "inputs": [],
      "name": "InvalidSwapIntent",
      "type": "error"
    },
    {
      "inputs": [],
      "name": "InvalidTokenAmount",
      "type": "error"
    },
    {
      "inputs": [],
      "name": "InvalidTokenType",
      "type": "error"
    },
    {
      "inputs": [],
      "name": "MismatchedArrayLength",
      "type": "error"
    },
    {
      "inputs": [],
      "name": "NoTokensReceived",
      "type": "error"
    },
    {
      "inputs": [],
      "name": "NotInitializing",
      "type": "error"
    },
    {
      "inputs": [
        {
          "internalType": "address",
          "name": "owner",
          "type": "address"
        }
      ],
      "name": "OwnableInvalidOwner",
      "type": "error"
    },
    {
      "inputs": [
        {
          "internalType": "address",
          "name": "account",
          "type": "address"
        }
      ],
      "name": "OwnableUnauthorizedAccount",
      "type": "error"
    },
    {
      "inputs": [
        {
          "internalType": "address",
          "name": "token",
          "type": "address"
        }
      ],
      "name": "SafeERC20FailedOperation",
      "type": "error"
    },
    {
      "inputs": [],
      "name": "SwapNotConfigured",
      "type": "error"
    },
    {
      "inputs": [],
      "name": "TokenNotWhitelisted",
      "type": "error"
    },
    {
      "inputs": [],
      "name": "ZeroAmount",
      "type": "error"
    },
    {
      "inputs": [],
      "name": "ZeroBufferTime",
      "type": "error"
    },
    {
      "inputs": [],
      "name": "ZeroDuration",
      "type": "error"
    },
    {
      "anonymous": false,
      "inputs": [
        {
          "indexed": false,
          "internalType": "uint64",
          "name": "version",
          "type": "uint64"
        }
      ],
      "name": "Initialized",
      "type": "event"
    },
    {
      "anonymous": false,
      "inputs": [
        {
          "indexed": true,
          "internalType": "address",
          "name": "previousOwner",
          "type": "address"
        },
        {
          "indexed": true,
          "internalType": "address",
          "name": "newOwner",
          "type": "address"
        }
      ],
      "name": "OwnershipTransferred",
      "type": "event"
    },
    {
      "inputs": [
        {
          "components": [
            {
              "components": [
                {
                  "internalType": "address",
                  "name": "storageToken",
                  "type": "address"
                },
                {
                  "internalType": "uint256",
                  "name": "amountOutMin",
                  "type": "uint256"
                },
                {
                  "internalType": "uint256",
                  "name": "deadline",
                  "type": "uint256"
                }
              ],
              "internalType": "struct TimeLockRouter.TimelockETHSwapInputData",
              "name": "timelockETHSwap",
              "type": "tuple"
            },
            {
              "components": [
                {
                  "internalType": "address",
                  "name": "tokenAddress",
                  "type": "address"
                },
                {
                  "internalType": "uint256",
                  "name": "amount",
                  "type": "uint256"
                }
              ],
              "internalType": "struct TimeLockRouter.TimelockERC20InputData[]",
              "name": "timelockERC20",
              "type": "tuple[]"
            },
            {
              "components": [
                {
                  "internalType": "address",
                  "name": "tokenAddress",
                  "type": "address"
                },
                {
                  "internalType": "uint256",
                  "name": "id",
                  "type": "uint256"
                }
              ],
              "internalType": "struct TimeLockRouter.TimelockERC721InputData[]",
              "name": "timelockERC721",
              "type": "tuple[]"
            },
            {
              "components": [
                {
                  "internalType": "address",
                  "name": "tokenAddress",
                  "type": "address"
                },
                {
                  "internalType": "uint256",
                  "name": "id",
                  "type": "uint256"
                },
                {
                  "internalType": "uint256",
                  "name": "amount",
                  "type": "uint256"
                }
              ],
              "internalType": "struct TimeLockRouter.TimelockERC1155InputData[]",
              "name": "timelockERC1155",
              "type": "tuple[]"
            },
            {
              "internalType": "uint256",
              "name": "bufferTime",
              "type": "uint256"
            },
            {
              "internalType": "string",
              "name": "name",
              "type": "string"
            }
          ],
          "internalType": "struct TimeLockRouter.TimelockSoft",
          "name": "timelockSoft",
          "type": "tuple"
        }
      ],
      "name": "createSoftTimelock",
      "outputs": [],
      "stateMutability": "payable",
      "type": "function"
    },
    {
      "inputs": [
        {
          "components": [
            {
              "components": [
                {
                  "internalType": "address",
                  "name": "storageToken",
                  "type": "address"
                },
                {
                  "internalType": "uint256",
                  "name": "amountOutMin",
                  "type": "uint256"
                },
                {
                  "internalType": "uint256",
                  "name": "deadline",
                  "type": "uint256"
                }
              ],
              "internalType": "struct TimeLockRouter.TimelockETHSwapInputData",
              "name": "timelockETHSwap",
              "type": "tuple"
            },
            {
              "components": [
                {
                  "internalType": "address",
                  "name": "tokenAddress",
                  "type": "address"
                },
                {
                  "internalType": "uint256",
                  "name": "amount",
                  "type": "uint256"
                }
              ],
              "internalType": "struct TimeLockRouter.TimelockERC20InputData[]",
              "name": "timelockERC20",
              "type": "tuple[]"
            },
            {
              "components": [
                {
                  "internalType": "address",
                  "name": "tokenAddress",
                  "type": "address"
                },
                {
                  "internalType": "uint256",
                  "name": "id",
                  "type": "uint256"
                }
              ],
              "internalType": "struct TimeLockRouter.TimelockERC721InputData[]",
              "name": "timelockERC721",
              "type": "tuple[]"
            },
            {
              "components": [
                {
                  "internalType": "address",
                  "name": "tokenAddress",
                  "type": "address"
                },
                {
                  "internalType": "uint256",
                  "name": "id",
                  "type": "uint256"
                },
                {
                  "internalType": "uint256",
                  "name": "amount",
                  "type": "uint256"
                }
              ],
              "internalType": "struct TimeLockRouter.TimelockERC1155InputData[]",
              "name": "timelockERC1155",
              "type": "tuple[]"
            },
            {
              "internalType": "uint256",
              "name": "duration",
              "type": "uint256"
            },
            {
              "internalType": "string",
              "name": "name",
              "type": "string"
            }
          ],
          "internalType": "struct TimeLockRouter.TimelockRegular",
          "name": "timelockRegular",
          "type": "tuple"
        }
      ],
      "name": "createTimelock",
      "outputs": [],
      "stateMutability": "payable",
      "type": "function"
    },
    {
      "inputs": [
        {
          "components": [
            {
              "components": [
                {
                  "internalType": "address",
                  "name": "storageToken",
                  "type": "address"
                },
                {
                  "internalType": "uint256",
                  "name": "amountOutMin",
                  "type": "uint256"
                },
                {
                  "internalType": "uint256",
                  "name": "deadline",
                  "type": "uint256"
                }
              ],
              "internalType": "struct TimeLockRouter.TimelockETHSwapInputData",
              "name": "timelockETHSwap",
              "type": "tuple"
            },
            {
              "components": [
                {
                  "internalType": "address",
                  "name": "tokenAddress",
                  "type": "address"
                },
                {
                  "internalType": "uint256",
                  "name": "amount",
                  "type": "uint256"
                }
              ],
              "internalType": "struct TimeLockRouter.TimelockERC20InputData[]",
              "name": "timelockERC20",
              "type": "tuple[]"
            },
            {
              "components": [
                {
                  "internalType": "address",
                  "name": "tokenAddress",
                  "type": "address"
                },
                {
                  "internalType": "uint256",
                  "name": "id",
                  "type": "uint256"
                }
              ],
              "internalType": "struct TimeLockRouter.TimelockERC721InputData[]",
              "name": "timelockERC721",
              "type": "tuple[]"
            },
            {
              "components": [
                {
                  "internalType": "address",
                  "name": "tokenAddress",
                  "type": "address"
                },
                {
                  "internalType": "uint256",
                  "name": "id",
                  "type": "uint256"
                },
                {
                  "internalType": "uint256",
                  "name": "amount",
                  "type": "uint256"
                }
              ],
              "internalType": "struct TimeLockRouter.TimelockERC1155InputData[]",
              "name": "timelockERC1155",
              "type": "tuple[]"
            },
            {
              "internalType": "uint256",
              "name": "duration",
              "type": "uint256"
            },
            {
              "internalType": "address",
              "name": "recipient",
              "type": "address"
            },
            {
              "internalType": "string",
              "name": "name",
              "type": "string"
            },
            {
              "internalType": "string",
              "name": "giftName",
              "type": "string"
            }
          ],
          "internalType": "struct TimeLockRouter.TimelockGift",
          "name": "timelockGift",
          "type": "tuple"
        }
      ],
      "name": "createTimelockedGift",
      "outputs": [],
      "stateMutability": "payable",
      "type": "function"
    },
    {
      "inputs": [
        {
          "internalType": "uint256",
          "name": "ethAmountWei",
          "type": "uint256"
        },
        {
          "internalType": "address",
          "name": "storageToken",
          "type": "address"
        }
      ],
      "name": "getEthToTokenAmountOut",
      "outputs": [
        {
          "internalType": "uint256",
          "name": "",
          "type": "uint256"
        }
      ],
      "stateMutability": "view",
      "type": "function"
    },
    {
      "inputs": [
        {
          "internalType": "uint256",
          "name": "id",
          "type": "uint256"
        }
      ],
      "name": "getStatusOwner",
      "outputs": [
        {
          "internalType": "enum TimelockHelper.LockStatus",
          "name": "",
          "type": "uint8"
        },
        {
          "internalType": "address",
          "name": "",
          "type": "address"
        }
      ],
      "stateMutability": "view",
      "type": "function"
    },
    {
      "inputs": [
        {
          "internalType": "uint256",
          "name": "tokenAmount",
          "type": "uint256"
        },
        {
          "internalType": "address",
          "name": "storageToken",
          "type": "address"
        }
      ],
      "name": "getTokenToEthAmountOut",
      "outputs": [
        {
          "internalType": "uint256",
          "name": "",
          "type": "uint256"
        }
      ],
      "stateMutability": "view",
      "type": "function"
    },
    {
      "inputs": [
        {
          "internalType": "address",
          "name": "initialOwner",
          "type": "address"
        }
      ],
      "name": "initialize",
      "outputs": [],
      "stateMutability": "nonpayable",
      "type": "function"
    },
    {
      "inputs": [],
      "name": "owner",
      "outputs": [
        {
          "internalType": "address",
          "name": "",
          "type": "address"
        }
      ],
      "stateMutability": "view",
      "type": "function"
    },
    {
      "inputs": [],
      "name": "renounceOwnership",
      "outputs": [],
      "stateMutability": "nonpayable",
      "type": "function"
    },
    {
      "inputs": [
        {
          "internalType": "address payable",
          "name": "_timelockERC20",
          "type": "address"
        },
        {
          "internalType": "address payable",
          "name": "_timelockERC721",
          "type": "address"
        },
        {
          "internalType": "address payable",
          "name": "_timelockERC1155",
          "type": "address"
        }
      ],
      "name": "setTimelock",
      "outputs": [],
      "stateMutability": "nonpayable",
      "type": "function"
    },
    {
      "inputs": [
        {
          "internalType": "address",
          "name": "_tokenWhitelist",
          "type": "address"
        }
      ],
      "name": "setTokenWhitelist",
      "outputs": [],
      "stateMutability": "nonpayable",
      "type": "function"
    },
    {
      "inputs": [
        {
          "internalType": "address",
          "name": "_uniswapRouter",
          "type": "address"
        }
      ],
      "name": "setUniswapRouter",
      "outputs": [],
      "stateMutability": "nonpayable",
      "type": "function"
    },
    {
      "inputs": [],
      "name": "timelockCounter",
      "outputs": [
        {
          "internalType": "uint256",
          "name": "",
          "type": "uint256"
        }
      ],
      "stateMutability": "view",
      "type": "function"
    },
    {
      "inputs": [],
      "name": "timelockERC1155Contract",
      "outputs": [
        {
          "internalType": "contract TimelockERC1155",
          "name": "",
          "type": "address"
        }
      ],
      "stateMutability": "view",
      "type": "function"
    },
    {
      "inputs": [],
      "name": "timelockERC20Contract",
      "outputs": [
        {
          "internalType": "contract TimelockERC20",
          "name": "",
          "type": "address"
        }
      ],
      "stateMutability": "view",
      "type": "function"
    },
    {
      "inputs": [],
      "name": "timelockERC721Contract",
      "outputs": [
        {
          "internalType": "contract TimelockERC721",
          "name": "",
          "type": "address"
        }
      ],
      "stateMutability": "view",
      "type": "function"
    },
    {
      "inputs": [],
      "name": "tokenWhitelist",
      "outputs": [
        {
          "internalType": "contract ITokenWhiteList",
          "name": "",
          "type": "address"
        }
      ],
      "stateMutability": "view",
      "type": "function"
    },
    {
      "inputs": [
        {
          "internalType": "address",
          "name": "newOwner",
          "type": "address"
        }
      ],
      "name": "transferOwnership",
      "outputs": [],
      "stateMutability": "nonpayable",
      "type": "function"
    },
    {
      "inputs": [],
      "name": "uniswapRouter",
      "outputs": [
        {
          "internalType": "contract IUniswapV2Router02",
          "name": "",
          "type": "address"
        }
      ],
      "stateMutability": "view",
      "type": "function"
    },
    {
      "inputs": [
        {
          "internalType": "uint256",
          "name": "id",
          "type": "uint256"
        }
      ],
      "name": "unlockSoftTimelock",
      "outputs": [],
      "stateMutability": "nonpayable",
      "type": "function"
    },
    {
      "inputs": [
        {
          "internalType": "uint256",
          "name": "id",
          "type": "uint256"
        }
      ],
      "name": "withdraw",
      "outputs": [],
      "stateMutability": "nonpayable",
      "type": "function"
    },
    {
      "inputs": [
        {
          "internalType": "uint256",
          "name": "id",
          "type": "uint256"
        },
        {
          "internalType": "bool",
          "name": "skipSwap",
          "type": "bool"
        }
      ],
      "name": "withdraw",
      "outputs": [],
      "stateMutability": "nonpayable",
      "type": "function"
    },
    {
      "stateMutability": "payable",
      "type": "receive"
    }
  ],
  "transactionHash": "0x4e72d303a96db87627472620a077110601217474a19ba2357efcf182b563d988",
  "args": [],
  "numDeployments": 1,
  "solcInputHash": "0ede43310c6b3aae7d1343a5438b373c",
  "bytecode": "0x60808060405234610016576129c0908161001c8239f35b600080fdfe608080604052600436101561001d575b50361561001b57600080fd5b005b60009060e08235811c918263073d77b9146113d55750816314b1c6cf14610ed95781632e1a7d4d14610de2578163460fe45f14610dbb578163527b22db14610d7b5781636106abda14610a5f578163715018a6146109f4578163735de9f7146109cb5781638816b1dd14610715575080638da5cb5b146106df578063a80d4b6c146106b8578063ae6843571461058e578063bdae56bb14610565578063bea9849e14610525578063c4d66de8146103f6578063c4e14b5f146103c7578063ca735cc11461039e578063ebc980b814610380578063ecc05e021461030f578063f168c0cc1461013e5763f2fde38b0361000f573461013b57602036600319011261013b5761013861012b6113fe565b61013361145c565b611495565b80f35b80fd5b503461013b57602036600319011261013b5760043560018060a01b0380835416604051938491604083632e31150760e11b9283825287600483015260249889915afa9485156102ca57829383966102e8575b508684969460048110156102d55715610271575b50600486101561025e5785156101e8575b5050506040519260048110156101d357604094508352166020820152f35b84634e487b7160e01b60005260216004526000fd5b90925060409194508584600254169383519485938492835260048301525afa90811561025357839161021e575b503880806101b5565b905061024391925060403d60401161024c575b61023b81836115a9565b8101906119e9565b91909138610215565b503d610231565b6040513d85823e3d90fd5b634e487b7160e01b835260216004528683fd5b93509450604084600154168151948580928582528960048301525afa80156102ca57829383916102a5575b509294866101a4565b90506102c191935060403d60401161024c5761023b81836115a9565b9290923861029c565b6040513d84823e3d90fd5b50634e487b7160e01b8452602160045283fd5b90955061030591935060403d60401161024c5761023b81836115a9565b9290929438610190565b503461013b57606036600319011261013b576103296113fe565b610331611414565b6001600160a01b0360443581811693929084900361037b5761035161145c565b816001600160601b0360a01b93168386541617855516816001541617600155600254161760025580f35b600080fd5b503461013b578060031936011261013b576020600554604051908152f35b503461013b578060031936011261013b576003546040516001600160a01b039091168152602090f35b503461013b57604036600319011261013b5760206103ee6103e6611414565b600435611878565b604051908152f35b503461013b57602036600319011261013b576104106113fe565b7ff0c57e16840df040f15088dc2f81fe391c3923bec73e23a9662efc9c229c6a0090815460ff8160401c1615916001600160401b0382168015908161051d575b6001149081610513575b15908161050a575b506104f85767ffffffffffffffff198216600117845561049391836104d9575b5061048b611509565b610133611509565b61049b575080f35b68ff00000000000000001981541690557fc7f505b2f371ae2175ee4913f4499e1f2633a7b5936321eed1cdaeb6115181d2602060405160018152a180f35b68ffffffffffffffffff19166801000000000000000117845538610482565b60405163f92ee8a960e01b8152600490fd5b90501538610462565b303b15915061045a565b849150610450565b503461013b57602036600319011261013b5761053f6113fe565b61054761145c565b60018060a01b03166001600160601b0360a01b600454161760045580f35b503461013b578060031936011261013b576002546040516001600160a01b039091168152602090f35b503461013b57602036600319011261013b5780548190600435906001600160a01b0390811690813b1561067c57604051630fdfd65360e41b808252600482018590523360248301529285908290604490829084905af19081156106955785916106a4575b50508060015416803b156106a057604051838152600481018590523360248201529085908290604490829084905af1908115610695578591610681575b50506002541691823b1561067c5760405191825260048201523360248201529082908290818381604481015b03925af180156102ca5761066c5750f35b6106759061154a565b61013b5780f35b505050fd5b61068a9061154a565b61067c57833861062f565b6040513d87823e3d90fd5b8480fd5b6106ad9061154a565b61067c5783386105f2565b503461013b57604036600319011261013b5760206103ee6106d7611414565b600435611724565b503461013b578060031936011261013b5760008051602061296b833981519152546040516001600160a01b039091168152602090f35b90506107203661142a565b9060c08201359081156109b957341515806109a0575b61098e578392610747600554611928565b8060055560608201610759818461194d565b1580159150610974575b6108ea575b505060808101610778818361194d565b9050610841575b5060a081019161078f83836119b4565b9050610799578480f35b6107bf6107b76107ac60055495856119b4565b949093810190611982565b9390926126c1565b9390916107cd8584836127ef565b6107d8858483612744565b6002546001600160a01b031693843b1561083d5788968793610813926040519a8b998a988997632c0aae6160e11b8952339660048a0161264e565b03925af180156102ca57610829575b8080808480f35b6108329061154a565b61013b578038610822565b8880fd5b61084e600554918361194d565b61086861086086869594950186611982565b92909461236f565b610874818395936124e6565b61087e8185612439565b6001546001600160a01b031691823b156108e65789946108ba86928b96604051998a988997889663167f549560e31b88523395600489016123da565b03925af19081156106955785916108d2575b5061077f565b6108db9061154a565b61067c5783386108cc565b8980fd5b6108f4908361194d565b909161090e61090586860186611982565b93909486611acd565b9260018060a01b038a541692833b156109705761094a8a958c979388946040519a8b998a98899763283695a160e21b8952339560048a01611a65565b03925af190811561069557859115610768576109659061154a565b61067c578338610768565b8a80fd5b506001600160a01b0361098684611914565b161515610763565b6040516366c92c9d60e11b8152600490fd5b506001600160a01b036109b284611914565b1615610736565b60405163346ab43760e11b8152600490fd5b823461013b578060031936011261013b576004546040516001600160a01b039091168152602090f35b823461013b578060031936011261013b57610a0d61145c565b60008051602061296b83398151915280546001600160a01b031981169091556000906001600160a01b03167f8be0079c531659141344cd1fd0a4f28419497f9722a3daafe3b4186f6b6457e08280a380f35b82610a693661142a565b60c0810135908115610d695734151580610d50575b61098e57610a8d600554611928565b8060055560608201610a9f818461194d565b1580159150610d36575b610cb2575b505060808101610abe818361194d565b9050610bff575b5060a0810190610ad582826119b4565b9050610adf578380f35b610afa610aef60055493836119b4565b929096810190611982565b91610b0581886126c1565b9491989092885b818110610b925750505087610b2385848a9b6127ef565b610b2e858483612744565b6002546001600160a01b031693843b1561083d5788968793610b69926040519a8b998a988997636893883d60e11b8952339660048a0161264e565b03925af180156102ca57610b7e575b80808380f35b610b879061154a565b61013b578082610b78565b808b610bb482610bae610ba9610bfa96888a6126b1565b611914565b9261165a565b6001600160a01b0390911690526020610bce8285876126b1565b0135610bda828861165a565b526040610be88285876126b1565b0135610bf4828a61165a565b52611928565b610b0c565b610c0c600554918361194d565b9091610c25610c1d88860186611982565b93909461236f565b91610c3083836124e6565b610c3a8383612439565b6001546001600160a01b031693843b1561083d57889492610c778995938793604051998a988997889662c5ae3760e31b88523395600489016123da565b03925af18015610ca757908491610c8f575b50610ac5565b610c989061154a565b610ca3578285610c89565b8280fd5b6040513d86823e3d90fd5b610cbc908361194d565b9091610ccd61090588860186611982565b88546001600160a01b03169491939091853b156108e65792610d108995938b97959388946040519a8b998a988997635e6d1eef60e01b8952339560048a01611a65565b03925af18015610ca75790849115610aae57610d2b9061154a565b610ca3578285610aae565b506001600160a01b03610d4884611914565b161515610aa9565b506001600160a01b03610d6282611914565b1615610a7e565b60405163e5e5346b60e01b8152600490fd5b823461013b57602036600319011261013b57610d956113fe565b610d9d61145c565b60018060a01b03166001600160601b0360a01b600354161760035580f35b823461013b578060031936011261013b57546040516001600160a01b039091168152602090f35b823461013b57602036600319011261013b5780548190600435906001600160a01b0390811690813b1561067c57604051627b8a6760e11b808252600482018590523360248301529285908290604490829084905af1908115610695578591610ec5575b50508060015416803b156106a057604051838152600481018590523360248201529085908290604490829084905af1908115610695578591610eb15750506002541691823b1561067c57604051918252600482015233602482015290829082908183816044810161065b565b610eba9061154a565b61067c57838661062f565b610ece9061154a565b61067c578386610e45565b82602036600319011261013b576001600160401b036004351161013b576101406004353603600319011261013b5760c46004350135156109b9576001600160a01b03610f2960043560e401611914565b16156113c357341515806113a6575b61098e57610f47600554611928565b8060055581606460043501610f618160043560040161194d565b1580159150611388575b611242575b509050608460043501610f888160043560040161194d565b90506110fe575b5060a460043501610fa5816004356004016119b4565b9050610fae5750f35b610fc0600554916004356004016119b4565b610fce60e460043501611914565b91610fe461010460043501600435600401611982565b611007610fff61012460049594953501600435600401611982565b9590936126c1565b97919390956110178988876127ef565b611022898887612744565b6002546001600160a01b031695863b15610970578a9889956040519b8c9a8b998a98633489908d60e01b8a5260048a0152602489016101409052610144890161106a916116e7565b8881036003190160448a015261107f91611a10565b87810360031901606489015261109491611a10565b60c460043581013560848901526001600160a01b0390931660a488015286810360031901928701929092526110c892611a44565b906003198483030160e48501526110de92611a44565b33610104830152600261012483015203925af180156102ca5761066c5750f35b6111106005549160043560040161194d565b9061111f60e460043501611914565b9061113561010460043501600435600401611982565b909261115761114f61012460043501600435600401611982565b96909461236f565b96909261116488856124e6565b61116e8885612439565b6001546001600160a01b031694853b156108e65789976111ff8995611211946111c09a6111d26040519e8f9d8e9c8d9b6312d01b0960e01b8d5260048d015261012060248d01526101248c01906116e7565b8a81036003190160448c015290611a10565b60043560c4013560648a01526001600160a01b0390931660848901528783036003190160a4890152611a44565b8481036003190160c486015291611a44565b3360e4830152600261010483015203925af180156102ca5715610f8f576112379061154a565b61013b578082610f8f565b6112519060043560040161194d565b909261126160e460043501611914565b9361127761010460043501600435600401611982565b9590926112a061129261012460043501600435600401611982565b969094600435600401611acd565b9194909660018060a01b0389541696873b156108e65789956040519b8c9a8b998a98630186416760e41b8a5260048a015260248901610140905261014489016112e8916116e7565b8881036003190160448a01526112fd91611a10565b60c4600435013560648901526001600160a01b0390921660848801528682036003190160a488015261132e92611a44565b906003198583030160c486015261134492611a44565b3360e484015260026101048401526001600160a01b0390911661012483015203925af180156102ca57611379575b8181610f70565b6113829061154a565b81611372565b506001600160a01b0361139e6004803501611914565b161515610f6b565b506001600160a01b036113bc6004803501611914565b1615610f38565b604051634e46966960e11b8152600490fd5b8390346113fa57816003193601126113fa576001546001600160a01b03168152602090f35b5080fd5b600435906001600160a01b038216820361037b57565b602435906001600160a01b038216820361037b57565b6003199060208183011261037b57600435916001600160401b03831161037b57826101009203011261037b5760040190565b60008051602061296b833981519152546001600160a01b0316330361147d57565b60405163118cdaa760e01b8152336004820152602490fd5b6001600160a01b039081169081156114f05760008051602061296b83398151915280546001600160a01b031981168417909155167f8be0079c531659141344cd1fd0a4f28419497f9722a3daafe3b4186f6b6457e0600080a3565b604051631e4fbdf760e01b815260006004820152602490fd5b60ff7ff0c57e16840df040f15088dc2f81fe391c3923bec73e23a9662efc9c229c6a005460401c161561153857565b604051631afcd79f60e31b8152600490fd5b6001600160401b03811161155d57604052565b634e487b7160e01b600052604160045260246000fd5b606081019081106001600160401b0382111761155d57604052565b604081019081106001600160401b0382111761155d57604052565b90601f801991011681019081106001600160401b0382111761155d57604052565b51906001600160a01b038216820361037b57565b6001600160401b03811161155d5760051b60200190565b906115ff826115de565b61160c60405191826115a9565b828152809261161d601f19916115de565b0190602036910137565b8051156116345760200190565b634e487b7160e01b600052603260045260246000fd5b8051600110156116345760400190565b80518210156116345760209160051b010190565b602090818184031261037b578051906001600160401b03821161037b57019180601f8401121561037b5782516116a3816115de565b936116b160405195866115a9565b818552838086019260051b82010192831161037b578301905b8282106116d8575050505090565b815181529083019083016116ca565b90815180825260208080930193019160005b828110611707575050505090565b83516001600160a01b0316855293810193928101926001016116f9565b6004546001600160a01b039392919084169081156118665760409485516315ab88c960e31b8152602081600481875afa801561185b578291600091611820575b5016931683811461181957916117ca939160009387519361178485611573565b600285528836602087013761179885611627565b526117a28461164a565b52865180958194829363d06ca61f60e01b8452600484015289602484015260448301906116e7565b03915afa90811561180e576117e99293506000916117ed575b5061164a565b5190565b611808913d8091833e61180081836115a9565b81019061166e565b386117e3565b83513d6000823e3d90fd5b5093505050565b91506020823d8211611853575b8161183a602093836115a9565b8101031261013b575061184d82916115ca565b38611764565b3d915061182d565b87513d6000823e3d90fd5b604051630f107fdb60e31b8152600490fd5b6004546001600160a01b039392919084169081156118665760409485516315ab88c960e31b8152602081600481875afa801561185b5782916000916118d9575b501693169280841461181957916117ca939160009387519361178485611573565b91506020823d821161190c575b816118f3602093836115a9565b8101031261013b575061190682916115ca565b386118b8565b3d91506118e6565b356001600160a01b038116810361037b5790565b60001981146119375760010190565b634e487b7160e01b600052601160045260246000fd5b903590601e198136030182121561037b57018035906001600160401b03821161037b57602001918160061b3603831361037b57565b903590601e198136030182121561037b57018035906001600160401b03821161037b5760200191813603831361037b57565b903590601e198136030182121561037b57018035906001600160401b03821161037b5760200191606082023603831361037b57565b919082604091031261037b578151600481101561037b576020611a0d9193016115ca565b90565b90815180825260208080930193019160005b828110611a30575050505090565b835185529381019392810192600101611a22565b908060209392818452848401376000828201840152601f01601f1916010190565b969490611aaf9493611a8e60e09894611a9c939c9b9c8b526101008060208d01528b01906116e7565b9089820360408b0152611a10565b9260608801528683036080880152611a44565b6001600160a01b0391821660a0850152600260c08501529416910152565b9091906001600160a01b039081611ae382611914565b16611aff5750503461098e57611af89161204f565b9091600090565b611b0b90949294611c24565b9490938115611bb55790611b1e9161204f565b9490805192600180850180951161193757611b41611b3b866115f5565b956115f5565b976000825b611b70575b50505090611b6a91611b5e82518661165a565b9087169052518661165a565b52929190565b8451811015611bb0578084611b88611baa938861165a565b5116611b94828a61165a565b52611b9f818461165a565b51610bf4828d61165a565b82611b46565b611b4b565b50509260405190611bc58261158e565b600182526020368184013760405194611bdd8661158e565b6001865260203681880137611bf183611627565b9085169052611b6a85611627565b9081602091031261037b5751801515810361037b5790565b9190820391821161193757565b600480549192916000906001600160a01b039081168015611fd65781600354168015159081611f69575b50611f58576040928387013594428610611f4a573415611f4a57845180936315ab88c960e31b8252818360209687935afa908115611f40579085918491611f08575b50611c9a8a611914565b81831692168214611e605750855190611cb282611573565b60028252863686840137611cc582611627565b52611ccf89611914565b85611cd98361164a565b9116905284611ce78a611914565b16908584541697875198868a6024816370a0823160e01b97888252858a8301525afa998a15611e5657869a611e27575b508785541691823b15611e235791878d611d58959389958d519788968795869563b6f9de9560e01b875201358c8601526080602486015260848501906116e7565b9160448401526064830152039134905af18015611e1957859392918591611dfe575b505060249086611d898c611914565b1696855416968851978894859384528301525afa938415611df4575092611dc4575b5050611dc091611dba91611c17565b92611914565b9190565b90809250813d8311611ded575b611ddb81836115a9565b8101031261037b575181611dba611dab565b503d611dd1565b51903d90823e3d90fd5b611e0b919293945061154a565b610ca3579083918338611d7a565b87513d86823e3d90fd5b8680fd5b9099508681813d8311611e4f575b611e3f81836115a9565b8101031261037b57519838611d17565b503d611e35565b89513d88823e3d90fd5b96508094929198509492943b1561013b578251630d0e30db60e41b815281818a8134895af18015611efe57611eef575b50541681519363a9059cbb60e01b9085015260248401523460448401526044835260808301908382106001600160401b03831117611eda57611ed59495965052611fe7565b903490565b604187634e487b7160e01b6000525260246000fd5b611ef89061154a565b38611e90565b84513d84823e3d90fd5b809250858092503d8311611f39575b611f2181836115a9565b81010312610ca357611f3385916115ca565b38611c90565b503d611f17565b86513d85823e3d90fd5b845163c64276b960e01b8152fd5b6040516307c241ad60e51b81528490fd5b90506020836024611f798a611914565b6040519485938492633af32abf60e01b8452168a8301525afa908115610ca7578491611fa8575b501538611c4e565b611fc9915060203d8111611fcf575b611fc181836115a9565b810190611bff565b38611fa0565b503d611fb7565b604051630f107fdb60e31b81528490fd5b906000602091828151910182855af115612043576000513d61203a57506001600160a01b0381163b155b6120185750565b604051635274afe760e01b81526001600160a01b039091166004820152602490fd5b60011415612011565b6040513d6000823e3d90fd5b906120599161236f565b8182518015908115612353575b506123415760005b83518110156120e757612081818461165a565b51156120d55773eeeeeeeeeeeeeeeeeeeeeeeeeeeeeeeeeeeeeeee6001600160a01b036120ae838761165a565b5116146120c3576120be90611928565b61206e565b604051630798fe3f60e21b8152600490fd5b604051632160733960e01b8152600490fd5b50919260005b845181101561217057600180820180831161193757815b612119575b505061211490611928565b6120ed565b865181101561216b576001600160a01b0380612135858a61165a565b511690612142838a61165a565b511614612159576121538291611928565b90612104565b604051630254983f60e41b8152600490fd5b612109565b509190924761232f574761232f5761218881516115f5565b9160005b8251811015612328576001600160a01b03806121a8838661165a565b5116908060005416906040918251938480926370a0823160e01b908183526004938185850152602095869160249586915afa97881561185b57898f918d9060009b6122e4575b5091612254612212838b61220a8c9b9a9998966122599861165a565b51169361165a565b518b516323b872dd60e01b8a820152338882019081526001600160a01b039095166020860152604085019190915292839060600103601f1981018452836115a9565b611fe7565b856122648a8d61165a565b51169560005416958751968794859384528301525afa9283156122da57506000926122a9575b50506122a4929161229a91611c17565b610bf4828761165a565b61218c565b81819392933d83116122d3575b6122c081836115a9565b8101031261013b5750518161229a61228a565b503d6122b6565b513d6000823e3d90fd5b939495969780999a9b93508092508491503d8311612321575b61230781836115a9565b8101031261013b575051969594939291908d898c816121ee565b503d6122fd565b5093505090565b6040516332201f6960e11b8152600490fd5b6040516373d4509160e11b8152600490fd5b90508251141538612066565b91908110156116345760061b0190565b91612379826115f5565b92612383836115f5565b9260005b81811061239357505050565b806123a5610ba96123d593858761235f565b6123af828961165a565b6001600160a01b03909116905260206123c982858761235f565b0135610bf4828861165a565b612387565b9391946124126124259461240460c09860029a959c9b9c895260e060208a015260e08901906116e7565b908782036040890152611a10565b9260608601528483036080860152611a44565b6001600160a01b0390951660a08201520152565b91909160005b81518110156124e0576001600160a01b038061245b838561165a565b5116906001541661246c838761165a565b5191803b1561037b5760408051632142170760e11b81523360048201526001600160a01b0393909316602484015260448301939093529091906000908390606490829084905af19081156122da5750906124cc92916124d1575b50611928565b61243f565b6124da9061154a565b386124c6565b50509050565b91909180518015908115612642575b506123415760005b81518110156124e0576001600160a01b0380612519838561165a565b51169060408051916301ffc9a760e01b835282806004956380ac58cd60e01b87830152602092839160249788915afa9182156126375760009261261a575b50501561260a57600192838601908187116125f75750835b612587575b505050505061258290611928565b6124fd565b86518110156125f2578161259b878961165a565b5116826125a8838a61165a565b511614806125d5575b6125c5576125bf8491611928565b9061256f565b8251635b00df1b60e11b81528590fd5b506125e0868a61165a565b516125eb828b61165a565b51146125b1565b612574565b634e487b7160e01b600090815260118752fd5b815163a1e9dd9d60e01b81528490fd5b6126309250803d10611fcf57611fc181836115a9565b3880612557565b84513d6000823e3d90fd5b905083511415386124f5565b949261269d9461267c61268a92611a8e60029b9660e09b969e9d9e8b526101008060208d01528b01906116e7565b908782036060890152611a10565b92608086015284830360a0860152611a44565b6001600160a01b0390951660c08201520152565b9190811015611634576060020190565b906126cb816115f5565b926126d5826115f5565b926126df836115f5565b9260005b8181106126ef57505050565b80612701610ba961273f9385876126b1565b61270b828a61165a565b6001600160a01b03909116905260206127258285876126b1565b0135612731828961165a565b5260406123c98285876126b1565b6126e3565b92919060005b84518110156127e8576001600160a01b0380612766838861165a565b5116906002541690612778838561165a565b5191612784848761165a565b5192823b1561037b5760c46000928360409586519788958694637921219560e11b865233600487015260248601526044850152606484015260a060848401528160a48401525af19081156122da5750906127e392916124d15750611928565b61274a565b5050509050565b928351801590811561295e575b508015612952575b6123415760005b83518110156128445761281e818561165a565b51156128325761282d90611928565b61280b565b604051631f2a200560e01b8152600490fd5b5091509160005b81518110156124e0576001600160a01b0380612867838561165a565b51169060408051916301ffc9a760e01b83528280600495636cdb3d1360e11b87830152602092839160249788915afa91821561263757600092612935575b50501561260a57600192838601908187116125f75750835b6128d5575b50505050506128d090611928565b61284b565b865181101561293057816128e9878961165a565b5116826128f6838a61165a565b51161480612913575b6125c55761290d8491611928565b906128bd565b5061291e868a61165a565b51612929828b61165a565b51146128ff565b6128c2565b61294b9250803d10611fcf57611fc181836115a9565b38806128a5565b50815183511415612804565b905082511415386127fc56fe9016d09d72d40fdae2fd8ceac6b6234c7706214fd39c1cd1e609a0528c199300a26469706673582212205213dccb71334b0669a11e169a1748f75d2f99fb3f3d4bcc00f2e071c7c937ab64736f6c63430008140033",
  "devdoc": {
    "errors": {
      "InvalidInitialization()": [
        {
          "details": "The contract is already initialized."
        }
      ],
      "NotInitializing()": [
        {
          "details": "The contract is not initializing."
        }
      ],
      "OwnableInvalidOwner(address)": [
        {
          "details": "The owner is not a valid owner account. (eg. `address(0)`)"
        }
      ],
      "OwnableUnauthorizedAccount(address)": [
        {
          "details": "The caller account is not authorized to perform an operation."
        }
      ],
      "SafeERC20FailedOperation(address)": [
        {
          "details": "An operation with an ERC-20 token failed."
        }
      ]
    },
    "events": {
      "Initialized(uint64)": {
        "details": "Triggered when the contract has been initialized or reinitialized."
      }
    },
    "kind": "dev",
    "methods": {
      "getEthToTokenAmountOut(uint256,address)": {
        "params": {
          "ethAmountWei": "Amount of ETH in wei (e.g. msg.value).",
          "outputToken": "The ERC-20 token address to receive."
        },
        "returns": {
          "_0": "Expected amount of outputToken (in its smallest units) for the given ETH."
        }
      },
      "getTokenToEthAmountOut(uint256,address)": {
        "params": {
          "token": "The ERC-20 token address to swap.",
          "tokenAmount": "Amount of token (in its smallest units)."
        },
        "returns": {
          "_0": "Expected amount of ETH in wei received for the given token amount."
        }
      },
      "owner()": {
        "details": "Returns the address of the current owner."
      },
      "renounceOwnership()": {
        "details": "Leaves the contract without owner. It will not be possible to call `onlyOwner` functions. Can only be called by the current owner. NOTE: Renouncing ownership will leave the contract without an owner, thereby disabling any functionality that is only available to the owner."
      },
      "transferOwnership(address)": {
        "details": "Transfers ownership of the contract to a new account (`newOwner`). Can only be called by the current owner."
      }
    },
    "version": 1
  },
  "userdoc": {
    "kind": "user",
    "methods": {},
    "version": 1
  },
  "storageLayout": {
    "storage": [
      {
        "astId": 4653,
        "contract": "contracts/timelock/TimeLockRouter.sol:TimeLockRouter",
        "label": "timelockERC20Contract",
        "offset": 0,
        "slot": "0",
        "type": "t_contract(TimelockERC20)3820"
      },
      {
        "astId": 4656,
        "contract": "contracts/timelock/TimeLockRouter.sol:TimeLockRouter",
        "label": "timelockERC721Contract",
        "offset": 0,
        "slot": "1",
        "type": "t_contract(TimelockERC721)4528"
      },
      {
        "astId": 4659,
        "contract": "contracts/timelock/TimeLockRouter.sol:TimeLockRouter",
        "label": "timelockERC1155Contract",
        "offset": 0,
        "slot": "2",
        "type": "t_contract(TimelockERC1155)2929"
      },
      {
        "astId": 4662,
        "contract": "contracts/timelock/TimeLockRouter.sol:TimeLockRouter",
        "label": "tokenWhitelist",
        "offset": 0,
        "slot": "3",
        "type": "t_contract(ITokenWhiteList)1788"
      },
      {
        "astId": 4665,
        "contract": "contracts/timelock/TimeLockRouter.sol:TimeLockRouter",
        "label": "uniswapRouter",
        "offset": 0,
        "slot": "4",
        "type": "t_contract(IUniswapV2Router02)2185"
      },
      {
        "astId": 4667,
        "contract": "contracts/timelock/TimeLockRouter.sol:TimeLockRouter",
        "label": "timelockCounter",
        "offset": 0,
        "slot": "5",
        "type": "t_uint256"
      }
    ],
    "types": {
      "t_contract(ITokenWhiteList)1788": {
        "encoding": "inplace",
        "label": "contract ITokenWhiteList",
        "numberOfBytes": "20"
      },
      "t_contract(IUniswapV2Router02)2185": {
        "encoding": "inplace",
        "label": "contract IUniswapV2Router02",
        "numberOfBytes": "20"
      },
      "t_contract(TimelockERC1155)2929": {
        "encoding": "inplace",
        "label": "contract TimelockERC1155",
        "numberOfBytes": "20"
      },
      "t_contract(TimelockERC20)3820": {
        "encoding": "inplace",
        "label": "contract TimelockERC20",
        "numberOfBytes": "20"
      },
      "t_contract(TimelockERC721)4528": {
        "encoding": "inplace",
        "label": "contract TimelockERC721",
        "numberOfBytes": "20"
      },
      "t_uint256": {
        "encoding": "inplace",
        "label": "uint256",
        "numberOfBytes": "32"
      }
    }
  }
}