{
  "address": "0x631EEDB546502f288Db456C90815c1C4cCE15230",
  "abi": [
    {
      "inputs": [],
      "name": "AlreadyUnlocked",
      "type": "error"
    },
    {
      "inputs": [],
      "name": "InvalidInitialization",
      "type": "error"
    },
    {
      "inputs": [],
      "name": "NoFundsToWithdraw",
      "type": "error"
    },
    {
      "inputs": [],
      "name": "NotAuthorized",
      "type": "error"
    },
    {
      "inputs": [],
      "name": "NotInitializing",
      "type": "error"
    },
    {
      "inputs": [],
      "name": "NotOwner",
      "type": "error"
    },
    {
      "inputs": [],
      "name": "NotSoftTimelock",
      "type": "error"
    },
    {
      "inputs": [
        {
          "internalType": "address",
          "name": "owner",
          "type": "address"
        }
      ],
      "name": "OwnableInvalidOwner",
      "type": "error"
    },
    {
      "inputs": [
        {
          "internalType": "address",
          "name": "account",
          "type": "address"
        }
      ],
      "name": "OwnableUnauthorizedAccount",
      "type": "error"
    },
    {
      "inputs": [],
      "name": "ReentrancyGuardReentrantCall",
      "type": "error"
    },
    {
      "inputs": [],
      "name": "StillLocked",
      "type": "error"
    },
    {
      "inputs": [],
      "name": "TimelockNotLive",
      "type": "error"
    },
    {
      "anonymous": false,
      "inputs": [
        {
          "indexed": true,
          "internalType": "uint256",
          "name": "timelockId",
          "type": "uint256"
        },
        {
          "indexed": false,
          "internalType": "enum TimelockHelper.LockStatus",
          "name": "newStatus",
          "type": "uint8"
        }
      ],
      "name": "ChangeStatus",
      "type": "event"
    },
    {
      "anonymous": false,
      "inputs": [
        {
          "indexed": true,
          "internalType": "uint256",
          "name": "timelockId",
          "type": "uint256"
        },
        {
          "indexed": true,
          "internalType": "address",
          "name": "recipient",
          "type": "address"
        }
      ],
      "name": "FundsWithdrawn",
      "type": "event"
    },
    {
      "anonymous": false,
      "inputs": [
        {
          "indexed": false,
          "internalType": "uint64",
          "name": "version",
          "type": "uint64"
        }
      ],
      "name": "Initialized",
      "type": "event"
    },
    {
      "anonymous": false,
      "inputs": [
        {
          "indexed": true,
          "internalType": "address",
          "name": "previousOwner",
          "type": "address"
        },
        {
          "indexed": true,
          "internalType": "address",
          "name": "newOwner",
          "type": "address"
        }
      ],
      "name": "OwnershipTransferred",
      "type": "event"
    },
    {
      "anonymous": false,
      "inputs": [
        {
          "indexed": true,
          "internalType": "uint256",
          "name": "timelockId",
          "type": "uint256"
        },
        {
          "indexed": false,
          "internalType": "uint256",
          "name": "newUnlockTime",
          "type": "uint256"
        }
      ],
      "name": "SoftTimelockUnlocked",
      "type": "event"
    },
    {
      "anonymous": false,
      "inputs": [
        {
          "indexed": true,
          "internalType": "uint256",
          "name": "timelockId",
          "type": "uint256"
        },
        {
          "indexed": true,
          "internalType": "address",
          "name": "owner",
          "type": "address"
        },
        {
          "indexed": true,
          "internalType": "address",
          "name": "recipient",
          "type": "address"
        },
        {
          "indexed": false,
          "internalType": "address[]",
          "name": "tokenAddresses",
          "type": "address[]"
        },
        {
          "indexed": false,
          "internalType": "uint256[]",
          "name": "tokenIds",
          "type": "uint256[]"
        },
        {
          "indexed": false,
          "internalType": "uint256[]",
          "name": "amounts",
          "type": "uint256[]"
        },
        {
          "indexed": false,
          "internalType": "uint256",
          "name": "unlockTime",
          "type": "uint256"
        },
        {
          "indexed": false,
          "internalType": "uint256",
          "name": "bufferTime",
          "type": "uint256"
        },
        {
          "indexed": false,
          "internalType": "enum TimelockHelper.LockType",
          "name": "lockType",
          "type": "uint8"
        },
        {
          "indexed": false,
          "internalType": "string",
          "name": "name",
          "type": "string"
        }
      ],
      "name": "TimelockCreated",
      "type": "event"
    },
    {
      "anonymous": false,
      "inputs": [
        {
          "indexed": true,
          "internalType": "uint256",
          "name": "timelockId",
          "type": "uint256"
        },
        {
          "indexed": false,
          "internalType": "string",
          "name": "giftName",
          "type": "string"
        },
        {
          "indexed": true,
          "internalType": "address",
          "name": "recipient",
          "type": "address"
        }
      ],
      "name": "TimelockGiftName",
      "type": "event"
    },
    {
      "inputs": [
        {
          "internalType": "uint256",
          "name": "timelockId",
          "type": "uint256"
        },
        {
          "internalType": "address[]",
          "name": "tokens",
          "type": "address[]"
        },
        {
          "internalType": "uint256[]",
          "name": "ids",
          "type": "uint256[]"
        },
        {
          "internalType": "uint256[]",
          "name": "amounts",
          "type": "uint256[]"
        },
        {
          "internalType": "uint256",
          "name": "bufferTime",
          "type": "uint256"
        },
        {
          "internalType": "string",
          "name": "name",
          "type": "string"
        },
        {
          "internalType": "address",
          "name": "caller",
          "type": "address"
        },
        {
          "internalType": "enum TimelockHelper.LockStatus",
          "name": "lockStatus",
          "type": "uint8"
        }
      ],
      "name": "createSoftTimelock",
      "outputs": [],
      "stateMutability": "nonpayable",
      "type": "function"
    },
    {
      "inputs": [
        {
          "internalType": "uint256",
          "name": "timelockId",
          "type": "uint256"
        },
        {
          "internalType": "address[]",
          "name": "tokens",
          "type": "address[]"
        },
        {
          "internalType": "uint256[]",
          "name": "ids",
          "type": "uint256[]"
        },
        {
          "internalType": "uint256[]",
          "name": "amounts",
          "type": "uint256[]"
        },
        {
          "internalType": "uint256",
          "name": "duration",
          "type": "uint256"
        },
        {
          "internalType": "string",
          "name": "name",
          "type": "string"
        },
        {
          "internalType": "address",
          "name": "caller",
          "type": "address"
        },
        {
          "internalType": "enum TimelockHelper.LockStatus",
          "name": "lockStatus",
          "type": "uint8"
        }
      ],
      "name": "createTimelock",
      "outputs": [],
      "stateMutability": "nonpayable",
      "type": "function"
    },
    {
      "inputs": [
        {
          "internalType": "uint256",
          "name": "timelockId",
          "type": "uint256"
        },
        {
          "internalType": "address[]",
          "name": "tokens",
          "type": "address[]"
        },
        {
          "internalType": "uint256[]",
          "name": "ids",
          "type": "uint256[]"
        },
        {
          "internalType": "uint256[]",
          "name": "amounts",
          "type": "uint256[]"
        },
        {
          "internalType": "uint256",
          "name": "duration",
          "type": "uint256"
        },
        {
          "internalType": "address",
          "name": "recipient",
          "type": "address"
        },
        {
          "internalType": "string",
          "name": "name",
          "type": "string"
        },
        {
          "internalType": "string",
          "name": "giftName",
          "type": "string"
        },
        {
          "internalType": "address",
          "name": "caller",
          "type": "address"
        },
        {
          "internalType": "enum TimelockHelper.LockStatus",
          "name": "lockStatus",
          "type": "uint8"
        }
      ],
      "name": "createTimelockedGift",
      "outputs": [],
      "stateMutability": "nonpayable",
      "type": "function"
    },
    {
      "inputs": [
        {
          "internalType": "uint256",
          "name": "id",
          "type": "uint256"
        }
      ],
      "name": "getData",
      "outputs": [
        {
          "internalType": "address[]",
          "name": "",
          "type": "address[]"
        },
        {
          "internalType": "uint256[]",
          "name": "",
          "type": "uint256[]"
        },
        {
          "internalType": "uint256[]",
          "name": "",
          "type": "uint256[]"
        }
      ],
      "stateMutability": "view",
      "type": "function"
    },
    {
      "inputs": [
        {
          "internalType": "uint256",
          "name": "id",
          "type": "uint256"
        }
      ],
      "name": "getStatus",
      "outputs": [
        {
          "internalType": "enum TimelockHelper.LockStatus",
          "name": "",
          "type": "uint8"
        },
        {
          "internalType": "address",
          "name": "",
          "type": "address"
        }
      ],
      "stateMutability": "view",
      "type": "function"
    },
    {
      "inputs": [
        {
          "internalType": "uint256",
          "name": "timelockId",
          "type": "uint256"
        }
      ],
      "name": "getTimelockDetails",
      "outputs": [
        {
          "components": [
            {
              "internalType": "address[]",
              "name": "tokenAddresses",
              "type": "address[]"
            },
            {
              "internalType": "uint256[]",
              "name": "tokenIds",
              "type": "uint256[]"
            },
            {
              "internalType": "uint256[]",
              "name": "amounts",
              "type": "uint256[]"
            },
            {
              "internalType": "uint256",
              "name": "unlockTime",
              "type": "uint256"
            },
            {
              "internalType": "address",
              "name": "owner",
              "type": "address"
            },
            {
              "internalType": "address",
              "name": "recipient",
              "type": "address"
            },
            {
              "internalType": "bool",
              "name": "isSoftLock",
              "type": "bool"
            },
            {
              "internalType": "bool",
              "name": "isUnlocked",
              "type": "bool"
            },
            {
              "internalType": "uint256",
              "name": "bufferTime",
              "type": "uint256"
            },
            {
              "internalType": "enum TimelockHelper.LockType",
              "name": "lockType",
              "type": "uint8"
            },
            {
              "internalType": "enum TimelockHelper.LockStatus",
              "name": "lockStatus",
              "type": "uint8"
            },
            {
              "internalType": "string",
              "name": "name",
              "type": "string"
            }
          ],
          "internalType": "struct TimelockERC1155.TimelockInfo",
          "name": "",
          "type": "tuple"
        }
      ],
      "stateMutability": "view",
      "type": "function"
    },
    {
      "inputs": [
        {
          "internalType": "address",
          "name": "initialOwner",
          "type": "address"
        },
        {
          "internalType": "address",
          "name": "_routerAddresses",
          "type": "address"
        }
      ],
      "name": "initialize",
      "outputs": [],
      "stateMutability": "nonpayable",
      "type": "function"
    },
    {
      "inputs": [
        {
          "internalType": "address",
          "name": "",
          "type": "address"
        },
        {
          "internalType": "address",
          "name": "",
          "type": "address"
        },
        {
          "internalType": "uint256[]",
          "name": "",
          "type": "uint256[]"
        },
        {
          "internalType": "uint256[]",
          "name": "",
          "type": "uint256[]"
        },
        {
          "internalType": "bytes",
          "name": "",
          "type": "bytes"
        }
      ],
      "name": "onERC1155BatchReceived",
      "outputs": [
        {
          "internalType": "bytes4",
          "name": "",
          "type": "bytes4"
        }
      ],
      "stateMutability": "nonpayable",
      "type": "function"
    },
    {
      "inputs": [
        {
          "internalType": "address",
          "name": "",
          "type": "address"
        },
        {
          "internalType": "address",
          "name": "",
          "type": "address"
        },
        {
          "internalType": "uint256",
          "name": "",
          "type": "uint256"
        },
        {
          "internalType": "uint256",
          "name": "",
          "type": "uint256"
        },
        {
          "internalType": "bytes",
          "name": "",
          "type": "bytes"
        }
      ],
      "name": "onERC1155Received",
      "outputs": [
        {
          "internalType": "bytes4",
          "name": "",
          "type": "bytes4"
        }
      ],
      "stateMutability": "nonpayable",
      "type": "function"
    },
    {
      "inputs": [],
      "name": "owner",
      "outputs": [
        {
          "internalType": "address",
          "name": "",
          "type": "address"
        }
      ],
      "stateMutability": "view",
      "type": "function"
    },
    {
      "inputs": [],
      "name": "renounceOwnership",
      "outputs": [],
      "stateMutability": "nonpayable",
      "type": "function"
    },
    {
      "inputs": [],
      "name": "routerAddresses",
      "outputs": [
        {
          "internalType": "address",
          "name": "",
          "type": "address"
        }
      ],
      "stateMutability": "view",
      "type": "function"
    },
    {
      "inputs": [
        {
          "internalType": "bytes4",
          "name": "interfaceId",
          "type": "bytes4"
        }
      ],
      "name": "supportsInterface",
      "outputs": [
        {
          "internalType": "bool",
          "name": "",
          "type": "bool"
        }
      ],
      "stateMutability": "view",
      "type": "function"
    },
    {
      "inputs": [
        {
          "internalType": "uint256",
          "name": "",
          "type": "uint256"
        }
      ],
      "name": "timelocks",
      "outputs": [
        {
          "internalType": "uint256",
          "name": "unlockTime",
          "type": "uint256"
        },
        {
          "internalType": "address",
          "name": "owner",
          "type": "address"
        },
        {
          "internalType": "address",
          "name": "recipient",
          "type": "address"
        },
        {
          "internalType": "bool",
          "name": "isSoftLock",
          "type": "bool"
        },
        {
          "internalType": "bool",
          "name": "isUnlocked",
          "type": "bool"
        },
        {
          "internalType": "uint256",
          "name": "bufferTime",
          "type": "uint256"
        },
        {
          "internalType": "enum TimelockHelper.LockType",
          "name": "lockType",
          "type": "uint8"
        },
        {
          "internalType": "enum TimelockHelper.LockStatus",
          "name": "lockStatus",
          "type": "uint8"
        },
        {
          "internalType": "string",
          "name": "name",
          "type": "string"
        }
      ],
      "stateMutability": "view",
      "type": "function"
    },
    {
      "inputs": [
        {
          "internalType": "address",
          "name": "newOwner",
          "type": "address"
        }
      ],
      "name": "transferOwnership",
      "outputs": [],
      "stateMutability": "nonpayable",
      "type": "function"
    },
    {
      "inputs": [
        {
          "internalType": "uint256",
          "name": "timelockId",
          "type": "uint256"
        },
        {
          "internalType": "address",
          "name": "caller",
          "type": "address"
        }
      ],
      "name": "unlockSoftTimelock",
      "outputs": [],
      "stateMutability": "nonpayable",
      "type": "function"
    },
    {
      "inputs": [
        {
          "internalType": "uint256",
          "name": "timelockId",
          "type": "uint256"
        },
        {
          "internalType": "address",
          "name": "caller",
          "type": "address"
        }
      ],
      "name": "withdraw",
      "outputs": [],
      "stateMutability": "nonpayable",
      "type": "function"
    }
  ],
  "transactionHash": "0x39d69912adbf93de4baea6e786d8a52e6c1164e11a7dff4cb4b785a404bc1b70",
  "args": [],
  "numDeployments": 1,
  "solcInputHash": "f2556dfeb12466a7e876316d5b86d684",
  "bytecode": "0x6080806040523461001657612599908161001c8239f35b600080fdfe6080604052600436101561001257600080fd5b60003560e01c8062f714ce1461193e5780630178fe3f146117fb57806301ffc9a7146117a5578063034f91a21461177c5780630d7e149f146116bf5780633489908d146110ae578063485cc95514610f3557806358155cc214610a7e5780635c622a0e14610a44578063715018a6146109da5780638da5cb5b146109a4578063aadcd3ba1461073f578063bc197c81146106b7578063d127107a1461019b578063f23a6e6114610146578063f2fde38b1461011b5763fdfd6530146100d657600080fd5b34610116576040366003190112610116576101026100f261196a565b6100fa612014565b600435612142565b600160008051602061254483398151915255005b600080fd5b3461011657602036600319011261011657610144610137611980565b61013f611d3f565b611d78565b005b346101165760a03660031901126101165761015f611980565b5061016861196a565b506084356001600160401b03811161011657610188903690600401611d24565b5060405163f23a6e6160e01b8152602090f35b34610116576101a936611bb2565b9895929690976101be9b9a9b95929495612014565b6101c6612044565b6040516101d281611a18565b6101db88611c5b565b6101e86040519182611a34565b8881528d602082019036908b60051b0111610116578e9081905b8b60051b8301821061069f57505050815261021e368484611c72565b602082015261022e368587611c72565b60408201526000606082018190526001600160a01b038b166080830181905260a0830152600160c0830181905260e0830191909152610100820188905261012082015261027f8b6101408301611ee0565b61028a36878b611cde565b6101608201528b600052600060205260406000209080518051906001600160401b03821161062e576020906102bf83866120a5565b0183600052602060002060005b838110610682575050505060208101518051906001600160401b03821161062e57602060018501916102fe84846120a5565b0190600052602060002060005b83811061066e575050505060408101518051906001600160401b03821161062e576020600285019161033d84846120a5565b0190600052602060002060005b83811061065a57505050506060810151600383015560808101516004830180546001600160a01b039283166001600160a01b031990911617905560a08083015160058501805460c086015160e087015160ff60a81b90151560a81b1660ff60a01b91151590951b16929094166001600160b01b031990941693909317171790556101008101516006830155600782019061012081015160038110156106445760ff801984541691161782556101408101519160048310156106445761016092610412916120de565b01518051906001600160401b03821161062e5761043260088401546119de565b601f81116105ee575b50602090601f831160011461057e576008929160009183610573575b50508160011b916000199060031b1c1916179101555b604051968060e0890160e08a525261010088019c9060005b81811061054b575050506000805160206125048339815191529997958b956104f47f3c29909eab1e73a2f933f06be82acb4c9a7fa928d73d81e267839fd679d47b89968f966104e68860209f9d9998610526988b809b0360208c01526120fd565b9187830360408901526120fd565b600060608601526080850192909252600160a085015283820360c08501526001600160a01b0398909816978897612121565b0390a46105366040518092611b08565ba2600160008051602061254483398151915255005b90919d60208f6001928291610565858060a01b0391611996565b168152019f01929101610485565b015190503880610457565b906008840160005260206000209160005b601f19851681106105d65750918391600193600895601f198116106105bd575b505050811b0191015561046d565b015160001960f88460031b161c191690553880806105af565b9192602060018192868501518155019401920161058f565b61061e90600885016000526020600020601f850160051c81019160208610610624575b601f0160051c019061206a565b8f61043b565b9091508190610611565b634e487b7160e01b600052604160045260246000fd5b634e487b7160e01b600052602160045260246000fd5b60019060208451940193818401550161034a565b60019060208451940193818401550161030b565b82516001600160a01b0316818301556020909201916001016102cc565b602080916106ac84611996565b815201910190610202565b346101165760a0366003190112610116576106d0611980565b506106d961196a565b506001600160401b03604435818111610116576106fa903690600401611cc0565b5060643581811161011657610713903690600401611cc0565b506084359081116101165761072c903690600401611d24565b5060405163bc197c8160e01b8152602090f35b3461011657602036600319011261011657606061016060405161076181611a18565b82815282602082015282604082015260008382015260006080820152600060a0820152600060c0820152600060e082015260006101008201526000610120820152600061014082015201526004356000526000602052604060002061087c6008604051926107ce84611a18565b6107d781611e2d565b84526107e560018201611e85565b60208501526107f660028201611e85565b60408501526003810154606085015260018060a01b03600482015416608085015260ff600582015460018060a01b03811660a0870152818160a01c16151560c087015260a81c16151560e0850152600681015461010085015261087660ff60078301546108698282166101208901611ed4565b841c166101408601611ee0565b01611a55565b610160820152604051809160208252805161018060208401526101a08301815180915260206101c0850192019060005b81811061098257505050906101606108f06108da61097e946020850151601f198883030160408901526119aa565b6040840151868203601f190160608801526119aa565b916060810151608086015260018060a01b0360808201511660a086015260018060a01b0360a08201511660c086015260c0810151151560e086015260e08101511515610100860152610100810151610120860152610958610120820151610140870190611afb565b61096a61014082015183870190611b08565b0151838203601f1901610180850152611b15565b0390f35b82516001600160a01b03168452869550602093840193909201916001016108ac565b3461011657600036600319011261011657600080516020612524833981519152546040516001600160a01b039091168152602090f35b34610116576000366003190112610116576109f3611d3f565b60008051602061252483398151915280546001600160a01b031981169091556000906001600160a01b03167f8be0079c531659141344cd1fd0a4f28419497f9722a3daafe3b4186f6b6457e08280a3005b34610116576020366003190112610116576040610a62600435611eec565b610a6e83518093611b08565b6001600160a01b03166020820152f35b3461011657610ab0610a8f36611bb2565b999b909896919492979593610aa2612014565b610aaa612044565b42611ff1565b94604051610abd81611a18565b610ac688611c5b565b610ad36040519182611a34565b8881528d602082019036908b60051b0111610116578e9081905b8b60051b83018210610f1d575050508152610b09368484611c72565b6020820152610b19368587611c72565b6040820152606081018790526001600160a01b038a166080820181905260a0820152600060c0820181905260e082018190526101008201819052610120820152610b678b6101408301611ee0565b610b7236878b611cde565b6101608201528b600052600060205260406000209080518051906001600160401b03821161062e57602090610ba783866120a5565b0183600052602060002060005b838110610f00575050505060208101518051906001600160401b03821161062e5760206001850191610be684846120a5565b0190600052602060002060005b838110610eec575050505060408101518051906001600160401b03821161062e5760206002850191610c2584846120a5565b0190600052602060002060005b838110610ed857505050506060810151600383015560808101516004830180546001600160a01b039283166001600160a01b031990911617905560a08083015160058501805460c086015160e087015160ff60a81b90151560a81b1660ff60a01b91151590951b16929094166001600160b01b031990941693909317171790556101008101516006830155600782019061012081015160038110156106445760ff801984541691161782556101408101519160048310156106445761016092610cfa916120de565b01518051906001600160401b03821161062e57610d1a60088401546119de565b601f8111610ea3575b50602090601f8311600114610e33576008929160009183610e28575b50508160011b916000199060031b1c1916179101555b604051968060e0890160e08a525261010088019c9060005b818110610e00575050506000805160206125048339815191529997958b95610dce7f3c29909eab1e73a2f933f06be82acb4c9a7fa928d73d81e267839fd679d47b89968f966104e68860209f9d9998610526988b809b0360208c01526120fd565b606085019290925260006080850181905260a085015283820360c08501526001600160a01b0398909816978897612121565b90919d60208f6001928291610e1a858060a01b0391611996565b168152019f01929101610d6d565b015190503880610d3f565b906008840160005260206000209160005b601f1985168110610e8b5750918391600193600895601f19811610610e72575b505050811b01910155610d55565b015160001960f88460031b161c19169055388080610e64565b91926020600181928685015181550194019201610e44565b610ed290600885016000526020600020601f850160051c8101916020861061062457601f0160051c019061206a565b8f610d23565b600190602084519401938184015501610c32565b600190602084519401938184015501610bf3565b82516001600160a01b031681830155602090920191600101610bb4565b60208091610f2a84611996565b815201910190610aed565b3461011657604036600319011261011657610f4e611980565b610f5661196a565b7ff0c57e16840df040f15088dc2f81fe391c3923bec73e23a9662efc9c229c6a009081549060ff8260401c1615916001600160401b038116948515806110a7575b6001809714908161109d575b159081611094575b506110825767ffffffffffffffff19821686178555610fdb9184611063575b50610fd3611dec565b61013f611dec565b610fe3611dec565b610feb611dec565b8360008051602061254483398151915255611004611dec565b83546001600160a01b0319166001600160a01b039190911617835561102557005b805468ff0000000000000000191690556040519081527fc7f505b2f371ae2175ee4913f4499e1f2633a7b5936321eed1cdaeb6115181d290602090a1005b68ffffffffffffffffff19166801000000000000000117855586610fca565b60405163f92ee8a960e01b8152600490fd5b90501587610fab565b303b159150610fa3565b5083610f97565b3461011657610140366003190112610116576024356001600160401b038111610116576110df903690600401611b55565b6044356001600160401b038111610116576110fe903690600401611b55565b6064929192356001600160401b03811161011657611120903690600401611b55565b9360a435939091906001600160a01b03851685036101165760c4356001600160401b03811161011657611157903690600401611b85565b9390926001600160401b0360e43511610116576111793660e435600401611b85565b989099610104359760018060a01b0389168903610116576004610124351015610116576111a4612014565b6111ac612044565b6111b860843542611ff1565b946040516111c581611a18565b6111ce88611c5b565b6111db6040519182611a34565b88815260208101368a60051b8701116101165785905b8a60051b870182106116a7575050815261120c368484611c72565b602082015261121c368688611c72565b6040820152606081018790526001600160a01b038b811660808301528c1660a0820152600060c0820181905260e08201819052610100820152600261012082015261126e610124356101408301611ee0565b611279368b8b611cde565b610160820152600435600052600060205260406000209080518051906001600160401b03821161062e576020906112b083866120a5565b0183600052602060002060005b83811061168a575050505060208101518051906001600160401b03821161062e57602060018501916112ef84846120a5565b0190600052602060002060005b838110611676575050505060408101518051906001600160401b03821161062e576020600285019161132e84846120a5565b0190600052602060002060005b83811061166257505050506060810151600383015560808101516004830180546001600160a01b039283166001600160a01b031990911617905560a08083015160058501805460c086015160e087015160ff60a81b90151560a81b1660ff60a01b91151590951b16929094166001600160b01b031990941693909317171790556101008101516006830155600782019061012081015160038110156106445760ff801984541691161782556101408101519160048310156106445761016092611403916120de565b01518051906001600160401b03821161062e5761142360088401546119de565b601f811161162d575b50602090601f83116001146115bd5760089291600091836115b2575b50508160011b916000199060031b1c1916179101555b604051968060e0890160e08a52526101008801939060005b81811061158c57505050946114f67f3c29909eab1e73a2f933f06be82acb4c9a7fa928d73d81e267839fd679d47b899588956114e8867f9b49bb064023c0d8c7d1b2bb1fc1fee4de356877d5192d3388f641d2227efaa89f9d9b97966115759f9d9b8961152b990360208b01526120fd565b9186830360408801526120fd565b606084019190915260006080840152600260a084015282810360c08401526001600160a01b0389811698169660043596612121565b0390a460405161153e8161012435611b08565b600080516020612504833981519152602060043592a26040519182916020835260018060a01b031695600435956020840191612121565b0390a3600160008051602061254483398151915255005b909194602080600192838060a01b036115a48a611996565b168152019601929101611476565b015190503880611448565b906008840160005260206000209160005b601f19851681106116155750918391600193600895601f198116106115fc575b505050811b0191015561145e565b015160001960f88460031b161c191690553880806115ee565b919260206001819286850151815501940192016115ce565b61165c90600885016000526020600020601f850160051c8101916020861061062457601f0160051c019061206a565b3861142c565b60019060208451940193818401550161133b565b6001906020845194019381840155016112fc565b82516001600160a01b0316818301556020909201916001016112bd565b602080916116b484611996565b8152019101906111f1565b346101165760203660031901126101165760043560005260006020526040600020600381015461097e60018060a01b0361176a8160048601541694600581015460ff600683015491611718600860078601549501611a55565b95604051998a998a5260208a015281166040890152818160a01c161515606089015260a81c161515608087015260a086015261175a60c0860160ff8316611afb565b60ff60e086019160081c16611b08565b61012080610100850152830190611b15565b34610116576000366003190112610116576001546040516001600160a01b039091168152602090f35b346101165760203660031901126101165760043563ffffffff60e01b811680910361011657602090630271189760e51b81149081156117ea575b506040519015158152f35b6301ffc9a760e01b149050826117df565b346101165760208060031936011261011657600435600052600081526040600020906040519061182a82611a18565b61183383611e2d565b8252600191611843838501611e85565b9082810191825261185660028601611e85565b9060408101918252600386015460608201526118cd600860018060a01b039788600482015416608085015260ff60058201548a811660a0870152818160a01c16151560c087015260a81c16151560e0850152600681015461010085015261087660ff60078301546108698282166101208901611ed4565b6101608201525191519051926040519586956060870160608852855180915283608089019601926000905b82821061192457898803868b0152898061097e8b6119168c8c6119aa565b9083820360408501526119aa565b8451811688528a99509685019693850193908301906118f8565b346101165760403660031901126101165761010261195a61196a565b611962612014565b600435612289565b602435906001600160a01b038216820361011657565b600435906001600160a01b038216820361011657565b35906001600160a01b038216820361011657565b90815180825260208080930193019160005b8281106119ca575050505090565b8351855293810193928101926001016119bc565b90600182811c92168015611a0e575b60208310146119f857565b634e487b7160e01b600052602260045260246000fd5b91607f16916119ed565b61018081019081106001600160401b0382111761062e57604052565b90601f801991011681019081106001600160401b0382111761062e57604052565b9060405191826000825492611a69846119de565b908184526001948581169081600014611ad85750600114611a95575b5050611a9392500383611a34565b565b9093915060005260209081600020936000915b818310611ac0575050611a9393508201013880611a85565b85548884018501529485019487945091830191611aa8565b915050611a9394506020925060ff191682840152151560051b8201013880611a85565b9060038210156106445752565b9060048210156106445752565b919082519283825260005b848110611b41575050826000602080949584010152601f8019910116010190565b602081830181015184830182015201611b20565b9181601f84011215610116578235916001600160401b038311610116576020808501948460051b01011161011657565b9181601f84011215610116578235916001600160401b038311610116576020838186019501011161011657565b906101006003198301126101165760048035926001600160401b03916024358381116101165782611be4918301611b55565b949094936044358181116101165784611bfe918501611b55565b949094936064358381116101165782611c18918301611b55565b949094936084359360a43591821161011657611c35918401611b85565b9092909160c4356001600160a01b0381168103610116579160e435908110156101165790565b6001600160401b03811161062e5760051b60200190565b9291611c7d82611c5b565b91611c8b6040519384611a34565b829481845260208094019160051b810192831161011657905b828210611cb15750505050565b81358152908301908301611ca4565b9080601f8301121561011657816020611cdb93359101611c72565b90565b9291926001600160401b03821161062e5760405191611d07601f8201601f191660200184611a34565b829481845281830111610116578281602093846000960137010152565b9080601f8301121561011657816020611cdb93359101611cde565b600080516020612524833981519152546001600160a01b03163303611d6057565b60405163118cdaa760e01b8152336004820152602490fd5b6001600160a01b03908116908115611dd35760008051602061252483398151915280546001600160a01b031981168417909155167f8be0079c531659141344cd1fd0a4f28419497f9722a3daafe3b4186f6b6457e0600080a3565b604051631e4fbdf760e01b815260006004820152602490fd5b60ff7ff0c57e16840df040f15088dc2f81fe391c3923bec73e23a9662efc9c229c6a005460401c1615611e1b57565b604051631afcd79f60e31b8152600490fd5b9060405191828154918282526020928383019160005283600020936000905b828210611e6257505050611a9392500383611a34565b85546001600160a01b031684526001958601958895509381019390910190611e4c565b9060405191828154918282526020928383019160005283600020936000905b828210611eba57505050611a9392500383611a34565b855484526001958601958895509381019390910190611ea4565b60038210156106445752565b60048210156106445752565b9060009182528160205260408220604051611f0681611a18565b611f0f82611e2d565b8152611f1d60018301611e85565b6020820152611f2e60028301611e85565b60408201526003820154606082015260018060a01b039182600482015416916080810192835260ff600583015485811660a0840152818160a01c16151560c084015260a81c16151560e08201526006820154610100820152610160611fb96008600785015494611fa560ff87166101208701611ed4565b61087660ff610140870197841c1687611ee0565b9101528282511615611fea5751936004851015611fd65750511690565b634e487b7160e01b81526021600452602490fd5b5050508190565b91908201809211611ffe57565b634e487b7160e01b600052601160045260246000fd5b60008051602061254483398151915260028154146120325760029055565b604051633ee5aeb560e01b8152600490fd5b6001546001600160a01b0316330361205857565b60405163ea8e4eb560e01b8152600490fd5b818110612075575050565b6000815560010161206a565b80546000825580612090575050565b611a939160005260206000209081019061206a565b9068010000000000000000811161062e578154908083558181106120c857505050565b611a93926000526020600020918201910161206a565b9060048110156106445761ff0082549160081b169061ff001916179055565b81835290916001600160fb1b0383116101165760209260051b809284830137010190565b908060209392818452848401376000828201840152601f01601f1916010190565b9061214b612044565b816000526000602052604090816000209060018060a01b0390600482818501541680156122565760ff600786015460081c16828110156122415760020361223257600585019384549360ff8560a01c16156122225760ff8560a81c16612212571603612204575060ff60a81b1916600160a81b17905560068101547fc92510a4ac9a15b6edc75157859d271228f92b11d09d91200f705e8e44c34eee926020926003926121f89042611ff1565b928391015551908152a2565b84516330cd747160e01b8152fd5b87516328486b6360e11b81528490fd5b875163549b9dbd60e01b81528490fd5b5084516322d4f12560e01b8152fd5b602183634e487b7160e01b6000525260246000fd5b50505050505050565b80518210156122735760209160051b010190565b634e487b7160e01b600052603260045260246000fd5b6000818152602081905260408082206004808201546001600160a01b0397969295949392908816156124f95760078601805460ff8160081c16848110156124e6576002036124d6576103009061ff001916179055846000805160206125048339815191526020855160038152a26001928387018054156124c6578960058901549316978a841689036124b65760a09360ff81861c1690816124a7575b50612497576003810154421061248757859a61234082611e2d565b61236c61234c85611e85565b94612367600286019161236761236184611e85565b97612081565b612081565b889c5b6123a6575b50505050505050507f6141b54b56b8a52a8c6f5cd2a857f6117b18ffbf4d46bd3106f300a839cbf5ea919293945080a3565b80518d101561248257816123ba8e8361225f565b51168d6123d26123ca828861225f565b51918661225f565b5191803b1561247e578d9160c48b8e80948c519788958694637921219560e11b8652309086015260249889860152604485015260648401528d60848401528160a48401525af180156124745761244b575b50506000198d14612438579b87019b8761236f565b634e487b7160e01b895260118752602489fd5b6001600160401b038211612463575085523880612423565b634e487b7160e01b8b52604189528afd5b87513d8d823e3d90fd5b8b80fd5b612374565b8251636100d92960e11b81528590fd5b825163549b9dbd60e01b81528590fd5b60ff915060a81c161538612325565b825163ea8e4eb560e01b81528590fd5b81516367e3990d60e01b81528490fd5b84516322d4f12560e01b81528490fd5b634e487b7160e01b875260218552602487fd5b505050505050905056fe199c49764c24c272ab05711f746ea69945084e537b524515f05902c3c9a7e9e89016d09d72d40fdae2fd8ceac6b6234c7706214fd39c1cd1e609a0528c1993009b779b17422d0df92223018b32b4d1fa46e071723d6817e2486d003becc55f00a2646970667358221220e0fac8e3cbc0d2636db120e719ffd0f2333bfeb473c31aa4f42438c0ff58ec3164736f6c63430008140033",
  "devdoc": {
    "errors": {
      "InvalidInitialization()": [
        {
          "details": "The contract is already initialized."
        }
      ],
      "NotInitializing()": [
        {
          "details": "The contract is not initializing."
        }
      ],
      "OwnableInvalidOwner(address)": [
        {
          "details": "The owner is not a valid owner account. (eg. `address(0)`)"
        }
      ],
      "OwnableUnauthorizedAccount(address)": [
        {
          "details": "The caller account is not authorized to perform an operation."
        }
      ],
      "ReentrancyGuardReentrantCall()": [
        {
          "details": "Unauthorized reentrant call."
        }
      ]
    },
    "events": {
      "Initialized(uint64)": {
        "details": "Triggered when the contract has been initialized or reinitialized."
      }
    },
    "kind": "dev",
    "methods": {
      "owner()": {
        "details": "Returns the address of the current owner."
      },
      "renounceOwnership()": {
        "details": "Leaves the contract without owner. It will not be possible to call `onlyOwner` functions. Can only be called by the current owner. NOTE: Renouncing ownership will leave the contract without an owner, thereby disabling any functionality that is only available to the owner."
      },
      "supportsInterface(bytes4)": {
        "details": "Returns true if this contract implements the interface defined by `interfaceId`. See the corresponding https://eips.ethereum.org/EIPS/eip-165#how-interfaces-are-identified[ERC section] to learn more about how these ids are created. This function call must use less than 30 000 gas."
      },
      "transferOwnership(address)": {
        "details": "Transfers ownership of the contract to a new account (`newOwner`). Can only be called by the current owner."
      }
    },
    "version": 1
  },
  "userdoc": {
    "kind": "user",
    "methods": {},
    "version": 1
  },
  "storageLayout": {
    "storage": [
      {
        "astId": 40757,
        "contract": "contracts/timelock/TimeLockERC1155.sol:TimelockERC1155",
        "label": "timelocks",
        "offset": 0,
        "slot": "0",
        "type": "t_mapping(t_uint256,t_struct(TimelockInfo)40699_storage)"
      },
      {
        "astId": 40759,
        "contract": "contracts/timelock/TimeLockERC1155.sol:TimelockERC1155",
        "label": "routerAddresses",
        "offset": 0,
        "slot": "1",
        "type": "t_address"
      }
    ],
    "types": {
      "t_address": {
        "encoding": "inplace",
        "label": "address",
        "numberOfBytes": "20"
      },
      "t_array(t_address)dyn_storage": {
        "base": "t_address",
        "encoding": "dynamic_array",
        "label": "address[]",
        "numberOfBytes": "32"
      },
      "t_array(t_uint256)dyn_storage": {
        "base": "t_uint256",
        "encoding": "dynamic_array",
        "label": "uint256[]",
        "numberOfBytes": "32"
      },
      "t_bool": {
        "encoding": "inplace",
        "label": "bool",
        "numberOfBytes": "1"
      },
      "t_enum(LockStatus)44777": {
        "encoding": "inplace",
        "label": "enum TimelockHelper.LockStatus",
        "numberOfBytes": "1"
      },
      "t_enum(LockType)44772": {
        "encoding": "inplace",
        "label": "enum TimelockHelper.LockType",
        "numberOfBytes": "1"
      },
      "t_mapping(t_uint256,t_struct(TimelockInfo)40699_storage)": {
        "encoding": "mapping",
        "key": "t_uint256",
        "label": "mapping(uint256 => struct TimelockERC1155.TimelockInfo)",
        "numberOfBytes": "32",
        "value": "t_struct(TimelockInfo)40699_storage"
      },
      "t_string_storage": {
        "encoding": "bytes",
        "label": "string",
        "numberOfBytes": "32"
      },
      "t_struct(TimelockInfo)40699_storage": {
        "encoding": "inplace",
        "label": "struct TimelockERC1155.TimelockInfo",
        "members": [
          {
            "astId": 40672,
            "contract": "contracts/timelock/TimeLockERC1155.sol:TimelockERC1155",
            "label": "tokenAddresses",
            "offset": 0,
            "slot": "0",
            "type": "t_array(t_address)dyn_storage"
          },
          {
            "astId": 40675,
            "contract": "contracts/timelock/TimeLockERC1155.sol:TimelockERC1155",
            "label": "tokenIds",
            "offset": 0,
            "slot": "1",
            "type": "t_array(t_uint256)dyn_storage"
          },
          {
            "astId": 40678,
            "contract": "contracts/timelock/TimeLockERC1155.sol:TimelockERC1155",
            "label": "amounts",
            "offset": 0,
            "slot": "2",
            "type": "t_array(t_uint256)dyn_storage"
          },
          {
            "astId": 40680,
            "contract": "contracts/timelock/TimeLockERC1155.sol:TimelockERC1155",
            "label": "unlockTime",
            "offset": 0,
            "slot": "3",
            "type": "t_uint256"
          },
          {
            "astId": 40682,
            "contract": "contracts/timelock/TimeLockERC1155.sol:TimelockERC1155",
            "label": "owner",
            "offset": 0,
            "slot": "4",
            "type": "t_address"
          },
          {
            "astId": 40684,
            "contract": "contracts/timelock/TimeLockERC1155.sol:TimelockERC1155",
            "label": "recipient",
            "offset": 0,
            "slot": "5",
            "type": "t_address"
          },
          {
            "astId": 40686,
            "contract": "contracts/timelock/TimeLockERC1155.sol:TimelockERC1155",
            "label": "isSoftLock",
            "offset": 20,
            "slot": "5",
            "type": "t_bool"
          },
          {
            "astId": 40688,
            "contract": "contracts/timelock/TimeLockERC1155.sol:TimelockERC1155",
            "label": "isUnlocked",
            "offset": 21,
            "slot": "5",
            "type": "t_bool"
          },
          {
            "astId": 40690,
            "contract": "contracts/timelock/TimeLockERC1155.sol:TimelockERC1155",
            "label": "bufferTime",
            "offset": 0,
            "slot": "6",
            "type": "t_uint256"
          },
          {
            "astId": 40693,
            "contract": "contracts/timelock/TimeLockERC1155.sol:TimelockERC1155",
            "label": "lockType",
            "offset": 0,
            "slot": "7",
            "type": "t_enum(LockType)44772"
          },
          {
            "astId": 40696,
            "contract": "contracts/timelock/TimeLockERC1155.sol:TimelockERC1155",
            "label": "lockStatus",
            "offset": 1,
            "slot": "7",
            "type": "t_enum(LockStatus)44777"
          },
          {
            "astId": 40698,
            "contract": "contracts/timelock/TimeLockERC1155.sol:TimelockERC1155",
            "label": "name",
            "offset": 0,
            "slot": "8",
            "type": "t_string_storage"
          }
        ],
        "numberOfBytes": "288"
      },
      "t_uint256": {
        "encoding": "inplace",
        "label": "uint256",
        "numberOfBytes": "32"
      }
    }
  }
}