{
  "address": "0xFeacF3E99107cF68Bafacc4D32Cf9e179814688c",
  "abi": [
    {
      "inputs": [],
      "name": "AlreadyUnlocked",
      "type": "error"
    },
    {
      "inputs": [],
      "name": "InvalidInitialization",
      "type": "error"
    },
    {
      "inputs": [],
      "name": "NoTokensToLock",
      "type": "error"
    },
    {
      "inputs": [],
      "name": "NotAuthorized",
      "type": "error"
    },
    {
      "inputs": [],
      "name": "NotInitializing",
      "type": "error"
    },
    {
      "inputs": [],
      "name": "NotSoftTimelock",
      "type": "error"
    },
    {
      "inputs": [
        {
          "internalType": "address",
          "name": "owner",
          "type": "address"
        }
      ],
      "name": "OwnableInvalidOwner",
      "type": "error"
    },
    {
      "inputs": [
        {
          "internalType": "address",
          "name": "account",
          "type": "address"
        }
      ],
      "name": "OwnableUnauthorizedAccount",
      "type": "error"
    },
    {
      "inputs": [],
      "name": "ReentrancyGuardReentrantCall",
      "type": "error"
    },
    {
      "inputs": [],
      "name": "StillLocked",
      "type": "error"
    },
    {
      "inputs": [],
      "name": "TimelockNotLive",
      "type": "error"
    },
    {
      "anonymous": false,
      "inputs": [
        {
          "indexed": true,
          "internalType": "uint256",
          "name": "timelockId",
          "type": "uint256"
        },
        {
          "indexed": false,
          "internalType": "enum TimelockHelper.LockStatus",
          "name": "newStatus",
          "type": "uint8"
        }
      ],
      "name": "ChangeStatus",
      "type": "event"
    },
    {
      "anonymous": false,
      "inputs": [
        {
          "indexed": false,
          "internalType": "uint64",
          "name": "version",
          "type": "uint64"
        }
      ],
      "name": "Initialized",
      "type": "event"
    },
    {
      "anonymous": false,
      "inputs": [
        {
          "indexed": true,
          "internalType": "address",
          "name": "previousOwner",
          "type": "address"
        },
        {
          "indexed": true,
          "internalType": "address",
          "name": "newOwner",
          "type": "address"
        }
      ],
      "name": "OwnershipTransferred",
      "type": "event"
    },
    {
      "anonymous": false,
      "inputs": [
        {
          "indexed": true,
          "internalType": "uint256",
          "name": "timelockId",
          "type": "uint256"
        },
        {
          "indexed": false,
          "internalType": "uint256",
          "name": "unlockTime",
          "type": "uint256"
        }
      ],
      "name": "SoftTimelockUnlocked",
      "type": "event"
    },
    {
      "anonymous": false,
      "inputs": [
        {
          "indexed": true,
          "internalType": "uint256",
          "name": "timelockId",
          "type": "uint256"
        },
        {
          "indexed": true,
          "internalType": "address",
          "name": "owner",
          "type": "address"
        },
        {
          "indexed": true,
          "internalType": "address",
          "name": "recipient",
          "type": "address"
        },
        {
          "indexed": false,
          "internalType": "address[]",
          "name": "tokenAddresses",
          "type": "address[]"
        },
        {
          "indexed": false,
          "internalType": "uint256[]",
          "name": "tokenIds",
          "type": "uint256[]"
        },
        {
          "indexed": false,
          "internalType": "uint256",
          "name": "unlockTime",
          "type": "uint256"
        },
        {
          "indexed": false,
          "internalType": "uint256",
          "name": "bufferTime",
          "type": "uint256"
        },
        {
          "indexed": false,
          "internalType": "enum TimelockHelper.LockType",
          "name": "lockType",
          "type": "uint8"
        },
        {
          "indexed": false,
          "internalType": "string",
          "name": "name",
          "type": "string"
        }
      ],
      "name": "TimelockCreated",
      "type": "event"
    },
    {
      "anonymous": false,
      "inputs": [
        {
          "indexed": true,
          "internalType": "uint256",
          "name": "timelockId",
          "type": "uint256"
        },
        {
          "indexed": false,
          "internalType": "string",
          "name": "giftName",
          "type": "string"
        },
        {
          "indexed": true,
          "internalType": "address",
          "name": "recipient",
          "type": "address"
        }
      ],
      "name": "TimelockGiftName",
      "type": "event"
    },
    {
      "anonymous": false,
      "inputs": [
        {
          "indexed": true,
          "internalType": "uint256",
          "name": "timelockId",
          "type": "uint256"
        },
        {
          "indexed": true,
          "internalType": "address",
          "name": "recipient",
          "type": "address"
        }
      ],
      "name": "TokensWithdrawn",
      "type": "event"
    },
    {
      "inputs": [
        {
          "internalType": "uint256",
          "name": "timelockId",
          "type": "uint256"
        },
        {
          "internalType": "address[]",
          "name": "tokens",
          "type": "address[]"
        },
        {
          "internalType": "uint256[]",
          "name": "ids",
          "type": "uint256[]"
        },
        {
          "internalType": "uint256",
          "name": "bufferTime",
          "type": "uint256"
        },
        {
          "internalType": "string",
          "name": "name",
          "type": "string"
        },
        {
          "internalType": "address",
          "name": "caller",
          "type": "address"
        },
        {
          "internalType": "enum TimelockHelper.LockStatus",
          "name": "lockStatus",
          "type": "uint8"
        }
      ],
      "name": "createSoftTimelock",
      "outputs": [],
      "stateMutability": "nonpayable",
      "type": "function"
    },
    {
      "inputs": [
        {
          "internalType": "uint256",
          "name": "timelockId",
          "type": "uint256"
        },
        {
          "internalType": "address[]",
          "name": "tokens",
          "type": "address[]"
        },
        {
          "internalType": "uint256[]",
          "name": "ids",
          "type": "uint256[]"
        },
        {
          "internalType": "uint256",
          "name": "duration",
          "type": "uint256"
        },
        {
          "internalType": "string",
          "name": "name",
          "type": "string"
        },
        {
          "internalType": "address",
          "name": "caller",
          "type": "address"
        },
        {
          "internalType": "enum TimelockHelper.LockStatus",
          "name": "lockStatus",
          "type": "uint8"
        }
      ],
      "name": "createTimelock",
      "outputs": [],
      "stateMutability": "nonpayable",
      "type": "function"
    },
    {
      "inputs": [
        {
          "internalType": "uint256",
          "name": "timelockId",
          "type": "uint256"
        },
        {
          "internalType": "address[]",
          "name": "tokens",
          "type": "address[]"
        },
        {
          "internalType": "uint256[]",
          "name": "ids",
          "type": "uint256[]"
        },
        {
          "internalType": "uint256",
          "name": "duration",
          "type": "uint256"
        },
        {
          "internalType": "address",
          "name": "recipient",
          "type": "address"
        },
        {
          "internalType": "string",
          "name": "name",
          "type": "string"
        },
        {
          "internalType": "string",
          "name": "giftName",
          "type": "string"
        },
        {
          "internalType": "address",
          "name": "caller",
          "type": "address"
        },
        {
          "internalType": "enum TimelockHelper.LockStatus",
          "name": "lockStatus",
          "type": "uint8"
        }
      ],
      "name": "createTimelockedGift",
      "outputs": [],
      "stateMutability": "nonpayable",
      "type": "function"
    },
    {
      "inputs": [
        {
          "internalType": "uint256",
          "name": "id",
          "type": "uint256"
        }
      ],
      "name": "getData",
      "outputs": [
        {
          "internalType": "address[]",
          "name": "",
          "type": "address[]"
        },
        {
          "internalType": "uint256[]",
          "name": "",
          "type": "uint256[]"
        }
      ],
      "stateMutability": "view",
      "type": "function"
    },
    {
      "inputs": [
        {
          "internalType": "uint256",
          "name": "id",
          "type": "uint256"
        }
      ],
      "name": "getStatus",
      "outputs": [
        {
          "internalType": "enum TimelockHelper.LockStatus",
          "name": "",
          "type": "uint8"
        },
        {
          "internalType": "address",
          "name": "",
          "type": "address"
        }
      ],
      "stateMutability": "view",
      "type": "function"
    },
    {
      "inputs": [
        {
          "internalType": "uint256",
          "name": "timelockId",
          "type": "uint256"
        }
      ],
      "name": "getTimelockDetails",
      "outputs": [
        {
          "components": [
            {
              "internalType": "address[]",
              "name": "tokenAddresses",
              "type": "address[]"
            },
            {
              "internalType": "uint256[]",
              "name": "tokenIds",
              "type": "uint256[]"
            },
            {
              "internalType": "address",
              "name": "owner",
              "type": "address"
            },
            {
              "internalType": "address",
              "name": "recipient",
              "type": "address"
            },
            {
              "internalType": "uint256",
              "name": "unlockTime",
              "type": "uint256"
            },
            {
              "internalType": "bool",
              "name": "isSoftLock",
              "type": "bool"
            },
            {
              "internalType": "bool",
              "name": "isUnlocked",
              "type": "bool"
            },
            {
              "internalType": "uint256",
              "name": "bufferTime",
              "type": "uint256"
            },
            {
              "internalType": "enum TimelockHelper.LockType",
              "name": "lockType",
              "type": "uint8"
            },
            {
              "internalType": "enum TimelockHelper.LockStatus",
              "name": "lockStatus",
              "type": "uint8"
            },
            {
              "internalType": "string",
              "name": "name",
              "type": "string"
            }
          ],
          "internalType": "struct TimelockERC721.TimelockInfo",
          "name": "",
          "type": "tuple"
        }
      ],
      "stateMutability": "view",
      "type": "function"
    },
    {
      "inputs": [
        {
          "internalType": "address",
          "name": "initialOwner",
          "type": "address"
        },
        {
          "internalType": "address",
          "name": "_routerAddresses",
          "type": "address"
        }
      ],
      "name": "initialize",
      "outputs": [],
      "stateMutability": "nonpayable",
      "type": "function"
    },
    {
      "inputs": [
        {
          "internalType": "address",
          "name": "",
          "type": "address"
        },
        {
          "internalType": "address",
          "name": "",
          "type": "address"
        },
        {
          "internalType": "uint256",
          "name": "",
          "type": "uint256"
        },
        {
          "internalType": "bytes",
          "name": "",
          "type": "bytes"
        }
      ],
      "name": "onERC721Received",
      "outputs": [
        {
          "internalType": "bytes4",
          "name": "",
          "type": "bytes4"
        }
      ],
      "stateMutability": "nonpayable",
      "type": "function"
    },
    {
      "inputs": [],
      "name": "owner",
      "outputs": [
        {
          "internalType": "address",
          "name": "",
          "type": "address"
        }
      ],
      "stateMutability": "view",
      "type": "function"
    },
    {
      "inputs": [],
      "name": "renounceOwnership",
      "outputs": [],
      "stateMutability": "nonpayable",
      "type": "function"
    },
    {
      "inputs": [],
      "name": "routerAddresses",
      "outputs": [
        {
          "internalType": "address",
          "name": "",
          "type": "address"
        }
      ],
      "stateMutability": "view",
      "type": "function"
    },
    {
      "inputs": [
        {
          "internalType": "uint256",
          "name": "",
          "type": "uint256"
        }
      ],
      "name": "timelocks",
      "outputs": [
        {
          "internalType": "address",
          "name": "owner",
          "type": "address"
        },
        {
          "internalType": "address",
          "name": "recipient",
          "type": "address"
        },
        {
          "internalType": "uint256",
          "name": "unlockTime",
          "type": "uint256"
        },
        {
          "internalType": "bool",
          "name": "isSoftLock",
          "type": "bool"
        },
        {
          "internalType": "bool",
          "name": "isUnlocked",
          "type": "bool"
        },
        {
          "internalType": "uint256",
          "name": "bufferTime",
          "type": "uint256"
        },
        {
          "internalType": "enum TimelockHelper.LockType",
          "name": "lockType",
          "type": "uint8"
        },
        {
          "internalType": "enum TimelockHelper.LockStatus",
          "name": "lockStatus",
          "type": "uint8"
        },
        {
          "internalType": "string",
          "name": "name",
          "type": "string"
        }
      ],
      "stateMutability": "view",
      "type": "function"
    },
    {
      "inputs": [
        {
          "internalType": "address",
          "name": "newOwner",
          "type": "address"
        }
      ],
      "name": "transferOwnership",
      "outputs": [],
      "stateMutability": "nonpayable",
      "type": "function"
    },
    {
      "inputs": [
        {
          "internalType": "uint256",
          "name": "timelockId",
          "type": "uint256"
        },
        {
          "internalType": "address",
          "name": "caller",
          "type": "address"
        }
      ],
      "name": "unlockSoftTimelock",
      "outputs": [],
      "stateMutability": "nonpayable",
      "type": "function"
    },
    {
      "inputs": [
        {
          "internalType": "uint256",
          "name": "timelockId",
          "type": "uint256"
        },
        {
          "internalType": "address",
          "name": "caller",
          "type": "address"
        }
      ],
      "name": "withdraw",
      "outputs": [],
      "stateMutability": "nonpayable",
      "type": "function"
    }
  ],
  "transactionHash": "0x5bc2000e009c525eba9caf552db5c6301809eac5f3c5101587140a8f5132e504",
  "args": [],
  "numDeployments": 1,
  "solcInputHash": "f2556dfeb12466a7e876316d5b86d684",
  "bytecode": "0x60808060405234610016576122ae908161001c8239f35b600080fdfe6080604052600436101561001257600080fd5b60003560e01c8062f714ce146117b05780630178fe3f14611675578063034f91a21461164c578063062d71b8146111bc5780630d7e149f146110fc57806312d01b0914610b31578063150b7a0214610acb578063485cc955146109525780635c622a0e14610918578063715018a6146108ae5780638da5cb5b14610878578063aadcd3ba14610627578063b3faa4a814610130578063f2fde38b146101055763fdfd6530146100c057600080fd5b34610100576040366003190112610100576100ec6100dc6117dc565b6100e4611d89565b600435611eaa565b600160008051602061225983398151915255005b600080fd5b346101005760203660031901126101005761012e6101216117f2565b610129611ac5565b611afe565b005b346101005761016261014136611879565b9691936101549a9196999a989398611d89565b61015c611db9565b42611d66565b9360405161016f81611942565b61017883611ddf565b610185604051918261195e565b83815260208101368560051b8701116101005785905b8560051b8701821061060f57505081526101b482611ddf565b6101c1604051918261195e565b82815260208101368460051b8d0111610100578b905b8460051b8d0182106105ff57505060208201526001600160a01b03871660408201819052606082015260808101869052600060a0820181905260c0820181905260e08201819052610100820152610232886101208301611c66565b61023d36868b611a7f565b6101408201528a600052600060205260406000209080518051906001600160401b0382116105a2576020906102728386611e31565b0183600052602060002060005b8381106105e2575050505060208101518051906001600160401b0382116105a257602060018501916102b18484611e31565b0190600052602060002060005b8381106105ce575050505060408101516002830180546001600160a01b039283166001600160a01b03199182161790915560608301516003850180549190931691161790556080810151600483015560a081015160058301805460c084015161ff0090151560081b1692151560ff1661ffff199091161791909117905560ff199060e08101516006840155610100810151600784019260038210156105b85760ff9084541691161782556101208101519160048310156105b8576101409261038591611e6a565b01518051906001600160401b0382116105a2576103a56008840154611908565b601f8111610562575b50602090601f83116001146104f25760089291600091836104e7575b50508160011b916000199060031b1c1916179101555b604051918060c0840160c085525260e08301939060005b8181106104c15750505081830360208301528083526001600160fb1b0381116101005761049c6020988b957f2289bc816cf73913b9dcda2c61f4061bf644b0ff8522b35e38773471988a586395846000805160206122198339815191529d879660051b908e84013760051b0197604085015260006060850152600060808501528a8489030160a08501528a60018060a01b038a169960018060a01b0316980191611e89565b0390a46104ac6040518092611a32565ba2600160008051602061225983398151915255005b909194602080600192838060a01b036104d98a611808565b1681520196019291016103f7565b015190508e806103ca565b906008840160005260206000209160005b601f198516811061054a5750918391600193600895601f19811610610531575b505050811b019101556103e0565b015160001960f88460031b161c191690558e8080610523565b91926020600181928685015181550194019201610503565b61059290600885016000526020600020601f850160051c81019160208610610598575b601f0160051c0190611df6565b8d6103ae565b9091508190610585565b634e487b7160e01b600052604160045260246000fd5b634e487b7160e01b600052602160045260246000fd5b6001906020845194019381840155016102be565b82516001600160a01b03168183015560209092019160010161027f565b81358152602091820191016101d7565b6020809161061c84611808565b81520191019061019b565b3461010057602036600319011261010057606061014060405161064981611942565b8281528260208201526000604082015260008382015260006080820152600060a0820152600060c0820152600060e0820152600061010082015260006101208201520152600435600052600060205260406000206107496008604051926106af84611942565b6106b881611bb3565b84526106c660018201611c0b565b602085015260028101546001600160a01b039081166040860152600382015416606085015260048101546080850152600581015460ff818116151560a087015290831c8116151560c0860152600682015460e0860152600782015461074391906107368183166101008901611c5a565b841c166101208601611c66565b0161197f565b6101408201526040516020815281519161016060208301526101808201835180915260206101a0840194019060005b81811061085957505050602081810151838503601f1901604085015280518086529482019491019060005b81811061084357848061083f886101408860018060a01b03604082015116606086015260018060a01b036060820151166080860152608081015160a086015260a0810151151560c086015260c0810151151560e086015260e0810151610100860152610819610100820151610120870190611a25565b61082b61012082015183870190611a32565b0151838203601f1901610160850152611a3f565b0390f35b82518652602095860195909201916001016107a3565b82516001600160a01b0316865260209586019590920191600101610778565b3461010057600036600319011261010057600080516020612239833981519152546040516001600160a01b039091168152602090f35b34610100576000366003190112610100576108c7611ac5565b60008051602061223983398151915280546001600160a01b031981169091556000906001600160a01b03167f8be0079c531659141344cd1fd0a4f28419497f9722a3daafe3b4186f6b6457e08280a3005b34610100576020366003190112610100576040610936600435611c72565b61094283518093611a32565b6001600160a01b03166020820152f35b346101005760403660031901126101005761096b6117f2565b6109736117dc565b7ff0c57e16840df040f15088dc2f81fe391c3923bec73e23a9662efc9c229c6a009081549060ff8260401c1615916001600160401b03811694851580610ac4575b60018097149081610aba575b159081610ab1575b50610a9f5767ffffffffffffffff198216861785556109f89184610a80575b506109f0611b72565b610129611b72565b610a00611b72565b610a08611b72565b8360008051602061225983398151915255610a21611b72565b83546001600160a01b0319166001600160a01b0391909116178355610a4257005b805468ff0000000000000000191690556040519081527fc7f505b2f371ae2175ee4913f4499e1f2633a7b5936321eed1cdaeb6115181d290602090a1005b68ffffffffffffffffff191668010000000000000001178555866109e7565b60405163f92ee8a960e01b8152600490fd5b905015876109c8565b303b1591506109c0565b50836109b4565b3461010057608036600319011261010057610ae46117f2565b50610aed6117dc565b506064356001600160401b038111610100573660238201121561010057610b1e903690602481600401359101611a7f565b50604051630a85bd0160e11b8152602090f35b3461010057610120366003190112610100576024356001600160401b03811161010057610b6290369060040161181c565b6044356001600160401b03811161010057610b8190369060040161181c565b916084356001600160a01b03811681036101005760a4356001600160401b03811161010057610bb490369060040161184c565b60c4939193356001600160401b03811161010057610bd690369060040161184c565b96909760e4359360018060a01b038516850361010057600461010435101561010057610c00611d89565b610c08611db9565b610c1460643542611d66565b92604051610c2181611942565b610c2a83611ddf565b610c37604051918261195e565b83815260208101368560051b8701116101005785905b8560051b870182106110e45750508152610c6682611ddf565b610c73604051918261195e565b82815260208101368460051b8d0111610100578b905b8460051b8d0182106110d457505060208201526001600160a01b0387811660408301528816606082015260808101859052600060a0820181905260c0820181905260e08201526002610100820152610ce8610104356101208301611c66565b610cf336878b611a7f565b610140820152600435600052600060205260406000209080518051906001600160401b0382116105a257602090610d2a8386611e31565b0183600052602060002060005b8381106110b7575050505060208101518051906001600160401b0382116105a25760206001850191610d698484611e31565b0190600052602060002060005b8381106110a3575050505060408101516002830180546001600160a01b039283166001600160a01b03199182161790915560608301516003850180549190931691161790556080810151600483015560a081015160058301805460c084015161ff0090151560081b1692151560ff1661ffff199091161791909117905560ff199060e08101516006840155610100810151600784019260038210156105b85760ff9084541691161782556101208101519160048310156105b85761014092610e3d91611e6a565b01518051906001600160401b0382116105a257610e5d6008840154611908565b601f811161106e575b50602090601f8311600114610ffe576008929160009183610ff3575b50508160011b916000199060031b1c1916179101555b604051918060c0840160c085525260e08301939060005b818110610fcd5750505081830360208301528083526001600160fb1b03811161010057610f6c610fb6987f2289bc816cf73913b9dcda2c61f4061bf644b0ff8522b35e38773471988a586394837f9b49bb064023c0d8c7d1b2bb1fc1fee4de356877d5192d3388f641d2227efaa89c869560051b90602084013760051b01956040840152600060608401526002608084015260208387030160a084015260018060a01b0389169760018060a01b0316966020600435970191611e89565b0390a4604051610f7f8161010435611a32565b600080516020612219833981519152602060043592a26040519182916020835260018060a01b031695600435956020840191611e89565b0390a3600160008051602061225983398151915255005b909194602080600192838060a01b03610fe58a611808565b168152019601929101610eaf565b015190508f80610e82565b906008840160005260206000209160005b601f19851681106110565750918391600193600895601f1981161061103d575b505050811b01910155610e98565b015160001960f88460031b161c191690558f808061102f565b9192602060018192868501518155019401920161100f565b61109d90600885016000526020600020601f850160051c8101916020861061059857601f0160051c0190611df6565b8e610e66565b600190602084519401938184015501610d76565b82516001600160a01b031681830155602090920191600101610d37565b8135815260209182019101610c89565b602080916110f184611808565b815201910190610c4d565b34610100576020366003190112610100576004356000526000602052604060002060018060a01b0361083f8160028401541691600384015416926111aa600482015491600581015460ff60068301549161115d60086007860154950161197f565b95604051998a998a5260208a015260408901528181161515606089015260081c161515608087015260a086015261119a60c0860160ff8316611a25565b60ff60e086019160081c16611a32565b61012080610100850152830190611a3f565b34610100576111ca36611879565b959791929690946111d9611d89565b6111e1611db9565b6040516111ed81611942565b6111f683611ddf565b611203604051918261195e565b83815260208101368560051b8701116101005785905b8560051b87018210611634575050815261123282611ddf565b61123f604051918261195e565b82815260208101368460051b8d0111610100578b905b8460051b8d01821061162457505060208201526001600160a01b038716604082018190526060820152600060808201819052600160a0830181905260c083019190915260e082018790526101008201526112b3886101208301611c66565b6112be36868b611a7f565b6101408201528a600052600060205260406000209080518051906001600160401b0382116105a2576020906112f38386611e31565b0183600052602060002060005b838110611607575050505060208101518051906001600160401b0382116105a257602060018501916113328484611e31565b0190600052602060002060005b8381106115f3575050505060408101516002830180546001600160a01b039283166001600160a01b03199182161790915560608301516003850180549190931691161790556080810151600483015560a081015160058301805460c084015161ff0090151560081b1692151560ff1661ffff199091161791909117905560ff199060e08101516006840155610100810151600784019260038210156105b85760ff9084541691161782556101208101519160048310156105b8576101409261140691611e6a565b01518051906001600160401b0382116105a2576114266008840154611908565b601f81116115be575b50602090601f831160011461154e576008929160009183611543575b50508160011b916000199060031b1c1916179101555b604051918060c0840160c085525260e08301939060005b81811061151d5750505081830360208301528083526001600160fb1b0381116101005761049c6020988b957f2289bc816cf73913b9dcda2c61f4061bf644b0ff8522b35e38773471988a586395846000805160206122198339815191529d879660051b908e84013760051b0197600060408601526060850152600160808501528a8489030160a08501528a60018060a01b038a169960018060a01b0316980191611e89565b909194602080600192838060a01b036115358a611808565b168152019601929101611478565b015190508e8061144b565b906008840160005260206000209160005b601f19851681106115a65750918391600193600895601f1981161061158d575b505050811b01910155611461565b015160001960f88460031b161c191690558e808061157f565b9192602060018192868501518155019401920161155f565b6115ed90600885016000526020600020601f850160051c8101916020861061059857601f0160051c0190611df6565b8d61142f565b60019060208451940193818401550161133f565b82516001600160a01b031681830155602090920191600101611300565b8135815260209182019101611255565b6020809161164184611808565b815201910190611219565b34610100576000366003190112610100576001546040516001600160a01b039091168152602090f35b346101005760208060031936011261010057600435600052600081526040600020604051916116a383611942565b6116ac82611bb3565b83526001906116bc828401611c0b565b93818101948552611731600860018060a01b03958660028201541660408501528660038201541660608501526004810154608085015260ff6005820154818116151560a0870152831c16151560c0850152600681015460e085015261074360ff60078301546107368282166101008901611c5a565b61014082015251935193604051936040850160408652825180915283606087019301916000905b82821061179957505050508381038285015281808651928381520195019160005b8281106117865785870386f35b8351875295810195928101928401611779565b835181168552938501939285019290860190611758565b34610100576040366003190112610100576100ec6117cc6117dc565b6117d4611d89565b600435611fbd565b602435906001600160a01b038216820361010057565b600435906001600160a01b038216820361010057565b35906001600160a01b038216820361010057565b9181601f84011215610100578235916001600160401b038311610100576020808501948460051b01011161010057565b9181601f84011215610100578235916001600160401b038311610100576020838186019501011161010057565b9060e060031983011261010057600435916001600160401b039160243583811161010057826118aa9160040161181c565b9390939260443582811161010057816118c59160040161181c565b9390939260643592608435918211610100576118e39160040161184c565b909160a4356001600160a01b0381168103610100579060c43560048110156101005790565b90600182811c92168015611938575b602083101461192257565b634e487b7160e01b600052602260045260246000fd5b91607f1691611917565b61016081019081106001600160401b038211176105a257604052565b90601f801991011681019081106001600160401b038211176105a257604052565b906040519182600082549261199384611908565b908184526001948581169081600014611a0257506001146119bf575b50506119bd9250038361195e565b565b9093915060005260209081600020936000915b8183106119ea5750506119bd935082010138806119af565b855488840185015294850194879450918301916119d2565b9150506119bd94506020925060ff191682840152151560051b82010138806119af565b9060038210156105b85752565b9060048210156105b85752565b919082519283825260005b848110611a6b575050826000602080949584010152601f8019910116010190565b602081830181015184830182015201611a4a565b9291926001600160401b0382116105a25760405191611aa8601f8201601f19166020018461195e565b829481845281830111610100578281602093846000960137010152565b600080516020612239833981519152546001600160a01b03163303611ae657565b60405163118cdaa760e01b8152336004820152602490fd5b6001600160a01b03908116908115611b595760008051602061223983398151915280546001600160a01b031981168417909155167f8be0079c531659141344cd1fd0a4f28419497f9722a3daafe3b4186f6b6457e0600080a3565b604051631e4fbdf760e01b815260006004820152602490fd5b60ff7ff0c57e16840df040f15088dc2f81fe391c3923bec73e23a9662efc9c229c6a005460401c1615611ba157565b604051631afcd79f60e31b8152600490fd5b9060405191828154918282526020928383019160005283600020936000905b828210611be8575050506119bd9250038361195e565b85546001600160a01b031684526001958601958895509381019390910190611bd2565b9060405191828154918282526020928383019160005283600020936000905b828210611c40575050506119bd9250038361195e565b855484526001958601958895509381019390910190611c2a565b60038210156105b85752565b60048210156105b85752565b9060009182528160205260408220604051611c8c81611942565b611c9582611bb3565b8152611ca360018301611c0b565b602082015260018060a01b03918260028201541691604081019283528360038301541660608201526004820154608082015260ff6005830154818116151560a084015260081c16151560c0820152600682015460e0820152610140611d2e6008600785015494611d1a60ff87166101008701611c5a565b61074360ff610120870197841c1687611c66565b9101528282511615611d5f5751936004851015611d4b5750511690565b634e487b7160e01b81526021600452602490fd5b5050508190565b91908201809211611d7357565b634e487b7160e01b600052601160045260246000fd5b6000805160206122598339815191526002815414611da75760029055565b604051633ee5aeb560e01b8152600490fd5b6001546001600160a01b03163303611dcd57565b60405163ea8e4eb560e01b8152600490fd5b6001600160401b0381116105a25760051b60200190565b818110611e01575050565b60008155600101611df6565b80546000825580611e1c575050565b6119bd91600052602060002090810190611df6565b906801000000000000000081116105a257815490808355818110611e5457505050565b6119bd9260005260206000209182019101611df6565b9060048110156105b85761ff0082549160081b169061ff001916179055565b908060209392818452848401376000828201840152601f01601f1916010190565b90611eb3611db9565b81600052600060205260408060002060018060a01b0380600283015416908115611fb55760ff600784015460081c169460049586811015611fa057600203611f90571603611f825760058101805460ff811615611f725760ff8160081c16611f625791602093916101007fc92510a4ac9a15b6edc75157859d271228f92b11d09d91200f705e8e44c34eee969461ff001916179055611f56600682015442611d66565b928391015551908152a2565b505050516328486b6360e11b8152fd5b5050505163549b9dbd60e01b8152fd5b505163ea8e4eb560e01b8152fd5b84516322d4f12560e01b81528690fd5b602187634e487b7160e01b6000525260246000fd5b505050505050565b60008181526020819052604080822060028101546001600160a01b039290831615611fb557600782019182549260ff8460081c1693600494858110156121db576002036121cb576103009061ff001916179055856000805160206122198339815191526020845160038152a283806003830154169716968703611f8257600581015460ff811690816121bc575b506121ae578281015442106121a0576001938482018054156121905790829161209561207d889c9b9a9998979695611bb3565b9161209061208a82611c0b565b95611e0d565b611e0d565b869a5b6120cd575b5050505050507f0ddddc48b57dd67f8fa2ff05c78034b578c31ef5caa05b03d2ca16feadbbb98f919293945080a3565b80518b101561218b57816120e18c836121ee565b51166120ed8c856121ee565b51813b156121875788809260648d9389519586938492632142170760e11b84528d30908501526024978885015260448401525af1801561217d57612154575b50506000198b14612141579985019985612098565b634e487b7160e01b875260118552602487fd5b6001600160401b03821161216c57508452388061212c565b634e487b7160e01b89526041875288fd5b86513d8b823e3d90fd5b8880fd5b61209d565b505050516376e2446360e01b8152fd5b5051636100d92960e11b8152fd5b505163549b9dbd60e01b8152fd5b60ff915060081c16153861204a565b505050516322d4f12560e01b8152fd5b634e487b7160e01b885260218652602488fd5b80518210156122025760209160051b010190565b634e487b7160e01b600052603260045260246000fdfe199c49764c24c272ab05711f746ea69945084e537b524515f05902c3c9a7e9e89016d09d72d40fdae2fd8ceac6b6234c7706214fd39c1cd1e609a0528c1993009b779b17422d0df92223018b32b4d1fa46e071723d6817e2486d003becc55f00a2646970667358221220aae7ff0babf0f2e6e5fba2f18e16d448bbd26a2265b8cd2747692683481685c964736f6c63430008140033",
  "devdoc": {
    "errors": {
      "InvalidInitialization()": [
        {
          "details": "The contract is already initialized."
        }
      ],
      "NotInitializing()": [
        {
          "details": "The contract is not initializing."
        }
      ],
      "OwnableInvalidOwner(address)": [
        {
          "details": "The owner is not a valid owner account. (eg. `address(0)`)"
        }
      ],
      "OwnableUnauthorizedAccount(address)": [
        {
          "details": "The caller account is not authorized to perform an operation."
        }
      ],
      "ReentrancyGuardReentrantCall()": [
        {
          "details": "Unauthorized reentrant call."
        }
      ]
    },
    "events": {
      "Initialized(uint64)": {
        "details": "Triggered when the contract has been initialized or reinitialized."
      }
    },
    "kind": "dev",
    "methods": {
      "onERC721Received(address,address,uint256,bytes)": {
        "details": "See {IERC721Receiver-onERC721Received}. Always returns `IERC721Receiver.onERC721Received.selector`."
      },
      "owner()": {
        "details": "Returns the address of the current owner."
      },
      "renounceOwnership()": {
        "details": "Leaves the contract without owner. It will not be possible to call `onlyOwner` functions. Can only be called by the current owner. NOTE: Renouncing ownership will leave the contract without an owner, thereby disabling any functionality that is only available to the owner."
      },
      "transferOwnership(address)": {
        "details": "Transfers ownership of the contract to a new account (`newOwner`). Can only be called by the current owner."
      }
    },
    "version": 1
  },
  "userdoc": {
    "kind": "user",
    "methods": {},
    "version": 1
  },
  "storageLayout": {
    "storage": [
      {
        "astId": 42181,
        "contract": "contracts/timelock/TimeLockERC721.sol:TimelockERC721",
        "label": "timelocks",
        "offset": 0,
        "slot": "0",
        "type": "t_mapping(t_uint256,t_struct(TimelockInfo)42126_storage)"
      },
      {
        "astId": 42183,
        "contract": "contracts/timelock/TimeLockERC721.sol:TimelockERC721",
        "label": "routerAddresses",
        "offset": 0,
        "slot": "1",
        "type": "t_address"
      }
    ],
    "types": {
      "t_address": {
        "encoding": "inplace",
        "label": "address",
        "numberOfBytes": "20"
      },
      "t_array(t_address)dyn_storage": {
        "base": "t_address",
        "encoding": "dynamic_array",
        "label": "address[]",
        "numberOfBytes": "32"
      },
      "t_array(t_uint256)dyn_storage": {
        "base": "t_uint256",
        "encoding": "dynamic_array",
        "label": "uint256[]",
        "numberOfBytes": "32"
      },
      "t_bool": {
        "encoding": "inplace",
        "label": "bool",
        "numberOfBytes": "1"
      },
      "t_enum(LockStatus)44777": {
        "encoding": "inplace",
        "label": "enum TimelockHelper.LockStatus",
        "numberOfBytes": "1"
      },
      "t_enum(LockType)44772": {
        "encoding": "inplace",
        "label": "enum TimelockHelper.LockType",
        "numberOfBytes": "1"
      },
      "t_mapping(t_uint256,t_struct(TimelockInfo)42126_storage)": {
        "encoding": "mapping",
        "key": "t_uint256",
        "label": "mapping(uint256 => struct TimelockERC721.TimelockInfo)",
        "numberOfBytes": "32",
        "value": "t_struct(TimelockInfo)42126_storage"
      },
      "t_string_storage": {
        "encoding": "bytes",
        "label": "string",
        "numberOfBytes": "32"
      },
      "t_struct(TimelockInfo)42126_storage": {
        "encoding": "inplace",
        "label": "struct TimelockERC721.TimelockInfo",
        "members": [
          {
            "astId": 42102,
            "contract": "contracts/timelock/TimeLockERC721.sol:TimelockERC721",
            "label": "tokenAddresses",
            "offset": 0,
            "slot": "0",
            "type": "t_array(t_address)dyn_storage"
          },
          {
            "astId": 42105,
            "contract": "contracts/timelock/TimeLockERC721.sol:TimelockERC721",
            "label": "tokenIds",
            "offset": 0,
            "slot": "1",
            "type": "t_array(t_uint256)dyn_storage"
          },
          {
            "astId": 42107,
            "contract": "contracts/timelock/TimeLockERC721.sol:TimelockERC721",
            "label": "owner",
            "offset": 0,
            "slot": "2",
            "type": "t_address"
          },
          {
            "astId": 42109,
            "contract": "contracts/timelock/TimeLockERC721.sol:TimelockERC721",
            "label": "recipient",
            "offset": 0,
            "slot": "3",
            "type": "t_address"
          },
          {
            "astId": 42111,
            "contract": "contracts/timelock/TimeLockERC721.sol:TimelockERC721",
            "label": "unlockTime",
            "offset": 0,
            "slot": "4",
            "type": "t_uint256"
          },
          {
            "astId": 42113,
            "contract": "contracts/timelock/TimeLockERC721.sol:TimelockERC721",
            "label": "isSoftLock",
            "offset": 0,
            "slot": "5",
            "type": "t_bool"
          },
          {
            "astId": 42115,
            "contract": "contracts/timelock/TimeLockERC721.sol:TimelockERC721",
            "label": "isUnlocked",
            "offset": 1,
            "slot": "5",
            "type": "t_bool"
          },
          {
            "astId": 42117,
            "contract": "contracts/timelock/TimeLockERC721.sol:TimelockERC721",
            "label": "bufferTime",
            "offset": 0,
            "slot": "6",
            "type": "t_uint256"
          },
          {
            "astId": 42120,
            "contract": "contracts/timelock/TimeLockERC721.sol:TimelockERC721",
            "label": "lockType",
            "offset": 0,
            "slot": "7",
            "type": "t_enum(LockType)44772"
          },
          {
            "astId": 42123,
            "contract": "contracts/timelock/TimeLockERC721.sol:TimelockERC721",
            "label": "lockStatus",
            "offset": 1,
            "slot": "7",
            "type": "t_enum(LockStatus)44777"
          },
          {
            "astId": 42125,
            "contract": "contracts/timelock/TimeLockERC721.sol:TimelockERC721",
            "label": "name",
            "offset": 0,
            "slot": "8",
            "type": "t_string_storage"
          }
        ],
        "numberOfBytes": "288"
      },
      "t_uint256": {
        "encoding": "inplace",
        "label": "uint256",
        "numberOfBytes": "32"
      }
    }
  }
}