{
  "address": "0x2BA6fB3b661Bdd0C72132686152edb2F4E2Ff5eD",
  "abi": [
    {
      "inputs": [],
      "name": "AlreadyUnlocked",
      "type": "error"
    },
    {
      "inputs": [],
      "name": "InvalidInitialization",
      "type": "error"
    },
    {
      "inputs": [],
      "name": "NativeTokenTransferFailed",
      "type": "error"
    },
    {
      "inputs": [],
      "name": "NoFundsToWithdraw",
      "type": "error"
    },
    {
      "inputs": [],
      "name": "NotAuthorized",
      "type": "error"
    },
    {
      "inputs": [],
      "name": "NotInitializing",
      "type": "error"
    },
    {
      "inputs": [],
      "name": "NotOwner",
      "type": "error"
    },
    {
      "inputs": [],
      "name": "NotSoftTimelock",
      "type": "error"
    },
    {
      "inputs": [
        {
          "internalType": "address",
          "name": "owner",
          "type": "address"
        }
      ],
      "name": "OwnableInvalidOwner",
      "type": "error"
    },
    {
      "inputs": [
        {
          "internalType": "address",
          "name": "account",
          "type": "address"
        }
      ],
      "name": "OwnableUnauthorizedAccount",
      "type": "error"
    },
    {
      "inputs": [],
      "name": "ReentrancyGuardReentrantCall",
      "type": "error"
    },
    {
      "inputs": [
        {
          "internalType": "address",
          "name": "token",
          "type": "address"
        }
      ],
      "name": "SafeERC20FailedOperation",
      "type": "error"
    },
    {
      "inputs": [],
      "name": "StillLocked",
      "type": "error"
    },
    {
      "inputs": [],
      "name": "TimelockNotLive",
      "type": "error"
    },
    {
      "anonymous": false,
      "inputs": [
        {
          "indexed": true,
          "internalType": "uint256",
          "name": "timelockId",
          "type": "uint256"
        },
        {
          "indexed": false,
          "internalType": "enum TimelockHelper.LockStatus",
          "name": "newStatus",
          "type": "uint8"
        }
      ],
      "name": "ChangeStatus",
      "type": "event"
    },
    {
      "anonymous": false,
      "inputs": [
        {
          "indexed": true,
          "internalType": "uint256",
          "name": "timelockId",
          "type": "uint256"
        },
        {
          "indexed": true,
          "internalType": "address",
          "name": "recipient",
          "type": "address"
        }
      ],
      "name": "FundsWithdrawn",
      "type": "event"
    },
    {
      "anonymous": false,
      "inputs": [
        {
          "indexed": false,
          "internalType": "uint64",
          "name": "version",
          "type": "uint64"
        }
      ],
      "name": "Initialized",
      "type": "event"
    },
    {
      "anonymous": false,
      "inputs": [
        {
          "indexed": true,
          "internalType": "address",
          "name": "previousOwner",
          "type": "address"
        },
        {
          "indexed": true,
          "internalType": "address",
          "name": "newOwner",
          "type": "address"
        }
      ],
      "name": "OwnershipTransferred",
      "type": "event"
    },
    {
      "anonymous": false,
      "inputs": [
        {
          "indexed": true,
          "internalType": "uint256",
          "name": "timelockId",
          "type": "uint256"
        },
        {
          "indexed": false,
          "internalType": "uint256",
          "name": "newUnlockTime",
          "type": "uint256"
        }
      ],
      "name": "SoftTimelockUnlocked",
      "type": "event"
    },
    {
      "anonymous": false,
      "inputs": [
        {
          "indexed": true,
          "internalType": "uint256",
          "name": "timelockId",
          "type": "uint256"
        },
        {
          "indexed": true,
          "internalType": "address",
          "name": "owner",
          "type": "address"
        },
        {
          "indexed": true,
          "internalType": "address",
          "name": "recipient",
          "type": "address"
        },
        {
          "indexed": false,
          "internalType": "address[]",
          "name": "tokenAddresses",
          "type": "address[]"
        },
        {
          "indexed": false,
          "internalType": "uint256[]",
          "name": "amounts",
          "type": "uint256[]"
        },
        {
          "indexed": false,
          "internalType": "uint256",
          "name": "unlockTime",
          "type": "uint256"
        },
        {
          "indexed": false,
          "internalType": "uint256",
          "name": "bufferTime",
          "type": "uint256"
        },
        {
          "indexed": false,
          "internalType": "enum TimelockHelper.LockType",
          "name": "lockType",
          "type": "uint8"
        },
        {
          "indexed": false,
          "internalType": "string",
          "name": "name",
          "type": "string"
        }
      ],
      "name": "TimelockCreated",
      "type": "event"
    },
    {
      "anonymous": false,
      "inputs": [
        {
          "indexed": true,
          "internalType": "uint256",
          "name": "timelockId",
          "type": "uint256"
        },
        {
          "indexed": false,
          "internalType": "string",
          "name": "giftName",
          "type": "string"
        },
        {
          "indexed": true,
          "internalType": "address",
          "name": "recipient",
          "type": "address"
        }
      ],
      "name": "TimelockGiftName",
      "type": "event"
    },
    {
      "inputs": [
        {
          "internalType": "uint256",
          "name": "id",
          "type": "uint256"
        },
        {
          "internalType": "address[]",
          "name": "tokens",
          "type": "address[]"
        },
        {
          "internalType": "uint256[]",
          "name": "amounts",
          "type": "uint256[]"
        },
        {
          "internalType": "uint256",
          "name": "bufferTime",
          "type": "uint256"
        },
        {
          "internalType": "string",
          "name": "name",
          "type": "string"
        },
        {
          "internalType": "address",
          "name": "caller",
          "type": "address"
        },
        {
          "internalType": "enum TimelockHelper.LockStatus",
          "name": "lockStatus",
          "type": "uint8"
        }
      ],
      "name": "createSoftTimelock",
      "outputs": [],
      "stateMutability": "payable",
      "type": "function"
    },
    {
      "inputs": [
        {
          "internalType": "uint256",
          "name": "id",
          "type": "uint256"
        },
        {
          "internalType": "address[]",
          "name": "tokens",
          "type": "address[]"
        },
        {
          "internalType": "uint256[]",
          "name": "amounts",
          "type": "uint256[]"
        },
        {
          "internalType": "uint256",
          "name": "duration",
          "type": "uint256"
        },
        {
          "internalType": "string",
          "name": "name",
          "type": "string"
        },
        {
          "internalType": "address",
          "name": "caller",
          "type": "address"
        },
        {
          "internalType": "enum TimelockHelper.LockStatus",
          "name": "lockStatus",
          "type": "uint8"
        }
      ],
      "name": "createTimelock",
      "outputs": [],
      "stateMutability": "payable",
      "type": "function"
    },
    {
      "inputs": [
        {
          "internalType": "uint256",
          "name": "id",
          "type": "uint256"
        },
        {
          "internalType": "address[]",
          "name": "tokens",
          "type": "address[]"
        },
        {
          "internalType": "uint256[]",
          "name": "amounts",
          "type": "uint256[]"
        },
        {
          "internalType": "uint256",
          "name": "duration",
          "type": "uint256"
        },
        {
          "internalType": "address",
          "name": "recipient",
          "type": "address"
        },
        {
          "internalType": "string",
          "name": "name",
          "type": "string"
        },
        {
          "internalType": "string",
          "name": "giftName",
          "type": "string"
        },
        {
          "internalType": "address",
          "name": "owner",
          "type": "address"
        },
        {
          "internalType": "enum TimelockHelper.LockStatus",
          "name": "lockStatus",
          "type": "uint8"
        }
      ],
      "name": "createTimelockedGift",
      "outputs": [],
      "stateMutability": "payable",
      "type": "function"
    },
    {
      "inputs": [
        {
          "internalType": "uint256",
          "name": "id",
          "type": "uint256"
        }
      ],
      "name": "getData",
      "outputs": [
        {
          "internalType": "address[]",
          "name": "",
          "type": "address[]"
        },
        {
          "internalType": "uint256[]",
          "name": "",
          "type": "uint256[]"
        }
      ],
      "stateMutability": "view",
      "type": "function"
    },
    {
      "inputs": [
        {
          "internalType": "uint256",
          "name": "id",
          "type": "uint256"
        }
      ],
      "name": "getStatus",
      "outputs": [
        {
          "internalType": "enum TimelockHelper.LockStatus",
          "name": "",
          "type": "uint8"
        },
        {
          "internalType": "address",
          "name": "",
          "type": "address"
        }
      ],
      "stateMutability": "view",
      "type": "function"
    },
    {
      "inputs": [
        {
          "internalType": "uint256",
          "name": "id",
          "type": "uint256"
        }
      ],
      "name": "getTimelockDetails",
      "outputs": [
        {
          "components": [
            {
              "internalType": "address[]",
              "name": "tokenAddresses",
              "type": "address[]"
            },
            {
              "internalType": "uint256[]",
              "name": "amounts",
              "type": "uint256[]"
            },
            {
              "internalType": "uint256",
              "name": "unlockTime",
              "type": "uint256"
            },
            {
              "internalType": "address",
              "name": "owner",
              "type": "address"
            },
            {
              "internalType": "address",
              "name": "recipient",
              "type": "address"
            },
            {
              "internalType": "bool",
              "name": "isSoftLock",
              "type": "bool"
            },
            {
              "internalType": "bool",
              "name": "isUnlocked",
              "type": "bool"
            },
            {
              "internalType": "uint256",
              "name": "bufferTime",
              "type": "uint256"
            },
            {
              "internalType": "enum TimelockHelper.LockType",
              "name": "lockType",
              "type": "uint8"
            },
            {
              "internalType": "enum TimelockHelper.LockStatus",
              "name": "lockStatus",
              "type": "uint8"
            },
            {
              "internalType": "string",
              "name": "name",
              "type": "string"
            }
          ],
          "internalType": "struct TimelockERC20.TimelockInfo",
          "name": "",
          "type": "tuple"
        }
      ],
      "stateMutability": "view",
      "type": "function"
    },
    {
      "inputs": [
        {
          "internalType": "address",
          "name": "initialOwner",
          "type": "address"
        },
        {
          "internalType": "address",
          "name": "_routerAddresses",
          "type": "address"
        }
      ],
      "name": "initialize",
      "outputs": [],
      "stateMutability": "nonpayable",
      "type": "function"
    },
    {
      "inputs": [],
      "name": "owner",
      "outputs": [
        {
          "internalType": "address",
          "name": "",
          "type": "address"
        }
      ],
      "stateMutability": "view",
      "type": "function"
    },
    {
      "inputs": [],
      "name": "renounceOwnership",
      "outputs": [],
      "stateMutability": "nonpayable",
      "type": "function"
    },
    {
      "inputs": [],
      "name": "routerAddresses",
      "outputs": [
        {
          "internalType": "address",
          "name": "",
          "type": "address"
        }
      ],
      "stateMutability": "view",
      "type": "function"
    },
    {
      "inputs": [
        {
          "internalType": "uint256",
          "name": "",
          "type": "uint256"
        }
      ],
      "name": "timelocks",
      "outputs": [
        {
          "internalType": "uint256",
          "name": "unlockTime",
          "type": "uint256"
        },
        {
          "internalType": "address",
          "name": "owner",
          "type": "address"
        },
        {
          "internalType": "address",
          "name": "recipient",
          "type": "address"
        },
        {
          "internalType": "bool",
          "name": "isSoftLock",
          "type": "bool"
        },
        {
          "internalType": "bool",
          "name": "isUnlocked",
          "type": "bool"
        },
        {
          "internalType": "uint256",
          "name": "bufferTime",
          "type": "uint256"
        },
        {
          "internalType": "enum TimelockHelper.LockType",
          "name": "lockType",
          "type": "uint8"
        },
        {
          "internalType": "enum TimelockHelper.LockStatus",
          "name": "lockStatus",
          "type": "uint8"
        },
        {
          "internalType": "string",
          "name": "name",
          "type": "string"
        }
      ],
      "stateMutability": "view",
      "type": "function"
    },
    {
      "inputs": [
        {
          "internalType": "address",
          "name": "newOwner",
          "type": "address"
        }
      ],
      "name": "transferOwnership",
      "outputs": [],
      "stateMutability": "nonpayable",
      "type": "function"
    },
    {
      "inputs": [
        {
          "internalType": "uint256",
          "name": "id",
          "type": "uint256"
        },
        {
          "internalType": "address",
          "name": "caller",
          "type": "address"
        }
      ],
      "name": "unlockSoftTimelock",
      "outputs": [],
      "stateMutability": "nonpayable",
      "type": "function"
    },
    {
      "inputs": [
        {
          "internalType": "uint256",
          "name": "id",
          "type": "uint256"
        },
        {
          "internalType": "address",
          "name": "caller",
          "type": "address"
        }
      ],
      "name": "withdraw",
      "outputs": [],
      "stateMutability": "nonpayable",
      "type": "function"
    },
    {
      "stateMutability": "payable",
      "type": "receive"
    }
  ],
  "transactionHash": "0x1d5ad86fc0bee57caddb5232c94458338d2f3d3ecd393d832ff8890c2ec26f65",
  "args": [],
  "numDeployments": 1,
  "solcInputHash": "f2556dfeb12466a7e876316d5b86d684",
  "bytecode": "0x60808060405234610016576122e4908161001c8239f35b600080fdfe6080604052600436101561001b575b361561001957600080fd5b005b60003560e01c8062f714ce146117405780630178fe3f14611605578063034f91a2146115dc578063062d71b81461114e5780630d7e149f1461109157806312d01b0914610abc578063485cc9551461094a5780635c622a0e14610910578063715018a6146108a65780638da5cb5b14610870578063aadcd3ba1461061c578063b3faa4a814610127578063f2fde38b146100fe5763fdfd65300361000e57346100f95760403660031901126100f9576100e56100d561176c565b6100dd611d25565b600435611e25565b600160008051602061228f83398151915255005b600080fd5b346100f95760203660031901126100f95761001961011a611782565b610122611a0f565b611a48565b61016161015961013636611809565b979361014b9b939296999b9a9197959a611d25565b610153611d55565b42611cb0565b943691611cee565b9160405161016e816118d2565b61017782611d7b565b61018460405191826118ee565b82815260208101368460051b8601116100f95784905b8460051b8601821061060457505081526101b389611d7b565b6101c060405191826118ee565b89815260208101368b60051b8b01116100f95789905b8b60051b8b0182106105f45750506020820152604081018590526001600160a01b038616606082018190526080820152600060a0820181905260c0820181905260e08201819052610100820152610231876101208301611bb0565b8361014082015289600052600060205260406000209080518051906001600160401b038211610597576020906102678386611dcd565b0183600052602060002060005b8381106105d7575050505060208101518051906001600160401b03821161059757602060018501916102a68484611dcd565b0190600052602060002060005b8381106105c357505050506040810151600283015560608101516003830180546001600160a01b0319166001600160a01b03928316179055608082015160048401805460a08086015160c08701516001600160b01b0319909316949095169390931793151590921b60ff60a01b169290921790151560a81b60ff60a81b1617905560e08101516005830155600682019061010081015160038110156105ad5760ff801984541691161782556101208101519160048310156105ad576101409261037b91611e06565b01518051906001600160401b0382116105975761039b6007840154611898565b601f8111610557575b50602090601f83116001146104e75760079291600091836104dc575b50508160011b916000199060031b1c1916179101555b604051908060c0830160c084525260e08201929060005b8181106104b65750505080820360208201528782526001600160fb1b0388116100f957806104918a947f2289bc816cf73913b9dcda2c61f4061bf644b0ff8522b35e38773471988a5863948b60209b60008051602061224f8339815191529d60051b908d84013760051b019660408401526000606084015260006080840152898388030160a08401528960018060a01b0389169860018060a01b03169701906119cf565b0390a46104a160405180926119c2565ba2600160008051602061228f83398151915255005b909193602080600192838060a01b036104ce89611798565b1681520195019291016103ed565b015190508d806103c0565b906007840160005260206000209160005b601f198516811061053f5750918391600193600795601f19811610610526575b505050811b019101556103d6565b015160001960f88460031b161c191690558d8080610518565b919260206001819286850151815501940192016104f8565b61058790600785016000526020600020601f850160051c8101916020861061058d575b601f0160051c0190611d92565b8c6103a4565b909150819061057a565b634e487b7160e01b600052604160045260246000fd5b634e487b7160e01b600052602160045260246000fd5b6001906020845194019381840155016102b3565b82516001600160a01b031681830155602090920191600101610274565b81358152602091820191016101d6565b6020809161061184611798565b81520191019061019a565b346100f95760203660031901126100f957606061014060405161063e816118d2565b8281528260208201526000604082015260008382015260006080820152600060a0820152600060c0820152600060e0820152600061010082015260006101208201520152600435600052600060205260406000206107416007604051926106a4846118d2565b6106ad81611afd565b84526106bb60018201611b55565b60208501526002810154604085015260018060a01b03600382015416606085015260ff600482015460018060a01b0381166080870152818160a01c16151560a087015260a81c16151560c0850152600581015460e085015261073b60ff600683015461072d8282166101008901611ba4565b60081c166101208601611bb0565b0161190f565b6101408201526040516020815281519161016060208301526101808201835180915260206101a0840194019060005b81811061085157505050602081810151838503601f1901604085015280518086529482019491019060005b81811061083b57848061083788610140886040810151606086015260018060a01b03606082015116608086015260018060a01b0360808201511660a086015260a0810151151560c086015260c0810151151560e086015260e08101516101008601526108116101008201516101208701906119b5565b610823610120820151838701906119c2565b0151838203601f19016101608501526119cf565b0390f35b825186526020958601959092019160010161079b565b82516001600160a01b0316865260209586019590920191600101610770565b346100f95760003660031901126100f95760008051602061226f833981519152546040516001600160a01b039091168152602090f35b346100f95760003660031901126100f9576108bf611a0f565b60008051602061226f83398151915280546001600160a01b031981169091556000906001600160a01b03167f8be0079c531659141344cd1fd0a4f28419497f9722a3daafe3b4186f6b6457e08280a3005b346100f95760203660031901126100f957604061092e600435611bbc565b61093a835180936119c2565b6001600160a01b03166020820152f35b346100f95760403660031901126100f957610963611782565b61096b61176c565b7ff0c57e16840df040f15088dc2f81fe391c3923bec73e23a9662efc9c229c6a009081549060ff8260401c1615916001600160401b03811694851580610ab5575b60018097149081610aab575b159081610aa2575b50610a905767ffffffffffffffff198216861785556109f09184610a71575b506109e8611abc565b610122611abc565b6109f8611abc565b610a00611abc565b60008051602061228f83398151915284905583546001600160a01b0319166001600160a01b0391909116178355610a3357005b805468ff0000000000000000191690556040519081527fc7f505b2f371ae2175ee4913f4499e1f2633a7b5936321eed1cdaeb6115181d290602090a1005b68ffffffffffffffffff191668010000000000000001178555866109df565b60405163f92ee8a960e01b8152600490fd5b905015876109c0565b303b1591506109b8565b50836109ac565b6101203660031901126100f9576024356001600160401b0381116100f957610ae89036906004016117ac565b906044356001600160401b0381116100f957610b089036906004016117ac565b9091608435906001600160a01b03821682036100f95760a4356001600160401b0381116100f957610b3d9036906004016117dc565b60c4929192356001600160401b0381116100f957610b5f9036906004016117dc565b96909760e4359460018060a01b03861686036100f95760046101043510156100f957610ba190610b8d611d25565b610b95611d55565b61015960643542611cb0565b93604051610bae816118d2565b610bb783611d7b565b610bc460405191826118ee565b83815260208101368560051b8501116100f95783905b8560051b850182106110795750508152610bf389611d7b565b610c0060405191826118ee565b89815260208101368b60051b8701116100f95785905b8b60051b870182106110695750506020820152604081018590526001600160a01b03878116606083015288166080820152600060a0820181905260c0820181905260e08201526002610100820152610c75610104356101208301611bb0565b85610140820152600435600052600060205260406000209080518051906001600160401b03821161059757602090610cad8386611dcd565b0183600052602060002060005b83811061104c575050505060208101518051906001600160401b0382116105975760206001850191610cec8484611dcd565b0190600052602060002060005b83811061103857505050506040810151600283015560608101516003830180546001600160a01b0319166001600160a01b03928316179055608082015160048401805460a08086015160c08701516001600160b01b0319909316949095169390931793151590921b60ff60a01b169290921790151560a81b60ff60a81b1617905560e08101516005830155600682019061010081015160038110156105ad5760ff801984541691161782556101208101519160048310156105ad5761014092610dc191611e06565b01518051906001600160401b03821161059757610de16007840154611898565b601f8111611003575b50602090601f8311600114610f93576007929160009183610f88575b50508160011b916000199060031b1c1916179101555b604051918060c0840160c085525260e08301919060005b818110610f625750505081810360208301528781526001600160fb1b0388116100f957877f2289bc816cf73913b9dcda2c61f4061bf644b0ff8522b35e38773471988a5863937f9b49bb064023c0d8c7d1b2bb1fc1fee4de356877d5192d3388f641d2227efaa89960051b90602084013760051b01926040820152600060608201526002608082015260208184030160a082015280610eeb60018060a01b0388169660018060a01b03169560206004359601906119cf565b0390a4604051610efe81610104356119c2565b60008051602061224f833981519152602060043592a2826040519460208652816020870152604086013760006040848601015260018060a01b03169260408160043594601f80199101168101030190a3600160008051602061228f83398151915255005b909192602080600192838060a01b03610f7a88611798565b168152019401929101610e33565b015190508e80610e06565b906007840160005260206000209160005b601f1985168110610feb5750918391600193600795601f19811610610fd2575b505050811b01910155610e1c565b015160001960f88460031b161c191690558e8080610fc4565b91926020600181928685015181550194019201610fa4565b61103290600785016000526020600020601f850160051c8101916020861061058d57601f0160051c0190611d92565b8d610dea565b600190602084519401938184015501610cf9565b82516001600160a01b031681830155602090920191600101610cba565b8135815260209182019101610c16565b6020809161108684611798565b815201910190610bda565b346100f95760203660031901126100f95760043560005260006020526040600020600281015461083760018060a01b0361113c8160038601541694600481015460ff6005830154916110ea60076006860154950161190f565b95604051998a998a5260208a015281166040890152818160a01c161515606089015260a81c161515608087015260a086015261112c60c0860160ff83166119b5565b60ff60e086019160081c166119c2565b610120806101008501528301906119cf565b61117c61115a36611809565b96939498999161116d9893919698611d25565b611175611d55565b3691611cee565b91604051611189816118d2565b61119282611d7b565b61119f60405191826118ee565b82815260208101368460051b8601116100f95784905b8460051b860182106115c457505081526111ce89611d7b565b6111db60405191826118ee565b898152602081018a60051b8a01903682116100f9578a905b8282106115b45750505060208201526000604082018190526001600160a01b038716606083018190526080830152600160a0830181905260c083019190915260e0820186905261010082015261124d876101208301611bb0565b8361014082015289600052600060205260406000209080518051906001600160401b038211610597576020906112838386611dcd565b0183600052602060002060005b838110611597575050505060208101518051906001600160401b03821161059757602060018501916112c28484611dcd565b0190600052602060002060005b83811061158357505050506040810151600283015560608101516003830180546001600160a01b0319166001600160a01b03928316179055608082015160048401805460a08086015160c08701516001600160b01b0319909316949095169390931793151590921b60ff60a01b169290921790151560a81b60ff60a81b1617905560e08101516005830155600682019061010081015160038110156105ad5760ff801984541691161782556101208101519160048310156105ad576101409261139791611e06565b01518051906001600160401b038211610597576113b76007840154611898565b601f811161154e575b50602090601f83116001146114de5760079291600091836114d3575b50508160011b916000199060031b1c1916179101555b604051908060c0830160c084525260e08201929060005b8181106114ad5750505080820360208201528782526001600160fb1b0388116100f957806104918a947f2289bc816cf73913b9dcda2c61f4061bf644b0ff8522b35e38773471988a5863948b60209b60008051602061224f8339815191529d60051b908d84013760051b019660006040850152606084015260016080840152898388030160a08401528960018060a01b0389169860018060a01b03169701906119cf565b909193602080600192838060a01b036114c589611798565b168152019501929101611409565b015190508d806113dc565b906007840160005260206000209160005b601f19851681106115365750918391600193600795601f1981161061151d575b505050811b019101556113f2565b015160001960f88460031b161c191690558d808061150f565b919260206001819286850151815501940192016114ef565b61157d90600785016000526020600020601f850160051c8101916020861061058d57601f0160051c0190611d92565b8c6113c0565b6001906020845194019381840155016112cf565b82516001600160a01b031681830155602090920191600101611290565b81358152602091820191016111f3565b602080916115d184611798565b8152019101906111b5565b346100f95760003660031901126100f9576001546040516001600160a01b039091168152602090f35b346100f9576020806003193601126100f95760043560005260008152604060002060405191611633836118d2565b61163c82611afd565b835260019061164c828401611b55565b93818101948552600284015460408201526116c1600760018060a01b039586600382015416606085015260ff60048201548881166080870152818160a01c16151560a087015260a81c16151560c0850152600581015460e085015261073b60ff600683015461072d8282166101008901611ba4565b61014082015251935193604051936040850160408652825180915283606087019301916000905b82821061172957505050508381038285015281808651928381520195019160005b8281106117165785870386f35b8351875295810195928101928401611709565b8351811685529385019392850192908601906116e8565b346100f95760403660031901126100f9576100e561175c61176c565b611764611d25565b600435611f6b565b602435906001600160a01b03821682036100f957565b600435906001600160a01b03821682036100f957565b35906001600160a01b03821682036100f957565b9181601f840112156100f9578235916001600160401b0383116100f9576020808501948460051b0101116100f957565b9181601f840112156100f9578235916001600160401b0383116100f957602083818601950101116100f957565b9060e06003198301126100f957600435916001600160401b03916024358381116100f9578261183a916004016117ac565b939093926044358281116100f95781611855916004016117ac565b93909392606435926084359182116100f957611873916004016117dc565b909160a4356001600160a01b03811681036100f9579060c43560048110156100f95790565b90600182811c921680156118c8575b60208310146118b257565b634e487b7160e01b600052602260045260246000fd5b91607f16916118a7565b61016081019081106001600160401b0382111761059757604052565b90601f801991011681019081106001600160401b0382111761059757604052565b906040519182600082549261192384611898565b908184526001948581169081600014611992575060011461194f575b505061194d925003836118ee565b565b9093915060005260209081600020936000915b81831061197a57505061194d9350820101388061193f565b85548884018501529485019487945091830191611962565b91505061194d94506020925060ff191682840152151560051b820101388061193f565b9060038210156105ad5752565b9060048210156105ad5752565b919082519283825260005b8481106119fb575050826000602080949584010152601f8019910116010190565b6020818301810151848301820152016119da565b60008051602061226f833981519152546001600160a01b03163303611a3057565b60405163118cdaa760e01b8152336004820152602490fd5b6001600160a01b03908116908115611aa35760008051602061226f83398151915280546001600160a01b031981168417909155167f8be0079c531659141344cd1fd0a4f28419497f9722a3daafe3b4186f6b6457e0600080a3565b604051631e4fbdf760e01b815260006004820152602490fd5b60ff7ff0c57e16840df040f15088dc2f81fe391c3923bec73e23a9662efc9c229c6a005460401c1615611aeb57565b604051631afcd79f60e31b8152600490fd5b9060405191828154918282526020928383019160005283600020936000905b828210611b325750505061194d925003836118ee565b85546001600160a01b031684526001958601958895509381019390910190611b1c565b9060405191828154918282526020928383019160005283600020936000905b828210611b8a5750505061194d925003836118ee565b855484526001958601958895509381019390910190611b74565b60038210156105ad5752565b60048210156105ad5752565b9060009182528160205260408220604051611bd6816118d2565b611bdf82611afd565b8152611bed60018301611b55565b60208201526002820154604082015260018060a01b039182600382015416916060810192835260ff60048301548581166080840152818160a01c16151560a084015260a81c16151560c0820152600582015460e0820152610140611c786007600685015494611c6360ff87166101008701611ba4565b61073b60ff61012087019760081c1687611bb0565b9101528282511615611ca95751936004851015611c955750511690565b634e487b7160e01b81526021600452602490fd5b5050508190565b91908201809211611cbd57565b634e487b7160e01b600052601160045260246000fd5b6001600160401b03811161059757601f01601f191660200190565b929192611cfa82611cd3565b91611d0860405193846118ee565b8294818452818301116100f9578281602093846000960137010152565b60008051602061228f8339815191526002815414611d435760029055565b604051633ee5aeb560e01b8152600490fd5b6001546001600160a01b03163303611d6957565b60405163ea8e4eb560e01b8152600490fd5b6001600160401b0381116105975760051b60200190565b818110611d9d575050565b60008155600101611d92565b80546000825580611db8575050565b61194d91600052602060002090810190611d92565b9068010000000000000000811161059757815490808355818110611df057505050565b61194d9260005260206000209182019101611d92565b9060048110156105ad5761ff0082549160081b169061ff001916179055565b90611e2e611d55565b816000526000602052604090816000209060018060a01b0390816003840154168015611f395760ff600685015460081c169060049182811015611f2457600203611f15578185019384549360ff8560a01c1615611f05571603611ef75760ff8260a81c16611ee9575060ff60a81b1916600160a81b17905560058101547fc92510a4ac9a15b6edc75157859d271228f92b11d09d91200f705e8e44c34eee92602092600292611edd9042611cb0565b928391015551908152a2565b84516328486b6360e11b8152fd5b84516330cd747160e01b8152fd5b875163549b9dbd60e01b81528490fd5b5084516322d4f12560e01b8152fd5b602183634e487b7160e01b6000525260246000fd5b505050505050565b8051821015611f555760209160051b010190565b634e487b7160e01b600052603260045260246000fd5b600081815260208181526040808320600381015493956001600160a01b0394909391929085161561224557600683019081549160ff8360081c16926004938481101561223257600203612223576103009061ff0019161790558660008051602061224f83398151915284835160038152a281840194855490878083169116036122155760ff8160a01c169081612206575b506121f957600284015442106121ec578354156121df57909161201e84611afd565b9360019461203f86830161203a61203482611b55565b94611da9565b611da9565b89865b612078575b50505050505050907f6141b54b56b8a52a8c6f5cd2a857f6117b18ffbf4d46bd3106f300a839cbf5ea9154169280a3565b81518110156121da5773eeeeeeeeeeeeeeeeeeeeeeeeeeeeeeeeeeeeeeee896120a18385611f41565b511603612123578a8080808c8c54166120ba8689611f41565b51905af13d1561211e573d6120ce81611cd3565b906120db885192836118ee565b81528c863d92013e5b1561210e575b60001981146120fb57860186612042565b634e487b7160e01b8b526011865260248bfd5b8451630c08bcb960e21b81528690fd5b6120e4565b8861212e8284611f41565b5116898954169061213f8386611f41565b5187518781019163a9059cbb60e01b835260249485830152604490818301528152608081018181106001600160401b038211176121c75789525187918f919082855af1156121bd578c5189903d6121b6575050803b155b6121a15750506120ea565b8651635274afe760e01b815280890191909152fd5b1415612196565b86513d8e823e3d90fd5b50634e487b7160e01b8f5260418a52838ffd5b612047565b516367e3990d60e01b8152fd5b51636100d92960e11b8152fd5b5163549b9dbd60e01b8152fd5b60ff915060a81c161538611ffc565b505163ea8e4eb560e01b8152fd5b5050516322d4f12560e01b8152fd5b634e487b7160e01b8b526021855260248bfd5b5050505050505056fe199c49764c24c272ab05711f746ea69945084e537b524515f05902c3c9a7e9e89016d09d72d40fdae2fd8ceac6b6234c7706214fd39c1cd1e609a0528c1993009b779b17422d0df92223018b32b4d1fa46e071723d6817e2486d003becc55f00a26469706673582212207b1890d2a72e77c65cf78824b725cec65967449ccfe9be82df1bc141e26ef2f264736f6c63430008140033",
  "devdoc": {
    "errors": {
      "InvalidInitialization()": [
        {
          "details": "The contract is already initialized."
        }
      ],
      "NotInitializing()": [
        {
          "details": "The contract is not initializing."
        }
      ],
      "OwnableInvalidOwner(address)": [
        {
          "details": "The owner is not a valid owner account. (eg. `address(0)`)"
        }
      ],
      "OwnableUnauthorizedAccount(address)": [
        {
          "details": "The caller account is not authorized to perform an operation."
        }
      ],
      "ReentrancyGuardReentrantCall()": [
        {
          "details": "Unauthorized reentrant call."
        }
      ],
      "SafeERC20FailedOperation(address)": [
        {
          "details": "An operation with an ERC-20 token failed."
        }
      ]
    },
    "events": {
      "Initialized(uint64)": {
        "details": "Triggered when the contract has been initialized or reinitialized."
      }
    },
    "kind": "dev",
    "methods": {
      "owner()": {
        "details": "Returns the address of the current owner."
      },
      "renounceOwnership()": {
        "details": "Leaves the contract without owner. It will not be possible to call `onlyOwner` functions. Can only be called by the current owner. NOTE: Renouncing ownership will leave the contract without an owner, thereby disabling any functionality that is only available to the owner."
      },
      "transferOwnership(address)": {
        "details": "Transfers ownership of the contract to a new account (`newOwner`). Can only be called by the current owner."
      }
    },
    "version": 1
  },
  "userdoc": {
    "kind": "user",
    "methods": {},
    "version": 1
  },
  "storageLayout": {
    "storage": [
      {
        "astId": 41476,
        "contract": "contracts/timelock/TimeLockERC20.sol:TimelockERC20",
        "label": "timelocks",
        "offset": 0,
        "slot": "0",
        "type": "t_mapping(t_uint256,t_struct(TimelockInfo)41421_storage)"
      },
      {
        "astId": 41478,
        "contract": "contracts/timelock/TimeLockERC20.sol:TimelockERC20",
        "label": "routerAddresses",
        "offset": 0,
        "slot": "1",
        "type": "t_address"
      }
    ],
    "types": {
      "t_address": {
        "encoding": "inplace",
        "label": "address",
        "numberOfBytes": "20"
      },
      "t_array(t_address)dyn_storage": {
        "base": "t_address",
        "encoding": "dynamic_array",
        "label": "address[]",
        "numberOfBytes": "32"
      },
      "t_array(t_uint256)dyn_storage": {
        "base": "t_uint256",
        "encoding": "dynamic_array",
        "label": "uint256[]",
        "numberOfBytes": "32"
      },
      "t_bool": {
        "encoding": "inplace",
        "label": "bool",
        "numberOfBytes": "1"
      },
      "t_enum(LockStatus)44777": {
        "encoding": "inplace",
        "label": "enum TimelockHelper.LockStatus",
        "numberOfBytes": "1"
      },
      "t_enum(LockType)44772": {
        "encoding": "inplace",
        "label": "enum TimelockHelper.LockType",
        "numberOfBytes": "1"
      },
      "t_mapping(t_uint256,t_struct(TimelockInfo)41421_storage)": {
        "encoding": "mapping",
        "key": "t_uint256",
        "label": "mapping(uint256 => struct TimelockERC20.TimelockInfo)",
        "numberOfBytes": "32",
        "value": "t_struct(TimelockInfo)41421_storage"
      },
      "t_string_storage": {
        "encoding": "bytes",
        "label": "string",
        "numberOfBytes": "32"
      },
      "t_struct(TimelockInfo)41421_storage": {
        "encoding": "inplace",
        "label": "struct TimelockERC20.TimelockInfo",
        "members": [
          {
            "astId": 41397,
            "contract": "contracts/timelock/TimeLockERC20.sol:TimelockERC20",
            "label": "tokenAddresses",
            "offset": 0,
            "slot": "0",
            "type": "t_array(t_address)dyn_storage"
          },
          {
            "astId": 41400,
            "contract": "contracts/timelock/TimeLockERC20.sol:TimelockERC20",
            "label": "amounts",
            "offset": 0,
            "slot": "1",
            "type": "t_array(t_uint256)dyn_storage"
          },
          {
            "astId": 41402,
            "contract": "contracts/timelock/TimeLockERC20.sol:TimelockERC20",
            "label": "unlockTime",
            "offset": 0,
            "slot": "2",
            "type": "t_uint256"
          },
          {
            "astId": 41404,
            "contract": "contracts/timelock/TimeLockERC20.sol:TimelockERC20",
            "label": "owner",
            "offset": 0,
            "slot": "3",
            "type": "t_address"
          },
          {
            "astId": 41406,
            "contract": "contracts/timelock/TimeLockERC20.sol:TimelockERC20",
            "label": "recipient",
            "offset": 0,
            "slot": "4",
            "type": "t_address"
          },
          {
            "astId": 41408,
            "contract": "contracts/timelock/TimeLockERC20.sol:TimelockERC20",
            "label": "isSoftLock",
            "offset": 20,
            "slot": "4",
            "type": "t_bool"
          },
          {
            "astId": 41410,
            "contract": "contracts/timelock/TimeLockERC20.sol:TimelockERC20",
            "label": "isUnlocked",
            "offset": 21,
            "slot": "4",
            "type": "t_bool"
          },
          {
            "astId": 41412,
            "contract": "contracts/timelock/TimeLockERC20.sol:TimelockERC20",
            "label": "bufferTime",
            "offset": 0,
            "slot": "5",
            "type": "t_uint256"
          },
          {
            "astId": 41415,
            "contract": "contracts/timelock/TimeLockERC20.sol:TimelockERC20",
            "label": "lockType",
            "offset": 0,
            "slot": "6",
            "type": "t_enum(LockType)44772"
          },
          {
            "astId": 41418,
            "contract": "contracts/timelock/TimeLockERC20.sol:TimelockERC20",
            "label": "lockStatus",
            "offset": 1,
            "slot": "6",
            "type": "t_enum(LockStatus)44777"
          },
          {
            "astId": 41420,
            "contract": "contracts/timelock/TimeLockERC20.sol:TimelockERC20",
            "label": "name",
            "offset": 0,
            "slot": "7",
            "type": "t_string_storage"
          }
        ],
        "numberOfBytes": "256"
      },
      "t_uint256": {
        "encoding": "inplace",
        "label": "uint256",
        "numberOfBytes": "32"
      }
    }
  }
}