{
  "address": "0x022Ce78CD9726aB64638A7c3244D0265E00F6730",
  "abi": [
    {
      "inputs": [],
      "name": "AlreadyUnlocked",
      "type": "error"
    },
    {
      "inputs": [],
      "name": "InvalidInitialization",
      "type": "error"
    },
    {
      "inputs": [],
      "name": "NoFundsToWithdraw",
      "type": "error"
    },
    {
      "inputs": [],
      "name": "NotAuthorized",
      "type": "error"
    },
    {
      "inputs": [],
      "name": "NotInitializing",
      "type": "error"
    },
    {
      "inputs": [],
      "name": "NotOwner",
      "type": "error"
    },
    {
      "inputs": [],
      "name": "NotSoftTimelock",
      "type": "error"
    },
    {
      "inputs": [
        {
          "internalType": "address",
          "name": "owner",
          "type": "address"
        }
      ],
      "name": "OwnableInvalidOwner",
      "type": "error"
    },
    {
      "inputs": [
        {
          "internalType": "address",
          "name": "account",
          "type": "address"
        }
      ],
      "name": "OwnableUnauthorizedAccount",
      "type": "error"
    },
    {
      "inputs": [],
      "name": "ReentrancyGuardReentrantCall",
      "type": "error"
    },
    {
      "inputs": [],
      "name": "StillLocked",
      "type": "error"
    },
    {
      "inputs": [],
      "name": "TimelockNotLive",
      "type": "error"
    },
    {
      "anonymous": false,
      "inputs": [
        {
          "indexed": true,
          "internalType": "uint256",
          "name": "timelockId",
          "type": "uint256"
        },
        {
          "indexed": false,
          "internalType": "enum TimelockHelper.LockStatus",
          "name": "newStatus",
          "type": "uint8"
        }
      ],
      "name": "ChangeStatus",
      "type": "event"
    },
    {
      "anonymous": false,
      "inputs": [
        {
          "indexed": true,
          "internalType": "uint256",
          "name": "timelockId",
          "type": "uint256"
        },
        {
          "indexed": true,
          "internalType": "address",
          "name": "recipient",
          "type": "address"
        }
      ],
      "name": "FundsWithdrawn",
      "type": "event"
    },
    {
      "anonymous": false,
      "inputs": [
        {
          "indexed": false,
          "internalType": "uint64",
          "name": "version",
          "type": "uint64"
        }
      ],
      "name": "Initialized",
      "type": "event"
    },
    {
      "anonymous": false,
      "inputs": [
        {
          "indexed": true,
          "internalType": "address",
          "name": "previousOwner",
          "type": "address"
        },
        {
          "indexed": true,
          "internalType": "address",
          "name": "newOwner",
          "type": "address"
        }
      ],
      "name": "OwnershipTransferred",
      "type": "event"
    },
    {
      "anonymous": false,
      "inputs": [
        {
          "indexed": true,
          "internalType": "uint256",
          "name": "timelockId",
          "type": "uint256"
        },
        {
          "indexed": false,
          "internalType": "uint256",
          "name": "newUnlockTime",
          "type": "uint256"
        }
      ],
      "name": "SoftTimelockUnlocked",
      "type": "event"
    },
    {
      "anonymous": false,
      "inputs": [
        {
          "indexed": true,
          "internalType": "uint256",
          "name": "timelockId",
          "type": "uint256"
        },
        {
          "indexed": true,
          "internalType": "address",
          "name": "owner",
          "type": "address"
        },
        {
          "indexed": true,
          "internalType": "address",
          "name": "recipient",
          "type": "address"
        },
        {
          "indexed": false,
          "internalType": "address[]",
          "name": "tokenAddresses",
          "type": "address[]"
        },
        {
          "indexed": false,
          "internalType": "uint256[]",
          "name": "tokenIds",
          "type": "uint256[]"
        },
        {
          "indexed": false,
          "internalType": "uint256[]",
          "name": "amounts",
          "type": "uint256[]"
        },
        {
          "indexed": false,
          "internalType": "uint256",
          "name": "unlockTime",
          "type": "uint256"
        },
        {
          "indexed": false,
          "internalType": "uint256",
          "name": "bufferTime",
          "type": "uint256"
        },
        {
          "indexed": false,
          "internalType": "enum TimelockHelper.LockType",
          "name": "lockType",
          "type": "uint8"
        },
        {
          "indexed": false,
          "internalType": "string",
          "name": "name",
          "type": "string"
        }
      ],
      "name": "TimelockCreated",
      "type": "event"
    },
    {
      "anonymous": false,
      "inputs": [
        {
          "indexed": true,
          "internalType": "uint256",
          "name": "timelockId",
          "type": "uint256"
        },
        {
          "indexed": false,
          "internalType": "string",
          "name": "giftName",
          "type": "string"
        },
        {
          "indexed": true,
          "internalType": "address",
          "name": "recipient",
          "type": "address"
        }
      ],
      "name": "TimelockGiftName",
      "type": "event"
    },
    {
      "inputs": [
        {
          "internalType": "uint256",
          "name": "timelockId",
          "type": "uint256"
        },
        {
          "internalType": "address[]",
          "name": "tokens",
          "type": "address[]"
        },
        {
          "internalType": "uint256[]",
          "name": "ids",
          "type": "uint256[]"
        },
        {
          "internalType": "uint256[]",
          "name": "amounts",
          "type": "uint256[]"
        },
        {
          "internalType": "uint256",
          "name": "bufferTime",
          "type": "uint256"
        },
        {
          "internalType": "string",
          "name": "name",
          "type": "string"
        },
        {
          "internalType": "address",
          "name": "caller",
          "type": "address"
        },
        {
          "internalType": "enum TimelockHelper.LockStatus",
          "name": "lockStatus",
          "type": "uint8"
        }
      ],
      "name": "createSoftTimelock",
      "outputs": [],
      "stateMutability": "nonpayable",
      "type": "function"
    },
    {
      "inputs": [
        {
          "internalType": "uint256",
          "name": "timelockId",
          "type": "uint256"
        },
        {
          "internalType": "address[]",
          "name": "tokens",
          "type": "address[]"
        },
        {
          "internalType": "uint256[]",
          "name": "ids",
          "type": "uint256[]"
        },
        {
          "internalType": "uint256[]",
          "name": "amounts",
          "type": "uint256[]"
        },
        {
          "internalType": "uint256",
          "name": "duration",
          "type": "uint256"
        },
        {
          "internalType": "string",
          "name": "name",
          "type": "string"
        },
        {
          "internalType": "address",
          "name": "caller",
          "type": "address"
        },
        {
          "internalType": "enum TimelockHelper.LockStatus",
          "name": "lockStatus",
          "type": "uint8"
        }
      ],
      "name": "createTimelock",
      "outputs": [],
      "stateMutability": "nonpayable",
      "type": "function"
    },
    {
      "inputs": [
        {
          "internalType": "uint256",
          "name": "timelockId",
          "type": "uint256"
        },
        {
          "internalType": "address[]",
          "name": "tokens",
          "type": "address[]"
        },
        {
          "internalType": "uint256[]",
          "name": "ids",
          "type": "uint256[]"
        },
        {
          "internalType": "uint256[]",
          "name": "amounts",
          "type": "uint256[]"
        },
        {
          "internalType": "uint256",
          "name": "duration",
          "type": "uint256"
        },
        {
          "internalType": "address",
          "name": "recipient",
          "type": "address"
        },
        {
          "internalType": "string",
          "name": "name",
          "type": "string"
        },
        {
          "internalType": "string",
          "name": "giftName",
          "type": "string"
        },
        {
          "internalType": "address",
          "name": "caller",
          "type": "address"
        },
        {
          "internalType": "enum TimelockHelper.LockStatus",
          "name": "lockStatus",
          "type": "uint8"
        }
      ],
      "name": "createTimelockedGift",
      "outputs": [],
      "stateMutability": "nonpayable",
      "type": "function"
    },
    {
      "inputs": [
        {
          "internalType": "uint256",
          "name": "id",
          "type": "uint256"
        }
      ],
      "name": "getData",
      "outputs": [
        {
          "internalType": "address[]",
          "name": "",
          "type": "address[]"
        },
        {
          "internalType": "uint256[]",
          "name": "",
          "type": "uint256[]"
        },
        {
          "internalType": "uint256[]",
          "name": "",
          "type": "uint256[]"
        }
      ],
      "stateMutability": "view",
      "type": "function"
    },
    {
      "inputs": [
        {
          "internalType": "uint256",
          "name": "id",
          "type": "uint256"
        }
      ],
      "name": "getStatus",
      "outputs": [
        {
          "internalType": "enum TimelockHelper.LockStatus",
          "name": "",
          "type": "uint8"
        },
        {
          "internalType": "address",
          "name": "",
          "type": "address"
        }
      ],
      "stateMutability": "view",
      "type": "function"
    },
    {
      "inputs": [
        {
          "internalType": "uint256",
          "name": "timelockId",
          "type": "uint256"
        }
      ],
      "name": "getTimelockDetails",
      "outputs": [
        {
          "components": [
            {
              "internalType": "address[]",
              "name": "tokenAddresses",
              "type": "address[]"
            },
            {
              "internalType": "uint256[]",
              "name": "tokenIds",
              "type": "uint256[]"
            },
            {
              "internalType": "uint256[]",
              "name": "amounts",
              "type": "uint256[]"
            },
            {
              "internalType": "uint256",
              "name": "unlockTime",
              "type": "uint256"
            },
            {
              "internalType": "address",
              "name": "owner",
              "type": "address"
            },
            {
              "internalType": "address",
              "name": "recipient",
              "type": "address"
            },
            {
              "internalType": "bool",
              "name": "isSoftLock",
              "type": "bool"
            },
            {
              "internalType": "bool",
              "name": "isUnlocked",
              "type": "bool"
            },
            {
              "internalType": "uint256",
              "name": "bufferTime",
              "type": "uint256"
            },
            {
              "internalType": "enum TimelockHelper.LockType",
              "name": "lockType",
              "type": "uint8"
            },
            {
              "internalType": "enum TimelockHelper.LockStatus",
              "name": "lockStatus",
              "type": "uint8"
            },
            {
              "internalType": "string",
              "name": "name",
              "type": "string"
            }
          ],
          "internalType": "struct TimelockERC1155.TimelockInfo",
          "name": "",
          "type": "tuple"
        }
      ],
      "stateMutability": "view",
      "type": "function"
    },
    {
      "inputs": [
        {
          "internalType": "address",
          "name": "initialOwner",
          "type": "address"
        },
        {
          "internalType": "address",
          "name": "_routerAddresses",
          "type": "address"
        }
      ],
      "name": "initialize",
      "outputs": [],
      "stateMutability": "nonpayable",
      "type": "function"
    },
    {
      "inputs": [
        {
          "internalType": "address",
          "name": "",
          "type": "address"
        },
        {
          "internalType": "address",
          "name": "",
          "type": "address"
        },
        {
          "internalType": "uint256[]",
          "name": "",
          "type": "uint256[]"
        },
        {
          "internalType": "uint256[]",
          "name": "",
          "type": "uint256[]"
        },
        {
          "internalType": "bytes",
          "name": "",
          "type": "bytes"
        }
      ],
      "name": "onERC1155BatchReceived",
      "outputs": [
        {
          "internalType": "bytes4",
          "name": "",
          "type": "bytes4"
        }
      ],
      "stateMutability": "nonpayable",
      "type": "function"
    },
    {
      "inputs": [
        {
          "internalType": "address",
          "name": "",
          "type": "address"
        },
        {
          "internalType": "address",
          "name": "",
          "type": "address"
        },
        {
          "internalType": "uint256",
          "name": "",
          "type": "uint256"
        },
        {
          "internalType": "uint256",
          "name": "",
          "type": "uint256"
        },
        {
          "internalType": "bytes",
          "name": "",
          "type": "bytes"
        }
      ],
      "name": "onERC1155Received",
      "outputs": [
        {
          "internalType": "bytes4",
          "name": "",
          "type": "bytes4"
        }
      ],
      "stateMutability": "nonpayable",
      "type": "function"
    },
    {
      "inputs": [],
      "name": "owner",
      "outputs": [
        {
          "internalType": "address",
          "name": "",
          "type": "address"
        }
      ],
      "stateMutability": "view",
      "type": "function"
    },
    {
      "inputs": [],
      "name": "renounceOwnership",
      "outputs": [],
      "stateMutability": "nonpayable",
      "type": "function"
    },
    {
      "inputs": [],
      "name": "routerAddresses",
      "outputs": [
        {
          "internalType": "address",
          "name": "",
          "type": "address"
        }
      ],
      "stateMutability": "view",
      "type": "function"
    },
    {
      "inputs": [
        {
          "internalType": "address",
          "name": "_routerAddresses",
          "type": "address"
        }
      ],
      "name": "setRouterAddresses",
      "outputs": [],
      "stateMutability": "nonpayable",
      "type": "function"
    },
    {
      "inputs": [
        {
          "internalType": "bytes4",
          "name": "interfaceId",
          "type": "bytes4"
        }
      ],
      "name": "supportsInterface",
      "outputs": [
        {
          "internalType": "bool",
          "name": "",
          "type": "bool"
        }
      ],
      "stateMutability": "view",
      "type": "function"
    },
    {
      "inputs": [
        {
          "internalType": "uint256",
          "name": "",
          "type": "uint256"
        }
      ],
      "name": "timelocks",
      "outputs": [
        {
          "internalType": "uint256",
          "name": "unlockTime",
          "type": "uint256"
        },
        {
          "internalType": "address",
          "name": "owner",
          "type": "address"
        },
        {
          "internalType": "address",
          "name": "recipient",
          "type": "address"
        },
        {
          "internalType": "bool",
          "name": "isSoftLock",
          "type": "bool"
        },
        {
          "internalType": "bool",
          "name": "isUnlocked",
          "type": "bool"
        },
        {
          "internalType": "uint256",
          "name": "bufferTime",
          "type": "uint256"
        },
        {
          "internalType": "enum TimelockHelper.LockType",
          "name": "lockType",
          "type": "uint8"
        },
        {
          "internalType": "enum TimelockHelper.LockStatus",
          "name": "lockStatus",
          "type": "uint8"
        },
        {
          "internalType": "string",
          "name": "name",
          "type": "string"
        }
      ],
      "stateMutability": "view",
      "type": "function"
    },
    {
      "inputs": [
        {
          "internalType": "address",
          "name": "newOwner",
          "type": "address"
        }
      ],
      "name": "transferOwnership",
      "outputs": [],
      "stateMutability": "nonpayable",
      "type": "function"
    },
    {
      "inputs": [
        {
          "internalType": "uint256",
          "name": "timelockId",
          "type": "uint256"
        },
        {
          "internalType": "address",
          "name": "caller",
          "type": "address"
        }
      ],
      "name": "unlockSoftTimelock",
      "outputs": [],
      "stateMutability": "nonpayable",
      "type": "function"
    },
    {
      "inputs": [
        {
          "internalType": "uint256",
          "name": "timelockId",
          "type": "uint256"
        },
        {
          "internalType": "address",
          "name": "caller",
          "type": "address"
        }
      ],
      "name": "withdraw",
      "outputs": [],
      "stateMutability": "nonpayable",
      "type": "function"
    }
  ],
  "transactionHash": "0xfbb07ec41dea4d2cee4bf3d863779749e43311d88442cc731e9dcfce6023175b",
  "args": [],
  "numDeployments": 1,
  "solcInputHash": "0ede43310c6b3aae7d1343a5438b373c",
  "bytecode": "0x60808060405234610016576125e7908161001c8239f35b600080fdfe6080604052600436101561001257600080fd5b60003560e01c8062f714ce1461198c5780630178fe3f1461184957806301ffc9a7146117f3578063034f91a2146117ca5780630d7e149f1461170d5780633489908d146110fc578063485cc95514610f8357806358155cc214610acc5780635c622a0e14610a92578063715018a614610a285780638da5cb5b146109f25780639ba45f1b146109af578063aadcd3ba1461074a578063bc197c81146106c2578063d127107a146101a6578063f23a6e6114610151578063f2fde38b146101265763fdfd6530146100e157600080fd5b346101215760403660031901126101215761010d6100fd6119b8565b610105612062565b600435612190565b600160008051602061259283398151915255005b600080fd5b346101215760203660031901126101215761014f6101426119ce565b61014a611d8d565b611dc6565b005b346101215760a03660031901126101215761016a6119ce565b506101736119b8565b506084356001600160401b03811161012157610193903690600401611d72565b5060405163f23a6e6160e01b8152602090f35b34610121576101b436611c00565b9895929690976101c99b9a9b95929495612062565b6101d1612092565b6040516101dd81611a66565b6101e688611ca9565b6101f36040519182611a82565b8881528d602082019036908b60051b0111610121578e9081905b8b60051b830182106106aa575050508152610229368484611cc0565b6020820152610239368587611cc0565b60408201526000606082018190526001600160a01b038b166080830181905260a0830152600160c0830181905260e0830191909152610100820188905261012082015261028a8b6101408301611f2e565b61029536878b611d2c565b6101608201528b600052600060205260406000209080518051906001600160401b038211610639576020906102ca83866120f3565b0183600052602060002060005b83811061068d575050505060208101518051906001600160401b038211610639576020600185019161030984846120f3565b0190600052602060002060005b838110610679575050505060408101518051906001600160401b038211610639576020600285019161034884846120f3565b0190600052602060002060005b83811061066557505050506060810151600383015560808101516004830180546001600160a01b039283166001600160a01b031990911617905560a08083015160058501805460c086015160e087015160ff60a81b90151560a81b1660ff60a01b91151590951b16929094166001600160b01b0319909416939093171717905561010081015160068301556007820190610120810151600381101561064f5760ff8019845416911617825561014081015191600483101561064f576101609261041d9161212c565b01518051906001600160401b0382116106395761043d6008840154611a2c565b601f81116105f9575b50602090601f831160011461058957600892916000918361057e575b50508160011b916000199060031b1c1916179101555b604051968060e0890160e08a525261010088019c9060005b818110610556575050506000805160206125528339815191529997958b956104ff7f3c29909eab1e73a2f933f06be82acb4c9a7fa928d73d81e267839fd679d47b89968f966104f18860209f9d9998610531988b809b0360208c015261214b565b91878303604089015261214b565b600060608601526080850192909252600160a085015283820360c08501526001600160a01b039890981697889761216f565b0390a46105416040518092611b56565ba2600160008051602061259283398151915255005b90919d60208f6001928291610570858060a01b03916119e4565b168152019f01929101610490565b015190503880610462565b906008840160005260206000209160005b601f19851681106105e15750918391600193600895601f198116106105c8575b505050811b01910155610478565b015160001960f88460031b161c191690553880806105ba565b9192602060018192868501518155019401920161059a565b61062990600885016000526020600020601f850160051c8101916020861061062f575b601f0160051c01906120b8565b8f610446565b909150819061061c565b634e487b7160e01b600052604160045260246000fd5b634e487b7160e01b600052602160045260246000fd5b600190602084519401938184015501610355565b600190602084519401938184015501610316565b82516001600160a01b0316818301556020909201916001016102d7565b602080916106b7846119e4565b81520191019061020d565b346101215760a0366003190112610121576106db6119ce565b506106e46119b8565b506001600160401b0360443581811161012157610705903690600401611d0e565b506064358181116101215761071e903690600401611d0e565b5060843590811161012157610737903690600401611d72565b5060405163bc197c8160e01b8152602090f35b3461012157602036600319011261012157606061016060405161076c81611a66565b82815282602082015282604082015260008382015260006080820152600060a0820152600060c0820152600060e08201526000610100820152600061012082015260006101408201520152600435600052600060205260406000206108876008604051926107d984611a66565b6107e281611e7b565b84526107f060018201611ed3565b602085015261080160028201611ed3565b60408501526003810154606085015260018060a01b03600482015416608085015260ff600582015460018060a01b03811660a0870152818160a01c16151560c087015260a81c16151560e0850152600681015461010085015261088160ff60078301546108748282166101208901611f22565b841c166101408601611f2e565b01611aa3565b610160820152604051809160208252805161018060208401526101a08301815180915260206101c0850192019060005b81811061098d57505050906101606108fb6108e5610989946020850151601f198883030160408901526119f8565b6040840151868203601f190160608801526119f8565b916060810151608086015260018060a01b0360808201511660a086015260018060a01b0360a08201511660c086015260c0810151151560e086015260e08101511515610100860152610100810151610120860152610963610120820151610140870190611b49565b61097561014082015183870190611b56565b0151838203601f1901610180850152611b63565b0390f35b82516001600160a01b03168452869550602093840193909201916001016108b7565b34610121576020366003190112610121576109c86119ce565b6109d0611d8d565b600180546001600160a01b0319166001600160a01b0392909216919091179055005b3461012157600036600319011261012157600080516020612572833981519152546040516001600160a01b039091168152602090f35b3461012157600036600319011261012157610a41611d8d565b60008051602061257283398151915280546001600160a01b031981169091556000906001600160a01b03167f8be0079c531659141344cd1fd0a4f28419497f9722a3daafe3b4186f6b6457e08280a3005b34610121576020366003190112610121576040610ab0600435611f3a565b610abc83518093611b56565b6001600160a01b03166020820152f35b3461012157610afe610add36611c00565b999b909896919492979593610af0612062565b610af8612092565b4261203f565b94604051610b0b81611a66565b610b1488611ca9565b610b216040519182611a82565b8881528d602082019036908b60051b0111610121578e9081905b8b60051b83018210610f6b575050508152610b57368484611cc0565b6020820152610b67368587611cc0565b6040820152606081018790526001600160a01b038a166080820181905260a0820152600060c0820181905260e082018190526101008201819052610120820152610bb58b6101408301611f2e565b610bc036878b611d2c565b6101608201528b600052600060205260406000209080518051906001600160401b03821161063957602090610bf583866120f3565b0183600052602060002060005b838110610f4e575050505060208101518051906001600160401b0382116106395760206001850191610c3484846120f3565b0190600052602060002060005b838110610f3a575050505060408101518051906001600160401b0382116106395760206002850191610c7384846120f3565b0190600052602060002060005b838110610f2657505050506060810151600383015560808101516004830180546001600160a01b039283166001600160a01b031990911617905560a08083015160058501805460c086015160e087015160ff60a81b90151560a81b1660ff60a01b91151590951b16929094166001600160b01b0319909416939093171717905561010081015160068301556007820190610120810151600381101561064f5760ff8019845416911617825561014081015191600483101561064f5761016092610d489161212c565b01518051906001600160401b03821161063957610d686008840154611a2c565b601f8111610ef1575b50602090601f8311600114610e81576008929160009183610e76575b50508160011b916000199060031b1c1916179101555b604051968060e0890160e08a525261010088019c9060005b818110610e4e575050506000805160206125528339815191529997958b95610e1c7f3c29909eab1e73a2f933f06be82acb4c9a7fa928d73d81e267839fd679d47b89968f966104f18860209f9d9998610531988b809b0360208c015261214b565b606085019290925260006080850181905260a085015283820360c08501526001600160a01b039890981697889761216f565b90919d60208f6001928291610e68858060a01b03916119e4565b168152019f01929101610dbb565b015190503880610d8d565b906008840160005260206000209160005b601f1985168110610ed95750918391600193600895601f19811610610ec0575b505050811b01910155610da3565b015160001960f88460031b161c19169055388080610eb2565b91926020600181928685015181550194019201610e92565b610f2090600885016000526020600020601f850160051c8101916020861061062f57601f0160051c01906120b8565b8f610d71565b600190602084519401938184015501610c80565b600190602084519401938184015501610c41565b82516001600160a01b031681830155602090920191600101610c02565b60208091610f78846119e4565b815201910190610b3b565b3461012157604036600319011261012157610f9c6119ce565b610fa46119b8565b7ff0c57e16840df040f15088dc2f81fe391c3923bec73e23a9662efc9c229c6a009081549060ff8260401c1615916001600160401b038116948515806110f5575b600180971490816110eb575b1590816110e2575b506110d05767ffffffffffffffff1982168617855561102991846110b1575b50611021611e3a565b61014a611e3a565b611031611e3a565b611039611e3a565b8360008051602061259283398151915255611052611e3a565b83546001600160a01b0319166001600160a01b039190911617835561107357005b805468ff0000000000000000191690556040519081527fc7f505b2f371ae2175ee4913f4499e1f2633a7b5936321eed1cdaeb6115181d290602090a1005b68ffffffffffffffffff19166801000000000000000117855586611018565b60405163f92ee8a960e01b8152600490fd5b90501587610ff9565b303b159150610ff1565b5083610fe5565b3461012157610140366003190112610121576024356001600160401b0381116101215761112d903690600401611ba3565b6044356001600160401b0381116101215761114c903690600401611ba3565b6064929192356001600160401b0381116101215761116e903690600401611ba3565b9360a435939091906001600160a01b03851685036101215760c4356001600160401b038111610121576111a5903690600401611bd3565b9390926001600160401b0360e43511610121576111c73660e435600401611bd3565b989099610104359760018060a01b0389168903610121576004610124351015610121576111f2612062565b6111fa612092565b6112066084354261203f565b9460405161121381611a66565b61121c88611ca9565b6112296040519182611a82565b88815260208101368a60051b8701116101215785905b8a60051b870182106116f5575050815261125a368484611cc0565b602082015261126a368688611cc0565b6040820152606081018790526001600160a01b038b811660808301528c1660a0820152600060c0820181905260e0820181905261010082015260026101208201526112bc610124356101408301611f2e565b6112c7368b8b611d2c565b610160820152600435600052600060205260406000209080518051906001600160401b038211610639576020906112fe83866120f3565b0183600052602060002060005b8381106116d8575050505060208101518051906001600160401b038211610639576020600185019161133d84846120f3565b0190600052602060002060005b8381106116c4575050505060408101518051906001600160401b038211610639576020600285019161137c84846120f3565b0190600052602060002060005b8381106116b057505050506060810151600383015560808101516004830180546001600160a01b039283166001600160a01b031990911617905560a08083015160058501805460c086015160e087015160ff60a81b90151560a81b1660ff60a01b91151590951b16929094166001600160b01b0319909416939093171717905561010081015160068301556007820190610120810151600381101561064f5760ff8019845416911617825561014081015191600483101561064f57610160926114519161212c565b01518051906001600160401b038211610639576114716008840154611a2c565b601f811161167b575b50602090601f831160011461160b576008929160009183611600575b50508160011b916000199060031b1c1916179101555b604051968060e0890160e08a52526101008801939060005b8181106115da57505050946115447f3c29909eab1e73a2f933f06be82acb4c9a7fa928d73d81e267839fd679d47b89958895611536867f9b49bb064023c0d8c7d1b2bb1fc1fee4de356877d5192d3388f641d2227efaa89f9d9b97966115c39f9d9b89611579990360208b015261214b565b91868303604088015261214b565b606084019190915260006080840152600260a084015282810360c08401526001600160a01b038981169816966004359661216f565b0390a460405161158c8161012435611b56565b600080516020612552833981519152602060043592a26040519182916020835260018060a01b03169560043595602084019161216f565b0390a3600160008051602061259283398151915255005b909194602080600192838060a01b036115f28a6119e4565b1681520196019291016114c4565b015190503880611496565b906008840160005260206000209160005b601f19851681106116635750918391600193600895601f1981161061164a575b505050811b019101556114ac565b015160001960f88460031b161c1916905538808061163c565b9192602060018192868501518155019401920161161c565b6116aa90600885016000526020600020601f850160051c8101916020861061062f57601f0160051c01906120b8565b3861147a565b600190602084519401938184015501611389565b60019060208451940193818401550161134a565b82516001600160a01b03168183015560209092019160010161130b565b60208091611702846119e4565b81520191019061123f565b346101215760203660031901126101215760043560005260006020526040600020600381015461098960018060a01b036117b88160048601541694600581015460ff600683015491611766600860078601549501611aa3565b95604051998a998a5260208a015281166040890152818160a01c161515606089015260a81c161515608087015260a08601526117a860c0860160ff8316611b49565b60ff60e086019160081c16611b56565b61012080610100850152830190611b63565b34610121576000366003190112610121576001546040516001600160a01b039091168152602090f35b346101215760203660031901126101215760043563ffffffff60e01b811680910361012157602090630271189760e51b8114908115611838575b506040519015158152f35b6301ffc9a760e01b1490508261182d565b346101215760208060031936011261012157600435600052600081526040600020906040519061187882611a66565b61188183611e7b565b8252600191611891838501611ed3565b908281019182526118a460028601611ed3565b90604081019182526003860154606082015261191b600860018060a01b039788600482015416608085015260ff60058201548a811660a0870152818160a01c16151560c087015260a81c16151560e0850152600681015461010085015261088160ff60078301546108748282166101208901611f22565b6101608201525191519051926040519586956060870160608852855180915283608089019601926000905b82821061197257898803868b015289806109898b6119648c8c6119f8565b9083820360408501526119f8565b8451811688528a9950968501969385019390830190611946565b346101215760403660031901126101215761010d6119a86119b8565b6119b0612062565b6004356122d7565b602435906001600160a01b038216820361012157565b600435906001600160a01b038216820361012157565b35906001600160a01b038216820361012157565b90815180825260208080930193019160005b828110611a18575050505090565b835185529381019392810192600101611a0a565b90600182811c92168015611a5c575b6020831014611a4657565b634e487b7160e01b600052602260045260246000fd5b91607f1691611a3b565b61018081019081106001600160401b0382111761063957604052565b90601f801991011681019081106001600160401b0382111761063957604052565b9060405191826000825492611ab784611a2c565b908184526001948581169081600014611b265750600114611ae3575b5050611ae192500383611a82565b565b9093915060005260209081600020936000915b818310611b0e575050611ae193508201013880611ad3565b85548884018501529485019487945091830191611af6565b915050611ae194506020925060ff191682840152151560051b8201013880611ad3565b90600382101561064f5752565b90600482101561064f5752565b919082519283825260005b848110611b8f575050826000602080949584010152601f8019910116010190565b602081830181015184830182015201611b6e565b9181601f84011215610121578235916001600160401b038311610121576020808501948460051b01011161012157565b9181601f84011215610121578235916001600160401b038311610121576020838186019501011161012157565b906101006003198301126101215760048035926001600160401b03916024358381116101215782611c32918301611ba3565b949094936044358181116101215784611c4c918501611ba3565b949094936064358381116101215782611c66918301611ba3565b949094936084359360a43591821161012157611c83918401611bd3565b9092909160c4356001600160a01b0381168103610121579160e435908110156101215790565b6001600160401b0381116106395760051b60200190565b9291611ccb82611ca9565b91611cd96040519384611a82565b829481845260208094019160051b810192831161012157905b828210611cff5750505050565b81358152908301908301611cf2565b9080601f8301121561012157816020611d2993359101611cc0565b90565b9291926001600160401b0382116106395760405191611d55601f8201601f191660200184611a82565b829481845281830111610121578281602093846000960137010152565b9080601f8301121561012157816020611d2993359101611d2c565b600080516020612572833981519152546001600160a01b03163303611dae57565b60405163118cdaa760e01b8152336004820152602490fd5b6001600160a01b03908116908115611e215760008051602061257283398151915280546001600160a01b031981168417909155167f8be0079c531659141344cd1fd0a4f28419497f9722a3daafe3b4186f6b6457e0600080a3565b604051631e4fbdf760e01b815260006004820152602490fd5b60ff7ff0c57e16840df040f15088dc2f81fe391c3923bec73e23a9662efc9c229c6a005460401c1615611e6957565b604051631afcd79f60e31b8152600490fd5b9060405191828154918282526020928383019160005283600020936000905b828210611eb057505050611ae192500383611a82565b85546001600160a01b031684526001958601958895509381019390910190611e9a565b9060405191828154918282526020928383019160005283600020936000905b828210611f0857505050611ae192500383611a82565b855484526001958601958895509381019390910190611ef2565b600382101561064f5752565b600482101561064f5752565b9060009182528160205260408220604051611f5481611a66565b611f5d82611e7b565b8152611f6b60018301611ed3565b6020820152611f7c60028301611ed3565b60408201526003820154606082015260018060a01b039182600482015416916080810192835260ff600583015485811660a0840152818160a01c16151560c084015260a81c16151560e082015260068201546101008201526101606120076008600785015494611ff360ff87166101208701611f22565b61088160ff610140870197841c1687611f2e565b910152828251161561203857519360048510156120245750511690565b634e487b7160e01b81526021600452602490fd5b5050508190565b9190820180921161204c57565b634e487b7160e01b600052601160045260246000fd5b60008051602061259283398151915260028154146120805760029055565b604051633ee5aeb560e01b8152600490fd5b6001546001600160a01b031633036120a657565b60405163ea8e4eb560e01b8152600490fd5b8181106120c3575050565b600081556001016120b8565b805460008255806120de575050565b611ae1916000526020600020908101906120b8565b906801000000000000000081116106395781549080835581811061211657505050565b611ae192600052602060002091820191016120b8565b90600481101561064f5761ff0082549160081b169061ff001916179055565b81835290916001600160fb1b0383116101215760209260051b809284830137010190565b908060209392818452848401376000828201840152601f01601f1916010190565b90612199612092565b816000526000602052604090816000209060018060a01b0390600482818501541680156122a45760ff600786015460081c168281101561228f5760020361228057600585019384549360ff8560a01c16156122705760ff8560a81c16612260571603612252575060ff60a81b1916600160a81b17905560068101547fc92510a4ac9a15b6edc75157859d271228f92b11d09d91200f705e8e44c34eee92602092600392612246904261203f565b928391015551908152a2565b84516330cd747160e01b8152fd5b87516328486b6360e11b81528490fd5b875163549b9dbd60e01b81528490fd5b5084516322d4f12560e01b8152fd5b602183634e487b7160e01b6000525260246000fd5b50505050505050565b80518210156122c15760209160051b010190565b634e487b7160e01b600052603260045260246000fd5b6000818152602081905260408082206004808201546001600160a01b0397969295949392908816156125475760078601805460ff8160081c168481101561253457600203612524576103009061ff001916179055846000805160206125528339815191526020855160038152a2600192838701805415612514578960058901549316978a841689036125045760a09360ff81861c1690816124f5575b506124e557600381015442106124d557859a61238e82611e7b565b6123ba61239a85611ed3565b946123b560028601916123b56123af84611ed3565b976120cf565b6120cf565b889c5b6123f4575b50505050505050507f6141b54b56b8a52a8c6f5cd2a857f6117b18ffbf4d46bd3106f300a839cbf5ea919293945080a3565b80518d10156124d057816124088e836122ad565b51168d61242061241882886122ad565b5191866122ad565b5191803b156124cc578d9160c48b8e80948c519788958694637921219560e11b8652309086015260249889860152604485015260648401528d60848401528160a48401525af180156124c257612499575b50506000198d14612486579b87019b876123bd565b634e487b7160e01b895260118752602489fd5b6001600160401b0382116124b1575085523880612471565b634e487b7160e01b8b52604189528afd5b87513d8d823e3d90fd5b8b80fd5b6123c2565b8251636100d92960e11b81528590fd5b825163549b9dbd60e01b81528590fd5b60ff915060a81c161538612373565b825163ea8e4eb560e01b81528590fd5b81516367e3990d60e01b81528490fd5b84516322d4f12560e01b81528490fd5b634e487b7160e01b875260218552602487fd5b505050505050905056fe199c49764c24c272ab05711f746ea69945084e537b524515f05902c3c9a7e9e89016d09d72d40fdae2fd8ceac6b6234c7706214fd39c1cd1e609a0528c1993009b779b17422d0df92223018b32b4d1fa46e071723d6817e2486d003becc55f00a264697066735822122028231d2927d44db9c838e643a3100eac1fd27b10015e4fcec7c1574f503eac9d64736f6c63430008140033",
  "devdoc": {
    "errors": {
      "InvalidInitialization()": [
        {
          "details": "The contract is already initialized."
        }
      ],
      "NotInitializing()": [
        {
          "details": "The contract is not initializing."
        }
      ],
      "OwnableInvalidOwner(address)": [
        {
          "details": "The owner is not a valid owner account. (eg. `address(0)`)"
        }
      ],
      "OwnableUnauthorizedAccount(address)": [
        {
          "details": "The caller account is not authorized to perform an operation."
        }
      ],
      "ReentrancyGuardReentrantCall()": [
        {
          "details": "Unauthorized reentrant call."
        }
      ]
    },
    "events": {
      "Initialized(uint64)": {
        "details": "Triggered when the contract has been initialized or reinitialized."
      }
    },
    "kind": "dev",
    "methods": {
      "owner()": {
        "details": "Returns the address of the current owner."
      },
      "renounceOwnership()": {
        "details": "Leaves the contract without owner. It will not be possible to call `onlyOwner` functions. Can only be called by the current owner. NOTE: Renouncing ownership will leave the contract without an owner, thereby disabling any functionality that is only available to the owner."
      },
      "supportsInterface(bytes4)": {
        "details": "Returns true if this contract implements the interface defined by `interfaceId`. See the corresponding https://eips.ethereum.org/EIPS/eip-165#how-interfaces-are-identified[ERC section] to learn more about how these ids are created. This function call must use less than 30 000 gas."
      },
      "transferOwnership(address)": {
        "details": "Transfers ownership of the contract to a new account (`newOwner`). Can only be called by the current owner."
      }
    },
    "version": 1
  },
  "userdoc": {
    "kind": "user",
    "methods": {},
    "version": 1
  },
  "storageLayout": {
    "storage": [
      {
        "astId": 2307,
        "contract": "contracts/timelock/TimeLockERC1155.sol:TimelockERC1155",
        "label": "timelocks",
        "offset": 0,
        "slot": "0",
        "type": "t_mapping(t_uint256,t_struct(TimelockInfo)2249_storage)"
      },
      {
        "astId": 2309,
        "contract": "contracts/timelock/TimeLockERC1155.sol:TimelockERC1155",
        "label": "routerAddresses",
        "offset": 0,
        "slot": "1",
        "type": "t_address"
      }
    ],
    "types": {
      "t_address": {
        "encoding": "inplace",
        "label": "address",
        "numberOfBytes": "20"
      },
      "t_array(t_address)dyn_storage": {
        "base": "t_address",
        "encoding": "dynamic_array",
        "label": "address[]",
        "numberOfBytes": "32"
      },
      "t_array(t_uint256)dyn_storage": {
        "base": "t_uint256",
        "encoding": "dynamic_array",
        "label": "uint256[]",
        "numberOfBytes": "32"
      },
      "t_bool": {
        "encoding": "inplace",
        "label": "bool",
        "numberOfBytes": "1"
      },
      "t_enum(LockStatus)7174": {
        "encoding": "inplace",
        "label": "enum TimelockHelper.LockStatus",
        "numberOfBytes": "1"
      },
      "t_enum(LockType)7169": {
        "encoding": "inplace",
        "label": "enum TimelockHelper.LockType",
        "numberOfBytes": "1"
      },
      "t_mapping(t_uint256,t_struct(TimelockInfo)2249_storage)": {
        "encoding": "mapping",
        "key": "t_uint256",
        "label": "mapping(uint256 => struct TimelockERC1155.TimelockInfo)",
        "numberOfBytes": "32",
        "value": "t_struct(TimelockInfo)2249_storage"
      },
      "t_string_storage": {
        "encoding": "bytes",
        "label": "string",
        "numberOfBytes": "32"
      },
      "t_struct(TimelockInfo)2249_storage": {
        "encoding": "inplace",
        "label": "struct TimelockERC1155.TimelockInfo",
        "members": [
          {
            "astId": 2222,
            "contract": "contracts/timelock/TimeLockERC1155.sol:TimelockERC1155",
            "label": "tokenAddresses",
            "offset": 0,
            "slot": "0",
            "type": "t_array(t_address)dyn_storage"
          },
          {
            "astId": 2225,
            "contract": "contracts/timelock/TimeLockERC1155.sol:TimelockERC1155",
            "label": "tokenIds",
            "offset": 0,
            "slot": "1",
            "type": "t_array(t_uint256)dyn_storage"
          },
          {
            "astId": 2228,
            "contract": "contracts/timelock/TimeLockERC1155.sol:TimelockERC1155",
            "label": "amounts",
            "offset": 0,
            "slot": "2",
            "type": "t_array(t_uint256)dyn_storage"
          },
          {
            "astId": 2230,
            "contract": "contracts/timelock/TimeLockERC1155.sol:TimelockERC1155",
            "label": "unlockTime",
            "offset": 0,
            "slot": "3",
            "type": "t_uint256"
          },
          {
            "astId": 2232,
            "contract": "contracts/timelock/TimeLockERC1155.sol:TimelockERC1155",
            "label": "owner",
            "offset": 0,
            "slot": "4",
            "type": "t_address"
          },
          {
            "astId": 2234,
            "contract": "contracts/timelock/TimeLockERC1155.sol:TimelockERC1155",
            "label": "recipient",
            "offset": 0,
            "slot": "5",
            "type": "t_address"
          },
          {
            "astId": 2236,
            "contract": "contracts/timelock/TimeLockERC1155.sol:TimelockERC1155",
            "label": "isSoftLock",
            "offset": 20,
            "slot": "5",
            "type": "t_bool"
          },
          {
            "astId": 2238,
            "contract": "contracts/timelock/TimeLockERC1155.sol:TimelockERC1155",
            "label": "isUnlocked",
            "offset": 21,
            "slot": "5",
            "type": "t_bool"
          },
          {
            "astId": 2240,
            "contract": "contracts/timelock/TimeLockERC1155.sol:TimelockERC1155",
            "label": "bufferTime",
            "offset": 0,
            "slot": "6",
            "type": "t_uint256"
          },
          {
            "astId": 2243,
            "contract": "contracts/timelock/TimeLockERC1155.sol:TimelockERC1155",
            "label": "lockType",
            "offset": 0,
            "slot": "7",
            "type": "t_enum(LockType)7169"
          },
          {
            "astId": 2246,
            "contract": "contracts/timelock/TimeLockERC1155.sol:TimelockERC1155",
            "label": "lockStatus",
            "offset": 1,
            "slot": "7",
            "type": "t_enum(LockStatus)7174"
          },
          {
            "astId": 2248,
            "contract": "contracts/timelock/TimeLockERC1155.sol:TimelockERC1155",
            "label": "name",
            "offset": 0,
            "slot": "8",
            "type": "t_string_storage"
          }
        ],
        "numberOfBytes": "288"
      },
      "t_uint256": {
        "encoding": "inplace",
        "label": "uint256",
        "numberOfBytes": "32"
      }
    }
  }
}