{
  "address": "0xC1E7BF259D6e0758A91E1b938CE1F1e4475ac43E",
  "abi": [
    {
      "inputs": [],
      "name": "DuplicateTokenAddress",
      "type": "error"
    },
    {
      "inputs": [],
      "name": "DuplicateTokenAddresses",
      "type": "error"
    },
    {
      "inputs": [],
      "name": "InsufficientNativeToken",
      "type": "error"
    },
    {
      "inputs": [],
      "name": "InvalidInitialization",
      "type": "error"
    },
    {
      "inputs": [],
      "name": "InvalidRecipient",
      "type": "error"
    },
    {
      "inputs": [],
      "name": "InvalidTokenAmount",
      "type": "error"
    },
    {
      "inputs": [],
      "name": "InvalidTokenType",
      "type": "error"
    },
    {
      "inputs": [],
      "name": "MismatchedArrayLength",
      "type": "error"
    },
    {
      "inputs": [],
      "name": "NotInitializing",
      "type": "error"
    },
    {
      "inputs": [
        {
          "internalType": "address",
          "name": "owner",
          "type": "address"
        }
      ],
      "name": "OwnableInvalidOwner",
      "type": "error"
    },
    {
      "inputs": [
        {
          "internalType": "address",
          "name": "account",
          "type": "address"
        }
      ],
      "name": "OwnableUnauthorizedAccount",
      "type": "error"
    },
    {
      "inputs": [
        {
          "internalType": "address",
          "name": "token",
          "type": "address"
        }
      ],
      "name": "SafeERC20FailedOperation",
      "type": "error"
    },
    {
      "inputs": [],
      "name": "ZeroAmount",
      "type": "error"
    },
    {
      "inputs": [],
      "name": "ZeroBufferTime",
      "type": "error"
    },
    {
      "inputs": [],
      "name": "ZeroDuration",
      "type": "error"
    },
    {
      "anonymous": false,
      "inputs": [
        {
          "indexed": false,
          "internalType": "uint64",
          "name": "version",
          "type": "uint64"
        }
      ],
      "name": "Initialized",
      "type": "event"
    },
    {
      "anonymous": false,
      "inputs": [
        {
          "indexed": true,
          "internalType": "address",
          "name": "previousOwner",
          "type": "address"
        },
        {
          "indexed": true,
          "internalType": "address",
          "name": "newOwner",
          "type": "address"
        }
      ],
      "name": "OwnershipTransferred",
      "type": "event"
    },
    {
      "inputs": [
        {
          "components": [
            {
              "components": [
                {
                  "internalType": "address",
                  "name": "tokenAddress",
                  "type": "address"
                },
                {
                  "internalType": "uint256",
                  "name": "amount",
                  "type": "uint256"
                }
              ],
              "internalType": "struct TimeLockRouter.TimelockERC20InputData[]",
              "name": "timelockERC20",
              "type": "tuple[]"
            },
            {
              "components": [
                {
                  "internalType": "address",
                  "name": "tokenAddress",
                  "type": "address"
                },
                {
                  "internalType": "uint256",
                  "name": "id",
                  "type": "uint256"
                }
              ],
              "internalType": "struct TimeLockRouter.TimelockERC721InputData[]",
              "name": "timelockERC721",
              "type": "tuple[]"
            },
            {
              "components": [
                {
                  "internalType": "address",
                  "name": "tokenAddress",
                  "type": "address"
                },
                {
                  "internalType": "uint256",
                  "name": "id",
                  "type": "uint256"
                },
                {
                  "internalType": "uint256",
                  "name": "amount",
                  "type": "uint256"
                }
              ],
              "internalType": "struct TimeLockRouter.TimelockERC1155InputData[]",
              "name": "timelockERC1155",
              "type": "tuple[]"
            },
            {
              "internalType": "uint256",
              "name": "bufferTime",
              "type": "uint256"
            },
            {
              "internalType": "string",
              "name": "name",
              "type": "string"
            }
          ],
          "internalType": "struct TimeLockRouter.TimelockSoft",
          "name": "timelockSoft",
          "type": "tuple"
        }
      ],
      "name": "createSoftTimelock",
      "outputs": [],
      "stateMutability": "payable",
      "type": "function"
    },
    {
      "inputs": [
        {
          "components": [
            {
              "components": [
                {
                  "internalType": "address",
                  "name": "tokenAddress",
                  "type": "address"
                },
                {
                  "internalType": "uint256",
                  "name": "amount",
                  "type": "uint256"
                }
              ],
              "internalType": "struct TimeLockRouter.TimelockERC20InputData[]",
              "name": "timelockERC20",
              "type": "tuple[]"
            },
            {
              "components": [
                {
                  "internalType": "address",
                  "name": "tokenAddress",
                  "type": "address"
                },
                {
                  "internalType": "uint256",
                  "name": "id",
                  "type": "uint256"
                }
              ],
              "internalType": "struct TimeLockRouter.TimelockERC721InputData[]",
              "name": "timelockERC721",
              "type": "tuple[]"
            },
            {
              "components": [
                {
                  "internalType": "address",
                  "name": "tokenAddress",
                  "type": "address"
                },
                {
                  "internalType": "uint256",
                  "name": "id",
                  "type": "uint256"
                },
                {
                  "internalType": "uint256",
                  "name": "amount",
                  "type": "uint256"
                }
              ],
              "internalType": "struct TimeLockRouter.TimelockERC1155InputData[]",
              "name": "timelockERC1155",
              "type": "tuple[]"
            },
            {
              "internalType": "uint256",
              "name": "duration",
              "type": "uint256"
            },
            {
              "internalType": "string",
              "name": "name",
              "type": "string"
            }
          ],
          "internalType": "struct TimeLockRouter.TimelockRegular",
          "name": "timelockRegular",
          "type": "tuple"
        }
      ],
      "name": "createTimelock",
      "outputs": [],
      "stateMutability": "payable",
      "type": "function"
    },
    {
      "inputs": [
        {
          "components": [
            {
              "components": [
                {
                  "internalType": "address",
                  "name": "tokenAddress",
                  "type": "address"
                },
                {
                  "internalType": "uint256",
                  "name": "amount",
                  "type": "uint256"
                }
              ],
              "internalType": "struct TimeLockRouter.TimelockERC20InputData[]",
              "name": "timelockERC20",
              "type": "tuple[]"
            },
            {
              "components": [
                {
                  "internalType": "address",
                  "name": "tokenAddress",
                  "type": "address"
                },
                {
                  "internalType": "uint256",
                  "name": "id",
                  "type": "uint256"
                }
              ],
              "internalType": "struct TimeLockRouter.TimelockERC721InputData[]",
              "name": "timelockERC721",
              "type": "tuple[]"
            },
            {
              "components": [
                {
                  "internalType": "address",
                  "name": "tokenAddress",
                  "type": "address"
                },
                {
                  "internalType": "uint256",
                  "name": "id",
                  "type": "uint256"
                },
                {
                  "internalType": "uint256",
                  "name": "amount",
                  "type": "uint256"
                }
              ],
              "internalType": "struct TimeLockRouter.TimelockERC1155InputData[]",
              "name": "timelockERC1155",
              "type": "tuple[]"
            },
            {
              "internalType": "uint256",
              "name": "duration",
              "type": "uint256"
            },
            {
              "internalType": "address",
              "name": "recipient",
              "type": "address"
            },
            {
              "internalType": "string",
              "name": "name",
              "type": "string"
            },
            {
              "internalType": "string",
              "name": "giftName",
              "type": "string"
            }
          ],
          "internalType": "struct TimeLockRouter.TimelockGift",
          "name": "timelockGift",
          "type": "tuple"
        }
      ],
      "name": "createTimelockedGift",
      "outputs": [],
      "stateMutability": "payable",
      "type": "function"
    },
    {
      "inputs": [
        {
          "internalType": "uint256",
          "name": "id",
          "type": "uint256"
        }
      ],
      "name": "getStatusOwner",
      "outputs": [
        {
          "internalType": "enum TimelockHelper.LockStatus",
          "name": "",
          "type": "uint8"
        },
        {
          "internalType": "address",
          "name": "",
          "type": "address"
        }
      ],
      "stateMutability": "view",
      "type": "function"
    },
    {
      "inputs": [
        {
          "internalType": "address",
          "name": "initialOwner",
          "type": "address"
        }
      ],
      "name": "initialize",
      "outputs": [],
      "stateMutability": "nonpayable",
      "type": "function"
    },
    {
      "inputs": [],
      "name": "owner",
      "outputs": [
        {
          "internalType": "address",
          "name": "",
          "type": "address"
        }
      ],
      "stateMutability": "view",
      "type": "function"
    },
    {
      "inputs": [],
      "name": "renounceOwnership",
      "outputs": [],
      "stateMutability": "nonpayable",
      "type": "function"
    },
    {
      "inputs": [
        {
          "internalType": "address payable",
          "name": "_timelockERC20",
          "type": "address"
        },
        {
          "internalType": "address payable",
          "name": "_timelockERC721",
          "type": "address"
        },
        {
          "internalType": "address payable",
          "name": "_timelockERC1155",
          "type": "address"
        }
      ],
      "name": "setTimelock",
      "outputs": [],
      "stateMutability": "nonpayable",
      "type": "function"
    },
    {
      "inputs": [],
      "name": "timelockCounter",
      "outputs": [
        {
          "internalType": "uint256",
          "name": "",
          "type": "uint256"
        }
      ],
      "stateMutability": "view",
      "type": "function"
    },
    {
      "inputs": [],
      "name": "timelockERC1155Contract",
      "outputs": [
        {
          "internalType": "contract TimelockERC1155",
          "name": "",
          "type": "address"
        }
      ],
      "stateMutability": "view",
      "type": "function"
    },
    {
      "inputs": [],
      "name": "timelockERC20Contract",
      "outputs": [
        {
          "internalType": "contract TimelockERC20",
          "name": "",
          "type": "address"
        }
      ],
      "stateMutability": "view",
      "type": "function"
    },
    {
      "inputs": [],
      "name": "timelockERC721Contract",
      "outputs": [
        {
          "internalType": "contract TimelockERC721",
          "name": "",
          "type": "address"
        }
      ],
      "stateMutability": "view",
      "type": "function"
    },
    {
      "inputs": [
        {
          "internalType": "address",
          "name": "newOwner",
          "type": "address"
        }
      ],
      "name": "transferOwnership",
      "outputs": [],
      "stateMutability": "nonpayable",
      "type": "function"
    },
    {
      "inputs": [
        {
          "internalType": "uint256",
          "name": "id",
          "type": "uint256"
        }
      ],
      "name": "unlockSoftTimelock",
      "outputs": [],
      "stateMutability": "nonpayable",
      "type": "function"
    },
    {
      "inputs": [
        {
          "internalType": "uint256",
          "name": "id",
          "type": "uint256"
        }
      ],
      "name": "withdraw",
      "outputs": [],
      "stateMutability": "nonpayable",
      "type": "function"
    },
    {
      "stateMutability": "payable",
      "type": "receive"
    }
  ],
  "transactionHash": "0x1dc9924f1ac45c8728558e43044e8ebc4a736110555aa95bcbdd6f46b2e7c068",
  "args": [],
  "numDeployments": 1,
  "solcInputHash": "f2556dfeb12466a7e876316d5b86d684",
  "bytecode": "0x6080806040523461001657611f84908161001c8239f35b600080fdfe608080604052600436101561001d575b50361561001b57600080fd5b005b600090813560e01c908163073d77b91461111a575080632e1a7d4d14611072578063460fe45f1461104b5780634edea07814610e16578063715018a614610dab57806378509da4146109ae5780638da5cb5b14610978578063ae6843571461084b578063bdae56bb14610822578063c4d66de8146106e7578063ebc980b8146106c9578063ecc05e021461064e578063ee8e25be146102db578063f168c0cc1461010a5763f2fde38b0361000f5734610107576020366003190112610107576004356001600160a01b038116810361010357610100906100fb611171565b6111aa565b80f35b5080fd5b80fd5b50346101075760203660031901126101075760043560018060a01b0380835416604051938491604083632e31150760e11b9283825287600483015260249889915afa94851561029657829383966102b4575b508684969460048110156102a1571561023d575b50600486101561022a5785156101b4575b50505060405192600481101561019f57604094508352166020820152f35b84634e487b7160e01b60005260216004526000fd5b90925060409194508584600254169383519485938492835260048301525afa90811561021f5783916101ea575b50388080610181565b905061020f91925060403d604011610218575b610207818361134d565b81019061136f565b919091386101e1565b503d6101fd565b6040513d85823e3d90fd5b634e487b7160e01b835260216004528683fd5b93509450604084600154168151948580928582528960048301525afa80156102965782938391610271575b50929486610170565b905061028d91935060403d60401161021857610207818361134d565b92909238610268565b6040513d84823e3d90fd5b50634e487b7160e01b8452602160045283fd5b9095506102d191935060403d60401161021857610207818361134d565b929092943861015c565b506102e53661113f565b906060820135801561063c576102fb838061125f565b90501580610633575b6105dd57610313600354611295565b80600355610321848061125f565b9050610533575b50602092838101610339818361125f565b905061047f575b50604081019061035082826112ed565b905061035a578380f35b61037761036a60035493836112ed565b91909260808101906112ba565b6103848385949394611c85565b959093895b818110610414575050508798506103a1858483611db3565b6103ac858483611d08565b6002546001600160a01b031693843b1561041057889687936103e7926040519a8b998a988997636893883d60e11b8952339660048a01611c04565b03925af18015610296576103fc575b80808380f35b61040590611323565b6101075780386103f6565b8880fd5b8061042b61042661047a938587611c75565b6113a0565b6104358287611515565b6001600160a01b0390911690528c61044e828587611c75565b013561045a8289611515565b526040610468828587611c75565b0135610474828b611515565b52611295565b610389565b61048c600354918361125f565b90916104a661049e60808601866112ba565b939094611529565b916104b18383611a74565b6104bb83836119c7565b6001546001600160a01b031693843b15610410578894926104f88995938793604051998a988997889662c5ae3760e31b8852339560048901611446565b03925af1801561052857908491610510575b50610340565b61051990611323565b61052457823861050a565b8280fd5b6040513d86823e3d90fd5b61053d848061125f565b909161056d61055a61055260808901896112ba565b949095611529565b61056681839493611882565b9083611612565b86546001600160a01b031693909290843b156105d957916105ab8794928996946040519889978896879662c5ae3760e31b8852339560048901611446565b039134905af1801561021f579083916105c5575b50610328565b6105ce90611323565b6101035781386105bf565b8780fd5b60405162461bcd60e51b815260206004820152602860248201527f455448206e6f7420616363657074656420666f72206e6f6e2d45524332302074604482015267696d656c6f636b7360c01b6064820152608490fd5b50341515610304565b60405163e5e5346b60e01b8152600490fd5b5034610107576060366003190112610107576001600160a01b03600435818116908190036106c4576024358281168091036106c4576044359283168093036106c457610698611171565b6bffffffffffffffffffffffff60a01b9182855416178455816001541617600155600254161760025580f35b600080fd5b50346101075780600319360112610107576020600354604051908152f35b5034610107576020366003190112610107576004356001600160a01b0381168103610103577ff0c57e16840df040f15088dc2f81fe391c3923bec73e23a9662efc9c229c6a0090815460ff8160401c16159167ffffffffffffffff82168015908161081a575b6001149081610810575b159081610807575b506107f55767ffffffffffffffff198216600117845561079091836107d6575b5061078861121e565b6100fb61121e565b610798575080f35b68ff00000000000000001981541690557fc7f505b2f371ae2175ee4913f4499e1f2633a7b5936321eed1cdaeb6115181d2602060405160018152a180f35b68ffffffffffffffffff1916680100000000000000011784553861077f565b60405163f92ee8a960e01b8152600490fd5b9050153861075f565b303b159150610757565b84915061074d565b50346101075780600319360112610107576002546040516001600160a01b039091168152602090f35b50346101075760203660031901126101075780548190600435906001600160a01b0390811690813b1561093c57604051630fdfd65360e41b808252600482018590523360248301529285908290604490829084905af1908115610955578591610964575b50508060015416803b1561096057604051838152600481018590523360248201529085908290818381604481015b03925af1908115610955578591610941575b50506002541691823b1561093c5760405191825260048201523360248201529082908290818381604481015b03925af180156102965761092c5750f35b61093590611323565b6101075780f35b505050fd5b61094a90611323565b61093c5783386108ef565b6040513d87823e3d90fd5b8480fd5b61096d90611323565b61093c5783386108af565b5034610107578060031936011261010757600080516020611f2f833981519152546040516001600160a01b039091168152602090f35b5060203660031901126101075767ffffffffffffffff600435116101075760e060043536036003190112610107576064600435013515610d99576001600160a01b036109fe6004356084016113a0565b1615610d8757610a1260048035018061125f565b90501580610d7e575b6105dd5780610a2b600354611295565b6003819055610a3e60048035018061125f565b9050610ca9575b50602460043501610a5b8160043560040161125f565b9050610bd0575b50604460043501610a78816004356004016112ed565b9050610a815750f35b610a93600354916004356004016112ed565b610aa16084600435016113a0565b91610ab660a4600435016004356004016112ba565b610ad8610ad060c4600495949535016004356004016112ba565b959093611c85565b9791939095610ae8898887611db3565b610af3898887611d08565b6002546001600160a01b031695863b15610bcc578a9889956040519b8c9a8b998a98633489908d60e01b8a5260048a01526024890161014090526101448901610b3b916113b4565b8881036003190160448a0152610b50916113f1565b878103600319016064890152610b65916113f1565b6064600435013560848801526001600160a01b0390921660a48701528582036003190160c4870152610b9692611425565b906003198483030160e4850152610bac92611425565b33610104830152600261012483015203925af180156102965761092c5750f35b8a80fd5b610be26003549160043560040161125f565b9091610bf26084600435016113a0565b90610c0760a4600435016004356004016112ba565b919094610c29610c2160c4600435016004356004016112ba565b969092611529565b9093610c358286611a74565b610c3f82866119c7565b6001546001600160a01b031694853b15610ca55789978894610c82936040519b8c9a8b998a986312d01b0960e01b8a523397606460043501359260048c01611594565b03925af180156102965715610a6257610c9a90611323565b610107578038610a62565b8980fd5b610d1690610cbb60048035018061125f565b610ccc6084600494939435016113a0565b91610ce160a4600435016004356004016112ba565b610d03610cfb60c4600499949935016004356004016112ba565b959097611529565b610d0f81839593611882565b9084611612565b88546001600160a01b031694909290853b15610ca5578997610d59936040519a8b998a9889986312d01b0960e01b8a523397606460043501359260048c01611594565b039134905af180156102965715610a4557610d7390611323565b610107578038610a45565b50341515610a1b565b604051634e46966960e11b8152600490fd5b60405163346ab43760e11b8152600490fd5b5034610107578060031936011261010757610dc4611171565b600080516020611f2f83398151915280546001600160a01b031981169091556000906001600160a01b03167f8be0079c531659141344cd1fd0a4f28419497f9722a3daafe3b4186f6b6457e08280a380f35b50610e203661113f565b60608101358015610d9957610e35828061125f565b90501580611042575b6105dd578291610e4f600354611295565b80600355610e5d828061125f565b9050610fbc575b5060208101610e73818361125f565b9050610f12575b506040810190610e8a82826112ed565b9050610e9557505050f35b610eb690610ebe610ea960035494836112ed565b93909260808101906112ba565b939092611c85565b939091610ecc858483611db3565b610ed7858483611d08565b6002546001600160a01b031693843b15610410578896879361091b926040519a8b998a988997632c0aae6160e11b8952339660048a01611c04565b610f1f600354918361125f565b610f3a610f3260808695949501866112ba565b929094611529565b610f4681839593611a74565b610f5081856119c7565b6001546001600160a01b031691823b15610410578894610f8c86928a96604051998a988997889663167f549560e31b8852339560048901611446565b03925af1908115610528578491610fa4575b50610e7a565b610fad90611323565b610fb8578238610f9e565b5050fd5b610fc6828061125f565b9091610fdb61055a61055260808701876112ba565b87546001600160a01b031691823b156104105761101488948a966040519889978896879663167f549560e31b8852339560048901611446565b039134905af190811561052857849161102e575b50610e64565b61103790611323565b610fb8578238611028565b50341515610e3e565b5034610107578060031936011261010757546040516001600160a01b039091168152602090f35b50346101075760203660031901126101075780546001600160a01b039190600435908316803b1561052457604051627b8a6760e11b808252600482018490523360248301529094909184908690604490829084905af1801561052857611106575b8394508060015416803b1561096057604051838152600481018590523360248201529085908290818381604481016108dd565b92909361111290611323565b9183906110d3565b9050346101035781600319360112610103576001546001600160a01b03168152602090f35b600319906020818301126106c4576004359167ffffffffffffffff83116106c4578260a0920301126106c45760040190565b600080516020611f2f833981519152546001600160a01b0316330361119257565b60405163118cdaa760e01b8152336004820152602490fd5b6001600160a01b0390811690811561120557600080516020611f2f83398151915280546001600160a01b031981168417909155167f8be0079c531659141344cd1fd0a4f28419497f9722a3daafe3b4186f6b6457e0600080a3565b604051631e4fbdf760e01b815260006004820152602490fd5b60ff7ff0c57e16840df040f15088dc2f81fe391c3923bec73e23a9662efc9c229c6a005460401c161561124d57565b604051631afcd79f60e31b8152600490fd5b903590601e19813603018212156106c4570180359067ffffffffffffffff82116106c457602001918160061b360383136106c457565b60001981146112a45760010190565b634e487b7160e01b600052601160045260246000fd5b903590601e19813603018212156106c4570180359067ffffffffffffffff82116106c4576020019181360383136106c457565b903590601e19813603018212156106c4570180359067ffffffffffffffff82116106c4576020019160608202360383136106c457565b67ffffffffffffffff811161133757604052565b634e487b7160e01b600052604160045260246000fd5b90601f8019910116810190811067ffffffffffffffff82111761133757604052565b91908260409103126106c457815160048110156106c457602092909201516001600160a01b03811681036106c45790565b356001600160a01b03811681036106c45790565b90815180825260208080930193019160005b8281106113d4575050505090565b83516001600160a01b0316855293810193928101926001016113c6565b90815180825260208080930193019160005b828110611411575050505090565b835185529381019392810192600101611403565b908060209392818452848401376000828201840152601f01601f1916010190565b93919461147e6114919461147060c09860029a959c9b9c895260e060208a015260e08901906113b4565b9087820360408901526113f1565b9260608601528483036080860152611425565b6001600160a01b0390951660a08201520152565b67ffffffffffffffff81116113375760051b60200190565b906114c7826114a5565b6114d4604051918261134d565b82815280926114e5601f19916114a5565b0190602036910137565b91908110156114ff5760061b0190565b634e487b7160e01b600052603260045260246000fd5b80518210156114ff5760209160051b010190565b91611533826114bd565b9261153d836114bd565b9260005b81811061154d57505050565b8061155f61042661158f9385876114ef565b6115698289611515565b6001600160a01b03909116905260206115838285876114ef565b01356104748288611515565b611541565b9661160795966115d460029b956115c69d9e9d6115f9966101009d99968d5260208d61012091829101528d01906113b4565b908b820360408d01526113f1565b60608a01939093526001600160a01b0397881660808a015288830360a08a0152611425565b9185830360c0870152611425565b951660e08201520152565b929134036118705761162483516114bd565b9260005b815181101561186b576001600160a01b0373eeeeeeeeeeeeeeeeeeeeeeeeeeeeeeeeeeeeeeee816116598486611515565b511603611670575b5061166b90611295565b611628565b8061167b8385611515565b5116908060005416916040928351928380926370a0823160e01b90818352600495818785015260209384916024998a915afa94851561186057888c928b8d8b9460009a61181d575b508794926117236116e7848c6116df6000999761173197611515565b511699611515565b5193516323b872dd60e01b888201908152339682019687526001600160a01b039093166020870152604086019490945290938391606090910190565b03601f19810183528261134d565b519082855af115611812576000513d6118095750803b155b6117f457508190868461175c8b8d611515565b5116946000541691895195869384928352898301525afa9586156117ea57506000956117b9575b505083039283116117a65750509061166b9161179f8288611515565b5290611661565b601190634e487b7160e01b600052526000fd5b8181969293963d83116117e3575b6117d1818361134d565b81010312610107575051923880611783565b503d6117c7565b513d6000823e3d90fd5b858791895191635274afe760e01b8352820152fd5b60011415611749565b87513d6000823e3d90fd5b95505050939495969150508482813d8311611859575b61183d818361134d565b81010312610107575051939291908a90879089908b8d876116c3565b503d611833565b88513d6000823e3d90fd5b505050565b6040516332201f6960e11b8152600490fd5b9190825180159081156119bb575b506119a9576000805b8451811015611919576118ac8184611515565b51156119075773eeeeeeeeeeeeeeeeeeeeeeeeeeeeeeeeeeeeeeee6001600160a01b036118d98388611515565b5116146118ef575b6118ea90611295565b611899565b90506118ea6118fe8284611515565b519190506118e1565b604051632160733960e01b8152600490fd5b5091905060005b83518110156119a35760018082018083116112a457815b61194c575b505061194790611295565b611920565b855181101561199e576001600160a01b03806119688589611515565b5116906119758389611515565b51161461198c576119868291611295565b90611937565b604051630254983f60e41b8152600490fd5b61193c565b50915090565b6040516373d4509160e11b8152600490fd5b90508151141538611890565b91909160005b8151811015611a6e576001600160a01b03806119e98385611515565b511690600154166119fa8387611515565b5191803b156106c45760408051632142170760e11b81523360048201526001600160a01b0393909316602484015260448301939093529091906000908390606490829084905af19081156117ea575090611a5a9291611a5f575b50611295565b6119cd565b611a6890611323565b38611a54565b50509050565b91909180518015908115611be0575b506119a95760005b8151811015611a6e576001600160a01b0380611aa78385611515565b51169060408051916301ffc9a760e01b835282806004956380ac58cd60e01b87830152602092839160249788915afa918215611bd557600092611ba8575b505015611b985760019283860190818711611b855750835b611b15575b5050505050611b1090611295565b611a8b565b8651811015611b805781611b298789611515565b511682611b36838a611515565b51161480611b63575b611b5357611b4d8491611295565b90611afd565b8251635b00df1b60e11b81528590fd5b50611b6e868a611515565b51611b79828b611515565b5114611b3f565b611b02565b634e487b7160e01b600090815260118752fd5b815163a1e9dd9d60e01b81528490fd5b611bc79250803d10611bce575b611bbf818361134d565b810190611bec565b3880611ae5565b503d611bb5565b84513d6000823e3d90fd5b90508351141538611a83565b908160209103126106c4575180151581036106c45790565b9492611c6194611c40611c4e92611c3260029b9660e09b969e9d9e8b526101008060208d01528b01906113b4565b9089820360408b01526113f1565b9087820360608901526113f1565b92608086015284830360a0860152611425565b6001600160a01b0390951660c08201520152565b91908110156114ff576060020190565b90611c8f816114bd565b92611c99826114bd565b92611ca3836114bd565b9260005b818110611cb357505050565b80611cc5610426611d03938587611c75565b611ccf828a611515565b6001600160a01b0390911690526020611ce9828587611c75565b0135611cf58289611515565b526040611583828587611c75565b611ca7565b92919060005b8451811015611dac576001600160a01b0380611d2a8388611515565b5116906002541690611d3c8385611515565b5191611d488487611515565b5192823b156106c45760c46000928360409586519788958694637921219560e11b865233600487015260248601526044850152606484015260a060848401528160a48401525af19081156117ea575090611da79291611a5f5750611295565b611d0e565b5050509050565b9283518015908115611f22575b508015611f16575b6119a95760005b8351811015611e0857611de28185611515565b5115611df657611df190611295565b611dcf565b604051631f2a200560e01b8152600490fd5b5091509160005b8151811015611a6e576001600160a01b0380611e2b8385611515565b51169060408051916301ffc9a760e01b83528280600495636cdb3d1360e11b87830152602092839160249788915afa918215611bd557600092611ef9575b505015611b985760019283860190818711611b855750835b611e99575b5050505050611e9490611295565b611e0f565b8651811015611ef45781611ead8789611515565b511682611eba838a611515565b51161480611ed7575b611b5357611ed18491611295565b90611e81565b50611ee2868a611515565b51611eed828b611515565b5114611ec3565b611e86565b611f0f9250803d10611bce57611bbf818361134d565b3880611e69565b50815183511415611dc8565b90508251141538611dc056fe9016d09d72d40fdae2fd8ceac6b6234c7706214fd39c1cd1e609a0528c199300a2646970667358221220c5d96e5db36e13b5e4b3316cee71b628a020033c0827c9a555e8bd5ef40af09964736f6c63430008140033",
  "devdoc": {
    "errors": {
      "InvalidInitialization()": [
        {
          "details": "The contract is already initialized."
        }
      ],
      "NotInitializing()": [
        {
          "details": "The contract is not initializing."
        }
      ],
      "OwnableInvalidOwner(address)": [
        {
          "details": "The owner is not a valid owner account. (eg. `address(0)`)"
        }
      ],
      "OwnableUnauthorizedAccount(address)": [
        {
          "details": "The caller account is not authorized to perform an operation."
        }
      ],
      "SafeERC20FailedOperation(address)": [
        {
          "details": "An operation with an ERC-20 token failed."
        }
      ]
    },
    "events": {
      "Initialized(uint64)": {
        "details": "Triggered when the contract has been initialized or reinitialized."
      }
    },
    "kind": "dev",
    "methods": {
      "owner()": {
        "details": "Returns the address of the current owner."
      },
      "renounceOwnership()": {
        "details": "Leaves the contract without owner. It will not be possible to call `onlyOwner` functions. Can only be called by the current owner. NOTE: Renouncing ownership will leave the contract without an owner, thereby disabling any functionality that is only available to the owner."
      },
      "transferOwnership(address)": {
        "details": "Transfers ownership of the contract to a new account (`newOwner`). Can only be called by the current owner."
      }
    },
    "version": 1
  },
  "userdoc": {
    "kind": "user",
    "methods": {},
    "version": 1
  },
  "storageLayout": {
    "storage": [
      {
        "astId": 42874,
        "contract": "contracts/timelock/TimeLockRouter.sol:TimeLockRouter",
        "label": "timelockERC20Contract",
        "offset": 0,
        "slot": "0",
        "type": "t_contract(TimelockERC20)42075"
      },
      {
        "astId": 42877,
        "contract": "contracts/timelock/TimeLockRouter.sol:TimeLockRouter",
        "label": "timelockERC721Contract",
        "offset": 0,
        "slot": "1",
        "type": "t_contract(TimelockERC721)42771"
      },
      {
        "astId": 42880,
        "contract": "contracts/timelock/TimeLockRouter.sol:TimeLockRouter",
        "label": "timelockERC1155Contract",
        "offset": 0,
        "slot": "2",
        "type": "t_contract(TimelockERC1155)41367"
      },
      {
        "astId": 42882,
        "contract": "contracts/timelock/TimeLockRouter.sol:TimeLockRouter",
        "label": "timelockCounter",
        "offset": 0,
        "slot": "3",
        "type": "t_uint256"
      }
    ],
    "types": {
      "t_contract(TimelockERC1155)41367": {
        "encoding": "inplace",
        "label": "contract TimelockERC1155",
        "numberOfBytes": "20"
      },
      "t_contract(TimelockERC20)42075": {
        "encoding": "inplace",
        "label": "contract TimelockERC20",
        "numberOfBytes": "20"
      },
      "t_contract(TimelockERC721)42771": {
        "encoding": "inplace",
        "label": "contract TimelockERC721",
        "numberOfBytes": "20"
      },
      "t_uint256": {
        "encoding": "inplace",
        "label": "uint256",
        "numberOfBytes": "32"
      }
    }
  }
}