{
  "address": "0xd2ac5D33f9409d63Debfa15022ba8C23b31159e0",
  "abi": [
    {
      "inputs": [],
      "stateMutability": "nonpayable",
      "type": "constructor"
    },
    {
      "inputs": [],
      "name": "ActivationTriggerInvalid",
      "type": "error"
    },
    {
      "inputs": [],
      "name": "CannotClaim",
      "type": "error"
    },
    {
      "inputs": [],
      "name": "DistributionsInvalid",
      "type": "error"
    },
    {
      "inputs": [
        {
          "internalType": "address",
          "name": "",
          "type": "address"
        }
      ],
      "name": "ExistedGuardInSafeWallet",
      "type": "error"
    },
    {
      "inputs": [],
      "name": "GuardNotFound",
      "type": "error"
    },
    {
      "inputs": [],
      "name": "GuardSafeWalletInvalid",
      "type": "error"
    },
    {
      "inputs": [],
      "name": "InvalidInitialization",
      "type": "error"
    },
    {
      "inputs": [],
      "name": "LegacyNotFound",
      "type": "error"
    },
    {
      "inputs": [],
      "name": "ModuleSafeWalletInvalid",
      "type": "error"
    },
    {
      "inputs": [],
      "name": "NotInitializing",
      "type": "error"
    },
    {
      "inputs": [],
      "name": "NumAssetsInvalid",
      "type": "error"
    },
    {
      "inputs": [],
      "name": "NumBeneficiariesInvalid",
      "type": "error"
    },
    {
      "inputs": [],
      "name": "OnlyBeneficaries",
      "type": "error"
    },
    {
      "inputs": [],
      "name": "SafeWalletInvalid",
      "type": "error"
    },
    {
      "inputs": [
        {
          "internalType": "address",
          "name": "",
          "type": "address"
        }
      ],
      "name": "SenderIsCreatedLegacy",
      "type": "error"
    },
    {
      "inputs": [],
      "name": "SignerIsNotOwnerOfSafeWallet",
      "type": "error"
    },
    {
      "anonymous": false,
      "inputs": [
        {
          "indexed": false,
          "internalType": "uint64",
          "name": "version",
          "type": "uint64"
        }
      ],
      "name": "Initialized",
      "type": "event"
    },
    {
      "anonymous": false,
      "inputs": [
        {
          "indexed": false,
          "internalType": "uint256",
          "name": "legacyId",
          "type": "uint256"
        },
        {
          "indexed": false,
          "internalType": "uint8",
          "name": "layer",
          "type": "uint8"
        },
        {
          "indexed": false,
          "internalType": "uint256",
          "name": "timestamp",
          "type": "uint256"
        }
      ],
      "name": "TransferLegacyActivated",
      "type": "event"
    },
    {
      "anonymous": false,
      "inputs": [
        {
          "indexed": false,
          "internalType": "uint256",
          "name": "legacyId",
          "type": "uint256"
        },
        {
          "components": [
            {
              "internalType": "string",
              "name": "name",
              "type": "string"
            },
            {
              "internalType": "string",
              "name": "note",
              "type": "string"
            },
            {
              "internalType": "string[]",
              "name": "nickNames",
              "type": "string[]"
            },
            {
              "components": [
                {
                  "internalType": "address",
                  "name": "user",
                  "type": "address"
                },
                {
                  "internalType": "uint256",
                  "name": "percent",
                  "type": "uint256"
                }
              ],
              "internalType": "struct TransferLegacyStruct.Distribution[]",
              "name": "distributions",
              "type": "tuple[]"
            }
          ],
          "indexed": false,
          "internalType": "struct TransferLegacyRouter.LegacyMainConfig",
          "name": "mainConfig",
          "type": "tuple"
        },
        {
          "components": [
            {
              "internalType": "uint256",
              "name": "lackOfOutgoingTxRange",
              "type": "uint256"
            },
            {
              "internalType": "uint256",
              "name": "delayLayer2",
              "type": "uint256"
            },
            {
              "internalType": "uint256",
              "name": "delayLayer3",
              "type": "uint256"
            }
          ],
          "indexed": false,
          "internalType": "struct TransferLegacyStruct.LegacyExtraConfig",
          "name": "extraConfig",
          "type": "tuple"
        },
        {
          "indexed": false,
          "internalType": "uint256",
          "name": "timestamp",
          "type": "uint256"
        }
      ],
      "name": "TransferLegacyConfigUpdated",
      "type": "event"
    },
    {
      "anonymous": false,
      "inputs": [
        {
          "indexed": false,
          "internalType": "uint256",
          "name": "legacyId",
          "type": "uint256"
        },
        {
          "indexed": false,
          "internalType": "address",
          "name": "legacyAddress",
          "type": "address"
        },
        {
          "indexed": false,
          "internalType": "address",
          "name": "guardAddress",
          "type": "address"
        },
        {
          "indexed": false,
          "internalType": "address",
          "name": "creatorAddress",
          "type": "address"
        },
        {
          "indexed": false,
          "internalType": "address",
          "name": "safeAddress",
          "type": "address"
        },
        {
          "components": [
            {
              "internalType": "string",
              "name": "name",
              "type": "string"
            },
            {
              "internalType": "string",
              "name": "note",
              "type": "string"
            },
            {
              "internalType": "string[]",
              "name": "nickNames",
              "type": "string[]"
            },
            {
              "components": [
                {
                  "internalType": "address",
                  "name": "user",
                  "type": "address"
                },
                {
                  "internalType": "uint256",
                  "name": "percent",
                  "type": "uint256"
                }
              ],
              "internalType": "struct TransferLegacyStruct.Distribution[]",
              "name": "distributions",
              "type": "tuple[]"
            }
          ],
          "indexed": false,
          "internalType": "struct TransferLegacyRouter.LegacyMainConfig",
          "name": "mainConfig",
          "type": "tuple"
        },
        {
          "components": [
            {
              "internalType": "uint256",
              "name": "lackOfOutgoingTxRange",
              "type": "uint256"
            },
            {
              "internalType": "uint256",
              "name": "delayLayer2",
              "type": "uint256"
            },
            {
              "internalType": "uint256",
              "name": "delayLayer3",
              "type": "uint256"
            }
          ],
          "indexed": false,
          "internalType": "struct TransferLegacyStruct.LegacyExtraConfig",
          "name": "extraConfig",
          "type": "tuple"
        },
        {
          "indexed": false,
          "internalType": "uint256",
          "name": "timestamp",
          "type": "uint256"
        }
      ],
      "name": "TransferLegacyCreated",
      "type": "event"
    },
    {
      "anonymous": false,
      "inputs": [
        {
          "indexed": false,
          "internalType": "uint256",
          "name": "legacyId",
          "type": "uint256"
        },
        {
          "indexed": false,
          "internalType": "string[]",
          "name": "nickNames",
          "type": "string[]"
        },
        {
          "components": [
            {
              "internalType": "address",
              "name": "user",
              "type": "address"
            },
            {
              "internalType": "uint256",
              "name": "percent",
              "type": "uint256"
            }
          ],
          "indexed": false,
          "internalType": "struct TransferLegacyStruct.Distribution[]",
          "name": "distributions",
          "type": "tuple[]"
        },
        {
          "indexed": false,
          "internalType": "uint256",
          "name": "timestamp",
          "type": "uint256"
        }
      ],
      "name": "TransferLegacyDistributionUpdated",
      "type": "event"
    },
    {
      "anonymous": false,
      "inputs": [
        {
          "indexed": false,
          "internalType": "uint256",
          "name": "legacyId",
          "type": "uint256"
        },
        {
          "indexed": false,
          "internalType": "uint8",
          "name": "layer",
          "type": "uint8"
        },
        {
          "components": [
            {
              "internalType": "address",
              "name": "user",
              "type": "address"
            },
            {
              "internalType": "uint256",
              "name": "percent",
              "type": "uint256"
            }
          ],
          "indexed": false,
          "internalType": "struct TransferLegacyStruct.Distribution",
          "name": "distribution",
          "type": "tuple"
        },
        {
          "indexed": false,
          "internalType": "string",
          "name": "nickName",
          "type": "string"
        }
      ],
      "name": "TransferLegacyLayer23Created",
      "type": "event"
    },
    {
      "anonymous": false,
      "inputs": [
        {
          "indexed": false,
          "internalType": "uint256",
          "name": "legacyId",
          "type": "uint256"
        },
        {
          "indexed": false,
          "internalType": "uint8",
          "name": "layer",
          "type": "uint8"
        },
        {
          "indexed": false,
          "internalType": "string",
          "name": "nickNames",
          "type": "string"
        },
        {
          "components": [
            {
              "internalType": "address",
              "name": "user",
              "type": "address"
            },
            {
              "internalType": "uint256",
              "name": "percent",
              "type": "uint256"
            }
          ],
          "indexed": false,
          "internalType": "struct TransferLegacyStruct.Distribution",
          "name": "distribution",
          "type": "tuple"
        },
        {
          "indexed": false,
          "internalType": "uint256",
          "name": "timestamp",
          "type": "uint256"
        }
      ],
      "name": "TransferLegacyLayer23DistributionUpdated",
      "type": "event"
    },
    {
      "anonymous": false,
      "inputs": [
        {
          "indexed": false,
          "internalType": "uint256",
          "name": "legacyId",
          "type": "uint256"
        },
        {
          "indexed": false,
          "internalType": "string",
          "name": "name",
          "type": "string"
        },
        {
          "indexed": false,
          "internalType": "string",
          "name": "note",
          "type": "string"
        },
        {
          "indexed": false,
          "internalType": "uint256",
          "name": "timestamp",
          "type": "uint256"
        }
      ],
      "name": "TransferLegacyNameNoteUpdated",
      "type": "event"
    },
    {
      "anonymous": false,
      "inputs": [
        {
          "indexed": false,
          "internalType": "uint256",
          "name": "legacyId",
          "type": "uint256"
        },
        {
          "indexed": false,
          "internalType": "uint128",
          "name": "lackOfOutgoingTxRange",
          "type": "uint128"
        },
        {
          "indexed": false,
          "internalType": "uint256",
          "name": "timestamp",
          "type": "uint256"
        }
      ],
      "name": "TransferLegacyTriggerUpdated",
      "type": "event"
    },
    {
      "inputs": [],
      "name": "BENEFICIARIES_LIMIT",
      "outputs": [
        {
          "internalType": "uint256",
          "name": "",
          "type": "uint256"
        }
      ],
      "stateMutability": "view",
      "type": "function"
    },
    {
      "inputs": [
        {
          "internalType": "uint256",
          "name": "legacyId_",
          "type": "uint256"
        },
        {
          "internalType": "address[]",
          "name": "assets_",
          "type": "address[]"
        },
        {
          "internalType": "bool",
          "name": "isETH_",
          "type": "bool"
        }
      ],
      "name": "activeLegacy",
      "outputs": [],
      "stateMutability": "nonpayable",
      "type": "function"
    },
    {
      "inputs": [
        {
          "internalType": "uint256",
          "name": "legacyId_",
          "type": "uint256"
        }
      ],
      "name": "checkActiveLegacy",
      "outputs": [
        {
          "internalType": "bool",
          "name": "",
          "type": "bool"
        }
      ],
      "stateMutability": "view",
      "type": "function"
    },
    {
      "inputs": [
        {
          "internalType": "address",
          "name": "safeWallet",
          "type": "address"
        },
        {
          "components": [
            {
              "internalType": "string",
              "name": "name",
              "type": "string"
            },
            {
              "internalType": "string",
              "name": "note",
              "type": "string"
            },
            {
              "internalType": "string[]",
              "name": "nickNames",
              "type": "string[]"
            },
            {
              "components": [
                {
                  "internalType": "address",
                  "name": "user",
                  "type": "address"
                },
                {
                  "internalType": "uint256",
                  "name": "percent",
                  "type": "uint256"
                }
              ],
              "internalType": "struct TransferLegacyStruct.Distribution[]",
              "name": "distributions",
              "type": "tuple[]"
            }
          ],
          "internalType": "struct TransferLegacyRouter.LegacyMainConfig",
          "name": "mainConfig_",
          "type": "tuple"
        },
        {
          "components": [
            {
              "internalType": "uint256",
              "name": "lackOfOutgoingTxRange",
              "type": "uint256"
            },
            {
              "internalType": "uint256",
              "name": "delayLayer2",
              "type": "uint256"
            },
            {
              "internalType": "uint256",
              "name": "delayLayer3",
              "type": "uint256"
            }
          ],
          "internalType": "struct TransferLegacyStruct.LegacyExtraConfig",
          "name": "extraConfig_",
          "type": "tuple"
        },
        {
          "components": [
            {
              "internalType": "address",
              "name": "user",
              "type": "address"
            },
            {
              "internalType": "uint256",
              "name": "percent",
              "type": "uint256"
            }
          ],
          "internalType": "struct TransferLegacyStruct.Distribution",
          "name": "layer2Distribution_",
          "type": "tuple"
        },
        {
          "components": [
            {
              "internalType": "address",
              "name": "user",
              "type": "address"
            },
            {
              "internalType": "uint256",
              "name": "percent",
              "type": "uint256"
            }
          ],
          "internalType": "struct TransferLegacyStruct.Distribution",
          "name": "layer3Distribution_",
          "type": "tuple"
        },
        {
          "internalType": "string",
          "name": "nickName2",
          "type": "string"
        },
        {
          "internalType": "string",
          "name": "nickName3",
          "type": "string"
        },
        {
          "internalType": "uint256",
          "name": "signatureTimestamp",
          "type": "uint256"
        },
        {
          "internalType": "bytes",
          "name": "agreementSignature",
          "type": "bytes"
        }
      ],
      "name": "createLegacy",
      "outputs": [
        {
          "internalType": "address",
          "name": "",
          "type": "address"
        },
        {
          "internalType": "address",
          "name": "",
          "type": "address"
        }
      ],
      "stateMutability": "nonpayable",
      "type": "function"
    },
    {
      "inputs": [
        {
          "internalType": "address",
          "name": "sender_",
          "type": "address"
        }
      ],
      "name": "getNextLegacyAddress",
      "outputs": [
        {
          "internalType": "address",
          "name": "",
          "type": "address"
        }
      ],
      "stateMutability": "view",
      "type": "function"
    },
    {
      "inputs": [
        {
          "internalType": "uint256",
          "name": "",
          "type": "uint256"
        }
      ],
      "name": "guardAddresses",
      "outputs": [
        {
          "internalType": "address",
          "name": "",
          "type": "address"
        }
      ],
      "stateMutability": "view",
      "type": "function"
    },
    {
      "inputs": [
        {
          "internalType": "address",
          "name": "_deployerContract",
          "type": "address"
        },
        {
          "internalType": "address",
          "name": "_premiumSetting",
          "type": "address"
        },
        {
          "internalType": "address",
          "name": "_verifier",
          "type": "address"
        },
        {
          "internalType": "address",
          "name": "_paymentContract",
          "type": "address"
        },
        {
          "internalType": "address",
          "name": "router_",
          "type": "address"
        },
        {
          "internalType": "address",
          "name": "weth_",
          "type": "address"
        }
      ],
      "name": "initialize",
      "outputs": [],
      "stateMutability": "nonpayable",
      "type": "function"
    },
    {
      "inputs": [
        {
          "internalType": "uint256",
          "name": "",
          "type": "uint256"
        }
      ],
      "name": "legacyAddresses",
      "outputs": [
        {
          "internalType": "address",
          "name": "",
          "type": "address"
        }
      ],
      "stateMutability": "view",
      "type": "function"
    },
    {
      "inputs": [],
      "name": "legacyDeployerContract",
      "outputs": [
        {
          "internalType": "address",
          "name": "",
          "type": "address"
        }
      ],
      "stateMutability": "view",
      "type": "function"
    },
    {
      "inputs": [],
      "name": "paymentContract",
      "outputs": [
        {
          "internalType": "address",
          "name": "",
          "type": "address"
        }
      ],
      "stateMutability": "view",
      "type": "function"
    },
    {
      "inputs": [],
      "name": "premiumSetting",
      "outputs": [
        {
          "internalType": "address",
          "name": "",
          "type": "address"
        }
      ],
      "stateMutability": "view",
      "type": "function"
    },
    {
      "inputs": [
        {
          "internalType": "uint256",
          "name": "legacyId_",
          "type": "uint256"
        },
        {
          "internalType": "uint128",
          "name": "lackOfOutgoingTxRange_",
          "type": "uint128"
        }
      ],
      "name": "setActivationTrigger",
      "outputs": [],
      "stateMutability": "nonpayable",
      "type": "function"
    },
    {
      "inputs": [
        {
          "internalType": "uint256",
          "name": "legacyId_",
          "type": "uint256"
        },
        {
          "internalType": "string",
          "name": "nicknameLayer2_",
          "type": "string"
        },
        {
          "components": [
            {
              "internalType": "address",
              "name": "user",
              "type": "address"
            },
            {
              "internalType": "uint256",
              "name": "percent",
              "type": "uint256"
            }
          ],
          "internalType": "struct TransferLegacyStruct.Distribution",
          "name": "layer2Distribution_",
          "type": "tuple"
        },
        {
          "internalType": "string",
          "name": "nicknameLayer3_",
          "type": "string"
        },
        {
          "components": [
            {
              "internalType": "address",
              "name": "user",
              "type": "address"
            },
            {
              "internalType": "uint256",
              "name": "percent",
              "type": "uint256"
            }
          ],
          "internalType": "struct TransferLegacyStruct.Distribution",
          "name": "layer3Distribution_",
          "type": "tuple"
        }
      ],
      "name": "setBothLayer23Distributions",
      "outputs": [],
      "stateMutability": "nonpayable",
      "type": "function"
    },
    {
      "inputs": [
        {
          "internalType": "uint256",
          "name": "legacyId_",
          "type": "uint256"
        },
        {
          "internalType": "uint8",
          "name": "layer_",
          "type": "uint8"
        },
        {
          "internalType": "string",
          "name": "nickname_",
          "type": "string"
        },
        {
          "components": [
            {
              "internalType": "address",
              "name": "user",
              "type": "address"
            },
            {
              "internalType": "uint256",
              "name": "percent",
              "type": "uint256"
            }
          ],
          "internalType": "struct TransferLegacyStruct.Distribution",
          "name": "distribution_",
          "type": "tuple"
        }
      ],
      "name": "setLayer23Distributions",
      "outputs": [],
      "stateMutability": "nonpayable",
      "type": "function"
    },
    {
      "inputs": [
        {
          "internalType": "uint256",
          "name": "legacyId_",
          "type": "uint256"
        },
        {
          "components": [
            {
              "internalType": "string",
              "name": "name",
              "type": "string"
            },
            {
              "internalType": "string",
              "name": "note",
              "type": "string"
            },
            {
              "internalType": "string[]",
              "name": "nickNames",
              "type": "string[]"
            },
            {
              "components": [
                {
                  "internalType": "address",
                  "name": "user",
                  "type": "address"
                },
                {
                  "internalType": "uint256",
                  "name": "percent",
                  "type": "uint256"
                }
              ],
              "internalType": "struct TransferLegacyStruct.Distribution[]",
              "name": "distributions",
              "type": "tuple[]"
            }
          ],
          "internalType": "struct TransferLegacyRouter.LegacyMainConfig",
          "name": "mainConfig_",
          "type": "tuple"
        },
        {
          "components": [
            {
              "internalType": "uint256",
              "name": "lackOfOutgoingTxRange",
              "type": "uint256"
            },
            {
              "internalType": "uint256",
              "name": "delayLayer2",
              "type": "uint256"
            },
            {
              "internalType": "uint256",
              "name": "delayLayer3",
              "type": "uint256"
            }
          ],
          "internalType": "struct TransferLegacyStruct.LegacyExtraConfig",
          "name": "extraConfig_",
          "type": "tuple"
        },
        {
          "components": [
            {
              "internalType": "address",
              "name": "user",
              "type": "address"
            },
            {
              "internalType": "uint256",
              "name": "percent",
              "type": "uint256"
            }
          ],
          "internalType": "struct TransferLegacyStruct.Distribution",
          "name": "layer2Distribution_",
          "type": "tuple"
        },
        {
          "components": [
            {
              "internalType": "address",
              "name": "user",
              "type": "address"
            },
            {
              "internalType": "uint256",
              "name": "percent",
              "type": "uint256"
            }
          ],
          "internalType": "struct TransferLegacyStruct.Distribution",
          "name": "layer3Distribution_",
          "type": "tuple"
        },
        {
          "internalType": "string",
          "name": "nickName2",
          "type": "string"
        },
        {
          "internalType": "string",
          "name": "nickName3",
          "type": "string"
        }
      ],
      "name": "setLegacyConfig",
      "outputs": [],
      "stateMutability": "nonpayable",
      "type": "function"
    },
    {
      "inputs": [
        {
          "internalType": "uint256",
          "name": "legacyId_",
          "type": "uint256"
        },
        {
          "internalType": "string[]",
          "name": "nickNames_",
          "type": "string[]"
        },
        {
          "components": [
            {
              "internalType": "address",
              "name": "user",
              "type": "address"
            },
            {
              "internalType": "uint256",
              "name": "percent",
              "type": "uint256"
            }
          ],
          "internalType": "struct TransferLegacyStruct.Distribution[]",
          "name": "distributions_",
          "type": "tuple[]"
        }
      ],
      "name": "setLegacyDistributions",
      "outputs": [],
      "stateMutability": "nonpayable",
      "type": "function"
    },
    {
      "inputs": [
        {
          "internalType": "uint256",
          "name": "legacyId_",
          "type": "uint256"
        },
        {
          "internalType": "string",
          "name": "name_",
          "type": "string"
        },
        {
          "internalType": "string",
          "name": "note_",
          "type": "string"
        }
      ],
      "name": "setNameNote",
      "outputs": [],
      "stateMutability": "nonpayable",
      "type": "function"
    },
    {
      "inputs": [],
      "name": "uniswapRouter",
      "outputs": [
        {
          "internalType": "address",
          "name": "",
          "type": "address"
        }
      ],
      "stateMutability": "view",
      "type": "function"
    },
    {
      "inputs": [],
      "name": "verifier",
      "outputs": [
        {
          "internalType": "contract EIP712LegacyVerifier",
          "name": "",
          "type": "address"
        }
      ],
      "stateMutability": "view",
      "type": "function"
    },
    {
      "inputs": [],
      "name": "weth",
      "outputs": [
        {
          "internalType": "address",
          "name": "",
          "type": "address"
        }
      ],
      "stateMutability": "view",
      "type": "function"
    }
  ],
  "bytecode": "0x608080604052346100b9577ff0c57e16840df040f15088dc2f81fe391c3923bec73e23a9662efc9c229c6a009081549060ff8260401c166100aa57506001600160401b036002600160401b031982821601610065575b604051615c3b9081620000bf8239f35b6001600160401b031990911681179091556040519081527fc7f505b2f371ae2175ee4913f4499e1f2633a7b5936321eed1cdaeb6115181d290602090a1388080610055565b63f92ee8a960e01b8152600490fd5b600080fdfe608080604052600436101561001357600080fd5b600090813560e01c90816311fab21714611ea3575080631593a05614611e1a57806321f6a8ca14611cb15780632b7ac3f314611c885780632fadbcc414611b8a578063318b4fe114611a565780633fc8cef314611a2d5780634cd3a51f14611a12578063643401ff1461141f578063735de9f7146113f6578063910d15fc14610a075780639c91dd56146109de578063a6d9dad7146107ad578063cc2a9a5b146105f7578063dd265b991461039d578063e411f9a21461036a578063f2d5dcf514610299578063f47ca2e914610266578063f895338d1461023d5763fa6e515e146100fd57600080fd5b3461023a57606036600319011261023a576001600160401b0360043560243582811161023657610131903690600401611ef8565b9190926044359081116102325761014c903690600401611ef8565b9361015733846125fd565b856001600160a01b0361016985612082565b16803b1561022e578160405180926305abd90360e01b825260206004830152818381610199602482018d8b612140565b03925af1801561022357610207575b5050907f664ba806f17766626c9ab57b1607ada8ed3c341877745d266a660b70d03b2662946101ed6101fb936040519687968752608060208801526080870191612140565b918483036040860152612140565b4260608301520390a180f35b61021390939293611f91565b61021f579085386101a8565b8580fd5b6040513d84823e3d90fd5b5080fd5b8480fd5b8380fd5b80fd5b503461023a578060031936011261023a576001546040516001600160a01b039091168152602090f35b503461023a57602036600319011261023a57602090600435815260028252604060018060a01b0391205416604051908152f35b503461023a576020908160031936011261023a576102b5611f25565b610307836134b992604051936102cd83820186611fd5565b80855261274d8386013960015460405163ba3143d560e01b81526001600160a01b039590948593928716928492839291906004840161202d565b03915afa92831561035e578093610324575b505060405191168152f35b909192508382813d8311610357575b61033d8183611fd5565b8101031261023a575061034f90611ff6565b903880610319565b503d610333565b604051903d90823e3d90fd5b503461023a57602036600319011261023a57602090600435815260038252604060018060a01b0391205416604051908152f35b503461023a57606036600319011261023a576004356024356001600160401b0381116105aa576103d1903690600401611ec8565b919060443590811591821580910361021f576103ec84612082565b946103f6856120b5565b93806105ef575b6105dd576001600160a01b0395861695863b156105d957604051636c552dd160e01b81529481166004860152608060248601526084850182905287949360a485019392909186905b8282106105ae575050505082849281926044830152336064830152038183885af1801561022357610596575b505060405163021fe24d60e41b8152336004820152602091908281602481875afa90811561056c5760049484918793610577575b5060405163fd780e9d60e01b815295869182905afa93841561056c578594610538575b5060ff80911693168311610526578215610514577f962edccf32d5184304d368314eabdefdac2d8d3a67927a21398e915a9fac97c492606092604051928352820152426040820152a180f35b6040516369562e6560e01b8152600490fd5b6040516371f1e92160e11b8152600490fd5b60ff91945061055d8291853d8711610565575b6105558183611fd5565b810190612733565b9491506104c8565b503d61054b565b6040513d87823e3d90fd5b61058f919350823d8411610565576105558183611fd5565b91386104a5565b61059f90611f91565b6105aa578238610471565b8280fd5b91939483969750826105c260019395611f7d565b168152602080910196019201899695949391610445565b8780fd5b604051634847f0e560e01b8152600490fd5b5080156103fd565b503461023a5760c036600319011261023a57610611611f25565b6001600160a01b0360243581811692908390036107a857604435908282168092036107a8576064358381168091036107a857608435908482168092036107a85760a435938585168095036107a8577ff0c57e16840df040f15088dc2f81fe391c3923bec73e23a9662efc9c229c6a009687549660ff8860401c1615976001600160401b038116801590816107a0575b6001149081610796575b15908161078d575b5061077b5767ffffffffffffffff1981166001178a558861075c575b506bffffffffffffffffffffffff60a01b9516856001541617600155846005541617600555836006541617600655826007541617600755816008541617600855600954161760095561071e575080f35b68ff00000000000000001981541690557fc7f505b2f371ae2175ee4913f4499e1f2633a7b5936321eed1cdaeb6115181d2602060405160018152a180f35b68ffffffffffffffffff191668010000000000000001178955386106ce565b60405163f92ee8a960e01b8152600490fd5b905015386106b2565b303b1591506106aa565b8a91506106a0565b600080fd5b503461023a5760e036600319011261023a576004356001600160401b03602435818111610236576107e2903690600401611ef8565b92909160403660431901126102325760843590811161023257610809903690600401611ef8565b929060403660a319011261021f5761082133846125fd565b6001600160a01b03918261083485612082565b16803b156107a857604051630613702960e01b8082523360048301526002602483015260a060448301529260008261087060a482018c85612140565b948861087a611f51565b1660648301528183816064359889608483015203925af19182156109c3576108c1926109cf575b5060405198878a52600260208b015260c060408b015260c08a0191612140565b90846108cb611f51565b16606089015260808801524260a0880152867f56e3d060f8255df5f025c2c8cb5f68629ca9ba46ead05cdd12f3072a42abf8d09788920390a18261090e85612082565b1691823b156107a8576040519182523360048301526003602483015260a0604483015260008261094260a482018985612140565b948661094c611f67565b16606483015281838160c4359889608483015203925af19182156109c357610994926109b4575b5060405195869586526003602087015260c0604087015260c0860191612140565b9161099d611f67565b16606084015260808301524260a08301520390a180f35b6109bd90611f91565b38610973565b6040513d6000823e3d90fd5b6109d890611f91565b386108a1565b503461023a578060031936011261023a576007546040516001600160a01b039091168152602090f35b503461023a576101a036600319011261023a57610a22611f25565b90602435916001600160401b03908184116105aa57608060031985360301126105aa5760603660431901126105aa5760403660a31901126105aa5760403660e31901126105aa576101243582811161023657610a82903690600401611ef8565b6101449291923584811161021f57610a9e903690600401611ef8565b939094610184359081116113f257610aba903690600401611ef8565b939097610acd60648201826004016120d6565b9050610adf604483018360040161210b565b919050148015906113d9575b6113c7576001600160a01b038216156113b557610b07826123e8565b61139457610b15338361248a565b15611382576044351561137057604051610b3460206134b90182611fd5565b6134b981526134b961274d6020830139885460018101811161135c57610b8a8a9695949392600160409301885560018060a01b03600154169083519c8d809481936303efe8cf60e61b835233906004840161202d565b03925af1998a1561056c578599869b611313575b508554865260026020908152604080882080546001600160a01b03199081166001600160a01b038f81169190911790925589548a5260038452828a2080549091168f831617905533895260049092528720805460ff1916600117905586546006549098911690813b156105d9576040516307557ce760e31b81523360048201526001600160a01b038d1660248201526101643560448201526080606482015292889284929091839185918391610c5991608484019190612140565b03925af18015611288579086916112ff575b50869050610c7f60648301600484016120d6565b9190600160a01b60019003600554168d600160a01b6001900360085416600160a01b6001900360095416600160a01b600190036007541691604489018960040190610cc99161210b565b60405163491a60a160e01b815260048101999099526001600160a01b038c1660248a015261026060448a0152979889989197919591610d0d916102648b01916121a4565b9560443560648a015260643560848a015260843560a48a015260c48901610d3390612161565b610d406101048a01612182565b610144890152336101648901526001600160a01b03166101848801526101a48701526101c48601526101e485015283820360031901610204850152610d8492612228565b81810360031901610224830152610d9c908787612140565b81810360031901610244830152610db4908a8c612140565b6001600160a01b038c169183910381895a94602095f19081156112885786916112cd575b50610de6600483018061228b565b6001600160a01b038c163b156105d957610e22918c8992836040518096819582946305abd90360e01b8452602060048501526024840191612140565b03926001600160a01b03165af18015611249579087916112b9575b50506001600160a01b038b163b1561021f5785808c60246040518094819363189acdbd60e31b835260018060a01b038a16600484015260018060a01b03165af18015611249579087916112a5575b5050610e96906125a5565b156112935760405163d88b9df360e01b8152906020826004816001600160a01b038e165afa918215611288578692611254575b5060405163a250c4cb60e01b81526020816004816001600160a01b038f165afa90811561124957918c93918c93899161120b575b50610fad917faa1f76057cd2dfa57fc0ff33c5e908ed2cc221d230a6279ccaf4d22a91ca53d596610f8e9260405195610f3587611fba565b6044358752602087015260408601526040519687968d885260018060a01b0316602088015260018060a01b0316604087015233606087015260018060a01b031660808601526101408060a08701528501906004016122bd565b825160c0850152602083015160e0850152604090920151610100840152565b426101208301520390a16005546001600160a01b0316803b1561023657604051633edc972160e11b81523360048201526001600160a01b03891660248201529084908290604490829084905af180156111ec579084916111f7575b505060a4356001600160a01b038116908190036107a857604051639247a1b360e01b8152600260048201526024810191909152602081604481876001600160a01b038d165af19081156111ec5784916111ba575b5060e4356001600160a01b03811681036107a857604051639247a1b360e01b8152600360048201526001600160a01b039182166024820152906020908290604490829089908e165af194851561035e5794611186575b5061113b575b50506110df575b5050604080516001600160a01b0393841681529390921660208401525090f35b6111307f8f6c17063820e6ea3803b2bfe692ffa00ca12e191837d2763a86f858aae80e9d9360405193849384526003602085015261111f60408501612182565b60a0608085015260a0840191612140565b0390a13880806110bf565b7f8f6c17063820e6ea3803b2bfe692ffa00ca12e191837d2763a86f858aae80e9d9161117c6040519283928784526002602085015261111f60408501612161565b0390a138806110b8565b9093506020813d6020116111b2575b816111a260209383611fd5565b810103126107a8575192386110b2565b3d9150611195565b90506020813d6020116111e4575b816111d560209383611fd5565b810103126107a857513861105c565b3d91506111c8565b6040513d86823e3d90fd5b61120090611f91565b6105aa578238611008565b94505091506020833d602011611241575b8161122960209383611fd5565b810103126107a85791518b928b929091610fad610efd565b3d915061121c565b6040513d89823e3d90fd5b9091506020813d602011611280575b8161127060209383611fd5565b810103126107a857519038610ec9565b3d9150611263565b6040513d88823e3d90fd5b604051638b450acb60e01b8152600490fd5b6112ae90611f91565b61021f578538610e8b565b6112c290611f91565b61021f578538610e3d565b90506020813d6020116112f7575b816112e860209383611fd5565b810103126107a8575138610dd8565b3d91506112db565b61130890611f91565b610232578438610c6b565b995099506040893d604011611354575b8161133060409383611fd5565b810103126102325761134d60206113468b611ff6565b9a01611ff6565b9938610b9e565b3d9150611323565b634e487b7160e01b8a52601160045260248afd5b604051637710d91d60e11b8152600490fd5b604051634e194fed60e11b8152600490fd5b6040516339e2a09960e01b81526001600160a01b0383166004820152602490fd5b604051630e85d16b60e21b8152600490fd5b60405163657873a760e01b8152600490fd5b506113ea60648201826004016120d6565b905015610aeb565b8680fd5b503461023a578060031936011261023a576008546040516001600160a01b039091168152602090f35b503461023a576003196101603682011261022e57602435906001600160401b038083116102365760808284360301126102365760603660431901126102365760403660a31901126102365760403660e319011261023657610124358181116102325761148f903690600401611ef8565b916101443590811161021f576114a9903690600401611ef8565b90916114b7336004356125fd565b6001600160a01b03806114cb600435612082565b1695604051916302d05d3f60e01b83526020836004818b5afa92831561195b578a936119d0575b50600554604051631d0bf83560e21b8152938216600485015260209184916024918391165afa9182156119c5578992611994575b5060648801611538818a6004016120d6565b60448b01915061154b8260048d0161210b565b9190501480159061197e575b6113c757338b52600460205260ff60408c20541661196657604435156113705761159960209161158d6115b8948d6004016120d6565b9290918d60040161210b565b60405163ad87ff3160e01b8152958694859491939133600487016125c9565b03818d8c5af1801561195b578a90611927575b6115d591506125a5565b15611293578890873b1561022e576040516305d8902360e41b815233600482015260443560248201528281604481838d5af190811561181a578391611913575b5050873b1561022e57816116729160405180938192637072f5af60e01b835233600484015260643560248401526084356044840152610120606484015261166161012484018d8b612140565b90838203016084840152898b612140565b61167e60a48301612161565b61168a60e48301612182565b0381838c5af18015610223576118ff575b505061185c575b50505050826040519163d88b9df360e01b8352602083600481845afa928315610223578293611825575b5060405163a250c4cb60e01b8152602081600481855afa90811561181a5783916117e5575b50604051936116ff85611fba565b60443585526020850152604084015261171b600485018061228b565b90823b156102365761174e928492836040518096819582946305abd90360e01b8452602060048501526024840191612140565b03925af18015610223576117d1575b507f8c6541fabac34023bd523e0860e50258c6a8c6d12c2496dd4c84a5be9ccea1876117a684846117c5604051938493600435855260c0602086015260c08501906004016122bd565b9160408401906040809180518452602081015160208501520151910152565b4260a08301520390a180f35b6117da90611f91565b6105aa57823861175d565b9250506020823d602011611812575b8161180160209383611fd5565b810103126107a857849151386116f1565b3d91506117f4565b6040513d85823e3d90fd5b915091506020813d602011611854575b8161184260209383611fd5565b810103126107a85783905191386116cc565b3d9150611835565b611881906040519460043586526002602087015260c0604087015260c0860191612140565b61188d60608501612161565b4260a0850152837f56e3d060f8255df5f025c2c8cb5f68629ca9ba46ead05cdd12f3072a42abf8d09485920390a16118e160405192839260043584526003602085015260c0604085015260c0840191612140565b6118ed60608301612182565b4260a08301520390a1388080806116a2565b61190890611f91565b6105d957873861169b565b61191c90611f91565b61022e578138611615565b506020813d602011611953575b8161194160209383611fd5565b810103126107a8576115d590516115cb565b3d9150611934565b6040513d8c823e3d90fd5b60405163834ef7eb60e01b8152336004820152602490fd5b5061198c828b6004016120d6565b905015611557565b6119b791925060203d6020116119be575b6119af8183611fd5565b81019061206a565b9038611526565b503d6119a5565b6040513d8b823e3d90fd5b9092506020813d602011611a0a575b816119ec60209383611fd5565b81010312611a06576119ff602091611ff6565b92906114f2565b8980fd5b3d91506119df565b503461023a578060031936011261023a576020604051818152f35b503461023a578060031936011261023a576009546040516001600160a01b039091168152602090f35b503461023a5760a036600319011261023a5760043560243560ff81168091036105aa576044356001600160401b03811161023657611a98903690600401611ef8565b909290604036606319011261023257611ab133836125fd565b6001600160a01b039081611ac484612082565b1690813b156107a857604051630613702960e01b81523360048201526024810186905260a0604482015295600087611b0060a482018585612140565b9486611b0a611f3b565b1660648301528183816084359889608483015203925af19182156109c3577f56e3d060f8255df5f025c2c8cb5f68629ca9ba46ead05cdd12f3072a42abf8d097611b7293611b7b575b506040519687968752602087015260c0604087015260c0860191612140565b9161099d611f3b565b611b8490611f91565b38611b53565b503461023a57604036600319011261023a576004356024356fffffffffffffffffffffffffffffffff81168091036105aa57611bc633836125fd565b611bcf82612082565b81156113705783906001600160a01b0316803b1561022e5781906044604051809481936305d8902360e41b83523360048401528760248401525af180156111ec57611c50575b507fbf04ee7c84a80232b168dd00db04b2956327112b98f8175de9bc77d106528772916060916040519182526020820152426040820152a180f35b9160609193611c7f7fbf04ee7c84a80232b168dd00db04b2956327112b98f8175de9bc77d10652877294611f91565b93915091611c15565b503461023a578060031936011261023a576006546040516001600160a01b039091168152602090f35b503461023a57606036600319011261023a576001600160401b0360043560243582811161023657611ce6903690600401611ec8565b919060443584811161021f573660238201121561021f57806004013594851161021f576024810190602436918760061b01011161021f57611d2733846125fd565b611d3083612082565b848614801590611e12575b6113c75760405163ad87ff3160e01b8152906020908290818a81611d668b8a8e8b33600487016125c9565b03926001600160a01b03165af18015611249578790611ddf575b611d8a91506125a5565b15611293577f867bf7b268d4eddd1d94a3b2d9696645b8de4bfeb0f90c064e15ac0c7b656ad394611dd16101fb936040519687968752608060208801526080870191612228565b9184830360408601526121a4565b506020813d8211611e0a575b81611df860209383611fd5565b810103126113f257611d8a9051611d80565b3d9150611deb565b508515611d3b565b503461023a57602036600319011261023a576004356020611e43611e3d83612082565b926120b5565b604051634fdb842560e11b81526001600160a01b0391821660048201529283916024918391165afa9081156102235760209291611e86575b506040519015158152f35b611e9d9150823d81116119be576119af8183611fd5565b38611e7b565b90503461022e578160031936011261022e576005546001600160a01b03168152602090f35b9181601f840112156107a8578235916001600160401b0383116107a8576020808501948460051b0101116107a857565b9181601f840112156107a8578235916001600160401b0383116107a857602083818601950101116107a857565b600435906001600160a01b03821682036107a857565b606435906001600160a01b03821682036107a857565b604435906001600160a01b03821682036107a857565b60a435906001600160a01b03821682036107a857565b35906001600160a01b03821682036107a857565b6001600160401b038111611fa457604052565b634e487b7160e01b600052604160045260246000fd5b606081019081106001600160401b03821117611fa457604052565b90601f801991011681019081106001600160401b03821117611fa457604052565b51906001600160a01b03821682036107a857565b60005b83811061201d5750506000910152565b818101518382015260200161200d565b906060602091949394604084526120528151809281604088015285858801910161200a565b601f80199101168301019360018060a01b0316910152565b908160209103126107a8575180151581036107a85790565b6000908152600260205260409020546001600160a01b03169081156120a357565b604051630e34dec560e01b8152600490fd5b6000908152600360205260409020546001600160a01b03169081156120a357565b903590601e19813603018212156107a857018035906001600160401b0382116107a857602001918160061b360383136107a857565b903590601e19813603018212156107a857018035906001600160401b0382116107a857602001918160051b360383136107a857565b908060209392818452848401376000828201840152601f01601f1916010190565b60a4356001600160a01b038116908190036107a8578152602060c435910152565b60e4356001600160a01b038116908190036107a8578152602061010435910152565b9190808252602080920192916000905b8282106121c2575050505090565b9293919290916001906001600160a01b036121dc87611f7d565b168152858301358382015260409081019501939201906121b4565b9035601e19823603018112156107a85701602081359101916001600160401b0382116107a85781360383136107a857565b9082818152602080910193818360051b82010194846000925b858410612252575050505050505090565b90919293949596858061227a600193601f198682030188526122748c886121f7565b90612140565b990194019401929594939190612241565b903590601e19813603018212156107a857018035906001600160401b0382116107a8576020019181360383136107a857565b6122f66122db6122cd83806121f7565b608086526080860191612140565b6122e860208401846121f7565b908583036020870152612140565b36829003601e1901916040810135838112156107a857810191602083359301906001600160401b03938481116107a8578060051b360383136107a857612343928783036040890152612228565b926060820135908112156107a85701906020823592019082116107a8578160061b360381136107a85783606061237d9585039101526121a4565b90565b6020818303126107a85780516001600160401b03918282116107a857019082601f830112156107a8578151908111611fa457604051926123ca601f8301601f191660200185611fd5565b818452602082840101116107a85761237d916020808501910161200a565b604051635624b25b60e01b81527f4a204f620c8c5ccdca3fd54d003badd85ba500436a431f0cbda4f558c93c34c86004820152600160248201526000916001600160a01b03919083908290604490829086165afa90811561181a578391612468575b506020818051810103126105aa5760200151161561237d5750600190565b61248491503d8085833e61247c8183611fd5565b810190612380565b3861244a565b60405163a0e67e2b60e01b8152600092916001600160a01b03919084908290600490829086165afa9081156111ec5784916124f9575b50835b81518110156124f2578260208260051b8401015116838516146124e8576001016124c3565b5050505050600190565b5050505090565b90503d8085833e61250a8183611fd5565b8101602090818382031261021f5782516001600160401b03938482116105d9570181601f820112156113f2578051938411612591578360051b906040519461255485840187611fd5565b855283808601928201019283116105d9578301905b82821061257a5750505050386124c0565b83809161258684611ff6565b815201910190612569565b634e487b7160e01b87526041600452602487fd5b80159081156125be575b506125b957600190565b600090565b6020915011386125af565b939161237d95936125ef9260018060a01b031686526060602087015260608601916121a4565b926040818503910152612228565b61260f612609826120b5565b91612082565b60408051635624b25b60e01b81527f4a204f620c8c5ccdca3fd54d003badd85ba500436a431f0cbda4f558c93c34c860048201526001602482015290936000936001600160a01b039182169391928581604481885afa90811561272957869161270f575b5060208180518101031261021f57602001518316908316036126fe578451632d9ad53d60e01b81529116600482015290602090829060249082905afa9182156126f357916126d5575b50156126c55750565b51633212b89d60e21b8152600490fd5b6126ed915060203d81116119be576119af8183611fd5565b386126bc565b8351903d90823e3d90fd5b84516328dd084b60e01b8152600490fd5b61272391503d8088833e61247c8183611fd5565b38612673565b87513d88823e3d90fd5b908160209103126107a8575160ff811681036107a8579056fe6080806040523461001d57620f424060075561349690816100238239f35b600080fdfe61012080604052600436101561001457600080fd5b60008060a052803560e01c91826302d05d3f1461228e5750816305abd903146121065781630613702914611eb257816311fab21714611e875781631c36883314611e5e57816321fe24d014611e3b57816326f3c79414611e1c5781632b569b5b14611dca5781633789977014611d455781633fc8cef314611d1a578163491a60a1146116c25781635415728e146115f15781635d8902301461159a5781636c552dd1146108095781637072f5af14610757578163735de9f71461072c57816379279fd1146107015781637fb7bdfe146106be5781638404582e1461069e5781638c7fb7931461067e5781639247a1b31461064b5781639c91dd56146106205781639d53827f146104b25781639fb7084a146105f3578163a250c4cb146105d3578163ad87ff31146104b7578163b5ddc99f146104b2578163b8f7a66514610486578163bbf163811461044a578163c4de13a61461038f57508063d1a1154a1461025c578063d88b9df31461023c578063f887ea4014610211578063fbbaeab6146101e65763fd780e9d146101a757600080fd5b346101e05760a051806003193601126101dd576015546020906101d2906001600160a01b03166126ee565b60ff60405191168152f35b80fd5b60a05180fd5b346101e05760a051806003193601126101dd576001546040516001600160a01b039091168152602090f35b346101e05760a051806003193601126101dd576004546040516001600160a01b039091168152602090f35b346101e05760a051806003193601126101dd576020601154604051908152f35b346101e05760603660031901126101e0576102756122e7565b6004546001600160a01b03908116330361037d57808060015416921691820361036b5760026001600160801b0381541614610359576020906013541691602460405180948193631d0bf83560e21b835260048301525afa90811561034c5760a05191610313575b506102e8575b60a05180f35b6024356011556044356012556102fc612860565b6102e2575b604051638ad71e4360e01b8152600490fd5b90506020813d8211610344575b8161032d6020938361249a565b810103126101e05761033e90612853565b816102dc565b3d9150610320565b6040513d60a051823e3d90fd5b604051633be3553d60e21b8152600490fd5b604051635fc483c560e01b8152600490fd5b604051639e41bdd760e01b8152600490fd5b346101e05760a051806003193601126101dd5750601554604051631c377ec560e31b815290602090829060049082906001600160a01b03165afa91821561034c5760a05192610413575b60606103e88460035490612573565b6103f460115482612573565b61040060125482612573565b9060405192835260208301526040820152f35b9091506020823d8211610442575b8161042e6020938361249a565b810103126101dd5750516103e860606103d9565b3d9150610421565b346101e05760203660031901126101e05761048261046e6104696122e7565b6124bb565b6040519182916020835260208301906123d3565b0390f35b346101e05760a051806003193601126101dd57602060016001600160801b036002541614604051908152f35b6123f8565b346101e05760603660031901126101e0576104d06122e7565b6001600160401b03906024358281116101e0576104f1903690600401612350565b90926044359081116101e05761050b903690600401612380565b60045490949193906001600160a01b03908116330361037d57600190808254168184160361036b5760026001600160801b03815416146103595761054d612596565b60a051835b61056e575b60206105668a8a8a8a8a612ddf565b604051908152f35b81518110156105ce579083826105918561058a84979686613004565b5116612a5a565b6105a68461059f8386613004565b5116613025565b50836105b28285613004565b511660a05152600c60205260a051604081205501909192610552565b610557565b346101e05760a051806003193601126101dd576020601254604051908152f35b346101e05760203660031901126101e05760206106166106116122e7565b612d62565b6040519015158152f35b346101e05760a051806003193601126101dd576009546040516001600160a01b039091168152602090f35b346101e05760403660031901126101e0576004359060ff821682036101dd576020610566836106786122fd565b90612605565b346101e05760a051806003193601126101dd576020600854604051908152f35b346101e05760a051806003193601126101dd576020600354604051908152f35b346101e05760a051806003193601126101dd5754600154600254604080519384526001600160a01b0390921660208401526001600160801b031690820152606090f35b346101e05760a051806003193601126101dd576015546040516001600160a01b039091168152602090f35b346101e05760a051806003193601126101dd576016546040516001600160a01b039091168152602090f35b346101e0576101203660031901126101e0576107716122e7565b6001600160401b03906064358281116101e0576107929036906004016122b5565b9190926084359081116101e0576107ad9036906004016122b5565b92909160403660a31901126101e05760403660e31901126101e0576004546001600160a01b03908116330361037d57806001541691160361036b5760026001600160801b0381541614610359576102e293604435602435612ab9565b346101e05760803660031901126101e0576108226122e7565b6024356001600160401b0381116101e057610841903690600401612380565b906044351515604435036101e057606435926001600160a01b03841684036101e0576004546001600160a01b0316330361037d5761087e90612d62565b156115885760025460016001600160801b03821614611571575b506001546001600160a01b031660c0526108ba6108b4846131e6565b9361267d565b61010052819260029160443561155c575b60a05192806108db845187612a47565b11611541575b5061090982516108ff6108f38261312f565b6040518060e05261249a565b8060e0515261312f565b60a0515b601f19820181106114f55750506001850185119283610a72576109326001870161312f565b91610940604051938461249a565b600187018084526109509061312f565b60a0515b601f19820181106114c857505060a051945b8451861015610a8a576001600160a01b036109818787613004565b511660206109918860e051613004565b5101526109b06001600160a01b036109a98888613004565b51166124bb565b6109bc8760e051613004565b5152610a72576109ce6001880161312f565b946109dc604051968761249a565b60018801808752601f19906109f09061312f565b0160a0515b818110610a6157505060019060a05196610a10838b0161312f565b90610a1e604051928361249a565b8a8401808352601f1990610a319061312f565b013660208401376040610a468460e051613004565b5101526060610a578360e051613004565b5101520194610966565b806060602080938b010152016109f5565b634e487b7160e01b60a051526011600452602460a051fd5b5083879187604435611354575b60a0515b848110610ced57601354879087906001600160a01b0316803b156101e05760405191631112274d60e21b83526060600484015283518060648501526084840190602060848260051b87010196019160a051905b828210610ca0575050505060031983850301602484015260e05151808552602085019060208160051b87010195602060e051019260a051915b838310610bb457851515604489015260a051889081808c0381838c5af19081610b85575b50610b80577f15d12c9d1809694cd34b030e43d311655eb024585a5ad783d9a017b94e7779e76020604051308152a160a05180f35b6102e2565b6001600160401b038111610b9c5760405281610b4b565b634e487b7160e01b60a051526041600452602460a051fd5b9091929397601f198282030183528851610bd781516080845260808401906123d3565b9060018060a01b0360208201511660208401526040810151918381036040850152825180825260208201906020808260051b85010195019260a0515b828110610c75575050505050606001519160608183039101526020808351928381520192019060a051905b808210610c5d575050506020806001929a019301930191939290610b27565b90919260208060019286518152019401920190610c3e565b9091929395602080610c93600193601f198782030189528a516123d3565b9801950193929101610c13565b90919296602080610cdf6001936083198b8203018652606060408d51878060a01b038151168452858101518685015201519181604082015201906123d3565b990192019201909291610aee565b818110156111b157610d038160051b8401612819565b6040516370a0823160e01b815260c05160048201526020816024816001600160a01b0386165afa90811561034c5760a05191611322575b5080610d4b575b5050600101610a9b565b93919496612710610d6260089a93989a5487612a47565b0498610d6e8a87613018565b6040516395d89b4160e01b815260a051919b90979091886004816001600160a01b038e165afa97881561034c5760a051986112c8575b5060405190610db28261244e565b6001600160a01b038b168252602082015260408101889052610dd48986613004565b52610ddf8885613004565b5080610efa575b5060a051806080525b89519081811015610ee55781600019810111610a72576001918b908d90600019018314610ed457610e41610e4a91610e3b868060a01b03610e308787613004565b511661010051612605565b90612a47565b6007549061310f565b8b81610e5a575b50505001610def565b81610e7f91610ec994610e7387898060a01b0392613004565b51169060c0519061326f565b610ea58c6040610e918760e051613004565b5101518d610e9f8383613004565b52613004565b50610ec08c6060610eb88760e051613004565b510151613004565b52608051612573565b6080528a8d8b610e51565b608051610ee091613018565b610e4a565b50509650969490975060019193509088610d41565b6040516370a0823160e01b8152306004820152906020826024816001600160a01b038e165afa91821561034c5760a05192611292575b50610f3f903060c0518c61326f565b506040516370a0823160e01b8152306004820152906020826024816001600160a01b038e165afa801561034c5760a0519061125e575b610f7f9250613018565b60165460405163095ea7b360e01b60208083019182526001600160a01b0390931660248301819052604483018590529290610fc783606481015b03601f19810185528461249a565b8c60a051918285519260018060a01b03165af13d60a0519081519183611237575b505050156111c9575b5050604051610fff8161244e565b6002815260403660208301376001600160a01b038a1661101e82612ff7565b5260018060a01b03601754168151600110156111b15760408201526016546009546001600160a01b03908116929116904261012c810110610a725761108f916040518094819482946318cbafe560e01b845288600485015260a051602485015260a0604485015260a4840190612313565b90606483015261012c4201608483015260a05194859103925af1908161110e575b506111085760095460405163a9059cbb60e01b60208201526001600160a01b039091166024820152604480820192909252908152611102906110f360648261249a565b6001600160a01b038a1661318a565b8a610de6565b50611102565b3d8060a051833e61111f818361249a565b60208282810103126101e0578151916001600160401b0383116101e057818101601f8483010112156101e0578281015192602061115b8561312f565b611168604051918261249a565b8581520192820160208560051b8385010101116101e057602081830101925b60208560051b838501010184106111a157505050506110b0565b8351815260209384019301611187565b634e487b7160e01b60a051526032600452602460a051fd5b6040519163095ea7b360e01b6020840152602483015260a0516044830152604482528160808101106001600160401b03608084011117610b9c576080820160405261123091611221906001600160a01b038d1661318a565b6001600160a01b038b1661318a565b8b80610ff1565b5090915061125657506001600160a01b038b163b15155b8e8080610fe8565b60011461124e565b506020823d60201161128a575b816112786020938361249a565b810103126101e057610f7f9151610f75565b3d915061126b565b9091506020813d6020116112c0575b816112ae6020938361249a565b810103126101e0575190610f3f610f30565b3d91506112a1565b9790973d8092823e6112da828261249a565b60208183810103126101e0578051906001600160401b0382116101e057828101601f8383010112156101e057602061131b9382019280830151920101613146565b968c610da4565b90506020813d60201161134c575b8161133d6020938361249a565b810103126101e0575189610d3a565b3d9150611330565b60c0513180611364575b50610a97565b90939561271061137960089794975484612a47565b04906113858284613018565b91806114a7575b506040519261139a8461247f565b600384526208aa8960eb1b6020850152604051906113b78261244e565b60a051825260208201528360408201526113d18983613004565b526113dc8882613004565b5060a05193845b865190818710156114975781600019810111610a72578781886114798e61146a816040610e916114618e61147f9b60019d60a05150600019018a14156000146114875750610e4161144491610e3b8f610e308f91808f9160a01b0392613004565b809a5b6114578a8f8060a01b0392613004565b511660c0516133c9565b9660e051613004565b506060610eb88d60e051613004565b52612573565b9501946113e3565b61149091613018565b809a611447565b505096935096949150508661135e565b60095460c0516114c192916001600160a01b0316906133c9565b508861138c565b6020906040516114d78161244e565b60a08051825251838201526060604082015286820183015201610954565b604051908160808101106001600160401b03608084011117610b9c5781608060209301604052606080825260a05190849182840152806040840152808301528260e0510101520161090d565b90925081611552929550519061310f565b92600191856108e1565b9150805160020360028111610a7257916108cb565b6002906001600160801b0319161760025583610898565b60405163153ddc1b60e21b8152600490fd5b346101e05760403660031901126101e0576115b36122e7565b6004546001600160a01b03908116330361037d57806001541691160361036b5760026001600160801b03815416146103595760243560035560a05180f35b346101e05760a051806003193601126101dd576040519060055461161481612414565b8084529060019081811690811561169b575060011461163e575b6104828461046e8186038261249a565b60a08051600590525192507f036b6384b5eca791c62761152d0c79bb0604c104a5fb6f4eb0703f3154bb3db05b82841061168357505050810160200161046e8261162e565b8054602085870181019190915290930192810161166b565b60ff191660208087019190915292151560051b8501909201925061046e915083905061162e565b346101e0576102603660031901126101e0576116dc6122fd565b6044356001600160401b0381116101e0576116fb903690600401612350565b90919060603660631901126101e05760403660c31901126101e0576040366101031901126101e05761014435906001600160a01b03821682036101e05761016435906001600160a01b03821682036101e057610184356001600160a01b03811681036101e0576101a4356001600160a01b03811681036101e0576101c4356001600160a01b03811681036101e0576101e435916001600160a01b03831683036101e057610204356001600160401b0381116101e0576117be903690600401612380565b9790966001600160401b0361022435116101e0576117e236610224356004016122b5565b9390946001600160401b0361024435116101e05761180636610244356004016122b5565b6001549199909891926001600160a01b038416611d08576004948f94602095873560a0515560018060a01b0316906001600160601b0360a01b161760015560016001600160801b03196002541617600255606435600355336001600160601b0360a01b87541617865560018060a01b03166001600160601b0360a01b601654161760165560018060a01b03166001600160601b0360a01b601754161760175560018060a01b0386166001600160601b0360a01b601354161760135560018060a01b0385166001600160601b0360a01b601454161760145560018060a01b03166001600160601b0360a01b601554161760155560018060a01b0381166001600160601b0360a01b60095416176009556040519283809263ced72f8760e01b825260018060a01b03165afa90811561034c5760a05191611cd6575b5060085561194b6127d6565b6119536127ec565b60a0515b898110611c70575050604051631d0bf83560e21b81526001600160a01b039283166004820152926020928492506024918391165afa90811561034c5760a05191611c36575b5015611b945760843560115560a43560125560a05160e435611b6d575060a05191825b60c4356001600160a01b03811681036101e05760018060a01b031660a05152600c602052604060a0512054611af157600d54611a2d9490611a08906001600160a01b0316612a5a565b60018060a01b031690816001600160601b0360a01b600d541617600d55600e5561292f565b60a05161012435611b33575060a05191825b600e5460075414158080611b2a575b611b185781611ab1575b50600f54611a989490611a73906001600160a01b0316612a5a565b60018060a01b031690816001600160601b0360a01b600f541617600f5560105561292f565b611aa0612860565b156103015760209461056694612ddf565b611b1857610104356001600160a01b038116908190036101e0578060a05152600c602052604060a05120541590811591611b03575b50611af15789611a58565b6040516339ad115b60e01b8152600490fd5b600d546001600160a01b03161490508a611ae6565b604051635ce14ccb60e01b8152600490fd5b50811515611a4e565b600754929061010435906001600160a01b038216908183036101dd575015611b5b5792611a3f565b604051639a88d91960e01b8152600490fd5b600754929060c435906001600160a01b038216908183036101dd575015611b5b57926119bf565b5050505060843515801590611c2b575b8015611c20575b8015611c14575b8015611bfb575b8015611be2575b611bd05760209461056694612ddf565b6040516345bbf12b60e11b8152600490fd5b506001600160a01b03611bf36127ec565b161515611bc0565b506001600160a01b03611c0c6127d6565b161515611bb9565b50610124351515611bb2565b5060e4351515611bab565b5060a4351515611ba4565b90506020813d602011611c68575b81611c516020938361249a565b810103126101e057611c6290612853565b8a61199c565b3d9150611c44565b8d611c8b611c86838d60018060a01b039461282d565b612819565b168015611cd0576001600160a01b0384168114908115611cbd575b50611af1575b6000198114610a7257600101611957565b6001600160a01b0384161490508f611ca6565b50611cac565b90506020813d602011611d00575b81611cf16020938361249a565b810103126101e057518c61193f565b3d9150611ce4565b60405163345facd360e01b8152600490fd5b346101e05760a051806003193601126101dd576017546040516001600160a01b039091168152602090f35b346101e05760a051806003193601126101dd57601554604051631c377ec560e31b815290602090829060049082906001600160a01b03165afa801561034c5760a05190611d98575b602090604051908152f35b506020813d8211611dc2575b81611db16020938361249a565b810103126101e05760209051611d8d565b3d9150611da4565b346101e05760a051806003193601126101dd57611e0d611de8612596565b60018060a01b0380600d541690600f5416604051938493606085526060850190612313565b91602084015260408301520390f35b346101e05760a051806003193601126101dd5760209054604051908152f35b346101e05760203660031901126101e05760206101d2611e596122e7565b61267d565b346101e05760a051806003193601126101dd5760206001600160801b0360025416604051908152f35b346101e05760a051806003193601126101dd576013546040516001600160a01b039091168152602090f35b346101e05760a03660031901126101e057611ecb6122e7565b6024359060ff82168092036101e0576044356001600160401b0381116101e057611ef99036906004016122b5565b9160403660631901126101e0576004546001600160a01b0391908216330361037d5781806001541691160361036b5760026001600160801b0381541614610359576002841080156120fc575b6120ea576064359080821680831415806101e0578115611b5b578260135416908360145416604051928391631d0bf83560e21b8352600483015281602460209586935afa90811561034c5760a051916120b5575b5015611bd05760a051946084356120a65750600285985b0361200e576101e057600c9160a0515252604060a0512054611af157611ffb94611fdd82600d5416612a5a565b1690816001600160601b0360a01b600d541617600d55600e5561292f565b612003612860565b156103015760a05180f35b600e546007541415808061209d575b611b18578561205f575b5050505061205a9461203c82600f5416612a5a565b1690816001600160601b0360a01b600f541617600f5560105561292f565b611ffb565b611b18576101e057600c908260a0515252604060a0512054159081159161208f575b50611af15785808080612027565b905081600d54161486612081565b5085151561201d565b90506002600754959198611fb0565b90508281813d83116120e3575b6120cc818361249a565b810103126101e0576120dd90612853565b89611f99565b503d6120c2565b60405163bd94c44760e01b8152600490fd5b5060038411611f45565b346101e0576020806003193601126101e0576001600160401b03906004358281116101e0576121399036906004016122b5565b600454919390916001600160a01b0316330361037d5760026001600160801b0381541614610359578111610b9c57612172600554612414565b601f811161223a575b5060a051928392601f83116001146121bc57509282938293926121b1575b50508160011b916000199060031b1c19161760055580f35b013590508380612199565b601f198316947f036b6384b5eca791c62761152d0c79bb0604c104a5fb6f4eb0703f3154bb3db0929181905b878210612222575050836001959610612208575b505050811b0160055580f35b0135600019600384901b60f8161c191690558380806121fc565b806001849682949587013581550195019201906121e8565b61227e907f036b6384b5eca791c62761152d0c79bb0604c104a5fb6f4eb0703f3154bb3db0601f840160051c810191858510612284575b601f0160051c0190612918565b8361217b565b9091508190612271565b346122b157816003193601126122b1576014546001600160a01b03168152602090f35b5080fd5b9181601f840112156122e2578235916001600160401b0383116122e257602083818601950101116122e257565b600080fd5b600435906001600160a01b03821682036122e257565b602435906001600160a01b03821682036122e257565b90815180825260208080930193019160005b828110612333575050505090565b83516001600160a01b031685529381019392810192600101612325565b9181601f840112156122e2578235916001600160401b0383116122e2576020808501948460061b0101116122e257565b9181601f840112156122e2578235916001600160401b0383116122e2576020808501948460051b0101116122e257565b60005b8381106123c35750506000910152565b81810151838201526020016123b3565b906020916123ec815180928185528580860191016123b0565b601f01601f1916010190565b346122e25760003660031901126122e257602060405160028152f35b90600182811c92168015612444575b602083101461242e57565b634e487b7160e01b600052602260045260246000fd5b91607f1691612423565b606081019081106001600160401b0382111761246957604052565b634e487b7160e01b600052604160045260246000fd5b604081019081106001600160401b0382111761246957604052565b90601f801991011681019081106001600160401b0382111761246957604052565b60009060018060a01b0316815260206006815260408220604051928391818154906124e582612414565b8086529260019280841690811561254f5750600114612512575b5050505061250f9250038261249a565b90565b815285812095935091905b81831061253757505061250f9350820101388080806124ff565b8554878401850152948501948694509183019161251d565b935050505061250f94925060ff191682840152151560051b820101388080806124ff565b9190820180921161258057565b634e487b7160e01b600052601160045260246000fd5b60405190600a548083528260209182820190600a6000527fc65a7bb8d6351c1cf70c95a316cc6a92839c986682d98bc35f958f4883f9d2a8936000905b8282106125eb575050506125e99250038361249a565b565b8554845260019586019588955093810193909101906125d3565b60ff166001810361262c57506001600160a01b03166000908152600c602052604090205490565b600281036126555750600d546001600160a01b0391821691160361265057600e5490565b600090565b60030361267757600f546001600160a01b039182169116036126505760105490565b50600090565b6001600160a01b039081166000818152600c6020526040902054909190156126a6575050600190565b80600d54168214806126e3575b156126bf575050600290565b600f541614806126d8575b6126d357600090565b600390565b5060105415156126ca565b50600e5415156126b3565b604051631c377ec560e31b815290602090829060049082906001600160a01b03165afa80156127ca57600090612797575b61272d915060035490612573565b6011549061273b8282612573565b6127486012548092612573565b421015908161278d575b501561275f575050600390565b8161276991612573565b4210159081612783575b501561277e57600290565b600190565b9050151538612773565b9050151538612752565b6020823d82116127c2575b816127af6020938361249a565b810103126101dd575061272d905161271f565b3d91506127a2565b6040513d6000823e3d90fd5b60c4356001600160a01b03811681036122e25790565b610104356001600160a01b03811681036122e25790565b60a4356001600160a01b03811681036122e25790565b356001600160a01b03811681036122e25790565b919081101561283d5760061b0190565b634e487b7160e01b600052603260045260246000fd5b519081151582036122e257565b60115415808061290e575b80612904575b806128fa575b6128d3571580806128ed575b806128e3575b806128d9575b6128d357806128c6575b806128bb575b806128ae575b61277e57600090565b50601054600754146128a5565b50601254151561289f565b50600e5460075414612899565b50600190565b506010541561288f565b5060125415612889565b50600e5460075414612883565b5060105415612877565b5060125415612871565b50600e541561286b565b818110612923575050565b60008155600101612918565b929160009360018060a01b031684526020936006855260408120926001600160401b038311612a33576129628454612414565b601f8111612a05575b5081601f84116001146129a457839495965092612999575b50508160011b916000199060031b1c1916179055565b013590503880612983565b91601f1984169685845280842093905b8882106129ed575050836001959697106129d3575b505050811b019055565b0135600019600384901b60f8161c191690553880806129c9565b806001849682949587013581550195019201906129b4565b612a2d90858452878420601f860160051c81019189871061228457601f0160051c0190612918565b3861296b565b634e487b7160e01b82526041600452602482fd5b8181029291811591840414171561258057565b6001600160a01b031660009081526006602052604081208054612a7c90612414565b80612a8657505050565b82601f8211600114612a9757505055565b9091808252612ab5601f60208420940160051c840160018501612918565b5555565b939094919260018060a01b0380601354169181601454169760409788518095631d0bf83560e21b825260049b8c83015281602460209889935afa908115612d5757600091612d22575b5015612c8c5760115560125560c435612c5c57600095865b83612b23612803565b16600052600c85528860002054612c4c579083612b679392612b4882600d5416612a5a565b166001600160601b0360a01b98818a600d541617600d55600e5561292f565b600161010435151580612c37575b15612c20575080600d54169060e435928184168094141592836122e2578414908115612c08575b50612bf857612bae90600f5416612a5a565b6122e25780612bca94600f541617600f5560075460105561292f565b60005b1580612be9575b612bdc575050565b51638ad71e4360e01b8152fd5b50612bf2612860565b15612bd4565b86516339ad115b60e01b81528890fd5b925050600c6000928484525286822054151538612b9c565b949350505050600f5416600f556000601055612bcd565b5060e4358281168091036122e2571515612b75565b88516339ad115b60e01b81528a90fd5b6007549582612c69612803565b1615612c7c57612c77612803565b612b1a565b8751639a88d91960e01b81528990fd5b94509550509250501591821592612d18575b508115612d0c575b8115612cff575b8115612ce8575b8115612cd1575b50612cc4575050565b516345bbf12b60e11b8152fd5b905060e4359081168091036122e257151538612cbb565b905060a4358181168091036122e257151590612cb4565b6101043515159150612cad565b60c43515159150612ca6565b1515915038612c9e565b908682813d8311612d50575b612d38818361249a565b810103126101dd5750612d4a90612853565b38612b02565b503d612d2e565b8a513d6000823e3d90fd5b604051631c377ec560e31b815290602090829060049082906001600160a01b03165afa80156127ca57600090612dac575b612da1915060035490612573565b421061265057600190565b6020823d8211612dd7575b81612dc46020938361249a565b810103126101dd5750612da19051612d93565b3d9150612db7565b91929360009485945b808610612e155750505050505060075403612e0357600a5490565b604051635ab3b41560e11b8152600490fd5b909192939495612e2687838761282d565b90602090818301358015908115612f46575b50612f34576001600160a01b039283612e5082612819565b1615908115612f1e575b50611b5b57612e7783612e71611c868c888c61282d565b16612f89565b50612e86611c868a868a61282d565b91868a101561283d578960051b860135601e19873603018112156122e2578601938435946001600160401b0386116122e25782019385360385136122e257600195612f1295612ed49261292f565b81612ee08c888c61282d565b013590612ef1611c868d898d61282d565b16600052600c8252604060002055612f0a8a868a61282d565b013590612573565b96019493929190612de8565b612f289150612819565b83168884161438612e5a565b60405163e98a7b6560e01b8152600490fd5b90506007541038612e38565b600a5481101561283d57600a6000527fc65a7bb8d6351c1cf70c95a316cc6a92839c986682d98bc35f958f4883f9d2a80190600090565b6000818152600b6020526040812054612ff257600a5468010000000000000000811015612a33579082612fde612fc784600160409601600a55612f52565b819391549060031b91821b91600019901b19161790565b9055600a54928152600b6020522055600190565b905090565b80511561283d5760200190565b805182101561283d5760209160051b010190565b9190820391821161258057565b6000818152600b6020526040812054909190801561310a57600019908082018181116130f657600a54908382019182116130e2578181036130ae575b505050600a54801561309a5781019061307982612f52565b909182549160031b1b19169055600a558152600b6020526040812055600190565b634e487b7160e01b84526031600452602484fd5b6130cc6130bd612fc793612f52565b90549060031b1c928392612f52565b90558452600b6020526040842055388080613061565b634e487b7160e01b86526011600452602486fd5b634e487b7160e01b85526011600452602485fd5b505090565b8115613119570490565b634e487b7160e01b600052601260045260246000fd5b6001600160401b0381116124695760051b60200190565b909291926001600160401b0381116124695760405191613170601f8301601f19166020018461249a565b8294828452828201116122e25760206125e99301906123b0565b906000602091828151910182855af1156127ca576000513d6131dd57506001600160a01b0381163b155b6131bb5750565b604051635274afe760e01b81526001600160a01b039091166004820152602490fd5b600114156131b4565b6131f160ff9161267d565b1660018103613203575061250f612596565b6002810361323c57506040516132188161247f565b6001815260203681830137600d546001600160a01b031661323882612ff7565b5290565b6003036120ea5760405161324f8161247f565b6001815260203681830137600f546001600160a01b031661323882612ff7565b60405163a9059cbb60e01b60208201526001600160a01b039093166024840152604483018490529091906132ee906132aa8360648101610fb9565b604051635229073f60e01b81526001600160a01b039182166004820152600060248201819052608060448301529490938593859384928692849160848301906123d3565b8360648301520393165af19081156133be5782908392613354575b501590811561331c575b50612ff2575090565b8051801515925082613331575b505038613313565b81925090602091810103126122b157602061334c9101612853565b153880613329565b9150503d8083833e613366818361249a565b81016040828203126133ba5761337b82612853565b916020810151906001600160401b0382116133b6570181601f820112156133b25780516133ab9291602001613146565b9038613309565b8380fd5b8480fd5b8280fd5b6040513d84823e3d90fd5b602060a4916040519283809263468721a760e01b825260018060a01b038097166004830152876024830152608060448301526000968791826084850152826064850152165af19081156133be578291613427575b5015612ff2575090565b90506020813d8211613458575b816134416020938361249a565b810103126122b15761345290612853565b3861341d565b3d915061343456fea2646970667358221220395d346e8e93906781dd6c7bd1234da4c1d613db5509ef93cdd6453bf375f75d64736f6c63430008140033a2646970667358221220fb97ff9cedb9c6c84616bedcf423c84257184f78eaa382976801aeff5c93d88764736f6c63430008140033"
}