{
  "address": "0x79EcE3031d6596A8aBAEC5986A2a8dca4305eC46",
  "abi": [
    {
      "inputs": [],
      "stateMutability": "nonpayable",
      "type": "constructor"
    },
    {
      "inputs": [],
      "name": "ActivationTriggerInvalid",
      "type": "error"
    },
    {
      "inputs": [],
      "name": "CannotClaim",
      "type": "error"
    },
    {
      "inputs": [],
      "name": "DistributionsInvalid",
      "type": "error"
    },
    {
      "inputs": [],
      "name": "EmptyCode",
      "type": "error"
    },
    {
      "inputs": [],
      "name": "InvalidInitialization",
      "type": "error"
    },
    {
      "inputs": [],
      "name": "InvalidSwapSettings",
      "type": "error"
    },
    {
      "inputs": [],
      "name": "LegacyNotFound",
      "type": "error"
    },
    {
      "inputs": [],
      "name": "NotCodeAdmin",
      "type": "error"
    },
    {
      "inputs": [],
      "name": "NotInitializing",
      "type": "error"
    },
    {
      "inputs": [],
      "name": "NumAssetsInvalid",
      "type": "error"
    },
    {
      "inputs": [],
      "name": "NumBeneficiariesInvalid",
      "type": "error"
    },
    {
      "inputs": [],
      "name": "OnlyBeneficaries",
      "type": "error"
    },
    {
      "inputs": [
        {
          "internalType": "address",
          "name": "",
          "type": "address"
        }
      ],
      "name": "SenderIsCreatedLegacy",
      "type": "error"
    },
    {
      "anonymous": false,
      "inputs": [
        {
          "indexed": false,
          "internalType": "address",
          "name": "legacyAddress",
          "type": "address"
        }
      ],
      "name": "EmailOwnerResetNotCompleted",
      "type": "event"
    },
    {
      "anonymous": false,
      "inputs": [
        {
          "indexed": false,
          "internalType": "uint64",
          "name": "version",
          "type": "uint64"
        }
      ],
      "name": "Initialized",
      "type": "event"
    },
    {
      "anonymous": false,
      "inputs": [
        {
          "indexed": true,
          "internalType": "uint256",
          "name": "legacyId",
          "type": "uint256"
        },
        {
          "indexed": false,
          "internalType": "uint8",
          "name": "layer",
          "type": "uint8"
        },
        {
          "indexed": false,
          "internalType": "uint256",
          "name": "timestamp",
          "type": "uint256"
        }
      ],
      "name": "TransferEOALegacyActivated",
      "type": "event"
    },
    {
      "anonymous": false,
      "inputs": [
        {
          "indexed": true,
          "internalType": "uint256",
          "name": "legacyId",
          "type": "uint256"
        },
        {
          "indexed": false,
          "internalType": "uint8",
          "name": "layer",
          "type": "uint8"
        },
        {
          "indexed": false,
          "internalType": "uint256",
          "name": "timestamp",
          "type": "uint256"
        }
      ],
      "name": "TransferEOALegacyActivatedWithUnswap",
      "type": "event"
    },
    {
      "anonymous": false,
      "inputs": [
        {
          "indexed": true,
          "internalType": "uint256",
          "name": "legacyId",
          "type": "uint256"
        },
        {
          "indexed": false,
          "internalType": "uint256",
          "name": "timestamp",
          "type": "uint256"
        }
      ],
      "name": "TransferEOALegacyActivedAlive",
      "type": "event"
    },
    {
      "anonymous": false,
      "inputs": [
        {
          "indexed": true,
          "internalType": "uint256",
          "name": "legacyId",
          "type": "uint256"
        },
        {
          "indexed": false,
          "internalType": "address",
          "name": "storageToken",
          "type": "address"
        },
        {
          "indexed": false,
          "internalType": "uint256",
          "name": "ethAmount",
          "type": "uint256"
        },
        {
          "indexed": false,
          "internalType": "uint256",
          "name": "timestamp",
          "type": "uint256"
        }
      ],
      "name": "TransferEOALegacyAutoSwapped",
      "type": "event"
    },
    {
      "anonymous": false,
      "inputs": [
        {
          "indexed": true,
          "internalType": "uint256",
          "name": "legacyId",
          "type": "uint256"
        },
        {
          "components": [
            {
              "internalType": "string",
              "name": "name",
              "type": "string"
            },
            {
              "internalType": "string",
              "name": "note",
              "type": "string"
            },
            {
              "internalType": "string[]",
              "name": "nickNames",
              "type": "string[]"
            },
            {
              "components": [
                {
                  "internalType": "address",
                  "name": "user",
                  "type": "address"
                },
                {
                  "internalType": "uint256",
                  "name": "percent",
                  "type": "uint256"
                }
              ],
              "internalType": "struct TransferLegacyStruct.Distribution[]",
              "name": "distributions",
              "type": "tuple[]"
            }
          ],
          "indexed": false,
          "internalType": "struct TransferEOALegacyRouter.LegacyMainConfig",
          "name": "mainConfig",
          "type": "tuple"
        },
        {
          "components": [
            {
              "internalType": "uint256",
              "name": "lackOfOutgoingTxRange",
              "type": "uint256"
            },
            {
              "internalType": "uint256",
              "name": "delayLayer2",
              "type": "uint256"
            },
            {
              "internalType": "uint256",
              "name": "delayLayer3",
              "type": "uint256"
            }
          ],
          "indexed": false,
          "internalType": "struct TransferLegacyStruct.LegacyExtraConfig",
          "name": "extraConfig",
          "type": "tuple"
        },
        {
          "indexed": false,
          "internalType": "uint256",
          "name": "timestamp",
          "type": "uint256"
        }
      ],
      "name": "TransferEOALegacyConfigUpdated",
      "type": "event"
    },
    {
      "anonymous": false,
      "inputs": [
        {
          "indexed": true,
          "internalType": "uint256",
          "name": "legacyId",
          "type": "uint256"
        },
        {
          "indexed": false,
          "internalType": "address",
          "name": "legacyAddress",
          "type": "address"
        },
        {
          "indexed": false,
          "internalType": "address",
          "name": "creatorAddress",
          "type": "address"
        },
        {
          "components": [
            {
              "internalType": "string",
              "name": "name",
              "type": "string"
            },
            {
              "internalType": "string",
              "name": "note",
              "type": "string"
            },
            {
              "internalType": "string[]",
              "name": "nickNames",
              "type": "string[]"
            },
            {
              "components": [
                {
                  "internalType": "address",
                  "name": "user",
                  "type": "address"
                },
                {
                  "internalType": "uint256",
                  "name": "percent",
                  "type": "uint256"
                }
              ],
              "internalType": "struct TransferLegacyStruct.Distribution[]",
              "name": "distributions",
              "type": "tuple[]"
            }
          ],
          "indexed": false,
          "internalType": "struct TransferEOALegacyRouter.LegacyMainConfig",
          "name": "mainConfig",
          "type": "tuple"
        },
        {
          "components": [
            {
              "internalType": "uint256",
              "name": "lackOfOutgoingTxRange",
              "type": "uint256"
            },
            {
              "internalType": "uint256",
              "name": "delayLayer2",
              "type": "uint256"
            },
            {
              "internalType": "uint256",
              "name": "delayLayer3",
              "type": "uint256"
            }
          ],
          "indexed": false,
          "internalType": "struct TransferLegacyStruct.LegacyExtraConfig",
          "name": "extraConfig",
          "type": "tuple"
        },
        {
          "indexed": false,
          "internalType": "uint256",
          "name": "timestamp",
          "type": "uint256"
        }
      ],
      "name": "TransferEOALegacyCreated",
      "type": "event"
    },
    {
      "anonymous": false,
      "inputs": [
        {
          "indexed": true,
          "internalType": "uint256",
          "name": "legacyId",
          "type": "uint256"
        },
        {
          "indexed": false,
          "internalType": "uint256",
          "name": "timestamp",
          "type": "uint256"
        }
      ],
      "name": "TransferEOALegacyDeleted",
      "type": "event"
    },
    {
      "anonymous": false,
      "inputs": [
        {
          "indexed": true,
          "internalType": "uint256",
          "name": "legacyId",
          "type": "uint256"
        },
        {
          "indexed": false,
          "internalType": "string[]",
          "name": "nickNames",
          "type": "string[]"
        },
        {
          "components": [
            {
              "internalType": "address",
              "name": "user",
              "type": "address"
            },
            {
              "internalType": "uint256",
              "name": "percent",
              "type": "uint256"
            }
          ],
          "indexed": false,
          "internalType": "struct TransferLegacyStruct.Distribution[]",
          "name": "distributions",
          "type": "tuple[]"
        },
        {
          "indexed": false,
          "internalType": "uint256",
          "name": "timestamp",
          "type": "uint256"
        }
      ],
      "name": "TransferEOALegacyDistributionUpdated",
      "type": "event"
    },
    {
      "anonymous": false,
      "inputs": [
        {
          "indexed": true,
          "internalType": "uint256",
          "name": "legacyId",
          "type": "uint256"
        },
        {
          "indexed": false,
          "internalType": "uint8",
          "name": "layer",
          "type": "uint8"
        },
        {
          "components": [
            {
              "internalType": "address",
              "name": "user",
              "type": "address"
            },
            {
              "internalType": "uint256",
              "name": "percent",
              "type": "uint256"
            }
          ],
          "indexed": false,
          "internalType": "struct TransferLegacyStruct.Distribution",
          "name": "distribution",
          "type": "tuple"
        },
        {
          "indexed": false,
          "internalType": "string",
          "name": "nickName",
          "type": "string"
        }
      ],
      "name": "TransferEOALegacyLayer23Created",
      "type": "event"
    },
    {
      "anonymous": false,
      "inputs": [
        {
          "indexed": true,
          "internalType": "uint256",
          "name": "legacyId",
          "type": "uint256"
        },
        {
          "indexed": false,
          "internalType": "uint8",
          "name": "layer",
          "type": "uint8"
        },
        {
          "indexed": false,
          "internalType": "string",
          "name": "nickNames",
          "type": "string"
        },
        {
          "components": [
            {
              "internalType": "address",
              "name": "user",
              "type": "address"
            },
            {
              "internalType": "uint256",
              "name": "percent",
              "type": "uint256"
            }
          ],
          "indexed": false,
          "internalType": "struct TransferLegacyStruct.Distribution",
          "name": "distribution",
          "type": "tuple"
        },
        {
          "indexed": false,
          "internalType": "uint256",
          "name": "timestamp",
          "type": "uint256"
        }
      ],
      "name": "TransferEOALegacyLayer23DistributionUpdated",
      "type": "event"
    },
    {
      "anonymous": false,
      "inputs": [
        {
          "indexed": true,
          "internalType": "uint256",
          "name": "legacyId",
          "type": "uint256"
        },
        {
          "indexed": false,
          "internalType": "string",
          "name": "name",
          "type": "string"
        },
        {
          "indexed": false,
          "internalType": "string",
          "name": "note",
          "type": "string"
        },
        {
          "indexed": false,
          "internalType": "uint256",
          "name": "timestamp",
          "type": "uint256"
        }
      ],
      "name": "TransferEOALegacyNameNoteUpdated",
      "type": "event"
    },
    {
      "anonymous": false,
      "inputs": [
        {
          "indexed": true,
          "internalType": "uint256",
          "name": "legacyId",
          "type": "uint256"
        },
        {
          "indexed": false,
          "internalType": "uint128",
          "name": "lackOfOutgoingTxRange",
          "type": "uint128"
        },
        {
          "indexed": false,
          "internalType": "uint256",
          "name": "timestamp",
          "type": "uint256"
        }
      ],
      "name": "TransferEOALegacyTriggerUpdated",
      "type": "event"
    },
    {
      "anonymous": false,
      "inputs": [
        {
          "indexed": true,
          "internalType": "uint256",
          "name": "legacyId",
          "type": "uint256"
        },
        {
          "indexed": false,
          "internalType": "address",
          "name": "storageToken",
          "type": "address"
        },
        {
          "indexed": false,
          "internalType": "uint256",
          "name": "tokenAmount",
          "type": "uint256"
        },
        {
          "indexed": false,
          "internalType": "uint256",
          "name": "timestamp",
          "type": "uint256"
        }
      ],
      "name": "TransferEOALegacyUnswapped",
      "type": "event"
    },
    {
      "inputs": [],
      "name": "BENEFICIARIES_LIMIT",
      "outputs": [
        {
          "internalType": "uint256",
          "name": "",
          "type": "uint256"
        }
      ],
      "stateMutability": "view",
      "type": "function"
    },
    {
      "inputs": [],
      "name": "_legacyId",
      "outputs": [
        {
          "internalType": "uint256",
          "name": "",
          "type": "uint256"
        }
      ],
      "stateMutability": "view",
      "type": "function"
    },
    {
      "inputs": [
        {
          "internalType": "uint256",
          "name": "legacyId_",
          "type": "uint256"
        },
        {
          "internalType": "address[]",
          "name": "assets_",
          "type": "address[]"
        },
        {
          "internalType": "bool",
          "name": "isETH_",
          "type": "bool"
        }
      ],
      "name": "activeLegacy",
      "outputs": [],
      "stateMutability": "nonpayable",
      "type": "function"
    },
    {
      "inputs": [
        {
          "internalType": "uint256",
          "name": "legacyId_",
          "type": "uint256"
        },
        {
          "internalType": "address[]",
          "name": "assets_",
          "type": "address[]"
        },
        {
          "internalType": "uint256",
          "name": "amountOutMin_",
          "type": "uint256"
        },
        {
          "internalType": "uint256",
          "name": "deadline_",
          "type": "uint256"
        }
      ],
      "name": "activeLegacyAndUnswap",
      "outputs": [],
      "stateMutability": "nonpayable",
      "type": "function"
    },
    {
      "inputs": [
        {
          "internalType": "uint256",
          "name": "legacyId_",
          "type": "uint256"
        },
        {
          "components": [
            {
              "internalType": "address",
              "name": "storageToken",
              "type": "address"
            },
            {
              "internalType": "uint256",
              "name": "amountOutMin",
              "type": "uint256"
            },
            {
              "internalType": "uint256",
              "name": "deadline",
              "type": "uint256"
            }
          ],
          "internalType": "struct TransferLegacyStruct.EOALegacyETHSwap",
          "name": "swap_",
          "type": "tuple"
        }
      ],
      "name": "autoSwap",
      "outputs": [],
      "stateMutability": "payable",
      "type": "function"
    },
    {
      "inputs": [
        {
          "internalType": "uint256",
          "name": "legacyId_",
          "type": "uint256"
        }
      ],
      "name": "avtiveAlive",
      "outputs": [],
      "stateMutability": "nonpayable",
      "type": "function"
    },
    {
      "inputs": [
        {
          "internalType": "uint256",
          "name": "legacyId_",
          "type": "uint256"
        }
      ],
      "name": "checkActiveLegacy",
      "outputs": [
        {
          "internalType": "bool",
          "name": "",
          "type": "bool"
        }
      ],
      "stateMutability": "view",
      "type": "function"
    },
    {
      "inputs": [
        {
          "components": [
            {
              "internalType": "string",
              "name": "name",
              "type": "string"
            },
            {
              "internalType": "string",
              "name": "note",
              "type": "string"
            },
            {
              "internalType": "string[]",
              "name": "nickNames",
              "type": "string[]"
            },
            {
              "components": [
                {
                  "internalType": "address",
                  "name": "user",
                  "type": "address"
                },
                {
                  "internalType": "uint256",
                  "name": "percent",
                  "type": "uint256"
                }
              ],
              "internalType": "struct TransferLegacyStruct.Distribution[]",
              "name": "distributions",
              "type": "tuple[]"
            }
          ],
          "internalType": "struct TransferEOALegacyRouter.LegacyMainConfig",
          "name": "mainConfig_",
          "type": "tuple"
        },
        {
          "components": [
            {
              "internalType": "uint256",
              "name": "lackOfOutgoingTxRange",
              "type": "uint256"
            },
            {
              "internalType": "uint256",
              "name": "delayLayer2",
              "type": "uint256"
            },
            {
              "internalType": "uint256",
              "name": "delayLayer3",
              "type": "uint256"
            }
          ],
          "internalType": "struct TransferLegacyStruct.LegacyExtraConfig",
          "name": "extraConfig_",
          "type": "tuple"
        },
        {
          "components": [
            {
              "internalType": "address",
              "name": "user",
              "type": "address"
            },
            {
              "internalType": "uint256",
              "name": "percent",
              "type": "uint256"
            }
          ],
          "internalType": "struct TransferLegacyStruct.Distribution",
          "name": "layer2Distribution_",
          "type": "tuple"
        },
        {
          "components": [
            {
              "internalType": "address",
              "name": "user",
              "type": "address"
            },
            {
              "internalType": "uint256",
              "name": "percent",
              "type": "uint256"
            }
          ],
          "internalType": "struct TransferLegacyStruct.Distribution",
          "name": "layer3Distribution_",
          "type": "tuple"
        },
        {
          "internalType": "string",
          "name": "nickName2",
          "type": "string"
        },
        {
          "internalType": "string",
          "name": "nickName3",
          "type": "string"
        },
        {
          "internalType": "uint256",
          "name": "signatureTimestamp",
          "type": "uint256"
        },
        {
          "internalType": "bytes",
          "name": "agreementSignature",
          "type": "bytes"
        }
      ],
      "name": "createLegacy",
      "outputs": [
        {
          "internalType": "address",
          "name": "",
          "type": "address"
        }
      ],
      "stateMutability": "nonpayable",
      "type": "function"
    },
    {
      "inputs": [
        {
          "internalType": "uint256",
          "name": "legacyId_",
          "type": "uint256"
        }
      ],
      "name": "deleteLegacy",
      "outputs": [],
      "stateMutability": "nonpayable",
      "type": "function"
    },
    {
      "inputs": [
        {
          "internalType": "uint256",
          "name": "ethAmount_",
          "type": "uint256"
        },
        {
          "internalType": "address",
          "name": "outputToken_",
          "type": "address"
        }
      ],
      "name": "getEthToTokenAmountOut",
      "outputs": [
        {
          "internalType": "uint256",
          "name": "",
          "type": "uint256"
        }
      ],
      "stateMutability": "view",
      "type": "function"
    },
    {
      "inputs": [
        {
          "internalType": "address",
          "name": "sender_",
          "type": "address"
        }
      ],
      "name": "getNextLegacyAddress",
      "outputs": [
        {
          "internalType": "address",
          "name": "",
          "type": "address"
        }
      ],
      "stateMutability": "view",
      "type": "function"
    },
    {
      "inputs": [
        {
          "internalType": "uint256",
          "name": "tokenAmount_",
          "type": "uint256"
        },
        {
          "internalType": "address",
          "name": "token_",
          "type": "address"
        }
      ],
      "name": "getTokenToEthAmountOut",
      "outputs": [
        {
          "internalType": "uint256",
          "name": "",
          "type": "uint256"
        }
      ],
      "stateMutability": "view",
      "type": "function"
    },
    {
      "inputs": [
        {
          "internalType": "address",
          "name": "_deployerContract",
          "type": "address"
        },
        {
          "internalType": "address",
          "name": "_premiumSetting",
          "type": "address"
        },
        {
          "internalType": "address",
          "name": "_verifier",
          "type": "address"
        },
        {
          "internalType": "address",
          "name": "_paymentContract",
          "type": "address"
        },
        {
          "internalType": "address",
          "name": "router_",
          "type": "address"
        },
        {
          "internalType": "address",
          "name": "weth_",
          "type": "address"
        }
      ],
      "name": "initialize",
      "outputs": [],
      "stateMutability": "nonpayable",
      "type": "function"
    },
    {
      "inputs": [
        {
          "internalType": "address",
          "name": "codeAdmin_",
          "type": "address"
        }
      ],
      "name": "initializeV2",
      "outputs": [],
      "stateMutability": "nonpayable",
      "type": "function"
    },
    {
      "inputs": [
        {
          "internalType": "address",
          "name": "",
          "type": "address"
        }
      ],
      "name": "isCreateLegacy",
      "outputs": [
        {
          "internalType": "bool",
          "name": "",
          "type": "bool"
        }
      ],
      "stateMutability": "view",
      "type": "function"
    },
    {
      "inputs": [
        {
          "internalType": "uint256",
          "name": "",
          "type": "uint256"
        }
      ],
      "name": "legacyAddresses",
      "outputs": [
        {
          "internalType": "address",
          "name": "",
          "type": "address"
        }
      ],
      "stateMutability": "view",
      "type": "function"
    },
    {
      "inputs": [],
      "name": "legacyCreationCode",
      "outputs": [
        {
          "internalType": "bytes",
          "name": "",
          "type": "bytes"
        }
      ],
      "stateMutability": "view",
      "type": "function"
    },
    {
      "inputs": [],
      "name": "legacyDeployerContract",
      "outputs": [
        {
          "internalType": "address",
          "name": "",
          "type": "address"
        }
      ],
      "stateMutability": "view",
      "type": "function"
    },
    {
      "inputs": [],
      "name": "paymentContract",
      "outputs": [
        {
          "internalType": "address",
          "name": "",
          "type": "address"
        }
      ],
      "stateMutability": "view",
      "type": "function"
    },
    {
      "inputs": [],
      "name": "premiumSetting",
      "outputs": [
        {
          "internalType": "address",
          "name": "",
          "type": "address"
        }
      ],
      "stateMutability": "view",
      "type": "function"
    },
    {
      "inputs": [
        {
          "internalType": "uint256",
          "name": "legacyId_",
          "type": "uint256"
        },
        {
          "internalType": "uint128",
          "name": "lackOfOutgoingTxRange_",
          "type": "uint128"
        }
      ],
      "name": "setActivationTrigger",
      "outputs": [],
      "stateMutability": "nonpayable",
      "type": "function"
    },
    {
      "inputs": [
        {
          "internalType": "uint256",
          "name": "legacyId_",
          "type": "uint256"
        },
        {
          "internalType": "string",
          "name": "nicknameLayer2_",
          "type": "string"
        },
        {
          "components": [
            {
              "internalType": "address",
              "name": "user",
              "type": "address"
            },
            {
              "internalType": "uint256",
              "name": "percent",
              "type": "uint256"
            }
          ],
          "internalType": "struct TransferLegacyStruct.Distribution",
          "name": "layer2Distribution_",
          "type": "tuple"
        },
        {
          "internalType": "string",
          "name": "nicknameLayer3_",
          "type": "string"
        },
        {
          "components": [
            {
              "internalType": "address",
              "name": "user",
              "type": "address"
            },
            {
              "internalType": "uint256",
              "name": "percent",
              "type": "uint256"
            }
          ],
          "internalType": "struct TransferLegacyStruct.Distribution",
          "name": "layer3Distribution_",
          "type": "tuple"
        }
      ],
      "name": "setBothLayer23Distributions",
      "outputs": [],
      "stateMutability": "nonpayable",
      "type": "function"
    },
    {
      "inputs": [
        {
          "internalType": "uint256",
          "name": "legacyId_",
          "type": "uint256"
        },
        {
          "internalType": "uint8",
          "name": "layer_",
          "type": "uint8"
        },
        {
          "internalType": "string",
          "name": "nickname_",
          "type": "string"
        },
        {
          "components": [
            {
              "internalType": "address",
              "name": "user",
              "type": "address"
            },
            {
              "internalType": "uint256",
              "name": "percent",
              "type": "uint256"
            }
          ],
          "internalType": "struct TransferLegacyStruct.Distribution",
          "name": "distribution_",
          "type": "tuple"
        }
      ],
      "name": "setLayer23Distributions",
      "outputs": [],
      "stateMutability": "nonpayable",
      "type": "function"
    },
    {
      "inputs": [
        {
          "internalType": "uint256",
          "name": "legacyId_",
          "type": "uint256"
        },
        {
          "components": [
            {
              "internalType": "string",
              "name": "name",
              "type": "string"
            },
            {
              "internalType": "string",
              "name": "note",
              "type": "string"
            },
            {
              "internalType": "string[]",
              "name": "nickNames",
              "type": "string[]"
            },
            {
              "components": [
                {
                  "internalType": "address",
                  "name": "user",
                  "type": "address"
                },
                {
                  "internalType": "uint256",
                  "name": "percent",
                  "type": "uint256"
                }
              ],
              "internalType": "struct TransferLegacyStruct.Distribution[]",
              "name": "distributions",
              "type": "tuple[]"
            }
          ],
          "internalType": "struct TransferEOALegacyRouter.LegacyMainConfig",
          "name": "mainConfig_",
          "type": "tuple"
        },
        {
          "components": [
            {
              "internalType": "uint256",
              "name": "lackOfOutgoingTxRange",
              "type": "uint256"
            },
            {
              "internalType": "uint256",
              "name": "delayLayer2",
              "type": "uint256"
            },
            {
              "internalType": "uint256",
              "name": "delayLayer3",
              "type": "uint256"
            }
          ],
          "internalType": "struct TransferLegacyStruct.LegacyExtraConfig",
          "name": "extraConfig_",
          "type": "tuple"
        },
        {
          "components": [
            {
              "internalType": "address",
              "name": "user",
              "type": "address"
            },
            {
              "internalType": "uint256",
              "name": "percent",
              "type": "uint256"
            }
          ],
          "internalType": "struct TransferLegacyStruct.Distribution",
          "name": "layer2Distribution_",
          "type": "tuple"
        },
        {
          "components": [
            {
              "internalType": "address",
              "name": "user",
              "type": "address"
            },
            {
              "internalType": "uint256",
              "name": "percent",
              "type": "uint256"
            }
          ],
          "internalType": "struct TransferLegacyStruct.Distribution",
          "name": "layer3Distribution_",
          "type": "tuple"
        },
        {
          "internalType": "string",
          "name": "nickName2",
          "type": "string"
        },
        {
          "internalType": "string",
          "name": "nickName3",
          "type": "string"
        }
      ],
      "name": "setLegacyConfig",
      "outputs": [],
      "stateMutability": "nonpayable",
      "type": "function"
    },
    {
      "inputs": [
        {
          "internalType": "bytes",
          "name": "code_",
          "type": "bytes"
        }
      ],
      "name": "setLegacyCreationCode",
      "outputs": [],
      "stateMutability": "nonpayable",
      "type": "function"
    },
    {
      "inputs": [
        {
          "internalType": "uint256",
          "name": "legacyId_",
          "type": "uint256"
        },
        {
          "internalType": "string[]",
          "name": "nickNames_",
          "type": "string[]"
        },
        {
          "components": [
            {
              "internalType": "address",
              "name": "user",
              "type": "address"
            },
            {
              "internalType": "uint256",
              "name": "percent",
              "type": "uint256"
            }
          ],
          "internalType": "struct TransferLegacyStruct.Distribution[]",
          "name": "distributions_",
          "type": "tuple[]"
        }
      ],
      "name": "setLegacyDistributions",
      "outputs": [],
      "stateMutability": "nonpayable",
      "type": "function"
    },
    {
      "inputs": [
        {
          "internalType": "uint256",
          "name": "legacyId_",
          "type": "uint256"
        },
        {
          "internalType": "string",
          "name": "name_",
          "type": "string"
        },
        {
          "internalType": "string",
          "name": "note_",
          "type": "string"
        }
      ],
      "name": "setNameNote",
      "outputs": [],
      "stateMutability": "nonpayable",
      "type": "function"
    },
    {
      "inputs": [],
      "name": "uniswapRouter",
      "outputs": [
        {
          "internalType": "address",
          "name": "",
          "type": "address"
        }
      ],
      "stateMutability": "view",
      "type": "function"
    },
    {
      "inputs": [
        {
          "internalType": "uint256",
          "name": "legacyId_",
          "type": "uint256"
        },
        {
          "internalType": "uint256",
          "name": "amountIn_",
          "type": "uint256"
        },
        {
          "internalType": "uint256",
          "name": "amountOutMin_",
          "type": "uint256"
        },
        {
          "internalType": "uint256",
          "name": "deadline_",
          "type": "uint256"
        }
      ],
      "name": "unswap",
      "outputs": [],
      "stateMutability": "nonpayable",
      "type": "function"
    },
    {
      "inputs": [],
      "name": "verifier",
      "outputs": [
        {
          "internalType": "contract IEIP712LegacyVerifier",
          "name": "",
          "type": "address"
        }
      ],
      "stateMutability": "view",
      "type": "function"
    },
    {
      "inputs": [],
      "name": "weth",
      "outputs": [
        {
          "internalType": "address",
          "name": "",
          "type": "address"
        }
      ],
      "stateMutability": "view",
      "type": "function"
    },
    {
      "inputs": [
        {
          "internalType": "uint256",
          "name": "legacyId_",
          "type": "uint256"
        },
        {
          "internalType": "uint256",
          "name": "amount_",
          "type": "uint256"
        }
      ],
      "name": "withdraw",
      "outputs": [],
      "stateMutability": "nonpayable",
      "type": "function"
    }
  ],
  "bytecode": "0x608080604052346100b9577ff0c57e16840df040f15088dc2f81fe391c3923bec73e23a9662efc9c229c6a009081549060ff8260401c166100aa57506001600160401b036002600160401b031982821601610065575b604051612f179081620000bf8239f35b6001600160401b031990911681179091556040519081527fc7f505b2f371ae2175ee4913f4499e1f2633a7b5936321eed1cdaeb6115181d290602090a1388080610055565b63f92ee8a960e01b8152600490fd5b600080fdfe608080604052600436101561001357600080fd5b600090813560e01c90816308a8f89214611edb5750806311c395bd14611d2157806311fab21714611cf85780631593a05614611c845780631dd82cfb14611b4e578063204d677c146119b157806321f6a8ca1461184d5780632484af451461181957806329b6eca9146117555780632b7ac3f31461172c5780632fadbcc414611661578063318b4fe1146115285780633fc8cef3146114ff578063441a3e70146114885780634cd3a51f1461146d578063643401ff14610ecf57806366d0078314610eb2578063735de9f714610e895780637d08398a14610d6b5780637f408f2114610d2c5780639c91dd5614610d03578063a6d9dad714610ab8578063a80d4b6c14610a38578063bac67a811461094e578063c4e14b5f14610883578063cc2a9a5b1461067b578063dd265b991461046c578063e6e73489146103bd578063f2d5dcf514610303578063f47ca2e9146102d0578063f895338d146102a75763fa6e515e1461018157600080fd5b346102a45760603660031901126102a4576004356001600160401b036024358181116102a0576101b5903690600401612728565b9160443590811161029c576101ce903690600401612728565b909290856001600160a01b036101e3876129f8565b16803b156102985781604051809263064e5c9360e51b825281838161020d338b8d60048501612c55565b03925af1801561028d57610275575b50507f19b7f216c02d27d0fb71085c3d35718bd3c3b9a3ecd6db83f23353d5f07bb6be936102699161025b604051958695606087526060870191612a95565b918483036020860152612a95565b4260408301520390a280f35b61027e906127bf565b61028957853861021c565b8580fd5b6040513d84823e3d90fd5b5080fd5b8480fd5b8380fd5b80fd5b50346102a457806003193601126102a4576001546040516001600160a01b039091168152602090f35b50346102a45760203660031901126102a457602090600435815260028252604060018060a01b0391205416604051908152f35b50346102a457602090816003193601126102a45761031f612922565b61035a8361032b612824565b60015460405163ba3143d560e01b81526001600160a01b039590948593928716928492839291600484016129b8565b03915afa9283156103b1578093610377575b505060405191168152f35b909192508382813d83116103aa575b6103908183612803565b810103126102a457506103a2906129a4565b90388061036c565b503d610386565b604051903d90823e3d90fd5b50346102a45760203660031901126102a457600435816103dc826129f8565b338252600360205260408220805460ff191690556001600160a01b0316803b1561029857818091602460405180948193631e12080160e21b83523360048401525af1801561028d57610458575b50507f7e8b009d765fae8a3e815514996369f653a6df6d6130d0815ee940d3c1ece7a36020604051428152a280f35b610461906127bf565b610298578138610429565b50346102a45760603660031901126102a4576004356024356001600160401b03811161065d576104a0903690600401612755565b604435908115918215809103610289576104b9856129f8565b9280610673575b610661576001600160a01b0390921692859290843b156102a057604051635c611c9b60e01b8152606060048201529284928492839261050491606485019190612d89565b906024830152336044830152038183875af1801561028d57610649575b505060405163021fe24d60e41b8152336004820152906020908183602481845afa92831561061a578593610625575b50816004916040519283809263fd780e9d60e01b82525afa91821561061a5785926105ed575b505060ff808316911681116105db57156105c9576040805160ff90921682524260208301527fcd3498ab5ce0596894143945f9833cfd4ce307a6e6ac364f962a3b089edbbc8b9190819081015b0390a280f35b6040516369562e6560e01b8152600490fd5b6040516371f1e92160e11b8152600490fd5b61060c9250803d10610613575b6106048183612803565b810190612dcd565b3880610576565b503d6105fa565b6040513d87823e3d90fd5b60049193506106418391823d8411610613576106048183612803565b939150610550565b610652906127bf565b61065d578238610521565b8280fd5b604051634847f0e560e01b8152600490fd5b5081156104c0565b50346102a45760c03660031901126102a457610695612922565b61069d612938565b6001600160a01b039190604435838116919082900361087e5760643584811680910361087e576084359085821680920361087e5760a4359386851680950361087e577ff0c57e16840df040f15088dc2f81fe391c3923bec73e23a9662efc9c229c6a0096875460ff8160401c1615976001600160401b03821680159081610876575b600114908161086c575b159081610863575b506108085767ffffffffffffffff1982166001178a55829189610844575b5016948515801561083a575b8015610832575b801561082a575b8015610822575b801561081a575b610808576bffffffffffffffffffffffff60a01b958660015416176001551684600454161760045583600554161760055582600654161760065581600754161760075560085416176008556107ca575080f35b68ff00000000000000001981541690557fc7f505b2f371ae2175ee4913f4499e1f2633a7b5936321eed1cdaeb6115181d2602060405160018152a180f35b60405163f92ee8a960e01b8152600490fd5b508615610777565b508415610770565b508315610769565b508215610762565b508181161561075b565b68ffffffffffffffffff191668010000000000000001178a553861074f565b90501538610731565b303b159150610729565b8a915061071f565b600080fd5b50346102a45760403660031901126102a457610901816108a1612938565b604051906108ae826127e8565b6002825260403660208401376108c382612de6565b6001600160a01b03918216905260085481166108de83612e09565b5260075416604051808095819463d06ca61f60e01b835260043560048401612e94565b03915afa90811561028d579061092291836020949261092b575b5050612e09565b51604051908152f35b61094792503d8091833e61093f8183612803565b810190612e19565b388061091b565b5060803660031901126102a4576004356060366023190112610298576001600160a01b03828161097d846129f8565b16803b15610298578160849160405192838092630e168ba760e01b8252336004830152876109a9612938565b1660248301526044356044830152606435606483015234905af1801561028d57610a24575b5050602435908116810361087e57604080516001600160a01b03909216825234602083015242908201527f47c17f849d40349b9cecd56aa290cfc2e37e3de1f67d86147ef47685f5d1bdef9080606081016105c3565b610a2d906127bf565b61065d5782386109ce565b50346102a45760403660031901126102a45761090181610a56612938565b60405190610a63826127e8565b6002825260403660208401376008546001600160a01b0391908216610a8784612de6565b5281610a9284612e09565b9116905260075416604051808095819463d06ca61f60e01b835260043560048401612e94565b50346102a45760e03660031901126102a4576001600160401b0360243581811161065d57610aea903690600401612728565b909160403660431901126102a0576084359081116102a057610b10903690600401612728565b909260403660a319011261029c576001600160a01b03610b316004356129f8565b1690813b1561087e5760006040518093630613702960e01b82523360048301526002602483015260a06044830152818381610b7060a482018b89612a95565b6001600160a01b03610b80612964565b166064830152606435608483015203925af1918215610ce857610bbc92610cf4575b50604051936002855260a0602086015260a0850191612a95565b6001600160a01b03610bcc612964565b16604084015260643560608401524260808401527f9837e1720561f5ed2aaba5820ab63f7f07740e6a34509667e4af8dcf7905b965838194600435930390a26001600160a01b03610c1e6004356129f8565b1692833b1561087e57604051630613702960e01b81523360048201526003602482015260a0604482015290600082610c5a60a482018685612a95565b966001600160a01b03610c6b61297a565b16606483015281838160c4359a8b608483015203925af1918215610ce857610cac92610cd9575b50604051926003845260a0602085015260a0840191612a95565b926001600160a01b03610cbd61297a565b166040830152606082015242608082015280600435930390a280f35b610ce2906127bf565b38610c92565b6040513d6000823e3d90fd5b610cfd906127bf565b38610ba2565b50346102a457806003193601126102a4576006546040516001600160a01b039091168152602090f35b50346102a45760203660031901126102a45760209060ff906040906001600160a01b03610d57612922565b168152600384522054166040519015158152f35b50346102a45760203660031901126102a45760043581610d8a826129f8565b6004546001600160a01b039081169190823b156102a0578380929160248293604051958693849263909d243960e01b845216978860048401525af19182610e75575b5050610e70577fb7c24ac596129f9d0aa780213146b79754364e478b0b6df8939d618d5dfb236a6020604051838152a15b803b156102985781809160246040518094819363941e6cfd60e01b83523360048401525af1801561028d57610e5c575b50507fcf245f1ce96e169fc090d32f8aa51f86195ae61c3bbf0f22170802db12b95ff26020604051428152a280f35b610e65906127bf565b610298578138610e2d565b610dfd565b610e7e906127bf565b61065d578238610dcc565b50346102a457806003193601126102a4576007546040516001600160a01b039091168152602090f35b50346102a457806003193601126102a45760209054604051908152f35b50346102a4576101603660031901126102a4576001600160401b0360243581811161065d576080600319823603011261065d57606036604319011261065d5760403660a319011261065d5760403660e319011261065d57610124358281116102a057610f3f903690600401612728565b6101443593841161029c57610f5a6024943690600401612728565b9290610f676004356129f8565b602060018060a01b036004541660405198898092631d0bf83560e21b82523360048301525afa968715611462578897611431575b50610fac6064870187600401612a2b565b9050610fbe6044880188600401612a60565b91905014801590611418575b61140657604435156113f4576001600160a01b0316956110256020610ff56064890160048a01612a2b565b9061100660448b018b600401612a60565b60405163ad87ff3160e01b815295869485949193913360048701612d55565b03818c8c5af180156113e95789906113b5575b6110429150612d31565b156113a357863b1561138b576040516305d8902360e41b81523360048201526044803560248301528991908290829081838d5af1801561028d5761138f575b5050863b1561138b5787604051637072f5af60e01b81523360048201526064356024820152608435604482015261012060648201528181806110de6110cb61012483018b8b612a95565b8281036003190160848401528b89612a95565b6110ea60a48301612af8565b6110f660e48301612b19565b0381838d5af1801561028d57611377575b50506112dd575b50505050826111238260040183600401612c23565b843b1561065d5760405163064e5c9360e51b81529183918391829161114e9133919060048501612c55565b038183885af1801561028d576112c9575b505060405163d88b9df360e01b815290602082600481865afa918215611289578492611294575b506020600492936040519384809263a250c4cb60e01b82525afa8015611289578490611237575b7f88e0706aef0a636a0d06befde1188d3fb282b0c8ef82706e74b0384d8f80274e9250604051936111dd856127e8565b6044358552602085015260408401526112266112076040519260a0845260a0840190600401612c6e565b9360208301906040809180518452602081015160208501520151910152565b42608082015280600435930390a280f35b506020823d602011611281575b8161125160209383612803565b8101031261087e577f88e0706aef0a636a0d06befde1188d3fb282b0c8ef82706e74b0384d8f80274e91516111ad565b3d9150611244565b6040513d86823e3d90fd5b91506020823d6020116112c1575b816112af60209383612803565b8101031261087e579051906020611186565b3d91506112a2565b6112d2906127bf565b61065d57823861115f565b6112fd61135392604051946002865260a0602087015260a0860191612a95565b61130960408501612af8565b4260808501527f9837e1720561f5ed2aaba5820ab63f7f07740e6a34509667e4af8dcf7905b965848195600435930390a2604051936003855260a0602086015260a0850191612a95565b9161136060408201612b19565b42608082015280600435930390a23880808061110e565b611380906127bf565b61138b578738611107565b8780fd5b611398906127bf565b61138b578738611081565b604051638b450acb60e01b8152600490fd5b506020813d6020116113e1575b816113cf60209383612803565b8101031261087e576110429051611038565b3d91506113c2565b6040513d8b823e3d90fd5b604051637710d91d60e11b8152600490fd5b60405163657873a760e01b8152600490fd5b506114296064870187600401612a2b565b905015610fca565b61145491975060203d60201161145b575b61144c8183612803565b8101906129e0565b9538610f9b565b503d611442565b6040513d8a823e3d90fd5b50346102a457806003193601126102a4576020604051818152f35b50346102a45760403660031901126102a457806001600160a01b036114ae6004356129f8565b16803b156114fc5760405163f3fef3a360e01b815233600482015260248035908201529082908290604490829084905af1801561028d576114ec5750f35b6114f5906127bf565b6102a45780f35b50fd5b50346102a457806003193601126102a4576008546040516001600160a01b039091168152602090f35b50346102a45760a03660031901126102a45760043560243560ff811680910361065d576044356001600160401b0381116102a05761156a903690600401612728565b9091604036606319011261029c576001600160a01b038061158a866129f8565b16803b1561087e57604051630613702960e01b81523360048201526024810184905260a06044820152946000866115c560a482018885612a95565b93856115cf61294e565b1660648301528183816084359788608483015203925af1908115610ce8577f9837e1720561f5ed2aaba5820ab63f7f07740e6a34509667e4af8dcf7905b9659661163292611652575b50604051958695865260a0602087015260a0860191612a95565b9161163b61294e565b16604084015260608301524260808301520390a280f35b61165b906127bf565b38611618565b50346102a45760403660031901126102a4576004356024356fffffffffffffffffffffffffffffffff811680910361065d5761169c826129f8565b81156113f45783906001600160a01b0316803b15610298578180916044604051809481936305d8902360e41b83523360048401528860248401525af1801561028d57611718575b505060407f57aa880322cc087e6c601814aca104d368d46bd0b56666ee3657e5f3e6984a7e918151908152426020820152a280f35b611721906127bf565b61065d5782386116e3565b50346102a457806003193601126102a4576005546040516001600160a01b039091168152602090f35b50346102a45760203660031901126102a45761176f612922565b7ff0c57e16840df040f15088dc2f81fe391c3923bec73e23a9662efc9c229c6a0090815460ff8160401c168015611805575b6108085760039160018060a01b03166bffffffffffffffffffffffff60a01b600a541617600a5568ffffffffffffffffff19161790557fc7f505b2f371ae2175ee4913f4499e1f2633a7b5936321eed1cdaeb6115181d2602060405160038152a180f35b5060036001600160401b03821610156117a1565b50346102a457806003193601126102a457611849611835612824565b6040519182916020835260208301906128e2565b0390f35b50346102a45760603660031901126102a4576004356001600160401b036024358181116102a057611882903690600401612755565b604435928084116102895736602385011215610289578360040135908111610289576024840193602436918360061b010111610289576118c1856129f8565b8282148015906119a9575b6114065760405163ad87ff3160e01b8152906020908290818a816118f7898b8a8e3360048701612d55565b03926001600160a01b03165af1801561199e57879061196b575b61191b9150612d31565b156113a3577f6618028c0fd89350d8fc534c8e9a73b11a6b0ccc18f2a55ba430bc990ce91e64936102699161195d604051958695606087526060870191612bbf565b918483036020860152612b3b565b506020813d8211611996575b8161198460209383612803565b8101031261087e5761191b9051611911565b3d9150611977565b6040513d89823e3d90fd5b5081156118cc565b50346102a45760803660031901126102a457600435816024356001600160401b038111610298576119e6903690600401612755565b91906001600160a01b036119f9856129f8565b1692833b1561065d5760405163fc3f943560e01b81526080600482015291839183918291611a2c91608484019190612d89565b33602483015260443560448301526064356064830152038183875af1801561028d57611b3a575b505060405163021fe24d60e41b8152336004820152906020908183602481845afa92831561061a578593611b16575b50816004916040519283809263fd780e9d60e01b82525afa91821561061a578592611af9575b505060ff808316911681116105db57156105c9576040805160ff90921682524260208301527ff11b74430a101b33e07730512a1129dac839578848d69f2f882a068792bc3b399190819081016105c3565b611b0f9250803d10610613576106048183612803565b3880611aa8565b6004919350611b328391823d8411610613576106048183612803565b939150611a82565b611b43906127bf565b61065d578238611a53565b50346102a45760803660031901126102a4576004356024356001600160a01b03611b77836129f8565b60405163ab6e949560e01b815291859116602083600481845afa92831561028d578293611c49575b50803b1561029857818091608460405180948193638ab12e0b60e01b8352336004840152896024840152604435604484015260643560648401525af1801561028d57611c35575b5050604080516001600160a01b039092168252602082019290925242918101919091527f9d3e24477023ab92e11fe1aa33e6b479649da69a6d2eee3f49b4b8ca22c0752d9080606081016105c3565b611c3e906127bf565b6102a0578338611be6565b9092506020813d8211611c7c575b81611c6460209383612803565b8101031261029857611c75906129a4565b9138611b9f565b3d9150611c57565b50346102a45760203660031901126102a457600460206001600160a01b03611cac83356129f8565b1660405192838092635d70ba8b60e01b82525afa90811561028d5760209291611cdb575b506040519015158152f35b611cf29150823d811161145b5761144c8183612803565b38611cd0565b50346102a457806003193601126102a4576004546040516001600160a01b039091168152602090f35b50346102a457602090816003193601126102a4576001600160401b0360043581811161065d57611d55903690600401612728565b600a549092906001600160a01b03163303611ec9578215611eb7578211611ea357611d81600954612785565b601f8111611e45575b508293601f8311600114611dc75750928293829392611dbc575b50508160011b916000199060031b1c19161760095580f35b013590503880611da4565b601f198316947f6e1540171b6c0c960b71a7020d9f60077f6af931a8bbf590da0223dacf75c7af929185905b878210611e2d575050836001959610611e13575b505050811b0160095580f35b0135600019600384901b60f8161c19169055388080611e07565b80600184968294958701358155019501920190611df3565b7f6e1540171b6c0c960b71a7020d9f60077f6af931a8bbf590da0223dacf75c7af601f840160051c810191868510611e99575b601f0160051c01905b818110611e8e5750611d8a565b848155600101611e81565b9091508190611e78565b634e487b7160e01b83526041600452602483fd5b604051631858b10b60e01b8152600490fd5b6040516327d7fdab60e21b8152600490fd5b82346102a4576101803660031901126102a4576001600160401b039160043583811161065d576080600319823603011261065d57606036602319011261065d57604036608319011261065d5760403660c319011261065d57610104358481116102a057611f4c903690600401612728565b6101249591953582811161028957611f68903690600401612728565b9390926101643590811161272457611f84903690600401612728565b95611f956064840184600401612a2b565b9050611fa76044850185600401612a60565b9190501480159061270b575b6126fc5750602435156113f457338752600360205260ff6040882054166126e457611fdc612824565b87546001810181116126d0576120218995949392600160409301875560018060a01b03600154169083519b8c809481936303efe8cf60e61b83523390600484016129b8565b03925af1978815611289578498612687575b508354845260026020908152604080862080546001600160a01b0319166001600160a01b038c81169190911790915533875260039092528520805460ff1916600117905584546005549098911690813b15610289576040516307557ce760e31b81523360048201526001600160a01b038b16602482015261014435604482015260806064820152928692849290918391859183916120d691608484019190612a95565b03925af1801561128957612674575b50856120f76064830160048401612a2b565b60048054600654600754600854949695946001600160a01b0393841694928416939081169291169061212f9060448a01908a01612a60565b939095604051988998631c34cdbf60e31b8a5260048a01523360248a015260448901610220905261022489019061216592612b3b565b946024356064890152604435608489015260643560a489015260c4880161218b90612ab6565b6121986101048901612ad7565b6101448801526101648701526101848601526101a4850152838203600319016101c48501526121c692612bbf565b818103600319016101e48301526121de90858c612a95565b818103600319016102048301526121f6908888612a95565b6001600160a01b038a169183910381875a94602095f18015611289578490612640575b6122239150612d31565b156113a35760405163d88b9df360e01b81526020816004816001600160a01b038c165afa90811561128957849161260e575b5060405163a250c4cb60e01b81526020816004816001600160a01b038d165afa90811561061a5785916125dc575b5060405191612291836127e8565b6024358352602083015260408201526122ad6004830180612c23565b6001600160a01b038a163b156102895760405163064e5c9360e51b8152918691839182916122e19133919060048501612c55565b0381836001600160a01b038e165af1801561061a578893929186916125c1575b50507f756425475689e5cda6db967e12dd655953b4e342d62e4af0fe9ca21feb57202491612357916123756040519384938d60018060a01b0316855233602086015260e0604086015260e0850190600401612c6e565b825160608501526020830151608085015260409092015160a0840152565b4260c08301520390a26004546001600160a01b0316803b1561065d57604051633edc972160e11b81523360048201526001600160a01b03881660248201529083908290604490829084905af180156125a2579083916125ad575b50506084356001600160a01b0381169081900361087e57604051639247a1b360e01b8152600260048201526024810191909152602081604481866001600160a01b038c165af19081156125a2578391612570575b5060c4356001600160a01b0381169081900361087e57604051639247a1b360e01b8152600360048201526024810191909152602081604481876001600160a01b038d165af19384156103b15793612539575b509060209786926124f4575b50505061249e575b50506040516001600160a01b03909216825250f35b7f3cef7ad39d6c356627632fae5b3091b2d45c7417a969c6a6c4e587e0abbe20e3916124e9604051928392600384526124d8898501612ad7565b608060608501526080840191612a95565b0390a2828080612489565b7f3cef7ad39d6c356627632fae5b3091b2d45c7417a969c6a6c4e587e0abbe20e39161252e604051928392600284526124d88d8501612ab6565b0390a2838780612481565b919092506020823d602011612568575b8161255660209383612803565b8101031261087e579051916020612475565b3d9150612549565b90506020813d60201161259a575b8161258b60209383612803565b8101031261087e575188612423565b3d915061257e565b6040513d85823e3d90fd5b6125b6906127bf565b6102985781886123cf565b6125ce91929394506127bf565b6102a057908691848b612301565b90506020813d602011612606575b816125f760209383612803565b8101031261087e57518a612283565b3d91506125ea565b90506020813d602011612638575b8161262960209383612803565b8101031261087e575189612255565b3d915061261c565b506020813d60201161266c575b8161265a60209383612803565b8101031261087e576122239051612219565b3d915061264d565b612680909391936127bf565b91886120e5565b9097506040813d6040116126c8575b816126a360409383612803565b810103126102a0576126c060206126b9836129a4565b92016129a4565b509689612033565b3d9150612696565b634e487b7160e01b89526011600452602489fd5b60405163834ef7eb60e01b8152336004820152602490fd5b63657873a760e01b8152600490fd5b5061271c6064840184600401612a2b565b905015611fb3565b8680fd5b9181601f8401121561087e578235916001600160401b03831161087e576020838186019501011161087e57565b9181601f8401121561087e578235916001600160401b03831161087e576020808501948460051b01011161087e57565b90600182811c921680156127b5575b602083101461279f57565b634e487b7160e01b600052602260045260246000fd5b91607f1691612794565b6001600160401b0381116127d257604052565b634e487b7160e01b600052604160045260246000fd5b606081019081106001600160401b038211176127d257604052565b90601f801991011681019081106001600160401b038211176127d257604052565b604051906000826009549161283883612785565b808352926001908181169081156128c05750600114612861575b5061285f92500383612803565b565b6009600090815291507f6e1540171b6c0c960b71a7020d9f60077f6af931a8bbf590da0223dacf75c7af5b8483106128a5575061285f935050810160200138612852565b81935090816020925483858a0101520191019091859261288c565b90506020925061285f94915060ff191682840152151560051b82010138612852565b919082519283825260005b84811061290e575050826000602080949584010152601f8019910116010190565b6020818301810151848301820152016128ed565b600435906001600160a01b038216820361087e57565b602435906001600160a01b038216820361087e57565b606435906001600160a01b038216820361087e57565b604435906001600160a01b038216820361087e57565b60a435906001600160a01b038216820361087e57565b35906001600160a01b038216820361087e57565b51906001600160a01b038216820361087e57565b906129d06020919493946040845260408401906128e2565b6001600160a01b03909416910152565b9081602091031261087e5751801515810361087e5790565b6000908152600260205260409020546001600160a01b0316908115612a1957565b604051630e34dec560e01b8152600490fd5b903590601e198136030182121561087e57018035906001600160401b03821161087e57602001918160061b3603831361087e57565b903590601e198136030182121561087e57018035906001600160401b03821161087e57602001918160051b3603831361087e57565b908060209392818452848401376000828201840152601f01601f1916010190565b6084356001600160a01b0381169081900361087e578152602060a435910152565b60c4356001600160a01b0381169081900361087e578152602060e435910152565b60a4356001600160a01b0381169081900361087e578152602060c435910152565b60e4356001600160a01b0381169081900361087e578152602061010435910152565b9190808252602080920192916000905b828210612b59575050505090565b9293919290916001906001600160a01b03612b7387612990565b16815285830135838201526040908101950193920190612b4b565b9035601e198236030181121561087e5701602081359101916001600160401b03821161087e57813603831361087e57565b90828093828252602080809301958460051b010194846000925b858410612bea575050505050505090565b909192939495968580612c12600193601f19868203018852612c0c8c88612b8e565b90612a95565b990194019401929594939190612bd9565b903590601e198136030182121561087e57018035906001600160401b03821161087e5760200191813603831361087e57565b916020916129d091959495604085526040850191612a95565b612ca7612c8c612c7e8380612b8e565b608086526080860191612a95565b612c996020840184612b8e565b908583036020870152612a95565b36829003601e19019160408101358381121561087e57810191602083359301906001600160401b039384811161087e578060051b3603831361087e57612cf4928783036040890152612bbf565b9260608201359081121561087e57019060208235920190821161087e578160061b3603811361087e57836060612d2e958503910152612b3b565b90565b8015908115612d4a575b50612d4557600190565b600090565b602091501138612d3b565b9391612d2e9593612d7b9260018060a01b03168652606060208701526060860191612b3b565b926040818503910152612bbf565b91908082526020809201929160005b828110612da6575050505090565b909192938280600192838060a01b03612dbe89612990565b16815201950193929101612d98565b9081602091031261087e575160ff8116810361087e5790565b805115612df35760200190565b634e487b7160e01b600052603260045260246000fd5b805160011015612df35760400190565b90602090818382031261087e5782516001600160401b039384821161087e570181601f8201121561087e5780519384116127d2578360051b9060405194612e6285840187612803565b8552838086019282010192831161087e578301905b828210612e85575050505090565b81518152908301908301612e77565b9060609160408101918152602092816040858094015285518094520193019160005b828110612ec4575050505090565b83516001600160a01b031685529381019392810192600101612eb656fea2646970667358221220dbe58e18ba4957dd20598860bf84644643fc84bde587759661b19c986b2aedc064736f6c63430008140033"
}