{
  "address": "0xa8DfE133CEf06fA32f31EA4bB7f44C73671BaEDd",
  "abi": [
    {
      "inputs": [],
      "stateMutability": "nonpayable",
      "type": "constructor"
    },
    {
      "inputs": [],
      "name": "ActivationTriggerInvalid",
      "type": "error"
    },
    {
      "inputs": [],
      "name": "CannotClaim",
      "type": "error"
    },
    {
      "inputs": [],
      "name": "DistributionsInvalid",
      "type": "error"
    },
    {
      "inputs": [],
      "name": "InvalidInitialization",
      "type": "error"
    },
    {
      "inputs": [],
      "name": "InvalidSwapSettings",
      "type": "error"
    },
    {
      "inputs": [],
      "name": "LegacyNotFound",
      "type": "error"
    },
    {
      "inputs": [],
      "name": "NotInitializing",
      "type": "error"
    },
    {
      "inputs": [],
      "name": "NumAssetsInvalid",
      "type": "error"
    },
    {
      "inputs": [],
      "name": "NumBeneficiariesInvalid",
      "type": "error"
    },
    {
      "inputs": [],
      "name": "OnlyBeneficaries",
      "type": "error"
    },
    {
      "inputs": [
        {
          "internalType": "address",
          "name": "",
          "type": "address"
        }
      ],
      "name": "SenderIsCreatedLegacy",
      "type": "error"
    },
    {
      "anonymous": false,
      "inputs": [
        {
          "indexed": false,
          "internalType": "address",
          "name": "legacyAddress",
          "type": "address"
        }
      ],
      "name": "EmailOwnerResetNotCompleted",
      "type": "event"
    },
    {
      "anonymous": false,
      "inputs": [
        {
          "indexed": false,
          "internalType": "uint64",
          "name": "version",
          "type": "uint64"
        }
      ],
      "name": "Initialized",
      "type": "event"
    },
    {
      "anonymous": false,
      "inputs": [
        {
          "indexed": false,
          "internalType": "uint256",
          "name": "legacyId",
          "type": "uint256"
        },
        {
          "indexed": false,
          "internalType": "uint8",
          "name": "layer",
          "type": "uint8"
        },
        {
          "indexed": false,
          "internalType": "uint256",
          "name": "timestamp",
          "type": "uint256"
        }
      ],
      "name": "TransferEOALegacyActivated",
      "type": "event"
    },
    {
      "anonymous": false,
      "inputs": [
        {
          "indexed": false,
          "internalType": "uint256",
          "name": "legacyId",
          "type": "uint256"
        },
        {
          "indexed": false,
          "internalType": "uint256",
          "name": "timestamp",
          "type": "uint256"
        }
      ],
      "name": "TransferEOALegacyActivedAlive",
      "type": "event"
    },
    {
      "anonymous": false,
      "inputs": [
        {
          "indexed": false,
          "internalType": "uint256",
          "name": "legacyId",
          "type": "uint256"
        },
        {
          "components": [
            {
              "internalType": "string",
              "name": "name",
              "type": "string"
            },
            {
              "internalType": "string",
              "name": "note",
              "type": "string"
            },
            {
              "internalType": "string[]",
              "name": "nickNames",
              "type": "string[]"
            },
            {
              "components": [
                {
                  "internalType": "address",
                  "name": "user",
                  "type": "address"
                },
                {
                  "internalType": "uint256",
                  "name": "percent",
                  "type": "uint256"
                }
              ],
              "internalType": "struct TransferLegacyStruct.Distribution[]",
              "name": "distributions",
              "type": "tuple[]"
            }
          ],
          "indexed": false,
          "internalType": "struct TransferEOALegacyRouter.LegacyMainConfig",
          "name": "mainConfig",
          "type": "tuple"
        },
        {
          "components": [
            {
              "internalType": "uint256",
              "name": "lackOfOutgoingTxRange",
              "type": "uint256"
            },
            {
              "internalType": "uint256",
              "name": "delayLayer2",
              "type": "uint256"
            },
            {
              "internalType": "uint256",
              "name": "delayLayer3",
              "type": "uint256"
            }
          ],
          "indexed": false,
          "internalType": "struct TransferLegacyStruct.LegacyExtraConfig",
          "name": "extraConfig",
          "type": "tuple"
        },
        {
          "indexed": false,
          "internalType": "uint256",
          "name": "timestamp",
          "type": "uint256"
        }
      ],
      "name": "TransferEOALegacyConfigUpdated",
      "type": "event"
    },
    {
      "anonymous": false,
      "inputs": [
        {
          "indexed": false,
          "internalType": "uint256",
          "name": "legacyId",
          "type": "uint256"
        },
        {
          "indexed": false,
          "internalType": "address",
          "name": "legacyAddress",
          "type": "address"
        },
        {
          "indexed": false,
          "internalType": "address",
          "name": "creatorAddress",
          "type": "address"
        },
        {
          "components": [
            {
              "internalType": "string",
              "name": "name",
              "type": "string"
            },
            {
              "internalType": "string",
              "name": "note",
              "type": "string"
            },
            {
              "internalType": "string[]",
              "name": "nickNames",
              "type": "string[]"
            },
            {
              "components": [
                {
                  "internalType": "address",
                  "name": "user",
                  "type": "address"
                },
                {
                  "internalType": "uint256",
                  "name": "percent",
                  "type": "uint256"
                }
              ],
              "internalType": "struct TransferLegacyStruct.Distribution[]",
              "name": "distributions",
              "type": "tuple[]"
            }
          ],
          "indexed": false,
          "internalType": "struct TransferEOALegacyRouter.LegacyMainConfig",
          "name": "mainConfig",
          "type": "tuple"
        },
        {
          "components": [
            {
              "internalType": "uint256",
              "name": "lackOfOutgoingTxRange",
              "type": "uint256"
            },
            {
              "internalType": "uint256",
              "name": "delayLayer2",
              "type": "uint256"
            },
            {
              "internalType": "uint256",
              "name": "delayLayer3",
              "type": "uint256"
            }
          ],
          "indexed": false,
          "internalType": "struct TransferLegacyStruct.LegacyExtraConfig",
          "name": "extraConfig",
          "type": "tuple"
        },
        {
          "indexed": false,
          "internalType": "uint256",
          "name": "timestamp",
          "type": "uint256"
        }
      ],
      "name": "TransferEOALegacyCreated",
      "type": "event"
    },
    {
      "anonymous": false,
      "inputs": [
        {
          "indexed": false,
          "internalType": "uint256",
          "name": "legacyId",
          "type": "uint256"
        },
        {
          "indexed": false,
          "internalType": "uint256",
          "name": "timestamp",
          "type": "uint256"
        }
      ],
      "name": "TransferEOALegacyDeleted",
      "type": "event"
    },
    {
      "anonymous": false,
      "inputs": [
        {
          "indexed": false,
          "internalType": "uint256",
          "name": "legacyId",
          "type": "uint256"
        },
        {
          "indexed": false,
          "internalType": "string[]",
          "name": "nickNames",
          "type": "string[]"
        },
        {
          "components": [
            {
              "internalType": "address",
              "name": "user",
              "type": "address"
            },
            {
              "internalType": "uint256",
              "name": "percent",
              "type": "uint256"
            }
          ],
          "indexed": false,
          "internalType": "struct TransferLegacyStruct.Distribution[]",
          "name": "distributions",
          "type": "tuple[]"
        },
        {
          "indexed": false,
          "internalType": "uint256",
          "name": "timestamp",
          "type": "uint256"
        }
      ],
      "name": "TransferEOALegacyDistributionUpdated",
      "type": "event"
    },
    {
      "anonymous": false,
      "inputs": [
        {
          "indexed": false,
          "internalType": "uint256",
          "name": "legacyId",
          "type": "uint256"
        },
        {
          "indexed": false,
          "internalType": "uint8",
          "name": "layer",
          "type": "uint8"
        },
        {
          "components": [
            {
              "internalType": "address",
              "name": "user",
              "type": "address"
            },
            {
              "internalType": "uint256",
              "name": "percent",
              "type": "uint256"
            }
          ],
          "indexed": false,
          "internalType": "struct TransferLegacyStruct.Distribution",
          "name": "distribution",
          "type": "tuple"
        },
        {
          "indexed": false,
          "internalType": "string",
          "name": "nickName",
          "type": "string"
        }
      ],
      "name": "TransferEOALegacyLayer23Created",
      "type": "event"
    },
    {
      "anonymous": false,
      "inputs": [
        {
          "indexed": false,
          "internalType": "uint256",
          "name": "legacyId",
          "type": "uint256"
        },
        {
          "indexed": false,
          "internalType": "uint8",
          "name": "layer",
          "type": "uint8"
        },
        {
          "indexed": false,
          "internalType": "string",
          "name": "nickNames",
          "type": "string"
        },
        {
          "components": [
            {
              "internalType": "address",
              "name": "user",
              "type": "address"
            },
            {
              "internalType": "uint256",
              "name": "percent",
              "type": "uint256"
            }
          ],
          "indexed": false,
          "internalType": "struct TransferLegacyStruct.Distribution",
          "name": "distribution",
          "type": "tuple"
        },
        {
          "indexed": false,
          "internalType": "uint256",
          "name": "timestamp",
          "type": "uint256"
        }
      ],
      "name": "TransferEOALegacyLayer23DistributionUpdated",
      "type": "event"
    },
    {
      "anonymous": false,
      "inputs": [
        {
          "indexed": false,
          "internalType": "uint256",
          "name": "legacyId",
          "type": "uint256"
        },
        {
          "indexed": false,
          "internalType": "string",
          "name": "name",
          "type": "string"
        },
        {
          "indexed": false,
          "internalType": "string",
          "name": "note",
          "type": "string"
        },
        {
          "indexed": false,
          "internalType": "uint256",
          "name": "timestamp",
          "type": "uint256"
        }
      ],
      "name": "TransferEOALegacyNameNoteUpdated",
      "type": "event"
    },
    {
      "anonymous": false,
      "inputs": [
        {
          "indexed": false,
          "internalType": "uint256",
          "name": "legacyId",
          "type": "uint256"
        },
        {
          "indexed": false,
          "internalType": "uint128",
          "name": "lackOfOutgoingTxRange",
          "type": "uint128"
        },
        {
          "indexed": false,
          "internalType": "uint256",
          "name": "timestamp",
          "type": "uint256"
        }
      ],
      "name": "TransferEOALegacyTriggerUpdated",
      "type": "event"
    },
    {
      "inputs": [],
      "name": "BENEFICIARIES_LIMIT",
      "outputs": [
        {
          "internalType": "uint256",
          "name": "",
          "type": "uint256"
        }
      ],
      "stateMutability": "view",
      "type": "function"
    },
    {
      "inputs": [],
      "name": "_legacyId",
      "outputs": [
        {
          "internalType": "uint256",
          "name": "",
          "type": "uint256"
        }
      ],
      "stateMutability": "view",
      "type": "function"
    },
    {
      "inputs": [
        {
          "internalType": "uint256",
          "name": "legacyId_",
          "type": "uint256"
        },
        {
          "internalType": "address[]",
          "name": "assets_",
          "type": "address[]"
        },
        {
          "internalType": "bool",
          "name": "isETH_",
          "type": "bool"
        }
      ],
      "name": "activeLegacy",
      "outputs": [],
      "stateMutability": "nonpayable",
      "type": "function"
    },
    {
      "inputs": [
        {
          "internalType": "uint256",
          "name": "legacyId_",
          "type": "uint256"
        }
      ],
      "name": "avtiveAlive",
      "outputs": [],
      "stateMutability": "nonpayable",
      "type": "function"
    },
    {
      "inputs": [
        {
          "internalType": "uint256",
          "name": "legacyId_",
          "type": "uint256"
        }
      ],
      "name": "checkActiveLegacy",
      "outputs": [
        {
          "internalType": "bool",
          "name": "",
          "type": "bool"
        }
      ],
      "stateMutability": "view",
      "type": "function"
    },
    {
      "inputs": [
        {
          "components": [
            {
              "internalType": "string",
              "name": "name",
              "type": "string"
            },
            {
              "internalType": "string",
              "name": "note",
              "type": "string"
            },
            {
              "internalType": "string[]",
              "name": "nickNames",
              "type": "string[]"
            },
            {
              "components": [
                {
                  "internalType": "address",
                  "name": "user",
                  "type": "address"
                },
                {
                  "internalType": "uint256",
                  "name": "percent",
                  "type": "uint256"
                }
              ],
              "internalType": "struct TransferLegacyStruct.Distribution[]",
              "name": "distributions",
              "type": "tuple[]"
            }
          ],
          "internalType": "struct TransferEOALegacyRouter.LegacyMainConfig",
          "name": "mainConfig_",
          "type": "tuple"
        },
        {
          "components": [
            {
              "internalType": "uint256",
              "name": "lackOfOutgoingTxRange",
              "type": "uint256"
            },
            {
              "internalType": "uint256",
              "name": "delayLayer2",
              "type": "uint256"
            },
            {
              "internalType": "uint256",
              "name": "delayLayer3",
              "type": "uint256"
            }
          ],
          "internalType": "struct TransferLegacyStruct.LegacyExtraConfig",
          "name": "extraConfig_",
          "type": "tuple"
        },
        {
          "components": [
            {
              "internalType": "address",
              "name": "user",
              "type": "address"
            },
            {
              "internalType": "uint256",
              "name": "percent",
              "type": "uint256"
            }
          ],
          "internalType": "struct TransferLegacyStruct.Distribution",
          "name": "layer2Distribution_",
          "type": "tuple"
        },
        {
          "components": [
            {
              "internalType": "address",
              "name": "user",
              "type": "address"
            },
            {
              "internalType": "uint256",
              "name": "percent",
              "type": "uint256"
            }
          ],
          "internalType": "struct TransferLegacyStruct.Distribution",
          "name": "layer3Distribution_",
          "type": "tuple"
        },
        {
          "internalType": "string",
          "name": "nickName2",
          "type": "string"
        },
        {
          "internalType": "string",
          "name": "nickName3",
          "type": "string"
        },
        {
          "internalType": "uint256",
          "name": "signatureTimestamp",
          "type": "uint256"
        },
        {
          "internalType": "bytes",
          "name": "agreementSignature",
          "type": "bytes"
        }
      ],
      "name": "createLegacy",
      "outputs": [
        {
          "internalType": "address",
          "name": "",
          "type": "address"
        }
      ],
      "stateMutability": "nonpayable",
      "type": "function"
    },
    {
      "inputs": [
        {
          "internalType": "uint256",
          "name": "legacyId_",
          "type": "uint256"
        }
      ],
      "name": "deleteLegacy",
      "outputs": [],
      "stateMutability": "nonpayable",
      "type": "function"
    },
    {
      "inputs": [
        {
          "internalType": "address",
          "name": "sender_",
          "type": "address"
        }
      ],
      "name": "getNextLegacyAddress",
      "outputs": [
        {
          "internalType": "address",
          "name": "",
          "type": "address"
        }
      ],
      "stateMutability": "view",
      "type": "function"
    },
    {
      "inputs": [
        {
          "internalType": "address",
          "name": "_deployerContract",
          "type": "address"
        },
        {
          "internalType": "address",
          "name": "_premiumSetting",
          "type": "address"
        },
        {
          "internalType": "address",
          "name": "_verifier",
          "type": "address"
        },
        {
          "internalType": "address",
          "name": "_paymentContract",
          "type": "address"
        },
        {
          "internalType": "address",
          "name": "router_",
          "type": "address"
        },
        {
          "internalType": "address",
          "name": "weth_",
          "type": "address"
        }
      ],
      "name": "initialize",
      "outputs": [],
      "stateMutability": "nonpayable",
      "type": "function"
    },
    {
      "inputs": [
        {
          "internalType": "address",
          "name": "",
          "type": "address"
        }
      ],
      "name": "isCreateLegacy",
      "outputs": [
        {
          "internalType": "bool",
          "name": "",
          "type": "bool"
        }
      ],
      "stateMutability": "view",
      "type": "function"
    },
    {
      "inputs": [
        {
          "internalType": "uint256",
          "name": "",
          "type": "uint256"
        }
      ],
      "name": "legacyAddresses",
      "outputs": [
        {
          "internalType": "address",
          "name": "",
          "type": "address"
        }
      ],
      "stateMutability": "view",
      "type": "function"
    },
    {
      "inputs": [],
      "name": "legacyDeployerContract",
      "outputs": [
        {
          "internalType": "address",
          "name": "",
          "type": "address"
        }
      ],
      "stateMutability": "view",
      "type": "function"
    },
    {
      "inputs": [],
      "name": "paymentContract",
      "outputs": [
        {
          "internalType": "address",
          "name": "",
          "type": "address"
        }
      ],
      "stateMutability": "view",
      "type": "function"
    },
    {
      "inputs": [],
      "name": "premiumSetting",
      "outputs": [
        {
          "internalType": "address",
          "name": "",
          "type": "address"
        }
      ],
      "stateMutability": "view",
      "type": "function"
    },
    {
      "inputs": [
        {
          "internalType": "uint256",
          "name": "legacyId_",
          "type": "uint256"
        },
        {
          "internalType": "uint128",
          "name": "lackOfOutgoingTxRange_",
          "type": "uint128"
        }
      ],
      "name": "setActivationTrigger",
      "outputs": [],
      "stateMutability": "nonpayable",
      "type": "function"
    },
    {
      "inputs": [
        {
          "internalType": "uint256",
          "name": "legacyId_",
          "type": "uint256"
        },
        {
          "internalType": "string",
          "name": "nicknameLayer2_",
          "type": "string"
        },
        {
          "components": [
            {
              "internalType": "address",
              "name": "user",
              "type": "address"
            },
            {
              "internalType": "uint256",
              "name": "percent",
              "type": "uint256"
            }
          ],
          "internalType": "struct TransferLegacyStruct.Distribution",
          "name": "layer2Distribution_",
          "type": "tuple"
        },
        {
          "internalType": "string",
          "name": "nicknameLayer3_",
          "type": "string"
        },
        {
          "components": [
            {
              "internalType": "address",
              "name": "user",
              "type": "address"
            },
            {
              "internalType": "uint256",
              "name": "percent",
              "type": "uint256"
            }
          ],
          "internalType": "struct TransferLegacyStruct.Distribution",
          "name": "layer3Distribution_",
          "type": "tuple"
        }
      ],
      "name": "setBothLayer23Distributions",
      "outputs": [],
      "stateMutability": "nonpayable",
      "type": "function"
    },
    {
      "inputs": [
        {
          "internalType": "uint256",
          "name": "legacyId_",
          "type": "uint256"
        },
        {
          "internalType": "uint8",
          "name": "layer_",
          "type": "uint8"
        },
        {
          "internalType": "string",
          "name": "nickname_",
          "type": "string"
        },
        {
          "components": [
            {
              "internalType": "address",
              "name": "user",
              "type": "address"
            },
            {
              "internalType": "uint256",
              "name": "percent",
              "type": "uint256"
            }
          ],
          "internalType": "struct TransferLegacyStruct.Distribution",
          "name": "distribution_",
          "type": "tuple"
        }
      ],
      "name": "setLayer23Distributions",
      "outputs": [],
      "stateMutability": "nonpayable",
      "type": "function"
    },
    {
      "inputs": [
        {
          "internalType": "uint256",
          "name": "legacyId_",
          "type": "uint256"
        },
        {
          "components": [
            {
              "internalType": "string",
              "name": "name",
              "type": "string"
            },
            {
              "internalType": "string",
              "name": "note",
              "type": "string"
            },
            {
              "internalType": "string[]",
              "name": "nickNames",
              "type": "string[]"
            },
            {
              "components": [
                {
                  "internalType": "address",
                  "name": "user",
                  "type": "address"
                },
                {
                  "internalType": "uint256",
                  "name": "percent",
                  "type": "uint256"
                }
              ],
              "internalType": "struct TransferLegacyStruct.Distribution[]",
              "name": "distributions",
              "type": "tuple[]"
            }
          ],
          "internalType": "struct TransferEOALegacyRouter.LegacyMainConfig",
          "name": "mainConfig_",
          "type": "tuple"
        },
        {
          "components": [
            {
              "internalType": "uint256",
              "name": "lackOfOutgoingTxRange",
              "type": "uint256"
            },
            {
              "internalType": "uint256",
              "name": "delayLayer2",
              "type": "uint256"
            },
            {
              "internalType": "uint256",
              "name": "delayLayer3",
              "type": "uint256"
            }
          ],
          "internalType": "struct TransferLegacyStruct.LegacyExtraConfig",
          "name": "extraConfig_",
          "type": "tuple"
        },
        {
          "components": [
            {
              "internalType": "address",
              "name": "user",
              "type": "address"
            },
            {
              "internalType": "uint256",
              "name": "percent",
              "type": "uint256"
            }
          ],
          "internalType": "struct TransferLegacyStruct.Distribution",
          "name": "layer2Distribution_",
          "type": "tuple"
        },
        {
          "components": [
            {
              "internalType": "address",
              "name": "user",
              "type": "address"
            },
            {
              "internalType": "uint256",
              "name": "percent",
              "type": "uint256"
            }
          ],
          "internalType": "struct TransferLegacyStruct.Distribution",
          "name": "layer3Distribution_",
          "type": "tuple"
        },
        {
          "internalType": "string",
          "name": "nickName2",
          "type": "string"
        },
        {
          "internalType": "string",
          "name": "nickName3",
          "type": "string"
        }
      ],
      "name": "setLegacyConfig",
      "outputs": [],
      "stateMutability": "nonpayable",
      "type": "function"
    },
    {
      "inputs": [
        {
          "internalType": "uint256",
          "name": "legacyId_",
          "type": "uint256"
        },
        {
          "internalType": "string[]",
          "name": "nickNames_",
          "type": "string[]"
        },
        {
          "components": [
            {
              "internalType": "address",
              "name": "user",
              "type": "address"
            },
            {
              "internalType": "uint256",
              "name": "percent",
              "type": "uint256"
            }
          ],
          "internalType": "struct TransferLegacyStruct.Distribution[]",
          "name": "distributions_",
          "type": "tuple[]"
        }
      ],
      "name": "setLegacyDistributions",
      "outputs": [],
      "stateMutability": "nonpayable",
      "type": "function"
    },
    {
      "inputs": [
        {
          "internalType": "uint256",
          "name": "legacyId_",
          "type": "uint256"
        },
        {
          "internalType": "string",
          "name": "name_",
          "type": "string"
        },
        {
          "internalType": "string",
          "name": "note_",
          "type": "string"
        }
      ],
      "name": "setNameNote",
      "outputs": [],
      "stateMutability": "nonpayable",
      "type": "function"
    },
    {
      "inputs": [],
      "name": "uniswapRouter",
      "outputs": [
        {
          "internalType": "address",
          "name": "",
          "type": "address"
        }
      ],
      "stateMutability": "view",
      "type": "function"
    },
    {
      "inputs": [],
      "name": "verifier",
      "outputs": [
        {
          "internalType": "contract IEIP712LegacyVerifier",
          "name": "",
          "type": "address"
        }
      ],
      "stateMutability": "view",
      "type": "function"
    },
    {
      "inputs": [],
      "name": "weth",
      "outputs": [
        {
          "internalType": "address",
          "name": "",
          "type": "address"
        }
      ],
      "stateMutability": "view",
      "type": "function"
    },
    {
      "inputs": [
        {
          "internalType": "uint256",
          "name": "legacyId_",
          "type": "uint256"
        },
        {
          "internalType": "uint256",
          "name": "amount_",
          "type": "uint256"
        }
      ],
      "name": "withdraw",
      "outputs": [],
      "stateMutability": "nonpayable",
      "type": "function"
    }
  ],
  "transactionHash": "0xf38d0d1a9852d1f59a7bca8d54e9378e95a719670874e53188744891f845e609",
  "args": [],
  "numDeployments": 1,
  "solcInputHash": "f2556dfeb12466a7e876316d5b86d684",
  "bytecode": "0x608080604052346100b9577ff0c57e16840df040f15088dc2f81fe391c3923bec73e23a9662efc9c229c6a009081549060ff8260401c166100aa57506001600160401b036002600160401b031982821601610065575b604051615a659081620000bf8239f35b6001600160401b031990911681179091556040519081527fc7f505b2f371ae2175ee4913f4499e1f2633a7b5936321eed1cdaeb6115181d290602090a1388080610055565b63f92ee8a960e01b8152600490fd5b600080fdfe608080604052600436101561001357600080fd5b600090813560e01c90816308a8f892146117185750806311fab217146116ef5780631593a0561461167b57806321f6a8ca146115115780632b7ac3f3146114e85780632fadbcc414611417578063318b4fe1146112ed5780633fc8cef3146112c4578063441a3e701461124d5780634cd3a51f14611232578063643401ff14610c8157806366d0078314610c64578063735de9f714610c3b5780637d08398a14610b185780637f408f2114610ad95780639c91dd5614610ab0578063a6d9dad714610889578063cc2a9a5b14610681578063dd265b991461043a578063e6e7348914610386578063f2d5dcf5146102b5578063f47ca2e914610282578063f895338d146102595763fa6e515e1461012957600080fd5b34610256576060366003190112610256576001600160401b036004356024358281116102525761015d903690600401611f69565b91909260443590811161024e57610178903690600401611f69565b93856001600160a01b0361018b8561211b565b16803b1561024a5781604051809263064e5c9360e51b82528183816101b5338d8b60048501612378565b03925af1801561023f57610223575b5050907f19b7f216c02d27d0fb71085c3d35718bd3c3b9a3ecd6db83f23353d5f07bb6be946102096102179360405196879687526080602088015260808701916121b8565b9184830360408601526121b8565b4260608301520390a180f35b61022f90939293612032565b61023b579085386101c4565b8580fd5b6040513d84823e3d90fd5b5080fd5b8480fd5b8380fd5b80fd5b50346102565780600319360112610256576001546040516001600160a01b039091168152602090f35b503461025657602036600319011261025657602090600435815260028252604060018060a01b0391205416604051908152f35b50346102565760209081600319360112610256576102d1611fc6565b6103238361355a92604051936102e983820186612076565b8085526124d68386013960015460405163ba3143d560e01b81526001600160a01b03959094859392871692849283929190600484016120ab565b03915afa92831561037a578093610340575b505060405191168152f35b909192508382813d8311610373575b6103598183612076565b81010312610256575061036b90612097565b903880610335565b503d61034f565b604051903d90823e3d90fd5b503461025657602036600319011261025657600435816103a58261211b565b338252600360205260408220805460ff191690556001600160a01b0316803b1561024a57818091602460405180948193631e12080160e21b83523360048401525af1801561023f57610426575b507f7e8b009d765fae8a3e815514996369f653a6df6d6130d0815ee940d3c1ece7a36040838151908152426020820152a180f35b61042f90612032565b61024a5781386103f2565b5034610256576060366003190112610256576004356024356001600160401b0381116106345761046e903690600401611f96565b919060443590811591821580910361023b576104898461211b565b9280610679575b610667576001600160a01b0392831694853b15610663579190869360405193635c611c9b60e01b85528060648601606060048801525260848501939186905b828210610638575050505082849281926024830152336044830152038183885af1801561023f57610620575b505060405163021fe24d60e41b8152336004820152602091908281602481875afa9081156105f65760049484918793610601575b5060405163fd780e9d60e01b815295869182905afa9384156105f65785946105c2575b5060ff809116931683116105b057821561059e577fcd3498ab5ce0596894143945f9833cfd4ce307a6e6ac364f962a3b089edbbc8b92606092604051928352820152426040820152a180f35b6040516369562e6560e01b8152600490fd5b6040516371f1e92160e11b8152600490fd5b60ff9194506105e78291853d87116105ef575b6105df8183612076565b8101906124bc565b949150610552565b503d6105d5565b6040513d87823e3d90fd5b610619919350823d84116105ef576105df8183612076565b913861052f565b61062990612032565b6106345782386104fb565b8280fd5b919394839697508261064c6001939561201e565b1681526020809101960192018996959493916104cf565b8680fd5b604051634847f0e560e01b8152600490fd5b508415610490565b50346102565760c03660031901126102565761069b611fc6565b6001600160a01b03906024358281169081900361088457604435908382168092036108845760643584811680910361088457608435908582168092036108845760a43593868516809503610884577ff0c57e16840df040f15088dc2f81fe391c3923bec73e23a9662efc9c229c6a009687549660ff8860401c1615976001600160401b0381168015908161087c575b6001149081610872575b159081610869575b506108105767ffffffffffffffff1981166001178a558861084a575b50169384158015610842575b801561083a575b8015610832575b801561082a575b8015610822575b610810576bffffffffffffffffffffffff60a01b9485600154161760015584600454161760045583600554161760055582600654161760065581600754161760075560085416176008556107d2575080f35b68ff00000000000000001981541690557fc7f505b2f371ae2175ee4913f4499e1f2633a7b5936321eed1cdaeb6115181d2602060405160018152a180f35b60405163f92ee8a960e01b8152600490fd5b508515610780565b508315610779565b508215610772565b50811561076b565b508015610764565b68ffffffffffffffffff19166801000000000000000117895538610758565b9050153861073c565b303b159150610734565b8a915061072a565b600080fd5b50346102565760e0366003190112610256576004356001600160401b03602435818111610252576108be903690600401611f69565b929091604036604319011261024e5760843590811161024e576108e5903690600401611f69565b929060403660a319011261023b576001600160a01b0391826109068561211b565b16803b1561088457604051630613702960e01b8082523360048301526002602483015260a060448301529260008261094260a482018c856121b8565b948861094c611ff2565b1660648301528183816064359889608483015203925af1918215610a955761099392610aa1575b5060405198878a52600260208b015260c060408b015260c08a01916121b8565b908461099d611ff2565b16606089015260808801524260a0880152867f9837e1720561f5ed2aaba5820ab63f7f07740e6a34509667e4af8dcf7905b9659788920390a1826109e08561211b565b1691823b15610884576040519182523360048301526003602483015260a06044830152600082610a1460a4820189856121b8565b9486610a1e612008565b16606483015281838160c4359889608483015203925af1918215610a9557610a6692610a86575b5060405195869586526003602087015260c0604087015260c08601916121b8565b91610a6f612008565b16606084015260808301524260a08301520390a180f35b610a8f90612032565b38610a45565b6040513d6000823e3d90fd5b610aaa90612032565b38610973565b50346102565780600319360112610256576006546040516001600160a01b039091168152602090f35b50346102565760203660031901126102565760209060ff906040906001600160a01b03610b04611fc6565b168152600384522054166040519015158152f35b50346102565760203660031901126102565760043581610b378261211b565b6004546001600160a01b039081169190823b15610252578380929160248293604051958693849263909d243960e01b845216978860048401525af19182610c27575b5050610c22577fb7c24ac596129f9d0aa780213146b79754364e478b0b6df8939d618d5dfb236a6020604051838152a15b803b1561024a5781809160246040518094819363941e6cfd60e01b83523360048401525af1801561023f57610c0e575b507fcf245f1ce96e169fc090d32f8aa51f86195ae61c3bbf0f22170802db12b95ff26040838151908152426020820152a180f35b610c1790612032565b61024a578138610bda565b610baa565b610c3090612032565b610634578238610b79565b50346102565780600319360112610256576007546040516001600160a01b039091168152602090f35b503461025657806003193601126102565760209054604051908152f35b503461025657610160366003190112610256576001600160401b0360243581811161063457608060031982360301126106345760603660431901126106345760403660a31901126106345760403660e3190112610634576101243582811161025257610cf1903690600401611f69565b906101443593841161024e57610d0d6024943690600401611f69565b9091610d1a60043561211b565b602060018060a01b036004541660405198898092631d0bf83560e21b82523360048301525afa9687156112275788976111f6575b50610d5f606487018760040161214e565b9050610d716044880188600401612183565b919050148015906111dd575b6111cb57604435156111b9576001600160a01b031695610dd86020610da86064890160048a0161214e565b90610db960448b018b600401612183565b60405163ad87ff3160e01b815295869485949193913360048701612488565b03818c8c5af180156111ae57899061117a575b610df59150612464565b1561116857863b15611150576040516305d8902360e41b81523360048201526044803560248301528991908290829081838d5af1801561023f57611154575b5050863b156111505787604051637072f5af60e01b8152336004820152606435602482015260843560448201526101206064820152818180610e91610e7e61012483018c8a6121b8565b828103600319016084840152898b6121b8565b610e9d60a4830161221b565b610ea960e4830161223c565b0381838d5af1801561023f5761113c575b5050611099575b5050505082610ed68260040183600401612346565b843b156106345760405163064e5c9360e51b815291839183918291610f019133919060048501612378565b038183885af1801561023f57611085575b505060405163d88b9df360e01b815291602083600481845afa928315611045578493611050575b5060206004916040519283809263a250c4cb60e01b82525afa908115611045578491610ff1575b50907f88e0706aef0a636a0d06befde1188d3fb282b0c8ef82706e74b0384d8f80274e92610fc69260405191610f958361205b565b604435835260208301526040820152610fe5604051938493600435855260c0602086015260c08501906004016123a1565b9160408401906040809180518452602081015160208501520151910152565b4260a08301520390a180f35b9190506020823d60201161103d575b8161100d60209383612076565b810103126108845790517f88e0706aef0a636a0d06befde1188d3fb282b0c8ef82706e74b0384d8f80274e610f60565b3d9150611000565b6040513d86823e3d90fd5b9092506020813d60201161107d575b8161106c60209383612076565b810103126108845751916020610f39565b3d915061105f565b61108e90612032565b610634578238610f12565b6110be906040519460043586526002602087015260c0604087015260c08601916121b8565b6110ca6060850161221b565b4260a0850152837f9837e1720561f5ed2aaba5820ab63f7f07740e6a34509667e4af8dcf7905b9659485920390a161111e60405192839260043584526003602085015260c0604085015260c08401916121b8565b61112a6060830161223c565b4260a08301520390a138808080610ec1565b61114590612032565b611150578738610eba565b8780fd5b61115d90612032565b611150578738610e34565b604051638b450acb60e01b8152600490fd5b506020813d6020116111a6575b8161119460209383612076565b8101031261088457610df59051610deb565b3d9150611187565b6040513d8b823e3d90fd5b604051637710d91d60e11b8152600490fd5b60405163657873a760e01b8152600490fd5b506111ee606487018760040161214e565b905015610d7d565b61121991975060203d602011611220575b6112118183612076565b810190612103565b9538610d4e565b503d611207565b6040513d8a823e3d90fd5b50346102565780600319360112610256576020604051818152f35b503461025657604036600319011261025657806001600160a01b0361127360043561211b565b16803b156112c15760405163f3fef3a360e01b815233600482015260248035908201529082908290604490829084905af1801561023f576112b15750f35b6112ba90612032565b6102565780f35b50fd5b50346102565780600319360112610256576008546040516001600160a01b039091168152602090f35b50346102565760a03660031901126102565760043560243560ff8116809103610634576044356001600160401b0381116102525761132f903690600401611f69565b909290604036606319011261024e576001600160a01b0390816113518461211b565b1690813b1561088457604051630613702960e01b81523360048201526024810186905260a060448201529560008761138d60a4820185856121b8565b9486611397611fdc565b1660648301528183816084359889608483015203925af1918215610a95577f9837e1720561f5ed2aaba5820ab63f7f07740e6a34509667e4af8dcf7905b965976113ff93611408575b506040519687968752602087015260c0604087015260c08601916121b8565b91610a6f611fdc565b61141190612032565b386113e0565b5034610256576040366003190112610256576004356024356fffffffffffffffffffffffffffffffff8116809103610634576114528261211b565b81156111b95783906001600160a01b0316803b1561024a578180916044604051809481936305d8902360e41b83523360048401528860248401525af1801561023f576114d4575b507f57aa880322cc087e6c601814aca104d368d46bd0b56666ee3657e5f3e6984a7e606084846040519182526020820152426040820152a180f35b6114dd90612032565b610634578238611499565b50346102565780600319360112610256576005546040516001600160a01b039091168152602090f35b5034610256576060366003190112610256576001600160401b0360043560243582811161025257611546903690600401611f96565b919060443584811161023b573660238201121561023b57806004013594851161023b576024810190602436918760061b01011161023b576115868361211b565b848614801590611673575b6111cb5760405163ad87ff3160e01b8152906020908290818a816115bc8b8a8e8b3360048701612488565b03926001600160a01b03165af18015611668578790611635575b6115e09150612464565b15611168577f6618028c0fd89350d8fc534c8e9a73b11a6b0ccc18f2a55ba430bc990ce91e64946116276102179360405196879687526080602088015260808701916122e2565b91848303604086015261225e565b506020813d8211611660575b8161164e60209383612076565b81010312610884576115e090516115d6565b3d9150611641565b6040513d89823e3d90fd5b508515611591565b503461025657602036600319011261025657600460206001600160a01b036116a3833561211b565b1660405192838092635d70ba8b60e01b82525afa90811561023f57602092916116d2575b506040519015158152f35b6116e99150823d8111611220576112118183612076565b386116c7565b50346102565780600319360112610256576004546040516001600160a01b039091168152602090f35b823461025657610180366003190112610256576001600160401b0360043581811161063457608060031982360301126106345760603660231901126106345760403660831901126106345760403660c3190112610634576101043582811161025257611788903690600401611f69565b6101249591953584811161023b576117a4903690600401611f69565b93909461016435908111610663576117c0903690600401611f69565b936117d1606484018460040161214e565b90506117e36044850185600401612183565b91905014801590611f50575b611f415750602435156111b957338752600360205260ff604088205416611f295760405161355a6118236020820183612076565b8082526124d660208301398754600181018111611f15576118738995949392600160409301875560018060a01b03600154169083519b8c809481936303efe8cf60e61b83523390600484016120ab565b03925af1978815611045578498611ecc575b508354845260026020908152604080862080546001600160a01b0319166001600160a01b038c81169190911790915533875260039092528520805460ff1916600117905584546005549096911690813b1561023b576040516307557ce760e31b81523360048201526001600160a01b038b1660248201526101443560448201526080606482015292869284929091839185918391611928916084840191906121b8565b03925af1801561104557611eb9575b50611948606482016004830161214e565b600480546006546007546008546001600160a01b03928316949383169391831692169061197b9060448901908901612183565b929094604051978897631c34cdbf60e31b89528d60048a01523360248a01526044890161022090526102248901906119b29261225e565b946024356064890152604435608489015260643560a489015260c488016119d8906121d9565b6119e561010489016121fa565b6101448801526101648701526101848601526101a4850152838203600319016101c4850152611a13926122e2565b818103600319016101e4830152611a2b90858c6121b8565b81810360031901610204830152611a4390888a6121b8565b6001600160a01b038a169183910381875a94602095f18015611045578490611e85575b611a709150612464565b156111685760405163d88b9df360e01b81526020816004816001600160a01b038c165afa908115611045578491611e53575b5060405163a250c4cb60e01b81526020816004816001600160a01b038d165afa9081156105f6578591611e21575b5060405191611ade8361205b565b602435835260208301526040820152611afa6004830180612346565b6001600160a01b038a163b1561023b5760405163064e5c9360e51b815291869183918291611b2e9133919060048501612378565b0381836001600160a01b038e165af180156105f657908591611e0d575b50507f756425475689e5cda6db967e12dd655953b4e342d62e4af0fe9ca21feb57202491611ba791611bc560405193849389855260018060a01b038d1660208601523360408601526101008060608701528501906004016123a1565b82516080850152602083015160a085015260409092015160c0840152565b4260e08301520390a16004546001600160a01b0316803b1561063457604051633edc972160e11b81523360048201526001600160a01b03881660248201529083908290604490829084905af18015611e0257908391611dee575b50506084356001600160a01b038116979088900361088457604051639247a1b360e01b808252600260048301526024820199909952602081604481876001600160a01b038d165af1908115611045578491611dbc575b5060c4356001600160a01b0381169081900361088457604051998a52600360048b015260248a0152602089604481876001600160a01b038d165af193841561037a5793611d87575b60209850611d3d575b5050611ce2575b50506040516001600160a01b03909216825250f35b611d327f3cef7ad39d6c356627632fae5b3091b2d45c7417a969c6a6c4e587e0abbe20e3936040519384938452600388850152611d21604085016121fa565b60a0608085015260a08401916121b8565b0390a1828080611ccd565b7f3cef7ad39d6c356627632fae5b3091b2d45c7417a969c6a6c4e587e0abbe20e391611d7d60405192839287845260028c850152611d21604085016121d9565b0390a18680611cc6565b92506020883d602011611db4575b81611da260209383612076565b81010312610884576020975192611cbd565b3d9150611d95565b90506020813d602011611de6575b81611dd760209383612076565b81010312610884575189611c75565b3d9150611dca565b611df790612032565b61024a578188611c1f565b6040513d85823e3d90fd5b611e1690612032565b61025257838a611b4b565b90506020813d602011611e4b575b81611e3c60209383612076565b8101031261088457518a611ad0565b3d9150611e2f565b90506020813d602011611e7d575b81611e6e60209383612076565b81010312610884575189611aa2565b3d9150611e61565b506020813d602011611eb1575b81611e9f60209383612076565b8101031261088457611a709051611a66565b3d9150611e92565b611ec590939193612032565b9188611937565b9097506040813d604011611f0d575b81611ee860409383612076565b8101031261025257611f056020611efe83612097565b9201612097565b509689611885565b3d9150611edb565b634e487b7160e01b89526011600452602489fd5b60405163834ef7eb60e01b8152336004820152602490fd5b63657873a760e01b8152600490fd5b50611f61606484018460040161214e565b9050156117ef565b9181601f84011215610884578235916001600160401b038311610884576020838186019501011161088457565b9181601f84011215610884578235916001600160401b038311610884576020808501948460051b01011161088457565b600435906001600160a01b038216820361088457565b606435906001600160a01b038216820361088457565b604435906001600160a01b038216820361088457565b60a435906001600160a01b038216820361088457565b35906001600160a01b038216820361088457565b6001600160401b03811161204557604052565b634e487b7160e01b600052604160045260246000fd5b606081019081106001600160401b0382111761204557604052565b90601f801991011681019081106001600160401b0382111761204557604052565b51906001600160a01b038216820361088457565b909291926040825280519081604084015260005b8281106120ed57505060608160008260209486010152601f80199101168301019360018060a01b0316910152565b80602080928401015160608287010152016120bf565b90816020910312610884575180151581036108845790565b6000908152600260205260409020546001600160a01b031690811561213c57565b604051630e34dec560e01b8152600490fd5b903590601e198136030182121561088457018035906001600160401b03821161088457602001918160061b3603831361088457565b903590601e198136030182121561088457018035906001600160401b03821161088457602001918160051b3603831361088457565b908060209392818452848401376000828201840152601f01601f1916010190565b6084356001600160a01b03811690819003610884578152602060a435910152565b60c4356001600160a01b03811690819003610884578152602060e435910152565b60a4356001600160a01b03811690819003610884578152602060c435910152565b60e4356001600160a01b03811690819003610884578152602061010435910152565b9190808252602080920192916000905b82821061227c575050505090565b9293919290916001906001600160a01b036122968761201e565b1681528583013583820152604090810195019392019061226e565b9035601e19823603018112156108845701602081359101916001600160401b03821161088457813603831361088457565b90828093828252602080809301958460051b010194846000925b85841061230d575050505050505090565b909192939495968580612335600193601f1986820301885261232f8c886122b1565b906121b8565b9901940194019295949391906122fc565b903590601e198136030182121561088457018035906001600160401b0382116108845760200191813603831361088457565b91602091612391919594956040855260408501916121b8565b6001600160a01b03909416910152565b6123da6123bf6123b183806122b1565b6080865260808601916121b8565b6123cc60208401846122b1565b9085830360208701526121b8565b36829003601e19019160408101358381121561088457810191602083359301906001600160401b0393848111610884578060051b36038313610884576124279287830360408901526122e2565b92606082013590811215610884570190602082359201908211610884578160061b360381136108845783606061246195850391015261225e565b90565b801590811561247d575b5061247857600190565b600090565b60209150113861246e565b939161246195936124ae9260018060a01b0316865260606020870152606086019161225e565b9260408185039101526122e2565b90816020910312610884575160ff81168103610884579056fe6080806040523461002257620f42406007556001600d5561353290816100288239f35b600080fdfe610160806040526004361015610055575b50361561001c57600080fd5b610024612804565b15610043576001546001600160a01b0316331461003d57005b42600c55005b6040516315538b7b60e11b8152600490fd5b60006101005260003560e01c90816302d05d3f1461254357508063061370291461231057806311fab217146122e45780631c368833146122ba5780631cab59a41461228257806321fe24d01461225f57806326f3c7941461223f5780632b569b5b146121ec57806337899770146121cb5780633fc8cef31461219f5780635415728e146120cc5780635c611c9b146111c35780635d70ba8b146111a55780635d8902301461113c5780637072f5af14611083578063735de9f7146110575780637848200414610fd35780637fb7bdfe14610f8f5780638404582e14610f6e5780638c7fb79314610f4d5780639247a1b314610f13578063941e6cfd14610eb05780639c91dd5614610e845780639d53827f14610e65578063a250c4cb14610e44578063ad87ff3114610d20578063b5ddc99f14610d01578063b8f7a66514610cd9578063bbf1638114610c9d578063c4de13a614610c4e578063c9cb926014610a99578063d1a1154a146109be578063d88b9df31461099d578063e1a66df81461035a578063f3fef3a314610295578063f887ea4014610269578063fbbaeab61461023d5763fd780e9d1461020a5738610010565b34610236576101005180600319360112610233576020610228612a77565b60ff60405191168152f35b80fd5b6101005180fd5b34610236576101005180600319360112610233576001546040516001600160a01b039091168152602090f35b34610236576101005180600319360112610233576004546040516001600160a01b039091168152602090f35b34610236576040366003190112610236576102ae612567565b60045460243591906001600160a01b039081163303610348576102cf612804565b156100435780600154169116908103610336578147106103245742600c55610100519182918291829182821561031b575bf11561030d576101005180f35b6040513d61010051823e3d90fd5b506108fc610300565b604051632c1d501360e11b8152600490fd5b604051635fc483c560e01b8152600490fd5b604051639e41bdd760e01b8152600490fd5b34610236576102203660031901126102365761037461257d565b6001600160401b039060443582811161023657610395903690600401612675565b90929060603660631901126102365760403660c3190112610236576040366101031901126102365761014435906001600160a01b03821682036107775761016435926001600160a01b038416840361077757610184356001600160a01b0381168103610777576101a435916001600160a01b0383168303610777576101c43581811161023657610429903690600401612645565b9690956101e43583811161023657610445903690600401612593565b9290936102043511610236576104613661020435600401612593565b600154919790966001600160a01b03831661098b576001600160a01b038d161561097957600a80546001600160a01b03199081166001600160a01b0393841617909155600b80548216938316939093179092556101008051600480359091559383168e8316176001908155600280546fffffffffffffffffffffffffffffffff1916909117905560643560035583548316331784556017805480851688851617909155600980549485169690931695861790925560405163ced72f8760e01b8152905191949093602093859391928492909116175afa801561030d576101005190610945575b6127109150806008551161093357601880546001600160a01b031981166001600160a01b038d1617909155908a9061057d612aef565b8d610586612b05565b9061010051905b8c8083106108c1575050604051631d0bf83560e21b815261010080519097166001600160a01b03968716176004820152955195966020968896602496889650919091169116179150505afa90811561030d576101005191610892575b50156107f05760843560155560a43560165560e4356107cd57600091825b60c4356001600160a01b0381168103610777576001600160a01b0316600090815260106020526040902054610750576011546106759490610650906001600160a01b0316612d77565b60018060a01b031690816001600160601b0360a01b6011541617601155601255612c4c565b6101243561079757600091825b6012546007541415808061078e575b61077c5781610712575b506013546106db94906106b6906001600160a01b0316612d77565b60018060a01b031690816001600160601b0360a01b6013541617601355601455612c4c565b6106e3612b7d565b15610700576020946106f494613083565b42600c55604051908152f35b604051638ad71e4360e01b8152600490fd5b61077c57610104356001600160a01b03811690819003610777578060005260106020526040600020541590811591610762575b50610750578961069b565b6040516339ad115b60e01b8152600490fd5b6011546001600160a01b03161490508a610745565b600080fd5b604051635ce14ccb60e01b8152600490fd5b50811515610691565b60075491610104356001600160a01b03811680820361077757156107bb5792610682565b604051639a88d91960e01b8152600490fd5b6007549160c4356001600160a01b03811680820361077757156107bb5792610607565b5050505060843515801590610887575b801561087c575b8015610870575b8015610857575b801561083e575b61082c576020946106f494613083565b6040516345bbf12b60e11b8152600490fd5b506001600160a01b0361084f612b05565b16151561081c565b506001600160a01b03610868612aef565b161515610815565b5061012435151561080e565b5060e4351515610807565b5060a4351515610800565b6108b4915060203d6020116108ba575b6108ac818361272b565b810190612b65565b8a6105e9565b503d6108a2565b826108e2929394959697506108dd9160018060a01b0394612b55565b612b32565b168015610929576001600160a01b0384168114908115610916575b506107505761090b90612b46565b908d9392918f61058d565b6001600160a01b038416149050386108fd565b5061090b90612b46565b604051635ab3b41560e11b8152600490fd5b506020813d602011610971575b8161095f6020938361272b565b81010312610777576127109051610547565b3d9150610952565b604051630b2254ed60e01b8152600490fd5b60405163345facd360e01b8152600490fd5b34610236576101005180600319360112610233576020601554604051908152f35b34610236576060366003190112610236576109d7612567565b6004546001600160a01b0390811633036103485780806001541692169182036103365760026001600160801b0381541614610a87576020906017541691602460405180948193631d0bf83560e21b835260048301525afa90811561030d576101005191610a69575b501561082c57602435601555604435601655610a59612b7d565b156107005742600c556101005180f35b610a81915060203d81116108ba576108ac818361272b565b81610a3f565b604051633be3553d60e21b8152600490fd5b34610236576040366003190112610236576001600160401b0360043581811161023657610aca903690600401612593565b610ad592919261257d565b6004546001600160a01b039391908416330361034857610af3612804565b156100435760019380855416911603610336578111610c3457610b176005546126a5565b601f8111610bdf575b50610100518093601f8311600114610b64579282939183928694610b59575b50501b916000199060031b1c1916176005555b42600c5580f35b013592508580610b3f565b7f036b6384b5eca791c62761152d0c79bb0604c104a5fb6f4eb0703f3154bb3db09183601f198116825b87828210610bc657505010610bac575b505050811b01600555610b52565b0135600019600384901b60f8161c19169055838080610b9e565b8585013587559095019460209384019387935001610b8e565b610c24907f036b6384b5eca791c62761152d0c79bb0604c104a5fb6f4eb0703f3154bb3db0601f840160051c81019160208510610c2a575b601f0160051c0190612c35565b83610b20565b9091508190610c17565b634e487b7160e01b61010051526041600452602461010051fd5b34610236576101005180600319360112610233576060610c72600354600c54612825565b610c7e60155482612825565b610c8a60165482612825565b9060405192835260208301526040820152f35b3461023657602036600319011261023657610cd5610cc1610cbc612567565b61274c565b604051918291602083526020830190612620565b0390f35b34610236576101005180600319360112610233576020610cf7612804565b6040519015158152f35b3461023657610100518060031936011261023357602060405160038152f35b3461023657606036600319011261023657610d39612567565b6001600160401b039060243582811161023657610d5a903690600401612675565b909260443590811161023657610d74903690600401612645565b60045490949193906001600160a01b03908116330361034857610d95612804565b156100435760019080825416818416036103365760026001600160801b0381541614610a8757610dc3612848565b61010051835b610ddd575b60206106f48a8a8a8a8a613083565b8151811015610e3f57908382610e0085610df9849796866128f1565b5116612d77565b610e1584610e0e83866128f1565b5116613296565b5083610e2182856128f1565b51166101005152601060205261010051604081205501909192610dc9565b610dce565b34610236576101005180600319360112610233576020601654604051908152f35b3461023657610100518060031936011261023357602060405160028152f35b34610236576101005180600319360112610233576009546040516001600160a01b039091168152602090f35b3461023657602036600319011261023657610ec9612567565b6004546001600160a01b03908116330361034857610ee5612804565b156100435780600154169116036103365760026001600160801b0381541614610a875742600c556101005180f35b346102365760403660031901126102365760043560ff8116810361077757610f45602091610f3f61257d565b9061298e565b604051908152f35b34610236576101005180600319360112610233576020600854604051908152f35b34610236576101005180600319360112610233576020600354604051908152f35b346102365761010051806003193601126102335754600154600254604080519384526001600160a01b0390921660208401526001600160801b031690820152606090f35b3461023657602036600319011261023657610fec612567565b6004546001600160a01b03908116330361034857611008612804565b1561004357806001541691169081036103365760026001600160801b0381541614610a87576002600d5542600c556101005190819081908190479082821561031b57f11561030d576101005180f35b3461023657610100518060031936011261023357600a546040516001600160a01b039091168152602090f35b34610236576101203660031901126102365761109d612567565b6001600160401b03606435818111610236576110bd903690600401612593565b91608435908111610236576110d6903690600401612593565b92909160403660a31901126102365760403660e3190112610236576004546001600160a01b039081163303610348578060015416908616036103365760026001600160801b0381541614610a8757611135946044359060243590612dd6565b6101005180f35b3461023657604036600319011261023657611155612567565b6004546001600160a01b03908116330361034857611171612804565b156100435780600154169116036103365760026001600160801b0381541614610a875760243560035542600c556101005180f35b34610236576101005180600319360112610233576020610cf761306a565b34610236576060366003190112610236576004356001600160401b038111610236576111f3903690600401612645565b9060e05260243515156024350361023657604435906001600160a01b0382168203610236576004546001600160a01b031633036103485761123261306a565b806120c0575b156120ae5760025460016001600160801b03821614612097575b506001546001600160a01b031660c05261127461126e83612905565b92612a06565b918190600290602435612082575b610100519180611293835187612d64565b11612069575b508051946112bf6112a9876128b7565b966112b7604051988961272b565b8088526128b7565b610100515b601f198201811061201d5750506001840184119283611434576112e9600186016128b7565b916112f7604051938461272b565b60018601808452611307906128b7565b610100515b601f1982018110611fef57505061010051945b845186101561144e576001600160a01b0361133a87876128f1565b51166020611348888c6128f1565b5101526113676001600160a01b0361136088886128f1565b511661274c565b611371878b6128f1565b5152611434578794611385600188016128b7565b90611393604051928361272b565b60018801825287601f196113a9600183016128b7565b0192610100515b84811061141e57506114189350604061140184610100519b60016113d58188016128b7565b966113e28651988961272b565b0186528d6113f56001601f1992016128b7565b013660208801376128f1565b5101526060611410838d6128f1565b510152612b46565b9461131f565b606060208383018101919091528b9350016113b0565b634e487b7160e01b61010051526011600452602461010051fd5b508590889488602435611e8d575b610100515b84811061169b57601754889088906001600160a01b031688813b156102365760405192631112274d60e21b84526060600485015280518060648601526084850190602060848260051b88010193019161010051905b82821061164e5750505050600319848203016024850152845180825260208201916020808360051b83010197019261010051915b83831061156157851515604489015261010051889081808c0381838c5af1908161154a575b50611545577f15d12c9d1809694cd34b030e43d311655eb024585a5ad783d9a017b94e7779e76020604051308152a16101005180f35b611135565b6001600160401b038111610c34576040528161150f565b9091929397601f19828203018352885161158381516080808552840190612620565b9060018060a01b0360208201511660208401526040810151918381036040850152825180825260208201906020808260051b850101950192610100515b828110611623575050505050606001519160608183039101526020808351928381520192019061010051905b80821061160b575050506020806001929a0193019301919392906114ea565b909192602080600192865181520194019201906115ec565b9091929395602080611641600193601f198782030189528a51612620565b98019501939291016115c0565b9091929360208061168d6001936083198c8203018652606060408a51878060a01b03815116845285810151868501520151918160408201520190612620565b9601920192019092916114b6565b81811015611c59576116b38160051b60e05101612b32565b604051636eb1769f60e11b815260c05160048201523060248201526020816044816001600160a01b0386165afa90811561030d576101005191611e5b575b506040516370a0823160e01b815260c05160048201526020816024816001600160a01b0387165afa90811561030d576101005191611e29575b5081811115611e215750905b81611746575b5050600101611461565b959496919760409994939199516395d89b4160e01b8152610100518160048160018060a01b038c165afa90811561030d5761010051918261012052611d9c575b5050604051611794816126df565b6001600160a01b0388168152602081018b90526101205160408201526117ba8a836128f1565b526117c589826128f1565b506117e06127106117d86008548d612d64565b04809b613289565b99806118f6575b506101005192835b855190818610156118df5781600019810111611434578981898f8f8f6118b68c6118888f6118be966060956118c49c60019e6101005150600019018614156000146118cc5750611868916118598f928361185f9460a01b0361185189886128f1565b51169061298e565b90612d64565b60075490613380565b998a915b61187c858f8060a01b03926128f1565b51169060c05190613442565b956118b085604061189985856128f1565b510151610120516118aa83836128f1565b526128f1565b506128f1565b5101516128f1565b52612825565b9401936117ef565b90506118d791613289565b998a9161186c565b50509795965097909293985060019150908961173c565b6040516370a0823160e01b8152306004820152906020826024816001600160a01b038d165afa91821561030d576101005192611d66575b506040516323b872dd60e01b602082015260c0516001600160a01b0316602482015230604482015260648101919091526119879061197881608481015b03601f19810183528261272b565b6001600160a01b038a166133da565b6040516370a0823160e01b8152306004820152906020826024816001600160a01b038d165afa801561030d576101005190611d32575b6119c79250613289565b600a546001600160a01b031680158015611d1f575b8015611d0c575b611cfa5760405163095ea7b360e01b60208083019182526001600160a01b03841660248401526044808401869052835290611a1f60648461272b565b6101005183519091826001600160a01b038f165af13d610100519081519183611cd3575b50505015611c73575b5050604051611a5a816126df565b6002815260403660208301376001600160a01b038916611a79826128ce565b5260018060a01b03600b5416815160011015611c59576040820152600a546009546001600160a01b03908116929116904261012c81011061143457611aeb916040518094819482946318cbafe560e01b845288600485015261010051602485015260a0604485015260a48401906125c0565b90606483015261012c420160848301526101005194859103925af19081611b69575b50611b635760095460405163a9059cbb60e01b60208201526001600160a01b0390911660248201526044810191909152611b5d90611b4e816064810161196a565b6001600160a01b0389166133da565b8a6117e7565b50611b5d565b9290939b9a9998979695969491943d8060a05261010051853e611b8e60a0518561272b565b60a051840192602085850312610236578451936001600160401b03851161023657601f85870101121561023657838501519d8e6020611bcc826128b7565b611bd9604051918261272b565b8281520161014052602060a05188019160051b878901010111610236579091928e6020868801016080525b60206080519160051b8789010101811015611c4257908f94939291516101405152602061014051016101405260206080510160805290919293611c04565b509450949198999a9b9c509491509594958c611b0d565b634e487b7160e01b61010051526032600452602461010051fd5b6040519163095ea7b360e01b60208401526024830152610100516044830152604482528160808101106001600160401b03608084011117610c345760808201604052611ccc91611978906001600160a01b038c166133da565b8b80611a4c565b50909150611cf257506001600160a01b038a163b15155b8e8080611a43565b600114611cea565b60405163dcf40ea560e01b8152600490fd5b506009546001600160a01b0316156119e3565b50600b546001600160a01b0316156119dc565b506020823d602011611d5e575b81611d4c6020938361272b565b81010312610236576119c791516119bd565b3d9150611d3f565b9091506020813d602011611d94575b81611d826020938361272b565b8101031261023657519061196a61192d565b3d9150611d75565b3d8092823e611dab828261272b565b6020818381010312610236578051906001600160401b03821161023657828101601f838301011215610236578181015190611de5826133a0565b93611df3604051958661272b565b8285528101602083858401010111610236576020611e16938186019201016125fd565b610120528a80611786565b905090611736565b90506020813d602011611e53575b81611e446020938361272b565b8101031261023657518b61172a565b3d9150611e37565b90506020813d602011611e85575b81611e766020938361272b565b8101031261023657518a6116f1565b3d9150611e69565b47604051611e9a816126df565b610100518152816020820152611eae6133bb565b6040820152611ebd86896128f1565b52611ec885886128f1565b5080611ed5575b5061145c565b611ef5612710611eed60089998999796975484612d64565b048092613289565b9080611fd2575b506101005195865b84519081811015611fc357816000198101116114345788611faa8860606118b68f9d611f848c8f8c611f7e918b9560019d610100515060001901871415600014611fb15750611f649161185961185f928f8060a01b036118518a896128f1565b80925b611f77868e8060a01b03926128f1565b51166134ae565b97612825565b9e6118b0856040611f9585856128f1565b510151611fa06133bb565b6118aa83836128f1565b5201611f04565b9050611fbc91613289565b8092611f67565b50509695505092919287611ecf565b600954611fe891906001600160a01b03166134ae565b5088611efc565b602090604051611ffe816126df565b610100805182525183820152606060408201528682018301520161130c565b604051908160808101106001600160401b03608084011117610c345781608060209301604052606081526101005183908183015260606040830152606080830152828b010152016112c4565b81519193506120789250613380565b9060019085611299565b80915051600203600281116114345790611282565b6002906001600160801b0319161760025582611252565b60405163153ddc1b60e21b8152600490fd5b506001600d5414611238565b3461023657610100518060031936011261023357604051906005546120f0816126a5565b80845290600190818116908115612178575060011461211a575b610cd584610cc18186038261272b565b6101008051600590525192507f036b6384b5eca791c62761152d0c79bb0604c104a5fb6f4eb0703f3154bb3db05b828410612160575050508101602001610cc18261210a565b80546020858701810191909152909301928101612148565b60ff191660208087019190915292151560051b85019092019250610cc1915083905061210a565b3461023657610100518060031936011261023357600b546040516001600160a01b039091168152602090f35b34610236576101005180600319360112610233576020600c54604051908152f35b346102365761010051806003193601126102335761223061220b612848565b60018060a01b03806011541690601354166040519384936060855260608501906125c0565b91602084015260408301520390f35b346102365761010051806003193601126102335760209054604051908152f35b3461023657602036600319011261023657602061022861227d612567565b612a06565b3461023657602036600319011261023657610cd56122a66122a1612567565b612905565b6040519182916020835260208301906125c0565b346102365761010051806003193601126102335760206001600160801b0360025416604051908152f35b34610236576101005180600319360112610233576017546040516001600160a01b039091168152602090f35b346102365760a036600319011261023657612329612567565b6024359060ff8216809203610236576044356001600160401b03811161023657612357903690600401612593565b916040366063190112610236576004546001600160a01b0390811633036103485780806001541692169182036103365760026001600160801b0381541614610a8757600285108015612539575b6125275760643591818316908184141590816102365782156107bb576020846017541691602460405180948193631d0bf83560e21b835260048301525afa90811561030d576101005191612509575b501561082c5761010051936084356124fa5750600284975b036124615761023657610100515260106020526040610100512054610750576124599461243b8260115416612d77565b1690816001600160601b0360a01b6011541617601155601255612c4c565b610a59612b7d565b601254600754141580806124f1575b61077c57846124b1575b5050506124ac9461248e8260135416612d77565b1690816001600160601b0360a01b6013541617601355601455612c4c565b612459565b61077c57610236578061010051526010602052604061010051205415908115916124e3575b506107505785808061247a565b9050816011541614866124d6565b50841515612470565b9050600260075494919761240b565b612521915060203d81116108ba576108ac818361272b565b886123f3565b60405163bd94c44760e01b8152600490fd5b50600385116123a4565b34610777576000366003190112610777576018546001600160a01b03168152602090f35b600435906001600160a01b038216820361077757565b602435906001600160a01b038216820361077757565b9181601f84011215610777578235916001600160401b038311610777576020838186019501011161077757565b90815180825260208080930193019160005b8281106125e0575050505090565b83516001600160a01b0316855293810193928101926001016125d2565b60005b8381106126105750506000910152565b8181015183820152602001612600565b90602091612639815180928185528580860191016125fd565b601f01601f1916010190565b9181601f84011215610777578235916001600160401b038311610777576020808501948460051b01011161077757565b9181601f84011215610777578235916001600160401b038311610777576020808501948460061b01011161077757565b90600182811c921680156126d5575b60208310146126bf57565b634e487b7160e01b600052602260045260246000fd5b91607f16916126b4565b606081019081106001600160401b038211176126fa57604052565b634e487b7160e01b600052604160045260246000fd5b604081019081106001600160401b038211176126fa57604052565b90601f801991011681019081106001600160401b038211176126fa57604052565b60009060018060a01b031681526020600681526040822060405192839181815490612776826126a5565b808652926001928084169081156127e057506001146127a3575b505050506127a09250038261272b565b90565b815285812095935091905b8183106127c85750506127a0935082010138808080612790565b855487840185015294850194869450918301916127ae565b93505050506127a094925060ff191682840152151560051b82010138808080612790565b6001600d5414806128125790565b5060016001600160801b03600254161490565b9190820180921161283257565b634e487b7160e01b600052601160045260246000fd5b60405190600e548083528260209182820190600e6000527fbb7b4a454dc3493923482f07822329ed19e8244eff582cc204f8554c3620c3fd936000905b82821061289d5750505061289b9250038361272b565b565b855484526001958601958895509381019390910190612885565b6001600160401b0381116126fa5760051b60200190565b8051156128db5760200190565b634e487b7160e01b600052603260045260246000fd5b80518210156128db5760209160051b010190565b61291060ff91612a06565b166001810361292257506127a0612848565b6002810361295b575060405161293781612710565b60018152602036818301376011546001600160a01b0316612957826128ce565b5290565b6003036125275760405161296e81612710565b60018152602036818301376013546001600160a01b0316612957826128ce565b60ff16600181036129b557506001600160a01b031660009081526010602052604090205490565b600281036129de57506011546001600160a01b039182169116036129d95760125490565b600090565b600303612a00576013546001600160a01b039182169116036129d95760145490565b50600090565b6001600160a01b0390811660008181526010602052604090205490919015612a2f575050600190565b8060115416821480612a6c575b15612a48575050600290565b601354161480612a61575b612a5c57600090565b600390565b506014541515612a53565b506012541515612a3c565b612a85600354600c54612825565b60155490612a938282612825565b612aa06016548092612825565b4210159081612ae5575b5015612ab7575050600390565b81612ac191612825565b4210159081612adb575b5015612ad657600290565b600190565b9050151538612acb565b9050151538612aaa565b60c4356001600160a01b03811681036107775790565b610104356001600160a01b03811681036107775790565b60a4356001600160a01b03811681036107775790565b356001600160a01b03811681036107775790565b60001981146128325760010190565b91908110156128db5760061b0190565b90816020910312610777575180151581036107775790565b601554158080612c2b575b80612c21575b80612c17575b612bf057158080612c0a575b80612c00575b80612bf6575b612bf05780612be3575b80612bd8575b80612bcb575b612ad657600090565b5060145460075414612bc2565b506016541515612bbc565b5060125460075414612bb6565b50600190565b5060145415612bac565b5060165415612ba6565b5060125460075414612ba0565b5060145415612b94565b5060165415612b8e565b5060125415612b88565b818110612c40575050565b60008155600101612c35565b929160009360018060a01b031684526020936006855260408120926001600160401b038311612d5057612c7f84546126a5565b601f8111612d22575b5081601f8411600114612cc157839495965092612cb6575b50508160011b916000199060031b1c1916179055565b013590503880612ca0565b91601f1984169685845280842093905b888210612d0a57505083600195969710612cf0575b505050811b019055565b0135600019600384901b60f8161c19169055388080612ce6565b80600184968294958701358155019501920190612cd1565b612d4a90858452878420601f860160051c810191898710610c2a57601f0160051c0190612c35565b38612c88565b634e487b7160e01b82526041600452602482fd5b8181029291811591840414171561283257565b6001600160a01b031660009081526006602052604081208054612d99906126a5565b80612da357505050565b82601f8211600114612db457505055565b9091808252612dd2601f60208420940160051c840160018501612c35565b5555565b95929394919094600160a01b60019003918260175416966040978851808092631d0bf83560e21b82528760049d168d8301525a92602491602094fa90811561305f57600091613041575b5015612fac5760155560165560c435612f7c57600094855b83612e41612b1c565b1660005260106020528760002054612f6c579083612e869392612e678260115416612d77565b166001600160601b0360a01b9781896011541617601155601255612c4c565b600161010435151580612f57575b15612f415750806011541660e435918083168093141591826107775783148015612f28575b612f1857612eca9060135416612d77565b6107775780612ee6946013541617601355600754601455612c4c565b60005b1580612f09575b612efc57505042600c55565b51638ad71e4360e01b8152fd5b50612f12612b7d565b15612ef0565b86516339ad115b60e01b81528890fd5b5090506000908282526010602052868220541515612eb9565b9392505050601354166013556000601455612ee9565b5060e435828116809103610777571515612e94565b87516339ad115b60e01b81528990fd5b6007549482612f89612b1c565b1615612f9c57612f97612b1c565b612e38565b8651639a88d91960e01b81528890fd5b935094505091501591821592613037575b50811561302b575b811561301e575b8115613007575b8115612ff0575b50612fe3575050565b516345bbf12b60e11b8152fd5b905060e43590811680910361077757151538612fda565b905060a43581811680910361077757151590612fd3565b6101043515159150612fcc565b60c43515159150612fc5565b1515915038612fbd565b613059915060203d81116108ba576108ac818361272b565b38612e20565b89513d6000823e3d90fd5b613078600354600c54612825565b42106129d957600190565b91929360009485945b8086106130a7575050505050506007540361093357600e5490565b9091929394956130b8878387612b55565b906020908183013580159081156131d8575b506131b0576001600160a01b0392836130e282612b32565b16159081156131c2575b506131b057613109836131036108dd8c888c612b55565b1661321b565b506131186108dd8a868a612b55565b91868a10156128db578960051b860135601e1987360301811215610777578601938435946001600160401b038611610777578201938536038513610777576001956131a49561316692612c4c565b816131728c888c612b55565b0135906131836108dd8d898d612b55565b166000526010825260406000205561319c8a868a612b55565b013590612825565b9601949392919061308c565b60405163e98a7b6560e01b8152600490fd5b6131cc9150612b32565b831688841614386130ec565b905060075410386130ca565b600e548110156128db57600e6000527fbb7b4a454dc3493923482f07822329ed19e8244eff582cc204f8554c3620c3fd0190600090565b6000818152600f602052604081205461328457600e5468010000000000000000811015612d5057908261327061325984600160409601600e556131e4565b819391549060031b91821b91600019901b19161790565b9055600e54928152600f6020522055600190565b905090565b9190820391821161283257565b6000818152600f6020526040812054909190801561337b576000199080820181811161336757600e54908382019182116133535781810361331f575b505050600e54801561330b578101906132ea826131e4565b909182549160031b1b19169055600e558152600f6020526040812055600190565b634e487b7160e01b84526031600452602484fd5b61333d61332e613259936131e4565b90549060031b1c9283926131e4565b90558452600f60205260408420553880806132d2565b634e487b7160e01b86526011600452602486fd5b634e487b7160e01b85526011600452602485fd5b505090565b811561338a570490565b634e487b7160e01b600052601260045260246000fd5b6001600160401b0381116126fa57601f01601f191660200190565b604051906133c882612710565b600382526208aa8960eb1b6020830152565b906000602091828151910182855af115613436576000513d61342d57506001600160a01b0381163b155b61340b5750565b604051635274afe760e01b81526001600160a01b039091166004820152602490fd5b60011415613404565b6040513d6000823e3d90fd5b6040516323b872dd60e01b81526001600160a01b03928316600482015292821660248401526044830184905260209183916064918391600091165af19081613490575b506127a05750600090565b6134a79060203d81116108ba576108ac818361272b565b5038613485565b600090819081908190819086906001600160a01b03165af13d156134f7573d6134d6816133a0565b906134e4604051928361272b565b81528260203d92013e5b15613284575090565b6134ee56fea26469706673582212202e27917c10e9313337b0999ef0286d03c5cf4d1f76804fe91ea9c96479cc6dcb64736f6c63430008140033a26469706673582212209767e2cec699ec9f9a1b4b9655850ca381cc956d70589c6a2598017f5e192b6c64736f6c63430008140033",
  "devdoc": {
    "errors": {
      "InvalidInitialization()": [
        {
          "details": "The contract is already initialized."
        }
      ],
      "NotInitializing()": [
        {
          "details": "The contract is not initializing."
        }
      ]
    },
    "events": {
      "Initialized(uint64)": {
        "details": "Triggered when the contract has been initialized or reinitialized."
      }
    },
    "kind": "dev",
    "methods": {
      "getNextLegacyAddress(address)": {
        "details": "Get next legacy address that would be created for a sender"
      }
    },
    "version": 1
  },
  "userdoc": {
    "kind": "user",
    "methods": {},
    "version": 1
  },
  "storageLayout": {
    "storage": [
      {
        "astId": 17866,
        "contract": "contracts/forwarding/TransferLegacyEOAContractRouter.sol:TransferEOALegacyRouter",
        "label": "_legacyId",
        "offset": 0,
        "slot": "0",
        "type": "t_uint256"
      },
      {
        "astId": 17868,
        "contract": "contracts/forwarding/TransferLegacyEOAContractRouter.sol:TransferEOALegacyRouter",
        "label": "legacyDeployerContract",
        "offset": 0,
        "slot": "1",
        "type": "t_address"
      },
      {
        "astId": 17872,
        "contract": "contracts/forwarding/TransferLegacyEOAContractRouter.sol:TransferEOALegacyRouter",
        "label": "legacyAddresses",
        "offset": 0,
        "slot": "2",
        "type": "t_mapping(t_uint256,t_address)"
      },
      {
        "astId": 17876,
        "contract": "contracts/forwarding/TransferLegacyEOAContractRouter.sol:TransferEOALegacyRouter",
        "label": "isCreateLegacy",
        "offset": 0,
        "slot": "3",
        "type": "t_mapping(t_address,t_bool)"
      },
      {
        "astId": 24708,
        "contract": "contracts/forwarding/TransferLegacyEOAContractRouter.sol:TransferEOALegacyRouter",
        "label": "premiumSetting",
        "offset": 0,
        "slot": "4",
        "type": "t_address"
      },
      {
        "astId": 24711,
        "contract": "contracts/forwarding/TransferLegacyEOAContractRouter.sol:TransferEOALegacyRouter",
        "label": "verifier",
        "offset": 0,
        "slot": "5",
        "type": "t_contract(IEIP712LegacyVerifier)27228"
      },
      {
        "astId": 24713,
        "contract": "contracts/forwarding/TransferLegacyEOAContractRouter.sol:TransferEOALegacyRouter",
        "label": "paymentContract",
        "offset": 0,
        "slot": "6",
        "type": "t_address"
      },
      {
        "astId": 24715,
        "contract": "contracts/forwarding/TransferLegacyEOAContractRouter.sol:TransferEOALegacyRouter",
        "label": "uniswapRouter",
        "offset": 0,
        "slot": "7",
        "type": "t_address"
      },
      {
        "astId": 24717,
        "contract": "contracts/forwarding/TransferLegacyEOAContractRouter.sol:TransferEOALegacyRouter",
        "label": "weth",
        "offset": 0,
        "slot": "8",
        "type": "t_address"
      }
    ],
    "types": {
      "t_address": {
        "encoding": "inplace",
        "label": "address",
        "numberOfBytes": "20"
      },
      "t_bool": {
        "encoding": "inplace",
        "label": "bool",
        "numberOfBytes": "1"
      },
      "t_contract(IEIP712LegacyVerifier)27228": {
        "encoding": "inplace",
        "label": "contract IEIP712LegacyVerifier",
        "numberOfBytes": "20"
      },
      "t_mapping(t_address,t_bool)": {
        "encoding": "mapping",
        "key": "t_address",
        "label": "mapping(address => bool)",
        "numberOfBytes": "32",
        "value": "t_bool"
      },
      "t_mapping(t_uint256,t_address)": {
        "encoding": "mapping",
        "key": "t_uint256",
        "label": "mapping(uint256 => address)",
        "numberOfBytes": "32",
        "value": "t_address"
      },
      "t_uint256": {
        "encoding": "inplace",
        "label": "uint256",
        "numberOfBytes": "32"
      }
    }
  }
}