{
  "address": "0x1a603b73010A9422333c94bCd2B23264361f8169",
  "abi": [
    {
      "inputs": [],
      "stateMutability": "nonpayable",
      "type": "constructor"
    },
    {
      "inputs": [],
      "name": "AlreadyInit",
      "type": "error"
    },
    {
      "inputs": [],
      "name": "HexLengthInsufficient",
      "type": "error"
    },
    {
      "inputs": [],
      "name": "InvalidInitialization",
      "type": "error"
    },
    {
      "inputs": [],
      "name": "InvalidSignature",
      "type": "error"
    },
    {
      "inputs": [],
      "name": "InvalidV",
      "type": "error"
    },
    {
      "inputs": [],
      "name": "NotInitializing",
      "type": "error"
    },
    {
      "inputs": [
        {
          "internalType": "address",
          "name": "owner",
          "type": "address"
        }
      ],
      "name": "OwnableInvalidOwner",
      "type": "error"
    },
    {
      "inputs": [
        {
          "internalType": "address",
          "name": "account",
          "type": "address"
        }
      ],
      "name": "OwnableUnauthorizedAccount",
      "type": "error"
    },
    {
      "inputs": [],
      "name": "ReentrancyGuardReentrantCall",
      "type": "error"
    },
    {
      "inputs": [],
      "name": "SignatureUsed",
      "type": "error"
    },
    {
      "inputs": [],
      "name": "TimestampOutOfRange",
      "type": "error"
    },
    {
      "inputs": [],
      "name": "UnauthorizedCaller",
      "type": "error"
    },
    {
      "inputs": [],
      "name": "ZeroAddressNotAllowed",
      "type": "error"
    },
    {
      "anonymous": false,
      "inputs": [
        {
          "indexed": false,
          "internalType": "uint64",
          "name": "version",
          "type": "uint64"
        }
      ],
      "name": "Initialized",
      "type": "event"
    },
    {
      "anonymous": false,
      "inputs": [
        {
          "indexed": true,
          "internalType": "address",
          "name": "user",
          "type": "address"
        },
        {
          "indexed": false,
          "internalType": "uint256",
          "name": "legacyId",
          "type": "uint256"
        },
        {
          "indexed": false,
          "internalType": "uint256",
          "name": "timestamp",
          "type": "uint256"
        }
      ],
      "name": "LegacySigned",
      "type": "event"
    },
    {
      "anonymous": false,
      "inputs": [
        {
          "indexed": true,
          "internalType": "address",
          "name": "previousOwner",
          "type": "address"
        },
        {
          "indexed": true,
          "internalType": "address",
          "name": "newOwner",
          "type": "address"
        }
      ],
      "name": "OwnershipTransferred",
      "type": "event"
    },
    {
      "inputs": [
        {
          "internalType": "uint256",
          "name": "timestamp",
          "type": "uint256"
        }
      ],
      "name": "generateMessage",
      "outputs": [
        {
          "internalType": "string",
          "name": "",
          "type": "string"
        }
      ],
      "stateMutability": "pure",
      "type": "function"
    },
    {
      "inputs": [
        {
          "internalType": "address",
          "name": "user",
          "type": "address"
        },
        {
          "internalType": "uint256",
          "name": "index",
          "type": "uint256"
        }
      ],
      "name": "getUserLegacy",
      "outputs": [
        {
          "internalType": "address",
          "name": "legacyAddress",
          "type": "address"
        },
        {
          "internalType": "uint256",
          "name": "timestamp",
          "type": "uint256"
        },
        {
          "internalType": "string",
          "name": "message",
          "type": "string"
        },
        {
          "internalType": "bytes",
          "name": "signature",
          "type": "bytes"
        }
      ],
      "stateMutability": "view",
      "type": "function"
    },
    {
      "inputs": [
        {
          "internalType": "address",
          "name": "user",
          "type": "address"
        }
      ],
      "name": "getUserLegacyCount",
      "outputs": [
        {
          "internalType": "uint256",
          "name": "",
          "type": "uint256"
        }
      ],
      "stateMutability": "view",
      "type": "function"
    },
    {
      "inputs": [
        {
          "internalType": "address",
          "name": "initialOwner",
          "type": "address"
        }
      ],
      "name": "initialize",
      "outputs": [],
      "stateMutability": "nonpayable",
      "type": "function"
    },
    {
      "inputs": [
        {
          "internalType": "address",
          "name": "",
          "type": "address"
        },
        {
          "internalType": "uint256",
          "name": "",
          "type": "uint256"
        }
      ],
      "name": "legacySigned",
      "outputs": [
        {
          "internalType": "address",
          "name": "legacyAddress",
          "type": "address"
        },
        {
          "internalType": "uint256",
          "name": "timestamp",
          "type": "uint256"
        },
        {
          "internalType": "bytes",
          "name": "signature",
          "type": "bytes"
        }
      ],
      "stateMutability": "view",
      "type": "function"
    },
    {
      "inputs": [],
      "name": "multisigLegacy",
      "outputs": [
        {
          "internalType": "address",
          "name": "",
          "type": "address"
        }
      ],
      "stateMutability": "view",
      "type": "function"
    },
    {
      "inputs": [],
      "name": "owner",
      "outputs": [
        {
          "internalType": "address",
          "name": "",
          "type": "address"
        }
      ],
      "stateMutability": "view",
      "type": "function"
    },
    {
      "inputs": [
        {
          "internalType": "bytes32",
          "name": "digest",
          "type": "bytes32"
        },
        {
          "internalType": "bytes",
          "name": "signature",
          "type": "bytes"
        }
      ],
      "name": "recoverSigner",
      "outputs": [
        {
          "internalType": "address",
          "name": "",
          "type": "address"
        }
      ],
      "stateMutability": "pure",
      "type": "function"
    },
    {
      "inputs": [],
      "name": "renounceOwnership",
      "outputs": [],
      "stateMutability": "nonpayable",
      "type": "function"
    },
    {
      "inputs": [
        {
          "internalType": "address",
          "name": "_transferLegacyEOA",
          "type": "address"
        },
        {
          "internalType": "address",
          "name": "_transferLegacy",
          "type": "address"
        },
        {
          "internalType": "address",
          "name": "_multisigLegacy",
          "type": "address"
        }
      ],
      "name": "setRouterAddresses",
      "outputs": [],
      "stateMutability": "nonpayable",
      "type": "function"
    },
    {
      "inputs": [
        {
          "internalType": "address",
          "name": "user",
          "type": "address"
        },
        {
          "internalType": "address",
          "name": "legacyAddress",
          "type": "address"
        },
        {
          "internalType": "uint256",
          "name": "timestamp",
          "type": "uint256"
        },
        {
          "internalType": "bytes",
          "name": "signature",
          "type": "bytes"
        }
      ],
      "name": "storeLegacyAgreement",
      "outputs": [],
      "stateMutability": "nonpayable",
      "type": "function"
    },
    {
      "inputs": [],
      "name": "transferLegacy",
      "outputs": [
        {
          "internalType": "address",
          "name": "",
          "type": "address"
        }
      ],
      "stateMutability": "view",
      "type": "function"
    },
    {
      "inputs": [],
      "name": "transferLegacyEOA",
      "outputs": [
        {
          "internalType": "address",
          "name": "",
          "type": "address"
        }
      ],
      "stateMutability": "view",
      "type": "function"
    },
    {
      "inputs": [
        {
          "internalType": "address",
          "name": "newOwner",
          "type": "address"
        }
      ],
      "name": "transferOwnership",
      "outputs": [],
      "stateMutability": "nonpayable",
      "type": "function"
    }
  ],
  "transactionHash": "0x8624d4306c7a847c045572402d05b20089416ee1e93c31e7550c4a8fe0709b3c",
  "args": [],
  "numDeployments": 2,
  "solcInputHash": "e8085fed2d4713a052f2127d3fd8ff65",
  "bytecode": "0x608060405234801561001057600080fd5b5061001961001e565b6100d0565b7ff0c57e16840df040f15088dc2f81fe391c3923bec73e23a9662efc9c229c6a00805468010000000000000000900460ff161561006e5760405163f92ee8a960e01b815260040160405180910390fd5b80546001600160401b03908116146100cd5780546001600160401b0319166001600160401b0390811782556040519081527fc7f505b2f371ae2175ee4913f4499e1f2633a7b5936321eed1cdaeb6115181d29060200160405180910390a15b50565b611462806100df6000396000f3fe608060405234801561001057600080fd5b50600436106100ea5760003560e01c80638da5cb5b1161008c578063c4d66de811610066578063c4d66de814610221578063ee44e8ea14610234578063ef8adc5314610254578063f2fde38b1461026757600080fd5b80638da5cb5b146101bc57806397aba7f9146101ec5780639b8ab5b5146101ff57600080fd5b80633aabe738116100c85780633aabe738146101475780636e822e6a1461015a578063715018a6146101915780637a550fc21461019957600080fd5b806319f854bb146100ef5780632bcdd4051461011f57806332c3299014610132575b600080fd5b600154610102906001600160a01b031681565b6040516001600160a01b0390911681526020015b60405180910390f35b600354610102906001600160a01b031681565b610145610140366004610e27565b61027a565b005b610145610155366004610e6a565b6102fc565b610183610168366004610f05565b6001600160a01b031660009081526020819052604090205490565b604051908152602001610116565b6101456105f9565b6101ac6101a7366004610f27565b61060d565b6040516101169493929190610fa1565b7f9016d09d72d40fdae2fd8ceac6b6234c7706214fd39c1cd1e609a0528c199300546001600160a01b0316610102565b6101026101fa366004610ffb565b61075a565b61021261020d366004610f27565b61088a565b604051610116939291906110b6565b61014561022f366004610f05565b610960565b6102476102423660046110e6565b610a64565b60405161011691906110ff565b600254610102906001600160a01b031681565b610145610275366004610f05565b610aaf565b610282610af2565b6001600160a01b038316158061029f57506001600160a01b038116155b156102bd576040516342bcdf7f60e11b815260040160405180910390fd5b600180546001600160a01b039485166001600160a01b031991821617909155600280549385169382169390931790925560038054919093169116179055565b610304610b4d565b6002546001600160a01b0316331480159061032a57506001546001600160a01b03163314155b801561034157506003546001600160a01b03163314155b1561035f57604051635c427cd960e01b815260040160405180910390fd5b4261036c61070882611128565b84108061038357506103806107088261113b565b84115b156103a157604051637944e66d60e11b815260040160405180910390fd5b600483836040516103b392919061114e565b9081526020016040518091039020546000146103e257604051630d75493360e01b815260040160405180910390fd5b60006103ed85610a64565b905060006103fa82610b97565b9050600061043e8287878080601f01602080910402602001604051908101604052809392919081815260200183838082843760009201919091525061075a92505050565b9050886001600160a01b0316816001600160a01b03161461047257604051638baa579f60e01b815260040160405180910390fd5b6000808a6001600160a01b03166001600160a01b0316815260200190815260200160002060405180606001604052808a6001600160a01b0316815260200189815260200188888080601f0160208091040260200160405190810160405280939291908181526020018383808284376000920182905250939094525050835460018082018655948252602091829020845160039092020180546001600160a01b0319166001600160a01b039092169190911781559083015193810193909355506040810151909190600282019061054890826111e5565b505050866004878760405161055e92919061114e565b908152602001604051809103902081905550886001600160a01b03167ff6b26538efd4c8a91698e6c86037e48ab8b91777cb5ec8ae102edbe29d489b82896001600160a01b0316896040516105bd929190918252602082015260400190565b60405180910390a2505050506105f260017f9b779b17422d0df92223018b32b4d1fa46e071723d6817e2486d003becc55f0055565b5050505050565b610601610af2565b61060b6000610bf8565b565b6000806060806000806000886001600160a01b03166001600160a01b03168152602001908152602001600020868154811061064a5761064a6112a5565b90600052602060002090600302016040518060600160405290816000820160009054906101000a90046001600160a01b03166001600160a01b03166001600160a01b03168152602001600182015481526020016002820180546106ac9061115e565b80601f01602080910402602001604051908101604052809291908181526020018280546106d89061115e565b80156107255780601f106106fa57610100808354040283529160200191610725565b820191906000526020600020905b81548152906001019060200180831161070857829003601f168201915b5050505050815250509050600061073b85610a64565b82516020840151604090940151909a9399509097509550909350505050565b6000815160411461077e57604051638baa579f60e01b815260040160405180910390fd5b60208201516040830151606084015160001a7f7fffffffffffffffffffffffffffffff5d576e7357a4501ddfe92f46681b20a08211156107d157604051638baa579f60e01b815260040160405180910390fd5b601b8160ff1610156107eb576107e8601b826112bb565b90505b8060ff16601b1415801561080357508060ff16601c14155b156108215760405163119bce3960e01b815260040160405180910390fd5b60408051600081526020810180835288905260ff831691810191909152606081018490526080810183905260019060a0016020604051602081039080840390855afa158015610874573d6000803e3d6000fd5b5050506020604051035193505050505b92915050565b600060205281600052604060002081815481106108a657600080fd5b60009182526020909120600390910201805460018201546002830180546001600160a01b039093169550909350906108dd9061115e565b80601f01602080910402602001604051908101604052809291908181526020018280546109099061115e565b80156109565780601f1061092b57610100808354040283529160200191610956565b820191906000526020600020905b81548152906001019060200180831161093957829003601f168201915b5050505050905083565b600061096a610c69565b805490915060ff600160401b820416159067ffffffffffffffff166000811580156109925750825b905060008267ffffffffffffffff1660011480156109af5750303b155b9050811580156109bd575080155b156109db5760405163f92ee8a960e01b815260040160405180910390fd5b845467ffffffffffffffff191660011785558315610a0557845460ff60401b1916600160401b1785555b610a0d610c92565b610a1686610ca2565b8315610a5c57845460ff60401b19168555604051600181527fc7f505b2f371ae2175ee4913f4499e1f2633a7b5936321eed1cdaeb6115181d29060200160405180910390a15b505050505050565b60606040518060800160405280604f81526020016113de604f9139610a8883610cb3565b604051602001610a999291906112d4565b6040516020818303038152906040529050919050565b610ab7610af2565b6001600160a01b038116610ae657604051631e4fbdf760e01b8152600060048201526024015b60405180910390fd5b610aef81610bf8565b50565b33610b247f9016d09d72d40fdae2fd8ceac6b6234c7706214fd39c1cd1e609a0528c199300546001600160a01b031690565b6001600160a01b03161461060b5760405163118cdaa760e01b8152336004820152602401610add565b7f9b779b17422d0df92223018b32b4d1fa46e071723d6817e2486d003becc55f00805460011901610b9157604051633ee5aeb560e01b815260040160405180910390fd5b60029055565b6000610ba38251610cb3565b82604051602001610bb592919061132b565b604051602081830303815290604052805190602001209050919050565b60017f9b779b17422d0df92223018b32b4d1fa46e071723d6817e2486d003becc55f0055565b7f9016d09d72d40fdae2fd8ceac6b6234c7706214fd39c1cd1e609a0528c19930080546001600160a01b031981166001600160a01b03848116918217845560405192169182907f8be0079c531659141344cd1fd0a4f28419497f9722a3daafe3b4186f6b6457e090600090a3505050565b6000807ff0c57e16840df040f15088dc2f81fe391c3923bec73e23a9662efc9c229c6a00610884565b610c9a610dbc565b61060b610de1565b610caa610dbc565b610aef81610de9565b606081600003610cda5750506040805180820190915260018152600360fc1b602082015290565b8160005b8115610d045780610cee81611386565b9150610cfd9050600a836113b5565b9150610cde565b60008167ffffffffffffffff811115610d1f57610d1f610fe5565b6040519080825280601f01601f191660200182016040528015610d49576020820181803683370190505b5090505b8415610db457610d5e600183611128565b9150610d6b600a866113c9565b610d7690603061113b565b60f81b818381518110610d8b57610d8b6112a5565b60200101906001600160f81b031916908160001a905350610dad600a866113b5565b9450610d4d565b949350505050565b610dc4610df1565b61060b57604051631afcd79f60e31b815260040160405180910390fd5b610bd2610dbc565b610ab7610dbc565b6000610dfb610c69565b54600160401b900460ff16919050565b80356001600160a01b0381168114610e2257600080fd5b919050565b600080600060608486031215610e3c57600080fd5b610e4584610e0b565b9250610e5360208501610e0b565b9150610e6160408501610e0b565b90509250925092565b600080600080600060808688031215610e8257600080fd5b610e8b86610e0b565b9450610e9960208701610e0b565b935060408601359250606086013567ffffffffffffffff80821115610ebd57600080fd5b818801915088601f830112610ed157600080fd5b813581811115610ee057600080fd5b896020828501011115610ef257600080fd5b9699959850939650602001949392505050565b600060208284031215610f1757600080fd5b610f2082610e0b565b9392505050565b60008060408385031215610f3a57600080fd5b610f4383610e0b565b946020939093013593505050565b60005b83811015610f6c578181015183820152602001610f54565b50506000910152565b60008151808452610f8d816020860160208601610f51565b601f01601f19169290920160200192915050565b60018060a01b0385168152836020820152608060408201526000610fc86080830185610f75565b8281036060840152610fda8185610f75565b979650505050505050565b634e487b7160e01b600052604160045260246000fd5b6000806040838503121561100e57600080fd5b82359150602083013567ffffffffffffffff8082111561102d57600080fd5b818501915085601f83011261104157600080fd5b81358181111561105357611053610fe5565b604051601f8201601f19908116603f0116810190838211818310171561107b5761107b610fe5565b8160405282815288602084870101111561109457600080fd5b8260208601602083013760006020848301015280955050505050509250929050565b60018060a01b03841681528260208201526060604082015260006110dd6060830184610f75565b95945050505050565b6000602082840312156110f857600080fd5b5035919050565b602081526000610f206020830184610f75565b634e487b7160e01b600052601160045260246000fd5b8181038181111561088457610884611112565b8082018082111561088457610884611112565b8183823760009101908152919050565b600181811c9082168061117257607f821691505b60208210810361119257634e487b7160e01b600052602260045260246000fd5b50919050565b601f8211156111e0576000816000526020600020601f850160051c810160208610156111c15750805b601f850160051c820191505b81811015610a5c578281556001016111cd565b505050565b815167ffffffffffffffff8111156111ff576111ff610fe5565b6112138161120d845461115e565b84611198565b602080601f83116001811461124857600084156112305750858301515b600019600386901b1c1916600185901b178555610a5c565b600085815260208120601f198616915b8281101561127757888601518255948401946001909101908401611258565b50858210156112955787850151600019600388901b60f8161c191681555b5050505050600190811b01905550565b634e487b7160e01b600052603260045260246000fd5b60ff818116838216019081111561088457610884611112565b600083516112e6818460208801610f51565b6d01030ba103a34b6b2b9ba30b6b8160951b908301908152835161131181600e840160208801610f51565b601760f91b600e9290910191820152600f01949350505050565b7f19457468657265756d205369676e6564204d6573736167653a0a00000000000081526000835161136381601a850160208801610f51565b83519083019061137a81601a840160208801610f51565b01601a01949350505050565b60006001820161139857611398611112565b5060010190565b634e487b7160e01b600052601260045260246000fd5b6000826113c4576113c461139f565b500490565b6000826113d8576113d861139f565b50069056fe42792070726f63656564696e672077697468206372656174696e672061206e657720636f6e74726163742c204920616772656520746f2031303130322773205465726d73206f662053657276696365a26469706673582212208745d0288233689e186d1916c2582bd1df46555404e837cc4510b63caee4a25b64736f6c63430008160033",
  "devdoc": {
    "errors": {
      "InvalidInitialization()": [
        {
          "details": "The contract is already initialized."
        }
      ],
      "NotInitializing()": [
        {
          "details": "The contract is not initializing."
        }
      ],
      "OwnableInvalidOwner(address)": [
        {
          "details": "The owner is not a valid owner account. (eg. `address(0)`)"
        }
      ],
      "OwnableUnauthorizedAccount(address)": [
        {
          "details": "The caller account is not authorized to perform an operation."
        }
      ],
      "ReentrancyGuardReentrantCall()": [
        {
          "details": "Unauthorized reentrant call."
        }
      ]
    },
    "events": {
      "Initialized(uint64)": {
        "details": "Triggered when the contract has been initialized or reinitialized."
      }
    },
    "kind": "dev",
    "methods": {
      "owner()": {
        "details": "Returns the address of the current owner."
      },
      "renounceOwnership()": {
        "details": "Leaves the contract without owner. It will not be possible to call `onlyOwner` functions. Can only be called by the current owner. NOTE: Renouncing ownership will leave the contract without an owner, thereby disabling any functionality that is only available to the owner."
      },
      "transferOwnership(address)": {
        "details": "Transfers ownership of the contract to a new account (`newOwner`). Can only be called by the current owner."
      }
    },
    "version": 1
  },
  "userdoc": {
    "kind": "user",
    "methods": {
      "storeLegacyAgreement(address,address,uint256,bytes)": {
        "notice": "Store a legacy agreement signed via signMessage"
      }
    },
    "version": 1
  },
  "storageLayout": {
    "storage": [
      {
        "astId": 664,
        "contract": "contracts/term/VerifierTerm.sol:EIP712LegacyVerifier",
        "label": "legacySigned",
        "offset": 0,
        "slot": "0",
        "type": "t_mapping(t_address,t_array(t_struct(Legacy)658_storage)dyn_storage)"
      },
      {
        "astId": 666,
        "contract": "contracts/term/VerifierTerm.sol:EIP712LegacyVerifier",
        "label": "transferLegacyEOA",
        "offset": 0,
        "slot": "1",
        "type": "t_address"
      },
      {
        "astId": 668,
        "contract": "contracts/term/VerifierTerm.sol:EIP712LegacyVerifier",
        "label": "transferLegacy",
        "offset": 0,
        "slot": "2",
        "type": "t_address"
      },
      {
        "astId": 670,
        "contract": "contracts/term/VerifierTerm.sol:EIP712LegacyVerifier",
        "label": "multisigLegacy",
        "offset": 0,
        "slot": "3",
        "type": "t_address"
      },
      {
        "astId": 674,
        "contract": "contracts/term/VerifierTerm.sol:EIP712LegacyVerifier",
        "label": "signatureUsed",
        "offset": 0,
        "slot": "4",
        "type": "t_mapping(t_bytes_memory_ptr,t_uint256)"
      }
    ],
    "types": {
      "t_address": {
        "encoding": "inplace",
        "label": "address",
        "numberOfBytes": "20"
      },
      "t_array(t_struct(Legacy)658_storage)dyn_storage": {
        "base": "t_struct(Legacy)658_storage",
        "encoding": "dynamic_array",
        "label": "struct EIP712LegacyVerifier.Legacy[]",
        "numberOfBytes": "32"
      },
      "t_bytes_memory_ptr": {
        "encoding": "bytes",
        "label": "bytes",
        "numberOfBytes": "32"
      },
      "t_bytes_storage": {
        "encoding": "bytes",
        "label": "bytes",
        "numberOfBytes": "32"
      },
      "t_mapping(t_address,t_array(t_struct(Legacy)658_storage)dyn_storage)": {
        "encoding": "mapping",
        "key": "t_address",
        "label": "mapping(address => struct EIP712LegacyVerifier.Legacy[])",
        "numberOfBytes": "32",
        "value": "t_array(t_struct(Legacy)658_storage)dyn_storage"
      },
      "t_mapping(t_bytes_memory_ptr,t_uint256)": {
        "encoding": "mapping",
        "key": "t_bytes_memory_ptr",
        "label": "mapping(bytes => uint256)",
        "numberOfBytes": "32",
        "value": "t_uint256"
      },
      "t_struct(Legacy)658_storage": {
        "encoding": "inplace",
        "label": "struct EIP712LegacyVerifier.Legacy",
        "members": [
          {
            "astId": 653,
            "contract": "contracts/term/VerifierTerm.sol:EIP712LegacyVerifier",
            "label": "legacyAddress",
            "offset": 0,
            "slot": "0",
            "type": "t_address"
          },
          {
            "astId": 655,
            "contract": "contracts/term/VerifierTerm.sol:EIP712LegacyVerifier",
            "label": "timestamp",
            "offset": 0,
            "slot": "1",
            "type": "t_uint256"
          },
          {
            "astId": 657,
            "contract": "contracts/term/VerifierTerm.sol:EIP712LegacyVerifier",
            "label": "signature",
            "offset": 0,
            "slot": "2",
            "type": "t_bytes_storage"
          }
        ],
        "numberOfBytes": "96"
      },
      "t_uint256": {
        "encoding": "inplace",
        "label": "uint256",
        "numberOfBytes": "32"
      }
    }
  }
}