{
  "address": "0x7F99873a7Fdf442ef906F7cAFcd35B3e22588151",
  "abi": [
    {
      "inputs": [],
      "name": "Create2EmptyBytecode",
      "type": "error"
    },
    {
      "inputs": [],
      "name": "FailedDeployment",
      "type": "error"
    },
    {
      "inputs": [
        {
          "internalType": "uint256",
          "name": "balance",
          "type": "uint256"
        },
        {
          "internalType": "uint256",
          "name": "needed",
          "type": "uint256"
        }
      ],
      "name": "InsufficientBalance",
      "type": "error"
    },
    {
      "inputs": [],
      "name": "InvalidInitialization",
      "type": "error"
    },
    {
      "inputs": [],
      "name": "InvalidParam",
      "type": "error"
    },
    {
      "inputs": [],
      "name": "NotInitializing",
      "type": "error"
    },
    {
      "inputs": [
        {
          "internalType": "address",
          "name": "owner",
          "type": "address"
        }
      ],
      "name": "OwnableInvalidOwner",
      "type": "error"
    },
    {
      "inputs": [
        {
          "internalType": "address",
          "name": "account",
          "type": "address"
        }
      ],
      "name": "OwnableUnauthorizedAccount",
      "type": "error"
    },
    {
      "anonymous": false,
      "inputs": [
        {
          "indexed": false,
          "internalType": "uint64",
          "name": "version",
          "type": "uint64"
        }
      ],
      "name": "Initialized",
      "type": "event"
    },
    {
      "anonymous": false,
      "inputs": [
        {
          "indexed": true,
          "internalType": "address",
          "name": "previousOwner",
          "type": "address"
        },
        {
          "indexed": true,
          "internalType": "address",
          "name": "newOwner",
          "type": "address"
        }
      ],
      "name": "OwnershipTransferred",
      "type": "event"
    },
    {
      "inputs": [
        {
          "internalType": "address",
          "name": "implementation",
          "type": "address"
        },
        {
          "internalType": "address",
          "name": "user",
          "type": "address"
        }
      ],
      "name": "cloneLegacy",
      "outputs": [
        {
          "internalType": "address",
          "name": "legacyAddress",
          "type": "address"
        }
      ],
      "stateMutability": "nonpayable",
      "type": "function"
    },
    {
      "inputs": [
        {
          "internalType": "bytes",
          "name": "byteCode",
          "type": "bytes"
        },
        {
          "internalType": "address",
          "name": "user",
          "type": "address"
        }
      ],
      "name": "createLegacy",
      "outputs": [
        {
          "internalType": "address",
          "name": "legacyAddress",
          "type": "address"
        },
        {
          "internalType": "address",
          "name": "guardAddress",
          "type": "address"
        }
      ],
      "stateMutability": "nonpayable",
      "type": "function"
    },
    {
      "inputs": [
        {
          "internalType": "bytes",
          "name": "byteCode",
          "type": "bytes"
        },
        {
          "internalType": "address",
          "name": "user",
          "type": "address"
        }
      ],
      "name": "getNextAddress",
      "outputs": [
        {
          "internalType": "address",
          "name": "nextLegacy",
          "type": "address"
        }
      ],
      "stateMutability": "view",
      "type": "function"
    },
    {
      "inputs": [
        {
          "internalType": "address",
          "name": "implementation",
          "type": "address"
        },
        {
          "internalType": "address",
          "name": "user",
          "type": "address"
        }
      ],
      "name": "getNextCloneAddress",
      "outputs": [
        {
          "internalType": "address",
          "name": "",
          "type": "address"
        }
      ],
      "stateMutability": "view",
      "type": "function"
    },
    {
      "inputs": [],
      "name": "initialize",
      "outputs": [],
      "stateMutability": "nonpayable",
      "type": "function"
    },
    {
      "inputs": [],
      "name": "multisigLegacyRouter",
      "outputs": [
        {
          "internalType": "address",
          "name": "",
          "type": "address"
        }
      ],
      "stateMutability": "view",
      "type": "function"
    },
    {
      "inputs": [],
      "name": "owner",
      "outputs": [
        {
          "internalType": "address",
          "name": "",
          "type": "address"
        }
      ],
      "stateMutability": "view",
      "type": "function"
    },
    {
      "inputs": [],
      "name": "renounceOwnership",
      "outputs": [],
      "stateMutability": "nonpayable",
      "type": "function"
    },
    {
      "inputs": [
        {
          "internalType": "address",
          "name": "_multisigLegacyRouter",
          "type": "address"
        },
        {
          "internalType": "address",
          "name": "_transferLegacyRouter",
          "type": "address"
        },
        {
          "internalType": "address",
          "name": "_transferEOALegacyRouter",
          "type": "address"
        }
      ],
      "name": "setParams",
      "outputs": [],
      "stateMutability": "nonpayable",
      "type": "function"
    },
    {
      "inputs": [],
      "name": "transferEOALegacyRouter",
      "outputs": [
        {
          "internalType": "address",
          "name": "",
          "type": "address"
        }
      ],
      "stateMutability": "view",
      "type": "function"
    },
    {
      "inputs": [],
      "name": "transferLegacyRouter",
      "outputs": [
        {
          "internalType": "address",
          "name": "",
          "type": "address"
        }
      ],
      "stateMutability": "view",
      "type": "function"
    },
    {
      "inputs": [
        {
          "internalType": "address",
          "name": "newOwner",
          "type": "address"
        }
      ],
      "name": "transferOwnership",
      "outputs": [],
      "stateMutability": "nonpayable",
      "type": "function"
    }
  ],
  "transactionHash": "0x9a287abd108396a753f6d0d52d59964380ce9a6cdd26bbe552dcecd5aa686455",
  "args": [],
  "numDeployments": 2,
  "solcInputHash": "edea9ede6ebe5fcfbac6004dd97b58e9",
  "bytecode": "0x60808060405234610016576118d3908161001c8239f35b600080fdfe60406080815260048036101561001457600080fd5b600090813560e01c8063715018a61461083357806371b0c9c21461080a5780638129fc1c146106dd5780638da5cb5b146106a7578063a081df7f146105fa578063aca45ed7146105d2578063ba3143d51461051d578063c554c0c21461033c578063db51294f14610313578063f2fde38b146102e6578063fa22930e146101f85763fbfa33c0146100a457600080fd5b346101f4576100b2366108ce565b9160018060a09693961b03928360015416331480156101e7575b80156101db575b80156101c1575b6100e390610a9a565b8284821680825260209660038852898320805491600183018093116101ae57505581526003865287902054875160609290921b6bffffffffffffffffffffffff19168287019081526014810191909152610166926101609290919061015581603484015b03601f198101835282610a1b565b519020963691610a53565b85610ad4565b9382600254163303610182575b50818551941684521690820152f35b85516101a8925090610d4c61019986820184610a1b565b808352610b3286840139610ad4565b38610173565b634e487b7160e01b855260119052602484fd5b5060008051602061187e83398151915254841633146100da565b508383541633146100d3565b50836002541633146100cc565b5080fd5b509190346102e357816003193601126102e35761021361089d565b61021b6108b8565b6001600160a01b0381811684526003602052848420549093600182019182106102d057602086866055604388886101476102778a88519283918b8301958690916034926001600160601b03199060601b16825260148201520190565b5190208551913060388401526f5af43d82803e903d91602b57fd5bf3ff60248401526014830152733d602d80600a3d3981f3363d3d373d3d3d363d73825260588201526037600c82012060788201520120169051908152f35b634e487b7160e01b815260118752602490fd5b80fd5b82346102e35760203660031901126102e35761031061030361089d565b61030b61092d565b610966565b80f35b8284346101f457816003193601126101f45760015490516001600160a01b039091168152602090f35b509190346102e357816003193601126102e35761035761089d565b61035f6108b8565b6001546001600160a01b03939190841633148015610510575b8015610504575b80156104ea575b61038f90610a9a565b836002541633036104ae578383161561047857838116808352600360205285832080549060018201809211610465575582526003602090815285832054865160609390931b6bffffffffffffffffffffffff1916918301918252603483015260379260099290916e5af43d82803e903d91602b57fd5bf3916104148160548101610147565b51902094763d602d80600a3d3981f3363d3d373d3d3d363d7300000062ffffff8260881c1617835260781b17602052f516908115610456576020925051908152f35b5163b06ebf3d60e01b81529050fd5b634e487b7160e01b855260118952602485fd5b845162461bcd60e51b8152602081880152601060248201526f0496d706c656d656e746174696f6e3d360841b6044820152606490fd5b845162461bcd60e51b81526020818801526016602482015275436c6f6e65207061746820697320454f412d6f6e6c7960501b6044820152606490fd5b5060008051602061187e8339815191525484163314610386565b5083825416331461037f565b5083600254163314610378565b509190346102e35761052e366108ce565b6001600160a01b0381811685526003602052858520549094929392600182019182106105bf57602087876055600b8961059c8a8a6101476105918c8a519283918d8301958690916034926001600160601b03199060601b16825260148201520190565b519020923691610a53565b8681519101209085519186830152868201523081520160ff815320169051908152f35b634e487b7160e01b815260118852602490fd5b8284346101f457816003193601126101f457905490516001600160a01b039091168152602090f35b5082346106a35760603660031901126106a35761061561089d565b61061d6108b8565b6001600160a01b036044358181169591939086900361069f57839061064061092d565b169384158015610695575b801561068d575b6106805750506001600160601b0360a01b928386541617855516816001541617600155600254161760025580f35b51633494a40d60e21b8152fd5b508515610652565b508383161561064b565b8680fd5b8280fd5b8284346101f457816003193601126101f45760008051602061187e8339815191525490516001600160a01b039091168152602090f35b508290346106a357826003193601126106a3577ff0c57e16840df040f15088dc2f81fe391c3923bec73e23a9662efc9c229c6a0090815460ff81851c16159167ffffffffffffffff821680159081610802575b60011490816107f8575b1590816107ef575b506107e1575067ffffffffffffffff1981166001178355816107c2575b506107686109da565b6107706109da565b61077933610966565b610781578280f35b805468ff00000000000000001916905551600181527fc7f505b2f371ae2175ee4913f4499e1f2633a7b5936321eed1cdaeb6115181d290602090a181808280f35b68ffffffffffffffffff1916680100000000000000011782558461075f565b845163f92ee8a960e01b8152fd5b90501587610742565b303b15915061073a565b849150610730565b8284346101f457816003193601126101f45760025490516001600160a01b039091168152602090f35b82346102e357806003193601126102e35761084c61092d565b60008051602061187e83398151915280546001600160a01b0319811690915581906001600160a01b03167f8be0079c531659141344cd1fd0a4f28419497f9722a3daafe3b4186f6b6457e08280a380f35b600435906001600160a01b03821682036108b357565b600080fd5b602435906001600160a01b03821682036108b357565b9060406003198301126108b35760043567ffffffffffffffff928382116108b357806023830112156108b35781600401359384116108b357602484830101116108b3576024908101929190356001600160a01b03811681036108b35790565b60008051602061187e833981519152546001600160a01b0316330361094e57565b60405163118cdaa760e01b8152336004820152602490fd5b6001600160a01b039081169081156109c15760008051602061187e83398151915280546001600160a01b031981168417909155167f8be0079c531659141344cd1fd0a4f28419497f9722a3daafe3b4186f6b6457e0600080a3565b604051631e4fbdf760e01b815260006004820152602490fd5b60ff7ff0c57e16840df040f15088dc2f81fe391c3923bec73e23a9662efc9c229c6a005460401c1615610a0957565b604051631afcd79f60e31b8152600490fd5b90601f8019910116810190811067ffffffffffffffff821117610a3d57604052565b634e487b7160e01b600052604160045260246000fd5b92919267ffffffffffffffff8211610a3d5760405191610a7d601f8201601f191660200184610a1b565b8294818452818301116108b3578281602093846000960137010152565b15610aa157565b60405162461bcd60e51b815260206004820152600b60248201526a526f75746572206f6e6c7960a81b6044820152606490fd5b90805115610b1f576020815191016000f5903d1519821516610b13576001600160a01b03821615610b0157565b60405163b06ebf3d60e01b8152600490fd5b6040513d6000823e3d90fd5b604051631328927760e21b8152600490fdfe6080806040523461001657610d30908161001c8239f35b600080fdfe6080604052600436101561001257600080fd5b60003560e01c806301ffc9a71461009257806339163c2a1461007457806375f0bb521461008d57806388cfce56146100885780639327136814610083578063c4d66de81461007e578063cd5d1f77146100795763e1bbf6281461007457600080fd5b6100fe565b610340565b6102e4565b6102c6565b61029d565b610207565b346100e75760203660031901126100e7576004356100af816100ec565b63ffffffff60e01b1663736bd41d60e11b81149081156100d6575b50151560805260206080f35b6301ffc9a760e01b149050816100ca565b600080fd5b6001600160e01b03198116036100e757565b346100e75760003660031901126100e7576020600054604051908152f35b6001600160a01b038116036100e757565b60e4359061013a8261011c565b565b610144359061013a8261011c565b634e487b7160e01b600052604160045260246000fd5b90601f8019910116810190811067ffffffffffffffff82111761018257604052565b61014a565b67ffffffffffffffff811161018257601f01601f191660200190565b81601f820112156100e7578035906101ba82610187565b926101c86040519485610160565b828452602083830101116100e757816000926020809301838601378301015290565b6064359060028210156100e757565b610104359061013a8261011c565b346100e7576101603660031901126100e7576004356102258161011c565b67ffffffffffffffff906044358281116100e7576102479036906004016101a3565b61024f6101ea565b61025761012d565b61025f6101f9565b91610124359586116100e75761027c61029b9636906004016101a3565b9361028561013c565b9560c4359260a43592608435926024359061051e565b005b346100e75760003660031901126100e7576001546040516001600160a01b039091168152602090f35b346100e75760403660031901126100e757602435801515036100e757005b346100e75760203660031901126100e7576004356103018161011c565b60005461032e5742600055600180546001600160a01b0319166001600160a01b0392909216919091179055005b60405163054d585760e21b8152600490fd5b346100e75760a03660031901126100e75760043561035d8161011c565b67ffffffffffffffff906044358281116100e75761037f9036906004016101a3565b6064359283116100e75761039a61029b9336906004016101a3565b9060843592602435906108b1565b908160209103126100e7575190565b6040513d6000823e3d90fd5b634e487b7160e01b600052601160045260246000fd5b80156103e6576000190190565b6103c3565b60005b8381106103fe5750506000910152565b81810151838201526020016103ee565b6020818303126100e75780519067ffffffffffffffff82116100e7570181601f820112156100e757805161044181610187565b9261044f6040519485610160565b818452602082840101116100e75761046d91602080850191016103eb565b90565b90602091610489815180928185528580860191016103eb565b601f01601f1916010190565b9691926104c69194969b9a9995989360018060a01b03809616895260208901526101408060408a0152880190610470565b9960028610156105085761012097610504966060890152608088015260a087015260c08601521660e084015261010083019060018060a01b03169052565b0152565b634e487b7160e01b600052602160045260246000fd5b9196959493909299989761054861053c60015460018060a01b031690565b6001600160a01b031690565b966001600160a01b0333818a160361056d575050505050505050505050505042600055565b8b163314610584575b505050505050505050505050565b60405163057ff68760e51b8152966020886004818c5afa968715610670576105b78b988b9a600091610696575b506103d9565b60405163e86637db60e01b81529e8f998a996105d99993989360048c01610495565b03815a93600094fa94851561067057600495602091600091610675575b508181519101209160405196878092631cea46b760e31b82525afa9384156106705761062a9560009561063f575b506108b1565b42600055388080808080808080808080610576565b61066291955060203d602011610669575b61065a8183610160565b8101906103a8565b9338610624565b503d610650565b6103b7565b610690913d8091833e6106888183610160565b81019061040e565b386105f6565b6106af915060203d6020116106695761065a8183610160565b386105b1565b156106bc57565b60405162461bcd60e51b8152602060048201526005602482015264047533032360dc1b6044820152606490fd5b60001981146103e65760010190565b60ff6003199116019060ff82116103e657565b1561071257565b60405162461bcd60e51b8152602060048201526005602482015264475330323560d81b6044820152606490fd5b1561074657565b60405162461bcd60e51b8152602060048201526005602482015264475330323760d81b6044820152606490fd5b1561077a57565b60405162461bcd60e51b8152602060048201526005602482015264475330323160d81b6044820152606490fd5b156107ae57565b60405162461bcd60e51b815260206004820152600560248201526423a998191960d91b6044820152606490fd5b156107e257565b60405162461bcd60e51b8152602060048201526005602482015264475330323360d81b6044820152606490fd5b908160209103126100e7575161046d816100ec565b909161083b61046d93604084526040840190610470565b916020818403910152610470565b1561085057565b60405162461bcd60e51b815260206004820152600560248201526411d4cc0c8d60da1b6044820152606490fd5b1561088457565b60405162461bcd60e51b815260206004820152600560248201526423a998191b60d91b6044820152606490fd5b909391936108ca84516108c385610b78565b11156106b5565b600091825b8484106108df5750505050505050565b86858792856109048886906041020160208101519060ff604160408301519201511692565b909160ff81169081610a1f57505061098461097b8783819a61095361094b6109a09b9c519861093c60209b8c9b8c809901201461073f565b6001600160a01b03169c610b78565b831015610773565b61096861095f83610b9d565b825110156107a7565b010192610976845191610b9d565b610bb2565b8d5110156107db565b604051809581926320c13b0b60e01b998a845260048401610824565b0381875afa948515610670576109ec956109e6946109d2936000926109f2575b50506001600160e01b03191614610849565b6001600160a01b039081169083161161087d565b936106e9565b926108cf565b610a119250803d10610a18575b610a098183610160565b81019061080f565b38806109c0565b503d6109ff565b949750919550600194509150838103610aef575050506001600160a01b039182169184168214908115610a63575b506109ec92610a5e6109e69261070b565b6109d2565b54610a7791506001600160a01b031661053c565b604051631f60ca5d60e21b81526001600160a01b03831660048201526024810186905260209390918490839060449082905afa938415610670576109ec946109e693610a5e92600092610ad2575b5050151592505092610a4d565b610ae89250803d106106695761065a8183610160565b3880610ac5565b6109e6935093601e6109ec969511600014610b6e57610b6892610b6289604051610b5981610b4b602082019485603c917f19457468657265756d205369676e6564204d6573736167653a0a3332000000008252601c8201520190565b03601f198101835282610160565b519020916106f8565b90610c10565b916109d2565b610b689288610c10565b8015610b975760418102908104806041036103e6576041036100e75790565b50600090565b60208101908181116103e65781106100e75790565b908101908181116103e65781106100e75790565b60ff601b9116019060ff82116103e657565b15610bdf57565b60405162461bcd60e51b815260206004820152600960248201526824b73b30b634b2103b60b91b6044820152606490fd5b7f7fffffffffffffffffffffffffffffff5d576e7357a4501ddfe92f46681b20a08411610cc357602093600093601b60ff851610610cac575b90610c8d91610c6760ff8616601b8114908115610ca1575b50610bd8565b604051948594859094939260ff6060936080840197845216602083015260408201520152565b838052039060015afa156106705760005190565b601c91501438610c61565b9290610cba610c8d92610bc6565b93909150610c49565b60405162461bcd60e51b815260206004820152600f60248201526e496e76616c696420732076616c756560881b6044820152606490fdfea2646970667358221220535ef08f5479ec49ba4f2128d675d271fa2411cb5256aaf387a0f3d4cf5714aa64736f6c634300081400339016d09d72d40fdae2fd8ceac6b6234c7706214fd39c1cd1e609a0528c199300a26469706673582212205e9c77ead8ff4642c0d81d807f30536e95847a2d95c34f2a32f2948f9b5dd56364736f6c63430008140033",
  "devdoc": {
    "errors": {
      "Create2EmptyBytecode()": [
        {
          "details": "There's no code to deploy."
        }
      ],
      "FailedDeployment()": [
        {
          "details": "The deployment failed."
        }
      ],
      "InsufficientBalance(uint256,uint256)": [
        {
          "details": "The ETH balance of the account is not enough to perform the operation."
        }
      ],
      "InvalidInitialization()": [
        {
          "details": "The contract is already initialized."
        }
      ],
      "NotInitializing()": [
        {
          "details": "The contract is not initializing."
        }
      ],
      "OwnableInvalidOwner(address)": [
        {
          "details": "The owner is not a valid owner account. (eg. `address(0)`)"
        }
      ],
      "OwnableUnauthorizedAccount(address)": [
        {
          "details": "The caller account is not authorized to perform an operation."
        }
      ]
    },
    "events": {
      "Initialized(uint64)": {
        "details": "Triggered when the contract has been initialized or reinitialized."
      }
    },
    "kind": "dev",
    "methods": {
      "cloneLegacy(address,address)": {
        "details": "Deploy a deterministic EIP-1167 minimal-proxy pointing at `implementation`. Caller is expected to invoke the implementation's initializer after this returns. Only usable by the EOA router today; Multisig / Transfer routers still rely on `createLegacy(bytes, address)` for their SafeGuard-paired deployments."
      },
      "getNextCloneAddress(address,address)": {
        "details": "Predict the address of the next EIP-1167 minimal-proxy clone that `cloneLegacy(implementation, user)` would produce. Uses the same salt scheme as `getNextAddress` so callers can migrate without changing nonce semantics."
      },
      "owner()": {
        "details": "Returns the address of the current owner."
      },
      "renounceOwnership()": {
        "details": "Leaves the contract without owner. It will not be possible to call `onlyOwner` functions. Can only be called by the current owner. NOTE: Renouncing ownership will leave the contract without an owner, thereby disabling any functionality that is only available to the owner."
      },
      "transferOwnership(address)": {
        "details": "Transfers ownership of the contract to a new account (`newOwner`). Can only be called by the current owner."
      }
    },
    "version": 1
  },
  "userdoc": {
    "kind": "user",
    "methods": {},
    "version": 1
  },
  "storageLayout": {
    "storage": [
      {
        "astId": 10762,
        "contract": "contracts/common/LegacyDeployer.sol:LegacyDeployer",
        "label": "multisigLegacyRouter",
        "offset": 0,
        "slot": "0",
        "type": "t_address"
      },
      {
        "astId": 10764,
        "contract": "contracts/common/LegacyDeployer.sol:LegacyDeployer",
        "label": "transferLegacyRouter",
        "offset": 0,
        "slot": "1",
        "type": "t_address"
      },
      {
        "astId": 10766,
        "contract": "contracts/common/LegacyDeployer.sol:LegacyDeployer",
        "label": "transferEOALegacyRouter",
        "offset": 0,
        "slot": "2",
        "type": "t_address"
      },
      {
        "astId": 10770,
        "contract": "contracts/common/LegacyDeployer.sol:LegacyDeployer",
        "label": "nonceByUsers",
        "offset": 0,
        "slot": "3",
        "type": "t_mapping(t_address,t_uint256)"
      }
    ],
    "types": {
      "t_address": {
        "encoding": "inplace",
        "label": "address",
        "numberOfBytes": "20"
      },
      "t_mapping(t_address,t_uint256)": {
        "encoding": "mapping",
        "key": "t_address",
        "label": "mapping(address => uint256)",
        "numberOfBytes": "32",
        "value": "t_uint256"
      },
      "t_uint256": {
        "encoding": "inplace",
        "label": "uint256",
        "numberOfBytes": "32"
      }
    }
  }
}