{
  "address": "0xC1000617e198f0Ec7e33399C31CD07d5DeB9FAfF",
  "abi": [
    {
      "inputs": [],
      "stateMutability": "nonpayable",
      "type": "constructor"
    },
    {
      "inputs": [],
      "name": "EmptySource",
      "type": "error"
    },
    {
      "inputs": [],
      "name": "InvalidInitialization",
      "type": "error"
    },
    {
      "inputs": [],
      "name": "NoInlineSecrets",
      "type": "error"
    },
    {
      "inputs": [],
      "name": "NotInitializing",
      "type": "error"
    },
    {
      "inputs": [],
      "name": "OnlyRouterCanFulfill",
      "type": "error"
    },
    {
      "inputs": [
        {
          "internalType": "address",
          "name": "owner",
          "type": "address"
        }
      ],
      "name": "OwnableInvalidOwner",
      "type": "error"
    },
    {
      "inputs": [
        {
          "internalType": "address",
          "name": "account",
          "type": "address"
        }
      ],
      "name": "OwnableUnauthorizedAccount",
      "type": "error"
    },
    {
      "inputs": [
        {
          "internalType": "uint256",
          "name": "value",
          "type": "uint256"
        },
        {
          "internalType": "uint256",
          "name": "length",
          "type": "uint256"
        }
      ],
      "name": "StringsInsufficientHexLength",
      "type": "error"
    },
    {
      "inputs": [
        {
          "internalType": "bytes32",
          "name": "requestId",
          "type": "bytes32"
        }
      ],
      "name": "UnexpectedRequestID",
      "type": "error"
    },
    {
      "anonymous": false,
      "inputs": [
        {
          "indexed": false,
          "internalType": "uint64",
          "name": "version",
          "type": "uint64"
        }
      ],
      "name": "Initialized",
      "type": "event"
    },
    {
      "anonymous": false,
      "inputs": [
        {
          "indexed": true,
          "internalType": "address",
          "name": "previousOwner",
          "type": "address"
        },
        {
          "indexed": true,
          "internalType": "address",
          "name": "newOwner",
          "type": "address"
        }
      ],
      "name": "OwnershipTransferred",
      "type": "event"
    },
    {
      "anonymous": false,
      "inputs": [
        {
          "indexed": true,
          "internalType": "bytes32",
          "name": "id",
          "type": "bytes32"
        }
      ],
      "name": "RequestFulfilled",
      "type": "event"
    },
    {
      "anonymous": false,
      "inputs": [
        {
          "indexed": true,
          "internalType": "bytes32",
          "name": "id",
          "type": "bytes32"
        }
      ],
      "name": "RequestSent",
      "type": "event"
    },
    {
      "anonymous": false,
      "inputs": [
        {
          "indexed": true,
          "internalType": "bytes32",
          "name": "requestId",
          "type": "bytes32"
        },
        {
          "indexed": false,
          "internalType": "bytes",
          "name": "response",
          "type": "bytes"
        },
        {
          "indexed": false,
          "internalType": "bytes",
          "name": "err",
          "type": "bytes"
        }
      ],
      "name": "Response",
      "type": "event"
    },
    {
      "anonymous": false,
      "inputs": [
        {
          "indexed": false,
          "internalType": "string",
          "name": "to",
          "type": "string"
        },
        {
          "indexed": false,
          "internalType": "enum NotifyLib.NotifyType",
          "name": "notifyType",
          "type": "uint8"
        }
      ],
      "name": "SendMail",
      "type": "event"
    },
    {
      "inputs": [],
      "name": "donID",
      "outputs": [
        {
          "internalType": "bytes32",
          "name": "",
          "type": "bytes32"
        }
      ],
      "stateMutability": "view",
      "type": "function"
    },
    {
      "inputs": [],
      "name": "gasLimit",
      "outputs": [
        {
          "internalType": "uint32",
          "name": "",
          "type": "uint32"
        }
      ],
      "stateMutability": "view",
      "type": "function"
    },
    {
      "inputs": [
        {
          "internalType": "bytes32",
          "name": "requestId",
          "type": "bytes32"
        },
        {
          "internalType": "bytes",
          "name": "response",
          "type": "bytes"
        },
        {
          "internalType": "bytes",
          "name": "err",
          "type": "bytes"
        }
      ],
      "name": "handleOracleFulfillment",
      "outputs": [],
      "stateMutability": "nonpayable",
      "type": "function"
    },
    {
      "inputs": [
        {
          "internalType": "address",
          "name": "_router",
          "type": "address"
        },
        {
          "internalType": "uint64",
          "name": "_subscriptionId",
          "type": "uint64"
        },
        {
          "internalType": "bytes32",
          "name": "_donId",
          "type": "bytes32"
        },
        {
          "internalType": "uint32",
          "name": "_gasLimit",
          "type": "uint32"
        },
        {
          "internalType": "address",
          "name": "_sendMailRouter",
          "type": "address"
        }
      ],
      "name": "initialize",
      "outputs": [],
      "stateMutability": "nonpayable",
      "type": "function"
    },
    {
      "inputs": [],
      "name": "mailId",
      "outputs": [
        {
          "internalType": "uint256",
          "name": "",
          "type": "uint256"
        }
      ],
      "stateMutability": "view",
      "type": "function"
    },
    {
      "inputs": [],
      "name": "owner",
      "outputs": [
        {
          "internalType": "address",
          "name": "",
          "type": "address"
        }
      ],
      "stateMutability": "view",
      "type": "function"
    },
    {
      "inputs": [],
      "name": "renounceOwnership",
      "outputs": [],
      "stateMutability": "nonpayable",
      "type": "function"
    },
    {
      "inputs": [],
      "name": "router",
      "outputs": [
        {
          "internalType": "address",
          "name": "",
          "type": "address"
        }
      ],
      "stateMutability": "view",
      "type": "function"
    },
    {
      "inputs": [],
      "name": "s_lastError",
      "outputs": [
        {
          "internalType": "bytes",
          "name": "",
          "type": "bytes"
        }
      ],
      "stateMutability": "view",
      "type": "function"
    },
    {
      "inputs": [],
      "name": "s_lastRequestId",
      "outputs": [
        {
          "internalType": "bytes32",
          "name": "",
          "type": "bytes32"
        }
      ],
      "stateMutability": "view",
      "type": "function"
    },
    {
      "inputs": [],
      "name": "s_lastResponse",
      "outputs": [
        {
          "internalType": "bytes",
          "name": "",
          "type": "bytes"
        }
      ],
      "stateMutability": "view",
      "type": "function"
    },
    {
      "inputs": [
        {
          "internalType": "string",
          "name": "ownerEmail",
          "type": "string"
        },
        {
          "internalType": "string",
          "name": "contractName",
          "type": "string"
        },
        {
          "internalType": "address",
          "name": "contractAddress",
          "type": "address"
        },
        {
          "internalType": "address",
          "name": "activatedBy",
          "type": "address"
        },
        {
          "internalType": "address",
          "name": "safeAddress",
          "type": "address"
        },
        {
          "internalType": "string[]",
          "name": "beneNames",
          "type": "string[]"
        },
        {
          "internalType": "address[]",
          "name": "beneAddresses",
          "type": "address[]"
        }
      ],
      "name": "sendActivatedMutisigToOwner",
      "outputs": [],
      "stateMutability": "nonpayable",
      "type": "function"
    },
    {
      "inputs": [
        {
          "internalType": "string",
          "name": "beneName",
          "type": "string"
        },
        {
          "internalType": "string",
          "name": "beneEmail",
          "type": "string"
        },
        {
          "internalType": "string",
          "name": "contractName",
          "type": "string"
        },
        {
          "internalType": "address[]",
          "name": "listToken",
          "type": "address[]"
        },
        {
          "internalType": "uint256[]",
          "name": "listAmount",
          "type": "uint256[]"
        },
        {
          "internalType": "string[]",
          "name": "listAssetName",
          "type": "string[]"
        },
        {
          "internalType": "address",
          "name": "contractAddress",
          "type": "address"
        },
        {
          "internalType": "bool",
          "name": "remaining",
          "type": "bool"
        }
      ],
      "name": "sendEmailActivatedToBene",
      "outputs": [],
      "stateMutability": "nonpayable",
      "type": "function"
    },
    {
      "inputs": [
        {
          "internalType": "string",
          "name": "toEmail",
          "type": "string"
        },
        {
          "internalType": "string",
          "name": "contractName",
          "type": "string"
        },
        {
          "internalType": "address",
          "name": "activatedByBene",
          "type": "address"
        },
        {
          "internalType": "uint256",
          "name": "timeActivated",
          "type": "uint256"
        },
        {
          "internalType": "address",
          "name": "safeWallet",
          "type": "address"
        },
        {
          "components": [
            {
              "internalType": "address",
              "name": "listToken",
              "type": "address"
            },
            {
              "internalType": "uint256",
              "name": "listAmount",
              "type": "uint256"
            },
            {
              "internalType": "string",
              "name": "listAssetName",
              "type": "string"
            }
          ],
          "internalType": "struct PremiumMailActivated.ListAsset[]",
          "name": "_listAsset",
          "type": "tuple[]"
        },
        {
          "components": [
            {
              "internalType": "string",
              "name": "name",
              "type": "string"
            },
            {
              "internalType": "address",
              "name": "beneAddress",
              "type": "address"
            },
            {
              "internalType": "string[]",
              "name": "listAssetName",
              "type": "string[]"
            },
            {
              "internalType": "uint256[]",
              "name": "listAmount",
              "type": "uint256[]"
            }
          ],
          "internalType": "struct PremiumMailActivated.BeneReceived[]",
          "name": "_listBeneReceived",
          "type": "tuple[]"
        },
        {
          "internalType": "address",
          "name": "contractAddress",
          "type": "address"
        },
        {
          "internalType": "bool",
          "name": "remaining",
          "type": "bool"
        }
      ],
      "name": "sendEmailContractActivatedToOwner",
      "outputs": [],
      "stateMutability": "nonpayable",
      "type": "function"
    },
    {
      "inputs": [
        {
          "internalType": "string[]",
          "name": "beneNames",
          "type": "string[]"
        },
        {
          "internalType": "string[]",
          "name": "beneEmails",
          "type": "string[]"
        },
        {
          "internalType": "string",
          "name": "contractName",
          "type": "string"
        },
        {
          "internalType": "address",
          "name": "safeWallet",
          "type": "address"
        }
      ],
      "name": "sendMailActivatedMultisig",
      "outputs": [],
      "stateMutability": "nonpayable",
      "type": "function"
    },
    {
      "inputs": [
        {
          "internalType": "string[]",
          "name": "beneNames",
          "type": "string[]"
        },
        {
          "internalType": "string[]",
          "name": "beneEmails",
          "type": "string[]"
        },
        {
          "internalType": "string",
          "name": "contractName",
          "type": "string"
        }
      ],
      "name": "sendMailOwnerResetToBene",
      "outputs": [],
      "stateMutability": "nonpayable",
      "type": "function"
    },
    {
      "inputs": [],
      "name": "sendMailRouter",
      "outputs": [
        {
          "internalType": "address",
          "name": "",
          "type": "address"
        }
      ],
      "stateMutability": "view",
      "type": "function"
    },
    {
      "inputs": [
        {
          "internalType": "address",
          "name": "_router",
          "type": "address"
        },
        {
          "internalType": "uint64",
          "name": "_subscriptionId",
          "type": "uint64"
        },
        {
          "internalType": "bytes32",
          "name": "_donId",
          "type": "bytes32"
        },
        {
          "internalType": "uint32",
          "name": "_gasLimit",
          "type": "uint32"
        },
        {
          "internalType": "address",
          "name": "_sendMailRouter",
          "type": "address"
        }
      ],
      "name": "setParams",
      "outputs": [],
      "stateMutability": "nonpayable",
      "type": "function"
    },
    {
      "inputs": [],
      "name": "subscriptionId",
      "outputs": [
        {
          "internalType": "uint64",
          "name": "",
          "type": "uint64"
        }
      ],
      "stateMutability": "view",
      "type": "function"
    },
    {
      "inputs": [
        {
          "internalType": "address",
          "name": "newOwner",
          "type": "address"
        }
      ],
      "name": "transferOwnership",
      "outputs": [],
      "stateMutability": "nonpayable",
      "type": "function"
    }
  ],
  "transactionHash": "0x3952cbdb5b3dd75813668a9695d7b2b00a090633f6be6b587f0d38869d34af7c",
  "args": [],
  "numDeployments": 2,
  "solcInputHash": "d1a536ba96dbac1de11bc542fb5bd4d5",
  "bytecode": "0x608080604052346200011a57600080546001600160a01b03191673b83e47c2bc239b3bf370bc41e1459a34b41238d01790557f66756e2d657468657265756d2d7365706f6c69612d31000000000000000000006001556007805463ffffffff1916620493e01790557ff0c57e16840df040f15088dc2f81fe391c3923bec73e23a9662efc9c229c6a0080549091604082901c60ff166200010b57506001600160401b036002600160401b031982821601620000c5575b6040516144e69081620001208239f35b6001600160401b031990911681179091556040519081527fc7f505b2f371ae2175ee4913f4499e1f2633a7b5936321eed1cdaeb6115181d290602090a1388080620000b5565b63f92ee8a960e01b8152600490fd5b600080fdfe6080604052600436101561001257600080fd5b60003560e01c806309c1ba2e146101575780630ca7617514610152578063202a4b3f1461014d5780633944ea3a146101485780633b128e9c146101435780633d1d24d91461013e5780634b0795a8146101395780635e408c65146101345780635eff1bf41461012f5780636e74336b1461012a578063715018a6146101255780637dad97d11461012057806380a42b8d1461011b57806385de9802146101165780638da5cb5b14610111578063b1e217491461010c578063f2fde38b14610107578063f51fb1cf14610102578063f68016b7146100fd5763f887ea40146100f857600080fd5b611165565b611141565b611095565b610ea3565b610e85565b610e4f565b610d2a565b610c43565b610c25565b610bba565b610b9c565b610b00565b6109e3565b6108d1565b61083a565b61079c565b61054a565b610489565b61028d565b3461017e57600036600319011261017e5760206001600160401b0360025416604051908152f35b600080fd5b634e487b7160e01b600052604160045260246000fd5b606081019081106001600160401b038211176101b457604052565b610183565b608081019081106001600160401b038211176101b457604052565b604081019081106001600160401b038211176101b457604052565b602081019081106001600160401b038211176101b457604052565b90601f801991011681019081106001600160401b038211176101b457604052565b6001600160401b0381116101b457601f01601f191660200190565b81601f8201121561017e5780359061025d8261022b565b9261026b604051948561020a565b8284526020838301011161017e57816000926020809301838601378301015290565b3461017e57606036600319011261017e576001600160401b03600480359060243583811161017e576102c29036908301610246565b9060443584811161017e576102da9036908301610246565b9060009460018060a01b03865416330361044557846003540361042d5783519081116101b4576103138161030e84546104b4565b6112fe565b602080601f83116001146103ac575081906103489588926103a1575b50508160011b916000199060031b1c19161790556113bc565b807f7873807bf6ddc50401cd3d29bbe0decee23fd4d68d273f4b5eb83cded4d2f1726040518061037781611525565b0390a27f85e1543bf2f84fe80c6badbce3648c8539ad1df4d2b3d822938ca0538be727e68280a280f35b01519050388061032f565b91929394601f1984166103cf600460005260008051602061447183398151915290565b9389905b82821061041557505091600193918561034898979694106103fc575b505050811b0190556113bc565b015160001960f88460031b161c191690553880806103ef565b806001869782949787015181550196019401906103d3565b60405163d068bf5b60e01b8152808301869052602490fd5b60405162461bcd60e51b8152602081840152601760248201527f4f6e6c7920726f757465722063616e2066756c66696c6c0000000000000000006044820152606490fd5b3461017e57600036600319011261017e576002546040805191901c6001600160a01b03168152602090f35b90600182811c921680156104e4575b60208310146104ce57565b634e487b7160e01b600052602260045260246000fd5b91607f16916104c3565b60005b8381106105015750506000910152565b81810151838201526020016104f1565b9060209161052a815180928185528580860191016104ee565b601f01601f1916010190565b906020610547928181520190610511565b90565b3461017e5760008060031936011261061a57604051908060045461056d816104b4565b808552916001918083169081156105f057506001146105a7575b6105a3856105978187038261020a565b60405191829182610536565b0390f35b9250600483526000805160206144718339815191525b8284106105d8575050508101602001610597826105a3610587565b805460208587018101919091529093019281016105bd565b8695506105a39693506020925061059794915060ff191682840152151560051b8201019293610587565b80fd5b604435906001600160a01b038216820361017e57565b606435906001600160a01b038216820361017e57565b608435906001600160a01b038216820361017e57565b60c435906001600160a01b038216820361017e57565b60e435906001600160a01b038216820361017e57565b35906001600160a01b038216820361017e57565b6001600160401b0381116101b45760051b60200190565b9080601f8301121561017e578135906106ce8261069f565b926106dc604051948561020a565b828452602092838086019160051b8301019280841161017e57848301915b84831061070a5750505050505090565b82356001600160401b03811161017e57869161072b84848094890101610246565b8152019201916106fa565b81601f8201121561017e5780359161074d8361069f565b9261075b604051948561020a565b808452602092838086019260051b82010192831161017e578301905b828210610785575050505090565b8380916107918461068b565b815201910190610777565b3461017e5760e036600319011261017e576001600160401b0360043581811161017e576107cd903690600401610246565b60243582811161017e576107e5903690600401610246565b6107ed61061d565b6107f5610633565b6107fd610649565b9160a43586811161017e576108169036906004016106b6565b9360c43596871161017e57610832610838973690600401610736565b95611bcf565b005b3461017e57606036600319011261017e576001600160401b0360043581811161017e5761086b9036906004016106b6565b60243582811161017e576108839036906004016106b6565b60443592831161017e5761089e610838933690600401610246565b6002549092906108cc906108c59060401c6001600160a01b03165b6001600160a01b031690565b33146115d5565b611cdc565b3461017e5760008060031936011261061a5760405190806005546108f4816104b4565b808552916001918083169081156105f0575060011461091d576105a3856105978187038261020a565b9250600583526000805160206144318339815191525b82841061094e575050508101602001610597826105a3610587565b80546020858701810191909152909301928101610933565b81601f8201121561017e5780359161097d8361069f565b9261098b604051948561020a565b808452602092838086019260051b82010192831161017e578301905b8282106109b5575050505090565b813581529083019083016109a7565b60e43590811515820361017e57565b6101043590811515820361017e57565b3461017e5761010036600319011261017e5760046001600160401b03813581811161017e57610a159036908401610246565b9060243581811161017e57610a2d9036908501610246565b9060443581811161017e57610a459036908601610246565b9060643581811161017e57610a5d9036908701610736565b60843582811161017e57610a749036908801610966565b9160a43590811161017e5761083896610a8f913691016106b6565b92610a9861065f565b94610aa16109c4565b9661160f565b60a090600319011261017e576001600160a01b03600435818116810361017e57916024356001600160401b038116810361017e57916044359160643563ffffffff8116810361017e5791608435908116810361017e5790565b3461017e576108386001600160401b0363ffffffff610b1e36610aa7565b9591929093610b2b61118e565b60018060a01b03166bffffffffffffffffffffffff60a01b6000541617600055166001600160401b031960025416176002556001551663ffffffff19600754161760075560025490600160401b600160e01b039060401b16906001600160401b0363ffffffff60e01b011617600255565b3461017e57600036600319011261017e576020600154604051908152f35b3461017e5760008060031936011261061a57610bd461118e565b60008051602061445183398151915280546001600160a01b0319811690915581906001600160a01b03167f8be0079c531659141344cd1fd0a4f28419497f9722a3daafe3b4186f6b6457e08280a380f35b3461017e57600036600319011261017e576020600654604051908152f35b3461017e57608036600319011261017e576001600160401b0360043581811161017e57610c749036906004016106b6565b60243582811161017e57610c8c9036906004016106b6565b9160443590811161017e57610ca5903690600401610246565b610cad610633565b90610cc660018060a01b0360025460401c1633146115d5565b60005b83518110156108385780610ce0610ceb9287611bb6565b5151610cf057611b8c565b610cc9565b610d118484610cff8489611bb6565b51610d0a858b611bb6565b51906132f1565b50610d25610d1f8288611bb6565b516143a1565b611b8c565b3461017e57610d3836610aa7565b9160008051602061449183398151915294939454946001600160401b0360ff8760401c1615961680159081610e47575b6001149081610e3d575b159081610e34575b50610e2257600080516020614491833981519152805467ffffffffffffffff19166001179055610dae9486610dfd5761123b565b610db457005b600080516020614491833981519152805460ff60401b19169055604051600181527fc7f505b2f371ae2175ee4913f4499e1f2633a7b5936321eed1cdaeb6115181d290602090a1005b600080516020614491833981519152805460ff60401b1916600160401b17905561123b565b60405163f92ee8a960e01b8152600490fd5b90501538610d7a565b303b159150610d72565b879150610d68565b3461017e57600036600319011261017e57600080516020614451833981519152546040516001600160a01b039091168152602090f35b3461017e57600036600319011261017e576020600354604051908152f35b3461017e57602036600319011261017e576004356001600160a01b038116810361017e5761083890610ed361118e565b6111c7565b9080601f8301121561017e578135610eef8161069f565b92604091610eff8351958661020a565b808552602093848087019260051b8401019381851161017e57858401925b858410610f2e575050505050505090565b6001600160401b03843581811161017e57860191606080601f19858803011261017e57845190610f5d82610199565b610f688b860161068b565b8252858501358b83015284013592831161017e57610f8d868b80969581960101610246565b85820152815201930192610f1d565b9080601f8301121561017e578135610fb38161069f565b92604091610fc38351958661020a565b808552602093848087019260051b8401019381851161017e57858401925b858410610ff2575050505050505090565b6001600160401b03843581811161017e57860191608080601f19858803011261017e57845190611021826101b9565b8a85013584811161017e57878c61103a92880101610246565b825261104786860161068b565b8b8301526060908186013585811161017e57888d611067928901016106b6565b8784015285013593841161017e57611086878c80979681970101610966565b90820152815201930192610fe1565b3461017e5761012036600319011261017e576001600160401b0360043581811161017e576110c7903690600401610246565b60243582811161017e576110df903690600401610246565b906110e861061d565b906110f1610649565b60a43585811161017e57611109903690600401610ed8565b9060c43595861161017e57611125610838963690600401610f9c565b9261112e610675565b946111376109d3565b96606435926117c9565b3461017e57600036600319011261017e57602063ffffffff60075416604051908152f35b3461017e57600036600319011261017e576000546040516001600160a01b039091168152602090f35b600080516020614451833981519152546001600160a01b031633036111af57565b60405163118cdaa760e01b8152336004820152602490fd5b6001600160a01b039081169081156112225760008051602061445183398151915280546001600160a01b031981168417909155167f8be0079c531659141344cd1fd0a4f28419497f9722a3daafe3b4186f6b6457e0600080a3565b604051631e4fbdf760e01b815260006004820152602490fd5b600080546001600160a01b0319166001600160a01b03909216919091179055600280546001939093556007805463ffffffff191663ffffffff909516949094179093556001600160e01b03199091166001600160401b03919091161760409290921b68010000000000000000600160e01b03169190911790556112bc6112cf565b6112c46112cf565b6112cd336111c7565b565b60ff6000805160206144918339815191525460401c16156112ec57565b604051631afcd79f60e31b8152600490fd5b601f811161130a575050565b60009060048252600080516020614471833981519152906020601f850160051c83019410611353575b601f0160051c01915b82811061134857505050565b81815560010161133c565b9092508290611333565b601f8111611369575050565b60009060058252600080516020614431833981519152906020601f850160051c830194106113b2575b601f0160051c01915b8281106113a757505050565b81815560010161139b565b9092508290611392565b9081516001600160401b0381116101b4576113e1816113dc6005546104b4565b61135d565b602080601f831160011461141d5750819293600092611412575b50508160011b916000199060031b1c191617600555565b0151905038806113fb565b90601f1983169461143e600560005260008051602061443183398151915290565b926000905b87821061147b575050836001959610611462575b505050811b01600555565b015160001960f88460031b161c19169055388080611457565b80600185968294968601518155019501930190611443565b600554600092916114a3826104b4565b8082529160019081811690811561150857506001146114c157505050565b919293506005600052600080516020614431833981519152916000925b8484106114f057505060209250010190565b805460208585018101919091529093019281016114de565b915050602093945060ff929192191683830152151560051b010190565b604081526000600454611537816104b4565b9081604085015260019081811690816000146115b05750600114611569575b5050816020610547938303910152611493565b6004600090815292506000805160206144718339815191525b82841061159a57505050810160600161054738611556565b8054606085870101526020909301928101611582565b9050610547949350606092915060ff191682840152151560051b820101909138611556565b156115dc57565b60405162461bcd60e51b815260206004820152600b60248201526a27b7363c903937baba32b960a91b6044820152606490fd5b909660018060a01b039061162b8260025460401c1633146115d5565b611649575091869593916112cd976116439694612126565b506143a1565b939791969061165a88979497612c29565b90611663611dd3565b946000955b89518710156117775761168b61167e888c611bb6565b516001600160a01b031690565b908882168d811561175f5750604051809163313ce56760e01b825281600460209384935afa93841561175a578f928b6116d96116f7976116df936116e59660009261172d575b50509361223d565b94611bb6565b51612419565b906116f08a8d611bb6565b5192611e37565b956117028a51611efa565b8110611718575b61171290611b8c565b95611668565b9561172561171291611f18565b969050611709565b61174c9250803d10611753575b611744818361020a565b810190611dfb565b38806116d1565b503d61173a565b611e14565b90506116e56116f7936116df8b6116d960129361223d565b6117b5959b506117ae94995061164398506117c497506112cd9a91929396506117a26117a891611f50565b9261223d565b92612cb3565b9185612835565b906117be612a5c565b916120d2565b6134fe565b979896909695919392949560018060a01b0398600254956117f18b604098891c1633146115d5565b6117fb8951612f9b565b97611804611dd3565b9c60005b8b51811015611959578a8e9f8d9e9f9b8e819e9f6118298661183792611bb6565b51516001600160a01b031690565b936118486108b96118298885611bb6565b1561193c5750505163313ce56760e01b81529b6020908d90600490829086165afa9b8c1561175a578f9c8f908f908f936116d96118ac6118df986118a76118d6958c9560009161191d575b505b61189f868a611bb6565b9060ff169052565b61223d565b946118d06118c98460206118c0828c611bb6565b51015193611bb6565b5160ff1690565b90612419565b51015192611e37565b6118ea819b51611efa565b8210611907575b506118fb90611b8c565b9d9c9b9a99989d611808565b6118fb919a5061191690611f18565b99906118f1565b611936915060203d60201161175357611744818361020a565b38611893565b909d508d916118d6866116d96118ac6118df986118a76012611895565b5092959a9c90939697995061197091949b50611f50565b9a611979612fc3565b9b60009c5b8d8c511115611afa579b8b6119c28f9e8f6119bc6118a760206119ad6119a48589611bb6565b51519488611bb6565b5101516001600160a01b031690565b91612ff3565b9d60606119d96119d0611dc0565b92600094611bb6565b51015151821015611a9e57918f828f9e9d9c9a9896948f9c9a9896948f8f8f611a589481611a4286611a4f96611a2d8c611a3c81996118d06118c98760609f606090611a3591611a499f89611a2d91611bb6565b510151611bb6565b5193611bb6565b95611bb6565b5191613095565b9f611bb6565b51015151611efa565b8110611a80575b606091611a6e6119d992611b8c565b9496989a9c939597999b9d9e9f611bb6565b9a606091611a6e611a936119d993611f18565b9d9250509150611a5f565b611ad992939495969798999a9f9b9c9e611ad39250611ac88f92611ac190613101565b9251611efa565b8d10611aea5761313b565b99611b8c565b9c97969594939291909b999861197e565b90611af490611f18565b9061313b565b6117b5979d50611b67969b506116439a506117c4995097611b236112cd9d929394959699611f50565b93611b53611b4d611b4d611b48611b42611b3c86612e24565b9e61223d565b9a6122df565b612919565b9361223d565b9515611b6e57611b61613192565b966131b3565b9185612869565b611b61613170565b634e487b7160e01b600052601160045260246000fd5b6000198114611b9b5760010190565b611b76565b634e487b7160e01b600052603260045260246000fd5b8051821015611bca5760209160051b010190565b611ba0565b90959492939691611bee60018060a01b0360025460401c1633146115d5565b604051611bfa816101d4565b601081526f62656e656669636961726965733a205b60801b6020820152946000955b8751871015611c8057611c4a90611c338888611bb6565b51611c446118a761167e8b8d611bb6565b91612d92565b95611c558851611efa565b8110611c6b575b611c6590611b8c565b95611c1c565b95611c78611c6591611f18565b969050611c5c565b6117b593975061164396506117c4955097611cd5929499611ca36112cd9a611f50565b92611cbf611cb9611cb385612e24565b9861223d565b9161223d565b90611ccf611b4d611b48426122df565b93612e69565b918561284f565b9291909260005b8151811015611db95780611cfa611d059287611bb6565b5151611d0a57611b8c565b611ce3565b611da56117c4611d1a8386611bb6565b516117b5611d28858b611bb6565b5191611d9f8960405192611d9a604a8560207f5468652061637469766174696f6e2074696d656c696e65206f66200000000000818301526e081a185cc81899595b881c995cd95d608a1b8651611d8681603b94858701908b016104ee565b83019182015203602a81018752018561020a565b61342e565b92612624565b50610d25611db38288611bb6565b516143f4565b5050509050565b60405190611dcd826101ef565b60008252565b60405190611de0826101d4565b600c82526b6c69737441737365743a205b60a01b6020830152565b9081602091031261017e575160ff8116810361017e5790565b6040513d6000823e3d90fd5b90611e33602092828151948592016104ee565b0190565b906112cd929493604f92611edf6040519788948351611e5e8160209687808b0191016104ee565b860170202020207b6173736574416464723a202760781b85820152611e8c82518093876031850191016104ee565b016b272c20616d6f756e743a202760a01b6031820152611eb58251809386603d850191016104ee565b01916e272c2061737365744e616d653a202760881b603d8401528351938491604c850191016104ee565b016227207d60e81b604c82015203602f81018552018361020a565b600019810191908211611b9b57565b601f19810191908211611b9b57565b906112cd602160405184611f368296518092602080860191016104ee565b8101600b60fa1b602082015203600181018552018361020a565b906112cd602160405184611f6e8296518092602080860191016104ee565b8101605d60f81b602082015203600181018552018361020a565b906112cd604f60405184611fa68296518092602080860191016104ee565b81017f20416374697661746564202d20596f752068617665205265636569766564205960208201526e6f757220496e6865726974616e636560881b604082015203602f81018552018361020a565b60599194936112cd936040519687936c2062656e655f6e616d653a202760981b602086015261202d815180926020602d890191016104ee565b840173272c2020636f6e74726163745f6e616d653a202760601b602d8201526120608251809360206041850191016104ee565b016109cb60f21b60418201526120808251809360206043850191016104ee565b01742c20636f6e74726163745f616464726573733a202760581b60438201526120b38251809360206058850191016104ee565b016120c460588201602760f81b9052565b03603981018552018361020a565b6112cd9193929360405194859183516120f3816020968780880191016104ee565b8301612107825180938780850191016104ee565b0161211a825180938680850191016104ee565b0103808552018361020a565b929493969195612134611dd3565b936000945b87518610156121fc5761214f61167e878a611bb6565b906001600160a01b0382168b81156121e45750604051809163313ce56760e01b825281600460209384935afa93841561175a576116df8a8f946121ae976116d9916121a39660009261172d5750509361223d565b906116f0898b611bb6565b946121b98851611efa565b81106121cf575b6121c990611b8c565b94612139565b946121dc6121c991611f18565b9590506121c0565b90506121a36121ae936116df8a6116d960129361223d565b6105479891929499506117c497506122379396506117b5955061221e90611f50565b9061223161222b82611f88565b9561223d565b92611ff4565b9261281b565b6001600160a01b03168061224f612327565b91603061225b846123a8565b536078612267846123b5565b5360295b6001811161229d575061227c575090565b60405163e22e27eb60e01b8152600481019190915260146024820152604490fd5b90600f8116906010821015611bca576122da916f181899199a1a9b1b9c1cb0b131b232b360811b901a6122d084876123c5565b5360041c916123d6565b61226b565b906103e891828102928184041490151715611b9b57565b908160011b9180830460021490151715611b9b57565b9060208201809211611b9b57565b91908201809211611b9b57565b6040519061233482610199565b602a82526040366020840137565b6040519061234f826101d4565b6006825260203681840137565b60405190612369826101d4565b6007825260203681840137565b906123808261022b565b61238d604051918261020a565b828152809261239e601f199161022b565b0190602036910137565b805115611bca5760200190565b805160011015611bca5760210190565b908151811015611bca570160200190565b8015611b9b576000190190565b60ff16604d8111611b9b57600a0a90565b634e487b7160e01b600052601260045260246000fd5b8115612414570490565b6123f4565b9060ff811680156124ed5761242d826123e3565b9182156124145761243d906123e3565b801561241457830690806006106124ab575b509161249d6124766105479361246f61246a61248a976124f4565b61258e565b93046124f4565b916124976040519586946020860190611e20565b601760f91b815260010190565b90611e20565b03601f19810183528261020a565b9092906005190160ff8111611b9b576124766105479361246f61246a6124e061248a986124da61249d976123e3565b9061240a565b959750505093505061244f565b5050610547905b8015612570576000818181805b612558575061250f81612376565b935b61251b5750505090565b61252490611efa565b90600a9060308282068101809111611b9b5760f81b6001600160f81b031916841a61254f84876123c5565b53049081612511565b9150612565600a91611b8c565b910480849291612501565b5060405161257d816101d4565b60018152600360fc1b602082015290565b906006825110156112cd576125a1612342565b825160060360068111611b9b57600093845b82811061260f5750845b815181101561260757806125e56125d761260293856123c5565b516001600160f81b03191690565b6125fc6125f2838761231a565b91891a91876123c5565b53611b8c565b6125bd565b509193505050565b8060306125fc61261f93876123c5565b6125b3565b9060405190612632826101ef565b6000825261263e61289d565b604051938493602085017f636f6e737420656d61696c55524c203d202768747470733a2f2f6170692e6d6190526040850174696c6a65742e636f6d2f76332e312f73656e64273b60581b9052605585017f636f6e73742061757468486561646572203d2027426173696320000000000000905280519081606f870191602001916126c7926104ee565b8401606f81016126db9061273b60f01b9052565b7f636f6e737420656d61696c44617461203d207b204d657373616765733a20000060718201527f5b207b2046726f6d3a207b456d61696c3a20276170704031303130322e696f27608f8201527f2c204e616d653a2027313031303220506c6174666f726d272c7d2c000000000060af82015260ca016e546f3a205b207b456d61696c3a202760881b8152600f0161277191611e20565b6e09cb0813985b594e89c9cb1f4b174b608a1b81526b02a32b6b83630ba32a4a21d160a51b600f820152601b016127a791611e20565b7f2c2054656d706c6174654c616e67756167653a20747275652c000000000000008152695375626a6563743a202760b01b60198201526023016127e991611e20565b6109cb60f21b81526b5661726961626c65733a207b60a01b60028201520360111981018252600e01610547908261020a565b9060405190612829826101ef565b6000825261263e6128dd565b9060405190612843826101ef565b6000825261263e6128e9565b906040519061285d826101ef565b6000825261263e6128f5565b9060405190612877826101ef565b6000825261263e612901565b9060405190612891826101ef565b6000825261263e61290d565b626e1f736128a961235c565b90602782015b6000190190600a906f181899199a1a9b1b9c1cb0b131b232b360811b8282061a83530490816128af57505090565b626e1f6f6128a961235c565b626e1f706128a961235c565b627144186128a961235c565b626e1f726128a961235c565b626e1f716128a961235c565b806000917a184f03e93ff9f4daa797ed6e38ed64bf6a1f01000000000000000080821015612a4e575b506d04ee2d6d415b85acef810000000080831015612a3f575b50662386f26fc1000080831015612a30575b506305f5e10080831015612a21575b5061271080831015612a12575b506064821015612a02575b600a809210156129f8575b6001908160216129b0828701612376565b95860101905b6129c2575b5050505090565b600019019083906f181899199a1a9b1b9c1cb0b131b232b360811b8282061a8353049182156129f3579190826129b6565b6129bb565b916001019161299f565b9190606460029104910191612994565b60049193920491019138612989565b6008919392049101913861297c565b6010919392049101913861296d565b6020919392049101913861295b565b604093508104915038612942565b604051677d2c7d2c5d2c7d3b60c01b60208201527f636f6e737420726573706f6e7365203d2061776169742046756e6374696f6e736028820152712e6d616b654874747052657175657374287b60701b60488201526f08081d5c9b0e88195b585a5b1554930b60821b605a8201527008081b595d1a1bd90e8809d413d4d509cb607a1b606a8201527f2020686561646572733a207b2027436f6e74656e742d54797065273a20276170607b8201527f706c69636174696f6e2f6a736f6e272c2027417574686f72697a6174696f6e27609b8201526e0e88185d5d1a12195859195c881f4b608a1b60bb820152702020646174613a20656d61696c4461746160781b60ca820152627d293b60e81b60db8201527f69662028726573706f6e73652e6572726f7229207468726f77204572726f722860de8201527f604661696c656420746f2073656e6420656d61696c3a20247b4a534f4e2e737460fe8201527472696e6769667928726573706f6e7365297d60293b60581b61011e8201527f72657475726e2046756e6374696f6e732e656e636f6465537472696e672827456101338201526c6d61696c2073656e742127293b60981b6101538201526101408152906112cd6101608361020a565b906112cd606760405184612c478296518092602080860191016104ee565b81017f2041637469766174656420776974682052656d61696e696e672046756e64732060208201527f2d20596f752068617665205265636569766564205061727469616c20496e6865604082015266726974616e636560c81b606082015203604781018552018361020a565b605a9194936112cd936040519687936d202062656e655f6e616d653a202760901b6020860152612ced815180926020602e890191016104ee565b840173272c2020636f6e74726163745f6e616d653a202760601b602e820152612d208251809360206042850191016104ee565b016109cb60f21b6042820152612d408251809360206044850191016104ee565b01742c20636f6e74726163745f616464726573733a202760581b6044820152612d738251809360206059850191016104ee565b01612d8460598201602760f81b9052565b03603a81018552018361020a565b603b906112cd9294936040519582612db48894518092602080880191016104ee565b83016a20207b206e616d653a202760a81b6020820152612dde825180936020602b850191016104ee565b016c272c20616464726573733a202760981b602b820152612e098251809360206038850191016104ee565b016227207d60e81b603882015203601b81018552018361020a565b906112cd602e60405184612e428296518092602080860191016104ee565b81016d0815d85cc81058dd1a5d985d195960921b602082015203600e81018552018361020a565b93919594929095604051968795602087016f636f6e74726163745f6e616d653a202760801b905280519081603089019160200191612ea6926104ee565b86016030810175272c20636f6e74726163745f616464726573733a202760501b905281519182604683019160200191612ede926104ee565b01604681017f272c2062656e65666963696172795f616464726573733a202700000000000000905281519182605f83019160200191612f1c926104ee565b01605f81017f272c202061637469766174696f6e5f646174653a206e657720446174652800009052607d01612f5091611e20565b71292c20736166655f616464726573733a202760701b8152601201612f7491611e20565b6201396160ed1b8152600301612f8991611e20565b03601f19810183526112cd908361020a565b90612fa58261069f565b612fb2604051918261020a565b828152809261239e601f199161069f565b60405190612fd0826101d4565b60148252736c69737442656e656669636961726965733a205b60601b6020830152565b604b906112cd92949360405195826130158894518092602080880191016104ee565b83016f202020207b62656e654e616d653a202760801b60208201526130448251809360206030850191016104ee565b016d272c2062656e65416464723a202760901b6030820152613070825180936020603e850191016104ee565b016c272c20616d6f756e74733a202760981b603e82015203602b81018552018361020a565b6112cd9160229194939460405195869282516130b9816020958680890191016104ee565b84016130cd825180938680850191016104ee565b016130ec600160fd1b93848184015283519384916021850191016104ee565b0190602182015203600281018552018361020a565b906112cd60236040518461311f8296518092602080860191016104ee565b81016227207d60e81b602082015203600381018552018361020a565b60206112cd91939293604051948161315c87935180928680870191016104ee565b820161211a825180938680850191016104ee565b6040519061317d826101d4565b600682526566616c73652760d01b6020830152565b6040519061319f826101d4565b6005825264747275652760d81b6020830152565b959391979694929097604051988997602089016c2062656e655f616464723a202760981b905280519081602d8b0191602001916131ef926104ee565b8801602d810173272c2020636f6e74726163745f6e616d653a202760601b905281519182604183019160200191613225926104ee565b0160418101613253907f272c20206163746976655f646174653a206e65772044617465280000000000009052565b605b0161325f91611e20565b70292c20736166655f77616c6c65743a202760781b815260110161328291611e20565b6109cb60f21b815260020161329691611e20565b600b60fa1b81526001016132a991611e20565b742c20636f6e74726163745f616464726573733a202760581b81526015016132d091611e20565b6e272c2072656d61696e696e673a202760881b8152600f01612f8991611e20565b610547936133e09261342960526117b5946117c497604051957f596f752048617665204265656e204164646564206173206120436f2d5369676e60208801527f657220746f2074686520536166652057616c6c657420666f722000000000000060408801526133848251916118a7605a8a602087019561337481848401896104ee565b810103603a81018c52018a61020a565b91604051998a946b62656e655f6e616d653a202760a01b60208701526133b4815180926020602c8a0191016104ee565b85019172272c20636f6e74726163745f6e616d653a202760681b602c840152518093603f8401906104ee565b0171272c20736166655f616464726573733a202760701b603f8201526134108251809360206051850191016104ee565b01602760f81b605182015203603281018752018561020a565b612883565b60406112cd9193929381519485916b62656e655f6e616d653a202760a01b6020840152613465815180926020602c870191016104ee565b820172272c20636f6e74726163745f6e616d653a202760681b602c820152613497825180936020603f850191016104ee565b01602760f81b603f82015203602081018552018361020a565b9081602091031261017e575190565b906134ec6080936001600160401b0363ffffffff939897969816845260a0602085015260a0840190610511565b95600160408401521660608201520152565b60405160e081018181106001600160401b038211176101b45760405261355060009283835283602084015283604084015260608084015260606080840152606060a0840152606060c084015282613907565b8154602090613569906108b9906001600160a01b031681565b61358461357e6002546001600160401b031690565b93613739565b9061359460075463ffffffff1690565b9185600154956135ba6040519788968795869463230e93b160e11b8652600486016134bf565b03925af190811561175a576135d592916135db575b50600355565b60035490565b6135fc915060203d8111613602575b6135f4818361020a565b8101906134b0565b386135cf565b503d6135ea565b60405190613616826101d4565b600c82526b31b7b232a637b1b0ba34b7b760a11b6020830152565b634e487b7160e01b600052602160045260246000fd5b6003111561365157565b613631565b60405190613663826101d4565b60088252676c616e677561676560c01b6020830152565b6001111561365157565b60405190613691826101d4565b6006825265736f7572636560d01b6020830152565b604051906136b3826101d4565b60048252636172677360e01b6020830152565b604051906136d3826101d4565b600f82526e39b2b1b932ba39a637b1b0ba34b7b760891b6020830152565b604051906136fe826101d4565b60078252667365637265747360c81b6020830152565b60405190613721826101d4565b600982526862797465734172677360b81b6020830152565b61374161394a565b9061375361374d613609565b83614062565b613770815161376181613647565b61376a81613647565b836139ec565b61377b61374d613656565b613795604082015161378c8161367a565b61376a8161367a565b6137a061374d613684565b6137ae606082015183614062565b60a081018051516138ae575b50608081019081515161382e575b60c09150018051516137db575b50515190565b916137e761374d613714565b6137f0826140e6565b60005b8351805182101561381b5790610d2561380f8261381694611bb6565b5185613fad565b6137f3565b5050915061382881614172565b386137d5565b60208101805161383d81613647565b61384681613647565b1561389c5760c09261387f613897926138666138606136c6565b88614062565b5161387081613647565b61387981613647565b866139ec565b61389061388a6136f1565b86614062565b5184613fad565b6137c8565b60405163a80d31f760e01b8152600490fd5b926138c06138ba6136a6565b84614062565b6138c9836140e6565b60005b845180518210156138f45790610d256138e8826138ef94611bb6565b5186614062565b6138cc565b5050925061390182614172565b386137ba565b81511561391e576000808252604082015260600152565b6040516322ce3edd60e01b8152600490fd5b6040519061393d826101d4565b6000602083606081520152565b604051613956816101d4565b61395e613930565b8082526020820160008152613971613930565b50610100602083015260405180925260008252610120820191821061017e576000916040525290565b906139a3613930565b50601f8116806139d2575b508060208301526040519081835260008252810160200190811061017e5760405290565b60200360208111611b9b578101809111611b9b57386139ae565b908151916139f8613930565b508251516001810190818111611b9b576020850151811015613a51575b60c260206112cd9651928301015380518211613a49575b505060405191602083015260208252613a44826101d4565b613fad565b523880613a2c565b8160011b9482860460021483151715611b9b57602081613a836112cd98613a7c60c29551918461399a565b5082613ef5565b5096505050613a15565b613a95613930565b508051516001810190818111611b9b576020830151811015613ace575b605b60208451928301015380518211613aca57505090565b5290565b8160011b82810460021483151715611b9b57613af790613af08551918661399a565b5084613ef5565b50613ab2565b613b05613930565b508051516001810190818111611b9b576020830151811015613b3a575b605a60208451928301015380518211613aca57505090565b8160011b82810460021483151715611b9b57613b5c90613af08551918661399a565b50613b22565b613b6a613930565b508051516001810190818111611b9b576020830151811015613b9f575b605960208451928301015380518211613aca57505090565b8160011b82810460021483151715611b9b57613bc190613af08551918661399a565b50613b87565b613bcf613930565b508051516001810190818111611b9b576020830151811015613c04575b605860208451928301015380518211613aca57505090565b8160011b82810460021483151715611b9b57613c2690613af08551918661399a565b50613bec565b613c34613930565b508051516001810190818111611b9b576020830151811015613c69575b607b60208451928301015380518211613aca57505090565b8160011b82810460021483151715611b9b57613c8b90613af08551918661399a565b50613c51565b613c99613930565b508051516001810190818111611b9b576020830151811015613cce575b607a60208451928301015380518211613aca57505090565b8160011b82810460021483151715611b9b57613cf090613af08551918661399a565b50613cb6565b613cfe613930565b508051516001810190818111611b9b576020830151811015613d33575b607960208451928301015380518211613aca57505090565b8160011b82810460021483151715611b9b57613d5590613af08551918661399a565b50613d1b565b613d63613930565b508051516001810190818111611b9b576020830151811015613d98575b607860208451928301015380518211613aca57505090565b8160011b82810460021483151715611b9b57613dba90613af08551918661399a565b50613d80565b90613dc9613930565b508151516001810191828211611b9b576020840151821015613dfc575b60208451928301015380518211613aca57505090565b8260011b83810460021484151715611b9b57613e2590613e1e8651918761399a565b5085613ef5565b50613de6565b90613e388251918361399a565b50613e41613930565b50805190613e4d613930565b50613e5b8151831115613fa6565b82515192613e69838561231a565b916020928284809401518211613ede575b5183815197820101968211613ed6575b505001915b81811015613eb05760001991036101000a0190811990511690825116179052565b9192613ecb613ec5613ed1928651815261230c565b9461230c565b92611f09565b613e8f565b523880613e8a565b613ef0613eea836122f6565b82613e2b565b613e7a565b90613efe613930565b508051613f09613930565b50613f178251821115613fa6565b82515191613f25828461231a565b6020918291828701518111613f8f575b865183815197820101968211613f87575b505001915b81811015613f6d5760001991036101000a019081199051169082511617905290565b9192613ecb613ec5613f82928651815261230c565b613f4b565b523880613f46565b613fa1613f9b826122f6565b88613e2b565b613f35565b1561017e57565b8151613fe49291906001600160401b0381169060178211613fe757613fdc9150604060ff845192161790613dc0565b505b51613ef5565b50565b5060ff811161400c5761400690613ffe8351613bc7565b50825161433b565b50613fde565b61ffff811161402b57614006906140238351613b62565b5082516142d4565b63ffffffff811161404c57614006906140448351613afd565b50825161426b565b6140069061405a8351613a8d565b5082516141ff565b8151613fe49291906001600160401b038116906017821161409157613fdc9150606060ff845192161790613dc0565b5060ff81116140a85761400690613ffe8351613d5b565b61ffff81116140bf57614006906140238351613cf6565b63ffffffff81116140d857614006906140448351613c91565b6140069061405a8351613c2c565b8051906140f1613930565b508151516001810190818111611b9b57602084015181101561413f575b609f6020809551928301015380518211614137575b50500180519060018201809211611b9b5752565b523880614123565b8160011b9382850460021483151715611b9b576020816141688297613a7c609f9551918461399a565b509550505061410e565b80519061417d613930565b508151516001810190818111611b9b5760208401518110156141cc575b60ff60208095519283010153805182116141c4575b5050018051600019810191908211611b9b5752565b5238806141af565b8160011b9382850460021483151715611b9b576020816141f58297613a7c60ff9551918461399a565b509550505061419a565b90614208613930565b50815151806008019182600811611b9b576020840151831161424a575b6008845192830101906001600160401b031982511617905280518211613aca57505090565b8260011b83810460021484151715611b9b576142669085613e2b565b614225565b90614274613930565b50815151806004019182600411611b9b57602084015183116142b3575b60048451928301019063ffffffff1982511617905280518211613aca57505090565b8260011b83810460021484151715611b9b576142cf9085613e2b565b614291565b906142dd613930565b50815151806002019182600211611b9b576020840151831161431a575b60028451928301019061ffff1982511617905280518211613aca57505090565b8260011b83810460021484151715611b9b576143369085613e2b565b6142fa565b90614344613930565b50815151806001019182600111611b9b5760208401518311614380575b60018451928301019060ff1982511617905280518211613aca57505090565b8260011b83810460021484151715611b9b5761439c9085613e2b565b614361565b6143e87fe945c25e663b7f927fca5b167e9d99e30aac67d2f2c39fac12b6618f57481e92916143d1600654611b8c565b600655604051918291604083526040830190610511565b600860208301520390a1565b6144247fe945c25e663b7f927fca5b167e9d99e30aac67d2f2c39fac12b6618f57481e92916143d1600654611b8c565b600960208301520390a156fe036b6384b5eca791c62761152d0c79bb0604c104a5fb6f4eb0703f3154bb3db09016d09d72d40fdae2fd8ceac6b6234c7706214fd39c1cd1e609a0528c1993008a35acfbc15ff81a39ae7d344fd709f28e8600b4aa8c65c6b64bfe7fe36bd19bf0c57e16840df040f15088dc2f81fe391c3923bec73e23a9662efc9c229c6a00a26469706673582212205983ac278494d3000cf992943c0b824879dfc9b1880e93c44d5e02e683e822fb64736f6c63430008140033",
  "devdoc": {
    "errors": {
      "InvalidInitialization()": [
        {
          "details": "The contract is already initialized."
        }
      ],
      "NotInitializing()": [
        {
          "details": "The contract is not initializing."
        }
      ],
      "OwnableInvalidOwner(address)": [
        {
          "details": "The owner is not a valid owner account. (eg. `address(0)`)"
        }
      ],
      "OwnableUnauthorizedAccount(address)": [
        {
          "details": "The caller account is not authorized to perform an operation."
        }
      ],
      "StringsInsufficientHexLength(uint256,uint256)": [
        {
          "details": "The `value` string doesn't fit in the specified `length`."
        }
      ]
    },
    "events": {
      "Initialized(uint64)": {
        "details": "Triggered when the contract has been initialized or reinitialized."
      }
    },
    "kind": "dev",
    "methods": {
      "owner()": {
        "details": "Returns the address of the current owner."
      },
      "renounceOwnership()": {
        "details": "Leaves the contract without owner. It will not be possible to call `onlyOwner` functions. Can only be called by the current owner. NOTE: Renouncing ownership will leave the contract without an owner, thereby disabling any functionality that is only available to the owner."
      },
      "transferOwnership(address)": {
        "details": "Transfers ownership of the contract to a new account (`newOwner`). Can only be called by the current owner."
      }
    },
    "version": 1
  },
  "userdoc": {
    "kind": "user",
    "methods": {},
    "version": 1
  },
  "storageLayout": {
    "storage": [
      {
        "astId": 31753,
        "contract": "contracts/premium/PremiumMailActivated.sol:PremiumMailActivated",
        "label": "router",
        "offset": 0,
        "slot": "0",
        "type": "t_address"
      },
      {
        "astId": 31756,
        "contract": "contracts/premium/PremiumMailActivated.sol:PremiumMailActivated",
        "label": "donID",
        "offset": 0,
        "slot": "1",
        "type": "t_bytes32"
      },
      {
        "astId": 31758,
        "contract": "contracts/premium/PremiumMailActivated.sol:PremiumMailActivated",
        "label": "subscriptionId",
        "offset": 0,
        "slot": "2",
        "type": "t_uint64"
      },
      {
        "astId": 31760,
        "contract": "contracts/premium/PremiumMailActivated.sol:PremiumMailActivated",
        "label": "sendMailRouter",
        "offset": 8,
        "slot": "2",
        "type": "t_address"
      },
      {
        "astId": 31765,
        "contract": "contracts/premium/PremiumMailActivated.sol:PremiumMailActivated",
        "label": "s_lastRequestId",
        "offset": 0,
        "slot": "3",
        "type": "t_bytes32"
      },
      {
        "astId": 31767,
        "contract": "contracts/premium/PremiumMailActivated.sol:PremiumMailActivated",
        "label": "s_lastResponse",
        "offset": 0,
        "slot": "4",
        "type": "t_bytes_storage"
      },
      {
        "astId": 31769,
        "contract": "contracts/premium/PremiumMailActivated.sol:PremiumMailActivated",
        "label": "s_lastError",
        "offset": 0,
        "slot": "5",
        "type": "t_bytes_storage"
      },
      {
        "astId": 31771,
        "contract": "contracts/premium/PremiumMailActivated.sol:PremiumMailActivated",
        "label": "mailId",
        "offset": 0,
        "slot": "6",
        "type": "t_uint256"
      },
      {
        "astId": 31774,
        "contract": "contracts/premium/PremiumMailActivated.sol:PremiumMailActivated",
        "label": "gasLimit",
        "offset": 0,
        "slot": "7",
        "type": "t_uint32"
      }
    ],
    "types": {
      "t_address": {
        "encoding": "inplace",
        "label": "address",
        "numberOfBytes": "20"
      },
      "t_bytes32": {
        "encoding": "inplace",
        "label": "bytes32",
        "numberOfBytes": "32"
      },
      "t_bytes_storage": {
        "encoding": "bytes",
        "label": "bytes",
        "numberOfBytes": "32"
      },
      "t_uint256": {
        "encoding": "inplace",
        "label": "uint256",
        "numberOfBytes": "32"
      },
      "t_uint32": {
        "encoding": "inplace",
        "label": "uint32",
        "numberOfBytes": "4"
      },
      "t_uint64": {
        "encoding": "inplace",
        "label": "uint64",
        "numberOfBytes": "8"
      }
    }
  }
}