{
  "address": "0xad1e0C875D76F20A6f4400F5E7Af5ea8FE0fe8e4",
  "abi": [
    {
      "inputs": [],
      "name": "AlreadyUnlocked",
      "type": "error"
    },
    {
      "inputs": [],
      "name": "InvalidInitialization",
      "type": "error"
    },
    {
      "inputs": [],
      "name": "NoTokensToLock",
      "type": "error"
    },
    {
      "inputs": [],
      "name": "NotAuthorized",
      "type": "error"
    },
    {
      "inputs": [],
      "name": "NotInitializing",
      "type": "error"
    },
    {
      "inputs": [],
      "name": "NotSoftTimelock",
      "type": "error"
    },
    {
      "inputs": [
        {
          "internalType": "address",
          "name": "owner",
          "type": "address"
        }
      ],
      "name": "OwnableInvalidOwner",
      "type": "error"
    },
    {
      "inputs": [
        {
          "internalType": "address",
          "name": "account",
          "type": "address"
        }
      ],
      "name": "OwnableUnauthorizedAccount",
      "type": "error"
    },
    {
      "inputs": [],
      "name": "ReentrancyGuardReentrantCall",
      "type": "error"
    },
    {
      "inputs": [],
      "name": "StillLocked",
      "type": "error"
    },
    {
      "inputs": [],
      "name": "TimelockNotLive",
      "type": "error"
    },
    {
      "anonymous": false,
      "inputs": [
        {
          "indexed": true,
          "internalType": "uint256",
          "name": "timelockId",
          "type": "uint256"
        },
        {
          "indexed": false,
          "internalType": "enum TimelockHelper.LockStatus",
          "name": "newStatus",
          "type": "uint8"
        }
      ],
      "name": "ChangeStatus",
      "type": "event"
    },
    {
      "anonymous": false,
      "inputs": [
        {
          "indexed": false,
          "internalType": "uint64",
          "name": "version",
          "type": "uint64"
        }
      ],
      "name": "Initialized",
      "type": "event"
    },
    {
      "anonymous": false,
      "inputs": [
        {
          "indexed": true,
          "internalType": "address",
          "name": "previousOwner",
          "type": "address"
        },
        {
          "indexed": true,
          "internalType": "address",
          "name": "newOwner",
          "type": "address"
        }
      ],
      "name": "OwnershipTransferred",
      "type": "event"
    },
    {
      "anonymous": false,
      "inputs": [
        {
          "indexed": true,
          "internalType": "uint256",
          "name": "timelockId",
          "type": "uint256"
        },
        {
          "indexed": false,
          "internalType": "uint256",
          "name": "unlockTime",
          "type": "uint256"
        }
      ],
      "name": "SoftTimelockUnlocked",
      "type": "event"
    },
    {
      "anonymous": false,
      "inputs": [
        {
          "indexed": true,
          "internalType": "uint256",
          "name": "timelockId",
          "type": "uint256"
        },
        {
          "indexed": true,
          "internalType": "address",
          "name": "owner",
          "type": "address"
        },
        {
          "indexed": true,
          "internalType": "address",
          "name": "recipient",
          "type": "address"
        },
        {
          "indexed": false,
          "internalType": "address[]",
          "name": "tokenAddresses",
          "type": "address[]"
        },
        {
          "indexed": false,
          "internalType": "uint256[]",
          "name": "tokenIds",
          "type": "uint256[]"
        },
        {
          "indexed": false,
          "internalType": "uint256",
          "name": "unlockTime",
          "type": "uint256"
        },
        {
          "indexed": false,
          "internalType": "uint256",
          "name": "bufferTime",
          "type": "uint256"
        },
        {
          "indexed": false,
          "internalType": "enum TimelockHelper.LockType",
          "name": "lockType",
          "type": "uint8"
        },
        {
          "indexed": false,
          "internalType": "string",
          "name": "name",
          "type": "string"
        }
      ],
      "name": "TimelockCreated",
      "type": "event"
    },
    {
      "anonymous": false,
      "inputs": [
        {
          "indexed": true,
          "internalType": "uint256",
          "name": "timelockId",
          "type": "uint256"
        },
        {
          "indexed": false,
          "internalType": "string",
          "name": "giftName",
          "type": "string"
        },
        {
          "indexed": true,
          "internalType": "address",
          "name": "recipient",
          "type": "address"
        }
      ],
      "name": "TimelockGiftName",
      "type": "event"
    },
    {
      "anonymous": false,
      "inputs": [
        {
          "indexed": true,
          "internalType": "uint256",
          "name": "timelockId",
          "type": "uint256"
        },
        {
          "indexed": true,
          "internalType": "address",
          "name": "recipient",
          "type": "address"
        }
      ],
      "name": "TokensWithdrawn",
      "type": "event"
    },
    {
      "inputs": [
        {
          "internalType": "uint256",
          "name": "timelockId",
          "type": "uint256"
        },
        {
          "internalType": "address[]",
          "name": "tokens",
          "type": "address[]"
        },
        {
          "internalType": "uint256[]",
          "name": "ids",
          "type": "uint256[]"
        },
        {
          "internalType": "uint256",
          "name": "bufferTime",
          "type": "uint256"
        },
        {
          "internalType": "string",
          "name": "name",
          "type": "string"
        },
        {
          "internalType": "address",
          "name": "caller",
          "type": "address"
        },
        {
          "internalType": "enum TimelockHelper.LockStatus",
          "name": "lockStatus",
          "type": "uint8"
        }
      ],
      "name": "createSoftTimelock",
      "outputs": [],
      "stateMutability": "nonpayable",
      "type": "function"
    },
    {
      "inputs": [
        {
          "internalType": "uint256",
          "name": "timelockId",
          "type": "uint256"
        },
        {
          "internalType": "address[]",
          "name": "tokens",
          "type": "address[]"
        },
        {
          "internalType": "uint256[]",
          "name": "ids",
          "type": "uint256[]"
        },
        {
          "internalType": "uint256",
          "name": "duration",
          "type": "uint256"
        },
        {
          "internalType": "string",
          "name": "name",
          "type": "string"
        },
        {
          "internalType": "address",
          "name": "caller",
          "type": "address"
        },
        {
          "internalType": "enum TimelockHelper.LockStatus",
          "name": "lockStatus",
          "type": "uint8"
        }
      ],
      "name": "createTimelock",
      "outputs": [],
      "stateMutability": "nonpayable",
      "type": "function"
    },
    {
      "inputs": [
        {
          "internalType": "uint256",
          "name": "timelockId",
          "type": "uint256"
        },
        {
          "internalType": "address[]",
          "name": "tokens",
          "type": "address[]"
        },
        {
          "internalType": "uint256[]",
          "name": "ids",
          "type": "uint256[]"
        },
        {
          "internalType": "uint256",
          "name": "duration",
          "type": "uint256"
        },
        {
          "internalType": "address",
          "name": "recipient",
          "type": "address"
        },
        {
          "internalType": "string",
          "name": "name",
          "type": "string"
        },
        {
          "internalType": "string",
          "name": "giftName",
          "type": "string"
        },
        {
          "internalType": "address",
          "name": "caller",
          "type": "address"
        },
        {
          "internalType": "enum TimelockHelper.LockStatus",
          "name": "lockStatus",
          "type": "uint8"
        }
      ],
      "name": "createTimelockedGift",
      "outputs": [],
      "stateMutability": "nonpayable",
      "type": "function"
    },
    {
      "inputs": [
        {
          "internalType": "uint256",
          "name": "id",
          "type": "uint256"
        }
      ],
      "name": "getData",
      "outputs": [
        {
          "internalType": "address[]",
          "name": "",
          "type": "address[]"
        },
        {
          "internalType": "uint256[]",
          "name": "",
          "type": "uint256[]"
        }
      ],
      "stateMutability": "view",
      "type": "function"
    },
    {
      "inputs": [
        {
          "internalType": "uint256",
          "name": "id",
          "type": "uint256"
        }
      ],
      "name": "getStatus",
      "outputs": [
        {
          "internalType": "enum TimelockHelper.LockStatus",
          "name": "",
          "type": "uint8"
        },
        {
          "internalType": "address",
          "name": "",
          "type": "address"
        }
      ],
      "stateMutability": "view",
      "type": "function"
    },
    {
      "inputs": [
        {
          "internalType": "uint256",
          "name": "timelockId",
          "type": "uint256"
        }
      ],
      "name": "getTimelockDetails",
      "outputs": [
        {
          "components": [
            {
              "internalType": "address[]",
              "name": "tokenAddresses",
              "type": "address[]"
            },
            {
              "internalType": "uint256[]",
              "name": "tokenIds",
              "type": "uint256[]"
            },
            {
              "internalType": "address",
              "name": "owner",
              "type": "address"
            },
            {
              "internalType": "address",
              "name": "recipient",
              "type": "address"
            },
            {
              "internalType": "uint256",
              "name": "unlockTime",
              "type": "uint256"
            },
            {
              "internalType": "bool",
              "name": "isSoftLock",
              "type": "bool"
            },
            {
              "internalType": "bool",
              "name": "isUnlocked",
              "type": "bool"
            },
            {
              "internalType": "uint256",
              "name": "bufferTime",
              "type": "uint256"
            },
            {
              "internalType": "enum TimelockHelper.LockType",
              "name": "lockType",
              "type": "uint8"
            },
            {
              "internalType": "enum TimelockHelper.LockStatus",
              "name": "lockStatus",
              "type": "uint8"
            },
            {
              "internalType": "string",
              "name": "name",
              "type": "string"
            }
          ],
          "internalType": "struct TimelockERC721.TimelockInfo",
          "name": "",
          "type": "tuple"
        }
      ],
      "stateMutability": "view",
      "type": "function"
    },
    {
      "inputs": [
        {
          "internalType": "address",
          "name": "initialOwner",
          "type": "address"
        },
        {
          "internalType": "address",
          "name": "_routerAddresses",
          "type": "address"
        }
      ],
      "name": "initialize",
      "outputs": [],
      "stateMutability": "nonpayable",
      "type": "function"
    },
    {
      "inputs": [
        {
          "internalType": "address",
          "name": "",
          "type": "address"
        },
        {
          "internalType": "address",
          "name": "",
          "type": "address"
        },
        {
          "internalType": "uint256",
          "name": "",
          "type": "uint256"
        },
        {
          "internalType": "bytes",
          "name": "",
          "type": "bytes"
        }
      ],
      "name": "onERC721Received",
      "outputs": [
        {
          "internalType": "bytes4",
          "name": "",
          "type": "bytes4"
        }
      ],
      "stateMutability": "nonpayable",
      "type": "function"
    },
    {
      "inputs": [],
      "name": "owner",
      "outputs": [
        {
          "internalType": "address",
          "name": "",
          "type": "address"
        }
      ],
      "stateMutability": "view",
      "type": "function"
    },
    {
      "inputs": [],
      "name": "renounceOwnership",
      "outputs": [],
      "stateMutability": "nonpayable",
      "type": "function"
    },
    {
      "inputs": [],
      "name": "routerAddresses",
      "outputs": [
        {
          "internalType": "address",
          "name": "",
          "type": "address"
        }
      ],
      "stateMutability": "view",
      "type": "function"
    },
    {
      "inputs": [
        {
          "internalType": "address",
          "name": "_routerAddresses",
          "type": "address"
        }
      ],
      "name": "setRouterAddresses",
      "outputs": [],
      "stateMutability": "nonpayable",
      "type": "function"
    },
    {
      "inputs": [
        {
          "internalType": "uint256",
          "name": "",
          "type": "uint256"
        }
      ],
      "name": "timelocks",
      "outputs": [
        {
          "internalType": "address",
          "name": "owner",
          "type": "address"
        },
        {
          "internalType": "address",
          "name": "recipient",
          "type": "address"
        },
        {
          "internalType": "uint256",
          "name": "unlockTime",
          "type": "uint256"
        },
        {
          "internalType": "bool",
          "name": "isSoftLock",
          "type": "bool"
        },
        {
          "internalType": "bool",
          "name": "isUnlocked",
          "type": "bool"
        },
        {
          "internalType": "uint256",
          "name": "bufferTime",
          "type": "uint256"
        },
        {
          "internalType": "enum TimelockHelper.LockType",
          "name": "lockType",
          "type": "uint8"
        },
        {
          "internalType": "enum TimelockHelper.LockStatus",
          "name": "lockStatus",
          "type": "uint8"
        },
        {
          "internalType": "string",
          "name": "name",
          "type": "string"
        }
      ],
      "stateMutability": "view",
      "type": "function"
    },
    {
      "inputs": [
        {
          "internalType": "address",
          "name": "newOwner",
          "type": "address"
        }
      ],
      "name": "transferOwnership",
      "outputs": [],
      "stateMutability": "nonpayable",
      "type": "function"
    },
    {
      "inputs": [
        {
          "internalType": "uint256",
          "name": "timelockId",
          "type": "uint256"
        },
        {
          "internalType": "address",
          "name": "caller",
          "type": "address"
        }
      ],
      "name": "unlockSoftTimelock",
      "outputs": [],
      "stateMutability": "nonpayable",
      "type": "function"
    },
    {
      "inputs": [
        {
          "internalType": "uint256",
          "name": "timelockId",
          "type": "uint256"
        },
        {
          "internalType": "address",
          "name": "caller",
          "type": "address"
        }
      ],
      "name": "withdraw",
      "outputs": [],
      "stateMutability": "nonpayable",
      "type": "function"
    }
  ],
  "transactionHash": "0xe517fcdcc7bce28317f76cc16ed5ee6c92df9db77609787a94503fc468de15b2",
  "args": [],
  "numDeployments": 1,
  "solcInputHash": "0f5d70c5d706c0fcd613c8eedfc2c5d4",
  "bytecode": "0x60808060405234610016576122fc908161001c8239f35b600080fdfe6080604052600436101561001257600080fd5b60003560e01c8062f714ce146117fe5780630178fe3f146116c3578063034f91a21461169a578063062d71b81461120a5780630d7e149f1461114a57806312d01b0914610b7f578063150b7a0214610b19578063485cc955146109a05780635c622a0e14610966578063715018a6146108fc5780638da5cb5b146108c65780639ba45f1b14610883578063aadcd3ba14610632578063b3faa4a81461013b578063f2fde38b146101105763fdfd6530146100cb57600080fd5b3461010b57604036600319011261010b576100f76100e761182a565b6100ef611dd7565b600435611ef8565b60016000805160206122a783398151915255005b600080fd5b3461010b57602036600319011261010b5761013961012c611840565b610134611b13565b611b4c565b005b3461010b5761016d61014c366118c7565b96919361015f9a9196999a989398611dd7565b610167611e07565b42611db4565b9360405161017a81611990565b61018383611e2d565b61019060405191826119ac565b83815260208101368560051b87011161010b5785905b8560051b8701821061061a57505081526101bf82611e2d565b6101cc60405191826119ac565b82815260208101368460051b8d011161010b578b905b8460051b8d01821061060a57505060208201526001600160a01b03871660408201819052606082015260808101869052600060a0820181905260c0820181905260e0820181905261010082015261023d886101208301611cb4565b61024836868b611acd565b6101408201528a600052600060205260406000209080518051906001600160401b0382116105ad5760209061027d8386611e7f565b0183600052602060002060005b8381106105ed575050505060208101518051906001600160401b0382116105ad57602060018501916102bc8484611e7f565b0190600052602060002060005b8381106105d9575050505060408101516002830180546001600160a01b039283166001600160a01b03199182161790915560608301516003850180549190931691161790556080810151600483015560a081015160058301805460c084015161ff0090151560081b1692151560ff1661ffff199091161791909117905560ff199060e08101516006840155610100810151600784019260038210156105c35760ff9084541691161782556101208101519160048310156105c3576101409261039091611eb8565b01518051906001600160401b0382116105ad576103b06008840154611956565b601f811161056d575b50602090601f83116001146104fd5760089291600091836104f2575b50508160011b916000199060031b1c1916179101555b604051918060c0840160c085525260e08301939060005b8181106104cc5750505081830360208301528083526001600160fb1b03811161010b576104a76020988b957f2289bc816cf73913b9dcda2c61f4061bf644b0ff8522b35e38773471988a586395846000805160206122678339815191529d879660051b908e84013760051b0197604085015260006060850152600060808501528a8489030160a08501528a60018060a01b038a169960018060a01b0316980191611ed7565b0390a46104b76040518092611a80565ba260016000805160206122a783398151915255005b909194602080600192838060a01b036104e48a611856565b168152019601929101610402565b015190508e806103d5565b906008840160005260206000209160005b601f19851681106105555750918391600193600895601f1981161061053c575b505050811b019101556103eb565b015160001960f88460031b161c191690558e808061052e565b9192602060018192868501518155019401920161050e565b61059d90600885016000526020600020601f850160051c810191602086106105a3575b601f0160051c0190611e44565b8d6103b9565b9091508190610590565b634e487b7160e01b600052604160045260246000fd5b634e487b7160e01b600052602160045260246000fd5b6001906020845194019381840155016102c9565b82516001600160a01b03168183015560209092019160010161028a565b81358152602091820191016101e2565b6020809161062784611856565b8152019101906101a6565b3461010b57602036600319011261010b57606061014060405161065481611990565b8281528260208201526000604082015260008382015260006080820152600060a0820152600060c0820152600060e0820152600061010082015260006101208201520152600435600052600060205260406000206107546008604051926106ba84611990565b6106c381611c01565b84526106d160018201611c59565b602085015260028101546001600160a01b039081166040860152600382015416606085015260048101546080850152600581015460ff818116151560a087015290831c8116151560c0860152600682015460e0860152600782015461074e91906107418183166101008901611ca8565b841c166101208601611cb4565b016119cd565b6101408201526040516020815281519161016060208301526101808201835180915260206101a0840194019060005b81811061086457505050602081810151838503601f1901604085015280518086529482019491019060005b81811061084e57848061084a886101408860018060a01b03604082015116606086015260018060a01b036060820151166080860152608081015160a086015260a0810151151560c086015260c0810151151560e086015260e0810151610100860152610824610100820151610120870190611a73565b61083661012082015183870190611a80565b0151838203601f1901610160850152611a8d565b0390f35b82518652602095860195909201916001016107ae565b82516001600160a01b0316865260209586019590920191600101610783565b3461010b57602036600319011261010b5761089c611840565b6108a4611b13565b600180546001600160a01b0319166001600160a01b0392909216919091179055005b3461010b57600036600319011261010b57600080516020612287833981519152546040516001600160a01b039091168152602090f35b3461010b57600036600319011261010b57610915611b13565b60008051602061228783398151915280546001600160a01b031981169091556000906001600160a01b03167f8be0079c531659141344cd1fd0a4f28419497f9722a3daafe3b4186f6b6457e08280a3005b3461010b57602036600319011261010b576040610984600435611cc0565b61099083518093611a80565b6001600160a01b03166020820152f35b3461010b57604036600319011261010b576109b9611840565b6109c161182a565b7ff0c57e16840df040f15088dc2f81fe391c3923bec73e23a9662efc9c229c6a009081549060ff8260401c1615916001600160401b03811694851580610b12575b60018097149081610b08575b159081610aff575b50610aed5767ffffffffffffffff19821686178555610a469184610ace575b50610a3e611bc0565b610134611bc0565b610a4e611bc0565b610a56611bc0565b836000805160206122a783398151915255610a6f611bc0565b83546001600160a01b0319166001600160a01b0391909116178355610a9057005b805468ff0000000000000000191690556040519081527fc7f505b2f371ae2175ee4913f4499e1f2633a7b5936321eed1cdaeb6115181d290602090a1005b68ffffffffffffffffff19166801000000000000000117855586610a35565b60405163f92ee8a960e01b8152600490fd5b90501587610a16565b303b159150610a0e565b5083610a02565b3461010b57608036600319011261010b57610b32611840565b50610b3b61182a565b506064356001600160401b03811161010b573660238201121561010b57610b6c903690602481600401359101611acd565b50604051630a85bd0160e11b8152602090f35b3461010b5761012036600319011261010b576024356001600160401b03811161010b57610bb090369060040161186a565b6044356001600160401b03811161010b57610bcf90369060040161186a565b916084356001600160a01b038116810361010b5760a4356001600160401b03811161010b57610c0290369060040161189a565b60c4939193356001600160401b03811161010b57610c2490369060040161189a565b96909760e4359360018060a01b038516850361010b57600461010435101561010b57610c4e611dd7565b610c56611e07565b610c6260643542611db4565b92604051610c6f81611990565b610c7883611e2d565b610c8560405191826119ac565b83815260208101368560051b87011161010b5785905b8560051b870182106111325750508152610cb482611e2d565b610cc160405191826119ac565b82815260208101368460051b8d011161010b578b905b8460051b8d01821061112257505060208201526001600160a01b0387811660408301528816606082015260808101859052600060a0820181905260c0820181905260e08201526002610100820152610d36610104356101208301611cb4565b610d4136878b611acd565b610140820152600435600052600060205260406000209080518051906001600160401b0382116105ad57602090610d788386611e7f565b0183600052602060002060005b838110611105575050505060208101518051906001600160401b0382116105ad5760206001850191610db78484611e7f565b0190600052602060002060005b8381106110f1575050505060408101516002830180546001600160a01b039283166001600160a01b03199182161790915560608301516003850180549190931691161790556080810151600483015560a081015160058301805460c084015161ff0090151560081b1692151560ff1661ffff199091161791909117905560ff199060e08101516006840155610100810151600784019260038210156105c35760ff9084541691161782556101208101519160048310156105c35761014092610e8b91611eb8565b01518051906001600160401b0382116105ad57610eab6008840154611956565b601f81116110bc575b50602090601f831160011461104c576008929160009183611041575b50508160011b916000199060031b1c1916179101555b604051918060c0840160c085525260e08301939060005b81811061101b5750505081830360208301528083526001600160fb1b03811161010b57610fba611004987f2289bc816cf73913b9dcda2c61f4061bf644b0ff8522b35e38773471988a586394837f9b49bb064023c0d8c7d1b2bb1fc1fee4de356877d5192d3388f641d2227efaa89c869560051b90602084013760051b01956040840152600060608401526002608084015260208387030160a084015260018060a01b0389169760018060a01b0316966020600435970191611ed7565b0390a4604051610fcd8161010435611a80565b600080516020612267833981519152602060043592a26040519182916020835260018060a01b031695600435956020840191611ed7565b0390a360016000805160206122a783398151915255005b909194602080600192838060a01b036110338a611856565b168152019601929101610efd565b015190508f80610ed0565b906008840160005260206000209160005b601f19851681106110a45750918391600193600895601f1981161061108b575b505050811b01910155610ee6565b015160001960f88460031b161c191690558f808061107d565b9192602060018192868501518155019401920161105d565b6110eb90600885016000526020600020601f850160051c810191602086106105a357601f0160051c0190611e44565b8e610eb4565b600190602084519401938184015501610dc4565b82516001600160a01b031681830155602090920191600101610d85565b8135815260209182019101610cd7565b6020809161113f84611856565b815201910190610c9b565b3461010b57602036600319011261010b576004356000526000602052604060002060018060a01b0361084a8160028401541691600384015416926111f8600482015491600581015460ff6006830154916111ab6008600786015495016119cd565b95604051998a998a5260208a015260408901528181161515606089015260081c161515608087015260a08601526111e860c0860160ff8316611a73565b60ff60e086019160081c16611a80565b61012080610100850152830190611a8d565b3461010b57611218366118c7565b95979192969094611227611dd7565b61122f611e07565b60405161123b81611990565b61124483611e2d565b61125160405191826119ac565b83815260208101368560051b87011161010b5785905b8560051b87018210611682575050815261128082611e2d565b61128d60405191826119ac565b82815260208101368460051b8d011161010b578b905b8460051b8d01821061167257505060208201526001600160a01b038716604082018190526060820152600060808201819052600160a0830181905260c083019190915260e08201879052610100820152611301886101208301611cb4565b61130c36868b611acd565b6101408201528a600052600060205260406000209080518051906001600160401b0382116105ad576020906113418386611e7f565b0183600052602060002060005b838110611655575050505060208101518051906001600160401b0382116105ad57602060018501916113808484611e7f565b0190600052602060002060005b838110611641575050505060408101516002830180546001600160a01b039283166001600160a01b03199182161790915560608301516003850180549190931691161790556080810151600483015560a081015160058301805460c084015161ff0090151560081b1692151560ff1661ffff199091161791909117905560ff199060e08101516006840155610100810151600784019260038210156105c35760ff9084541691161782556101208101519160048310156105c3576101409261145491611eb8565b01518051906001600160401b0382116105ad576114746008840154611956565b601f811161160c575b50602090601f831160011461159c576008929160009183611591575b50508160011b916000199060031b1c1916179101555b604051918060c0840160c085525260e08301939060005b81811061156b5750505081830360208301528083526001600160fb1b03811161010b576104a76020988b957f2289bc816cf73913b9dcda2c61f4061bf644b0ff8522b35e38773471988a586395846000805160206122678339815191529d879660051b908e84013760051b0197600060408601526060850152600160808501528a8489030160a08501528a60018060a01b038a169960018060a01b0316980191611ed7565b909194602080600192838060a01b036115838a611856565b1681520196019291016114c6565b015190508e80611499565b906008840160005260206000209160005b601f19851681106115f45750918391600193600895601f198116106115db575b505050811b019101556114af565b015160001960f88460031b161c191690558e80806115cd565b919260206001819286850151815501940192016115ad565b61163b90600885016000526020600020601f850160051c810191602086106105a357601f0160051c0190611e44565b8d61147d565b60019060208451940193818401550161138d565b82516001600160a01b03168183015560209092019160010161134e565b81358152602091820191016112a3565b6020809161168f84611856565b815201910190611267565b3461010b57600036600319011261010b576001546040516001600160a01b039091168152602090f35b3461010b5760208060031936011261010b57600435600052600081526040600020604051916116f183611990565b6116fa82611c01565b835260019061170a828401611c59565b9381810194855261177f600860018060a01b03958660028201541660408501528660038201541660608501526004810154608085015260ff6005820154818116151560a0870152831c16151560c0850152600681015460e085015261074e60ff60078301546107418282166101008901611ca8565b61014082015251935193604051936040850160408652825180915283606087019301916000905b8282106117e757505050508381038285015281808651928381520195019160005b8281106117d45785870386f35b83518752958101959281019284016117c7565b8351811685529385019392850192908601906117a6565b3461010b57604036600319011261010b576100f761181a61182a565b611822611dd7565b60043561200b565b602435906001600160a01b038216820361010b57565b600435906001600160a01b038216820361010b57565b35906001600160a01b038216820361010b57565b9181601f8401121561010b578235916001600160401b03831161010b576020808501948460051b01011161010b57565b9181601f8401121561010b578235916001600160401b03831161010b576020838186019501011161010b57565b9060e060031983011261010b57600435916001600160401b039160243583811161010b57826118f89160040161186a565b9390939260443582811161010b57816119139160040161186a565b939093926064359260843591821161010b576119319160040161189a565b909160a4356001600160a01b038116810361010b579060c435600481101561010b5790565b90600182811c92168015611986575b602083101461197057565b634e487b7160e01b600052602260045260246000fd5b91607f1691611965565b61016081019081106001600160401b038211176105ad57604052565b90601f801991011681019081106001600160401b038211176105ad57604052565b90604051918260008254926119e184611956565b908184526001948581169081600014611a505750600114611a0d575b5050611a0b925003836119ac565b565b9093915060005260209081600020936000915b818310611a38575050611a0b935082010138806119fd565b85548884018501529485019487945091830191611a20565b915050611a0b94506020925060ff191682840152151560051b82010138806119fd565b9060038210156105c35752565b9060048210156105c35752565b919082519283825260005b848110611ab9575050826000602080949584010152601f8019910116010190565b602081830181015184830182015201611a98565b9291926001600160401b0382116105ad5760405191611af6601f8201601f1916602001846119ac565b82948184528183011161010b578281602093846000960137010152565b600080516020612287833981519152546001600160a01b03163303611b3457565b60405163118cdaa760e01b8152336004820152602490fd5b6001600160a01b03908116908115611ba75760008051602061228783398151915280546001600160a01b031981168417909155167f8be0079c531659141344cd1fd0a4f28419497f9722a3daafe3b4186f6b6457e0600080a3565b604051631e4fbdf760e01b815260006004820152602490fd5b60ff7ff0c57e16840df040f15088dc2f81fe391c3923bec73e23a9662efc9c229c6a005460401c1615611bef57565b604051631afcd79f60e31b8152600490fd5b9060405191828154918282526020928383019160005283600020936000905b828210611c3657505050611a0b925003836119ac565b85546001600160a01b031684526001958601958895509381019390910190611c20565b9060405191828154918282526020928383019160005283600020936000905b828210611c8e57505050611a0b925003836119ac565b855484526001958601958895509381019390910190611c78565b60038210156105c35752565b60048210156105c35752565b9060009182528160205260408220604051611cda81611990565b611ce382611c01565b8152611cf160018301611c59565b602082015260018060a01b03918260028201541691604081019283528360038301541660608201526004820154608082015260ff6005830154818116151560a084015260081c16151560c0820152600682015460e0820152610140611d7c6008600785015494611d6860ff87166101008701611ca8565b61074e60ff610120870197841c1687611cb4565b9101528282511615611dad5751936004851015611d995750511690565b634e487b7160e01b81526021600452602490fd5b5050508190565b91908201809211611dc157565b634e487b7160e01b600052601160045260246000fd5b6000805160206122a78339815191526002815414611df55760029055565b604051633ee5aeb560e01b8152600490fd5b6001546001600160a01b03163303611e1b57565b60405163ea8e4eb560e01b8152600490fd5b6001600160401b0381116105ad5760051b60200190565b818110611e4f575050565b60008155600101611e44565b80546000825580611e6a575050565b611a0b91600052602060002090810190611e44565b906801000000000000000081116105ad57815490808355818110611ea257505050565b611a0b9260005260206000209182019101611e44565b9060048110156105c35761ff0082549160081b169061ff001916179055565b908060209392818452848401376000828201840152601f01601f1916010190565b90611f01611e07565b81600052600060205260408060002060018060a01b03806002830154169081156120035760ff600784015460081c169460049586811015611fee57600203611fde571603611fd05760058101805460ff811615611fc05760ff8160081c16611fb05791602093916101007fc92510a4ac9a15b6edc75157859d271228f92b11d09d91200f705e8e44c34eee969461ff001916179055611fa4600682015442611db4565b928391015551908152a2565b505050516328486b6360e11b8152fd5b5050505163549b9dbd60e01b8152fd5b505163ea8e4eb560e01b8152fd5b84516322d4f12560e01b81528690fd5b602187634e487b7160e01b6000525260246000fd5b505050505050565b60008181526020819052604080822060028101546001600160a01b03929083161561200357600782019182549260ff8460081c16936004948581101561222957600203612219576103009061ff001916179055856000805160206122678339815191526020845160038152a283806003830154169716968703611fd057600581015460ff8116908161220a575b506121fc578281015442106121ee576001938482018054156121de579082916120e36120cb889c9b9a9998979695611c01565b916120de6120d882611c59565b95611e5b565b611e5b565b869a5b61211b575b5050505050507f0ddddc48b57dd67f8fa2ff05c78034b578c31ef5caa05b03d2ca16feadbbb98f919293945080a3565b80518b10156121d9578161212f8c8361223c565b511661213b8c8561223c565b51813b156121d55788809260648d9389519586938492632142170760e11b84528d30908501526024978885015260448401525af180156121cb576121a2575b50506000198b1461218f5799850199856120e6565b634e487b7160e01b875260118552602487fd5b6001600160401b0382116121ba57508452388061217a565b634e487b7160e01b89526041875288fd5b86513d8b823e3d90fd5b8880fd5b6120eb565b505050516376e2446360e01b8152fd5b5051636100d92960e11b8152fd5b505163549b9dbd60e01b8152fd5b60ff915060081c161538612098565b505050516322d4f12560e01b8152fd5b634e487b7160e01b885260218652602488fd5b80518210156122505760209160051b010190565b634e487b7160e01b600052603260045260246000fdfe199c49764c24c272ab05711f746ea69945084e537b524515f05902c3c9a7e9e89016d09d72d40fdae2fd8ceac6b6234c7706214fd39c1cd1e609a0528c1993009b779b17422d0df92223018b32b4d1fa46e071723d6817e2486d003becc55f00a2646970667358221220257c45da70e5a642d99ebd5e9fc1ebce3cf4b0bd94e3544f1d720fcd7e02c46f64736f6c63430008140033",
  "devdoc": {
    "errors": {
      "InvalidInitialization()": [
        {
          "details": "The contract is already initialized."
        }
      ],
      "NotInitializing()": [
        {
          "details": "The contract is not initializing."
        }
      ],
      "OwnableInvalidOwner(address)": [
        {
          "details": "The owner is not a valid owner account. (eg. `address(0)`)"
        }
      ],
      "OwnableUnauthorizedAccount(address)": [
        {
          "details": "The caller account is not authorized to perform an operation."
        }
      ],
      "ReentrancyGuardReentrantCall()": [
        {
          "details": "Unauthorized reentrant call."
        }
      ]
    },
    "events": {
      "Initialized(uint64)": {
        "details": "Triggered when the contract has been initialized or reinitialized."
      }
    },
    "kind": "dev",
    "methods": {
      "onERC721Received(address,address,uint256,bytes)": {
        "details": "See {IERC721Receiver-onERC721Received}. Always returns `IERC721Receiver.onERC721Received.selector`."
      },
      "owner()": {
        "details": "Returns the address of the current owner."
      },
      "renounceOwnership()": {
        "details": "Leaves the contract without owner. It will not be possible to call `onlyOwner` functions. Can only be called by the current owner. NOTE: Renouncing ownership will leave the contract without an owner, thereby disabling any functionality that is only available to the owner."
      },
      "transferOwnership(address)": {
        "details": "Transfers ownership of the contract to a new account (`newOwner`). Can only be called by the current owner."
      }
    },
    "version": 1
  },
  "userdoc": {
    "kind": "user",
    "methods": {},
    "version": 1
  },
  "storageLayout": {
    "storage": [
      {
        "astId": 41104,
        "contract": "contracts/timelock/TimeLockERC721.sol:TimelockERC721",
        "label": "timelocks",
        "offset": 0,
        "slot": "0",
        "type": "t_mapping(t_uint256,t_struct(TimelockInfo)41049_storage)"
      },
      {
        "astId": 41106,
        "contract": "contracts/timelock/TimeLockERC721.sol:TimelockERC721",
        "label": "routerAddresses",
        "offset": 0,
        "slot": "1",
        "type": "t_address"
      }
    ],
    "types": {
      "t_address": {
        "encoding": "inplace",
        "label": "address",
        "numberOfBytes": "20"
      },
      "t_array(t_address)dyn_storage": {
        "base": "t_address",
        "encoding": "dynamic_array",
        "label": "address[]",
        "numberOfBytes": "32"
      },
      "t_array(t_uint256)dyn_storage": {
        "base": "t_uint256",
        "encoding": "dynamic_array",
        "label": "uint256[]",
        "numberOfBytes": "32"
      },
      "t_bool": {
        "encoding": "inplace",
        "label": "bool",
        "numberOfBytes": "1"
      },
      "t_enum(LockStatus)44456": {
        "encoding": "inplace",
        "label": "enum TimelockHelper.LockStatus",
        "numberOfBytes": "1"
      },
      "t_enum(LockType)44451": {
        "encoding": "inplace",
        "label": "enum TimelockHelper.LockType",
        "numberOfBytes": "1"
      },
      "t_mapping(t_uint256,t_struct(TimelockInfo)41049_storage)": {
        "encoding": "mapping",
        "key": "t_uint256",
        "label": "mapping(uint256 => struct TimelockERC721.TimelockInfo)",
        "numberOfBytes": "32",
        "value": "t_struct(TimelockInfo)41049_storage"
      },
      "t_string_storage": {
        "encoding": "bytes",
        "label": "string",
        "numberOfBytes": "32"
      },
      "t_struct(TimelockInfo)41049_storage": {
        "encoding": "inplace",
        "label": "struct TimelockERC721.TimelockInfo",
        "members": [
          {
            "astId": 41025,
            "contract": "contracts/timelock/TimeLockERC721.sol:TimelockERC721",
            "label": "tokenAddresses",
            "offset": 0,
            "slot": "0",
            "type": "t_array(t_address)dyn_storage"
          },
          {
            "astId": 41028,
            "contract": "contracts/timelock/TimeLockERC721.sol:TimelockERC721",
            "label": "tokenIds",
            "offset": 0,
            "slot": "1",
            "type": "t_array(t_uint256)dyn_storage"
          },
          {
            "astId": 41030,
            "contract": "contracts/timelock/TimeLockERC721.sol:TimelockERC721",
            "label": "owner",
            "offset": 0,
            "slot": "2",
            "type": "t_address"
          },
          {
            "astId": 41032,
            "contract": "contracts/timelock/TimeLockERC721.sol:TimelockERC721",
            "label": "recipient",
            "offset": 0,
            "slot": "3",
            "type": "t_address"
          },
          {
            "astId": 41034,
            "contract": "contracts/timelock/TimeLockERC721.sol:TimelockERC721",
            "label": "unlockTime",
            "offset": 0,
            "slot": "4",
            "type": "t_uint256"
          },
          {
            "astId": 41036,
            "contract": "contracts/timelock/TimeLockERC721.sol:TimelockERC721",
            "label": "isSoftLock",
            "offset": 0,
            "slot": "5",
            "type": "t_bool"
          },
          {
            "astId": 41038,
            "contract": "contracts/timelock/TimeLockERC721.sol:TimelockERC721",
            "label": "isUnlocked",
            "offset": 1,
            "slot": "5",
            "type": "t_bool"
          },
          {
            "astId": 41040,
            "contract": "contracts/timelock/TimeLockERC721.sol:TimelockERC721",
            "label": "bufferTime",
            "offset": 0,
            "slot": "6",
            "type": "t_uint256"
          },
          {
            "astId": 41043,
            "contract": "contracts/timelock/TimeLockERC721.sol:TimelockERC721",
            "label": "lockType",
            "offset": 0,
            "slot": "7",
            "type": "t_enum(LockType)44451"
          },
          {
            "astId": 41046,
            "contract": "contracts/timelock/TimeLockERC721.sol:TimelockERC721",
            "label": "lockStatus",
            "offset": 1,
            "slot": "7",
            "type": "t_enum(LockStatus)44456"
          },
          {
            "astId": 41048,
            "contract": "contracts/timelock/TimeLockERC721.sol:TimelockERC721",
            "label": "name",
            "offset": 0,
            "slot": "8",
            "type": "t_string_storage"
          }
        ],
        "numberOfBytes": "288"
      },
      "t_uint256": {
        "encoding": "inplace",
        "label": "uint256",
        "numberOfBytes": "32"
      }
    }
  }
}