{
  "address": "0x5453a40c127B33c3CfB623Bbc32376Ce79a0F171",
  "abi": [
    {
      "inputs": [],
      "name": "DuplicateTokenAddress",
      "type": "error"
    },
    {
      "inputs": [],
      "name": "DuplicateTokenAddresses",
      "type": "error"
    },
    {
      "inputs": [],
      "name": "EthSentWithoutSwap",
      "type": "error"
    },
    {
      "inputs": [],
      "name": "InvalidInitialization",
      "type": "error"
    },
    {
      "inputs": [],
      "name": "InvalidRecipient",
      "type": "error"
    },
    {
      "inputs": [],
      "name": "InvalidSwapIntent",
      "type": "error"
    },
    {
      "inputs": [],
      "name": "InvalidTokenAmount",
      "type": "error"
    },
    {
      "inputs": [],
      "name": "InvalidTokenType",
      "type": "error"
    },
    {
      "inputs": [],
      "name": "MismatchedArrayLength",
      "type": "error"
    },
    {
      "inputs": [],
      "name": "NoTokensReceived",
      "type": "error"
    },
    {
      "inputs": [],
      "name": "NotInitializing",
      "type": "error"
    },
    {
      "inputs": [
        {
          "internalType": "address",
          "name": "owner",
          "type": "address"
        }
      ],
      "name": "OwnableInvalidOwner",
      "type": "error"
    },
    {
      "inputs": [
        {
          "internalType": "address",
          "name": "account",
          "type": "address"
        }
      ],
      "name": "OwnableUnauthorizedAccount",
      "type": "error"
    },
    {
      "inputs": [
        {
          "internalType": "address",
          "name": "token",
          "type": "address"
        }
      ],
      "name": "SafeERC20FailedOperation",
      "type": "error"
    },
    {
      "inputs": [],
      "name": "SwapNotConfigured",
      "type": "error"
    },
    {
      "inputs": [],
      "name": "TokenNotWhitelisted",
      "type": "error"
    },
    {
      "inputs": [],
      "name": "ZeroAmount",
      "type": "error"
    },
    {
      "inputs": [],
      "name": "ZeroBufferTime",
      "type": "error"
    },
    {
      "inputs": [],
      "name": "ZeroDuration",
      "type": "error"
    },
    {
      "anonymous": false,
      "inputs": [
        {
          "indexed": false,
          "internalType": "uint64",
          "name": "version",
          "type": "uint64"
        }
      ],
      "name": "Initialized",
      "type": "event"
    },
    {
      "anonymous": false,
      "inputs": [
        {
          "indexed": true,
          "internalType": "address",
          "name": "previousOwner",
          "type": "address"
        },
        {
          "indexed": true,
          "internalType": "address",
          "name": "newOwner",
          "type": "address"
        }
      ],
      "name": "OwnershipTransferred",
      "type": "event"
    },
    {
      "inputs": [
        {
          "components": [
            {
              "components": [
                {
                  "internalType": "address",
                  "name": "storageToken",
                  "type": "address"
                },
                {
                  "internalType": "uint256",
                  "name": "amountOutMin",
                  "type": "uint256"
                },
                {
                  "internalType": "uint256",
                  "name": "deadline",
                  "type": "uint256"
                }
              ],
              "internalType": "struct TimeLockRouter.TimelockETHSwapInputData",
              "name": "timelockETHSwap",
              "type": "tuple"
            },
            {
              "components": [
                {
                  "internalType": "address",
                  "name": "tokenAddress",
                  "type": "address"
                },
                {
                  "internalType": "uint256",
                  "name": "amount",
                  "type": "uint256"
                }
              ],
              "internalType": "struct TimeLockRouter.TimelockERC20InputData[]",
              "name": "timelockERC20",
              "type": "tuple[]"
            },
            {
              "components": [
                {
                  "internalType": "address",
                  "name": "tokenAddress",
                  "type": "address"
                },
                {
                  "internalType": "uint256",
                  "name": "id",
                  "type": "uint256"
                }
              ],
              "internalType": "struct TimeLockRouter.TimelockERC721InputData[]",
              "name": "timelockERC721",
              "type": "tuple[]"
            },
            {
              "components": [
                {
                  "internalType": "address",
                  "name": "tokenAddress",
                  "type": "address"
                },
                {
                  "internalType": "uint256",
                  "name": "id",
                  "type": "uint256"
                },
                {
                  "internalType": "uint256",
                  "name": "amount",
                  "type": "uint256"
                }
              ],
              "internalType": "struct TimeLockRouter.TimelockERC1155InputData[]",
              "name": "timelockERC1155",
              "type": "tuple[]"
            },
            {
              "internalType": "uint256",
              "name": "bufferTime",
              "type": "uint256"
            },
            {
              "internalType": "string",
              "name": "name",
              "type": "string"
            }
          ],
          "internalType": "struct TimeLockRouter.TimelockSoft",
          "name": "timelockSoft",
          "type": "tuple"
        }
      ],
      "name": "createSoftTimelock",
      "outputs": [],
      "stateMutability": "payable",
      "type": "function"
    },
    {
      "inputs": [
        {
          "components": [
            {
              "components": [
                {
                  "internalType": "address",
                  "name": "storageToken",
                  "type": "address"
                },
                {
                  "internalType": "uint256",
                  "name": "amountOutMin",
                  "type": "uint256"
                },
                {
                  "internalType": "uint256",
                  "name": "deadline",
                  "type": "uint256"
                }
              ],
              "internalType": "struct TimeLockRouter.TimelockETHSwapInputData",
              "name": "timelockETHSwap",
              "type": "tuple"
            },
            {
              "components": [
                {
                  "internalType": "address",
                  "name": "tokenAddress",
                  "type": "address"
                },
                {
                  "internalType": "uint256",
                  "name": "amount",
                  "type": "uint256"
                }
              ],
              "internalType": "struct TimeLockRouter.TimelockERC20InputData[]",
              "name": "timelockERC20",
              "type": "tuple[]"
            },
            {
              "components": [
                {
                  "internalType": "address",
                  "name": "tokenAddress",
                  "type": "address"
                },
                {
                  "internalType": "uint256",
                  "name": "id",
                  "type": "uint256"
                }
              ],
              "internalType": "struct TimeLockRouter.TimelockERC721InputData[]",
              "name": "timelockERC721",
              "type": "tuple[]"
            },
            {
              "components": [
                {
                  "internalType": "address",
                  "name": "tokenAddress",
                  "type": "address"
                },
                {
                  "internalType": "uint256",
                  "name": "id",
                  "type": "uint256"
                },
                {
                  "internalType": "uint256",
                  "name": "amount",
                  "type": "uint256"
                }
              ],
              "internalType": "struct TimeLockRouter.TimelockERC1155InputData[]",
              "name": "timelockERC1155",
              "type": "tuple[]"
            },
            {
              "internalType": "uint256",
              "name": "duration",
              "type": "uint256"
            },
            {
              "internalType": "string",
              "name": "name",
              "type": "string"
            }
          ],
          "internalType": "struct TimeLockRouter.TimelockRegular",
          "name": "timelockRegular",
          "type": "tuple"
        }
      ],
      "name": "createTimelock",
      "outputs": [],
      "stateMutability": "payable",
      "type": "function"
    },
    {
      "inputs": [
        {
          "components": [
            {
              "components": [
                {
                  "internalType": "address",
                  "name": "storageToken",
                  "type": "address"
                },
                {
                  "internalType": "uint256",
                  "name": "amountOutMin",
                  "type": "uint256"
                },
                {
                  "internalType": "uint256",
                  "name": "deadline",
                  "type": "uint256"
                }
              ],
              "internalType": "struct TimeLockRouter.TimelockETHSwapInputData",
              "name": "timelockETHSwap",
              "type": "tuple"
            },
            {
              "components": [
                {
                  "internalType": "address",
                  "name": "tokenAddress",
                  "type": "address"
                },
                {
                  "internalType": "uint256",
                  "name": "amount",
                  "type": "uint256"
                }
              ],
              "internalType": "struct TimeLockRouter.TimelockERC20InputData[]",
              "name": "timelockERC20",
              "type": "tuple[]"
            },
            {
              "components": [
                {
                  "internalType": "address",
                  "name": "tokenAddress",
                  "type": "address"
                },
                {
                  "internalType": "uint256",
                  "name": "id",
                  "type": "uint256"
                }
              ],
              "internalType": "struct TimeLockRouter.TimelockERC721InputData[]",
              "name": "timelockERC721",
              "type": "tuple[]"
            },
            {
              "components": [
                {
                  "internalType": "address",
                  "name": "tokenAddress",
                  "type": "address"
                },
                {
                  "internalType": "uint256",
                  "name": "id",
                  "type": "uint256"
                },
                {
                  "internalType": "uint256",
                  "name": "amount",
                  "type": "uint256"
                }
              ],
              "internalType": "struct TimeLockRouter.TimelockERC1155InputData[]",
              "name": "timelockERC1155",
              "type": "tuple[]"
            },
            {
              "internalType": "uint256",
              "name": "duration",
              "type": "uint256"
            },
            {
              "internalType": "address",
              "name": "recipient",
              "type": "address"
            },
            {
              "internalType": "string",
              "name": "name",
              "type": "string"
            },
            {
              "internalType": "string",
              "name": "giftName",
              "type": "string"
            }
          ],
          "internalType": "struct TimeLockRouter.TimelockGift",
          "name": "timelockGift",
          "type": "tuple"
        }
      ],
      "name": "createTimelockedGift",
      "outputs": [],
      "stateMutability": "payable",
      "type": "function"
    },
    {
      "inputs": [
        {
          "internalType": "uint256",
          "name": "ethAmountWei",
          "type": "uint256"
        },
        {
          "internalType": "address",
          "name": "storageToken",
          "type": "address"
        }
      ],
      "name": "getEthToTokenAmountOut",
      "outputs": [
        {
          "internalType": "uint256",
          "name": "",
          "type": "uint256"
        }
      ],
      "stateMutability": "view",
      "type": "function"
    },
    {
      "inputs": [
        {
          "internalType": "uint256",
          "name": "id",
          "type": "uint256"
        }
      ],
      "name": "getStatusOwner",
      "outputs": [
        {
          "internalType": "enum TimelockHelper.LockStatus",
          "name": "",
          "type": "uint8"
        },
        {
          "internalType": "address",
          "name": "",
          "type": "address"
        }
      ],
      "stateMutability": "view",
      "type": "function"
    },
    {
      "inputs": [
        {
          "internalType": "uint256",
          "name": "tokenAmount",
          "type": "uint256"
        },
        {
          "internalType": "address",
          "name": "storageToken",
          "type": "address"
        }
      ],
      "name": "getTokenToEthAmountOut",
      "outputs": [
        {
          "internalType": "uint256",
          "name": "",
          "type": "uint256"
        }
      ],
      "stateMutability": "view",
      "type": "function"
    },
    {
      "inputs": [
        {
          "internalType": "address",
          "name": "initialOwner",
          "type": "address"
        }
      ],
      "name": "initialize",
      "outputs": [],
      "stateMutability": "nonpayable",
      "type": "function"
    },
    {
      "inputs": [],
      "name": "owner",
      "outputs": [
        {
          "internalType": "address",
          "name": "",
          "type": "address"
        }
      ],
      "stateMutability": "view",
      "type": "function"
    },
    {
      "inputs": [],
      "name": "renounceOwnership",
      "outputs": [],
      "stateMutability": "nonpayable",
      "type": "function"
    },
    {
      "inputs": [
        {
          "internalType": "address payable",
          "name": "_timelockERC20",
          "type": "address"
        },
        {
          "internalType": "address payable",
          "name": "_timelockERC721",
          "type": "address"
        },
        {
          "internalType": "address payable",
          "name": "_timelockERC1155",
          "type": "address"
        }
      ],
      "name": "setTimelock",
      "outputs": [],
      "stateMutability": "nonpayable",
      "type": "function"
    },
    {
      "inputs": [
        {
          "internalType": "address",
          "name": "_tokenWhitelist",
          "type": "address"
        }
      ],
      "name": "setTokenWhitelist",
      "outputs": [],
      "stateMutability": "nonpayable",
      "type": "function"
    },
    {
      "inputs": [
        {
          "internalType": "address",
          "name": "_uniswapRouter",
          "type": "address"
        }
      ],
      "name": "setUniswapRouter",
      "outputs": [],
      "stateMutability": "nonpayable",
      "type": "function"
    },
    {
      "inputs": [],
      "name": "timelockCounter",
      "outputs": [
        {
          "internalType": "uint256",
          "name": "",
          "type": "uint256"
        }
      ],
      "stateMutability": "view",
      "type": "function"
    },
    {
      "inputs": [],
      "name": "timelockERC1155Contract",
      "outputs": [
        {
          "internalType": "contract TimelockERC1155",
          "name": "",
          "type": "address"
        }
      ],
      "stateMutability": "view",
      "type": "function"
    },
    {
      "inputs": [],
      "name": "timelockERC20Contract",
      "outputs": [
        {
          "internalType": "contract TimelockERC20",
          "name": "",
          "type": "address"
        }
      ],
      "stateMutability": "view",
      "type": "function"
    },
    {
      "inputs": [],
      "name": "timelockERC721Contract",
      "outputs": [
        {
          "internalType": "contract TimelockERC721",
          "name": "",
          "type": "address"
        }
      ],
      "stateMutability": "view",
      "type": "function"
    },
    {
      "inputs": [],
      "name": "tokenWhitelist",
      "outputs": [
        {
          "internalType": "contract ITokenWhiteList",
          "name": "",
          "type": "address"
        }
      ],
      "stateMutability": "view",
      "type": "function"
    },
    {
      "inputs": [
        {
          "internalType": "address",
          "name": "newOwner",
          "type": "address"
        }
      ],
      "name": "transferOwnership",
      "outputs": [],
      "stateMutability": "nonpayable",
      "type": "function"
    },
    {
      "inputs": [],
      "name": "uniswapRouter",
      "outputs": [
        {
          "internalType": "contract IUniswapV2Router02",
          "name": "",
          "type": "address"
        }
      ],
      "stateMutability": "view",
      "type": "function"
    },
    {
      "inputs": [
        {
          "internalType": "uint256",
          "name": "id",
          "type": "uint256"
        }
      ],
      "name": "unlockSoftTimelock",
      "outputs": [],
      "stateMutability": "nonpayable",
      "type": "function"
    },
    {
      "inputs": [
        {
          "internalType": "uint256",
          "name": "id",
          "type": "uint256"
        }
      ],
      "name": "withdraw",
      "outputs": [],
      "stateMutability": "nonpayable",
      "type": "function"
    },
    {
      "inputs": [
        {
          "internalType": "uint256",
          "name": "id",
          "type": "uint256"
        },
        {
          "internalType": "bool",
          "name": "skipSwap",
          "type": "bool"
        }
      ],
      "name": "withdraw",
      "outputs": [],
      "stateMutability": "nonpayable",
      "type": "function"
    },
    {
      "stateMutability": "payable",
      "type": "receive"
    }
  ],
  "transactionHash": "0x548928a4a2aea1931d77f5b81047f035e81cafe10983a3341095b197bb1e9de0",
  "args": [],
  "numDeployments": 1,
  "solcInputHash": "0f5d70c5d706c0fcd613c8eedfc2c5d4",
  "bytecode": "0x6080806040523461001657612a87908161001c8239f35b600080fdfe608080604052600436101561001d575b50361561001b57600080fd5b005b60009060e08235811c918263073d77b9146113415750816314b1c6cf14610e775781632e1a7d4d14610ddb57816338d0743614610cbc578163460fe45f14610c95578163527b22db14610c555781636106abda14610a32578163715018a6146109c7578163735de9f71461099e5781638816b1dd14610720575080638da5cb5b146106ea578063a80d4b6c146106c3578063ae68435714610599578063bdae56bb14610570578063bea9849e14610530578063c4d66de814610401578063c4e14b5f146103d2578063ca735cc1146103a9578063ebc980b81461038b578063ecc05e021461031a578063f168c0cc146101495763f2fde38b0361000f57346101465760203660031901126101465761014361013661136a565b61013e6113c8565b611401565b80f35b80fd5b50346101465760203660031901126101465760043560018060a01b0380835416604051938491604083632e31150760e11b9283825287600483015260249889915afa9485156102d557829383966102f3575b508684969460048110156102e0571561027c575b5060048610156102695785156101f3575b5050506040519260048110156101de57604094508352166020820152f35b84634e487b7160e01b60005260216004526000fd5b90925060409194508584600254169383519485938492835260048301525afa90811561025e578391610229575b503880806101c0565b905061024e91925060403d604011610257575b6102468183611515565b810190611955565b91909138610220565b503d61023c565b6040513d85823e3d90fd5b634e487b7160e01b835260216004528683fd5b93509450604084600154168151948580928582528960048301525afa80156102d557829383916102b0575b509294866101af565b90506102cc91935060403d604011610257576102468183611515565b929092386102a7565b6040513d84823e3d90fd5b50634e487b7160e01b8452602160045283fd5b90955061031091935060403d604011610257576102468183611515565b929092943861019b565b50346101465760603660031901126101465761033461136a565b61033c611380565b6001600160a01b036044358181169392908490036103865761035c6113c8565b816001600160601b0360a01b93168386541617855516816001541617600155600254161760025580f35b600080fd5b50346101465780600319360112610146576020600554604051908152f35b50346101465780600319360112610146576003546040516001600160a01b039091168152602090f35b50346101465760403660031901126101465760206103f96103f1611380565b6004356117e4565b604051908152f35b50346101465760203660031901126101465761041b61136a565b7ff0c57e16840df040f15088dc2f81fe391c3923bec73e23a9662efc9c229c6a0090815460ff8160401c1615916001600160401b03821680159081610528575b600114908161051e575b159081610515575b506105035767ffffffffffffffff198216600117845561049e91836104e4575b50610496611475565b61013e611475565b6104a6575080f35b68ff00000000000000001981541690557fc7f505b2f371ae2175ee4913f4499e1f2633a7b5936321eed1cdaeb6115181d2602060405160018152a180f35b68ffffffffffffffffff1916680100000000000000011784553861048d565b60405163f92ee8a960e01b8152600490fd5b9050153861046d565b303b159150610465565b84915061045b565b50346101465760203660031901126101465761054a61136a565b6105526113c8565b60018060a01b03166001600160601b0360a01b600454161760045580f35b50346101465780600319360112610146576002546040516001600160a01b039091168152602090f35b50346101465760203660031901126101465780548190600435906001600160a01b0390811690813b1561068757604051630fdfd65360e41b808252600482018590523360248301529285908290604490829084905af19081156106a05785916106af575b50508060015416803b156106ab57604051838152600481018590523360248201529085908290604490829084905af19081156106a057859161068c575b50506002541691823b156106875760405191825260048201523360248201529082908290818381604481015b03925af180156102d5576106775750f35b610680906114b6565b6101465780f35b505050fd5b610695906114b6565b61068757833861063a565b6040513d87823e3d90fd5b8480fd5b6106b8906114b6565b6106875783386105fd565b50346101465760403660031901126101465760206103f96106e2611380565b600435611690565b5034610146578060031936011261014657600080516020612a32833981519152546040516001600160a01b039091168152602090f35b905061072b36611396565b9060c082013590811561098c578392610745600554611880565b806005556060820161075781846118a5565b1580159150610972575b6108e8575b50506080810161077681836118a5565b905061083f575b5060a081019161078d8383611920565b9050610797578480f35b6107bd6107b56107aa6005549585611920565b9490938101906118ee565b939092612783565b9390916107cb8584836128b1565b6107d6858483612806565b6002546001600160a01b031693843b1561083b5788968793610811926040519a8b998a988997632c0aae6160e11b8952339660048a01612710565b03925af180156102d557610827575b8080808480f35b610830906114b6565b610146578038610820565b8880fd5b61084c60055491836118a5565b61086661085e868695949501866118ee565b929094611dbf565b610872818395936125ae565b61087c81856124f7565b6001546001600160a01b031691823b156108e45789946108b886928b96604051998a988997889663167f549560e31b8852339560048901612498565b03925af19081156106a05785916108d0575b5061077d565b6108d9906114b6565b6106875783386108ca565b8980fd5b6108f290836118a5565b909161090c610903868601866118ee565b93909486611a45565b9260018060a01b038a541692833b1561096e576109488a958c979388946040519a8b998a9889976352194f4960e01b8952339560048a016119d1565b03925af19081156106a05785911561076657610963906114b6565b610687578338610766565b8a80fd5b506001600160a01b03610984846118da565b161515610761565b60405163346ab43760e11b8152600490fd5b82346101465780600319360112610146576004546040516001600160a01b039091168152602090f35b82346101465780600319360112610146576109e06113c8565b600080516020612a3283398151915280546001600160a01b031981169091556000906001600160a01b03167f8be0079c531659141344cd1fd0a4f28419497f9722a3daafe3b4186f6b6457e08280a380f35b9050610a3d36611396565b9060c0820135908115610c43578392610a57600554611880565b8060055560608201610a6981846118a5565b1580159150610c29575b610bac575b505060808101610a8881836118a5565b9050610b10575b5060a0810191610a9f8383611920565b9050610aa9578480f35b610abc6107b56107aa6005549585611920565b939091610aca8584836128b1565b610ad5858483612806565b6002546001600160a01b031693843b1561083b5788968793610811926040519a8b998a988997636893883d60e11b8952339660048a01612710565b610b1d60055491836118a5565b610b2f61085e868695949501866118ee565b610b3b818395936125ae565b610b4581856124f7565b6001546001600160a01b031691823b156108e4578994610b8086928b96604051998a988997889662c5ae3760e31b8852339560048901612498565b03925af19081156106a0578591610b98575b50610a8f565b610ba1906114b6565b610687578338610b92565b610bb690836118a5565b9091610bc7610903868601866118ee565b9260018060a01b038a541692833b1561096e57610c038a958c979388946040519a8b998a988997630707919d60e01b8952339560048a016119d1565b03925af19081156106a057859115610a7857610c1e906114b6565b610687578338610a78565b506001600160a01b03610c3b846118da565b161515610a73565b60405163e5e5346b60e01b8152600490fd5b823461014657602036600319011261014657610c6f61136a565b610c776113c8565b60018060a01b03166001600160601b0360a01b600354161760035580f35b8234610146578060031936011261014657546040516001600160a01b039091168152602090f35b82346101465760403660031901126101465780600435602435801515809103610dcc5782546001600160a01b039190821690813b156106ab57849160648392604051948593849262ebf5dd60e01b845289600485015233602485015260448401525af1908115610dd0578491610db8575b5050806001541690813b1561068757604051627b8a6760e11b808252600482018590523360248301529285908290818381604481015b03925af19081156106a0578591610da45750506002541691823b15610687576040519182526004820152336024820152908290829081838160448101610666565b610dad906114b6565b61068757838661063a565b610dc1906114b6565b610dcc578285610d2d565b5050fd5b6040513d86823e3d90fd5b82346101465760203660031901126101465780548190600435906001600160a01b03908116803b156106875783809160646040518094819362ebf5dd60e01b83528860048401523360248401528160448401525af1908115610dd0578491610db8575050806001541690813b1561068757604051627b8a6760e11b80825260048201859052336024830152928590829081838160448101610d63565b826020366003190112610146576001600160401b036004351161014657610140600435360360031901126101465760c460043501351561098c576001600160a01b03610ec760043560e4016118da565b161561132f57610ed8600554611880565b8060055581606460043501610ef2816004356004016118a5565b1580159150611311575b6111d3575b509050608460043501610f19816004356004016118a5565b905061108f575b5060a460043501610f3681600435600401611920565b9050610f3f5750f35b610f5160055491600435600401611920565b610f5f60e4600435016118da565b91610f75610104600435016004356004016118ee565b610f98610f90610124600495949535016004356004016118ee565b959093612783565b9791939095610fa88988876128b1565b610fb3898887612806565b6002546001600160a01b031695863b1561096e578a9889956040519b8c9a8b998a98633489908d60e01b8a5260048a01526024890161014090526101448901610ffb91611653565b8881036003190160448a01526110109161197c565b8781036003190160648901526110259161197c565b60c460043581013560848901526001600160a01b0390931660a48801528681036003190192870192909252611059926119b0565b906003198483030160e485015261106f926119b0565b33610104830152600261012483015203925af180156102d5576106775750f35b6110a1600554916004356004016118a5565b906110b060e4600435016118da565b906110c6610104600435016004356004016118ee565b90926110e86110e0610124600435016004356004016118ee565b969094611dbf565b9690926110f588856125ae565b6110ff88856124f7565b6001546001600160a01b031694853b156108e457899761119089956111a2946111519a6111636040519e8f9d8e9c8d9b6312d01b0960e01b8d5260048d015261012060248d01526101248c0190611653565b8a81036003190160448c01529061197c565b60043560c4013560648a01526001600160a01b0390931660848901528783036003190160a48901526119b0565b8481036003190160c4860152916119b0565b3360e4830152600261010483015203925af180156102d55715610f20576111c8906114b6565b610146578082610f20565b6111e2906004356004016118a5565b90926111f260e4600435016118da565b93611208610104600435016004356004016118ee565b959092611231611223610124600435016004356004016118ee565b969094600435600401611a45565b9194909660018060a01b0389541696873b156108e45789956040519b8c9a8b998a986305138c9360e51b8a5260048a0152602489016101409052610144890161127991611653565b8881036003190160448a015261128e9161197c565b60c4600435013560648901526001600160a01b0390921660848801528682036003190160a48801526112bf926119b0565b906003198583030160c48601526112d5926119b0565b3360e4840152600261010484015290151561012483015203925af180156102d557611302575b8181610f01565b61130b906114b6565b816112fb565b506001600160a01b0361132760048035016118da565b161515610efc565b604051634e46966960e11b8152600490fd5b8390346113665781600319360112611366576001546001600160a01b03168152602090f35b5080fd5b600435906001600160a01b038216820361038657565b602435906001600160a01b038216820361038657565b6003199060208183011261038657600435916001600160401b0383116103865782610100920301126103865760040190565b600080516020612a32833981519152546001600160a01b031633036113e957565b60405163118cdaa760e01b8152336004820152602490fd5b6001600160a01b0390811690811561145c57600080516020612a3283398151915280546001600160a01b031981168417909155167f8be0079c531659141344cd1fd0a4f28419497f9722a3daafe3b4186f6b6457e0600080a3565b604051631e4fbdf760e01b815260006004820152602490fd5b60ff7ff0c57e16840df040f15088dc2f81fe391c3923bec73e23a9662efc9c229c6a005460401c16156114a457565b604051631afcd79f60e31b8152600490fd5b6001600160401b0381116114c957604052565b634e487b7160e01b600052604160045260246000fd5b606081019081106001600160401b038211176114c957604052565b604081019081106001600160401b038211176114c957604052565b90601f801991011681019081106001600160401b038211176114c957604052565b51906001600160a01b038216820361038657565b6001600160401b0381116114c95760051b60200190565b9061156b8261154a565b6115786040519182611515565b8281528092611589601f199161154a565b0190602036910137565b8051156115a05760200190565b634e487b7160e01b600052603260045260246000fd5b8051600110156115a05760400190565b80518210156115a05760209160051b010190565b6020908181840312610386578051906001600160401b03821161038657019180601f8401121561038657825161160f8161154a565b9361161d6040519586611515565b818552838086019260051b820101928311610386578301905b828210611644575050505090565b81518152908301908301611636565b90815180825260208080930193019160005b828110611673575050505090565b83516001600160a01b031685529381019392810192600101611665565b6004546001600160a01b039392919084169081156117d25760409485516315ab88c960e31b8152602081600481875afa80156117c757829160009161178c575b50169316838114611785579161173693916000938751936116f0856114df565b600285528836602087013761170485611593565b5261170e846115b6565b52865180958194829363d06ca61f60e01b845260048401528960248401526044830190611653565b03915afa90811561177a57611755929350600091611759575b506115b6565b5190565b611774913d8091833e61176c8183611515565b8101906115da565b3861174f565b83513d6000823e3d90fd5b5093505050565b91506020823d82116117bf575b816117a660209383611515565b8101031261014657506117b98291611536565b386116d0565b3d9150611799565b87513d6000823e3d90fd5b604051630f107fdb60e31b8152600490fd5b6004546001600160a01b039392919084169081156117d25760409485516315ab88c960e31b8152602081600481875afa80156117c7578291600091611845575b5016931692808414611785579161173693916000938751936116f0856114df565b91506020823d8211611878575b8161185f60209383611515565b8101031261014657506118728291611536565b38611824565b3d9150611852565b600019811461188f5760010190565b634e487b7160e01b600052601160045260246000fd5b903590601e198136030182121561038657018035906001600160401b03821161038657602001918160061b3603831361038657565b356001600160a01b03811681036103865790565b903590601e198136030182121561038657018035906001600160401b0382116103865760200191813603831361038657565b903590601e198136030182121561038657018035906001600160401b0382116103865760200191606082023603831361038657565b91908260409103126103865781516004811015610386576020611979919301611536565b90565b90815180825260208080930193019160005b82811061199c575050505090565b83518552938101939281019260010161198e565b908060209392818452848401376000828201840152601f01601f1916010190565b9698979490611a1a94936119f960e09894611a07938b526101008060208d01528b0190611653565b9089820360408b015261197c565b92606088015286830360808801526119b0565b6001600160a01b0390951660a0840152600260c08401521515910152565b9190820391821161188f57565b6001600160a01b03939092909184611a5c856118da565b1615611d7b573415611d695781611cfc575b90611a7a915b84611e2f565b9384959195611cb5575b508315611cad578151600019810190811161188f57905b81611aa8575b5050929190565b611ab182611561565b9060005b838110611af257505060005b828110611ace5750611aa1565b80611adc611aed92846115c6565b51611ae7828a6115c6565b52611880565b611ac1565b81611afd82876115c6565b511682600054166040918251928380936370a0823160e01b908183526004948186850152602096879160249586915afa968715611ca2578f8d908b938b9360009b611c5a575b5091611bbc878593611bb78d611ba98d611bc199611b718a859f9e611b69819f8d6115c6565b5116976115c6565b5191516323b872dd60e01b94810194909452339684019687526001600160a01b03166020870152604086015290938491606090910190565b03601f198101845283611515565b612348565b6115c6565b511692896000541691855194859384928352888301525afa938415611c4f57600094611c1e575b505083831115611c11575050611c0c9291611c0291611a38565b611ae782866115c6565b611ab5565b51639671a89f60e01b8152fd5b8181959293953d8311611c48575b611c368183611515565b81010312610146575051913880611be8565b503d611c2c565b82513d6000823e3d90fd5b945099925050508682813d8311611c9b575b611c768183611515565b81010312610146575090888f898e87878b97948895519d939550939596975050611b43565b503d611c6c565b84513d6000823e3d90fd5b815190611a9b565b611cbe90611f81565b835190916000199182810190811161188f57611cdb8591876115c6565b91169052865190810190811161188f57611cf590876115c6565b5238611a84565b939181611d0c611d149387611dbf565b8194916123b0565b60005b8351811015611d5d5784611d2b82866115c6565b511685611d37886118da565b1614611d4b57611d4690611880565b611d17565b604051630254983f60e41b8152600490fd5b50929490929150611a6e565b60405163c64276b960e01b8152600490fd5b9034611d9d5781611d98611d9283611a7a95611dbf565b906123b0565b611a74565b6040516366c92c9d60e11b8152600490fd5b91908110156115a05760061b0190565b91611dc982611561565b92611dd383611561565b9260005b818110611de357505050565b80611dfa611df5611e2a938587611daf565b6118da565b611e0482896115c6565b6001600160a01b0390911690526020611e1e828587611daf565b0135611ae782886115c6565b611dd7565b6001600160a01b03939291908490611e46906118da565b168015158080611f61575b611f1057611e6c5750611e65929350611dbf565b9091600090565b9291611e7791611dbf565b929080519160019485840180941161188f578590611e9d611e9786611561565b95611561565b976000835b611ecb575b5050505081611ec591611ebd60009451866115c6565b5251866115c6565b52929190565b8551811015611f0b578082611ee3611f0593896115c6565b5116611eef828a6115c6565b52611efa81856115c6565b51611ae7828d6115c6565b83611ea2565b611ea7565b5093505050604051611f21816114fa565b600181526020368183013760405192611f39846114fa565b6001845260203681860137611f4d82611593565b526000611f5984611593565b529190600190565b508315611e51565b90816020910312610386575180151581036103865790565b600480549192916001600160a01b0390811691600091831561233857806003541680151590816122cb575b506122bb5760409081870135944286106122ac5734156122ac57825180916315ab88c960e31b8252818660209485935afa9081156122a257908391879161226a575b50611ff88a6118da565b818316921682146121c55750835190612010826114df565b6002825284368484013761202382611593565b5261202d896118da565b83612037836115b6565b91169052826120458a6118da565b16908387541697855198848a6024816370a0823160e01b97888252858d8301525afa998a156121bb57899a61218c575b508588541691823b156108e45791858d8a938c956120b68c519889978896879663b6f9de9560e01b8852013590860152608060248601526084850190611653565b9160448401526064830152039134905af18015612182578392918891612165575b50506024846120e58c6118da565b169488541691865195869384928352898301525afa94851561215a579461212a575b505083831115611c115750506121269161212091611a38565b926118da565b9190565b9080929450813d8311612153575b6121428183611515565b810103126103865751913880612107565b503d612138565b8351903d90823e3d90fd5b612171919293506114b6565b61217e57819086386120d7565b8580fd5b85513d89823e3d90fd5b9099508481813d83116121b4575b6121a48183611515565b8101031261038657519838612075565b503d61219a565b87513d8b823e3d90fd5b94985093955093833b15610146578251630d0e30db60e41b815281818a8134895af1801561226057612251575b50541681519363a9059cbb60e01b9085015260248401523460448401526044835260808301908382106001600160401b0383111761223c576122379495965052612348565b903490565b604187634e487b7160e01b6000525260246000fd5b61225a906114b6565b386121f2565b84513d84823e3d90fd5b809250838092503d831161229b575b6122838183611515565b8101031261217e576122958391611536565b38611fee565b503d612279565b84513d88823e3d90fd5b50505163c64276b960e01b8152fd5b506040516307c241ad60e51b8152fd5b905060208260246122db8a6118da565b6040519485938492633af32abf60e01b845216888301525afa908115610dd057849161230a575b501538611fac565b61232b915060203d8111612331575b6123238183611515565b810190611f69565b38612302565b503d612319565b50604051630f107fdb60e31b8152fd5b906000602091828151910182855af1156123a4576000513d61239b57506001600160a01b0381163b155b6123795750565b604051635274afe760e01b81526001600160a01b039091166004820152602490fd5b60011415612372565b6040513d6000823e3d90fd5b8051801590811561248c575b5061247a5760005b81518110156123fd576123d781846115c6565b51156123eb576123e690611880565b6123c4565b604051632160733960e01b8152600490fd5b5091905060005b825181101561247557600180820180831161188f57815b612430575b505061242b90611880565b612404565b8451811015612470576001600160a01b038061244c85886115c6565b51169061245983886115c6565b511614611d4b5761246a8291611880565b9061241b565b612420565b509050565b6040516373d4509160e11b8152600490fd5b905082511415386123bc565b9391946124d06124e3946124c260c09860029a959c9b9c895260e060208a015260e0890190611653565b90878203604089015261197c565b92606086015284830360808601526119b0565b6001600160a01b0390951660a08201520152565b91909160005b81518110156125a8576001600160a01b038061251983856115c6565b5116906001541661252a83876115c6565b5191803b156103865760408051632142170760e11b81523360048201526001600160a01b0393909316602484015260448301939093529091906000908390606490829084905af190811561259e57509061258a929161258f575b50611880565b6124fd565b612598906114b6565b38612584565b513d6000823e3d90fd5b50509050565b91909134611d9d5780518015908115612704575b5061247a5760005b81518110156125a8576001600160a01b03806125e683856115c6565b51169060408051916301ffc9a760e01b835282806004956380ac58cd60e01b87830152602092839160249788915afa918215611ca2576000926126e7575b5050156126d757600192838601908187116126c45750835b612654575b505050505061264f90611880565b6125ca565b86518110156126bf578161266887896115c6565b511682612675838a6115c6565b511614806126a2575b6126925761268c8491611880565b9061263c565b8251635b00df1b60e11b81528590fd5b506126ad868a6115c6565b516126b8828b6115c6565b511461267e565b612641565b634e487b7160e01b600090815260118752fd5b815163a1e9dd9d60e01b81528490fd5b6126fd9250803d10612331576123238183611515565b3880612624565b905083511415386125c2565b949261275f9461273e61274c926119f960029b9660e09b969e9d9e8b526101008060208d01528b0190611653565b90878203606089015261197c565b92608086015284830360a08601526119b0565b6001600160a01b0390951660c08201520152565b91908110156115a0576060020190565b9061278d81611561565b9261279782611561565b926127a183611561565b9260005b8181106127b157505050565b806127c3611df5612801938587612773565b6127cd828a6115c6565b6001600160a01b03909116905260206127e7828587612773565b01356127f382896115c6565b526040611e1e828587612773565b6127a5565b92919060005b84518110156128aa576001600160a01b038061282883886115c6565b511690600254169061283a83856115c6565b519161284684876115c6565b5192823b156103865760c46000928360409586519788958694637921219560e11b865233600487015260248601526044850152606484015260a060848401528160a48401525af190811561259e5750906128a5929161258f5750611880565b61280c565b5050509050565b9234611d9d5783518015908115612a25575b508015612a19575b61247a5760005b835181101561290b576128e581856115c6565b51156128f9576128f490611880565b6128d2565b604051631f2a200560e01b8152600490fd5b5091509160005b81518110156125a8576001600160a01b038061292e83856115c6565b51169060408051916301ffc9a760e01b83528280600495636cdb3d1360e11b87830152602092839160249788915afa918215611ca2576000926129fc575b5050156126d757600192838601908187116126c45750835b61299c575b505050505061299790611880565b612912565b86518110156129f757816129b087896115c6565b5116826129bd838a6115c6565b511614806129da575b612692576129d48491611880565b90612984565b506129e5868a6115c6565b516129f0828b6115c6565b51146129c6565b612989565b612a129250803d10612331576123238183611515565b388061296c565b508151835114156128cb565b905082511415386128c356fe9016d09d72d40fdae2fd8ceac6b6234c7706214fd39c1cd1e609a0528c199300a2646970667358221220604dcbd108b0a72e0071a9130efb510ef07321628c45139f295b32a8efebe42c64736f6c63430008140033",
  "devdoc": {
    "errors": {
      "InvalidInitialization()": [
        {
          "details": "The contract is already initialized."
        }
      ],
      "NotInitializing()": [
        {
          "details": "The contract is not initializing."
        }
      ],
      "OwnableInvalidOwner(address)": [
        {
          "details": "The owner is not a valid owner account. (eg. `address(0)`)"
        }
      ],
      "OwnableUnauthorizedAccount(address)": [
        {
          "details": "The caller account is not authorized to perform an operation."
        }
      ],
      "SafeERC20FailedOperation(address)": [
        {
          "details": "An operation with an ERC-20 token failed."
        }
      ]
    },
    "events": {
      "Initialized(uint64)": {
        "details": "Triggered when the contract has been initialized or reinitialized."
      }
    },
    "kind": "dev",
    "methods": {
      "getEthToTokenAmountOut(uint256,address)": {
        "params": {
          "ethAmountWei": "Amount of ETH in wei (e.g. msg.value).",
          "storageToken": "The ERC-20 token address to receive."
        },
        "returns": {
          "_0": "Expected amount of outputToken (in its smallest units) for the given ETH."
        }
      },
      "getTokenToEthAmountOut(uint256,address)": {
        "params": {
          "storageToken": "The ERC-20 token address to swap.",
          "tokenAmount": "Amount of token (in its smallest units)."
        },
        "returns": {
          "_0": "Expected amount of ETH in wei received for the given token amount."
        }
      },
      "owner()": {
        "details": "Returns the address of the current owner."
      },
      "renounceOwnership()": {
        "details": "Leaves the contract without owner. It will not be possible to call `onlyOwner` functions. Can only be called by the current owner. NOTE: Renouncing ownership will leave the contract without an owner, thereby disabling any functionality that is only available to the owner."
      },
      "transferOwnership(address)": {
        "details": "Transfers ownership of the contract to a new account (`newOwner`). Can only be called by the current owner."
      }
    },
    "version": 1
  },
  "userdoc": {
    "kind": "user",
    "methods": {},
    "version": 1
  },
  "storageLayout": {
    "storage": [
      {
        "astId": 41831,
        "contract": "contracts/timelock/TimeLockRouter.sol:TimeLockRouter",
        "label": "timelockERC20Contract",
        "offset": 0,
        "slot": "0",
        "type": "t_contract(TimelockERC20)40998"
      },
      {
        "astId": 41834,
        "contract": "contracts/timelock/TimeLockRouter.sol:TimeLockRouter",
        "label": "timelockERC721Contract",
        "offset": 0,
        "slot": "1",
        "type": "t_contract(TimelockERC721)41706"
      },
      {
        "astId": 41837,
        "contract": "contracts/timelock/TimeLockRouter.sol:TimeLockRouter",
        "label": "timelockERC1155Contract",
        "offset": 0,
        "slot": "2",
        "type": "t_contract(TimelockERC1155)40064"
      },
      {
        "astId": 41840,
        "contract": "contracts/timelock/TimeLockRouter.sol:TimeLockRouter",
        "label": "tokenWhitelist",
        "offset": 0,
        "slot": "3",
        "type": "t_contract(ITokenWhiteList)25893"
      },
      {
        "astId": 41843,
        "contract": "contracts/timelock/TimeLockRouter.sol:TimeLockRouter",
        "label": "uniswapRouter",
        "offset": 0,
        "slot": "4",
        "type": "t_contract(IUniswapV2Router02)26734"
      },
      {
        "astId": 41845,
        "contract": "contracts/timelock/TimeLockRouter.sol:TimeLockRouter",
        "label": "timelockCounter",
        "offset": 0,
        "slot": "5",
        "type": "t_uint256"
      }
    ],
    "types": {
      "t_contract(ITokenWhiteList)25893": {
        "encoding": "inplace",
        "label": "contract ITokenWhiteList",
        "numberOfBytes": "20"
      },
      "t_contract(IUniswapV2Router02)26734": {
        "encoding": "inplace",
        "label": "contract IUniswapV2Router02",
        "numberOfBytes": "20"
      },
      "t_contract(TimelockERC1155)40064": {
        "encoding": "inplace",
        "label": "contract TimelockERC1155",
        "numberOfBytes": "20"
      },
      "t_contract(TimelockERC20)40998": {
        "encoding": "inplace",
        "label": "contract TimelockERC20",
        "numberOfBytes": "20"
      },
      "t_contract(TimelockERC721)41706": {
        "encoding": "inplace",
        "label": "contract TimelockERC721",
        "numberOfBytes": "20"
      },
      "t_uint256": {
        "encoding": "inplace",
        "label": "uint256",
        "numberOfBytes": "32"
      }
    }
  }
}