{
  "address": "0x6B8db3a60Eb9b6402F0AC34Db985923584dA1bD2",
  "abi": [
    {
      "inputs": [],
      "name": "AlreadyUnlocked",
      "type": "error"
    },
    {
      "inputs": [],
      "name": "InvalidInitialization",
      "type": "error"
    },
    {
      "inputs": [],
      "name": "NativeTokenTransferFailed",
      "type": "error"
    },
    {
      "inputs": [],
      "name": "NoFundsToWithdraw",
      "type": "error"
    },
    {
      "inputs": [],
      "name": "NotAuthorized",
      "type": "error"
    },
    {
      "inputs": [],
      "name": "NotInitializing",
      "type": "error"
    },
    {
      "inputs": [],
      "name": "NotOwner",
      "type": "error"
    },
    {
      "inputs": [],
      "name": "NotSoftTimelock",
      "type": "error"
    },
    {
      "inputs": [
        {
          "internalType": "address",
          "name": "owner",
          "type": "address"
        }
      ],
      "name": "OwnableInvalidOwner",
      "type": "error"
    },
    {
      "inputs": [
        {
          "internalType": "address",
          "name": "account",
          "type": "address"
        }
      ],
      "name": "OwnableUnauthorizedAccount",
      "type": "error"
    },
    {
      "inputs": [],
      "name": "ReentrancyGuardReentrantCall",
      "type": "error"
    },
    {
      "inputs": [
        {
          "internalType": "address",
          "name": "token",
          "type": "address"
        }
      ],
      "name": "SafeERC20FailedOperation",
      "type": "error"
    },
    {
      "inputs": [],
      "name": "StillLocked",
      "type": "error"
    },
    {
      "inputs": [],
      "name": "TimelockNotLive",
      "type": "error"
    },
    {
      "anonymous": false,
      "inputs": [
        {
          "indexed": true,
          "internalType": "uint256",
          "name": "timelockId",
          "type": "uint256"
        },
        {
          "indexed": false,
          "internalType": "enum TimelockHelper.LockStatus",
          "name": "newStatus",
          "type": "uint8"
        }
      ],
      "name": "ChangeStatus",
      "type": "event"
    },
    {
      "anonymous": false,
      "inputs": [
        {
          "indexed": true,
          "internalType": "uint256",
          "name": "timelockId",
          "type": "uint256"
        },
        {
          "indexed": true,
          "internalType": "address",
          "name": "recipient",
          "type": "address"
        }
      ],
      "name": "FundsWithdrawn",
      "type": "event"
    },
    {
      "anonymous": false,
      "inputs": [
        {
          "indexed": false,
          "internalType": "uint64",
          "name": "version",
          "type": "uint64"
        }
      ],
      "name": "Initialized",
      "type": "event"
    },
    {
      "anonymous": false,
      "inputs": [
        {
          "indexed": true,
          "internalType": "address",
          "name": "previousOwner",
          "type": "address"
        },
        {
          "indexed": true,
          "internalType": "address",
          "name": "newOwner",
          "type": "address"
        }
      ],
      "name": "OwnershipTransferred",
      "type": "event"
    },
    {
      "anonymous": false,
      "inputs": [
        {
          "indexed": true,
          "internalType": "uint256",
          "name": "timelockId",
          "type": "uint256"
        },
        {
          "indexed": false,
          "internalType": "uint256",
          "name": "newUnlockTime",
          "type": "uint256"
        }
      ],
      "name": "SoftTimelockUnlocked",
      "type": "event"
    },
    {
      "anonymous": false,
      "inputs": [
        {
          "indexed": true,
          "internalType": "uint256",
          "name": "timelockId",
          "type": "uint256"
        },
        {
          "indexed": true,
          "internalType": "address",
          "name": "owner",
          "type": "address"
        },
        {
          "indexed": true,
          "internalType": "address",
          "name": "recipient",
          "type": "address"
        },
        {
          "indexed": false,
          "internalType": "address[]",
          "name": "tokenAddresses",
          "type": "address[]"
        },
        {
          "indexed": false,
          "internalType": "uint256[]",
          "name": "amounts",
          "type": "uint256[]"
        },
        {
          "indexed": false,
          "internalType": "uint256",
          "name": "unlockTime",
          "type": "uint256"
        },
        {
          "indexed": false,
          "internalType": "uint256",
          "name": "bufferTime",
          "type": "uint256"
        },
        {
          "indexed": false,
          "internalType": "enum TimelockHelper.LockType",
          "name": "lockType",
          "type": "uint8"
        },
        {
          "indexed": false,
          "internalType": "string",
          "name": "name",
          "type": "string"
        }
      ],
      "name": "TimelockCreated",
      "type": "event"
    },
    {
      "anonymous": false,
      "inputs": [
        {
          "indexed": true,
          "internalType": "uint256",
          "name": "timelockId",
          "type": "uint256"
        },
        {
          "indexed": false,
          "internalType": "string",
          "name": "giftName",
          "type": "string"
        },
        {
          "indexed": true,
          "internalType": "address",
          "name": "recipient",
          "type": "address"
        }
      ],
      "name": "TimelockGiftName",
      "type": "event"
    },
    {
      "inputs": [
        {
          "internalType": "uint256",
          "name": "id",
          "type": "uint256"
        },
        {
          "internalType": "address[]",
          "name": "tokens",
          "type": "address[]"
        },
        {
          "internalType": "uint256[]",
          "name": "amounts",
          "type": "uint256[]"
        },
        {
          "internalType": "uint256",
          "name": "bufferTime",
          "type": "uint256"
        },
        {
          "internalType": "string",
          "name": "name",
          "type": "string"
        },
        {
          "internalType": "address",
          "name": "caller",
          "type": "address"
        },
        {
          "internalType": "enum TimelockHelper.LockStatus",
          "name": "lockStatus",
          "type": "uint8"
        },
        {
          "internalType": "bool",
          "name": "withdrawLastAsEth",
          "type": "bool"
        }
      ],
      "name": "createSoftTimelock",
      "outputs": [],
      "stateMutability": "payable",
      "type": "function"
    },
    {
      "inputs": [
        {
          "internalType": "uint256",
          "name": "id",
          "type": "uint256"
        },
        {
          "internalType": "address[]",
          "name": "tokens",
          "type": "address[]"
        },
        {
          "internalType": "uint256[]",
          "name": "amounts",
          "type": "uint256[]"
        },
        {
          "internalType": "uint256",
          "name": "duration",
          "type": "uint256"
        },
        {
          "internalType": "string",
          "name": "name",
          "type": "string"
        },
        {
          "internalType": "address",
          "name": "caller",
          "type": "address"
        },
        {
          "internalType": "enum TimelockHelper.LockStatus",
          "name": "lockStatus",
          "type": "uint8"
        },
        {
          "internalType": "bool",
          "name": "withdrawLastAsEth",
          "type": "bool"
        }
      ],
      "name": "createTimelock",
      "outputs": [],
      "stateMutability": "payable",
      "type": "function"
    },
    {
      "inputs": [
        {
          "internalType": "uint256",
          "name": "id",
          "type": "uint256"
        },
        {
          "internalType": "address[]",
          "name": "tokens",
          "type": "address[]"
        },
        {
          "internalType": "uint256[]",
          "name": "amounts",
          "type": "uint256[]"
        },
        {
          "internalType": "uint256",
          "name": "duration",
          "type": "uint256"
        },
        {
          "internalType": "address",
          "name": "recipient",
          "type": "address"
        },
        {
          "internalType": "string",
          "name": "name",
          "type": "string"
        },
        {
          "internalType": "string",
          "name": "giftName",
          "type": "string"
        },
        {
          "internalType": "address",
          "name": "owner",
          "type": "address"
        },
        {
          "internalType": "enum TimelockHelper.LockStatus",
          "name": "lockStatus",
          "type": "uint8"
        },
        {
          "internalType": "bool",
          "name": "withdrawLastAsEth",
          "type": "bool"
        }
      ],
      "name": "createTimelockedGift",
      "outputs": [],
      "stateMutability": "payable",
      "type": "function"
    },
    {
      "inputs": [
        {
          "internalType": "uint256",
          "name": "id",
          "type": "uint256"
        }
      ],
      "name": "getData",
      "outputs": [
        {
          "internalType": "address[]",
          "name": "",
          "type": "address[]"
        },
        {
          "internalType": "uint256[]",
          "name": "",
          "type": "uint256[]"
        }
      ],
      "stateMutability": "view",
      "type": "function"
    },
    {
      "inputs": [
        {
          "internalType": "uint256",
          "name": "id",
          "type": "uint256"
        }
      ],
      "name": "getStatus",
      "outputs": [
        {
          "internalType": "enum TimelockHelper.LockStatus",
          "name": "",
          "type": "uint8"
        },
        {
          "internalType": "address",
          "name": "",
          "type": "address"
        }
      ],
      "stateMutability": "view",
      "type": "function"
    },
    {
      "inputs": [
        {
          "internalType": "uint256",
          "name": "id",
          "type": "uint256"
        }
      ],
      "name": "getTimelockDetails",
      "outputs": [
        {
          "components": [
            {
              "internalType": "address[]",
              "name": "tokenAddresses",
              "type": "address[]"
            },
            {
              "internalType": "uint256[]",
              "name": "amounts",
              "type": "uint256[]"
            },
            {
              "internalType": "uint256",
              "name": "unlockTime",
              "type": "uint256"
            },
            {
              "internalType": "uint256",
              "name": "bufferTime",
              "type": "uint256"
            },
            {
              "internalType": "address",
              "name": "owner",
              "type": "address"
            },
            {
              "internalType": "bool",
              "name": "isSoftLock",
              "type": "bool"
            },
            {
              "internalType": "bool",
              "name": "isUnlocked",
              "type": "bool"
            },
            {
              "internalType": "bool",
              "name": "withdrawLastAsEth",
              "type": "bool"
            },
            {
              "internalType": "enum TimelockHelper.LockType",
              "name": "lockType",
              "type": "uint8"
            },
            {
              "internalType": "enum TimelockHelper.LockStatus",
              "name": "lockStatus",
              "type": "uint8"
            },
            {
              "internalType": "address",
              "name": "recipient",
              "type": "address"
            },
            {
              "internalType": "string",
              "name": "name",
              "type": "string"
            }
          ],
          "internalType": "struct TimelockERC20.TimelockInfo",
          "name": "",
          "type": "tuple"
        }
      ],
      "stateMutability": "view",
      "type": "function"
    },
    {
      "inputs": [
        {
          "internalType": "address",
          "name": "initialOwner",
          "type": "address"
        },
        {
          "internalType": "address",
          "name": "_routerAddresses",
          "type": "address"
        }
      ],
      "name": "initialize",
      "outputs": [],
      "stateMutability": "nonpayable",
      "type": "function"
    },
    {
      "inputs": [],
      "name": "owner",
      "outputs": [
        {
          "internalType": "address",
          "name": "",
          "type": "address"
        }
      ],
      "stateMutability": "view",
      "type": "function"
    },
    {
      "inputs": [],
      "name": "renounceOwnership",
      "outputs": [],
      "stateMutability": "nonpayable",
      "type": "function"
    },
    {
      "inputs": [],
      "name": "routerAddresses",
      "outputs": [
        {
          "internalType": "address",
          "name": "",
          "type": "address"
        }
      ],
      "stateMutability": "view",
      "type": "function"
    },
    {
      "inputs": [
        {
          "internalType": "address",
          "name": "_routerAddresses",
          "type": "address"
        }
      ],
      "name": "setRouterAddresses",
      "outputs": [],
      "stateMutability": "nonpayable",
      "type": "function"
    },
    {
      "inputs": [
        {
          "internalType": "address",
          "name": "_uniswapRouter",
          "type": "address"
        }
      ],
      "name": "setUniswapRouter",
      "outputs": [],
      "stateMutability": "nonpayable",
      "type": "function"
    },
    {
      "inputs": [
        {
          "internalType": "uint256",
          "name": "",
          "type": "uint256"
        }
      ],
      "name": "timelocks",
      "outputs": [
        {
          "internalType": "uint256",
          "name": "unlockTime",
          "type": "uint256"
        },
        {
          "internalType": "uint256",
          "name": "bufferTime",
          "type": "uint256"
        },
        {
          "internalType": "address",
          "name": "owner",
          "type": "address"
        },
        {
          "internalType": "bool",
          "name": "isSoftLock",
          "type": "bool"
        },
        {
          "internalType": "bool",
          "name": "isUnlocked",
          "type": "bool"
        },
        {
          "internalType": "bool",
          "name": "withdrawLastAsEth",
          "type": "bool"
        },
        {
          "internalType": "enum TimelockHelper.LockType",
          "name": "lockType",
          "type": "uint8"
        },
        {
          "internalType": "enum TimelockHelper.LockStatus",
          "name": "lockStatus",
          "type": "uint8"
        },
        {
          "internalType": "address",
          "name": "recipient",
          "type": "address"
        },
        {
          "internalType": "string",
          "name": "name",
          "type": "string"
        }
      ],
      "stateMutability": "view",
      "type": "function"
    },
    {
      "inputs": [
        {
          "internalType": "address",
          "name": "newOwner",
          "type": "address"
        }
      ],
      "name": "transferOwnership",
      "outputs": [],
      "stateMutability": "nonpayable",
      "type": "function"
    },
    {
      "inputs": [],
      "name": "uniswapRouter",
      "outputs": [
        {
          "internalType": "contract IUniswapV2Router02",
          "name": "",
          "type": "address"
        }
      ],
      "stateMutability": "view",
      "type": "function"
    },
    {
      "inputs": [
        {
          "internalType": "uint256",
          "name": "id",
          "type": "uint256"
        },
        {
          "internalType": "address",
          "name": "caller",
          "type": "address"
        }
      ],
      "name": "unlockSoftTimelock",
      "outputs": [],
      "stateMutability": "nonpayable",
      "type": "function"
    },
    {
      "inputs": [
        {
          "internalType": "uint256",
          "name": "id",
          "type": "uint256"
        },
        {
          "internalType": "address",
          "name": "caller",
          "type": "address"
        },
        {
          "internalType": "bool",
          "name": "skipSwap",
          "type": "bool"
        }
      ],
      "name": "withdraw",
      "outputs": [],
      "stateMutability": "nonpayable",
      "type": "function"
    },
    {
      "stateMutability": "payable",
      "type": "receive"
    }
  ],
  "transactionHash": "0x617f829a17194686e51793b7aa5ea8a39cc6171b8f01e3a4f975c1476238d723",
  "args": [],
  "numDeployments": 1,
  "solcInputHash": "0f5d70c5d706c0fcd613c8eedfc2c5d4",
  "bytecode": "0x608080604052346100165761299a908161001c8239f35b600080fdfe6080604052600436101561001b575b361561001957600080fd5b005b60003560e01c8062ebf5dd146119c45780630178fe3f14611895578063034f91a21461186c5780630707919d1461139a5780630d7e149f146112cd578063485cc9551461115b57806352194f4914610c615780635c622a0e14610c27578063715018a614610bbd578063735de9f714610b945780638da5cb5b14610b5e5780639ba45f1b14610b1b578063a2719260146104b4578063aadcd3ba1461023c578063bea9849e1461016d578063f2fde38b146101445763fdfd65300361000e573461013f57604036600319011261013f576100f36119fd565b6001546001600160a01b0316330361012d5761011990610111612027565b600435612106565b600160008051602061294583398151915255005b60405163ea8e4eb560e01b8152600490fd5b600080fd5b3461013f57602036600319011261013f57610019610160611a13565b610168611cfe565b611d37565b3461013f57602036600319011261013f57610186611a13565b61018e611cfe565b600280546001600160a01b039283166001600160a01b0319918216811790925591908015610234576020600491604051928380926315ab88c960e31b82525afa908115610228576000916101ee575b505b16906003541617600355600080f35b90506020813d8211610220575b8161020860209383611bdd565b8101031261013f5751818116810361013f57836101dd565b3d91506101fb565b6040513d6000823e3d90fd5b5060006101df565b3461013f57602036600319011261013f57606061016060405161025e81611bae565b8281528260208201526000604082015260008382015260006080820152600060a0820152600060c0820152600060e08201526000610100820152600061012082015260006101408201520152600435600052600060205260406000206103766006604051926102cc84611bae565b6102d581611dec565b84526102e360018201611e44565b6020850152600281015460408501526003810154606085015261035c60ff600483015460018060a01b0381166080880152818160a01c16151560a0880152818160a81c16151560c0880152818160b01c16151560e088015261034e828260b81c166101008901611e93565b60c01c166101208601611e9f565b60058101546001600160a01b031661014085015201611bfe565b6101608201526040516020815281519161018060208301526101a08201835180915260206101c0840194019060005b81811061049557505050602081810151838503601f1901604085015280518086529482019491019060005b81811061047f57848061047b8861016088604081015160608601526060810151608086015260018060a01b0360808201511660a086015260a0810151151560c086015260c0810151151560e086015260e08101511515610100860152610440610100820151610120870190611ca4565b610454610120820151610140870190611cb1565b6101408101516001600160a01b0316858301520151838203601f1901610180850152611cbe565b0390f35b82518652602095860195909201916001016103d0565b82516001600160a01b03168652602095860195909201916001016103a5565b61014036600319011261013f576024356001600160401b03811161013f576104e0903690600401611a7a565b906044356001600160401b03811161013f57610500903690600401611a7a565b9091608435906001600160a01b038216820361013f5760a4356001600160401b03811161013f57610535903690600401611aaa565b60c4356001600160401b03811161013f57610554903690600401611aaa565b96909760e4359460018060a01b038616860361013f57600461010435101561013f576101243594851515860361013f576001546001600160a01b0316330361012d576105b6906105a2612027565b6105ae60643542611fb2565b953691611ff0565b94604051906105c482611bae565b6105cd84612057565b6105da6040519182611bdd565b84815260208101368660051b86011161013f5784905b8660051b86018210610b0357505082526106098a612057565b6106166040519182611bdd565b8a815260208101368c60051b88011161013f5786905b8c60051b88018210610af35750506020830152604082018690526000606083018190526001600160a01b038916608084015260a0830181905260c0830152151560e0820152600261010082015261068a610104356101208301611e9f565b60018060a01b03881661014082015285610160820152600435600052600060205260406000209080518051906001600160401b038211610a96576020906106d183866120a9565b0183600052602060002060005b838110610ad6575050505060208101518051906001600160401b038211610a96576020600185019161071084846120a9565b0190600052602060002060005b838110610ac257505050506040810151600283015560608101516003830155608081015160048301805460a08085015160c08601516001600160b01b03199093166001600160a01b039590951694909417931515901b60ff60a01b169290921791151560a81b60ff60a81b169190911781559060e0810151825460ff60b01b191690151560b01b60ff60b01b161782556101008101516003811015610aac57825460ff60b81b191660b89190911b60ff60b81b16178255610120810151916004831015610aac57610160926107f1916120e2565b6005830160018060a01b03610140830151166001600160601b0360a01b82541617905501518051906001600160401b038211610a96576108346006840154611b74565b601f8111610a56575b50602090601f83116001146109e65760069291600091836109db575b50508160011b916000199060031b1c1916179101555b604051918060c0840160c085525260e08301919060005b8181106109b55750505081810360208301528781526001600160fb1b03881161013f57877f2289bc816cf73913b9dcda2c61f4061bf644b0ff8522b35e38773471988a5863937f9b49bb064023c0d8c7d1b2bb1fc1fee4de356877d5192d3388f641d2227efaa89960051b90602084013760051b01926040820152600060608201526002608082015260208184030160a08201528061093e60018060a01b0388169660018060a01b0316956020600435960190611cbe565b0390a46040516109518161010435611cb1565b600080516020612905833981519152602060043592a2826040519460208652816020870152604086013760006040848601015260018060a01b03169260408160043594601f80199101168101030190a3600160008051602061294583398151915255005b909192602080600192838060a01b036109cd88611a29565b168152019401929101610886565b015190508e80610859565b906006840160005260206000209160005b601f1985168110610a3e5750918391600193600695601f19811610610a25575b505050811b0191015561086f565b015160001960f88460031b161c191690558e8080610a17565b919260206001819286850151815501940192016109f7565b610a8690600685016000526020600020601f850160051c81019160208610610a8c575b601f0160051c019061206e565b8d61083d565b9091508190610a79565b634e487b7160e01b600052604160045260246000fd5b634e487b7160e01b600052602160045260246000fd5b60019060208451940193818401550161071d565b82516001600160a01b0316818301556020909201916001016106de565b813581526020918201910161062c565b60208091610b1084611a29565b8152019101906105f0565b3461013f57602036600319011261013f57610b34611a13565b610b3c611cfe565b600180546001600160a01b0319166001600160a01b0392909216919091179055005b3461013f57600036600319011261013f57600080516020612925833981519152546040516001600160a01b039091168152602090f35b3461013f57600036600319011261013f576002546040516001600160a01b039091168152602090f35b3461013f57600036600319011261013f57610bd6611cfe565b60008051602061292583398151915280546001600160a01b031981169091556000906001600160a01b03167f8be0079c531659141344cd1fd0a4f28419497f9722a3daafe3b4186f6b6457e08280a3005b3461013f57602036600319011261013f576040610c45600435611eab565b610c5183518093611cb1565b6001600160a01b03166020820152f35b610c6a36611ad7565b9360018060a09b959793999a94989b1b0360015416330361012d576105ae610c9a92610c94612027565b42611fb2565b9260405190610ca882611bae565b610cb183612057565b610cbe6040519182611bdd565b83815260208101368560051b87011161013f5785905b8560051b870182106111435750508252610ced8a612057565b610cfa6040519182611bdd565b8a815260208101368c60051b8c011161013f578a905b8c60051b8c01821061113357505060208301528560408301526000606083015260018060a01b0387166080830152600060a0830152600060c0830152151560e08201526000610100820152610d69876101208301611e9f565b60018060a01b0386166101408201528361016082015289600052600060205260406000209080518051906001600160401b038211610a9657602090610dae83866120a9565b0183600052602060002060005b838110611116575050505060208101518051906001600160401b038211610a965760206001850191610ded84846120a9565b0190600052602060002060005b83811061110257505050506040810151600283015560608101516003830155608081015160048301805460a08085015160c08601516001600160b01b03199093166001600160a01b039590951694909417931515901b60ff60a01b169290921791151560a81b60ff60a81b169190911781559060e0810151825460ff60b01b191690151560b01b60ff60b01b161782556101008101516003811015610aac57825460ff60b81b191660b89190911b60ff60b81b16178255610120810151916004831015610aac5761016092610ece916120e2565b6005830160018060a01b03610140830151166001600160601b0360a01b82541617905501518051906001600160401b038211610a9657610f116006840154611b74565b601f81116110cd575b50602090601f831160011461105d576006929160009183611052575b50508160011b916000199060031b1c1916179101555b604051908060c0830160c084525260e08201929060005b81811061102c5750505080820360208201528782526001600160fb1b03881161013f57806110078a947f2289bc816cf73913b9dcda2c61f4061bf644b0ff8522b35e38773471988a5863948b60209b6000805160206129058339815191529d60051b908d84013760051b019660408401526000606084015260006080840152898388030160a08401528960018060a01b0389169860018060a01b0316970190611cbe565b0390a46110176040518092611cb1565ba2600160008051602061294583398151915255005b909193602080600192838060a01b0361104489611a29565b168152019501929101610f63565b015190508d80610f36565b906006840160005260206000209160005b601f19851681106110b55750918391600193600695601f1981161061109c575b505050811b01910155610f4c565b015160001960f88460031b161c191690558d808061108e565b9192602060018192868501518155019401920161106e565b6110fc90600685016000526020600020601f850160051c81019160208610610a8c57601f0160051c019061206e565b8c610f1a565b600190602084519401938184015501610dfa565b82516001600160a01b031681830155602090920191600101610dbb565b8135815260209182019101610d10565b6020809161115084611a29565b815201910190610cd4565b3461013f57604036600319011261013f57611174611a13565b61117c6119fd565b7ff0c57e16840df040f15088dc2f81fe391c3923bec73e23a9662efc9c229c6a009081549060ff8260401c1615916001600160401b038116948515806112c6575b600180971490816112bc575b1590816112b3575b506112a15767ffffffffffffffff198216861785556112019184611282575b506111f9611dab565b610168611dab565b611209611dab565b611211611dab565b60008051602061294583398151915284905583546001600160a01b0319166001600160a01b039190911617835561124457005b805468ff0000000000000000191690556040519081527fc7f505b2f371ae2175ee4913f4499e1f2633a7b5936321eed1cdaeb6115181d290602090a1005b68ffffffffffffffffff191668010000000000000001178555866111f0565b60405163f92ee8a960e01b8152600490fd5b905015876111d1565b303b1591506111c9565b50836111bd565b3461013f57602036600319011261013f5760043560005260006020526040600020600281015461047b60038301549260048101549061138260018060a01b03926113206006856005860154169401611bfe565b93604051978897885260208801528116604087015260ff8160a01c161515606087015260ff8160a81c161515608087015260ff8160b01c16151560a087015261137260c0870160ff8360b81c16611ca4565b60ff60e087019160c01c16611cb1565b61010084015261014080610120850152830190611cbe565b6113a336611ad7565b9360018060a09b9593999a94989b1b0360015416330361012d576113d0916113c9612027565b3691611ff0565b92604051906113de82611bae565b6113e783612057565b6113f46040519182611bdd565b83815260208101368560051b87011161013f5785905b8560051b8701821061185457505082526114238a612057565b6114306040519182611bdd565b8a815260208101368c60051b8c011161013f578a905b8c60051b8c01821061184457505060208301526000604083015285606083015260018060a01b0387166080830152600160a0830152600060c0830152151560e0820152600161010082015261149f876101208301611e9f565b60018060a01b0386166101408201528361016082015289600052600060205260406000209080518051906001600160401b038211610a96576020906114e483866120a9565b0183600052602060002060005b838110611827575050505060208101518051906001600160401b038211610a96576020600185019161152384846120a9565b0190600052602060002060005b83811061181357505050506040810151600283015560608101516003830155608081015160048301805460a08085015160c08601516001600160b01b03199093166001600160a01b039590951694909417931515901b60ff60a01b169290921791151560a81b60ff60a81b169190911781559060e0810151825460ff60b01b191690151560b01b60ff60b01b161782556101008101516003811015610aac57825460ff60b81b191660b89190911b60ff60b81b16178255610120810151916004831015610aac5761016092611604916120e2565b6005830160018060a01b03610140830151166001600160601b0360a01b82541617905501518051906001600160401b038211610a96576116476006840154611b74565b601f81116117de575b50602090601f831160011461176e576006929160009183611763575b50508160011b916000199060031b1c1916179101555b604051908060c0830160c084525260e08201929060005b81811061173d5750505080820360208201528782526001600160fb1b03881161013f57806110078a947f2289bc816cf73913b9dcda2c61f4061bf644b0ff8522b35e38773471988a5863948b60209b6000805160206129058339815191529d60051b908d84013760051b019660006040850152606084015260016080840152898388030160a08401528960018060a01b0389169860018060a01b0316970190611cbe565b909193602080600192838060a01b0361175589611a29565b168152019501929101611699565b015190508d8061166c565b906006840160005260206000209160005b601f19851681106117c65750918391600193600695601f198116106117ad575b505050811b01910155611682565b015160001960f88460031b161c191690558d808061179f565b9192602060018192868501518155019401920161177f565b61180d90600685016000526020600020601f850160051c81019160208610610a8c57601f0160051c019061206e565b8c611650565b600190602084519401938184015501611530565b82516001600160a01b0316818301556020909201916001016114f1565b8135815260209182019101611446565b6020809161186184611a29565b81520191019061140a565b3461013f57600036600319011261013f576001546040516001600160a01b039091168152602090f35b3461013f5760208060031936011261013f576004356000526000815260406000206040516118c281611bae565b6118cb82611dec565b815260019061196f60066118e0848601611e44565b948684019586526002810154604085015260038101546060850152600481015461195d60ff60018060a01b03928381166080890152818160a01c16151560a0890152818160a81c16151560c0890152818160b01c16151560e089015261194f828260b81c166101008a01611e93565b60c01c166101208701611e9f565b60058201541661014085015201611bfe565b6101608201525191519261198e60405193604085526040850190611a3d565b8381038285015281808651928381520195019160005b8281106119b15785870386f35b83518752958101959281019284016119a4565b3461013f57606036600319011261013f576119dd6119fd565b604435801515810361013f57610119916119f5612027565b60043561224f565b602435906001600160a01b038216820361013f57565b600435906001600160a01b038216820361013f57565b35906001600160a01b038216820361013f57565b90815180825260208080930193019160005b828110611a5d575050505090565b83516001600160a01b031685529381019392810192600101611a4f565b9181601f8401121561013f578235916001600160401b03831161013f576020808501948460051b01011161013f57565b9181601f8401121561013f578235916001600160401b03831161013f576020838186019501011161013f57565b9061010060031983011261013f57600435916001600160401b039160243583811161013f5782611b0991600401611a7a565b9390939260443582811161013f5781611b2491600401611a7a565b939093926064359260843591821161013f57611b4291600401611aaa565b909160a4356001600160a01b038116810361013f579060c435600481101561013f579060e435801515810361013f5790565b90600182811c92168015611ba4575b6020831014611b8e57565b634e487b7160e01b600052602260045260246000fd5b91607f1691611b83565b61018081019081106001600160401b03821117610a9657604052565b6001600160401b038111610a9657604052565b90601f801991011681019081106001600160401b03821117610a9657604052565b9060405191826000825492611c1284611b74565b908184526001948581169081600014611c815750600114611c3e575b5050611c3c92500383611bdd565b565b9093915060005260209081600020936000915b818310611c69575050611c3c93508201013880611c2e565b85548884018501529485019487945091830191611c51565b915050611c3c94506020925060ff191682840152151560051b8201013880611c2e565b906003821015610aac5752565b906004821015610aac5752565b919082519283825260005b848110611cea575050826000602080949584010152601f8019910116010190565b602081830181015184830182015201611cc9565b600080516020612925833981519152546001600160a01b03163303611d1f57565b60405163118cdaa760e01b8152336004820152602490fd5b6001600160a01b03908116908115611d925760008051602061292583398151915280546001600160a01b031981168417909155167f8be0079c531659141344cd1fd0a4f28419497f9722a3daafe3b4186f6b6457e0600080a3565b604051631e4fbdf760e01b815260006004820152602490fd5b60ff7ff0c57e16840df040f15088dc2f81fe391c3923bec73e23a9662efc9c229c6a005460401c1615611dda57565b604051631afcd79f60e31b8152600490fd5b9060405191828154918282526020928383019160005283600020936000905b828210611e2157505050611c3c92500383611bdd565b85546001600160a01b031684526001958601958895509381019390910190611e0b565b9060405191828154918282526020928383019160005283600020936000905b828210611e7957505050611c3c92500383611bdd565b855484526001958601958895509381019390910190611e63565b6003821015610aac5752565b6004821015610aac5752565b9060009182528160205260408220604051611ec581611bae565b611ece82611dec565b8152611edc60018301611e44565b6020820152600282015460408201526003820154606082015260048201546080820191610160611f7a600660018060a01b0396878616875260ff8660a01c16151560a086015260ff8660a81c16151560c086015260ff8660b01c16151560e0860152611f5260ff8760b81c166101008701611e93565b611f6760ff61012087019760c01c1687611e9f565b8760058201541661014086015201611bfe565b9101528282511615611fab5751936004851015611f975750511690565b634e487b7160e01b81526021600452602490fd5b5050508190565b91908201809211611fbf57565b634e487b7160e01b600052601160045260246000fd5b6001600160401b038111610a9657601f01601f191660200190565b929192611ffc82611fd5565b9161200a6040519384611bdd565b82948184528183011161013f578281602093846000960137010152565b60008051602061294583398151915260028154146120455760029055565b604051633ee5aeb560e01b8152600490fd5b6001600160401b038111610a965760051b60200190565b818110612079575050565b6000815560010161206e565b80546000825580612094575050565b611c3c9160005260206000209081019061206e565b90680100000000000000008111610a96578154908083558181106120cc57505050565b611c3c926000526020600020918201910161206e565b906004811015610aac57815460ff60c01b191660c09190911b60ff60c01b16179055565b9081600052600060205260409081600020906004908183019182549160018060a01b0380841691821561220a5760ff8560c01c16848110156121f5576002036121e55760ff8560a01c16156121d55716036121c75760ff8260a81c166121b9575060ff60a81b1916600160a81b17905560038101547fc92510a4ac9a15b6edc75157859d271228f92b11d09d91200f705e8e44c34eee926020926002926121ad9042611fb2565b928391015551908152a2565b84516328486b6360e11b8152fd5b84516330cd747160e01b8152fd5b875163549b9dbd60e01b81528490fd5b87516322d4f12560e01b81528490fd5b602185634e487b7160e01b6000525260246000fd5b505050505050505050565b8051600110156122255760400190565b634e487b7160e01b600052603260045260246000fd5b80518210156122255760209160051b010190565b90600090828252816020526040938483206004928382019384549760018060a01b0398898116156124925760ff8160c01c168381101561247f576002036124715760ff60c01b1916600360c01b178087558151600381528a9491939291908a9060008051602061290583398151915290602090a2846005870154169a8b9116036124645760ff8360a01c1680612456575b612449576002850154421061243c5784541561242f57509061230184611dec565b926001938486019660ff61231489611e44565b9460b01c16908a875b61236e575b50505050505050507f6141b54b56b8a52a8c6f5cd2a857f6117b18ffbf4d46bd3106f300a839cbf5ea93929161235a61235f92612085565b612085565b805460ff60b01b1916905580a3565b835180821015612429576000198101908111612416578e9082148061240f575b80612407575b156123df576123bb90866123a8848861223b565b51166123b4848a61223b565b5190612536565b60001981146123cc5787018761231d565b634e487b7160e01b8c526011875260248cfd5b61240290866123ee848861223b565b5116906123fb848a61223b565b519161249e565b6123bb565b508215612394565b508361238e565b634e487b7160e01b8d526011885260248dfd5b50612322565b516367e3990d60e01b8152fd5b51636100d92960e11b8152fd5b5163549b9dbd60e01b8152fd5b5060ff8360a81c16156122e0565b5163ea8e4eb560e01b8152fd5b50516322d4f12560e01b8152fd5b634e487b7160e01b895260218452602489fd5b50505050505050505050565b60405163a9059cbb60e01b60208201526001600160a01b03929092166024830152604480830193909352918152611c3c916124da606483611bdd565b906000602091828151910182855af115610228576000513d61252d57506001600160a01b0381163b155b61250b5750565b604051635274afe760e01b81526001600160a01b039091166004820152602490fd5b60011415612504565b6003546000936001600160a01b0391821693909282169081851461285c578260025416158015612854575b61284657604093845160608101936001600160401b039482811086821117610a965787526002825260209788830188368237835115612225578290526125a683612215565b5285600254169087519863d06ca61f60e01b8a528560048b0152602499898b8201528b81806125d86044820189611a3d565b0381875afa801561283c578c906127a6575b6125f49150612215565b519661251c9788810298818a04149015171561279357895163095ea7b360e01b8382018181526001600160a01b0387168e8401908152602081018b90529296928f918691839190612652908b9060400103601f1981018c528b611bdd565b895190828a5af1903d81519183612775575b5050501561271f575b50505050505084600254169461012c42019182421161270c57863b156127085792899694919287936126cb61271098968b519c8d9a8b998a9863791ac94760e01b8a5260048a0152049087015260a0604487015260a4860190611a3d565b92166064840152608483015203925af19081156126ff57506126eb575050565b6126f58291611bca565b6126fc5750565b80fd5b513d84823e3d90fd5b8980fd5b634e487b7160e01b8a526011600452888afd5b8b51938401528b8301528b604483015260448252608082019082821090821117612760576127559392916124da918b52826124da565b38808080808061266d565b8a634e487b7160e01b60005260416004526000fd5b5090915061278b5750843b15155b388f80612664565b600114612783565b634e487b7160e01b8c5260116004528a8cfd5b503d808d833e6127b68183611bdd565b81019082818303126128345780519089821161283857019080601f830112156128345781516127e481612057565b926127f18d519485611bdd565b818452848085019260051b8201019283116128305784809101915b83831061282057505050506125f4906125ea565b825181529181019185910161280c565b8e80fd5b8c80fd5b8d80fd5b8a513d8e823e3d90fd5b93509050611c3c935061249e565b508415612561565b9493508091503b1561290057828091602460405180948193632e1a7d4d60e01b83528960048401525af180156128f5576128e2575b508180809481935af1903d156128dc573d906128ac82611fd5565b916128ba6040519384611bdd565b825260203d92013e5b156128ca57565b604051630c08bcb960e21b8152600490fd5b506128c3565b6128ee90929192611bca565b9038612891565b6040513d85823e3d90fd5b8280fdfe199c49764c24c272ab05711f746ea69945084e537b524515f05902c3c9a7e9e89016d09d72d40fdae2fd8ceac6b6234c7706214fd39c1cd1e609a0528c1993009b779b17422d0df92223018b32b4d1fa46e071723d6817e2486d003becc55f00a2646970667358221220cbbe37ce9f6153501ded375f978737a188a2e0cb40cf037182741c99e6596c7e64736f6c63430008140033",
  "devdoc": {
    "errors": {
      "InvalidInitialization()": [
        {
          "details": "The contract is already initialized."
        }
      ],
      "NotInitializing()": [
        {
          "details": "The contract is not initializing."
        }
      ],
      "OwnableInvalidOwner(address)": [
        {
          "details": "The owner is not a valid owner account. (eg. `address(0)`)"
        }
      ],
      "OwnableUnauthorizedAccount(address)": [
        {
          "details": "The caller account is not authorized to perform an operation."
        }
      ],
      "ReentrancyGuardReentrantCall()": [
        {
          "details": "Unauthorized reentrant call."
        }
      ],
      "SafeERC20FailedOperation(address)": [
        {
          "details": "An operation with an ERC-20 token failed."
        }
      ]
    },
    "events": {
      "Initialized(uint64)": {
        "details": "Triggered when the contract has been initialized or reinitialized."
      }
    },
    "kind": "dev",
    "methods": {
      "owner()": {
        "details": "Returns the address of the current owner."
      },
      "renounceOwnership()": {
        "details": "Leaves the contract without owner. It will not be possible to call `onlyOwner` functions. Can only be called by the current owner. NOTE: Renouncing ownership will leave the contract without an owner, thereby disabling any functionality that is only available to the owner."
      },
      "transferOwnership(address)": {
        "details": "Transfers ownership of the contract to a new account (`newOwner`). Can only be called by the current owner."
      }
    },
    "stateVariables": {
      "WITHDRAW_SWAP_SLIPPAGE_BPS": {
        "details": "Slippage tolerance for token→ETH withdraw swap (basis points). 500 = 5%."
      }
    },
    "version": 1
  },
  "userdoc": {
    "kind": "user",
    "methods": {},
    "version": 1
  },
  "storageLayout": {
    "storage": [
      {
        "astId": 40177,
        "contract": "contracts/timelock/TimeLockERC20.sol:TimelockERC20",
        "label": "timelocks",
        "offset": 0,
        "slot": "0",
        "type": "t_mapping(t_uint256,t_struct(TimelockInfo)40122_storage)"
      },
      {
        "astId": 40179,
        "contract": "contracts/timelock/TimeLockERC20.sol:TimelockERC20",
        "label": "routerAddresses",
        "offset": 0,
        "slot": "1",
        "type": "t_address"
      },
      {
        "astId": 40182,
        "contract": "contracts/timelock/TimeLockERC20.sol:TimelockERC20",
        "label": "uniswapRouter",
        "offset": 0,
        "slot": "2",
        "type": "t_contract(IUniswapV2Router02)26734"
      },
      {
        "astId": 40184,
        "contract": "contracts/timelock/TimeLockERC20.sol:TimelockERC20",
        "label": "weth",
        "offset": 0,
        "slot": "3",
        "type": "t_address"
      }
    ],
    "types": {
      "t_address": {
        "encoding": "inplace",
        "label": "address",
        "numberOfBytes": "20"
      },
      "t_array(t_address)dyn_storage": {
        "base": "t_address",
        "encoding": "dynamic_array",
        "label": "address[]",
        "numberOfBytes": "32"
      },
      "t_array(t_uint256)dyn_storage": {
        "base": "t_uint256",
        "encoding": "dynamic_array",
        "label": "uint256[]",
        "numberOfBytes": "32"
      },
      "t_bool": {
        "encoding": "inplace",
        "label": "bool",
        "numberOfBytes": "1"
      },
      "t_contract(IUniswapV2Router02)26734": {
        "encoding": "inplace",
        "label": "contract IUniswapV2Router02",
        "numberOfBytes": "20"
      },
      "t_enum(LockStatus)44456": {
        "encoding": "inplace",
        "label": "enum TimelockHelper.LockStatus",
        "numberOfBytes": "1"
      },
      "t_enum(LockType)44451": {
        "encoding": "inplace",
        "label": "enum TimelockHelper.LockType",
        "numberOfBytes": "1"
      },
      "t_mapping(t_uint256,t_struct(TimelockInfo)40122_storage)": {
        "encoding": "mapping",
        "key": "t_uint256",
        "label": "mapping(uint256 => struct TimelockERC20.TimelockInfo)",
        "numberOfBytes": "32",
        "value": "t_struct(TimelockInfo)40122_storage"
      },
      "t_string_storage": {
        "encoding": "bytes",
        "label": "string",
        "numberOfBytes": "32"
      },
      "t_struct(TimelockInfo)40122_storage": {
        "encoding": "inplace",
        "label": "struct TimelockERC20.TimelockInfo",
        "members": [
          {
            "astId": 40095,
            "contract": "contracts/timelock/TimeLockERC20.sol:TimelockERC20",
            "label": "tokenAddresses",
            "offset": 0,
            "slot": "0",
            "type": "t_array(t_address)dyn_storage"
          },
          {
            "astId": 40098,
            "contract": "contracts/timelock/TimeLockERC20.sol:TimelockERC20",
            "label": "amounts",
            "offset": 0,
            "slot": "1",
            "type": "t_array(t_uint256)dyn_storage"
          },
          {
            "astId": 40100,
            "contract": "contracts/timelock/TimeLockERC20.sol:TimelockERC20",
            "label": "unlockTime",
            "offset": 0,
            "slot": "2",
            "type": "t_uint256"
          },
          {
            "astId": 40102,
            "contract": "contracts/timelock/TimeLockERC20.sol:TimelockERC20",
            "label": "bufferTime",
            "offset": 0,
            "slot": "3",
            "type": "t_uint256"
          },
          {
            "astId": 40104,
            "contract": "contracts/timelock/TimeLockERC20.sol:TimelockERC20",
            "label": "owner",
            "offset": 0,
            "slot": "4",
            "type": "t_address"
          },
          {
            "astId": 40106,
            "contract": "contracts/timelock/TimeLockERC20.sol:TimelockERC20",
            "label": "isSoftLock",
            "offset": 20,
            "slot": "4",
            "type": "t_bool"
          },
          {
            "astId": 40108,
            "contract": "contracts/timelock/TimeLockERC20.sol:TimelockERC20",
            "label": "isUnlocked",
            "offset": 21,
            "slot": "4",
            "type": "t_bool"
          },
          {
            "astId": 40111,
            "contract": "contracts/timelock/TimeLockERC20.sol:TimelockERC20",
            "label": "withdrawLastAsEth",
            "offset": 22,
            "slot": "4",
            "type": "t_bool"
          },
          {
            "astId": 40114,
            "contract": "contracts/timelock/TimeLockERC20.sol:TimelockERC20",
            "label": "lockType",
            "offset": 23,
            "slot": "4",
            "type": "t_enum(LockType)44451"
          },
          {
            "astId": 40117,
            "contract": "contracts/timelock/TimeLockERC20.sol:TimelockERC20",
            "label": "lockStatus",
            "offset": 24,
            "slot": "4",
            "type": "t_enum(LockStatus)44456"
          },
          {
            "astId": 40119,
            "contract": "contracts/timelock/TimeLockERC20.sol:TimelockERC20",
            "label": "recipient",
            "offset": 0,
            "slot": "5",
            "type": "t_address"
          },
          {
            "astId": 40121,
            "contract": "contracts/timelock/TimeLockERC20.sol:TimelockERC20",
            "label": "name",
            "offset": 0,
            "slot": "6",
            "type": "t_string_storage"
          }
        ],
        "numberOfBytes": "224"
      },
      "t_uint256": {
        "encoding": "inplace",
        "label": "uint256",
        "numberOfBytes": "32"
      }
    }
  }
}