{
  "address": "0x72b6AD53533a618A6Fdc07d8D1b8A3C980F21993",
  "abi": [
    {
      "inputs": [
        {
          "internalType": "address",
          "name": "initialAdmin",
          "type": "address"
        }
      ],
      "stateMutability": "nonpayable",
      "type": "constructor"
    },
    {
      "inputs": [],
      "name": "AccessControlBadConfirmation",
      "type": "error"
    },
    {
      "inputs": [
        {
          "internalType": "address",
          "name": "account",
          "type": "address"
        },
        {
          "internalType": "bytes32",
          "name": "neededRole",
          "type": "bytes32"
        }
      ],
      "name": "AccessControlUnauthorizedAccount",
      "type": "error"
    },
    {
      "inputs": [
        {
          "internalType": "address",
          "name": "token",
          "type": "address"
        }
      ],
      "name": "AlreadyWhitelisted",
      "type": "error"
    },
    {
      "inputs": [],
      "name": "InvalidAdminAddress",
      "type": "error"
    },
    {
      "inputs": [
        {
          "internalType": "address",
          "name": "token",
          "type": "address"
        }
      ],
      "name": "NotERC20",
      "type": "error"
    },
    {
      "anonymous": false,
      "inputs": [
        {
          "indexed": true,
          "internalType": "bytes32",
          "name": "role",
          "type": "bytes32"
        },
        {
          "indexed": true,
          "internalType": "bytes32",
          "name": "previousAdminRole",
          "type": "bytes32"
        },
        {
          "indexed": true,
          "internalType": "bytes32",
          "name": "newAdminRole",
          "type": "bytes32"
        }
      ],
      "name": "RoleAdminChanged",
      "type": "event"
    },
    {
      "anonymous": false,
      "inputs": [
        {
          "indexed": true,
          "internalType": "bytes32",
          "name": "role",
          "type": "bytes32"
        },
        {
          "indexed": true,
          "internalType": "address",
          "name": "account",
          "type": "address"
        },
        {
          "indexed": true,
          "internalType": "address",
          "name": "sender",
          "type": "address"
        }
      ],
      "name": "RoleGranted",
      "type": "event"
    },
    {
      "anonymous": false,
      "inputs": [
        {
          "indexed": true,
          "internalType": "bytes32",
          "name": "role",
          "type": "bytes32"
        },
        {
          "indexed": true,
          "internalType": "address",
          "name": "account",
          "type": "address"
        },
        {
          "indexed": true,
          "internalType": "address",
          "name": "sender",
          "type": "address"
        }
      ],
      "name": "RoleRevoked",
      "type": "event"
    },
    {
      "anonymous": false,
      "inputs": [
        {
          "indexed": false,
          "internalType": "address",
          "name": "token",
          "type": "address"
        }
      ],
      "name": "TokenAdded",
      "type": "event"
    },
    {
      "anonymous": false,
      "inputs": [
        {
          "indexed": false,
          "internalType": "address",
          "name": "token",
          "type": "address"
        }
      ],
      "name": "TokenRemoved",
      "type": "event"
    },
    {
      "inputs": [],
      "name": "DEFAULT_ADMIN_ROLE",
      "outputs": [
        {
          "internalType": "bytes32",
          "name": "",
          "type": "bytes32"
        }
      ],
      "stateMutability": "view",
      "type": "function"
    },
    {
      "inputs": [
        {
          "internalType": "address",
          "name": "token",
          "type": "address"
        }
      ],
      "name": "addToken",
      "outputs": [],
      "stateMutability": "nonpayable",
      "type": "function"
    },
    {
      "inputs": [
        {
          "internalType": "bytes32",
          "name": "role",
          "type": "bytes32"
        }
      ],
      "name": "getRoleAdmin",
      "outputs": [
        {
          "internalType": "bytes32",
          "name": "",
          "type": "bytes32"
        }
      ],
      "stateMutability": "view",
      "type": "function"
    },
    {
      "inputs": [],
      "name": "getWhitelist",
      "outputs": [
        {
          "internalType": "address[]",
          "name": "",
          "type": "address[]"
        }
      ],
      "stateMutability": "view",
      "type": "function"
    },
    {
      "inputs": [
        {
          "internalType": "bytes32",
          "name": "role",
          "type": "bytes32"
        },
        {
          "internalType": "address",
          "name": "account",
          "type": "address"
        }
      ],
      "name": "grantRole",
      "outputs": [],
      "stateMutability": "nonpayable",
      "type": "function"
    },
    {
      "inputs": [
        {
          "internalType": "bytes32",
          "name": "role",
          "type": "bytes32"
        },
        {
          "internalType": "address",
          "name": "account",
          "type": "address"
        }
      ],
      "name": "hasRole",
      "outputs": [
        {
          "internalType": "bool",
          "name": "",
          "type": "bool"
        }
      ],
      "stateMutability": "view",
      "type": "function"
    },
    {
      "inputs": [
        {
          "internalType": "address",
          "name": "token",
          "type": "address"
        }
      ],
      "name": "isWhitelisted",
      "outputs": [
        {
          "internalType": "bool",
          "name": "",
          "type": "bool"
        }
      ],
      "stateMutability": "view",
      "type": "function"
    },
    {
      "inputs": [
        {
          "internalType": "address",
          "name": "token",
          "type": "address"
        }
      ],
      "name": "removeToken",
      "outputs": [],
      "stateMutability": "nonpayable",
      "type": "function"
    },
    {
      "inputs": [
        {
          "internalType": "bytes32",
          "name": "role",
          "type": "bytes32"
        },
        {
          "internalType": "address",
          "name": "callerConfirmation",
          "type": "address"
        }
      ],
      "name": "renounceRole",
      "outputs": [],
      "stateMutability": "nonpayable",
      "type": "function"
    },
    {
      "inputs": [
        {
          "internalType": "bytes32",
          "name": "role",
          "type": "bytes32"
        },
        {
          "internalType": "address",
          "name": "account",
          "type": "address"
        }
      ],
      "name": "revokeRole",
      "outputs": [],
      "stateMutability": "nonpayable",
      "type": "function"
    },
    {
      "inputs": [
        {
          "internalType": "bytes4",
          "name": "interfaceId",
          "type": "bytes4"
        }
      ],
      "name": "supportsInterface",
      "outputs": [
        {
          "internalType": "bool",
          "name": "",
          "type": "bool"
        }
      ],
      "stateMutability": "view",
      "type": "function"
    },
    {
      "inputs": [
        {
          "internalType": "uint256",
          "name": "",
          "type": "uint256"
        }
      ],
      "name": "tokenList",
      "outputs": [
        {
          "internalType": "address",
          "name": "",
          "type": "address"
        }
      ],
      "stateMutability": "view",
      "type": "function"
    },
    {
      "inputs": [
        {
          "internalType": "address",
          "name": "",
          "type": "address"
        }
      ],
      "name": "whitelistLookup",
      "outputs": [
        {
          "internalType": "address",
          "name": "token",
          "type": "address"
        },
        {
          "internalType": "bool",
          "name": "isWhitelisted",
          "type": "bool"
        },
        {
          "internalType": "bool",
          "name": "inList",
          "type": "bool"
        }
      ],
      "stateMutability": "view",
      "type": "function"
    }
  ],
  "transactionHash": "0x192b67eaaaa9a15b2a5bc19816b22f0abba856dccc24721ba50e6ac82b4bdc74",
  "args": [
    "0x89f544A2ECb12E37978F61Aa47ACa64F81677944"
  ],
  "numDeployments": 1,
  "solcInputHash": "0f5d70c5d706c0fcd613c8eedfc2c5d4",
  "bytecode": "0x60803461008057601f610a9338819003918201601f19168301916001600160401b038311848410176100855780849260209460405283398101031261008057516001600160a01b038116808203610080571561006e5761005e9061009b565b50604051610967908161012c8239f35b60405163016ed19f60e21b8152600490fd5b600080fd5b634e487b7160e01b600052604160045260246000fd5b6001600160a01b031660008181527fad3228b676f7d3cd4284a5443f17f1962b36e491b30a40b2405849e597ba5fb5602052604081205490919060ff1661012757818052816020526040822081835260205260408220600160ff1982541617905533917f2f8788117e7eff1d82e926ec794901d17c78024a50270940304540a733656f0d8180a4600190565b509056fe608060408181526004908136101561001657600080fd5b600092833560e01c90816301ffc9a7146105b157508063248a9ca3146105875780632f2ff15d1461055f57806336568abe146105185780633af32abf146104cd5780635fa7b584146104a057806390bb91e31461044857806391d14854146104025780639ead7222146103c1578063a217fddf146103a6578063d01f63f51461026a578063d48bfca7146100f35763d547741f146100b357600080fd5b346100ef57806003193601126100ef576100eb91356100e660016100d5610605565b9383875286602052862001546106db565b61077f565b5080f35b8280fd5b508290346102665760203660031901126102665761010f610620565b90610118610683565b610121826108cd565b15610247576001600160a01b0391821680845260016020528184205490929060a01c60ff16610230578284526001602052818420805460ff60a01b198116600160a01b1780835560a81c60ff16156101a2575b857f784c8f4dbf0ffedd6e72c76501c545a70f8b203b30a26ce542bf92ba87c248a46020878751908152a180f35b61ffff60a01b191661010160a01b1790556002546801000000000000000081101561021d577f784c8f4dbf0ffedd6e72c76501c545a70f8b203b30a26ce542bf92ba87c248a494955090610200826001602096959401600255610636565b819291549060031b9185831b921b19161790559091849386610174565b634e487b7160e01b855260418652602485fd5b815163017f9de560e31b8152808601849052602490fd5b5163227c0e1f60e21b81526001600160a01b0390911681840152602490fd5b5080fd5b5091346103a357806003193601126103a35791906002549261028b84610890565b61029784519182610858565b8481526102a385610890565b6020958287019491601f190136863783805b828210610304575050505083519485948186019282875251809352850193925b8281106102e457505050500390f35b83516001600160a01b0316855286955093810193928101926001016102d5565b61031382999695979899610636565b9054600391821b1c6001600160a01b0390811660009081526001602052604090205490919060a01c60ff1661035b575b50509061034f906108a8565b909796959394976102b5565b61036484610636565b9054911b1c1687518210156103905781610389918861034f9460051b8b0101526108a8565b9038610343565b634e487b7160e01b865260328552602486fd5b80fd5b83823461026657816003193601126102665751908152602090f35b5090346100ef5760203660031901126100ef5735916002548310156103a357506103ec602092610636565b905491519160018060a01b039160031b1c168152f35b5090346100ef57816003193601126100ef578160209360ff92610423610605565b903582528186528282206001600160a01b039091168252855220549151911615158152f35b838234610266576020366003190112610266576060916001600160a01b03919060ff90829084610476610620565b1681526001602052205482519381168452818160a01c161515602085015260a81c16151590820152f35b83346103a35760203660031901126103a3576104ca6104bd610620565b6104c5610683565b6107f4565b80f35b8382346102665760203660031901126102665760209061050f6104ee610620565b6001600160a01b031660009081526001602052604090205460a01c60ff1690565b90519015158152f35b50829034610266578060031936011261026657610533610605565b90336001600160a01b0383160361055057506100eb91923561077f565b5163334bd91960e11b81528390fd5b50346100ef57806003193601126100ef576100eb913561058260016100d5610605565b610701565b5090346100ef5760203660031901126100ef57816020936001923581528085522001549051908152f35b849084346100ef5760203660031901126100ef573563ffffffff60e01b81168091036100ef5760209250637965db0b60e01b81149081156105f4575b5015158152f35b6301ffc9a760e01b149050836105ed565b602435906001600160a01b038216820361061b57565b600080fd5b600435906001600160a01b038216820361061b57565b60025481101561066d5760026000527f405787fa12a823e0f2b7631cc41b3ba8828b3321ca811111fa75cd3aa3bb5ace0190600090565b634e487b7160e01b600052603260045260246000fd5b3360009081527fad3228b676f7d3cd4284a5443f17f1962b36e491b30a40b2405849e597ba5fb5602052604081205460ff16156106bd5750565b6044906040519063e2517d3f60e01b82523360048301526024820152fd5b80600052600060205260406000203360005260205260ff60406000205416156106bd5750565b9060009180835282602052604083209160018060a01b03169182845260205260ff6040842054161560001461077a57808352826020526040832082845260205260408320600160ff198254161790557f2f8788117e7eff1d82e926ec794901d17c78024a50270940304540a733656f0d339380a4600190565b505090565b9060009180835282602052604083209160018060a01b03169182845260205260ff60408420541660001461077a5780835282602052604083208284526020526040832060ff1981541690557ff6391f5c32d9c69d2a47ea670b442974b53935d1edc7fd64eb21e047a839171b339380a4600190565b6001600160a01b031660008181526001602052604090208054909160a082901c60ff1615610853577f4c910b69fe65a61f7531b9c5042b2329ca7179c77290aa7e2eb3afa3c8511fd39260209260ff60a01b19169055604051908152a1565b505050565b90601f8019910116810190811067ffffffffffffffff82111761087a57604052565b634e487b7160e01b600052604160045260246000fd5b67ffffffffffffffff811161087a5760051b60200190565b60001981146108b75760010190565b634e487b7160e01b600052601160045260246000fd5b6040516318160ddd60e01b815290602090829060049082906001600160a01b03165afa9081610906575b5061090157600090565b600190565b602090813d811161092a575b61091c8183610858565b8101031261061b57386108f7565b503d61091256fea26469706673582212203da61846e4b2da4faef2e32be2c29dc371028a160dc3389c23a8eb4ace0fbfe964736f6c63430008140033",
  "devdoc": {
    "errors": {
      "AccessControlBadConfirmation()": [
        {
          "details": "The caller of a function is not the expected one. NOTE: Don't confuse with {AccessControlUnauthorizedAccount}."
        }
      ],
      "AccessControlUnauthorizedAccount(address,bytes32)": [
        {
          "details": "The `account` is missing a role."
        }
      ]
    },
    "events": {
      "RoleAdminChanged(bytes32,bytes32,bytes32)": {
        "details": "Emitted when `newAdminRole` is set as ``role``'s admin role, replacing `previousAdminRole` `DEFAULT_ADMIN_ROLE` is the starting admin for all roles, despite {RoleAdminChanged} not being emitted to signal this."
      },
      "RoleGranted(bytes32,address,address)": {
        "details": "Emitted when `account` is granted `role`. `sender` is the account that originated the contract call. This account bears the admin role (for the granted role). Expected in cases where the role was granted using the internal {AccessControl-_grantRole}."
      },
      "RoleRevoked(bytes32,address,address)": {
        "details": "Emitted when `account` is revoked `role`. `sender` is the account that originated the contract call:   - if using `revokeRole`, it is the admin role bearer   - if using `renounceRole`, it is the role bearer (i.e. `account`)"
      }
    },
    "kind": "dev",
    "methods": {
      "getRoleAdmin(bytes32)": {
        "details": "Returns the admin role that controls `role`. See {grantRole} and {revokeRole}. To change a role's admin, use {_setRoleAdmin}."
      },
      "grantRole(bytes32,address)": {
        "details": "Grants `role` to `account`. If `account` had not been already granted `role`, emits a {RoleGranted} event. Requirements: - the caller must have ``role``'s admin role. May emit a {RoleGranted} event."
      },
      "hasRole(bytes32,address)": {
        "details": "Returns `true` if `account` has been granted `role`."
      },
      "renounceRole(bytes32,address)": {
        "details": "Revokes `role` from the calling account. Roles are often managed via {grantRole} and {revokeRole}: this function's purpose is to provide a mechanism for accounts to lose their privileges if they are compromised (such as when a trusted device is misplaced). If the calling account had been revoked `role`, emits a {RoleRevoked} event. Requirements: - the caller must be `callerConfirmation`. May emit a {RoleRevoked} event."
      },
      "revokeRole(bytes32,address)": {
        "details": "Revokes `role` from `account`. If `account` had been granted `role`, emits a {RoleRevoked} event. Requirements: - the caller must have ``role``'s admin role. May emit a {RoleRevoked} event."
      },
      "supportsInterface(bytes4)": {
        "details": "Returns true if this contract implements the interface defined by `interfaceId`. See the corresponding https://eips.ethereum.org/EIPS/eip-165#how-interfaces-are-identified[ERC section] to learn more about how these ids are created. This function call must use less than 30 000 gas."
      }
    },
    "version": 1
  },
  "userdoc": {
    "kind": "user",
    "methods": {},
    "version": 1
  },
  "storageLayout": {
    "storage": [
      {
        "astId": 3307,
        "contract": "contracts/whitelist/TokenWhiteList.sol:TokenWhiteList",
        "label": "_roles",
        "offset": 0,
        "slot": "0",
        "type": "t_mapping(t_bytes32,t_struct(RoleData)3302_storage)"
      },
      {
        "astId": 44499,
        "contract": "contracts/whitelist/TokenWhiteList.sol:TokenWhiteList",
        "label": "whitelistLookup",
        "offset": 0,
        "slot": "1",
        "type": "t_mapping(t_address,t_struct(TokenWhiteListItem)44472_storage)"
      },
      {
        "astId": 44502,
        "contract": "contracts/whitelist/TokenWhiteList.sol:TokenWhiteList",
        "label": "tokenList",
        "offset": 0,
        "slot": "2",
        "type": "t_array(t_address)dyn_storage"
      }
    ],
    "types": {
      "t_address": {
        "encoding": "inplace",
        "label": "address",
        "numberOfBytes": "20"
      },
      "t_array(t_address)dyn_storage": {
        "base": "t_address",
        "encoding": "dynamic_array",
        "label": "address[]",
        "numberOfBytes": "32"
      },
      "t_bool": {
        "encoding": "inplace",
        "label": "bool",
        "numberOfBytes": "1"
      },
      "t_bytes32": {
        "encoding": "inplace",
        "label": "bytes32",
        "numberOfBytes": "32"
      },
      "t_mapping(t_address,t_bool)": {
        "encoding": "mapping",
        "key": "t_address",
        "label": "mapping(address => bool)",
        "numberOfBytes": "32",
        "value": "t_bool"
      },
      "t_mapping(t_address,t_struct(TokenWhiteListItem)44472_storage)": {
        "encoding": "mapping",
        "key": "t_address",
        "label": "mapping(address => struct TokenWhiteListItem)",
        "numberOfBytes": "32",
        "value": "t_struct(TokenWhiteListItem)44472_storage"
      },
      "t_mapping(t_bytes32,t_struct(RoleData)3302_storage)": {
        "encoding": "mapping",
        "key": "t_bytes32",
        "label": "mapping(bytes32 => struct AccessControl.RoleData)",
        "numberOfBytes": "32",
        "value": "t_struct(RoleData)3302_storage"
      },
      "t_struct(RoleData)3302_storage": {
        "encoding": "inplace",
        "label": "struct AccessControl.RoleData",
        "members": [
          {
            "astId": 3299,
            "contract": "contracts/whitelist/TokenWhiteList.sol:TokenWhiteList",
            "label": "hasRole",
            "offset": 0,
            "slot": "0",
            "type": "t_mapping(t_address,t_bool)"
          },
          {
            "astId": 3301,
            "contract": "contracts/whitelist/TokenWhiteList.sol:TokenWhiteList",
            "label": "adminRole",
            "offset": 0,
            "slot": "1",
            "type": "t_bytes32"
          }
        ],
        "numberOfBytes": "64"
      },
      "t_struct(TokenWhiteListItem)44472_storage": {
        "encoding": "inplace",
        "label": "struct TokenWhiteListItem",
        "members": [
          {
            "astId": 44467,
            "contract": "contracts/whitelist/TokenWhiteList.sol:TokenWhiteList",
            "label": "token",
            "offset": 0,
            "slot": "0",
            "type": "t_address"
          },
          {
            "astId": 44469,
            "contract": "contracts/whitelist/TokenWhiteList.sol:TokenWhiteList",
            "label": "isWhitelisted",
            "offset": 20,
            "slot": "0",
            "type": "t_bool"
          },
          {
            "astId": 44471,
            "contract": "contracts/whitelist/TokenWhiteList.sol:TokenWhiteList",
            "label": "inList",
            "offset": 21,
            "slot": "0",
            "type": "t_bool"
          }
        ],
        "numberOfBytes": "32"
      }
    }
  }
}