{
  "address": "0xa4D4813cFEf925410b2A533516979aCD6607Cd57",
  "abi": [
    {
      "inputs": [],
      "stateMutability": "nonpayable",
      "type": "constructor"
    },
    {
      "inputs": [],
      "name": "ActivationTriggerInvalid",
      "type": "error"
    },
    {
      "inputs": [],
      "name": "CannotClaim",
      "type": "error"
    },
    {
      "inputs": [],
      "name": "DistributionsInvalid",
      "type": "error"
    },
    {
      "inputs": [],
      "name": "EmptyCode",
      "type": "error"
    },
    {
      "inputs": [],
      "name": "InvalidInitialization",
      "type": "error"
    },
    {
      "inputs": [],
      "name": "InvalidSwapSettings",
      "type": "error"
    },
    {
      "inputs": [],
      "name": "LegacyNotFound",
      "type": "error"
    },
    {
      "inputs": [],
      "name": "LegacyStillActive",
      "type": "error"
    },
    {
      "inputs": [],
      "name": "NotCodeAdmin",
      "type": "error"
    },
    {
      "inputs": [],
      "name": "NotInitializing",
      "type": "error"
    },
    {
      "inputs": [],
      "name": "NumAssetsInvalid",
      "type": "error"
    },
    {
      "inputs": [],
      "name": "NumBeneficiariesInvalid",
      "type": "error"
    },
    {
      "inputs": [],
      "name": "OnlyBeneficaries",
      "type": "error"
    },
    {
      "inputs": [],
      "name": "OnlyOwner",
      "type": "error"
    },
    {
      "inputs": [
        {
          "internalType": "address",
          "name": "",
          "type": "address"
        }
      ],
      "name": "SenderIsCreatedLegacy",
      "type": "error"
    },
    {
      "anonymous": false,
      "inputs": [
        {
          "indexed": false,
          "internalType": "address",
          "name": "legacyAddress",
          "type": "address"
        }
      ],
      "name": "EmailOwnerResetNotCompleted",
      "type": "event"
    },
    {
      "anonymous": false,
      "inputs": [
        {
          "indexed": false,
          "internalType": "uint64",
          "name": "version",
          "type": "uint64"
        }
      ],
      "name": "Initialized",
      "type": "event"
    },
    {
      "anonymous": false,
      "inputs": [
        {
          "indexed": true,
          "internalType": "uint256",
          "name": "legacyId",
          "type": "uint256"
        },
        {
          "indexed": false,
          "internalType": "uint8",
          "name": "layer",
          "type": "uint8"
        },
        {
          "indexed": false,
          "internalType": "uint256",
          "name": "timestamp",
          "type": "uint256"
        }
      ],
      "name": "TransferEOALegacyActivated",
      "type": "event"
    },
    {
      "anonymous": false,
      "inputs": [
        {
          "indexed": true,
          "internalType": "uint256",
          "name": "legacyId",
          "type": "uint256"
        },
        {
          "indexed": false,
          "internalType": "uint8",
          "name": "layer",
          "type": "uint8"
        },
        {
          "indexed": false,
          "internalType": "uint256",
          "name": "timestamp",
          "type": "uint256"
        }
      ],
      "name": "TransferEOALegacyActivatedWithUnswap",
      "type": "event"
    },
    {
      "anonymous": false,
      "inputs": [
        {
          "indexed": true,
          "internalType": "uint256",
          "name": "legacyId",
          "type": "uint256"
        },
        {
          "indexed": false,
          "internalType": "uint256",
          "name": "timestamp",
          "type": "uint256"
        }
      ],
      "name": "TransferEOALegacyActivedAlive",
      "type": "event"
    },
    {
      "anonymous": false,
      "inputs": [
        {
          "indexed": true,
          "internalType": "uint256",
          "name": "legacyId",
          "type": "uint256"
        },
        {
          "indexed": false,
          "internalType": "address",
          "name": "storageToken",
          "type": "address"
        },
        {
          "indexed": false,
          "internalType": "uint256",
          "name": "ethAmount",
          "type": "uint256"
        },
        {
          "indexed": false,
          "internalType": "uint256",
          "name": "timestamp",
          "type": "uint256"
        }
      ],
      "name": "TransferEOALegacyAutoSwapped",
      "type": "event"
    },
    {
      "anonymous": false,
      "inputs": [
        {
          "indexed": true,
          "internalType": "uint256",
          "name": "legacyId",
          "type": "uint256"
        },
        {
          "components": [
            {
              "internalType": "string",
              "name": "name",
              "type": "string"
            },
            {
              "internalType": "string",
              "name": "note",
              "type": "string"
            },
            {
              "internalType": "string[]",
              "name": "nickNames",
              "type": "string[]"
            },
            {
              "components": [
                {
                  "internalType": "address",
                  "name": "user",
                  "type": "address"
                },
                {
                  "internalType": "uint256",
                  "name": "percent",
                  "type": "uint256"
                }
              ],
              "internalType": "struct TransferLegacyStruct.Distribution[]",
              "name": "distributions",
              "type": "tuple[]"
            }
          ],
          "indexed": false,
          "internalType": "struct TransferEOALegacyRouter.LegacyMainConfig",
          "name": "mainConfig",
          "type": "tuple"
        },
        {
          "components": [
            {
              "internalType": "uint256",
              "name": "lackOfOutgoingTxRange",
              "type": "uint256"
            },
            {
              "internalType": "uint256",
              "name": "delayLayer2",
              "type": "uint256"
            },
            {
              "internalType": "uint256",
              "name": "delayLayer3",
              "type": "uint256"
            }
          ],
          "indexed": false,
          "internalType": "struct TransferLegacyStruct.LegacyExtraConfig",
          "name": "extraConfig",
          "type": "tuple"
        },
        {
          "indexed": false,
          "internalType": "uint256",
          "name": "timestamp",
          "type": "uint256"
        }
      ],
      "name": "TransferEOALegacyConfigUpdated",
      "type": "event"
    },
    {
      "anonymous": false,
      "inputs": [
        {
          "indexed": true,
          "internalType": "uint256",
          "name": "legacyId",
          "type": "uint256"
        },
        {
          "indexed": true,
          "internalType": "address",
          "name": "owner",
          "type": "address"
        },
        {
          "indexed": false,
          "internalType": "uint256",
          "name": "timestamp",
          "type": "uint256"
        }
      ],
      "name": "TransferEOALegacyCreateFlagReleased",
      "type": "event"
    },
    {
      "anonymous": false,
      "inputs": [
        {
          "indexed": true,
          "internalType": "uint256",
          "name": "legacyId",
          "type": "uint256"
        },
        {
          "indexed": false,
          "internalType": "address",
          "name": "legacyAddress",
          "type": "address"
        },
        {
          "indexed": false,
          "internalType": "address",
          "name": "creatorAddress",
          "type": "address"
        },
        {
          "components": [
            {
              "internalType": "string",
              "name": "name",
              "type": "string"
            },
            {
              "internalType": "string",
              "name": "note",
              "type": "string"
            },
            {
              "internalType": "string[]",
              "name": "nickNames",
              "type": "string[]"
            },
            {
              "components": [
                {
                  "internalType": "address",
                  "name": "user",
                  "type": "address"
                },
                {
                  "internalType": "uint256",
                  "name": "percent",
                  "type": "uint256"
                }
              ],
              "internalType": "struct TransferLegacyStruct.Distribution[]",
              "name": "distributions",
              "type": "tuple[]"
            }
          ],
          "indexed": false,
          "internalType": "struct TransferEOALegacyRouter.LegacyMainConfig",
          "name": "mainConfig",
          "type": "tuple"
        },
        {
          "components": [
            {
              "internalType": "uint256",
              "name": "lackOfOutgoingTxRange",
              "type": "uint256"
            },
            {
              "internalType": "uint256",
              "name": "delayLayer2",
              "type": "uint256"
            },
            {
              "internalType": "uint256",
              "name": "delayLayer3",
              "type": "uint256"
            }
          ],
          "indexed": false,
          "internalType": "struct TransferLegacyStruct.LegacyExtraConfig",
          "name": "extraConfig",
          "type": "tuple"
        },
        {
          "indexed": false,
          "internalType": "uint256",
          "name": "timestamp",
          "type": "uint256"
        }
      ],
      "name": "TransferEOALegacyCreated",
      "type": "event"
    },
    {
      "anonymous": false,
      "inputs": [
        {
          "indexed": true,
          "internalType": "uint256",
          "name": "legacyId",
          "type": "uint256"
        },
        {
          "indexed": false,
          "internalType": "uint256",
          "name": "timestamp",
          "type": "uint256"
        }
      ],
      "name": "TransferEOALegacyDeleted",
      "type": "event"
    },
    {
      "anonymous": false,
      "inputs": [
        {
          "indexed": true,
          "internalType": "uint256",
          "name": "legacyId",
          "type": "uint256"
        },
        {
          "indexed": false,
          "internalType": "string[]",
          "name": "nickNames",
          "type": "string[]"
        },
        {
          "components": [
            {
              "internalType": "address",
              "name": "user",
              "type": "address"
            },
            {
              "internalType": "uint256",
              "name": "percent",
              "type": "uint256"
            }
          ],
          "indexed": false,
          "internalType": "struct TransferLegacyStruct.Distribution[]",
          "name": "distributions",
          "type": "tuple[]"
        },
        {
          "indexed": false,
          "internalType": "uint256",
          "name": "timestamp",
          "type": "uint256"
        }
      ],
      "name": "TransferEOALegacyDistributionUpdated",
      "type": "event"
    },
    {
      "anonymous": false,
      "inputs": [
        {
          "indexed": true,
          "internalType": "uint256",
          "name": "legacyId",
          "type": "uint256"
        },
        {
          "indexed": false,
          "internalType": "uint8",
          "name": "layer",
          "type": "uint8"
        },
        {
          "components": [
            {
              "internalType": "address",
              "name": "user",
              "type": "address"
            },
            {
              "internalType": "uint256",
              "name": "percent",
              "type": "uint256"
            }
          ],
          "indexed": false,
          "internalType": "struct TransferLegacyStruct.Distribution",
          "name": "distribution",
          "type": "tuple"
        },
        {
          "indexed": false,
          "internalType": "string",
          "name": "nickName",
          "type": "string"
        }
      ],
      "name": "TransferEOALegacyLayer23Created",
      "type": "event"
    },
    {
      "anonymous": false,
      "inputs": [
        {
          "indexed": true,
          "internalType": "uint256",
          "name": "legacyId",
          "type": "uint256"
        },
        {
          "indexed": false,
          "internalType": "uint8",
          "name": "layer",
          "type": "uint8"
        },
        {
          "indexed": false,
          "internalType": "string",
          "name": "nickNames",
          "type": "string"
        },
        {
          "components": [
            {
              "internalType": "address",
              "name": "user",
              "type": "address"
            },
            {
              "internalType": "uint256",
              "name": "percent",
              "type": "uint256"
            }
          ],
          "indexed": false,
          "internalType": "struct TransferLegacyStruct.Distribution",
          "name": "distribution",
          "type": "tuple"
        },
        {
          "indexed": false,
          "internalType": "uint256",
          "name": "timestamp",
          "type": "uint256"
        }
      ],
      "name": "TransferEOALegacyLayer23DistributionUpdated",
      "type": "event"
    },
    {
      "anonymous": false,
      "inputs": [
        {
          "indexed": true,
          "internalType": "uint256",
          "name": "legacyId",
          "type": "uint256"
        },
        {
          "indexed": false,
          "internalType": "string",
          "name": "name",
          "type": "string"
        },
        {
          "indexed": false,
          "internalType": "string",
          "name": "note",
          "type": "string"
        },
        {
          "indexed": false,
          "internalType": "uint256",
          "name": "timestamp",
          "type": "uint256"
        }
      ],
      "name": "TransferEOALegacyNameNoteUpdated",
      "type": "event"
    },
    {
      "anonymous": false,
      "inputs": [
        {
          "indexed": true,
          "internalType": "uint256",
          "name": "legacyId",
          "type": "uint256"
        },
        {
          "indexed": false,
          "internalType": "uint128",
          "name": "lackOfOutgoingTxRange",
          "type": "uint128"
        },
        {
          "indexed": false,
          "internalType": "uint256",
          "name": "timestamp",
          "type": "uint256"
        }
      ],
      "name": "TransferEOALegacyTriggerUpdated",
      "type": "event"
    },
    {
      "anonymous": false,
      "inputs": [
        {
          "indexed": true,
          "internalType": "uint256",
          "name": "legacyId",
          "type": "uint256"
        },
        {
          "indexed": false,
          "internalType": "address",
          "name": "storageToken",
          "type": "address"
        },
        {
          "indexed": false,
          "internalType": "uint256",
          "name": "tokenAmount",
          "type": "uint256"
        },
        {
          "indexed": false,
          "internalType": "uint256",
          "name": "timestamp",
          "type": "uint256"
        }
      ],
      "name": "TransferEOALegacyUnswapped",
      "type": "event"
    },
    {
      "inputs": [],
      "name": "BENEFICIARIES_LIMIT",
      "outputs": [
        {
          "internalType": "uint256",
          "name": "",
          "type": "uint256"
        }
      ],
      "stateMutability": "view",
      "type": "function"
    },
    {
      "inputs": [],
      "name": "_legacyId",
      "outputs": [
        {
          "internalType": "uint256",
          "name": "",
          "type": "uint256"
        }
      ],
      "stateMutability": "view",
      "type": "function"
    },
    {
      "inputs": [
        {
          "internalType": "uint256",
          "name": "legacyId_",
          "type": "uint256"
        },
        {
          "internalType": "address[]",
          "name": "assets_",
          "type": "address[]"
        },
        {
          "internalType": "bool",
          "name": "isETH_",
          "type": "bool"
        }
      ],
      "name": "activeLegacy",
      "outputs": [],
      "stateMutability": "nonpayable",
      "type": "function"
    },
    {
      "inputs": [
        {
          "internalType": "uint256",
          "name": "legacyId_",
          "type": "uint256"
        },
        {
          "internalType": "address[]",
          "name": "assets_",
          "type": "address[]"
        },
        {
          "internalType": "uint256",
          "name": "amountOutMin_",
          "type": "uint256"
        },
        {
          "internalType": "uint256",
          "name": "deadline_",
          "type": "uint256"
        }
      ],
      "name": "activeLegacyAndUnswap",
      "outputs": [],
      "stateMutability": "nonpayable",
      "type": "function"
    },
    {
      "inputs": [
        {
          "internalType": "uint256",
          "name": "legacyId_",
          "type": "uint256"
        },
        {
          "components": [
            {
              "internalType": "address",
              "name": "storageToken",
              "type": "address"
            },
            {
              "internalType": "uint256",
              "name": "amountOutMin",
              "type": "uint256"
            },
            {
              "internalType": "uint256",
              "name": "deadline",
              "type": "uint256"
            }
          ],
          "internalType": "struct TransferLegacyStruct.EOALegacyETHSwap",
          "name": "swap_",
          "type": "tuple"
        }
      ],
      "name": "autoSwap",
      "outputs": [],
      "stateMutability": "payable",
      "type": "function"
    },
    {
      "inputs": [
        {
          "internalType": "uint256",
          "name": "legacyId_",
          "type": "uint256"
        }
      ],
      "name": "avtiveAlive",
      "outputs": [],
      "stateMutability": "nonpayable",
      "type": "function"
    },
    {
      "inputs": [
        {
          "internalType": "uint256",
          "name": "legacyId_",
          "type": "uint256"
        }
      ],
      "name": "checkActiveLegacy",
      "outputs": [
        {
          "internalType": "bool",
          "name": "",
          "type": "bool"
        }
      ],
      "stateMutability": "view",
      "type": "function"
    },
    {
      "inputs": [
        {
          "components": [
            {
              "internalType": "string",
              "name": "name",
              "type": "string"
            },
            {
              "internalType": "string",
              "name": "note",
              "type": "string"
            },
            {
              "internalType": "string[]",
              "name": "nickNames",
              "type": "string[]"
            },
            {
              "components": [
                {
                  "internalType": "address",
                  "name": "user",
                  "type": "address"
                },
                {
                  "internalType": "uint256",
                  "name": "percent",
                  "type": "uint256"
                }
              ],
              "internalType": "struct TransferLegacyStruct.Distribution[]",
              "name": "distributions",
              "type": "tuple[]"
            }
          ],
          "internalType": "struct TransferEOALegacyRouter.LegacyMainConfig",
          "name": "mainConfig_",
          "type": "tuple"
        },
        {
          "components": [
            {
              "internalType": "uint256",
              "name": "lackOfOutgoingTxRange",
              "type": "uint256"
            },
            {
              "internalType": "uint256",
              "name": "delayLayer2",
              "type": "uint256"
            },
            {
              "internalType": "uint256",
              "name": "delayLayer3",
              "type": "uint256"
            }
          ],
          "internalType": "struct TransferLegacyStruct.LegacyExtraConfig",
          "name": "extraConfig_",
          "type": "tuple"
        },
        {
          "components": [
            {
              "internalType": "address",
              "name": "user",
              "type": "address"
            },
            {
              "internalType": "uint256",
              "name": "percent",
              "type": "uint256"
            }
          ],
          "internalType": "struct TransferLegacyStruct.Distribution",
          "name": "layer2Distribution_",
          "type": "tuple"
        },
        {
          "components": [
            {
              "internalType": "address",
              "name": "user",
              "type": "address"
            },
            {
              "internalType": "uint256",
              "name": "percent",
              "type": "uint256"
            }
          ],
          "internalType": "struct TransferLegacyStruct.Distribution",
          "name": "layer3Distribution_",
          "type": "tuple"
        },
        {
          "internalType": "string",
          "name": "nickName2",
          "type": "string"
        },
        {
          "internalType": "string",
          "name": "nickName3",
          "type": "string"
        },
        {
          "internalType": "uint256",
          "name": "signatureTimestamp",
          "type": "uint256"
        },
        {
          "internalType": "bytes",
          "name": "agreementSignature",
          "type": "bytes"
        }
      ],
      "name": "createLegacy",
      "outputs": [
        {
          "internalType": "address",
          "name": "",
          "type": "address"
        }
      ],
      "stateMutability": "nonpayable",
      "type": "function"
    },
    {
      "inputs": [
        {
          "internalType": "uint256",
          "name": "legacyId_",
          "type": "uint256"
        }
      ],
      "name": "deleteLegacy",
      "outputs": [],
      "stateMutability": "nonpayable",
      "type": "function"
    },
    {
      "inputs": [
        {
          "internalType": "uint256",
          "name": "ethAmount_",
          "type": "uint256"
        },
        {
          "internalType": "address",
          "name": "outputToken_",
          "type": "address"
        }
      ],
      "name": "getEthToTokenAmountOut",
      "outputs": [
        {
          "internalType": "uint256",
          "name": "",
          "type": "uint256"
        }
      ],
      "stateMutability": "view",
      "type": "function"
    },
    {
      "inputs": [
        {
          "internalType": "address",
          "name": "sender_",
          "type": "address"
        }
      ],
      "name": "getNextLegacyAddress",
      "outputs": [
        {
          "internalType": "address",
          "name": "",
          "type": "address"
        }
      ],
      "stateMutability": "view",
      "type": "function"
    },
    {
      "inputs": [
        {
          "internalType": "uint256",
          "name": "tokenAmount_",
          "type": "uint256"
        },
        {
          "internalType": "address",
          "name": "token_",
          "type": "address"
        }
      ],
      "name": "getTokenToEthAmountOut",
      "outputs": [
        {
          "internalType": "uint256",
          "name": "",
          "type": "uint256"
        }
      ],
      "stateMutability": "view",
      "type": "function"
    },
    {
      "inputs": [
        {
          "internalType": "address",
          "name": "_deployerContract",
          "type": "address"
        },
        {
          "internalType": "address",
          "name": "_premiumSetting",
          "type": "address"
        },
        {
          "internalType": "address",
          "name": "_verifier",
          "type": "address"
        },
        {
          "internalType": "address",
          "name": "_paymentContract",
          "type": "address"
        },
        {
          "internalType": "address",
          "name": "router_",
          "type": "address"
        },
        {
          "internalType": "address",
          "name": "weth_",
          "type": "address"
        }
      ],
      "name": "initialize",
      "outputs": [],
      "stateMutability": "nonpayable",
      "type": "function"
    },
    {
      "inputs": [
        {
          "internalType": "address",
          "name": "codeAdmin_",
          "type": "address"
        }
      ],
      "name": "initializeV2",
      "outputs": [],
      "stateMutability": "nonpayable",
      "type": "function"
    },
    {
      "inputs": [
        {
          "internalType": "address",
          "name": "codeAdmin_",
          "type": "address"
        }
      ],
      "name": "initializeV3",
      "outputs": [],
      "stateMutability": "nonpayable",
      "type": "function"
    },
    {
      "inputs": [
        {
          "internalType": "address",
          "name": "",
          "type": "address"
        }
      ],
      "name": "isCreateLegacy",
      "outputs": [
        {
          "internalType": "bool",
          "name": "",
          "type": "bool"
        }
      ],
      "stateMutability": "view",
      "type": "function"
    },
    {
      "inputs": [
        {
          "internalType": "uint256",
          "name": "",
          "type": "uint256"
        }
      ],
      "name": "legacyAddresses",
      "outputs": [
        {
          "internalType": "address",
          "name": "",
          "type": "address"
        }
      ],
      "stateMutability": "view",
      "type": "function"
    },
    {
      "inputs": [],
      "name": "legacyCreationCode",
      "outputs": [
        {
          "internalType": "bytes",
          "name": "",
          "type": "bytes"
        }
      ],
      "stateMutability": "view",
      "type": "function"
    },
    {
      "inputs": [],
      "name": "legacyDeployerContract",
      "outputs": [
        {
          "internalType": "address",
          "name": "",
          "type": "address"
        }
      ],
      "stateMutability": "view",
      "type": "function"
    },
    {
      "inputs": [],
      "name": "legacyImplementation",
      "outputs": [
        {
          "internalType": "address",
          "name": "",
          "type": "address"
        }
      ],
      "stateMutability": "view",
      "type": "function"
    },
    {
      "inputs": [],
      "name": "paymentContract",
      "outputs": [
        {
          "internalType": "address",
          "name": "",
          "type": "address"
        }
      ],
      "stateMutability": "view",
      "type": "function"
    },
    {
      "inputs": [],
      "name": "premiumSetting",
      "outputs": [
        {
          "internalType": "address",
          "name": "",
          "type": "address"
        }
      ],
      "stateMutability": "view",
      "type": "function"
    },
    {
      "inputs": [
        {
          "internalType": "uint256",
          "name": "legacyId_",
          "type": "uint256"
        }
      ],
      "name": "releaseCreateFlag",
      "outputs": [],
      "stateMutability": "nonpayable",
      "type": "function"
    },
    {
      "inputs": [
        {
          "internalType": "uint256",
          "name": "legacyId_",
          "type": "uint256"
        },
        {
          "internalType": "uint128",
          "name": "lackOfOutgoingTxRange_",
          "type": "uint128"
        }
      ],
      "name": "setActivationTrigger",
      "outputs": [],
      "stateMutability": "nonpayable",
      "type": "function"
    },
    {
      "inputs": [
        {
          "internalType": "uint256",
          "name": "legacyId_",
          "type": "uint256"
        },
        {
          "internalType": "string",
          "name": "nicknameLayer2_",
          "type": "string"
        },
        {
          "components": [
            {
              "internalType": "address",
              "name": "user",
              "type": "address"
            },
            {
              "internalType": "uint256",
              "name": "percent",
              "type": "uint256"
            }
          ],
          "internalType": "struct TransferLegacyStruct.Distribution",
          "name": "layer2Distribution_",
          "type": "tuple"
        },
        {
          "internalType": "string",
          "name": "nicknameLayer3_",
          "type": "string"
        },
        {
          "components": [
            {
              "internalType": "address",
              "name": "user",
              "type": "address"
            },
            {
              "internalType": "uint256",
              "name": "percent",
              "type": "uint256"
            }
          ],
          "internalType": "struct TransferLegacyStruct.Distribution",
          "name": "layer3Distribution_",
          "type": "tuple"
        }
      ],
      "name": "setBothLayer23Distributions",
      "outputs": [],
      "stateMutability": "nonpayable",
      "type": "function"
    },
    {
      "inputs": [
        {
          "internalType": "uint256",
          "name": "legacyId_",
          "type": "uint256"
        },
        {
          "internalType": "uint8",
          "name": "layer_",
          "type": "uint8"
        },
        {
          "internalType": "string",
          "name": "nickname_",
          "type": "string"
        },
        {
          "components": [
            {
              "internalType": "address",
              "name": "user",
              "type": "address"
            },
            {
              "internalType": "uint256",
              "name": "percent",
              "type": "uint256"
            }
          ],
          "internalType": "struct TransferLegacyStruct.Distribution",
          "name": "distribution_",
          "type": "tuple"
        }
      ],
      "name": "setLayer23Distributions",
      "outputs": [],
      "stateMutability": "nonpayable",
      "type": "function"
    },
    {
      "inputs": [
        {
          "internalType": "uint256",
          "name": "legacyId_",
          "type": "uint256"
        },
        {
          "components": [
            {
              "internalType": "string",
              "name": "name",
              "type": "string"
            },
            {
              "internalType": "string",
              "name": "note",
              "type": "string"
            },
            {
              "internalType": "string[]",
              "name": "nickNames",
              "type": "string[]"
            },
            {
              "components": [
                {
                  "internalType": "address",
                  "name": "user",
                  "type": "address"
                },
                {
                  "internalType": "uint256",
                  "name": "percent",
                  "type": "uint256"
                }
              ],
              "internalType": "struct TransferLegacyStruct.Distribution[]",
              "name": "distributions",
              "type": "tuple[]"
            }
          ],
          "internalType": "struct TransferEOALegacyRouter.LegacyMainConfig",
          "name": "mainConfig_",
          "type": "tuple"
        },
        {
          "components": [
            {
              "internalType": "uint256",
              "name": "lackOfOutgoingTxRange",
              "type": "uint256"
            },
            {
              "internalType": "uint256",
              "name": "delayLayer2",
              "type": "uint256"
            },
            {
              "internalType": "uint256",
              "name": "delayLayer3",
              "type": "uint256"
            }
          ],
          "internalType": "struct TransferLegacyStruct.LegacyExtraConfig",
          "name": "extraConfig_",
          "type": "tuple"
        },
        {
          "components": [
            {
              "internalType": "address",
              "name": "user",
              "type": "address"
            },
            {
              "internalType": "uint256",
              "name": "percent",
              "type": "uint256"
            }
          ],
          "internalType": "struct TransferLegacyStruct.Distribution",
          "name": "layer2Distribution_",
          "type": "tuple"
        },
        {
          "components": [
            {
              "internalType": "address",
              "name": "user",
              "type": "address"
            },
            {
              "internalType": "uint256",
              "name": "percent",
              "type": "uint256"
            }
          ],
          "internalType": "struct TransferLegacyStruct.Distribution",
          "name": "layer3Distribution_",
          "type": "tuple"
        },
        {
          "internalType": "string",
          "name": "nickName2",
          "type": "string"
        },
        {
          "internalType": "string",
          "name": "nickName3",
          "type": "string"
        }
      ],
      "name": "setLegacyConfig",
      "outputs": [],
      "stateMutability": "nonpayable",
      "type": "function"
    },
    {
      "inputs": [
        {
          "internalType": "bytes",
          "name": "code_",
          "type": "bytes"
        }
      ],
      "name": "setLegacyCreationCode",
      "outputs": [],
      "stateMutability": "nonpayable",
      "type": "function"
    },
    {
      "inputs": [
        {
          "internalType": "uint256",
          "name": "legacyId_",
          "type": "uint256"
        },
        {
          "internalType": "string[]",
          "name": "nickNames_",
          "type": "string[]"
        },
        {
          "components": [
            {
              "internalType": "address",
              "name": "user",
              "type": "address"
            },
            {
              "internalType": "uint256",
              "name": "percent",
              "type": "uint256"
            }
          ],
          "internalType": "struct TransferLegacyStruct.Distribution[]",
          "name": "distributions_",
          "type": "tuple[]"
        }
      ],
      "name": "setLegacyDistributions",
      "outputs": [],
      "stateMutability": "nonpayable",
      "type": "function"
    },
    {
      "inputs": [
        {
          "internalType": "address",
          "name": "impl_",
          "type": "address"
        }
      ],
      "name": "setLegacyImplementation",
      "outputs": [],
      "stateMutability": "nonpayable",
      "type": "function"
    },
    {
      "inputs": [
        {
          "internalType": "uint256",
          "name": "legacyId_",
          "type": "uint256"
        },
        {
          "internalType": "string",
          "name": "name_",
          "type": "string"
        },
        {
          "internalType": "string",
          "name": "note_",
          "type": "string"
        }
      ],
      "name": "setNameNote",
      "outputs": [],
      "stateMutability": "nonpayable",
      "type": "function"
    },
    {
      "inputs": [],
      "name": "uniswapRouter",
      "outputs": [
        {
          "internalType": "address",
          "name": "",
          "type": "address"
        }
      ],
      "stateMutability": "view",
      "type": "function"
    },
    {
      "inputs": [
        {
          "internalType": "uint256",
          "name": "legacyId_",
          "type": "uint256"
        },
        {
          "internalType": "uint256",
          "name": "amountIn_",
          "type": "uint256"
        },
        {
          "internalType": "uint256",
          "name": "amountOutMin_",
          "type": "uint256"
        },
        {
          "internalType": "uint256",
          "name": "deadline_",
          "type": "uint256"
        }
      ],
      "name": "unswap",
      "outputs": [],
      "stateMutability": "nonpayable",
      "type": "function"
    },
    {
      "inputs": [],
      "name": "verifier",
      "outputs": [
        {
          "internalType": "contract IEIP712LegacyVerifier",
          "name": "",
          "type": "address"
        }
      ],
      "stateMutability": "view",
      "type": "function"
    },
    {
      "inputs": [],
      "name": "weth",
      "outputs": [
        {
          "internalType": "address",
          "name": "",
          "type": "address"
        }
      ],
      "stateMutability": "view",
      "type": "function"
    },
    {
      "inputs": [
        {
          "internalType": "uint256",
          "name": "legacyId_",
          "type": "uint256"
        },
        {
          "internalType": "uint256",
          "name": "amount_",
          "type": "uint256"
        }
      ],
      "name": "withdraw",
      "outputs": [],
      "stateMutability": "nonpayable",
      "type": "function"
    }
  ],
  "transactionHash": "0x345059c49aa107f32eaab5d6b38eae538bcf95c823e30999ab214ae2bafc2fb5",
  "args": [],
  "numDeployments": 3,
  "solcInputHash": "d0f1bb3b5bc34f2c7794d79aa29f0201",
  "bytecode": "0x60808060405234620000bd577ff0c57e16840df040f15088dc2f81fe391c3923bec73e23a9662efc9c229c6a009081549060ff8260401c16620000ae57506001600160401b036002600160401b03198282160162000068575b60405161343c9081620000c38239f35b6001600160401b031990911681179091556040519081527fc7f505b2f371ae2175ee4913f4499e1f2633a7b5936321eed1cdaeb6115181d290602090a138808062000058565b63f92ee8a960e01b8152600490fd5b600080fdfe608080604052600436101561001357600080fd5b600090813560e01c90816308a8f8921461220b5750806311c395bd1461206357806311fab2171461203a578063120f8b8014611fe25780631593a05614611f6e5780631dd82cfb14611e38578063204d677c14611c0357806321f6a8ca14611aaa5780632484af4514611a7657806329b6eca9146119b65780632b7ac3f31461198d5780632fadbcc4146118c25780633101cfcb14611802578063318b4fe1146116c95780633fc8cef3146116a0578063441a3e70146116295780634cd3a51f1461160e578063643401ff1461108b57806366d007831461106e578063735de9f7146110455780637d08398a14610f275780637f408f2114610ee85780639c91dd5614610ebf578063a6d9dad714610c74578063a80d4b6c14610bf4578063bac67a8114610b0a578063c4e14b5f14610a3f578063cc2a9a5b14610841578063db2e47c014610818578063dd265b9914610574578063e6e73489146104c5578063f2d5dcf51461048f578063f32bdbcb1461032f578063f47ca2e9146102fc578063f895338d146102d35763fa6e515e146101ad57600080fd5b346102d05760603660031901126102d0576004356001600160401b036024358181116102cc576101e1903690600401612b68565b916044359081116102c8576101fa903690600401612b68565b909290856001600160a01b0361020f87612f27565b16803b156102c45781604051809263064e5c9360e51b8252818381610239338b8d6004850161317d565b03925af180156102b9576102a1575b50507f19b7f216c02d27d0fb71085c3d35718bd3c3b9a3ecd6db83f23353d5f07bb6be9361029591610287604051958695606087526060870191612fc4565b918483036020860152612fc4565b4260408301520390a280f35b6102aa90612c81565b6102b5578538610248565b8580fd5b6040513d84823e3d90fd5b5080fd5b8480fd5b8380fd5b80fd5b50346102d057806003193601126102d0576001546040516001600160a01b039091168152602090f35b50346102d05760203660031901126102d057602090600435815260028252604060018060a01b0391205416604051908152f35b50346102d0576020806003193601126102c4576004356001600160a01b038061035783612f27565b604051637ddd755b60e11b81529116918482600481865afa91821561048457869261044d575b503391160361043b57826004916040519283809263b8f7a66560e01b82525afa908115610430578491610403575b506103f157338352600382526040832060ff1981541690557f578be4d2c1ea27fe4988700847d49d6046723c8e8ea8f05579f8e15b64d18511604051924284523393a380f35b604051636097fe1560e01b8152600490fd5b6104239150833d8511610429575b61041b8183612cc5565b810190612f0f565b386103ab565b503d610411565b6040513d86823e3d90fd5b604051635fc483c560e01b8152600490fd5b9091508481813d831161047d575b6104658183612cc5565b810103126102b55761047690612ed3565b903861037d565b503d61045b565b6040513d88823e3d90fd5b50346102d05760203660031901126102d05760206104b36104ae612b95565b612e08565b6040516001600160a01b039091168152f35b50346102d05760203660031901126102d057600435816104e482612f27565b338252600360205260408220805460ff191690556001600160a01b0316803b156102c457818091602460405180948193631e12080160e21b83523360048401525af180156102b957610560575b50507f7e8b009d765fae8a3e815514996369f653a6df6d6130d0815ee940d3c1ece7a36020604051428152a280f35b61056990612c81565b6102c4578138610531565b50346102d05760603660031901126102d0576004356024356001600160401b038111610814576105a8903690600401612c17565b60443580159182158092036102b5576105c085612f27565b928061080c575b6107fa576001600160a01b0392831693869290853b156102cc57604051635c611c9b60e01b8152606060048201529284928492839261060b916064850191906132ae565b906024830152336044830152038183885af180156102b9576107e6575b50506040519063021fe24d60e41b82523360048301526020928383602481845afa9283156104845786936107c7575b5060405163fd780e9d60e01b81528481600481855afa9081156107bc57879161078f575b5060ff8085169116811161077d571561076b578360049160405192838092637ddd755b60e11b82525afa908115610484578691610706575b5016845260039091526040808420805460ff19169055805160ff90921682524260208301527fcd3498ab5ce0596894143945f9833cfd4ce307a6e6ac364f962a3b089edbbc8b9190819081015b0390a280f35b90508381819493943d8311610764575b6107208183612cc5565b810103126102b5577fcd3498ab5ce0596894143945f9833cfd4ce307a6e6ac364f962a3b089edbbc8b9361070093610759600393612ed3565b9250929350936106b3565b503d610716565b6040516369562e6560e01b8152600490fd5b6040516371f1e92160e11b8152600490fd5b6107af9150853d87116107b5575b6107a78183612cc5565b8101906132f2565b3861067b565b503d61079d565b6040513d89823e3d90fd5b6107df919350843d86116107b5576107a78183612cc5565b9138610657565b6107ef90612c81565b6102cc578338610628565b604051634847f0e560e01b8152600490fd5b5080156105c7565b8280fd5b50346102d057806003193601126102d057600b546040516001600160a01b039091168152602090f35b50346102d05760c03660031901126102d05761085b612b95565b610863612bab565b6001600160a01b0391906044358381169190829003610a3a57606435848116809103610a3a5760843590858216809203610a3a5760a43593868516809503610a3a577ff0c57e16840df040f15088dc2f81fe391c3923bec73e23a9662efc9c229c6a0096875460ff8160401c1615976001600160401b03821680159081610a32575b6001149081610a28575b159081610a1f575b506109c45767ffffffffffffffff1982166001178a55829189610a00575b501694851580156109f6575b80156109ee575b80156109e6575b80156109de575b80156109d6575b6109c4576001600160601b0360a01b9586600154161760015516846004541617600455836005541617600555826006541617600655816007541617600755600854161760085561098b575080f35b60ff60401b1981541690557fc7f505b2f371ae2175ee4913f4499e1f2633a7b5936321eed1cdaeb6115181d2602060405160018152a180f35b60405163f92ee8a960e01b8152600490fd5b50861561093d565b508415610936565b50831561092f565b508215610928565b5081811615610921565b68ffffffffffffffffff191668010000000000000001178a5538610915565b905015386108f7565b303b1591506108ef565b8a91506108e5565b600080fd5b50346102d05760403660031901126102d057610abd81610a5d612bab565b60405190610a6a82612caa565b600282526040366020840137610a7f8261330b565b6001600160a01b0391821690526008548116610a9a8361332e565b5260075416604051808095819463d06ca61f60e01b8352600435600484016133b9565b03915afa9081156102b95790610ade918360209492610ae7575b505061332e565b51604051908152f35b610b0392503d8091833e610afb8183612cc5565b81019061333e565b3880610ad7565b5060803660031901126102d05760043560603660231901126102c4576001600160a01b038281610b3984612f27565b16803b156102c4578160849160405192838092630e168ba760e01b825233600483015287610b65612bab565b1660248301526044356044830152606435606483015234905af180156102b957610be0575b50506024359081168103610a3a57604080516001600160a01b03909216825234602083015242908201527f47c17f849d40349b9cecd56aa290cfc2e37e3de1f67d86147ef47685f5d1bdef908060608101610700565b610be990612c81565b610814578238610b8a565b50346102d05760403660031901126102d057610abd81610c12612bab565b60405190610c1f82612caa565b6002825260403660208401376008546001600160a01b0391908216610c438461330b565b5281610c4e8461332e565b9116905260075416604051808095819463d06ca61f60e01b8352600435600484016133b9565b50346102d05760e03660031901126102d0576001600160401b0360243581811161081457610ca6903690600401612b68565b909160403660431901126102cc576084359081116102cc57610ccc903690600401612b68565b909260403660a31901126102c8576001600160a01b03610ced600435612f27565b1690813b15610a3a5760006040518093630613702960e01b82523360048301526002602483015260a06044830152818381610d2c60a482018b89612fc4565b6001600160a01b03610d3c612bd7565b166064830152606435608483015203925af1918215610ea457610d7892610eb0575b50604051936002855260a0602086015260a0850191612fc4565b6001600160a01b03610d88612bd7565b16604084015260643560608401524260808401527f9837e1720561f5ed2aaba5820ab63f7f07740e6a34509667e4af8dcf7905b965838194600435930390a26001600160a01b03610dda600435612f27565b1692833b15610a3a57604051630613702960e01b81523360048201526003602482015260a0604482015290600082610e1660a482018685612fc4565b966001600160a01b03610e27612bed565b16606483015281838160c4359a8b608483015203925af1918215610ea457610e6892610e95575b50604051926003845260a0602085015260a0840191612fc4565b926001600160a01b03610e79612bed565b166040830152606082015242608082015280600435930390a280f35b610e9e90612c81565b38610e4e565b6040513d6000823e3d90fd5b610eb990612c81565b38610d5e565b50346102d057806003193601126102d0576006546040516001600160a01b039091168152602090f35b50346102d05760203660031901126102d05760209060ff906040906001600160a01b03610f13612b95565b168152600384522054166040519015158152f35b50346102d05760203660031901126102d05760043581610f4682612f27565b6004546001600160a01b039081169190823b156102cc578380929160248293604051958693849263909d243960e01b845216978860048401525af19182611031575b505061102c577fb7c24ac596129f9d0aa780213146b79754364e478b0b6df8939d618d5dfb236a6020604051838152a15b803b156102c45781809160246040518094819363941e6cfd60e01b83523360048401525af180156102b957611018575b50507fcf245f1ce96e169fc090d32f8aa51f86195ae61c3bbf0f22170802db12b95ff26020604051428152a280f35b61102190612c81565b6102c4578138610fe9565b610fb9565b61103a90612c81565b610814578238610f88565b50346102d057806003193601126102d0576007546040516001600160a01b039091168152602090f35b50346102d057806003193601126102d05760209054604051908152f35b50346102d0576101603660031901126102d0576001600160401b0360243581811161081457608060031982360301126108145760603660431901126108145760403660a31901126108145760403660e319011261081457610124358281116102cc576110fb903690600401612b68565b610144359384116102c8576111166024943690600401612b68565b9290611123600435612f27565b602060018060a01b036004541660405198898092631d0bf83560e21b82523360048301525afa9687156116035788976115e2575b506111686064870187600401612f5a565b905061117a6044880188600401612f8f565b919050148015906115c9575b6115b757604435156115a5576001600160a01b0316956111e160206111b16064890160048a01612f5a565b906111c260448b018b600401612f8f565b60405163ad87ff3160e01b81529586948594919391336004870161327a565b03818c8c5af1801561159a578990611566575b6111fe9150613256565b1561155457863b1561153c576040516305d8902360e41b81523360048201526044803560248301528991908290829081838d5af180156102b957611540575b5050863b1561153c5787604051637072f5af60e01b815233600482015260643560248201526084356044820152610120606482015281818061129a61128761012483018b8b612fc4565b8281036003190160848401528b89612fc4565b6112a660a48301613027565b6112b260e48301613048565b0381838d5af180156102b957611528575b505061148e575b50505050826112df826004018360040161314b565b843b156108145760405163064e5c9360e51b81529183918391829161130a913391906004850161317d565b038183885af180156102b95761147a575b505060405163d88b9df360e01b815290602082600481865afa918215610430578492611445575b506020600492936040519384809263a250c4cb60e01b82525afa80156104305784906113f3575b7f88e0706aef0a636a0d06befde1188d3fb282b0c8ef82706e74b0384d8f80274e92506040519361139985612caa565b6044358552602085015260408401526113e26113c36040519260a0845260a0840190600401613196565b9360208301906040809180518452602081015160208501520151910152565b42608082015280600435930390a280f35b506020823d60201161143d575b8161140d60209383612cc5565b81010312610a3a577f88e0706aef0a636a0d06befde1188d3fb282b0c8ef82706e74b0384d8f80274e9151611369565b3d9150611400565b91506020823d602011611472575b8161146060209383612cc5565b81010312610a3a579051906020611342565b3d9150611453565b61148390612c81565b61081457823861131b565b6114ae61150492604051946002865260a0602087015260a0860191612fc4565b6114ba60408501613027565b4260808501527f9837e1720561f5ed2aaba5820ab63f7f07740e6a34509667e4af8dcf7905b965848195600435930390a2604051936003855260a0602086015260a0850191612fc4565b9161151160408201613048565b42608082015280600435930390a2388080806112ca565b61153190612c81565b61153c5787386112c3565b8780fd5b61154990612c81565b61153c57873861123d565b604051638b450acb60e01b8152600490fd5b506020813d602011611592575b8161158060209383612cc5565b81010312610a3a576111fe90516111f4565b3d9150611573565b6040513d8b823e3d90fd5b604051637710d91d60e11b8152600490fd5b60405163657873a760e01b8152600490fd5b506115da6064870187600401612f5a565b905015611186565b6115fc91975060203d6020116104295761041b8183612cc5565b9538611157565b6040513d8a823e3d90fd5b50346102d057806003193601126102d0576020604051818152f35b50346102d05760403660031901126102d057806001600160a01b0361164f600435612f27565b16803b1561169d5760405163f3fef3a360e01b815233600482015260248035908201529082908290604490829084905af180156102b95761168d5750f35b61169690612c81565b6102d05780f35b50fd5b50346102d057806003193601126102d0576008546040516001600160a01b039091168152602090f35b50346102d05760a03660031901126102d05760043560243560ff8116809103610814576044356001600160401b0381116102cc5761170b903690600401612b68565b909160403660631901126102c8576001600160a01b038061172b86612f27565b16803b15610a3a57604051630613702960e01b81523360048201526024810184905260a060448201529460008661176660a482018885612fc4565b9385611770612bc1565b1660648301528183816084359788608483015203925af1908115610ea4577f9837e1720561f5ed2aaba5820ab63f7f07740e6a34509667e4af8dcf7905b965966117d3926117f3575b50604051958695865260a0602087015260a0860191612fc4565b916117dc612bc1565b16604084015260608301524260808301520390a280f35b6117fc90612c81565b386117b9565b50346102d05760203660031901126102d05761181c612b95565b7ff0c57e16840df040f15088dc2f81fe391c3923bec73e23a9662efc9c229c6a009081549060ff8260401c1680156118ae575b6109c457680100000000000000046118759268ffffffffffffffffff1916178355612de4565b60ff60401b1981541690557fc7f505b2f371ae2175ee4913f4499e1f2633a7b5936321eed1cdaeb6115181d2602060405160048152a180f35b5060046001600160401b038316101561184f565b50346102d05760403660031901126102d0576004356024356fffffffffffffffffffffffffffffffff8116809103610814576118fd82612f27565b81156115a55783906001600160a01b0316803b156102c4578180916044604051809481936305d8902360e41b83523360048401528860248401525af180156102b957611979575b505060407f57aa880322cc087e6c601814aca104d368d46bd0b56666ee3657e5f3e6984a7e918151908152426020820152a280f35b61198290612c81565b610814578238611944565b50346102d057806003193601126102d0576005546040516001600160a01b039091168152602090f35b50346102d05760203660031901126102d0576119d0612b95565b7ff0c57e16840df040f15088dc2f81fe391c3923bec73e23a9662efc9c229c6a009081549060ff8260401c168015611a62575b6109c45768010000000000000003611a299268ffffffffffffffffff1916178355612de4565b60ff60401b1981541690557fc7f505b2f371ae2175ee4913f4499e1f2633a7b5936321eed1cdaeb6115181d2602060405160038152a180f35b5060036001600160401b0383161015611a03565b50346102d057806003193601126102d057611aa6611a92612ce6565b604051918291602083526020830190612da4565b0390f35b50346102d05760603660031901126102d0576004356001600160401b036024358181116102cc57611adf903690600401612c17565b604435928084116102b557366023850112156102b55783600401359081116102b5576024840193602436918360061b0101116102b557611b1e85612f27565b828214801590611bfb575b6115b75760405163ad87ff3160e01b8152906020908290818a81611b54898b8a8e336004870161327a565b03926001600160a01b03165af180156107bc578790611bc8575b611b789150613256565b15611554577f6618028c0fd89350d8fc534c8e9a73b11a6b0ccc18f2a55ba430bc990ce91e649361029591611bba6040519586956060875260608701916130ee565b91848303602086015261306a565b506020813d8211611bf3575b81611be160209383612cc5565b81010312610a3a57611b789051611b6e565b3d9150611bd4565b508115611b29565b50346102d05760803660031901126102d0576004356024356001600160401b03811161081457611c37903690600401612c17565b906001600160a01b0390849082611c4d86612f27565b1693843b156108145760405163fc3f943560e01b81526080600482015291839183918291611c80916084840191906132ae565b33602483015260443560448301526064356064830152038183885af180156102b957611e24575b50506040519063021fe24d60e41b82523360048301526020928383602481845afa928315610484578693611e05575b5060405163fd780e9d60e01b81528481600481855afa9081156107bc578791611de8575b5060ff8085169116811161077d571561076b578360049160405192838092637ddd755b60e11b82525afa908115610484578691611d83575b5016845260039091526040808420805460ff19169055805160ff90921682524260208301527ff11b74430a101b33e07730512a1129dac839578848d69f2f882a068792bc3b39919081908101610700565b90508381819493943d8311611de1575b611d9d8183612cc5565b810103126102b5577ff11b74430a101b33e07730512a1129dac839578848d69f2f882a068792bc3b399361070093611dd6600393612ed3565b925092935093611d32565b503d611d93565b611dff9150853d87116107b5576107a78183612cc5565b38611cfa565b611e1d919350843d86116107b5576107a78183612cc5565b9138611cd6565b611e2d90612c81565b6102cc578338611ca7565b50346102d05760803660031901126102d0576004356024356001600160a01b03611e6183612f27565b60405163ab6e949560e01b815291859116602083600481845afa9283156102b9578293611f33575b50803b156102c457818091608460405180948193638ab12e0b60e01b8352336004840152896024840152604435604484015260643560648401525af180156102b957611f1f575b5050604080516001600160a01b039092168252602082019290925242918101919091527f9d3e24477023ab92e11fe1aa33e6b479649da69a6d2eee3f49b4b8ca22c0752d908060608101610700565b611f2890612c81565b6102cc578338611ed0565b9092506020813d8211611f66575b81611f4e60209383612cc5565b810103126102c457611f5f90612ed3565b9138611e89565b3d9150611f41565b50346102d05760203660031901126102d057600460206001600160a01b03611f968335612f27565b1660405192838092635d70ba8b60e01b82525afa9081156102b95760209291611fc5575b506040519015158152f35b611fdc9150823d81116104295761041b8183612cc5565b38611fba565b50346102d05760203660031901126102d057611ffc612b95565b600a546001600160a01b0391908216330361202857166001600160601b0360a01b600b541617600b5580f35b6040516327d7fdab60e21b8152600490fd5b50346102d057806003193601126102d0576004546040516001600160a01b039091168152602090f35b50346102d057602090816003193601126102d0576001600160401b0360043581811161081457612097903690600401612b68565b600a549092906001600160a01b031633036120285782156121f95782116121e5576120c3600954612c47565b601f8111612187575b508293601f831160011461210957509282938293926120fe575b50508160011b916000199060031b1c19161760095580f35b0135905038806120e6565b601f198316947f6e1540171b6c0c960b71a7020d9f60077f6af931a8bbf590da0223dacf75c7af929185905b87821061216f575050836001959610612155575b505050811b0160095580f35b0135600019600384901b60f8161c19169055388080612149565b80600184968294958701358155019501920190612135565b7f6e1540171b6c0c960b71a7020d9f60077f6af931a8bbf590da0223dacf75c7af601f840160051c8101918685106121db575b601f0160051c01905b8181106121d057506120cc565b8481556001016121c3565b90915081906121ba565b634e487b7160e01b83526041600452602483fd5b604051631858b10b60e01b8152600490fd5b9050346102c4576101803660031901126102c4576001600160401b03916004358381116102c457608060031982360301126102c45760603660231901126102c45760403660831901126102c45760403660c31901126102c457610104358481116108145761227d903690600401612b68565b610124959195358281116102c857612299903690600401612b68565b939092610164359081116102b5576122b5903690600401612b68565b966122c66064840184600401612f5a565b90506122d86044850185600401612f8f565b91905014801590612b4f575b612b405750602435156115a557338652600360205260ff604087205416612b2857600b546001600160a01b031615612a385760018060a01b03600b54168654600181018111612a245760019081018855546040516362aa606160e11b81526001600160a01b0392831660048201523360248201529794939291602091899160449183918991165af19687156104305784976129e8575b508354845260026020908152604080862080546001600160a01b0319166001600160a01b038b1617905533865260039091528420805460ff19166001179055835496975b6005546001600160a01b031690813b156102b5576040516307557ce760e31b81523360048201526001600160a01b038b166024820152610144356044820152608060648201529286928492909183918591839161242091608484019190612fc4565b03925af18015610430576129d5575b50856124416064830160048401612f5a565b60048054600654600754600854949695946001600160a01b039384169492841693908116929116906124799060448a01908a01612f8f565b939095604051988998631c34cdbf60e31b8a5260048a01523360248a01526044890161022090526102248901906124af9261306a565b946024356064890152604435608489015260643560a489015260c488016124d590612fe5565b6124e26101048901613006565b6101448801526101648701526101848601526101a4850152838203600319016101c4850152612510926130ee565b818103600319016101e483015261252890858c612fc4565b81810360031901610204830152612540908888612fc4565b6001600160a01b038a169183910381875a94602095f180156104305784906129a1575b61256d9150613256565b156115545760405163d88b9df360e01b81526020816004816001600160a01b038c165afa90811561043057849161296f575b5060405163a250c4cb60e01b81526020816004816001600160a01b038d165afa90811561293257859161293d575b50604051916125db83612caa565b6024358352602083015260408201526125f7600483018061314b565b6001600160a01b038a163b156102b55760405163064e5c9360e51b81529186918391829161262b913391906004850161317d565b0381836001600160a01b038e165af1801561293257889392918691612917575b50507f756425475689e5cda6db967e12dd655953b4e342d62e4af0fe9ca21feb572024916126a1916126bf6040519384938d60018060a01b0316855233602086015260e0604086015260e0850190600401613196565b825160608501526020830151608085015260409092015160a0840152565b4260c08301520390a26004546001600160a01b0316803b1561081457604051633edc972160e11b81523360048201526001600160a01b03881660248201529083908290604490829084905af180156128f857908391612903575b50506084356001600160a01b03811690819003610a3a57604051639247a1b360e01b8152600260048201526024810191909152602081604481866001600160a01b038c165af19081156128f85783916128c6575b5060c4356001600160a01b03811690819003610a3a57604051639247a1b360e01b8152600360048201526024810191909152602081604481876001600160a01b038d165af19384156128ba5793612883575b5090602097869261283e575b5050506127e8575b50506040516001600160a01b03909216825250f35b7f3cef7ad39d6c356627632fae5b3091b2d45c7417a969c6a6c4e587e0abbe20e39161283360405192839260038452612822898501613006565b608060608501526080840191612fc4565b0390a23880806127d3565b7f3cef7ad39d6c356627632fae5b3091b2d45c7417a969c6a6c4e587e0abbe20e391612878604051928392600284526128228d8501612fe5565b0390a28338806127cb565b919092506020823d6020116128b2575b816128a060209383612cc5565b81010312610a3a5790519160206127bf565b3d9150612893565b604051903d90823e3d90fd5b90506020813d6020116128f0575b816128e160209383612cc5565b81010312610a3a57513861276d565b3d91506128d4565b6040513d85823e3d90fd5b61290c90612c81565b6102c4578138612719565b6129249192939450612c81565b6102cc57908691843861264b565b6040513d87823e3d90fd5b90506020813d602011612967575b8161295860209383612cc5565b81010312610a3a5751386125cd565b3d915061294b565b90506020813d602011612999575b8161298a60209383612cc5565b81010312610a3a57513861259f565b3d915061297d565b506020813d6020116129cd575b816129bb60209383612cc5565b81010312610a3a5761256d9051612563565b3d91506129ae565b6129e190939193612c81565b913861242f565b9096506020813d602011612a1c575b81612a0460209383612cc5565b810103126102cc57612a1590612ed3565b953861237a565b3d91506129f7565b634e487b7160e01b88526011600452602488fd5b612a40612ce6565b8654600181018111612a2457612a858895949392600160409301875560018060a01b03600154169083519a8b809481936303efe8cf60e61b8352339060048401612ee7565b03925af1968715610430578497612adf575b508354845260026020908152604080862080546001600160a01b0319166001600160a01b038b1617905533865260039091528420805460ff19166001179055835496976123be565b9096506040813d604011612b20575b81612afb60409383612cc5565b810103126102cc57612b186020612b1183612ed3565b9201612ed3565b509538612a97565b3d9150612aee565b60405163834ef7eb60e01b8152336004820152602490fd5b63657873a760e01b8152600490fd5b50612b606064840184600401612f5a565b9050156122e4565b9181601f84011215610a3a578235916001600160401b038311610a3a5760208381860195010111610a3a57565b600435906001600160a01b0382168203610a3a57565b602435906001600160a01b0382168203610a3a57565b606435906001600160a01b0382168203610a3a57565b604435906001600160a01b0382168203610a3a57565b60a435906001600160a01b0382168203610a3a57565b35906001600160a01b0382168203610a3a57565b9181601f84011215610a3a578235916001600160401b038311610a3a576020808501948460051b010111610a3a57565b90600182811c92168015612c77575b6020831014612c6157565b634e487b7160e01b600052602260045260246000fd5b91607f1691612c56565b6001600160401b038111612c9457604052565b634e487b7160e01b600052604160045260246000fd5b606081019081106001600160401b03821117612c9457604052565b90601f801991011681019081106001600160401b03821117612c9457604052565b6040519060008260095491612cfa83612c47565b80835292600190818116908115612d825750600114612d23575b50612d2192500383612cc5565b565b6009600090815291507f6e1540171b6c0c960b71a7020d9f60077f6af931a8bbf590da0223dacf75c7af5b848310612d675750612d21935050810160200138612d14565b81935090816020925483858a01015201910190918592612d4e565b905060209250612d2194915060ff191682840152151560051b82010138612d14565b919082519283825260005b848110612dd0575050826000602080949584010152601f8019910116010190565b602081830181015184830182015201612daf565b6001600160a01b031680156109c4576001600160601b0360a01b600a541617600a55565b600b546001600160a01b0390811680612e995750612e4d91602091612e2b612ce6565b90600154169060405180958194829363ba3143d560e01b845260048401612ee7565b03915afa908115610ea457600091612e63575090565b906020823d8211612e91575b81612e7c60209383612cc5565b810103126102d05750612e8e90612ed3565b90565b3d9150612e6f565b600154604051637d11498760e11b81526001600160a01b039283166004820152939091166024840152602091839116818060448101612e4d565b51906001600160a01b0382168203610a3a57565b90612eff602091949394604084526040840190612da4565b6001600160a01b03909416910152565b90816020910312610a3a57518015158103610a3a5790565b6000908152600260205260409020546001600160a01b0316908115612f4857565b604051630e34dec560e01b8152600490fd5b903590601e1981360301821215610a3a57018035906001600160401b038211610a3a57602001918160061b36038313610a3a57565b903590601e1981360301821215610a3a57018035906001600160401b038211610a3a57602001918160051b36038313610a3a57565b908060209392818452848401376000828201840152601f01601f1916010190565b6084356001600160a01b03811690819003610a3a578152602060a435910152565b60c4356001600160a01b03811690819003610a3a578152602060e435910152565b60a4356001600160a01b03811690819003610a3a578152602060c435910152565b60e4356001600160a01b03811690819003610a3a578152602061010435910152565b9190808252602080920192916000905b828210613088575050505090565b9293919290916001906001600160a01b036130a287612c03565b1681528583013583820152604090810195019392019061307a565b9035601e1982360301811215610a3a5701602081359101916001600160401b038211610a3a578136038313610a3a57565b90808352602080930192838260051b850194846000925b858410613116575050505050505090565b90919293949596858061313a83856001950388526131348c886130bd565b90612fc4565b990194019401929594939190613105565b903590601e1981360301821215610a3a57018035906001600160401b038211610a3a57602001918136038313610a3a57565b91602091612eff91959495604085526040850191612fc4565b6131cf6131b46131a683806130bd565b608086526080860191612fc4565b6131c160208401846130bd565b908583036020870152612fc4565b36829003601e190191604081013583811215610a3a57810191602083359301906001600160401b0393848111610a3a578060051b36038313610a3a5761321c9287830360408901526130ee565b92606082013590811215610a3a570190602082359201908211610a3a578160061b36038113610a3a57836060612e8e95850391015261306a565b801590811561326f575b5061326a57600190565b600090565b602091501138613260565b9391612e8e95936132a09260018060a01b0316865260606020870152606086019161306a565b9260408185039101526130ee565b91908082526020809201929160005b8281106132cb575050505090565b909192938280600192838060a01b036132e389612c03565b168152019501939291016132bd565b90816020910312610a3a575160ff81168103610a3a5790565b8051156133185760200190565b634e487b7160e01b600052603260045260246000fd5b8051600110156133185760400190565b906020908183820312610a3a5782516001600160401b0393848211610a3a570181601f82011215610a3a578051938411612c94578360051b906040519461338785840187612cc5565b85528380860192820101928311610a3a578301905b8282106133aa575050505090565b8151815290830190830161339c565b9060609160408101918152602092816040858094015285518094520193019160005b8281106133e9575050505090565b83516001600160a01b0316855293810193928101926001016133db56fea2646970667358221220742edb205059bf262b8546f98fcb0e20bcb4c4d7ff5849d9767612482f0fe1c364736f6c63430008140033",
  "devdoc": {
    "errors": {
      "InvalidInitialization()": [
        {
          "details": "The contract is already initialized."
        }
      ],
      "NotInitializing()": [
        {
          "details": "The contract is not initializing."
        }
      ]
    },
    "events": {
      "Initialized(uint64)": {
        "details": "Triggered when the contract has been initialized or reinitialized."
      }
    },
    "kind": "dev",
    "methods": {
      "activeLegacyAndUnswap(uint256,address[],uint256,uint256)": {
        "details": "Beneficiary claims the legacy; if the owner has an active storage-token swap, it is atomically swapped back to ETH and distributed in the same transaction."
      },
      "autoSwap(uint256,(address,uint256,uint256))": {
        "details": "Forwards ETH + swap config to the individual legacy contract. The individual contract swaps ETH -> storageToken and sends tokens to the owner's wallet."
      },
      "getEthToTokenAmountOut(uint256,address)": {
        "details": "Returns the expected token amount out for a given ETH amount via Uniswap V2."
      },
      "getNextLegacyAddress(address)": {
        "details": "Get next legacy address that would be created for a sender. Uses the clone prediction when `legacyImplementation` is set, otherwise falls back to the creation-code prediction."
      },
      "getTokenToEthAmountOut(uint256,address)": {
        "details": "Returns the expected ETH amount out for a given token amount via Uniswap V2."
      },
      "releaseCreateFlag(uint256)": {
        "details": "Self-service flag-release for owners of already-tombstoned legacies. `deleteLegacy` reverts on legacies that have already been activated (the underlying contract's `isActiveLegacy` modifier blocks delete after `_isActive == 2`), which historically left their owners with a stuck `isCreateLegacy[sender] = true` and no path back. This entry point lets the owner clear that flag for any of their legacies that the system itself considers no-longer-live (claimed by a beneficiary, or deleted via `deleteLegacy`). Authorization: caller must be the legacy's recorded owner. The `isLive()` check on the child contract returns false for both the `_isActive == 2` (claimed) and `_isLive == 2` (deleted) terminal states, so this covers every case where `isCreateLegacy[owner]` could have been left dangling. Idempotent and chain-safe: re-entering on a fresh legacy reverts `LegacyStillActive`; re-entering on the same dead legacy is a no-op write that keeps the flag false."
      },
      "setLegacyImplementation(address)": {
        "details": "Point new legacies at an EIP-1167 minimal-proxy implementation. Once set, `createLegacy` deploys ~45-byte clones (~40k gas) instead of the full ~18KB bytecode (~6M gas). Pass `address(0)` to fall back to the legacy bytecode path. Existing legacies are unaffected by this change."
      },
      "unswap(uint256,uint256,uint256,uint256)": {
        "details": "Forwards unswap request to the individual legacy contract. Pulls storageToken from owner's wallet, swaps to ETH, sends ETH to owner."
      }
    },
    "version": 1
  },
  "userdoc": {
    "kind": "user",
    "methods": {},
    "version": 1
  },
  "storageLayout": {
    "storage": [
      {
        "astId": 5381,
        "contract": "contracts/forwarding/TransferLegacyEOAContractRouter.sol:TransferEOALegacyRouter",
        "label": "_legacyId",
        "offset": 0,
        "slot": "0",
        "type": "t_uint256"
      },
      {
        "astId": 5383,
        "contract": "contracts/forwarding/TransferLegacyEOAContractRouter.sol:TransferEOALegacyRouter",
        "label": "legacyDeployerContract",
        "offset": 0,
        "slot": "1",
        "type": "t_address"
      },
      {
        "astId": 5387,
        "contract": "contracts/forwarding/TransferLegacyEOAContractRouter.sol:TransferEOALegacyRouter",
        "label": "legacyAddresses",
        "offset": 0,
        "slot": "2",
        "type": "t_mapping(t_uint256,t_address)"
      },
      {
        "astId": 5391,
        "contract": "contracts/forwarding/TransferLegacyEOAContractRouter.sol:TransferEOALegacyRouter",
        "label": "isCreateLegacy",
        "offset": 0,
        "slot": "3",
        "type": "t_mapping(t_address,t_bool)"
      },
      {
        "astId": 5610,
        "contract": "contracts/forwarding/TransferLegacyEOAContractRouter.sol:TransferEOALegacyRouter",
        "label": "premiumSetting",
        "offset": 0,
        "slot": "4",
        "type": "t_address"
      },
      {
        "astId": 5613,
        "contract": "contracts/forwarding/TransferLegacyEOAContractRouter.sol:TransferEOALegacyRouter",
        "label": "verifier",
        "offset": 0,
        "slot": "5",
        "type": "t_contract(IEIP712LegacyVerifier)7173"
      },
      {
        "astId": 5615,
        "contract": "contracts/forwarding/TransferLegacyEOAContractRouter.sol:TransferEOALegacyRouter",
        "label": "paymentContract",
        "offset": 0,
        "slot": "6",
        "type": "t_address"
      },
      {
        "astId": 5617,
        "contract": "contracts/forwarding/TransferLegacyEOAContractRouter.sol:TransferEOALegacyRouter",
        "label": "uniswapRouter",
        "offset": 0,
        "slot": "7",
        "type": "t_address"
      },
      {
        "astId": 5619,
        "contract": "contracts/forwarding/TransferLegacyEOAContractRouter.sol:TransferEOALegacyRouter",
        "label": "weth",
        "offset": 0,
        "slot": "8",
        "type": "t_address"
      },
      {
        "astId": 5621,
        "contract": "contracts/forwarding/TransferLegacyEOAContractRouter.sol:TransferEOALegacyRouter",
        "label": "legacyCreationCode",
        "offset": 0,
        "slot": "9",
        "type": "t_bytes_storage"
      },
      {
        "astId": 5623,
        "contract": "contracts/forwarding/TransferLegacyEOAContractRouter.sol:TransferEOALegacyRouter",
        "label": "_codeAdmin",
        "offset": 0,
        "slot": "10",
        "type": "t_address"
      },
      {
        "astId": 5625,
        "contract": "contracts/forwarding/TransferLegacyEOAContractRouter.sol:TransferEOALegacyRouter",
        "label": "legacyImplementation",
        "offset": 0,
        "slot": "11",
        "type": "t_address"
      }
    ],
    "types": {
      "t_address": {
        "encoding": "inplace",
        "label": "address",
        "numberOfBytes": "20"
      },
      "t_bool": {
        "encoding": "inplace",
        "label": "bool",
        "numberOfBytes": "1"
      },
      "t_bytes_storage": {
        "encoding": "bytes",
        "label": "bytes",
        "numberOfBytes": "32"
      },
      "t_contract(IEIP712LegacyVerifier)7173": {
        "encoding": "inplace",
        "label": "contract IEIP712LegacyVerifier",
        "numberOfBytes": "20"
      },
      "t_mapping(t_address,t_bool)": {
        "encoding": "mapping",
        "key": "t_address",
        "label": "mapping(address => bool)",
        "numberOfBytes": "32",
        "value": "t_bool"
      },
      "t_mapping(t_uint256,t_address)": {
        "encoding": "mapping",
        "key": "t_uint256",
        "label": "mapping(uint256 => address)",
        "numberOfBytes": "32",
        "value": "t_address"
      },
      "t_uint256": {
        "encoding": "inplace",
        "label": "uint256",
        "numberOfBytes": "32"
      }
    }
  }
}